{
  "contracts/TradingCardGame.sol": {
    "TradingCardGame": {
      "abi": [
        {
          "inputs": [
            {
              "internalType": "address",
              "name": "_pythAddress",
              "type": "address"
            },
            {
              "internalType": "address",
              "name": "_hyperlaneCelo",
              "type": "address"
            }
          ],
          "stateMutability": "nonpayable",
          "type": "constructor"
        },
        {
          "anonymous": false,
          "inputs": [
            {
              "indexed": true,
              "internalType": "uint256",
              "name": "gameId",
              "type": "uint256"
            },
            {
              "indexed": true,
              "internalType": "address",
              "name": "player",
              "type": "address"
            },
            {
              "indexed": false,
              "internalType": "uint256[3]",
              "name": "cards",
              "type": "uint256[3]"
            }
          ],
          "name": "ChoicesCommitted",
          "type": "event"
        },
        {
          "anonymous": false,
          "inputs": [
            {
              "indexed": true,
              "internalType": "uint256",
              "name": "gameId",
              "type": "uint256"
            },
            {
              "indexed": false,
              "internalType": "bytes32",
              "name": "randomNumber",
              "type": "bytes32"
            },
            {
              "indexed": false,
              "internalType": "uint64",
              "name": "sequenceNumber",
              "type": "uint64"
            }
          ],
          "name": "EntropyReceived",
          "type": "event"
        },
        {
          "anonymous": false,
          "inputs": [
            {
              "indexed": true,
              "internalType": "uint256",
              "name": "gameId",
              "type": "uint256"
            },
            {
              "indexed": false,
              "internalType": "uint256",
              "name": "requestNumber",
              "type": "uint256"
            }
          ],
          "name": "EntropyRequested",
          "type": "event"
        },
        {
          "anonymous": false,
          "inputs": [
            {
              "indexed": true,
              "internalType": "uint256",
              "name": "gameId",
              "type": "uint256"
            },
            {
              "indexed": false,
              "internalType": "uint256[]",
              "name": "cards",
              "type": "uint256[]"
            }
          ],
          "name": "GameActive",
          "type": "event"
        },
        {
          "anonymous": false,
          "inputs": [
            {
              "indexed": true,
              "internalType": "uint256",
              "name": "gameId",
              "type": "uint256"
            }
          ],
          "name": "GameEnded",
          "type": "event"
        },
        {
          "anonymous": false,
          "inputs": [
            {
              "indexed": true,
              "internalType": "uint256",
              "name": "gameId",
              "type": "uint256"
            },
            {
              "indexed": true,
              "internalType": "address",
              "name": "starter",
              "type": "address"
            }
          ],
          "name": "GameStarted",
          "type": "event"
        },
        {
          "anonymous": false,
          "inputs": [
            {
              "indexed": true,
              "internalType": "uint256",
              "name": "gameId",
              "type": "uint256"
            },
            {
              "indexed": true,
              "internalType": "address",
              "name": "player",
              "type": "address"
            }
          ],
          "name": "PlayerJoined",
          "type": "event"
        },
        {
          "anonymous": false,
          "inputs": [
            {
              "indexed": true,
              "internalType": "uint256",
              "name": "gameId",
              "type": "uint256"
            },
            {
              "indexed": true,
              "internalType": "address",
              "name": "player",
              "type": "address"
            },
            {
              "indexed": false,
              "internalType": "uint256",
              "name": "points",
              "type": "uint256"
            }
          ],
          "name": "PointsAwarded",
          "type": "event"
        },
        {
          "anonymous": false,
          "inputs": [
            {
              "indexed": true,
              "internalType": "uint256",
              "name": "gameId",
              "type": "uint256"
            }
          ],
          "name": "PricesUpdated",
          "type": "event"
        },
        {
          "inputs": [],
          "name": "CHOICE_DURATION",
          "outputs": [
            {
              "internalType": "uint256",
              "name": "",
              "type": "uint256"
            }
          ],
          "stateMutability": "view",
          "type": "function"
        },
        {
          "inputs": [],
          "name": "LOBBY_DURATION",
          "outputs": [
            {
              "internalType": "uint256",
              "name": "",
              "type": "uint256"
            }
          ],
          "stateMutability": "view",
          "type": "function"
        },
        {
          "inputs": [],
          "name": "MIN_PLAYERS",
          "outputs": [
            {
              "internalType": "uint256",
              "name": "",
              "type": "uint256"
            }
          ],
          "stateMutability": "view",
          "type": "function"
        },
        {
          "inputs": [],
          "name": "POINTS_MARKET_CAP_VOLUME",
          "outputs": [
            {
              "internalType": "uint256",
              "name": "",
              "type": "uint256"
            }
          ],
          "stateMutability": "view",
          "type": "function"
        },
        {
          "inputs": [],
          "name": "POINTS_PERCENTAGE_CHANGE",
          "outputs": [
            {
              "internalType": "uint256",
              "name": "",
              "type": "uint256"
            }
          ],
          "stateMutability": "view",
          "type": "function"
        },
        {
          "inputs": [],
          "name": "POINTS_PRICE_ABOVE_BELOW",
          "outputs": [
            {
              "internalType": "uint256",
              "name": "",
              "type": "uint256"
            }
          ],
          "stateMutability": "view",
          "type": "function"
        },
        {
          "inputs": [],
          "name": "POINTS_PRICE_UP_DOWN",
          "outputs": [
            {
              "internalType": "uint256",
              "name": "",
              "type": "uint256"
            }
          ],
          "stateMutability": "view",
          "type": "function"
        },
        {
          "inputs": [],
          "name": "RESOLUTION_DURATION",
          "outputs": [
            {
              "internalType": "uint256",
              "name": "",
              "type": "uint256"
            }
          ],
          "stateMutability": "view",
          "type": "function"
        },
        {
          "inputs": [
            {
              "internalType": "uint256",
              "name": "",
              "type": "uint256"
            }
          ],
          "name": "assetPriceIds",
          "outputs": [
            {
              "internalType": "bytes32",
              "name": "",
              "type": "bytes32"
            }
          ],
          "stateMutability": "view",
          "type": "function"
        },
        {
          "inputs": [
            {
              "internalType": "uint256",
              "name": "_gameId",
              "type": "uint256"
            }
          ],
          "name": "canEndGame",
          "outputs": [
            {
              "internalType": "bool",
              "name": "canEnd",
              "type": "bool"
            },
            {
              "internalType": "string",
              "name": "reason",
              "type": "string"
            },
            {
              "internalType": "enum TradingCardGame.GameStatus",
              "name": "gameStatus_",
              "type": "uint8"
            },
            {
              "internalType": "uint256",
              "name": "resolutionDeadline_",
              "type": "uint256"
            },
            {
              "internalType": "uint256",
              "name": "currentTime",
              "type": "uint256"
            }
          ],
          "stateMutability": "view",
          "type": "function"
        },
        {
          "inputs": [
            {
              "internalType": "uint256",
              "name": "_gameId",
              "type": "uint256"
            }
          ],
          "name": "canStartGame",
          "outputs": [
            {
              "internalType": "bool",
              "name": "canStart",
              "type": "bool"
            },
            {
              "internalType": "string",
              "name": "reason",
              "type": "string"
            }
          ],
          "stateMutability": "view",
          "type": "function"
        },
        {
          "inputs": [
            {
              "internalType": "uint256",
              "name": "_gameId",
              "type": "uint256"
            },
            {
              "internalType": "uint256[3]",
              "name": "_cardNumbers",
              "type": "uint256[3]"
            }
          ],
          "name": "commitChoices",
          "outputs": [],
          "stateMutability": "nonpayable",
          "type": "function"
        },
        {
          "inputs": [],
          "name": "createGame",
          "outputs": [
            {
              "internalType": "uint256",
              "name": "",
              "type": "uint256"
            }
          ],
          "stateMutability": "nonpayable",
          "type": "function"
        },
        {
          "inputs": [
            {
              "internalType": "uint256",
              "name": "_gameId",
              "type": "uint256"
            }
          ],
          "name": "endGame",
          "outputs": [],
          "stateMutability": "nonpayable",
          "type": "function"
        },
        {
          "inputs": [],
          "name": "entropyRequestCount",
          "outputs": [
            {
              "internalType": "uint256",
              "name": "",
              "type": "uint256"
            }
          ],
          "stateMutability": "view",
          "type": "function"
        },
        {
          "inputs": [
            {
              "internalType": "uint256",
              "name": "",
              "type": "uint256"
            }
          ],
          "name": "entropyRequested",
          "outputs": [
            {
              "internalType": "bool",
              "name": "",
              "type": "bool"
            }
          ],
          "stateMutability": "view",
          "type": "function"
        },
        {
          "inputs": [
            {
              "internalType": "uint256",
              "name": "",
              "type": "uint256"
            }
          ],
          "name": "gameEntropy",
          "outputs": [
            {
              "internalType": "bytes32",
              "name": "",
              "type": "bytes32"
            }
          ],
          "stateMutability": "view",
          "type": "function"
        },
        {
          "inputs": [
            {
              "internalType": "uint256",
              "name": "",
              "type": "uint256"
            }
          ],
          "name": "games",
          "outputs": [
            {
              "internalType": "uint256",
              "name": "gameId",
              "type": "uint256"
            },
            {
              "internalType": "enum TradingCardGame.GameStatus",
              "name": "status",
              "type": "uint8"
            },
            {
              "internalType": "uint256",
              "name": "startTime",
              "type": "uint256"
            },
            {
              "internalType": "uint256",
              "name": "lobbyDeadline",
              "type": "uint256"
            },
            {
              "internalType": "uint256",
              "name": "choiceDeadline",
              "type": "uint256"
            },
            {
              "internalType": "uint256",
              "name": "resolutionDeadline",
              "type": "uint256"
            },
            {
              "internalType": "bool",
              "name": "resolved",
              "type": "bool"
            }
          ],
          "stateMutability": "view",
          "type": "function"
        },
        {
          "inputs": [
            {
              "internalType": "uint256",
              "name": "_gameId",
              "type": "uint256"
            }
          ],
          "name": "getCurrentPhase",
          "outputs": [
            {
              "internalType": "enum TradingCardGame.GameStatus",
              "name": "phase",
              "type": "uint8"
            }
          ],
          "stateMutability": "view",
          "type": "function"
        },
        {
          "inputs": [
            {
              "internalType": "uint256",
              "name": "_gameId",
              "type": "uint256"
            }
          ],
          "name": "getEntropyRequestStatus",
          "outputs": [
            {
              "internalType": "bool",
              "name": "requested",
              "type": "bool"
            },
            {
              "internalType": "bool",
              "name": "received",
              "type": "bool"
            }
          ],
          "stateMutability": "view",
          "type": "function"
        },
        {
          "inputs": [
            {
              "internalType": "bytes32",
              "name": "_priceId",
              "type": "bytes32"
            }
          ],
          "name": "getFeedPrice",
          "outputs": [
            {
              "components": [
                {
                  "internalType": "int64",
                  "name": "price",
                  "type": "int64"
                },
                {
                  "internalType": "uint64",
                  "name": "conf",
                  "type": "uint64"
                },
                {
                  "internalType": "int32",
                  "name": "expo",
                  "type": "int32"
                },
                {
                  "internalType": "uint256",
                  "name": "publishTime",
                  "type": "uint256"
                }
              ],
              "internalType": "struct PythStructs.Price",
              "name": "price",
              "type": "tuple"
            }
          ],
          "stateMutability": "view",
          "type": "function"
        },
        {
          "inputs": [
            {
              "internalType": "bytes32[]",
              "name": "_priceIds",
              "type": "bytes32[]"
            }
          ],
          "name": "getFeedPrices",
          "outputs": [
            {
              "components": [
                {
                  "internalType": "int64",
                  "name": "price",
                  "type": "int64"
                },
                {
                  "internalType": "uint64",
                  "name": "conf",
                  "type": "uint64"
                },
                {
                  "internalType": "int32",
                  "name": "expo",
                  "type": "int32"
                },
                {
                  "internalType": "uint256",
                  "name": "publishTime",
                  "type": "uint256"
                }
              ],
              "internalType": "struct PythStructs.Price[]",
              "name": "prices",
              "type": "tuple[]"
            }
          ],
          "stateMutability": "view",
          "type": "function"
        },
        {
          "inputs": [
            {
              "internalType": "uint256",
              "name": "_gameId",
              "type": "uint256"
            }
          ],
          "name": "getGameCards",
          "outputs": [
            {
              "internalType": "uint256[]",
              "name": "",
              "type": "uint256[]"
            }
          ],
          "stateMutability": "view",
          "type": "function"
        },
        {
          "inputs": [
            {
              "internalType": "uint256",
              "name": "_gameId",
              "type": "uint256"
            }
          ],
          "name": "getGamePlayers",
          "outputs": [
            {
              "internalType": "address[]",
              "name": "",
              "type": "address[]"
            }
          ],
          "stateMutability": "view",
          "type": "function"
        },
        {
          "inputs": [
            {
              "internalType": "uint256",
              "name": "_gameId",
              "type": "uint256"
            }
          ],
          "name": "getGameState",
          "outputs": [
            {
              "internalType": "enum TradingCardGame.GameStatus",
              "name": "status",
              "type": "uint8"
            },
            {
              "internalType": "uint256",
              "name": "startTime",
              "type": "uint256"
            },
            {
              "internalType": "uint256",
              "name": "lobbyDeadline",
              "type": "uint256"
            },
            {
              "internalType": "uint256",
              "name": "choiceDeadline",
              "type": "uint256"
            },
            {
              "internalType": "uint256",
              "name": "resolutionDeadline",
              "type": "uint256"
            },
            {
              "internalType": "uint256",
              "name": "playerCount",
              "type": "uint256"
            },
            {
              "internalType": "uint256",
              "name": "cardCount",
              "type": "uint256"
            }
          ],
          "stateMutability": "view",
          "type": "function"
        },
        {
          "inputs": [
            {
              "internalType": "uint256",
              "name": "_gameId",
              "type": "uint256"
            },
            {
              "internalType": "address",
              "name": "_player",
              "type": "address"
            }
          ],
          "name": "getGameStateWithPlayer",
          "outputs": [
            {
              "internalType": "enum TradingCardGame.GameStatus",
              "name": "status",
              "type": "uint8"
            },
            {
              "internalType": "uint256",
              "name": "startTime",
              "type": "uint256"
            },
            {
              "internalType": "uint256",
              "name": "lobbyDeadline",
              "type": "uint256"
            },
            {
              "internalType": "uint256",
              "name": "choiceDeadline",
              "type": "uint256"
            },
            {
              "internalType": "uint256",
              "name": "resolutionDeadline",
              "type": "uint256"
            },
            {
              "internalType": "uint256",
              "name": "playerCount",
              "type": "uint256"
            },
            {
              "internalType": "uint256",
              "name": "cardCount",
              "type": "uint256"
            },
            {
              "internalType": "bool",
              "name": "playerHasCommitted",
              "type": "bool"
            },
            {
              "internalType": "uint256[3]",
              "name": "playerSelectedCards",
              "type": "uint256[3]"
            }
          ],
          "stateMutability": "view",
          "type": "function"
        },
        {
          "inputs": [],
          "name": "getNextGameId",
          "outputs": [
            {
              "internalType": "uint256",
              "name": "",
              "type": "uint256"
            }
          ],
          "stateMutability": "view",
          "type": "function"
        },
        {
          "inputs": [
            {
              "internalType": "address",
              "name": "_player",
              "type": "address"
            }
          ],
          "name": "getPlayerActiveGame",
          "outputs": [
            {
              "internalType": "uint256",
              "name": "",
              "type": "uint256"
            }
          ],
          "stateMutability": "view",
          "type": "function"
        },
        {
          "inputs": [
            {
              "internalType": "uint256",
              "name": "_gameId",
              "type": "uint256"
            },
            {
              "internalType": "address",
              "name": "_player",
              "type": "address"
            }
          ],
          "name": "getPlayerChoices",
          "outputs": [
            {
              "internalType": "uint256[3]",
              "name": "selectedCards",
              "type": "uint256[3]"
            },
            {
              "internalType": "uint256",
              "name": "committedAt",
              "type": "uint256"
            },
            {
              "internalType": "bool",
              "name": "committed",
              "type": "bool"
            }
          ],
          "stateMutability": "view",
          "type": "function"
        },
        {
          "inputs": [
            {
              "internalType": "address",
              "name": "_player",
              "type": "address"
            }
          ],
          "name": "getPlayerScore",
          "outputs": [
            {
              "internalType": "uint256",
              "name": "totalPoints",
              "type": "uint256"
            },
            {
              "internalType": "uint256",
              "name": "gamesPlayed",
              "type": "uint256"
            },
            {
              "internalType": "uint256",
              "name": "gamesWon",
              "type": "uint256"
            }
          ],
          "stateMutability": "view",
          "type": "function"
        },
        {
          "inputs": [
            {
              "internalType": "uint256",
              "name": "_gameId",
              "type": "uint256"
            },
            {
              "internalType": "uint256",
              "name": "_cardNumber",
              "type": "uint256"
            }
          ],
          "name": "getPredictionResult",
          "outputs": [
            {
              "internalType": "bool",
              "name": "correct",
              "type": "bool"
            },
            {
              "internalType": "uint256",
              "name": "pointsEarned",
              "type": "uint256"
            }
          ],
          "stateMutability": "view",
          "type": "function"
        },
        {
          "inputs": [
            {
              "internalType": "uint256",
              "name": "_gameId",
              "type": "uint256"
            }
          ],
          "name": "hasEntropy",
          "outputs": [
            {
              "internalType": "bool",
              "name": "",
              "type": "bool"
            }
          ],
          "stateMutability": "view",
          "type": "function"
        },
        {
          "inputs": [],
          "name": "hyperlaneCelo",
          "outputs": [
            {
              "internalType": "contract IHyperlaneCelo",
              "name": "",
              "type": "address"
            }
          ],
          "stateMutability": "view",
          "type": "function"
        },
        {
          "inputs": [],
          "name": "isContractActive",
          "outputs": [
            {
              "internalType": "bool",
              "name": "",
              "type": "bool"
            }
          ],
          "stateMutability": "pure",
          "type": "function"
        },
        {
          "inputs": [
            {
              "internalType": "uint256",
              "name": "_gameId",
              "type": "uint256"
            }
          ],
          "name": "joinGame",
          "outputs": [],
          "stateMutability": "nonpayable",
          "type": "function"
        },
        {
          "inputs": [
            {
              "internalType": "uint256",
              "name": "",
              "type": "uint256"
            }
          ],
          "name": "leaderboard",
          "outputs": [
            {
              "internalType": "address",
              "name": "",
              "type": "address"
            }
          ],
          "stateMutability": "view",
          "type": "function"
        },
        {
          "inputs": [
            {
              "internalType": "address",
              "name": "",
              "type": "address"
            }
          ],
          "name": "playerActiveGame",
          "outputs": [
            {
              "internalType": "uint256",
              "name": "",
              "type": "uint256"
            }
          ],
          "stateMutability": "view",
          "type": "function"
        },
        {
          "inputs": [
            {
              "internalType": "address",
              "name": "",
              "type": "address"
            }
          ],
          "name": "playerScores",
          "outputs": [
            {
              "internalType": "address",
              "name": "player",
              "type": "address"
            },
            {
              "internalType": "uint256",
              "name": "totalPoints",
              "type": "uint256"
            },
            {
              "internalType": "uint256",
              "name": "gamesPlayed",
              "type": "uint256"
            },
            {
              "internalType": "uint256",
              "name": "gamesWon",
              "type": "uint256"
            }
          ],
          "stateMutability": "view",
          "type": "function"
        },
        {
          "inputs": [],
          "name": "pyth",
          "outputs": [
            {
              "internalType": "contract IPyth",
              "name": "",
              "type": "address"
            }
          ],
          "stateMutability": "view",
          "type": "function"
        },
        {
          "inputs": [
            {
              "internalType": "bytes32",
              "name": "randomNumber",
              "type": "bytes32"
            },
            {
              "internalType": "uint64",
              "name": "sequenceNumber",
              "type": "uint64"
            }
          ],
          "name": "receiveEntropy",
          "outputs": [],
          "stateMutability": "nonpayable",
          "type": "function"
        },
        {
          "inputs": [
            {
              "internalType": "uint256",
              "name": "_assetIndex",
              "type": "uint256"
            },
            {
              "internalType": "bytes32",
              "name": "_priceId",
              "type": "bytes32"
            }
          ],
          "name": "setAssetPriceId",
          "outputs": [],
          "stateMutability": "nonpayable",
          "type": "function"
        },
        {
          "inputs": [
            {
              "internalType": "uint256",
              "name": "_gameId",
              "type": "uint256"
            },
            {
              "internalType": "bool",
              "name": "_useSecureRandomness",
              "type": "bool"
            }
          ],
          "name": "startGame",
          "outputs": [],
          "stateMutability": "nonpayable",
          "type": "function"
        },
        {
          "inputs": [
            {
              "internalType": "uint256",
              "name": "_gameId",
              "type": "uint256"
            }
          ],
          "name": "transitionToResolution",
          "outputs": [],
          "stateMutability": "nonpayable",
          "type": "function"
        },
        {
          "inputs": [
            {
              "internalType": "uint256",
              "name": "_gameId",
              "type": "uint256"
            },
            {
              "internalType": "bytes[]",
              "name": "_priceUpdateData",
              "type": "bytes[]"
            },
            {
              "internalType": "bytes32[]",
              "name": "",
              "type": "bytes32[]"
            },
            {
              "internalType": "uint256",
              "name": "_updateFee",
              "type": "uint256"
            }
          ],
          "name": "updatePricesAndResolve",
          "outputs": [],
          "stateMutability": "payable",
          "type": "function"
        },
        {
          "stateMutability": "payable",
          "type": "receive"
        }
      ],
      "evm": {
        "bytecode": {
          "linkReferences": {},
          "object": "60c0346100ad57601f612bed38819003918201601f19168301916001600160401b038311848410176100b25780849260409485528339810103126100ad57610052602061004b836100c8565b92016100c8565b6001600160a01b039182166080521660a0526001600055604051612b1090816100dd82396080518181816102d60152818161122701528181611ec60152612108015260a051818181610f9b015281816117860152611c650152f35b600080fd5b634e487b7160e01b600052604160045260246000fd5b51906001600160a01b03821682036100ad5756fe6080604052600436101561001b575b361561001957600080fd5b005b6000803560e01c806302653e9a146120a157806310c28d3114612000578063117a5b9014611f845780631226897a14611f6857806314527c5814611e8e57806315a40f4914611db657806319848fca14611c39578063392b749c14611be55780633c8aec3f14611bbb5780634b9a2a2c14611a8157806353644f3114611a5a578063572e85ec14611a1d5780635c5c83821461097157806362550ae1146119b95780636bdca4571461199b5780637255d729146116975780637ca90e591461167b5780637f57504f1461161557806385f07bbe146115f9578063860cbc771461155b578063863df0a1146115225780638f5949f9146115065780639a18e981146114885780639c18c05d14611459578063a457d3d614611134578063ad7465d414611108578063b0fd159f146110ec578063bc6c97da146110c2578063bee4c6d3146110a6578063bf36839914611025578063cb09d27f14610fca578063cf10241314610f85578063d0399bb814610c19578063d7793c1914610a12578063de45e20a146109ca578063e085c53914610976578063e5c43ef114610971578063e7fad8af14610955578063ede8af0114610938578063efaa55a01461076b578063f79c913e14610364578063f84f079214610305578063f98d06f0146102c05763ffde0c741461020b575061000e565b346102bd5760203660031901126102bd5760e09061025960043561025481151580806102b3575b61023b906124d5565b82855260016020526040852094816102a8575b506124d5565b61260b565b906002810154906003810154600482015460058301549160076006850154940154946102886040518098612388565b602087015260408601526060850152608084015260a083015260c0820152f35b90505482103861024e565b5084548310610232565b80fd5b50346102bd57806003193601126102bd576040517f00000000000000000000000000000000000000000000000000000000000000006001600160a01b03168152602090f35b50346102bd5760203660031901126102bd5760409081600435918215158061035a575b610331906124d5565b828152600760205260ff8282205416928152600660205220541515825191151582526020820152f35b5080548310610328565b50346102bd5760803660031901126102bd576004359036604312156102bd576040519061039260608361229a565b8136608411610767576024905b608482106107575750508215158061074d575b6103bb906124d5565b82815260016020526040812092600784019283549283156106f5576103e66003870154421015612998565b60048601544210156106b75733600090815260088701602081905260409091206005015460ff1661067e578182600689018054915b828110610646575b5050501561060157815b6003811015806104d8578390845b88811061048d575b5050156104525760010161042d565b60405162461bcd60e51b815260206004820152601360248201527224b73b30b634b21031b0b93210373ab6b132b960691b6044820152606490fd5b81610498828c612408565b90549060031b1c906104c4578460051b880151146104b85760010161043b565b50505060013880610443565b634e487b7160e01b87526032600452602487fd5b604051848a8789876104e98661227f565b338087526020808801858152426040808b01918252600160608c0190815260009586529590935291909220975188546001600160a01b0319166001600160a01b03919091161788559051865b600381106105eb575050956005610566926001979851600484015551151591019060ff801983541691151516179055565b6105736040518093612360565b7fd67de08bd4ba5b6a6548667370488a8781753615acb89ae1ac1f96f6c270ecf060603393a30160ff81541660058110156105d757600281141590816105cb575b506105bd575080f35b805460ff1916600217905580f35b600391501415836105b4565b634e487b7160e01b83526021600452602483fd5b6001906020835193019282828c01015501610535565b60405162461bcd60e51b815260206004820152601960248201527f4e6f74206120706c6179657220696e20746869732067616d65000000000000006044820152606490fd5b6106508183612408565b905460039190911b1c6001600160a01b031633146106705760010161041b565b505050506001388080610423565b60405162461bcd60e51b8152602060048201526011602482015270105b1c9958591e4818dbdb5b5a5d1d1959607a1b6044820152606490fd5b60405162461bcd60e51b815260206004820152601660248201527510da1bda58d948191958591b1a5b99481c185cdcd95960521b6044820152606490fd5b60405162461bcd60e51b815260206004820152602a60248201527f47616d65206e6f74207374617274656420796574202d206361726473206e6f746044820152690819d95b995c985d195960b21b6064820152608490fd5b50805483106103b2565b813581526020918201910161039f565b5080fd5b50346102bd5760203660031901126102bd576004358015158061092e575b610792906124d5565b808252600160205260ff60016040842001541660058110156105d7576107b89015612768565b808252600160205260408220600381015442116108fa576006018054835b81811061089a5750503383526004602052604083205480151580610890575b61083d575b506108069033906126ed565b338252600460205280604083205533907f87969bc7faf902221a147b95ceba76e011c5efb0339a0a8ee7a2bb82d9cfbbd68380a380f35b8352600160205260ff600160408520015416600581101561087c57906108686004610806931461266f565b3384526004602052836040812055906107fa565b634e487b7160e01b84526021600452602484fd5b50828114156107f5565b6108a48184612408565b905460039190911b1c6001600160a01b031633146108c4576001016107d6565b60405162461bcd60e51b815260206004820152600e60248201526d105b1c9958591e481a9bda5b995960921b6044820152606490fd5b60405162461bcd60e51b815260206004820152600c60248201526b131bd8989e4818db1bdcd95960a21b6044820152606490fd5b5081548110610789565b50346102bd57806003193601126102bd5760209054604051908152f35b50346102bd57806003193601126102bd576020604051600a8152f35b6123ec565b50346102bd5760203660031901126102bd576060906040906001600160a01b0361099e61234a565b168152600260205220600181015490600360028201549101549060405192835260208301526040820152f35b50346102bd5760203660031901126102bd57604060209160043580151580610a08575b6109f6906124d5565b81526006835220541515604051908152f35b50815481106109ed565b50346102bd5760403660031901126102bd576004356024358015158103610c155781151580610c0b575b610a45906124d5565b818352600160205260408320610a616003820154421015612998565b6004810154421015610bc6576007810191610a7d8354156129e4565b8385526001602052610a966007604087200154156129e4565b15610b955782845260016020526040842083855260066020526040852054801515600014610b5d5790600701855b600a8110610b1e575050507f1e16023bc0e15b4ad55f8e37dccf554d1451b0d26c8e55cd0e7e041eea33c75d916001610b18925b01600260ff1982541617905560405191829160208352602083019061272e565b0390a280f35b600190610b5761271060405160208101908782528a604082015284606082015260608152610b4d60808261229a565b5190200684612a30565b01610ac4565b50507f1e16023bc0e15b4ad55f8e37dccf554d1451b0d26c8e55cd0e7e041eea33c75d916001610b1892610b9086612a65565b610af8565b7f1e16023bc0e15b4ad55f8e37dccf554d1451b0d26c8e55cd0e7e041eea33c75d916001610b1892610b9086612a65565b60405162461bcd60e51b815260206004820152601e60248201527f43686f69636520646561646c696e6520616c72656164792070617373656400006044820152606490fd5b5082548210610a3c565b8280fd5b50346102bd5760203660031901126102bd5760043580151580610f7b575b610c40906124d5565b8082526001602052604082209060058201544210610f36576001820160ff8154166005811015610f065760038114159081610f2a575b50610f1a575b60ff8154166005811015610f0657600414610ecc5783600684016008600986019501955b8154811015610e2d57610cb38183612408565b905460039190911b1c6001600160a01b03166000818152602089905260409020600581015491989093909160ff1615610e20578491825b6003841015610d8457610d2a600191828689010154808a528c60205260ff8460408c2001541615610d32575b89528b602052600260408a200154906126e0565b930192610cea565b60405160028e610d418361224e565b838352610d7b8d604060208601918083528187019481865288825260205220945185555115158885019060ff801983541691151516179055565b51910155610d16565b8891979550600194935060207f0dbadce3c07b5bc30ebbe2bcec3d6bb95f9b3a0bb33178ff0d61e4d7d4339915919b939b848952600282528660408a2001610dcd8282546126e0565b905584895260028252600260408a2001610de781546126bb565b905580610e01575b604051908152a35b0195909295610ca0565b84895260028252600360408a2001610e1981546126bb565b9055610def565b9750939150600190610df7565b50825460ff1916600417909255805b8254811015610ea35780610e5260019285612408565b838060a01b0391549060031b1c168352600460205284604084205414610e79575b01610e3c565b610e838185612408565b838060a01b0391549060031b1c1683526004602052826040812055610e73565b50827fce24807f7e4b60b4e641462f13029fa5e5f79075bbc3f8e5cd43ecd19661d7608280a280f35b60405162461bcd60e51b815260206004820152601260248201527111d85b5948185b1c9958591e48195b99195960721b6044820152606490fd5b634e487b7160e01b85526021600452602485fd5b805460ff19166003178155610c7c565b60049150141538610c76565b60405162461bcd60e51b815260206004820152601f60248201527f5265736f6c7574696f6e20646561646c696e65206e6f742072656163686564006044820152606490fd5b5081548110610c37565b50346102bd57806003193601126102bd576040517f00000000000000000000000000000000000000000000000000000000000000006001600160a01b03168152602090f35b50346102bd5760203660031901126102bd57610fe76004356127f6565b9061101761100c6040969596519687961515875260a0602088015260a08701906123ab565b936040860190612388565b606084015260808301520390f35b50346102bd5760203660031901126102bd57600435906003548210156102bd576003548210156110925760038082527fc2575a0e9e593c00f959f8c92f12db2869c3395a3b0502d05e2516446f71f85b92909201546040516001600160a01b039290931b1c168152602090f35b634e487b7160e01b81526032600452602490fd5b50346102bd57806003193601126102bd576020604051600f8152f35b50346102bd5760203660031901126102bd5760406020916004358152600683522054604051908152f35b50346102bd57806003193601126102bd57602060405160128152f35b50346102bd5760203660031901126102bd57602061112c61112761234a565b6127aa565b604051908152f35b5060803660031901126102bd576024356004356001600160401b038211610c155736602383011215610c155781600401359161116f836122bb565b9061117d604051928361229a565b838252602082016024819560051b830101913683116113345760248101915b8383106113ca57505050506044356001600160401b0381116113c6576111c69036906004016122d2565b5060643592821515806113bc575b6111dd906124d5565b828552600160205260ff60016040872001541660058110156113a85760036112059114612768565b82855260016020526040852084341061137057600a019360ff855416611338577f00000000000000000000000000000000000000000000000000000000000000006001600160a01b031691823b1561133457604051631df3cbc560e31b81526020600482015293516024850181905287949392916044600583901b860181019290879087015b8282106112ff57505050509183809281879503925af180156112f4576112df575b50807f702ec30635253cae6d3600d38314e616495cf01545d34e549c49ebf6451dab3b91a2805460ff1916600117905580f35b816112e99161229a565b610c155782386112ac565b6040513d84823e3d90fd5b9193600191939596979850602061132181926043198c820301865288516123ab565b9601920192018a9796959493919261128b565b8680fd5b60405162461bcd60e51b815260206004820152601060248201526f105b1c9958591e481c995cdbdb1d995960821b6044820152606490fd5b60405162461bcd60e51b815260206004820152601060248201526f496e73756666696369656e742066656560801b6044820152606490fd5b634e487b7160e01b86526021600452602486fd5b50845483106111d4565b8480fd5b82356001600160401b0381116114555782019036604383011215611455576024820135906001600160401b03821161144157604051611413601f8401601f19166020018261229a565b8281528a36604486860101116102bd576020848196956044839701838601378301015281520192019161119c565b634e487b7160e01b8a52604160045260248afd5b8880fd5b50346102bd5760203660031901126102bd5760ff60406020926004358152600784522054166040519015158152f35b50346102bd5760203660031901126102bd57600435801515806114fc575b6114af906124d5565b81526001602052604081206004810154421015806114e1575b6114d0575080f35b600101805460ff1916600317905580f35b5060ff60018201541660058110156105d757600414156114c8565b50815481106114a6565b50346102bd57806003193601126102bd57602060405160018152f35b50346102bd5760203660031901126102bd576020906040906001600160a01b0361154a61234a565b168152600483522054604051908152f35b50346102bd5760203660031901126102bd57600435801515806115ef575b906115876115a493926124d5565b815260016020526115ab600760408320016040519384809261272e565b038361229a565b604051918291602083016020845282518091526020604085019301915b8181106115d6575050500390f35b82518452859450602093840193909201916001016115c8565b5081548110611579565b50346102bd57806003193601126102bd57602060405160028152f35b50346102bd5760403660031901126102bd576040809160043580151580611671575b611640906124d5565b81526001602052600982822001602435825260205220600260ff600183015416910154825191151582526020820152f35b5081548110611637565b50346102bd57806003193601126102bd57602060405160b48152f35b50346102bd57806003193601126102bd57338152600460205260408120548061194c575b5080546116c7816126bb565b82558082526001602052604082208181556001810160ff198154169055426002820155603c420180421161193857806003830155607842018091116119385780600483015561012c420180911161193857600582015561172b9033906006016126ed565b338252600460205280604083205560405133827ffadb9547847a0c2c31f4c02590545e318d33d7aae99071caecf3fa4ce3cd7dca8580a3818352600760205260ff6040842054166118f65750604051631f01025b60e11b81527f00000000000000000000000000000000000000000000000000000000000000006001600160a01b0316602082600481845afa9182156118eb5784926118b3575b5081471061186e578084913b156107675760046040518094819363b13038a160e01b83525af18015611863579260409181602095611853575b849150526007845220600160ff19825416179055807fbdc6d9cd20b69192d98208f944398e7220245fa28933232072f237e004b9a376836118406008546126bb565b80600855604051908152a2604051908152f35b61185c9161229a565b38816117fe565b6040513d85823e3d90fd5b60405162461bcd60e51b815260206004820152601d60248201527f496e73756666696369656e7420636f6e74726163742062616c616e63650000006044820152606490fd5b9091506020813d6020116118e3575b816118cf6020938361229a565b810103126118df575190386117c5565b8380fd5b3d91506118c2565b6040513d86823e3d90fd5b62461bcd60e51b815260206004820152601960248201527f456e74726f707920616c726561647920726571756573746564000000000000006044820152606490fd5b634e487b7160e01b84526011600452602484fd5b8152600160205260ff6001604083200154166005811015611987576004611973911461266f565b3381526004602052806040812055386116bb565b634e487b7160e01b82526021600452602482fd5b50346102bd57806003193601126102bd576020600854604051908152f35b50346102bd5760203660031901126102bd576080906040906001600160a01b036119e161234a565b16815260026020522060018060a01b03815416906001810154906003600282015491015491604051938452602084015260408301526060820152f35b50346102bd5760203660031901126102bd57611a4b6020916102546004359182151590816102a857506124d5565b611a586040518092612388565bf35b50346102bd5760403660031901126102bd5760043581526005602052602435604082205580f35b50346102bd5760403660031901126102bd5761016090611a5860043591611aa6612334565b926060604051611ab6828261229a565b36903780151580611bb1575b611acb906124d5565b8152600160205260408120928190604051611ae58161224e565b8381526020810184905260408101849052926001600160a01b038216611b6f575b505060ff60018501541693600281015490600381015460048201546005830154916007600685015494015494611b3f604051809b612388565b60208a015260408901526060880152608087015260a086015260c0850152151560e0840152610100830190612360565b6001600160a01b0390911681526008850160205260409020600581015460ff16611b9a575b80611b06565b915050611baa6001809201612513565b9038611b94565b5081548110611ac2565b50346102bd5760203660031901126102bd5760406020916004358152600583522054604051908152f35b50346102bd5760203660031901126102bd57611c1690611c116004359182151590816102a857506124d5565b61254a565b90611c35604051928392151583526040602084015260408301906123ab565b0390f35b50346102bd5760403660031901126102bd57600435602435906001600160401b038216809203610c15577f00000000000000000000000000000000000000000000000000000000000000006001600160a01b03163303611d7157829160018454905b818110611d30575b50508215611ceb577f1fc4f2867633636e24f8e6a0625b2bfffa6edfd6ebad5cc1671bc193e5548aa4916040918486526006602052818387205582519182526020820152a280f35b60405162461bcd60e51b815260206004820152601b60248201527f4e6f2067616d652077616974696e6720666f7220656e74726f707900000000006044820152606490fd5b808652600760205260ff60408720541680611d5d575b611d5257600101611c9b565b935038905080611ca3565b508086526006602052604086205415611d46565b60405162461bcd60e51b815260206004820152601b60248201527f4f6e6c792048797065726c616e6543656c6f2063616e2063616c6c00000000006044820152606490fd5b50346102bd5760203660031901126102bd5760043580151580611e84575b611ddd906124d5565b8152600160205260066040822001604051908160208254918281520190819285526020852090855b818110611e655750505082611e1b91038361229a565b604051928392602084019060208552518091526040840192915b818110611e43575050500390f35b82516001600160a01b0316845285945060209384019390920191600101611e35565b82546001600160a01b0316845260209093019260019283019201611e05565b5081548110611dd4565b50346102bd5760203660031901126102bd57611ea8612436565b506040516396834ad360e01b815260048035908201526080816024817f00000000000000000000000000000000000000000000000000000000000000006001600160a01b03165afa9081156112f45760809291611f3b575b50611a58604051809260608091805160070b84526001600160401b036020820151166020850152604081015160030b60408501520151910152565b611f5b9150823d8411611f61575b611f53818361229a565b81019061246f565b38611f00565b503d611f49565b50346102bd57806003193601126102bd57602060405160148152f35b50346102bd5760203660031901126102bd57604060e091600435815260016020522080549060ff6001820154169060028101546003820154600483015491611fe360ff600a600587015496015416956040519788526020880190612388565b60408601526060850152608084015260a0830152151560c0820152f35b50346102bd5760403660031901126102bd57604060a091600435612022612334565b9060608451612031828261229a565b36903780151580612097575b612046906124d5565b8252600160205260088383200190600180861b031682526020522060048101549061207b600160ff6005840154169201612513565b916120896040518094612360565b606083015215156080820152f35b508254811061203d565b50346102bd5760203660031901126102bd576004356001600160401b038111610767576120d29036906004016122d2565b80516120dd816122bb565b906120eb604051928361229a565b8082526120fa601f19916122bb565b01835b8181106122375750507f00000000000000000000000000000000000000000000000000000000000000006001600160a01b0316835b83518110156121b957612145818561245b565b5190604051916396834ad360e01b83526004830152608082602481865afa80156121ae576001928791612190575b5061217e828661245b565b52612189818561245b565b5001612132565b6121a8915060803d8111611f6157611f53818361229a565b38612173565b6040513d88823e3d90fd5b8285604051918291602083016020845282518091526020604085019301915b8181106121e6575050500390f35b919350916020608082612229600194885160608091805160070b84526001600160401b036020820151166020850152604081015160030b60408501520151910152565b0194019101918493926121d8565b602090612242612436565b828286010152016120fd565b606081019081106001600160401b0382111761226957604052565b634e487b7160e01b600052604160045260246000fd5b608081019081106001600160401b0382111761226957604052565b90601f801991011681019081106001600160401b0382111761226957604052565b6001600160401b0381116122695760051b60200190565b9080601f8301121561232f5781356122e9816122bb565b926122f7604051948561229a565b81845260208085019260051b82010192831161232f57602001905b82821061231f5750505090565b8135815260209182019101612312565b600080fd5b602435906001600160a01b038216820361232f57565b600435906001600160a01b038216820361232f57565b906000905b6003821061237257505050565b6020806001928551815201930191019091612365565b9060058210156123955752565b634e487b7160e01b600052602160045260246000fd5b919082519283825260005b8481106123d7575050826000602080949584010152601f8019910116010190565b806020809284010151828286010152016123b6565b3461232f57600036600319011261232f576020604051603c8152f35b80548210156124205760005260206000200190600090565b634e487b7160e01b600052603260045260246000fd5b604051906124438261227f565b60006060838281528260208201528260408201520152565b80518210156124205760209160051b010190565b9081608091031261232f576040519060006124898361227f565b81518060070b810361076757835260208201516001600160401b03811681036107675760208401526040820151908160030b82036102bd57509060609160408401520151606082015290565b156124dc57565b60405162461bcd60e51b815260206004820152600f60248201526e125b9d985b1a590819d85b59481251608a1b6044820152606490fd5b60405191906000835b600382106125345750505061253260608361229a565b565b600160208192855481520193019101909161251c565b6000526001602052604060002060ff6001820154166005811015612395576125cc5760030154421061258e5760019060405161258760208261229a565b6000815290565b60009060405161259f60408261229a565b601a81527f4c6f62627920646561646c696e65206e6f742072656163686564000000000000602082015290565b506000906040516125de60408261229a565b601a81527f47616d65206973206e6f7420696e204c4f424259207374617465000000000000602082015290565b6000526001602052604060002060ff6001820154166005811015612395576004146126695760038101544210156126425750600090565b60048101544210156126545750600290565b6005015442101561266457600390565b600390565b50600490565b1561267657565b60405162461bcd60e51b815260206004820152601960248201527f416c726561647920696e20616e206163746976652067616d65000000000000006044820152606490fd5b60001981146126ca5760010190565b634e487b7160e01b600052601160045260246000fd5b919082018092116126ca57565b8054600160401b8110156122695761270a91600182018155612408565b81546001600160a01b0393841660039290921b91821b9390911b1916919091179055565b906020825491828152019160005260206000209060005b8181106127525750505090565b8254845260209093019260019283019201612745565b1561276f57565b60405162461bcd60e51b8152602060048201526013602482015272496e76616c69642067616d652073746174757360681b6044820152606490fd5b6001600160a01b0316600090815260046020526040902054806127ce575b50600090565b80600052600160205260ff600160406000200154166005811015612395576004146127c85790565b8015801561298c575b6129535760005260016020526040600020600560ff6001830154169101548042906005841015612395576003840361290f578082106128cd57156128585760019360405161284e60208261229a565b6000815293929190565b60009360405161286960808261229a565b604581527f5265736f6c7574696f6e20646561646c696e65206e6f7420736574202867616d60208201527f65206d6179206e6f742068617665207472616e736974696f6e65642070726f7060408201526465726c792960d81b606082015293929190565b506000936040516128df60408261229a565b601f81527f5265736f6c7574696f6e20646561646c696e65206e6f74207265616368656400602082015293929190565b505060009260405161292260408261229a565b602081527f47616d65206973206e6f7420696e205245534f4c5554494f4e2073746174757360208201529291904290565b5060009060405161296560408261229a565b600f81526e125b9d985b1a590819d85b59481251608a1b6020820152906000906000904290565b506000548110156127ff565b1561299f57565b60405162461bcd60e51b815260206004820152601960248201527f4c6f626279207068617365206e6f7420656e64656420796574000000000000006044820152606490fd5b156129eb57565b60405162461bcd60e51b815260206004820152601760248201527f436172647320616c72656164792067656e6572617465640000000000000000006044820152606490fd5b8054600160401b81101561226957612a4d91600182018155612408565b819291549060031b91821b91600019901b1916179055565b806000526001602052604060002090600760009201903360601b925b600a8110612a8f5750505050565b600190612ad461271060405160208101904282524460408201528660608201528460808201528860a082015260948152612aca60b48261229a565b5190200685612a30565b01612a8156fea2646970667358221220770ef5944cb9181b2838e719318e1eb5e97373c522368825d0a620424ad70b7064736f6c634300081c0033",
          "opcodes": "PUSH1 0xC0 CALLVALUE PUSH2 0xAD JUMPI PUSH1 0x1F PUSH2 0x2BED CODESIZE DUP2 SWAP1 SUB SWAP2 DUP3 ADD PUSH1 0x1F NOT AND DUP4 ADD SWAP2 PUSH1 0x1 PUSH1 0x1 PUSH1 0x40 SHL SUB DUP4 GT DUP5 DUP5 LT OR PUSH2 0xB2 JUMPI DUP1 DUP5 SWAP3 PUSH1 0x40 SWAP5 DUP6 MSTORE DUP4 CODECOPY DUP2 ADD SUB SLT PUSH2 0xAD JUMPI PUSH2 0x52 PUSH1 0x20 PUSH2 0x4B DUP4 PUSH2 0xC8 JUMP JUMPDEST SWAP3 ADD PUSH2 0xC8 JUMP JUMPDEST PUSH1 0x1 PUSH1 0x1 PUSH1 0xA0 SHL SUB SWAP2 DUP3 AND PUSH1 0x80 MSTORE AND PUSH1 0xA0 MSTORE PUSH1 0x1 PUSH1 0x0 SSTORE PUSH1 0x40 MLOAD PUSH2 0x2B10 SWAP1 DUP2 PUSH2 0xDD DUP3 CODECOPY PUSH1 0x80 MLOAD DUP2 DUP2 DUP2 PUSH2 0x2D6 ADD MSTORE DUP2 DUP2 PUSH2 0x1227 ADD MSTORE DUP2 DUP2 PUSH2 0x1EC6 ADD MSTORE PUSH2 0x2108 ADD MSTORE PUSH1 0xA0 MLOAD DUP2 DUP2 DUP2 PUSH2 0xF9B ADD MSTORE DUP2 DUP2 PUSH2 0x1786 ADD MSTORE PUSH2 0x1C65 ADD MSTORE RETURN JUMPDEST PUSH1 0x0 DUP1 REVERT JUMPDEST PUSH4 0x4E487B71 PUSH1 0xE0 SHL PUSH1 0x0 MSTORE PUSH1 0x41 PUSH1 0x4 MSTORE PUSH1 0x24 PUSH1 0x0 REVERT JUMPDEST MLOAD SWAP1 PUSH1 0x1 PUSH1 0x1 PUSH1 0xA0 SHL SUB DUP3 AND DUP3 SUB PUSH2 0xAD JUMPI JUMP INVALID PUSH1 0x80 PUSH1 0x40 MSTORE PUSH1 0x4 CALLDATASIZE LT ISZERO PUSH2 0x1B JUMPI JUMPDEST CALLDATASIZE ISZERO PUSH2 0x19 JUMPI PUSH1 0x0 DUP1 REVERT JUMPDEST STOP JUMPDEST PUSH1 0x0 DUP1 CALLDATALOAD PUSH1 0xE0 SHR DUP1 PUSH4 0x2653E9A EQ PUSH2 0x20A1 JUMPI DUP1 PUSH4 0x10C28D31 EQ PUSH2 0x2000 JUMPI DUP1 PUSH4 0x117A5B90 EQ PUSH2 0x1F84 JUMPI DUP1 PUSH4 0x1226897A EQ PUSH2 0x1F68 JUMPI DUP1 PUSH4 0x14527C58 EQ PUSH2 0x1E8E JUMPI DUP1 PUSH4 0x15A40F49 EQ PUSH2 0x1DB6 JUMPI DUP1 PUSH4 0x19848FCA EQ PUSH2 0x1C39 JUMPI DUP1 PUSH4 0x392B749C EQ PUSH2 0x1BE5 JUMPI DUP1 PUSH4 0x3C8AEC3F EQ PUSH2 0x1BBB JUMPI DUP1 PUSH4 0x4B9A2A2C EQ PUSH2 0x1A81 JUMPI DUP1 PUSH4 0x53644F31 EQ PUSH2 0x1A5A JUMPI DUP1 PUSH4 0x572E85EC EQ PUSH2 0x1A1D JUMPI DUP1 PUSH4 0x5C5C8382 EQ PUSH2 0x971 JUMPI DUP1 PUSH4 0x62550AE1 EQ PUSH2 0x19B9 JUMPI DUP1 PUSH4 0x6BDCA457 EQ PUSH2 0x199B JUMPI DUP1 PUSH4 0x7255D729 EQ PUSH2 0x1697 JUMPI DUP1 PUSH4 0x7CA90E59 EQ PUSH2 0x167B JUMPI DUP1 PUSH4 0x7F57504F EQ PUSH2 0x1615 JUMPI DUP1 PUSH4 0x85F07BBE EQ PUSH2 0x15F9 JUMPI DUP1 PUSH4 0x860CBC77 EQ PUSH2 0x155B JUMPI DUP1 PUSH4 0x863DF0A1 EQ PUSH2 0x1522 JUMPI DUP1 PUSH4 0x8F5949F9 EQ PUSH2 0x1506 JUMPI DUP1 PUSH4 0x9A18E981 EQ PUSH2 0x1488 JUMPI DUP1 PUSH4 0x9C18C05D EQ PUSH2 0x1459 JUMPI DUP1 PUSH4 0xA457D3D6 EQ PUSH2 0x1134 JUMPI DUP1 PUSH4 0xAD7465D4 EQ PUSH2 0x1108 JUMPI DUP1 PUSH4 0xB0FD159F EQ PUSH2 0x10EC JUMPI DUP1 PUSH4 0xBC6C97DA EQ PUSH2 0x10C2 JUMPI DUP1 PUSH4 0xBEE4C6D3 EQ PUSH2 0x10A6 JUMPI DUP1 PUSH4 0xBF368399 EQ PUSH2 0x1025 JUMPI DUP1 PUSH4 0xCB09D27F EQ PUSH2 0xFCA JUMPI DUP1 PUSH4 0xCF102413 EQ PUSH2 0xF85 JUMPI DUP1 PUSH4 0xD0399BB8 EQ PUSH2 0xC19 JUMPI DUP1 PUSH4 0xD7793C19 EQ PUSH2 0xA12 JUMPI DUP1 PUSH4 0xDE45E20A EQ PUSH2 0x9CA JUMPI DUP1 PUSH4 0xE085C539 EQ PUSH2 0x976 JUMPI DUP1 PUSH4 0xE5C43EF1 EQ PUSH2 0x971 JUMPI DUP1 PUSH4 0xE7FAD8AF EQ PUSH2 0x955 JUMPI DUP1 PUSH4 0xEDE8AF01 EQ PUSH2 0x938 JUMPI DUP1 PUSH4 0xEFAA55A0 EQ PUSH2 0x76B JUMPI DUP1 PUSH4 0xF79C913E EQ PUSH2 0x364 JUMPI DUP1 PUSH4 0xF84F0792 EQ PUSH2 0x305 JUMPI DUP1 PUSH4 0xF98D06F0 EQ PUSH2 0x2C0 JUMPI PUSH4 0xFFDE0C74 EQ PUSH2 0x20B JUMPI POP PUSH2 0xE JUMP JUMPDEST CALLVALUE PUSH2 0x2BD JUMPI PUSH1 0x20 CALLDATASIZE PUSH1 0x3 NOT ADD SLT PUSH2 0x2BD JUMPI PUSH1 0xE0 SWAP1 PUSH2 0x259 PUSH1 0x4 CALLDATALOAD PUSH2 0x254 DUP2 ISZERO ISZERO DUP1 DUP1 PUSH2 0x2B3 JUMPI JUMPDEST PUSH2 0x23B SWAP1 PUSH2 0x24D5 JUMP JUMPDEST DUP3 DUP6 MSTORE PUSH1 0x1 PUSH1 0x20 MSTORE PUSH1 0x40 DUP6 KECCAK256 SWAP5 DUP2 PUSH2 0x2A8 JUMPI JUMPDEST POP PUSH2 0x24D5 JUMP JUMPDEST PUSH2 0x260B JUMP JUMPDEST SWAP1 PUSH1 0x2 DUP2 ADD SLOAD SWAP1 PUSH1 0x3 DUP2 ADD SLOAD PUSH1 0x4 DUP3 ADD SLOAD PUSH1 0x5 DUP4 ADD SLOAD SWAP2 PUSH1 0x7 PUSH1 0x6 DUP6 ADD SLOAD SWAP5 ADD SLOAD SWAP5 PUSH2 0x288 PUSH1 0x40 MLOAD DUP1 SWAP9 PUSH2 0x2388 JUMP JUMPDEST PUSH1 0x20 DUP8 ADD MSTORE PUSH1 0x40 DUP7 ADD MSTORE PUSH1 0x60 DUP6 ADD MSTORE PUSH1 0x80 DUP5 ADD MSTORE PUSH1 0xA0 DUP4 ADD MSTORE PUSH1 0xC0 DUP3 ADD MSTORE RETURN JUMPDEST SWAP1 POP SLOAD DUP3 LT CODESIZE PUSH2 0x24E JUMP JUMPDEST POP DUP5 SLOAD DUP4 LT PUSH2 0x232 JUMP JUMPDEST DUP1 REVERT JUMPDEST POP CALLVALUE PUSH2 0x2BD JUMPI DUP1 PUSH1 0x3 NOT CALLDATASIZE ADD SLT PUSH2 0x2BD JUMPI PUSH1 0x40 MLOAD PUSH32 0x0 PUSH1 0x1 PUSH1 0x1 PUSH1 0xA0 SHL SUB AND DUP2 MSTORE PUSH1 0x20 SWAP1 RETURN JUMPDEST POP CALLVALUE PUSH2 0x2BD JUMPI PUSH1 0x20 CALLDATASIZE PUSH1 0x3 NOT ADD SLT PUSH2 0x2BD JUMPI PUSH1 0x40 SWAP1 DUP2 PUSH1 0x4 CALLDATALOAD SWAP2 DUP3 ISZERO ISZERO DUP1 PUSH2 0x35A JUMPI JUMPDEST PUSH2 0x331 SWAP1 PUSH2 0x24D5 JUMP JUMPDEST DUP3 DUP2 MSTORE PUSH1 0x7 PUSH1 0x20 MSTORE PUSH1 0xFF DUP3 DUP3 KECCAK256 SLOAD AND SWAP3 DUP2 MSTORE PUSH1 0x6 PUSH1 0x20 MSTORE KECCAK256 SLOAD ISZERO ISZERO DUP3 MLOAD SWAP2 ISZERO ISZERO DUP3 MSTORE PUSH1 0x20 DUP3 ADD MSTORE RETURN JUMPDEST POP DUP1 SLOAD DUP4 LT PUSH2 0x328 JUMP JUMPDEST POP CALLVALUE PUSH2 0x2BD JUMPI PUSH1 0x80 CALLDATASIZE PUSH1 0x3 NOT ADD SLT PUSH2 0x2BD JUMPI PUSH1 0x4 CALLDATALOAD SWAP1 CALLDATASIZE PUSH1 0x43 SLT ISZERO PUSH2 0x2BD JUMPI PUSH1 0x40 MLOAD SWAP1 PUSH2 0x392 PUSH1 0x60 DUP4 PUSH2 0x229A JUMP JUMPDEST DUP2 CALLDATASIZE PUSH1 0x84 GT PUSH2 0x767 JUMPI PUSH1 0x24 SWAP1 JUMPDEST PUSH1 0x84 DUP3 LT PUSH2 0x757 JUMPI POP POP DUP3 ISZERO ISZERO DUP1 PUSH2 0x74D JUMPI JUMPDEST PUSH2 0x3BB SWAP1 PUSH2 0x24D5 JUMP JUMPDEST DUP3 DUP2 MSTORE PUSH1 0x1 PUSH1 0x20 MSTORE PUSH1 0x40 DUP2 KECCAK256 SWAP3 PUSH1 0x7 DUP5 ADD SWAP3 DUP4 SLOAD SWAP3 DUP4 ISZERO PUSH2 0x6F5 JUMPI PUSH2 0x3E6 PUSH1 0x3 DUP8 ADD SLOAD TIMESTAMP LT ISZERO PUSH2 0x2998 JUMP JUMPDEST PUSH1 0x4 DUP7 ADD SLOAD TIMESTAMP LT ISZERO PUSH2 0x6B7 JUMPI CALLER PUSH1 0x0 SWAP1 DUP2 MSTORE PUSH1 0x8 DUP8 ADD PUSH1 0x20 DUP2 SWAP1 MSTORE PUSH1 0x40 SWAP1 SWAP2 KECCAK256 PUSH1 0x5 ADD SLOAD PUSH1 0xFF AND PUSH2 0x67E JUMPI DUP2 DUP3 PUSH1 0x6 DUP10 ADD DUP1 SLOAD SWAP2 JUMPDEST DUP3 DUP2 LT PUSH2 0x646 JUMPI JUMPDEST POP POP POP ISZERO PUSH2 0x601 JUMPI DUP2 JUMPDEST PUSH1 0x3 DUP2 LT ISZERO DUP1 PUSH2 0x4D8 JUMPI DUP4 SWAP1 DUP5 JUMPDEST DUP9 DUP2 LT PUSH2 0x48D JUMPI JUMPDEST POP POP ISZERO PUSH2 0x452 JUMPI PUSH1 0x1 ADD PUSH2 0x42D JUMP JUMPDEST PUSH1 0x40 MLOAD PUSH3 0x461BCD PUSH1 0xE5 SHL DUP2 MSTORE PUSH1 0x20 PUSH1 0x4 DUP3 ADD MSTORE PUSH1 0x13 PUSH1 0x24 DUP3 ADD MSTORE PUSH19 0x24B73B30B634B21031B0B93210373AB6B132B9 PUSH1 0x69 SHL PUSH1 0x44 DUP3 ADD MSTORE PUSH1 0x64 SWAP1 REVERT JUMPDEST DUP2 PUSH2 0x498 DUP3 DUP13 PUSH2 0x2408 JUMP JUMPDEST SWAP1 SLOAD SWAP1 PUSH1 0x3 SHL SHR SWAP1 PUSH2 0x4C4 JUMPI DUP5 PUSH1 0x5 SHL DUP9 ADD MLOAD EQ PUSH2 0x4B8 JUMPI PUSH1 0x1 ADD PUSH2 0x43B JUMP JUMPDEST POP POP POP PUSH1 0x1 CODESIZE DUP1 PUSH2 0x443 JUMP JUMPDEST PUSH4 0x4E487B71 PUSH1 0xE0 SHL DUP8 MSTORE PUSH1 0x32 PUSH1 0x4 MSTORE PUSH1 0x24 DUP8 REVERT JUMPDEST PUSH1 0x40 MLOAD DUP5 DUP11 DUP8 DUP10 DUP8 PUSH2 0x4E9 DUP7 PUSH2 0x227F JUMP JUMPDEST CALLER DUP1 DUP8 MSTORE PUSH1 0x20 DUP1 DUP9 ADD DUP6 DUP2 MSTORE TIMESTAMP PUSH1 0x40 DUP1 DUP12 ADD SWAP2 DUP3 MSTORE PUSH1 0x1 PUSH1 0x60 DUP13 ADD SWAP1 DUP2 MSTORE PUSH1 0x0 SWAP6 DUP7 MSTORE SWAP6 SWAP1 SWAP4 MSTORE SWAP2 SWAP1 SWAP3 KECCAK256 SWAP8 MLOAD DUP9 SLOAD PUSH1 0x1 PUSH1 0x1 PUSH1 0xA0 SHL SUB NOT AND PUSH1 0x1 PUSH1 0x1 PUSH1 0xA0 SHL SUB SWAP2 SWAP1 SWAP2 AND OR DUP9 SSTORE SWAP1 MLOAD DUP7 JUMPDEST PUSH1 0x3 DUP2 LT PUSH2 0x5EB JUMPI POP POP SWAP6 PUSH1 0x5 PUSH2 0x566 SWAP3 PUSH1 0x1 SWAP8 SWAP9 MLOAD PUSH1 0x4 DUP5 ADD SSTORE MLOAD ISZERO ISZERO SWAP2 ADD SWAP1 PUSH1 0xFF DUP1 NOT DUP4 SLOAD AND SWAP2 ISZERO ISZERO AND OR SWAP1 SSTORE JUMP JUMPDEST PUSH2 0x573 PUSH1 0x40 MLOAD DUP1 SWAP4 PUSH2 0x2360 JUMP JUMPDEST PUSH32 0xD67DE08BD4BA5B6A6548667370488A8781753615ACB89AE1AC1F96F6C270ECF0 PUSH1 0x60 CALLER SWAP4 LOG3 ADD PUSH1 0xFF DUP2 SLOAD AND PUSH1 0x5 DUP2 LT ISZERO PUSH2 0x5D7 JUMPI PUSH1 0x2 DUP2 EQ ISZERO SWAP1 DUP2 PUSH2 0x5CB JUMPI JUMPDEST POP PUSH2 0x5BD JUMPI POP DUP1 RETURN JUMPDEST DUP1 SLOAD PUSH1 0xFF NOT AND PUSH1 0x2 OR SWAP1 SSTORE DUP1 RETURN JUMPDEST PUSH1 0x3 SWAP2 POP EQ ISZERO DUP4 PUSH2 0x5B4 JUMP JUMPDEST PUSH4 0x4E487B71 PUSH1 0xE0 SHL DUP4 MSTORE PUSH1 0x21 PUSH1 0x4 MSTORE PUSH1 0x24 DUP4 REVERT JUMPDEST PUSH1 0x1 SWAP1 PUSH1 0x20 DUP4 MLOAD SWAP4 ADD SWAP3 DUP3 DUP3 DUP13 ADD ADD SSTORE ADD PUSH2 0x535 JUMP JUMPDEST PUSH1 0x40 MLOAD PUSH3 0x461BCD PUSH1 0xE5 SHL DUP2 MSTORE PUSH1 0x20 PUSH1 0x4 DUP3 ADD MSTORE PUSH1 0x19 PUSH1 0x24 DUP3 ADD MSTORE PUSH32 0x4E6F74206120706C6179657220696E20746869732067616D6500000000000000 PUSH1 0x44 DUP3 ADD MSTORE PUSH1 0x64 SWAP1 REVERT JUMPDEST PUSH2 0x650 DUP2 DUP4 PUSH2 0x2408 JUMP JUMPDEST SWAP1 SLOAD PUSH1 0x3 SWAP2 SWAP1 SWAP2 SHL SHR PUSH1 0x1 PUSH1 0x1 PUSH1 0xA0 SHL SUB AND CALLER EQ PUSH2 0x670 JUMPI PUSH1 0x1 ADD PUSH2 0x41B JUMP JUMPDEST POP POP POP POP PUSH1 0x1 CODESIZE DUP1 DUP1 PUSH2 0x423 JUMP JUMPDEST PUSH1 0x40 MLOAD PUSH3 0x461BCD PUSH1 0xE5 SHL DUP2 MSTORE PUSH1 0x20 PUSH1 0x4 DUP3 ADD MSTORE PUSH1 0x11 PUSH1 0x24 DUP3 ADD MSTORE PUSH17 0x105B1C9958591E4818DBDB5B5A5D1D1959 PUSH1 0x7A SHL PUSH1 0x44 DUP3 ADD MSTORE PUSH1 0x64 SWAP1 REVERT JUMPDEST PUSH1 0x40 MLOAD PUSH3 0x461BCD PUSH1 0xE5 SHL DUP2 MSTORE PUSH1 0x20 PUSH1 0x4 DUP3 ADD MSTORE PUSH1 0x16 PUSH1 0x24 DUP3 ADD MSTORE PUSH22 0x10DA1BDA58D948191958591B1A5B99481C185CDCD959 PUSH1 0x52 SHL PUSH1 0x44 DUP3 ADD MSTORE PUSH1 0x64 SWAP1 REVERT JUMPDEST PUSH1 0x40 MLOAD PUSH3 0x461BCD PUSH1 0xE5 SHL DUP2 MSTORE PUSH1 0x20 PUSH1 0x4 DUP3 ADD MSTORE PUSH1 0x2A PUSH1 0x24 DUP3 ADD MSTORE PUSH32 0x47616D65206E6F74207374617274656420796574202D206361726473206E6F74 PUSH1 0x44 DUP3 ADD MSTORE PUSH10 0x819D95B995C985D1959 PUSH1 0xB2 SHL PUSH1 0x64 DUP3 ADD MSTORE PUSH1 0x84 SWAP1 REVERT JUMPDEST POP DUP1 SLOAD DUP4 LT PUSH2 0x3B2 JUMP JUMPDEST DUP2 CALLDATALOAD DUP2 MSTORE PUSH1 0x20 SWAP2 DUP3 ADD SWAP2 ADD PUSH2 0x39F JUMP JUMPDEST POP DUP1 REVERT JUMPDEST POP CALLVALUE PUSH2 0x2BD JUMPI PUSH1 0x20 CALLDATASIZE PUSH1 0x3 NOT ADD SLT PUSH2 0x2BD JUMPI PUSH1 0x4 CALLDATALOAD DUP1 ISZERO ISZERO DUP1 PUSH2 0x92E JUMPI JUMPDEST PUSH2 0x792 SWAP1 PUSH2 0x24D5 JUMP JUMPDEST DUP1 DUP3 MSTORE PUSH1 0x1 PUSH1 0x20 MSTORE PUSH1 0xFF PUSH1 0x1 PUSH1 0x40 DUP5 KECCAK256 ADD SLOAD AND PUSH1 0x5 DUP2 LT ISZERO PUSH2 0x5D7 JUMPI PUSH2 0x7B8 SWAP1 ISZERO PUSH2 0x2768 JUMP JUMPDEST DUP1 DUP3 MSTORE PUSH1 0x1 PUSH1 0x20 MSTORE PUSH1 0x40 DUP3 KECCAK256 PUSH1 0x3 DUP2 ADD SLOAD TIMESTAMP GT PUSH2 0x8FA JUMPI PUSH1 0x6 ADD DUP1 SLOAD DUP4 JUMPDEST DUP2 DUP2 LT PUSH2 0x89A JUMPI POP POP CALLER DUP4 MSTORE PUSH1 0x4 PUSH1 0x20 MSTORE PUSH1 0x40 DUP4 KECCAK256 SLOAD DUP1 ISZERO ISZERO DUP1 PUSH2 0x890 JUMPI JUMPDEST PUSH2 0x83D JUMPI JUMPDEST POP PUSH2 0x806 SWAP1 CALLER SWAP1 PUSH2 0x26ED JUMP JUMPDEST CALLER DUP3 MSTORE PUSH1 0x4 PUSH1 0x20 MSTORE DUP1 PUSH1 0x40 DUP4 KECCAK256 SSTORE CALLER SWAP1 PUSH32 0x87969BC7FAF902221A147B95CEBA76E011C5EFB0339A0A8EE7A2BB82D9CFBBD6 DUP4 DUP1 LOG3 DUP1 RETURN JUMPDEST DUP4 MSTORE PUSH1 0x1 PUSH1 0x20 MSTORE PUSH1 0xFF PUSH1 0x1 PUSH1 0x40 DUP6 KECCAK256 ADD SLOAD AND PUSH1 0x5 DUP2 LT ISZERO PUSH2 0x87C JUMPI SWAP1 PUSH2 0x868 PUSH1 0x4 PUSH2 0x806 SWAP4 EQ PUSH2 0x266F JUMP JUMPDEST CALLER DUP5 MSTORE PUSH1 0x4 PUSH1 0x20 MSTORE DUP4 PUSH1 0x40 DUP2 KECCAK256 SSTORE SWAP1 PUSH2 0x7FA JUMP JUMPDEST PUSH4 0x4E487B71 PUSH1 0xE0 SHL DUP5 MSTORE PUSH1 0x21 PUSH1 0x4 MSTORE PUSH1 0x24 DUP5 REVERT JUMPDEST POP DUP3 DUP2 EQ ISZERO PUSH2 0x7F5 JUMP JUMPDEST PUSH2 0x8A4 DUP2 DUP5 PUSH2 0x2408 JUMP JUMPDEST SWAP1 SLOAD PUSH1 0x3 SWAP2 SWAP1 SWAP2 SHL SHR PUSH1 0x1 PUSH1 0x1 PUSH1 0xA0 SHL SUB AND CALLER EQ PUSH2 0x8C4 JUMPI PUSH1 0x1 ADD PUSH2 0x7D6 JUMP JUMPDEST PUSH1 0x40 MLOAD PUSH3 0x461BCD PUSH1 0xE5 SHL DUP2 MSTORE PUSH1 0x20 PUSH1 0x4 DUP3 ADD MSTORE PUSH1 0xE PUSH1 0x24 DUP3 ADD MSTORE PUSH14 0x105B1C9958591E481A9BDA5B9959 PUSH1 0x92 SHL PUSH1 0x44 DUP3 ADD MSTORE PUSH1 0x64 SWAP1 REVERT JUMPDEST PUSH1 0x40 MLOAD PUSH3 0x461BCD PUSH1 0xE5 SHL DUP2 MSTORE PUSH1 0x20 PUSH1 0x4 DUP3 ADD MSTORE PUSH1 0xC PUSH1 0x24 DUP3 ADD MSTORE PUSH12 0x131BD8989E4818DB1BDCD959 PUSH1 0xA2 SHL PUSH1 0x44 DUP3 ADD MSTORE PUSH1 0x64 SWAP1 REVERT JUMPDEST POP DUP2 SLOAD DUP2 LT PUSH2 0x789 JUMP JUMPDEST POP CALLVALUE PUSH2 0x2BD JUMPI DUP1 PUSH1 0x3 NOT CALLDATASIZE ADD SLT PUSH2 0x2BD JUMPI PUSH1 0x20 SWAP1 SLOAD PUSH1 0x40 MLOAD SWAP1 DUP2 MSTORE RETURN JUMPDEST POP CALLVALUE PUSH2 0x2BD JUMPI DUP1 PUSH1 0x3 NOT CALLDATASIZE ADD SLT PUSH2 0x2BD JUMPI PUSH1 0x20 PUSH1 0x40 MLOAD PUSH1 0xA DUP2 MSTORE RETURN JUMPDEST PUSH2 0x23EC JUMP JUMPDEST POP CALLVALUE PUSH2 0x2BD JUMPI PUSH1 0x20 CALLDATASIZE PUSH1 0x3 NOT ADD SLT PUSH2 0x2BD JUMPI PUSH1 0x60 SWAP1 PUSH1 0x40 SWAP1 PUSH1 0x1 PUSH1 0x1 PUSH1 0xA0 SHL SUB PUSH2 0x99E PUSH2 0x234A JUMP JUMPDEST AND DUP2 MSTORE PUSH1 0x2 PUSH1 0x20 MSTORE KECCAK256 PUSH1 0x1 DUP2 ADD SLOAD SWAP1 PUSH1 0x3 PUSH1 0x2 DUP3 ADD SLOAD SWAP2 ADD SLOAD SWAP1 PUSH1 0x40 MLOAD SWAP3 DUP4 MSTORE PUSH1 0x20 DUP4 ADD MSTORE PUSH1 0x40 DUP3 ADD MSTORE RETURN JUMPDEST POP CALLVALUE PUSH2 0x2BD JUMPI PUSH1 0x20 CALLDATASIZE PUSH1 0x3 NOT ADD SLT PUSH2 0x2BD JUMPI PUSH1 0x40 PUSH1 0x20 SWAP2 PUSH1 0x4 CALLDATALOAD DUP1 ISZERO ISZERO DUP1 PUSH2 0xA08 JUMPI JUMPDEST PUSH2 0x9F6 SWAP1 PUSH2 0x24D5 JUMP JUMPDEST DUP2 MSTORE PUSH1 0x6 DUP4 MSTORE KECCAK256 SLOAD ISZERO ISZERO PUSH1 0x40 MLOAD SWAP1 DUP2 MSTORE RETURN JUMPDEST POP DUP2 SLOAD DUP2 LT PUSH2 0x9ED JUMP JUMPDEST POP CALLVALUE PUSH2 0x2BD JUMPI PUSH1 0x40 CALLDATASIZE PUSH1 0x3 NOT ADD SLT PUSH2 0x2BD JUMPI PUSH1 0x4 CALLDATALOAD PUSH1 0x24 CALLDATALOAD DUP1 ISZERO ISZERO DUP2 SUB PUSH2 0xC15 JUMPI DUP2 ISZERO ISZERO DUP1 PUSH2 0xC0B JUMPI JUMPDEST PUSH2 0xA45 SWAP1 PUSH2 0x24D5 JUMP JUMPDEST DUP2 DUP4 MSTORE PUSH1 0x1 PUSH1 0x20 MSTORE PUSH1 0x40 DUP4 KECCAK256 PUSH2 0xA61 PUSH1 0x3 DUP3 ADD SLOAD TIMESTAMP LT ISZERO PUSH2 0x2998 JUMP JUMPDEST PUSH1 0x4 DUP2 ADD SLOAD TIMESTAMP LT ISZERO PUSH2 0xBC6 JUMPI PUSH1 0x7 DUP2 ADD SWAP2 PUSH2 0xA7D DUP4 SLOAD ISZERO PUSH2 0x29E4 JUMP JUMPDEST DUP4 DUP6 MSTORE PUSH1 0x1 PUSH1 0x20 MSTORE PUSH2 0xA96 PUSH1 0x7 PUSH1 0x40 DUP8 KECCAK256 ADD SLOAD ISZERO PUSH2 0x29E4 JUMP JUMPDEST ISZERO PUSH2 0xB95 JUMPI DUP3 DUP5 MSTORE PUSH1 0x1 PUSH1 0x20 MSTORE PUSH1 0x40 DUP5 KECCAK256 DUP4 DUP6 MSTORE PUSH1 0x6 PUSH1 0x20 MSTORE PUSH1 0x40 DUP6 KECCAK256 SLOAD DUP1 ISZERO ISZERO PUSH1 0x0 EQ PUSH2 0xB5D JUMPI SWAP1 PUSH1 0x7 ADD DUP6 JUMPDEST PUSH1 0xA DUP2 LT PUSH2 0xB1E JUMPI POP POP POP PUSH32 0x1E16023BC0E15B4AD55F8E37DCCF554D1451B0D26C8E55CD0E7E041EEA33C75D SWAP2 PUSH1 0x1 PUSH2 0xB18 SWAP3 JUMPDEST ADD PUSH1 0x2 PUSH1 0xFF NOT DUP3 SLOAD AND OR SWAP1 SSTORE PUSH1 0x40 MLOAD SWAP2 DUP3 SWAP2 PUSH1 0x20 DUP4 MSTORE PUSH1 0x20 DUP4 ADD SWAP1 PUSH2 0x272E JUMP JUMPDEST SUB SWAP1 LOG2 DUP1 RETURN JUMPDEST PUSH1 0x1 SWAP1 PUSH2 0xB57 PUSH2 0x2710 PUSH1 0x40 MLOAD PUSH1 0x20 DUP2 ADD SWAP1 DUP8 DUP3 MSTORE DUP11 PUSH1 0x40 DUP3 ADD MSTORE DUP5 PUSH1 0x60 DUP3 ADD MSTORE PUSH1 0x60 DUP2 MSTORE PUSH2 0xB4D PUSH1 0x80 DUP3 PUSH2 0x229A JUMP JUMPDEST MLOAD SWAP1 KECCAK256 MOD DUP5 PUSH2 0x2A30 JUMP JUMPDEST ADD PUSH2 0xAC4 JUMP JUMPDEST POP POP PUSH32 0x1E16023BC0E15B4AD55F8E37DCCF554D1451B0D26C8E55CD0E7E041EEA33C75D SWAP2 PUSH1 0x1 PUSH2 0xB18 SWAP3 PUSH2 0xB90 DUP7 PUSH2 0x2A65 JUMP JUMPDEST PUSH2 0xAF8 JUMP JUMPDEST PUSH32 0x1E16023BC0E15B4AD55F8E37DCCF554D1451B0D26C8E55CD0E7E041EEA33C75D SWAP2 PUSH1 0x1 PUSH2 0xB18 SWAP3 PUSH2 0xB90 DUP7 PUSH2 0x2A65 JUMP JUMPDEST PUSH1 0x40 MLOAD PUSH3 0x461BCD PUSH1 0xE5 SHL DUP2 MSTORE PUSH1 0x20 PUSH1 0x4 DUP3 ADD MSTORE PUSH1 0x1E PUSH1 0x24 DUP3 ADD MSTORE PUSH32 0x43686F69636520646561646C696E6520616C7265616479207061737365640000 PUSH1 0x44 DUP3 ADD MSTORE PUSH1 0x64 SWAP1 REVERT JUMPDEST POP DUP3 SLOAD DUP3 LT PUSH2 0xA3C JUMP JUMPDEST DUP3 DUP1 REVERT JUMPDEST POP CALLVALUE PUSH2 0x2BD JUMPI PUSH1 0x20 CALLDATASIZE PUSH1 0x3 NOT ADD SLT PUSH2 0x2BD JUMPI PUSH1 0x4 CALLDATALOAD DUP1 ISZERO ISZERO DUP1 PUSH2 0xF7B JUMPI JUMPDEST PUSH2 0xC40 SWAP1 PUSH2 0x24D5 JUMP JUMPDEST DUP1 DUP3 MSTORE PUSH1 0x1 PUSH1 0x20 MSTORE PUSH1 0x40 DUP3 KECCAK256 SWAP1 PUSH1 0x5 DUP3 ADD SLOAD TIMESTAMP LT PUSH2 0xF36 JUMPI PUSH1 0x1 DUP3 ADD PUSH1 0xFF DUP2 SLOAD AND PUSH1 0x5 DUP2 LT ISZERO PUSH2 0xF06 JUMPI PUSH1 0x3 DUP2 EQ ISZERO SWAP1 DUP2 PUSH2 0xF2A JUMPI JUMPDEST POP PUSH2 0xF1A JUMPI JUMPDEST PUSH1 0xFF DUP2 SLOAD AND PUSH1 0x5 DUP2 LT ISZERO PUSH2 0xF06 JUMPI PUSH1 0x4 EQ PUSH2 0xECC JUMPI DUP4 PUSH1 0x6 DUP5 ADD PUSH1 0x8 PUSH1 0x9 DUP7 ADD SWAP6 ADD SWAP6 JUMPDEST DUP2 SLOAD DUP2 LT ISZERO PUSH2 0xE2D JUMPI PUSH2 0xCB3 DUP2 DUP4 PUSH2 0x2408 JUMP JUMPDEST SWAP1 SLOAD PUSH1 0x3 SWAP2 SWAP1 SWAP2 SHL SHR PUSH1 0x1 PUSH1 0x1 PUSH1 0xA0 SHL SUB AND PUSH1 0x0 DUP2 DUP2 MSTORE PUSH1 0x20 DUP10 SWAP1 MSTORE PUSH1 0x40 SWAP1 KECCAK256 PUSH1 0x5 DUP2 ADD SLOAD SWAP2 SWAP9 SWAP1 SWAP4 SWAP1 SWAP2 PUSH1 0xFF AND ISZERO PUSH2 0xE20 JUMPI DUP5 SWAP2 DUP3 JUMPDEST PUSH1 0x3 DUP5 LT ISZERO PUSH2 0xD84 JUMPI PUSH2 0xD2A PUSH1 0x1 SWAP2 DUP3 DUP7 DUP10 ADD ADD SLOAD DUP1 DUP11 MSTORE DUP13 PUSH1 0x20 MSTORE PUSH1 0xFF DUP5 PUSH1 0x40 DUP13 KECCAK256 ADD SLOAD AND ISZERO PUSH2 0xD32 JUMPI JUMPDEST DUP10 MSTORE DUP12 PUSH1 0x20 MSTORE PUSH1 0x2 PUSH1 0x40 DUP11 KECCAK256 ADD SLOAD SWAP1 PUSH2 0x26E0 JUMP JUMPDEST SWAP4 ADD SWAP3 PUSH2 0xCEA JUMP JUMPDEST PUSH1 0x40 MLOAD PUSH1 0x2 DUP15 PUSH2 0xD41 DUP4 PUSH2 0x224E JUMP JUMPDEST DUP4 DUP4 MSTORE PUSH2 0xD7B DUP14 PUSH1 0x40 PUSH1 0x20 DUP7 ADD SWAP2 DUP1 DUP4 MSTORE DUP2 DUP8 ADD SWAP5 DUP2 DUP7 MSTORE DUP9 DUP3 MSTORE PUSH1 0x20 MSTORE KECCAK256 SWAP5 MLOAD DUP6 SSTORE MLOAD ISZERO ISZERO DUP9 DUP6 ADD SWAP1 PUSH1 0xFF DUP1 NOT DUP4 SLOAD AND SWAP2 ISZERO ISZERO AND OR SWAP1 SSTORE JUMP JUMPDEST MLOAD SWAP2 ADD SSTORE PUSH2 0xD16 JUMP JUMPDEST DUP9 SWAP2 SWAP8 SWAP6 POP PUSH1 0x1 SWAP5 SWAP4 POP PUSH1 0x20 PUSH32 0xDBADCE3C07B5BC30EBBE2BCEC3D6BB95F9B3A0BB33178FF0D61E4D7D4339915 SWAP2 SWAP12 SWAP4 SWAP12 DUP5 DUP10 MSTORE PUSH1 0x2 DUP3 MSTORE DUP7 PUSH1 0x40 DUP11 KECCAK256 ADD PUSH2 0xDCD DUP3 DUP3 SLOAD PUSH2 0x26E0 JUMP JUMPDEST SWAP1 SSTORE DUP5 DUP10 MSTORE PUSH1 0x2 DUP3 MSTORE PUSH1 0x2 PUSH1 0x40 DUP11 KECCAK256 ADD PUSH2 0xDE7 DUP2 SLOAD PUSH2 0x26BB JUMP JUMPDEST SWAP1 SSTORE DUP1 PUSH2 0xE01 JUMPI JUMPDEST PUSH1 0x40 MLOAD SWAP1 DUP2 MSTORE LOG3 JUMPDEST ADD SWAP6 SWAP1 SWAP3 SWAP6 PUSH2 0xCA0 JUMP JUMPDEST DUP5 DUP10 MSTORE PUSH1 0x2 DUP3 MSTORE PUSH1 0x3 PUSH1 0x40 DUP11 KECCAK256 ADD PUSH2 0xE19 DUP2 SLOAD PUSH2 0x26BB JUMP JUMPDEST SWAP1 SSTORE PUSH2 0xDEF JUMP JUMPDEST SWAP8 POP SWAP4 SWAP2 POP PUSH1 0x1 SWAP1 PUSH2 0xDF7 JUMP JUMPDEST POP DUP3 SLOAD PUSH1 0xFF NOT AND PUSH1 0x4 OR SWAP1 SWAP3 SSTORE DUP1 JUMPDEST DUP3 SLOAD DUP2 LT ISZERO PUSH2 0xEA3 JUMPI DUP1 PUSH2 0xE52 PUSH1 0x1 SWAP3 DUP6 PUSH2 0x2408 JUMP JUMPDEST DUP4 DUP1 PUSH1 0xA0 SHL SUB SWAP2 SLOAD SWAP1 PUSH1 0x3 SHL SHR AND DUP4 MSTORE PUSH1 0x4 PUSH1 0x20 MSTORE DUP5 PUSH1 0x40 DUP5 KECCAK256 SLOAD EQ PUSH2 0xE79 JUMPI JUMPDEST ADD PUSH2 0xE3C JUMP JUMPDEST PUSH2 0xE83 DUP2 DUP6 PUSH2 0x2408 JUMP JUMPDEST DUP4 DUP1 PUSH1 0xA0 SHL SUB SWAP2 SLOAD SWAP1 PUSH1 0x3 SHL SHR AND DUP4 MSTORE PUSH1 0x4 PUSH1 0x20 MSTORE DUP3 PUSH1 0x40 DUP2 KECCAK256 SSTORE PUSH2 0xE73 JUMP JUMPDEST POP DUP3 PUSH32 0xCE24807F7E4B60B4E641462F13029FA5E5F79075BBC3F8E5CD43ECD19661D760 DUP3 DUP1 LOG2 DUP1 RETURN JUMPDEST PUSH1 0x40 MLOAD PUSH3 0x461BCD PUSH1 0xE5 SHL DUP2 MSTORE PUSH1 0x20 PUSH1 0x4 DUP3 ADD MSTORE PUSH1 0x12 PUSH1 0x24 DUP3 ADD MSTORE PUSH18 0x11D85B5948185B1C9958591E48195B991959 PUSH1 0x72 SHL PUSH1 0x44 DUP3 ADD MSTORE PUSH1 0x64 SWAP1 REVERT JUMPDEST PUSH4 0x4E487B71 PUSH1 0xE0 SHL DUP6 MSTORE PUSH1 0x21 PUSH1 0x4 MSTORE PUSH1 0x24 DUP6 REVERT JUMPDEST DUP1 SLOAD PUSH1 0xFF NOT AND PUSH1 0x3 OR DUP2 SSTORE PUSH2 0xC7C JUMP JUMPDEST PUSH1 0x4 SWAP2 POP EQ ISZERO CODESIZE PUSH2 0xC76 JUMP JUMPDEST PUSH1 0x40 MLOAD PUSH3 0x461BCD PUSH1 0xE5 SHL DUP2 MSTORE PUSH1 0x20 PUSH1 0x4 DUP3 ADD MSTORE PUSH1 0x1F PUSH1 0x24 DUP3 ADD MSTORE PUSH32 0x5265736F6C7574696F6E20646561646C696E65206E6F74207265616368656400 PUSH1 0x44 DUP3 ADD MSTORE PUSH1 0x64 SWAP1 REVERT JUMPDEST POP DUP2 SLOAD DUP2 LT PUSH2 0xC37 JUMP JUMPDEST POP CALLVALUE PUSH2 0x2BD JUMPI DUP1 PUSH1 0x3 NOT CALLDATASIZE ADD SLT PUSH2 0x2BD JUMPI PUSH1 0x40 MLOAD PUSH32 0x0 PUSH1 0x1 PUSH1 0x1 PUSH1 0xA0 SHL SUB AND DUP2 MSTORE PUSH1 0x20 SWAP1 RETURN JUMPDEST POP CALLVALUE PUSH2 0x2BD JUMPI PUSH1 0x20 CALLDATASIZE PUSH1 0x3 NOT ADD SLT PUSH2 0x2BD JUMPI PUSH2 0xFE7 PUSH1 0x4 CALLDATALOAD PUSH2 0x27F6 JUMP JUMPDEST SWAP1 PUSH2 0x1017 PUSH2 0x100C PUSH1 0x40 SWAP7 SWAP6 SWAP7 MLOAD SWAP7 DUP8 SWAP7 ISZERO ISZERO DUP8 MSTORE PUSH1 0xA0 PUSH1 0x20 DUP9 ADD MSTORE PUSH1 0xA0 DUP8 ADD SWAP1 PUSH2 0x23AB JUMP JUMPDEST SWAP4 PUSH1 0x40 DUP7 ADD SWAP1 PUSH2 0x2388 JUMP JUMPDEST PUSH1 0x60 DUP5 ADD MSTORE PUSH1 0x80 DUP4 ADD MSTORE SUB SWAP1 RETURN JUMPDEST POP CALLVALUE PUSH2 0x2BD JUMPI PUSH1 0x20 CALLDATASIZE PUSH1 0x3 NOT ADD SLT PUSH2 0x2BD JUMPI PUSH1 0x4 CALLDATALOAD SWAP1 PUSH1 0x3 SLOAD DUP3 LT ISZERO PUSH2 0x2BD JUMPI PUSH1 0x3 SLOAD DUP3 LT ISZERO PUSH2 0x1092 JUMPI PUSH1 0x3 DUP1 DUP3 MSTORE PUSH32 0xC2575A0E9E593C00F959F8C92F12DB2869C3395A3B0502D05E2516446F71F85B SWAP3 SWAP1 SWAP3 ADD SLOAD PUSH1 0x40 MLOAD PUSH1 0x1 PUSH1 0x1 PUSH1 0xA0 SHL SUB SWAP3 SWAP1 SWAP4 SHL SHR AND DUP2 MSTORE PUSH1 0x20 SWAP1 RETURN JUMPDEST PUSH4 0x4E487B71 PUSH1 0xE0 SHL DUP2 MSTORE PUSH1 0x32 PUSH1 0x4 MSTORE PUSH1 0x24 SWAP1 REVERT JUMPDEST POP CALLVALUE PUSH2 0x2BD JUMPI DUP1 PUSH1 0x3 NOT CALLDATASIZE ADD SLT PUSH2 0x2BD JUMPI PUSH1 0x20 PUSH1 0x40 MLOAD PUSH1 0xF DUP2 MSTORE RETURN JUMPDEST POP CALLVALUE PUSH2 0x2BD JUMPI PUSH1 0x20 CALLDATASIZE PUSH1 0x3 NOT ADD SLT PUSH2 0x2BD JUMPI PUSH1 0x40 PUSH1 0x20 SWAP2 PUSH1 0x4 CALLDATALOAD DUP2 MSTORE PUSH1 0x6 DUP4 MSTORE KECCAK256 SLOAD PUSH1 0x40 MLOAD SWAP1 DUP2 MSTORE RETURN JUMPDEST POP CALLVALUE PUSH2 0x2BD JUMPI DUP1 PUSH1 0x3 NOT CALLDATASIZE ADD SLT PUSH2 0x2BD JUMPI PUSH1 0x20 PUSH1 0x40 MLOAD PUSH1 0x12 DUP2 MSTORE RETURN JUMPDEST POP CALLVALUE PUSH2 0x2BD JUMPI PUSH1 0x20 CALLDATASIZE PUSH1 0x3 NOT ADD SLT PUSH2 0x2BD JUMPI PUSH1 0x20 PUSH2 0x112C PUSH2 0x1127 PUSH2 0x234A JUMP JUMPDEST PUSH2 0x27AA JUMP JUMPDEST PUSH1 0x40 MLOAD SWAP1 DUP2 MSTORE RETURN JUMPDEST POP PUSH1 0x80 CALLDATASIZE PUSH1 0x3 NOT ADD SLT PUSH2 0x2BD JUMPI PUSH1 0x24 CALLDATALOAD PUSH1 0x4 CALLDATALOAD PUSH1 0x1 PUSH1 0x1 PUSH1 0x40 SHL SUB DUP3 GT PUSH2 0xC15 JUMPI CALLDATASIZE PUSH1 0x23 DUP4 ADD SLT ISZERO PUSH2 0xC15 JUMPI DUP2 PUSH1 0x4 ADD CALLDATALOAD SWAP2 PUSH2 0x116F DUP4 PUSH2 0x22BB JUMP JUMPDEST SWAP1 PUSH2 0x117D PUSH1 0x40 MLOAD SWAP3 DUP4 PUSH2 0x229A JUMP JUMPDEST DUP4 DUP3 MSTORE PUSH1 0x20 DUP3 ADD PUSH1 0x24 DUP2 SWAP6 PUSH1 0x5 SHL DUP4 ADD ADD SWAP2 CALLDATASIZE DUP4 GT PUSH2 0x1334 JUMPI PUSH1 0x24 DUP2 ADD SWAP2 JUMPDEST DUP4 DUP4 LT PUSH2 0x13CA JUMPI POP POP POP POP PUSH1 0x44 CALLDATALOAD PUSH1 0x1 PUSH1 0x1 PUSH1 0x40 SHL SUB DUP2 GT PUSH2 0x13C6 JUMPI PUSH2 0x11C6 SWAP1 CALLDATASIZE SWAP1 PUSH1 0x4 ADD PUSH2 0x22D2 JUMP JUMPDEST POP PUSH1 0x64 CALLDATALOAD SWAP3 DUP3 ISZERO ISZERO DUP1 PUSH2 0x13BC JUMPI JUMPDEST PUSH2 0x11DD SWAP1 PUSH2 0x24D5 JUMP JUMPDEST DUP3 DUP6 MSTORE PUSH1 0x1 PUSH1 0x20 MSTORE PUSH1 0xFF PUSH1 0x1 PUSH1 0x40 DUP8 KECCAK256 ADD SLOAD AND PUSH1 0x5 DUP2 LT ISZERO PUSH2 0x13A8 JUMPI PUSH1 0x3 PUSH2 0x1205 SWAP2 EQ PUSH2 0x2768 JUMP JUMPDEST DUP3 DUP6 MSTORE PUSH1 0x1 PUSH1 0x20 MSTORE PUSH1 0x40 DUP6 KECCAK256 DUP5 CALLVALUE LT PUSH2 0x1370 JUMPI PUSH1 0xA ADD SWAP4 PUSH1 0xFF DUP6 SLOAD AND PUSH2 0x1338 JUMPI PUSH32 0x0 PUSH1 0x1 PUSH1 0x1 PUSH1 0xA0 SHL SUB AND SWAP2 DUP3 EXTCODESIZE ISZERO PUSH2 0x1334 JUMPI PUSH1 0x40 MLOAD PUSH4 0x1DF3CBC5 PUSH1 0xE3 SHL DUP2 MSTORE PUSH1 0x20 PUSH1 0x4 DUP3 ADD MSTORE SWAP4 MLOAD PUSH1 0x24 DUP6 ADD DUP2 SWAP1 MSTORE DUP8 SWAP5 SWAP4 SWAP3 SWAP2 PUSH1 0x44 PUSH1 0x5 DUP4 SWAP1 SHL DUP7 ADD DUP2 ADD SWAP3 SWAP1 DUP8 SWAP1 DUP8 ADD JUMPDEST DUP3 DUP3 LT PUSH2 0x12FF JUMPI POP POP POP POP SWAP2 DUP4 DUP1 SWAP3 DUP2 DUP8 SWAP6 SUB SWAP3 GAS CALL DUP1 ISZERO PUSH2 0x12F4 JUMPI PUSH2 0x12DF JUMPI JUMPDEST POP DUP1 PUSH32 0x702EC30635253CAE6D3600D38314E616495CF01545D34E549C49EBF6451DAB3B SWAP2 LOG2 DUP1 SLOAD PUSH1 0xFF NOT AND PUSH1 0x1 OR SWAP1 SSTORE DUP1 RETURN JUMPDEST DUP2 PUSH2 0x12E9 SWAP2 PUSH2 0x229A JUMP JUMPDEST PUSH2 0xC15 JUMPI DUP3 CODESIZE PUSH2 0x12AC JUMP JUMPDEST PUSH1 0x40 MLOAD RETURNDATASIZE DUP5 DUP3 RETURNDATACOPY RETURNDATASIZE SWAP1 REVERT JUMPDEST SWAP2 SWAP4 PUSH1 0x1 SWAP2 SWAP4 SWAP6 SWAP7 SWAP8 SWAP9 POP PUSH1 0x20 PUSH2 0x1321 DUP2 SWAP3 PUSH1 0x43 NOT DUP13 DUP3 SUB ADD DUP7 MSTORE DUP9 MLOAD PUSH2 0x23AB JUMP JUMPDEST SWAP7 ADD SWAP3 ADD SWAP3 ADD DUP11 SWAP8 SWAP7 SWAP6 SWAP5 SWAP4 SWAP2 SWAP3 PUSH2 0x128B JUMP JUMPDEST DUP7 DUP1 REVERT JUMPDEST PUSH1 0x40 MLOAD PUSH3 0x461BCD PUSH1 0xE5 SHL DUP2 MSTORE PUSH1 0x20 PUSH1 0x4 DUP3 ADD MSTORE PUSH1 0x10 PUSH1 0x24 DUP3 ADD MSTORE PUSH16 0x105B1C9958591E481C995CDBDB1D9959 PUSH1 0x82 SHL PUSH1 0x44 DUP3 ADD MSTORE PUSH1 0x64 SWAP1 REVERT JUMPDEST PUSH1 0x40 MLOAD PUSH3 0x461BCD PUSH1 0xE5 SHL DUP2 MSTORE PUSH1 0x20 PUSH1 0x4 DUP3 ADD MSTORE PUSH1 0x10 PUSH1 0x24 DUP3 ADD MSTORE PUSH16 0x496E73756666696369656E7420666565 PUSH1 0x80 SHL PUSH1 0x44 DUP3 ADD MSTORE PUSH1 0x64 SWAP1 REVERT JUMPDEST PUSH4 0x4E487B71 PUSH1 0xE0 SHL DUP7 MSTORE PUSH1 0x21 PUSH1 0x4 MSTORE PUSH1 0x24 DUP7 REVERT JUMPDEST POP DUP5 SLOAD DUP4 LT PUSH2 0x11D4 JUMP JUMPDEST DUP5 DUP1 REVERT JUMPDEST DUP3 CALLDATALOAD PUSH1 0x1 PUSH1 0x1 PUSH1 0x40 SHL SUB DUP2 GT PUSH2 0x1455 JUMPI DUP3 ADD SWAP1 CALLDATASIZE PUSH1 0x43 DUP4 ADD SLT ISZERO PUSH2 0x1455 JUMPI PUSH1 0x24 DUP3 ADD CALLDATALOAD SWAP1 PUSH1 0x1 PUSH1 0x1 PUSH1 0x40 SHL SUB DUP3 GT PUSH2 0x1441 JUMPI PUSH1 0x40 MLOAD PUSH2 0x1413 PUSH1 0x1F DUP5 ADD PUSH1 0x1F NOT AND PUSH1 0x20 ADD DUP3 PUSH2 0x229A JUMP JUMPDEST DUP3 DUP2 MSTORE DUP11 CALLDATASIZE PUSH1 0x44 DUP7 DUP7 ADD ADD GT PUSH2 0x2BD JUMPI PUSH1 0x20 DUP5 DUP2 SWAP7 SWAP6 PUSH1 0x44 DUP4 SWAP8 ADD DUP4 DUP7 ADD CALLDATACOPY DUP4 ADD ADD MSTORE DUP2 MSTORE ADD SWAP3 ADD SWAP2 PUSH2 0x119C JUMP JUMPDEST PUSH4 0x4E487B71 PUSH1 0xE0 SHL DUP11 MSTORE PUSH1 0x41 PUSH1 0x4 MSTORE PUSH1 0x24 DUP11 REVERT JUMPDEST DUP9 DUP1 REVERT JUMPDEST POP CALLVALUE PUSH2 0x2BD JUMPI PUSH1 0x20 CALLDATASIZE PUSH1 0x3 NOT ADD SLT PUSH2 0x2BD JUMPI PUSH1 0xFF PUSH1 0x40 PUSH1 0x20 SWAP3 PUSH1 0x4 CALLDATALOAD DUP2 MSTORE PUSH1 0x7 DUP5 MSTORE KECCAK256 SLOAD AND PUSH1 0x40 MLOAD SWAP1 ISZERO ISZERO DUP2 MSTORE RETURN JUMPDEST POP CALLVALUE PUSH2 0x2BD JUMPI PUSH1 0x20 CALLDATASIZE PUSH1 0x3 NOT ADD SLT PUSH2 0x2BD JUMPI PUSH1 0x4 CALLDATALOAD DUP1 ISZERO ISZERO DUP1 PUSH2 0x14FC JUMPI JUMPDEST PUSH2 0x14AF SWAP1 PUSH2 0x24D5 JUMP JUMPDEST DUP2 MSTORE PUSH1 0x1 PUSH1 0x20 MSTORE PUSH1 0x40 DUP2 KECCAK256 PUSH1 0x4 DUP2 ADD SLOAD TIMESTAMP LT ISZERO DUP1 PUSH2 0x14E1 JUMPI JUMPDEST PUSH2 0x14D0 JUMPI POP DUP1 RETURN JUMPDEST PUSH1 0x1 ADD DUP1 SLOAD PUSH1 0xFF NOT AND PUSH1 0x3 OR SWAP1 SSTORE DUP1 RETURN JUMPDEST POP PUSH1 0xFF PUSH1 0x1 DUP3 ADD SLOAD AND PUSH1 0x5 DUP2 LT ISZERO PUSH2 0x5D7 JUMPI PUSH1 0x4 EQ ISZERO PUSH2 0x14C8 JUMP JUMPDEST POP DUP2 SLOAD DUP2 LT PUSH2 0x14A6 JUMP JUMPDEST POP CALLVALUE PUSH2 0x2BD JUMPI DUP1 PUSH1 0x3 NOT CALLDATASIZE ADD SLT PUSH2 0x2BD JUMPI PUSH1 0x20 PUSH1 0x40 MLOAD PUSH1 0x1 DUP2 MSTORE RETURN JUMPDEST POP CALLVALUE PUSH2 0x2BD JUMPI PUSH1 0x20 CALLDATASIZE PUSH1 0x3 NOT ADD SLT PUSH2 0x2BD JUMPI PUSH1 0x20 SWAP1 PUSH1 0x40 SWAP1 PUSH1 0x1 PUSH1 0x1 PUSH1 0xA0 SHL SUB PUSH2 0x154A PUSH2 0x234A JUMP JUMPDEST AND DUP2 MSTORE PUSH1 0x4 DUP4 MSTORE KECCAK256 SLOAD PUSH1 0x40 MLOAD SWAP1 DUP2 MSTORE RETURN JUMPDEST POP CALLVALUE PUSH2 0x2BD JUMPI PUSH1 0x20 CALLDATASIZE PUSH1 0x3 NOT ADD SLT PUSH2 0x2BD JUMPI PUSH1 0x4 CALLDATALOAD DUP1 ISZERO ISZERO DUP1 PUSH2 0x15EF JUMPI JUMPDEST SWAP1 PUSH2 0x1587 PUSH2 0x15A4 SWAP4 SWAP3 PUSH2 0x24D5 JUMP JUMPDEST DUP2 MSTORE PUSH1 0x1 PUSH1 0x20 MSTORE PUSH2 0x15AB PUSH1 0x7 PUSH1 0x40 DUP4 KECCAK256 ADD PUSH1 0x40 MLOAD SWAP4 DUP5 DUP1 SWAP3 PUSH2 0x272E JUMP JUMPDEST SUB DUP4 PUSH2 0x229A JUMP JUMPDEST PUSH1 0x40 MLOAD SWAP2 DUP3 SWAP2 PUSH1 0x20 DUP4 ADD PUSH1 0x20 DUP5 MSTORE DUP3 MLOAD DUP1 SWAP2 MSTORE PUSH1 0x20 PUSH1 0x40 DUP6 ADD SWAP4 ADD SWAP2 JUMPDEST DUP2 DUP2 LT PUSH2 0x15D6 JUMPI POP POP POP SUB SWAP1 RETURN JUMPDEST DUP3 MLOAD DUP5 MSTORE DUP6 SWAP5 POP PUSH1 0x20 SWAP4 DUP5 ADD SWAP4 SWAP1 SWAP3 ADD SWAP2 PUSH1 0x1 ADD PUSH2 0x15C8 JUMP JUMPDEST POP DUP2 SLOAD DUP2 LT PUSH2 0x1579 JUMP JUMPDEST POP CALLVALUE PUSH2 0x2BD JUMPI DUP1 PUSH1 0x3 NOT CALLDATASIZE ADD SLT PUSH2 0x2BD JUMPI PUSH1 0x20 PUSH1 0x40 MLOAD PUSH1 0x2 DUP2 MSTORE RETURN JUMPDEST POP CALLVALUE PUSH2 0x2BD JUMPI PUSH1 0x40 CALLDATASIZE PUSH1 0x3 NOT ADD SLT PUSH2 0x2BD JUMPI PUSH1 0x40 DUP1 SWAP2 PUSH1 0x4 CALLDATALOAD DUP1 ISZERO ISZERO DUP1 PUSH2 0x1671 JUMPI JUMPDEST PUSH2 0x1640 SWAP1 PUSH2 0x24D5 JUMP JUMPDEST DUP2 MSTORE PUSH1 0x1 PUSH1 0x20 MSTORE PUSH1 0x9 DUP3 DUP3 KECCAK256 ADD PUSH1 0x24 CALLDATALOAD DUP3 MSTORE PUSH1 0x20 MSTORE KECCAK256 PUSH1 0x2 PUSH1 0xFF PUSH1 0x1 DUP4 ADD SLOAD AND SWAP2 ADD SLOAD DUP3 MLOAD SWAP2 ISZERO ISZERO DUP3 MSTORE PUSH1 0x20 DUP3 ADD MSTORE RETURN JUMPDEST POP DUP2 SLOAD DUP2 LT PUSH2 0x1637 JUMP JUMPDEST POP CALLVALUE PUSH2 0x2BD JUMPI DUP1 PUSH1 0x3 NOT CALLDATASIZE ADD SLT PUSH2 0x2BD JUMPI PUSH1 0x20 PUSH1 0x40 MLOAD PUSH1 0xB4 DUP2 MSTORE RETURN JUMPDEST POP CALLVALUE PUSH2 0x2BD JUMPI DUP1 PUSH1 0x3 NOT CALLDATASIZE ADD SLT PUSH2 0x2BD JUMPI CALLER DUP2 MSTORE PUSH1 0x4 PUSH1 0x20 MSTORE PUSH1 0x40 DUP2 KECCAK256 SLOAD DUP1 PUSH2 0x194C JUMPI JUMPDEST POP DUP1 SLOAD PUSH2 0x16C7 DUP2 PUSH2 0x26BB JUMP JUMPDEST DUP3 SSTORE DUP1 DUP3 MSTORE PUSH1 0x1 PUSH1 0x20 MSTORE PUSH1 0x40 DUP3 KECCAK256 DUP2 DUP2 SSTORE PUSH1 0x1 DUP2 ADD PUSH1 0xFF NOT DUP2 SLOAD AND SWAP1 SSTORE TIMESTAMP PUSH1 0x2 DUP3 ADD SSTORE PUSH1 0x3C TIMESTAMP ADD DUP1 TIMESTAMP GT PUSH2 0x1938 JUMPI DUP1 PUSH1 0x3 DUP4 ADD SSTORE PUSH1 0x78 TIMESTAMP ADD DUP1 SWAP2 GT PUSH2 0x1938 JUMPI DUP1 PUSH1 0x4 DUP4 ADD SSTORE PUSH2 0x12C TIMESTAMP ADD DUP1 SWAP2 GT PUSH2 0x1938 JUMPI PUSH1 0x5 DUP3 ADD SSTORE PUSH2 0x172B SWAP1 CALLER SWAP1 PUSH1 0x6 ADD PUSH2 0x26ED JUMP JUMPDEST CALLER DUP3 MSTORE PUSH1 0x4 PUSH1 0x20 MSTORE DUP1 PUSH1 0x40 DUP4 KECCAK256 SSTORE PUSH1 0x40 MLOAD CALLER DUP3 PUSH32 0xFADB9547847A0C2C31F4C02590545E318D33D7AAE99071CAECF3FA4CE3CD7DCA DUP6 DUP1 LOG3 DUP2 DUP4 MSTORE PUSH1 0x7 PUSH1 0x20 MSTORE PUSH1 0xFF PUSH1 0x40 DUP5 KECCAK256 SLOAD AND PUSH2 0x18F6 JUMPI POP PUSH1 0x40 MLOAD PUSH4 0x1F01025B PUSH1 0xE1 SHL DUP2 MSTORE PUSH32 0x0 PUSH1 0x1 PUSH1 0x1 PUSH1 0xA0 SHL SUB AND PUSH1 0x20 DUP3 PUSH1 0x4 DUP2 DUP5 GAS STATICCALL SWAP2 DUP3 ISZERO PUSH2 0x18EB JUMPI DUP5 SWAP3 PUSH2 0x18B3 JUMPI JUMPDEST POP DUP2 SELFBALANCE LT PUSH2 0x186E JUMPI DUP1 DUP5 SWAP2 EXTCODESIZE ISZERO PUSH2 0x767 JUMPI PUSH1 0x4 PUSH1 0x40 MLOAD DUP1 SWAP5 DUP2 SWAP4 PUSH4 0xB13038A1 PUSH1 0xE0 SHL DUP4 MSTORE GAS CALL DUP1 ISZERO PUSH2 0x1863 JUMPI SWAP3 PUSH1 0x40 SWAP2 DUP2 PUSH1 0x20 SWAP6 PUSH2 0x1853 JUMPI JUMPDEST DUP5 SWAP2 POP MSTORE PUSH1 0x7 DUP5 MSTORE KECCAK256 PUSH1 0x1 PUSH1 0xFF NOT DUP3 SLOAD AND OR SWAP1 SSTORE DUP1 PUSH32 0xBDC6D9CD20B69192D98208F944398E7220245FA28933232072F237E004B9A376 DUP4 PUSH2 0x1840 PUSH1 0x8 SLOAD PUSH2 0x26BB JUMP JUMPDEST DUP1 PUSH1 0x8 SSTORE PUSH1 0x40 MLOAD SWAP1 DUP2 MSTORE LOG2 PUSH1 0x40 MLOAD SWAP1 DUP2 MSTORE RETURN JUMPDEST PUSH2 0x185C SWAP2 PUSH2 0x229A JUMP JUMPDEST CODESIZE DUP2 PUSH2 0x17FE JUMP JUMPDEST PUSH1 0x40 MLOAD RETURNDATASIZE DUP6 DUP3 RETURNDATACOPY RETURNDATASIZE SWAP1 REVERT JUMPDEST PUSH1 0x40 MLOAD PUSH3 0x461BCD PUSH1 0xE5 SHL DUP2 MSTORE PUSH1 0x20 PUSH1 0x4 DUP3 ADD MSTORE PUSH1 0x1D PUSH1 0x24 DUP3 ADD MSTORE PUSH32 0x496E73756666696369656E7420636F6E74726163742062616C616E6365000000 PUSH1 0x44 DUP3 ADD MSTORE PUSH1 0x64 SWAP1 REVERT JUMPDEST SWAP1 SWAP2 POP PUSH1 0x20 DUP2 RETURNDATASIZE PUSH1 0x20 GT PUSH2 0x18E3 JUMPI JUMPDEST DUP2 PUSH2 0x18CF PUSH1 0x20 SWAP4 DUP4 PUSH2 0x229A JUMP JUMPDEST DUP2 ADD SUB SLT PUSH2 0x18DF JUMPI MLOAD SWAP1 CODESIZE PUSH2 0x17C5 JUMP JUMPDEST DUP4 DUP1 REVERT JUMPDEST RETURNDATASIZE SWAP2 POP PUSH2 0x18C2 JUMP JUMPDEST PUSH1 0x40 MLOAD RETURNDATASIZE DUP7 DUP3 RETURNDATACOPY RETURNDATASIZE SWAP1 REVERT JUMPDEST PUSH3 0x461BCD PUSH1 0xE5 SHL DUP2 MSTORE PUSH1 0x20 PUSH1 0x4 DUP3 ADD MSTORE PUSH1 0x19 PUSH1 0x24 DUP3 ADD MSTORE PUSH32 0x456E74726F707920616C72656164792072657175657374656400000000000000 PUSH1 0x44 DUP3 ADD MSTORE PUSH1 0x64 SWAP1 REVERT JUMPDEST PUSH4 0x4E487B71 PUSH1 0xE0 SHL DUP5 MSTORE PUSH1 0x11 PUSH1 0x4 MSTORE PUSH1 0x24 DUP5 REVERT JUMPDEST DUP2 MSTORE PUSH1 0x1 PUSH1 0x20 MSTORE PUSH1 0xFF PUSH1 0x1 PUSH1 0x40 DUP4 KECCAK256 ADD SLOAD AND PUSH1 0x5 DUP2 LT ISZERO PUSH2 0x1987 JUMPI PUSH1 0x4 PUSH2 0x1973 SWAP2 EQ PUSH2 0x266F JUMP JUMPDEST CALLER DUP2 MSTORE PUSH1 0x4 PUSH1 0x20 MSTORE DUP1 PUSH1 0x40 DUP2 KECCAK256 SSTORE CODESIZE PUSH2 0x16BB JUMP JUMPDEST PUSH4 0x4E487B71 PUSH1 0xE0 SHL DUP3 MSTORE PUSH1 0x21 PUSH1 0x4 MSTORE PUSH1 0x24 DUP3 REVERT JUMPDEST POP CALLVALUE PUSH2 0x2BD JUMPI DUP1 PUSH1 0x3 NOT CALLDATASIZE ADD SLT PUSH2 0x2BD JUMPI PUSH1 0x20 PUSH1 0x8 SLOAD PUSH1 0x40 MLOAD SWAP1 DUP2 MSTORE RETURN JUMPDEST POP CALLVALUE PUSH2 0x2BD JUMPI PUSH1 0x20 CALLDATASIZE PUSH1 0x3 NOT ADD SLT PUSH2 0x2BD JUMPI PUSH1 0x80 SWAP1 PUSH1 0x40 SWAP1 PUSH1 0x1 PUSH1 0x1 PUSH1 0xA0 SHL SUB PUSH2 0x19E1 PUSH2 0x234A JUMP JUMPDEST AND DUP2 MSTORE PUSH1 0x2 PUSH1 0x20 MSTORE KECCAK256 PUSH1 0x1 DUP1 PUSH1 0xA0 SHL SUB DUP2 SLOAD AND SWAP1 PUSH1 0x1 DUP2 ADD SLOAD SWAP1 PUSH1 0x3 PUSH1 0x2 DUP3 ADD SLOAD SWAP2 ADD SLOAD SWAP2 PUSH1 0x40 MLOAD SWAP4 DUP5 MSTORE PUSH1 0x20 DUP5 ADD MSTORE PUSH1 0x40 DUP4 ADD MSTORE PUSH1 0x60 DUP3 ADD MSTORE RETURN JUMPDEST POP CALLVALUE PUSH2 0x2BD JUMPI PUSH1 0x20 CALLDATASIZE PUSH1 0x3 NOT ADD SLT PUSH2 0x2BD JUMPI PUSH2 0x1A4B PUSH1 0x20 SWAP2 PUSH2 0x254 PUSH1 0x4 CALLDATALOAD SWAP2 DUP3 ISZERO ISZERO SWAP1 DUP2 PUSH2 0x2A8 JUMPI POP PUSH2 0x24D5 JUMP JUMPDEST PUSH2 0x1A58 PUSH1 0x40 MLOAD DUP1 SWAP3 PUSH2 0x2388 JUMP JUMPDEST RETURN JUMPDEST POP CALLVALUE PUSH2 0x2BD JUMPI PUSH1 0x40 CALLDATASIZE PUSH1 0x3 NOT ADD SLT PUSH2 0x2BD JUMPI PUSH1 0x4 CALLDATALOAD DUP2 MSTORE PUSH1 0x5 PUSH1 0x20 MSTORE PUSH1 0x24 CALLDATALOAD PUSH1 0x40 DUP3 KECCAK256 SSTORE DUP1 RETURN JUMPDEST POP CALLVALUE PUSH2 0x2BD JUMPI PUSH1 0x40 CALLDATASIZE PUSH1 0x3 NOT ADD SLT PUSH2 0x2BD JUMPI PUSH2 0x160 SWAP1 PUSH2 0x1A58 PUSH1 0x4 CALLDATALOAD SWAP2 PUSH2 0x1AA6 PUSH2 0x2334 JUMP JUMPDEST SWAP3 PUSH1 0x60 PUSH1 0x40 MLOAD PUSH2 0x1AB6 DUP3 DUP3 PUSH2 0x229A JUMP JUMPDEST CALLDATASIZE SWAP1 CALLDATACOPY DUP1 ISZERO ISZERO DUP1 PUSH2 0x1BB1 JUMPI JUMPDEST PUSH2 0x1ACB SWAP1 PUSH2 0x24D5 JUMP JUMPDEST DUP2 MSTORE PUSH1 0x1 PUSH1 0x20 MSTORE PUSH1 0x40 DUP2 KECCAK256 SWAP3 DUP2 SWAP1 PUSH1 0x40 MLOAD PUSH2 0x1AE5 DUP2 PUSH2 0x224E JUMP JUMPDEST DUP4 DUP2 MSTORE PUSH1 0x20 DUP2 ADD DUP5 SWAP1 MSTORE PUSH1 0x40 DUP2 ADD DUP5 SWAP1 MSTORE SWAP3 PUSH1 0x1 PUSH1 0x1 PUSH1 0xA0 SHL SUB DUP3 AND PUSH2 0x1B6F JUMPI JUMPDEST POP POP PUSH1 0xFF PUSH1 0x1 DUP6 ADD SLOAD AND SWAP4 PUSH1 0x2 DUP2 ADD SLOAD SWAP1 PUSH1 0x3 DUP2 ADD SLOAD PUSH1 0x4 DUP3 ADD SLOAD PUSH1 0x5 DUP4 ADD SLOAD SWAP2 PUSH1 0x7 PUSH1 0x6 DUP6 ADD SLOAD SWAP5 ADD SLOAD SWAP5 PUSH2 0x1B3F PUSH1 0x40 MLOAD DUP1 SWAP12 PUSH2 0x2388 JUMP JUMPDEST PUSH1 0x20 DUP11 ADD MSTORE PUSH1 0x40 DUP10 ADD MSTORE PUSH1 0x60 DUP9 ADD MSTORE PUSH1 0x80 DUP8 ADD MSTORE PUSH1 0xA0 DUP7 ADD MSTORE PUSH1 0xC0 DUP6 ADD MSTORE ISZERO ISZERO PUSH1 0xE0 DUP5 ADD MSTORE PUSH2 0x100 DUP4 ADD SWAP1 PUSH2 0x2360 JUMP JUMPDEST PUSH1 0x1 PUSH1 0x1 PUSH1 0xA0 SHL SUB SWAP1 SWAP2 AND DUP2 MSTORE PUSH1 0x8 DUP6 ADD PUSH1 0x20 MSTORE PUSH1 0x40 SWAP1 KECCAK256 PUSH1 0x5 DUP2 ADD SLOAD PUSH1 0xFF AND PUSH2 0x1B9A JUMPI JUMPDEST DUP1 PUSH2 0x1B06 JUMP JUMPDEST SWAP2 POP POP PUSH2 0x1BAA PUSH1 0x1 DUP1 SWAP3 ADD PUSH2 0x2513 JUMP JUMPDEST SWAP1 CODESIZE PUSH2 0x1B94 JUMP JUMPDEST POP DUP2 SLOAD DUP2 LT PUSH2 0x1AC2 JUMP JUMPDEST POP CALLVALUE PUSH2 0x2BD JUMPI PUSH1 0x20 CALLDATASIZE PUSH1 0x3 NOT ADD SLT PUSH2 0x2BD JUMPI PUSH1 0x40 PUSH1 0x20 SWAP2 PUSH1 0x4 CALLDATALOAD DUP2 MSTORE PUSH1 0x5 DUP4 MSTORE KECCAK256 SLOAD PUSH1 0x40 MLOAD SWAP1 DUP2 MSTORE RETURN JUMPDEST POP CALLVALUE PUSH2 0x2BD JUMPI PUSH1 0x20 CALLDATASIZE PUSH1 0x3 NOT ADD SLT PUSH2 0x2BD JUMPI PUSH2 0x1C16 SWAP1 PUSH2 0x1C11 PUSH1 0x4 CALLDATALOAD SWAP2 DUP3 ISZERO ISZERO SWAP1 DUP2 PUSH2 0x2A8 JUMPI POP PUSH2 0x24D5 JUMP JUMPDEST PUSH2 0x254A JUMP JUMPDEST SWAP1 PUSH2 0x1C35 PUSH1 0x40 MLOAD SWAP3 DUP4 SWAP3 ISZERO ISZERO DUP4 MSTORE PUSH1 0x40 PUSH1 0x20 DUP5 ADD MSTORE PUSH1 0x40 DUP4 ADD SWAP1 PUSH2 0x23AB JUMP JUMPDEST SUB SWAP1 RETURN JUMPDEST POP CALLVALUE PUSH2 0x2BD JUMPI PUSH1 0x40 CALLDATASIZE PUSH1 0x3 NOT ADD SLT PUSH2 0x2BD JUMPI PUSH1 0x4 CALLDATALOAD PUSH1 0x24 CALLDATALOAD SWAP1 PUSH1 0x1 PUSH1 0x1 PUSH1 0x40 SHL SUB DUP3 AND DUP1 SWAP3 SUB PUSH2 0xC15 JUMPI PUSH32 0x0 PUSH1 0x1 PUSH1 0x1 PUSH1 0xA0 SHL SUB AND CALLER SUB PUSH2 0x1D71 JUMPI DUP3 SWAP2 PUSH1 0x1 DUP5 SLOAD SWAP1 JUMPDEST DUP2 DUP2 LT PUSH2 0x1D30 JUMPI JUMPDEST POP POP DUP3 ISZERO PUSH2 0x1CEB JUMPI PUSH32 0x1FC4F2867633636E24F8E6A0625B2BFFFA6EDFD6EBAD5CC1671BC193E5548AA4 SWAP2 PUSH1 0x40 SWAP2 DUP5 DUP7 MSTORE PUSH1 0x6 PUSH1 0x20 MSTORE DUP2 DUP4 DUP8 KECCAK256 SSTORE DUP3 MLOAD SWAP2 DUP3 MSTORE PUSH1 0x20 DUP3 ADD MSTORE LOG2 DUP1 RETURN JUMPDEST PUSH1 0x40 MLOAD PUSH3 0x461BCD PUSH1 0xE5 SHL DUP2 MSTORE PUSH1 0x20 PUSH1 0x4 DUP3 ADD MSTORE PUSH1 0x1B PUSH1 0x24 DUP3 ADD MSTORE PUSH32 0x4E6F2067616D652077616974696E6720666F7220656E74726F70790000000000 PUSH1 0x44 DUP3 ADD MSTORE PUSH1 0x64 SWAP1 REVERT JUMPDEST DUP1 DUP7 MSTORE PUSH1 0x7 PUSH1 0x20 MSTORE PUSH1 0xFF PUSH1 0x40 DUP8 KECCAK256 SLOAD AND DUP1 PUSH2 0x1D5D JUMPI JUMPDEST PUSH2 0x1D52 JUMPI PUSH1 0x1 ADD PUSH2 0x1C9B JUMP JUMPDEST SWAP4 POP CODESIZE SWAP1 POP DUP1 PUSH2 0x1CA3 JUMP JUMPDEST POP DUP1 DUP7 MSTORE PUSH1 0x6 PUSH1 0x20 MSTORE PUSH1 0x40 DUP7 KECCAK256 SLOAD ISZERO PUSH2 0x1D46 JUMP JUMPDEST PUSH1 0x40 MLOAD PUSH3 0x461BCD PUSH1 0xE5 SHL DUP2 MSTORE PUSH1 0x20 PUSH1 0x4 DUP3 ADD MSTORE PUSH1 0x1B PUSH1 0x24 DUP3 ADD MSTORE PUSH32 0x4F6E6C792048797065726C616E6543656C6F2063616E2063616C6C0000000000 PUSH1 0x44 DUP3 ADD MSTORE PUSH1 0x64 SWAP1 REVERT JUMPDEST POP CALLVALUE PUSH2 0x2BD JUMPI PUSH1 0x20 CALLDATASIZE PUSH1 0x3 NOT ADD SLT PUSH2 0x2BD JUMPI PUSH1 0x4 CALLDATALOAD DUP1 ISZERO ISZERO DUP1 PUSH2 0x1E84 JUMPI JUMPDEST PUSH2 0x1DDD SWAP1 PUSH2 0x24D5 JUMP JUMPDEST DUP2 MSTORE PUSH1 0x1 PUSH1 0x20 MSTORE PUSH1 0x6 PUSH1 0x40 DUP3 KECCAK256 ADD PUSH1 0x40 MLOAD SWAP1 DUP2 PUSH1 0x20 DUP3 SLOAD SWAP2 DUP3 DUP2 MSTORE ADD SWAP1 DUP2 SWAP3 DUP6 MSTORE PUSH1 0x20 DUP6 KECCAK256 SWAP1 DUP6 JUMPDEST DUP2 DUP2 LT PUSH2 0x1E65 JUMPI POP POP POP DUP3 PUSH2 0x1E1B SWAP2 SUB DUP4 PUSH2 0x229A JUMP JUMPDEST PUSH1 0x40 MLOAD SWAP3 DUP4 SWAP3 PUSH1 0x20 DUP5 ADD SWAP1 PUSH1 0x20 DUP6 MSTORE MLOAD DUP1 SWAP2 MSTORE PUSH1 0x40 DUP5 ADD SWAP3 SWAP2 JUMPDEST DUP2 DUP2 LT PUSH2 0x1E43 JUMPI POP POP POP SUB SWAP1 RETURN JUMPDEST DUP3 MLOAD PUSH1 0x1 PUSH1 0x1 PUSH1 0xA0 SHL SUB AND DUP5 MSTORE DUP6 SWAP5 POP PUSH1 0x20 SWAP4 DUP5 ADD SWAP4 SWAP1 SWAP3 ADD SWAP2 PUSH1 0x1 ADD PUSH2 0x1E35 JUMP JUMPDEST DUP3 SLOAD PUSH1 0x1 PUSH1 0x1 PUSH1 0xA0 SHL SUB AND DUP5 MSTORE PUSH1 0x20 SWAP1 SWAP4 ADD SWAP3 PUSH1 0x1 SWAP3 DUP4 ADD SWAP3 ADD PUSH2 0x1E05 JUMP JUMPDEST POP DUP2 SLOAD DUP2 LT PUSH2 0x1DD4 JUMP JUMPDEST POP CALLVALUE PUSH2 0x2BD JUMPI PUSH1 0x20 CALLDATASIZE PUSH1 0x3 NOT ADD SLT PUSH2 0x2BD JUMPI PUSH2 0x1EA8 PUSH2 0x2436 JUMP JUMPDEST POP PUSH1 0x40 MLOAD PUSH4 0x96834AD3 PUSH1 0xE0 SHL DUP2 MSTORE PUSH1 0x4 DUP1 CALLDATALOAD SWAP1 DUP3 ADD MSTORE PUSH1 0x80 DUP2 PUSH1 0x24 DUP2 PUSH32 0x0 PUSH1 0x1 PUSH1 0x1 PUSH1 0xA0 SHL SUB AND GAS STATICCALL SWAP1 DUP2 ISZERO PUSH2 0x12F4 JUMPI PUSH1 0x80 SWAP3 SWAP2 PUSH2 0x1F3B JUMPI JUMPDEST POP PUSH2 0x1A58 PUSH1 0x40 MLOAD DUP1 SWAP3 PUSH1 0x60 DUP1 SWAP2 DUP1 MLOAD PUSH1 0x7 SIGNEXTEND DUP5 MSTORE PUSH1 0x1 PUSH1 0x1 PUSH1 0x40 SHL SUB PUSH1 0x20 DUP3 ADD MLOAD AND PUSH1 0x20 DUP6 ADD MSTORE PUSH1 0x40 DUP2 ADD MLOAD PUSH1 0x3 SIGNEXTEND PUSH1 0x40 DUP6 ADD MSTORE ADD MLOAD SWAP2 ADD MSTORE JUMP JUMPDEST PUSH2 0x1F5B SWAP2 POP DUP3 RETURNDATASIZE DUP5 GT PUSH2 0x1F61 JUMPI JUMPDEST PUSH2 0x1F53 DUP2 DUP4 PUSH2 0x229A JUMP JUMPDEST DUP2 ADD SWAP1 PUSH2 0x246F JUMP JUMPDEST CODESIZE PUSH2 0x1F00 JUMP JUMPDEST POP RETURNDATASIZE PUSH2 0x1F49 JUMP JUMPDEST POP CALLVALUE PUSH2 0x2BD JUMPI DUP1 PUSH1 0x3 NOT CALLDATASIZE ADD SLT PUSH2 0x2BD JUMPI PUSH1 0x20 PUSH1 0x40 MLOAD PUSH1 0x14 DUP2 MSTORE RETURN JUMPDEST POP CALLVALUE PUSH2 0x2BD JUMPI PUSH1 0x20 CALLDATASIZE PUSH1 0x3 NOT ADD SLT PUSH2 0x2BD JUMPI PUSH1 0x40 PUSH1 0xE0 SWAP2 PUSH1 0x4 CALLDATALOAD DUP2 MSTORE PUSH1 0x1 PUSH1 0x20 MSTORE KECCAK256 DUP1 SLOAD SWAP1 PUSH1 0xFF PUSH1 0x1 DUP3 ADD SLOAD AND SWAP1 PUSH1 0x2 DUP2 ADD SLOAD PUSH1 0x3 DUP3 ADD SLOAD PUSH1 0x4 DUP4 ADD SLOAD SWAP2 PUSH2 0x1FE3 PUSH1 0xFF PUSH1 0xA PUSH1 0x5 DUP8 ADD SLOAD SWAP7 ADD SLOAD AND SWAP6 PUSH1 0x40 MLOAD SWAP8 DUP9 MSTORE PUSH1 0x20 DUP9 ADD SWAP1 PUSH2 0x2388 JUMP JUMPDEST PUSH1 0x40 DUP7 ADD MSTORE PUSH1 0x60 DUP6 ADD MSTORE PUSH1 0x80 DUP5 ADD MSTORE PUSH1 0xA0 DUP4 ADD MSTORE ISZERO ISZERO PUSH1 0xC0 DUP3 ADD MSTORE RETURN JUMPDEST POP CALLVALUE PUSH2 0x2BD JUMPI PUSH1 0x40 CALLDATASIZE PUSH1 0x3 NOT ADD SLT PUSH2 0x2BD JUMPI PUSH1 0x40 PUSH1 0xA0 SWAP2 PUSH1 0x4 CALLDATALOAD PUSH2 0x2022 PUSH2 0x2334 JUMP JUMPDEST SWAP1 PUSH1 0x60 DUP5 MLOAD PUSH2 0x2031 DUP3 DUP3 PUSH2 0x229A JUMP JUMPDEST CALLDATASIZE SWAP1 CALLDATACOPY DUP1 ISZERO ISZERO DUP1 PUSH2 0x2097 JUMPI JUMPDEST PUSH2 0x2046 SWAP1 PUSH2 0x24D5 JUMP JUMPDEST DUP3 MSTORE PUSH1 0x1 PUSH1 0x20 MSTORE PUSH1 0x8 DUP4 DUP4 KECCAK256 ADD SWAP1 PUSH1 0x1 DUP1 DUP7 SHL SUB AND DUP3 MSTORE PUSH1 0x20 MSTORE KECCAK256 PUSH1 0x4 DUP2 ADD SLOAD SWAP1 PUSH2 0x207B PUSH1 0x1 PUSH1 0xFF PUSH1 0x5 DUP5 ADD SLOAD AND SWAP3 ADD PUSH2 0x2513 JUMP JUMPDEST SWAP2 PUSH2 0x2089 PUSH1 0x40 MLOAD DUP1 SWAP5 PUSH2 0x2360 JUMP JUMPDEST PUSH1 0x60 DUP4 ADD MSTORE ISZERO ISZERO PUSH1 0x80 DUP3 ADD MSTORE RETURN JUMPDEST POP DUP3 SLOAD DUP2 LT PUSH2 0x203D JUMP JUMPDEST POP CALLVALUE PUSH2 0x2BD JUMPI PUSH1 0x20 CALLDATASIZE PUSH1 0x3 NOT ADD SLT PUSH2 0x2BD JUMPI PUSH1 0x4 CALLDATALOAD PUSH1 0x1 PUSH1 0x1 PUSH1 0x40 SHL SUB DUP2 GT PUSH2 0x767 JUMPI PUSH2 0x20D2 SWAP1 CALLDATASIZE SWAP1 PUSH1 0x4 ADD PUSH2 0x22D2 JUMP JUMPDEST DUP1 MLOAD PUSH2 0x20DD DUP2 PUSH2 0x22BB JUMP JUMPDEST SWAP1 PUSH2 0x20EB PUSH1 0x40 MLOAD SWAP3 DUP4 PUSH2 0x229A JUMP JUMPDEST DUP1 DUP3 MSTORE PUSH2 0x20FA PUSH1 0x1F NOT SWAP2 PUSH2 0x22BB JUMP JUMPDEST ADD DUP4 JUMPDEST DUP2 DUP2 LT PUSH2 0x2237 JUMPI POP POP PUSH32 0x0 PUSH1 0x1 PUSH1 0x1 PUSH1 0xA0 SHL SUB AND DUP4 JUMPDEST DUP4 MLOAD DUP2 LT ISZERO PUSH2 0x21B9 JUMPI PUSH2 0x2145 DUP2 DUP6 PUSH2 0x245B JUMP JUMPDEST MLOAD SWAP1 PUSH1 0x40 MLOAD SWAP2 PUSH4 0x96834AD3 PUSH1 0xE0 SHL DUP4 MSTORE PUSH1 0x4 DUP4 ADD MSTORE PUSH1 0x80 DUP3 PUSH1 0x24 DUP2 DUP7 GAS STATICCALL DUP1 ISZERO PUSH2 0x21AE JUMPI PUSH1 0x1 SWAP3 DUP8 SWAP2 PUSH2 0x2190 JUMPI JUMPDEST POP PUSH2 0x217E DUP3 DUP7 PUSH2 0x245B JUMP JUMPDEST MSTORE PUSH2 0x2189 DUP2 DUP6 PUSH2 0x245B JUMP JUMPDEST POP ADD PUSH2 0x2132 JUMP JUMPDEST PUSH2 0x21A8 SWAP2 POP PUSH1 0x80 RETURNDATASIZE DUP2 GT PUSH2 0x1F61 JUMPI PUSH2 0x1F53 DUP2 DUP4 PUSH2 0x229A JUMP JUMPDEST CODESIZE PUSH2 0x2173 JUMP JUMPDEST PUSH1 0x40 MLOAD RETURNDATASIZE DUP9 DUP3 RETURNDATACOPY RETURNDATASIZE SWAP1 REVERT JUMPDEST DUP3 DUP6 PUSH1 0x40 MLOAD SWAP2 DUP3 SWAP2 PUSH1 0x20 DUP4 ADD PUSH1 0x20 DUP5 MSTORE DUP3 MLOAD DUP1 SWAP2 MSTORE PUSH1 0x20 PUSH1 0x40 DUP6 ADD SWAP4 ADD SWAP2 JUMPDEST DUP2 DUP2 LT PUSH2 0x21E6 JUMPI POP POP POP SUB SWAP1 RETURN JUMPDEST SWAP2 SWAP4 POP SWAP2 PUSH1 0x20 PUSH1 0x80 DUP3 PUSH2 0x2229 PUSH1 0x1 SWAP5 DUP9 MLOAD PUSH1 0x60 DUP1 SWAP2 DUP1 MLOAD PUSH1 0x7 SIGNEXTEND DUP5 MSTORE PUSH1 0x1 PUSH1 0x1 PUSH1 0x40 SHL SUB PUSH1 0x20 DUP3 ADD MLOAD AND PUSH1 0x20 DUP6 ADD MSTORE PUSH1 0x40 DUP2 ADD MLOAD PUSH1 0x3 SIGNEXTEND PUSH1 0x40 DUP6 ADD MSTORE ADD MLOAD SWAP2 ADD MSTORE JUMP JUMPDEST ADD SWAP5 ADD SWAP2 ADD SWAP2 DUP5 SWAP4 SWAP3 PUSH2 0x21D8 JUMP JUMPDEST PUSH1 0x20 SWAP1 PUSH2 0x2242 PUSH2 0x2436 JUMP JUMPDEST DUP3 DUP3 DUP7 ADD ADD MSTORE ADD PUSH2 0x20FD JUMP JUMPDEST PUSH1 0x60 DUP2 ADD SWAP1 DUP2 LT PUSH1 0x1 PUSH1 0x1 PUSH1 0x40 SHL SUB DUP3 GT OR PUSH2 0x2269 JUMPI PUSH1 0x40 MSTORE JUMP JUMPDEST PUSH4 0x4E487B71 PUSH1 0xE0 SHL PUSH1 0x0 MSTORE PUSH1 0x41 PUSH1 0x4 MSTORE PUSH1 0x24 PUSH1 0x0 REVERT JUMPDEST PUSH1 0x80 DUP2 ADD SWAP1 DUP2 LT PUSH1 0x1 PUSH1 0x1 PUSH1 0x40 SHL SUB DUP3 GT OR PUSH2 0x2269 JUMPI PUSH1 0x40 MSTORE JUMP JUMPDEST SWAP1 PUSH1 0x1F DUP1 NOT SWAP2 ADD AND DUP2 ADD SWAP1 DUP2 LT PUSH1 0x1 PUSH1 0x1 PUSH1 0x40 SHL SUB DUP3 GT OR PUSH2 0x2269 JUMPI PUSH1 0x40 MSTORE JUMP JUMPDEST PUSH1 0x1 PUSH1 0x1 PUSH1 0x40 SHL SUB DUP2 GT PUSH2 0x2269 JUMPI PUSH1 0x5 SHL PUSH1 0x20 ADD SWAP1 JUMP JUMPDEST SWAP1 DUP1 PUSH1 0x1F DUP4 ADD SLT ISZERO PUSH2 0x232F JUMPI DUP2 CALLDATALOAD PUSH2 0x22E9 DUP2 PUSH2 0x22BB JUMP JUMPDEST SWAP3 PUSH2 0x22F7 PUSH1 0x40 MLOAD SWAP5 DUP6 PUSH2 0x229A JUMP JUMPDEST DUP2 DUP5 MSTORE PUSH1 0x20 DUP1 DUP6 ADD SWAP3 PUSH1 0x5 SHL DUP3 ADD ADD SWAP3 DUP4 GT PUSH2 0x232F JUMPI PUSH1 0x20 ADD SWAP1 JUMPDEST DUP3 DUP3 LT PUSH2 0x231F JUMPI POP POP POP SWAP1 JUMP JUMPDEST DUP2 CALLDATALOAD DUP2 MSTORE PUSH1 0x20 SWAP2 DUP3 ADD SWAP2 ADD PUSH2 0x2312 JUMP JUMPDEST PUSH1 0x0 DUP1 REVERT JUMPDEST PUSH1 0x24 CALLDATALOAD SWAP1 PUSH1 0x1 PUSH1 0x1 PUSH1 0xA0 SHL SUB DUP3 AND DUP3 SUB PUSH2 0x232F JUMPI JUMP JUMPDEST PUSH1 0x4 CALLDATALOAD SWAP1 PUSH1 0x1 PUSH1 0x1 PUSH1 0xA0 SHL SUB DUP3 AND DUP3 SUB PUSH2 0x232F JUMPI JUMP JUMPDEST SWAP1 PUSH1 0x0 SWAP1 JUMPDEST PUSH1 0x3 DUP3 LT PUSH2 0x2372 JUMPI POP POP POP JUMP JUMPDEST PUSH1 0x20 DUP1 PUSH1 0x1 SWAP3 DUP6 MLOAD DUP2 MSTORE ADD SWAP4 ADD SWAP2 ADD SWAP1 SWAP2 PUSH2 0x2365 JUMP JUMPDEST SWAP1 PUSH1 0x5 DUP3 LT ISZERO PUSH2 0x2395 JUMPI MSTORE JUMP JUMPDEST PUSH4 0x4E487B71 PUSH1 0xE0 SHL PUSH1 0x0 MSTORE PUSH1 0x21 PUSH1 0x4 MSTORE PUSH1 0x24 PUSH1 0x0 REVERT JUMPDEST SWAP2 SWAP1 DUP3 MLOAD SWAP3 DUP4 DUP3 MSTORE PUSH1 0x0 JUMPDEST DUP5 DUP2 LT PUSH2 0x23D7 JUMPI POP POP DUP3 PUSH1 0x0 PUSH1 0x20 DUP1 SWAP5 SWAP6 DUP5 ADD ADD MSTORE PUSH1 0x1F DUP1 NOT SWAP2 ADD AND ADD ADD SWAP1 JUMP JUMPDEST DUP1 PUSH1 0x20 DUP1 SWAP3 DUP5 ADD ADD MLOAD DUP3 DUP3 DUP7 ADD ADD MSTORE ADD PUSH2 0x23B6 JUMP JUMPDEST CALLVALUE PUSH2 0x232F JUMPI PUSH1 0x0 CALLDATASIZE PUSH1 0x3 NOT ADD SLT PUSH2 0x232F JUMPI PUSH1 0x20 PUSH1 0x40 MLOAD PUSH1 0x3C DUP2 MSTORE RETURN JUMPDEST DUP1 SLOAD DUP3 LT ISZERO PUSH2 0x2420 JUMPI PUSH1 0x0 MSTORE PUSH1 0x20 PUSH1 0x0 KECCAK256 ADD SWAP1 PUSH1 0x0 SWAP1 JUMP JUMPDEST PUSH4 0x4E487B71 PUSH1 0xE0 SHL PUSH1 0x0 MSTORE PUSH1 0x32 PUSH1 0x4 MSTORE PUSH1 0x24 PUSH1 0x0 REVERT JUMPDEST PUSH1 0x40 MLOAD SWAP1 PUSH2 0x2443 DUP3 PUSH2 0x227F JUMP JUMPDEST PUSH1 0x0 PUSH1 0x60 DUP4 DUP3 DUP2 MSTORE DUP3 PUSH1 0x20 DUP3 ADD MSTORE DUP3 PUSH1 0x40 DUP3 ADD MSTORE ADD MSTORE JUMP JUMPDEST DUP1 MLOAD DUP3 LT ISZERO PUSH2 0x2420 JUMPI PUSH1 0x20 SWAP2 PUSH1 0x5 SHL ADD ADD SWAP1 JUMP JUMPDEST SWAP1 DUP2 PUSH1 0x80 SWAP2 SUB SLT PUSH2 0x232F JUMPI PUSH1 0x40 MLOAD SWAP1 PUSH1 0x0 PUSH2 0x2489 DUP4 PUSH2 0x227F JUMP JUMPDEST DUP2 MLOAD DUP1 PUSH1 0x7 SIGNEXTEND DUP2 SUB PUSH2 0x767 JUMPI DUP4 MSTORE PUSH1 0x20 DUP3 ADD MLOAD PUSH1 0x1 PUSH1 0x1 PUSH1 0x40 SHL SUB DUP2 AND DUP2 SUB PUSH2 0x767 JUMPI PUSH1 0x20 DUP5 ADD MSTORE PUSH1 0x40 DUP3 ADD MLOAD SWAP1 DUP2 PUSH1 0x3 SIGNEXTEND DUP3 SUB PUSH2 0x2BD JUMPI POP SWAP1 PUSH1 0x60 SWAP2 PUSH1 0x40 DUP5 ADD MSTORE ADD MLOAD PUSH1 0x60 DUP3 ADD MSTORE SWAP1 JUMP JUMPDEST ISZERO PUSH2 0x24DC JUMPI JUMP JUMPDEST PUSH1 0x40 MLOAD PUSH3 0x461BCD PUSH1 0xE5 SHL DUP2 MSTORE PUSH1 0x20 PUSH1 0x4 DUP3 ADD MSTORE PUSH1 0xF PUSH1 0x24 DUP3 ADD MSTORE PUSH15 0x125B9D985B1A590819D85B59481251 PUSH1 0x8A SHL PUSH1 0x44 DUP3 ADD MSTORE PUSH1 0x64 SWAP1 REVERT JUMPDEST PUSH1 0x40 MLOAD SWAP2 SWAP1 PUSH1 0x0 DUP4 JUMPDEST PUSH1 0x3 DUP3 LT PUSH2 0x2534 JUMPI POP POP POP PUSH2 0x2532 PUSH1 0x60 DUP4 PUSH2 0x229A JUMP JUMPDEST JUMP JUMPDEST PUSH1 0x1 PUSH1 0x20 DUP2 SWAP3 DUP6 SLOAD DUP2 MSTORE ADD SWAP4 ADD SWAP2 ADD SWAP1 SWAP2 PUSH2 0x251C JUMP JUMPDEST PUSH1 0x0 MSTORE PUSH1 0x1 PUSH1 0x20 MSTORE PUSH1 0x40 PUSH1 0x0 KECCAK256 PUSH1 0xFF PUSH1 0x1 DUP3 ADD SLOAD AND PUSH1 0x5 DUP2 LT ISZERO PUSH2 0x2395 JUMPI PUSH2 0x25CC JUMPI PUSH1 0x3 ADD SLOAD TIMESTAMP LT PUSH2 0x258E JUMPI PUSH1 0x1 SWAP1 PUSH1 0x40 MLOAD PUSH2 0x2587 PUSH1 0x20 DUP3 PUSH2 0x229A JUMP JUMPDEST PUSH1 0x0 DUP2 MSTORE SWAP1 JUMP JUMPDEST PUSH1 0x0 SWAP1 PUSH1 0x40 MLOAD PUSH2 0x259F PUSH1 0x40 DUP3 PUSH2 0x229A JUMP JUMPDEST PUSH1 0x1A DUP2 MSTORE PUSH32 0x4C6F62627920646561646C696E65206E6F742072656163686564000000000000 PUSH1 0x20 DUP3 ADD MSTORE SWAP1 JUMP JUMPDEST POP PUSH1 0x0 SWAP1 PUSH1 0x40 MLOAD PUSH2 0x25DE PUSH1 0x40 DUP3 PUSH2 0x229A JUMP JUMPDEST PUSH1 0x1A DUP2 MSTORE PUSH32 0x47616D65206973206E6F7420696E204C4F424259207374617465000000000000 PUSH1 0x20 DUP3 ADD MSTORE SWAP1 JUMP JUMPDEST PUSH1 0x0 MSTORE PUSH1 0x1 PUSH1 0x20 MSTORE PUSH1 0x40 PUSH1 0x0 KECCAK256 PUSH1 0xFF PUSH1 0x1 DUP3 ADD SLOAD AND PUSH1 0x5 DUP2 LT ISZERO PUSH2 0x2395 JUMPI PUSH1 0x4 EQ PUSH2 0x2669 JUMPI PUSH1 0x3 DUP2 ADD SLOAD TIMESTAMP LT ISZERO PUSH2 0x2642 JUMPI POP PUSH1 0x0 SWAP1 JUMP JUMPDEST PUSH1 0x4 DUP2 ADD SLOAD TIMESTAMP LT ISZERO PUSH2 0x2654 JUMPI POP PUSH1 0x2 SWAP1 JUMP JUMPDEST PUSH1 0x5 ADD SLOAD TIMESTAMP LT ISZERO PUSH2 0x2664 JUMPI PUSH1 0x3 SWAP1 JUMP JUMPDEST PUSH1 0x3 SWAP1 JUMP JUMPDEST POP PUSH1 0x4 SWAP1 JUMP JUMPDEST ISZERO PUSH2 0x2676 JUMPI JUMP JUMPDEST PUSH1 0x40 MLOAD PUSH3 0x461BCD PUSH1 0xE5 SHL DUP2 MSTORE PUSH1 0x20 PUSH1 0x4 DUP3 ADD MSTORE PUSH1 0x19 PUSH1 0x24 DUP3 ADD MSTORE PUSH32 0x416C726561647920696E20616E206163746976652067616D6500000000000000 PUSH1 0x44 DUP3 ADD MSTORE PUSH1 0x64 SWAP1 REVERT JUMPDEST PUSH1 0x0 NOT DUP2 EQ PUSH2 0x26CA JUMPI PUSH1 0x1 ADD SWAP1 JUMP JUMPDEST PUSH4 0x4E487B71 PUSH1 0xE0 SHL PUSH1 0x0 MSTORE PUSH1 0x11 PUSH1 0x4 MSTORE PUSH1 0x24 PUSH1 0x0 REVERT JUMPDEST SWAP2 SWAP1 DUP3 ADD DUP1 SWAP3 GT PUSH2 0x26CA JUMPI JUMP JUMPDEST DUP1 SLOAD PUSH1 0x1 PUSH1 0x40 SHL DUP2 LT ISZERO PUSH2 0x2269 JUMPI PUSH2 0x270A SWAP2 PUSH1 0x1 DUP3 ADD DUP2 SSTORE PUSH2 0x2408 JUMP JUMPDEST DUP2 SLOAD PUSH1 0x1 PUSH1 0x1 PUSH1 0xA0 SHL SUB SWAP4 DUP5 AND PUSH1 0x3 SWAP3 SWAP1 SWAP3 SHL SWAP2 DUP3 SHL SWAP4 SWAP1 SWAP2 SHL NOT AND SWAP2 SWAP1 SWAP2 OR SWAP1 SSTORE JUMP JUMPDEST SWAP1 PUSH1 0x20 DUP3 SLOAD SWAP2 DUP3 DUP2 MSTORE ADD SWAP2 PUSH1 0x0 MSTORE PUSH1 0x20 PUSH1 0x0 KECCAK256 SWAP1 PUSH1 0x0 JUMPDEST DUP2 DUP2 LT PUSH2 0x2752 JUMPI POP POP POP SWAP1 JUMP JUMPDEST DUP3 SLOAD DUP5 MSTORE PUSH1 0x20 SWAP1 SWAP4 ADD SWAP3 PUSH1 0x1 SWAP3 DUP4 ADD SWAP3 ADD PUSH2 0x2745 JUMP JUMPDEST ISZERO PUSH2 0x276F JUMPI JUMP JUMPDEST PUSH1 0x40 MLOAD PUSH3 0x461BCD PUSH1 0xE5 SHL DUP2 MSTORE PUSH1 0x20 PUSH1 0x4 DUP3 ADD MSTORE PUSH1 0x13 PUSH1 0x24 DUP3 ADD MSTORE PUSH19 0x496E76616C69642067616D6520737461747573 PUSH1 0x68 SHL PUSH1 0x44 DUP3 ADD MSTORE PUSH1 0x64 SWAP1 REVERT JUMPDEST PUSH1 0x1 PUSH1 0x1 PUSH1 0xA0 SHL SUB AND PUSH1 0x0 SWAP1 DUP2 MSTORE PUSH1 0x4 PUSH1 0x20 MSTORE PUSH1 0x40 SWAP1 KECCAK256 SLOAD DUP1 PUSH2 0x27CE JUMPI JUMPDEST POP PUSH1 0x0 SWAP1 JUMP JUMPDEST DUP1 PUSH1 0x0 MSTORE PUSH1 0x1 PUSH1 0x20 MSTORE PUSH1 0xFF PUSH1 0x1 PUSH1 0x40 PUSH1 0x0 KECCAK256 ADD SLOAD AND PUSH1 0x5 DUP2 LT ISZERO PUSH2 0x2395 JUMPI PUSH1 0x4 EQ PUSH2 0x27C8 JUMPI SWAP1 JUMP JUMPDEST DUP1 ISZERO DUP1 ISZERO PUSH2 0x298C JUMPI JUMPDEST PUSH2 0x2953 JUMPI PUSH1 0x0 MSTORE PUSH1 0x1 PUSH1 0x20 MSTORE PUSH1 0x40 PUSH1 0x0 KECCAK256 PUSH1 0x5 PUSH1 0xFF PUSH1 0x1 DUP4 ADD SLOAD AND SWAP2 ADD SLOAD DUP1 TIMESTAMP SWAP1 PUSH1 0x5 DUP5 LT ISZERO PUSH2 0x2395 JUMPI PUSH1 0x3 DUP5 SUB PUSH2 0x290F JUMPI DUP1 DUP3 LT PUSH2 0x28CD JUMPI ISZERO PUSH2 0x2858 JUMPI PUSH1 0x1 SWAP4 PUSH1 0x40 MLOAD PUSH2 0x284E PUSH1 0x20 DUP3 PUSH2 0x229A JUMP JUMPDEST PUSH1 0x0 DUP2 MSTORE SWAP4 SWAP3 SWAP2 SWAP1 JUMP JUMPDEST PUSH1 0x0 SWAP4 PUSH1 0x40 MLOAD PUSH2 0x2869 PUSH1 0x80 DUP3 PUSH2 0x229A JUMP JUMPDEST PUSH1 0x45 DUP2 MSTORE PUSH32 0x5265736F6C7574696F6E20646561646C696E65206E6F7420736574202867616D PUSH1 0x20 DUP3 ADD MSTORE PUSH32 0x65206D6179206E6F742068617665207472616E736974696F6E65642070726F70 PUSH1 0x40 DUP3 ADD MSTORE PUSH5 0x65726C7929 PUSH1 0xD8 SHL PUSH1 0x60 DUP3 ADD MSTORE SWAP4 SWAP3 SWAP2 SWAP1 JUMP JUMPDEST POP PUSH1 0x0 SWAP4 PUSH1 0x40 MLOAD PUSH2 0x28DF PUSH1 0x40 DUP3 PUSH2 0x229A JUMP JUMPDEST PUSH1 0x1F DUP2 MSTORE PUSH32 0x5265736F6C7574696F6E20646561646C696E65206E6F74207265616368656400 PUSH1 0x20 DUP3 ADD MSTORE SWAP4 SWAP3 SWAP2 SWAP1 JUMP JUMPDEST POP POP PUSH1 0x0 SWAP3 PUSH1 0x40 MLOAD PUSH2 0x2922 PUSH1 0x40 DUP3 PUSH2 0x229A JUMP JUMPDEST PUSH1 0x20 DUP2 MSTORE PUSH32 0x47616D65206973206E6F7420696E205245534F4C5554494F4E20737461747573 PUSH1 0x20 DUP3 ADD MSTORE SWAP3 SWAP2 SWAP1 TIMESTAMP SWAP1 JUMP JUMPDEST POP PUSH1 0x0 SWAP1 PUSH1 0x40 MLOAD PUSH2 0x2965 PUSH1 0x40 DUP3 PUSH2 0x229A JUMP JUMPDEST PUSH1 0xF DUP2 MSTORE PUSH15 0x125B9D985B1A590819D85B59481251 PUSH1 0x8A SHL PUSH1 0x20 DUP3 ADD MSTORE SWAP1 PUSH1 0x0 SWAP1 PUSH1 0x0 SWAP1 TIMESTAMP SWAP1 JUMP JUMPDEST POP PUSH1 0x0 SLOAD DUP2 LT ISZERO PUSH2 0x27FF JUMP JUMPDEST ISZERO PUSH2 0x299F JUMPI JUMP JUMPDEST PUSH1 0x40 MLOAD PUSH3 0x461BCD PUSH1 0xE5 SHL DUP2 MSTORE PUSH1 0x20 PUSH1 0x4 DUP3 ADD MSTORE PUSH1 0x19 PUSH1 0x24 DUP3 ADD MSTORE PUSH32 0x4C6F626279207068617365206E6F7420656E6465642079657400000000000000 PUSH1 0x44 DUP3 ADD MSTORE PUSH1 0x64 SWAP1 REVERT JUMPDEST ISZERO PUSH2 0x29EB JUMPI JUMP JUMPDEST PUSH1 0x40 MLOAD PUSH3 0x461BCD PUSH1 0xE5 SHL DUP2 MSTORE PUSH1 0x20 PUSH1 0x4 DUP3 ADD MSTORE PUSH1 0x17 PUSH1 0x24 DUP3 ADD MSTORE PUSH32 0x436172647320616C72656164792067656E657261746564000000000000000000 PUSH1 0x44 DUP3 ADD MSTORE PUSH1 0x64 SWAP1 REVERT JUMPDEST DUP1 SLOAD PUSH1 0x1 PUSH1 0x40 SHL DUP2 LT ISZERO PUSH2 0x2269 JUMPI PUSH2 0x2A4D SWAP2 PUSH1 0x1 DUP3 ADD DUP2 SSTORE PUSH2 0x2408 JUMP JUMPDEST DUP2 SWAP3 SWAP2 SLOAD SWAP1 PUSH1 0x3 SHL SWAP2 DUP3 SHL SWAP2 PUSH1 0x0 NOT SWAP1 SHL NOT AND OR SWAP1 SSTORE JUMP JUMPDEST DUP1 PUSH1 0x0 MSTORE PUSH1 0x1 PUSH1 0x20 MSTORE PUSH1 0x40 PUSH1 0x0 KECCAK256 SWAP1 PUSH1 0x7 PUSH1 0x0 SWAP3 ADD SWAP1 CALLER PUSH1 0x60 SHL SWAP3 JUMPDEST PUSH1 0xA DUP2 LT PUSH2 0x2A8F JUMPI POP POP POP POP JUMP JUMPDEST PUSH1 0x1 SWAP1 PUSH2 0x2AD4 PUSH2 0x2710 PUSH1 0x40 MLOAD PUSH1 0x20 DUP2 ADD SWAP1 TIMESTAMP DUP3 MSTORE PREVRANDAO PUSH1 0x40 DUP3 ADD MSTORE DUP7 PUSH1 0x60 DUP3 ADD MSTORE DUP5 PUSH1 0x80 DUP3 ADD MSTORE DUP9 PUSH1 0xA0 DUP3 ADD MSTORE PUSH1 0x94 DUP2 MSTORE PUSH2 0x2ACA PUSH1 0xB4 DUP3 PUSH2 0x229A JUMP JUMPDEST MLOAD SWAP1 KECCAK256 MOD DUP6 PUSH2 0x2A30 JUMP JUMPDEST ADD PUSH2 0x2A81 JUMP INVALID LOG2 PUSH5 0x6970667358 0x22 SLT KECCAK256 PUSH24 0xEF5944CB9181B2838E719318E1EB5E97373C522368825D0 0xA6 KECCAK256 TIMESTAMP BLOBBASEFEE 0xD7 SIGNEXTEND PUSH17 0x64736F6C634300081C0033000000000000 "
        },
        "methodIdentifiers": {
          "CHOICE_DURATION()": "e5c43ef1",
          "LOBBY_DURATION()": "5c5c8382",
          "MIN_PLAYERS()": "85f07bbe",
          "POINTS_MARKET_CAP_VOLUME()": "b0fd159f",
          "POINTS_PERCENTAGE_CHANGE()": "1226897a",
          "POINTS_PRICE_ABOVE_BELOW()": "bee4c6d3",
          "POINTS_PRICE_UP_DOWN()": "e7fad8af",
          "RESOLUTION_DURATION()": "7ca90e59",
          "assetPriceIds(uint256)": "3c8aec3f",
          "canEndGame(uint256)": "cb09d27f",
          "canStartGame(uint256)": "392b749c",
          "commitChoices(uint256,uint256[3])": "f79c913e",
          "createGame()": "7255d729",
          "endGame(uint256)": "d0399bb8",
          "entropyRequestCount()": "6bdca457",
          "entropyRequested(uint256)": "9c18c05d",
          "gameEntropy(uint256)": "bc6c97da",
          "games(uint256)": "117a5b90",
          "getCurrentPhase(uint256)": "572e85ec",
          "getEntropyRequestStatus(uint256)": "f84f0792",
          "getFeedPrice(bytes32)": "14527c58",
          "getFeedPrices(bytes32[])": "02653e9a",
          "getGameCards(uint256)": "860cbc77",
          "getGamePlayers(uint256)": "15a40f49",
          "getGameState(uint256)": "ffde0c74",
          "getGameStateWithPlayer(uint256,address)": "4b9a2a2c",
          "getNextGameId()": "ede8af01",
          "getPlayerActiveGame(address)": "ad7465d4",
          "getPlayerChoices(uint256,address)": "10c28d31",
          "getPlayerScore(address)": "e085c539",
          "getPredictionResult(uint256,uint256)": "7f57504f",
          "hasEntropy(uint256)": "de45e20a",
          "hyperlaneCelo()": "cf102413",
          "isContractActive()": "8f5949f9",
          "joinGame(uint256)": "efaa55a0",
          "leaderboard(uint256)": "bf368399",
          "playerActiveGame(address)": "863df0a1",
          "playerScores(address)": "62550ae1",
          "pyth()": "f98d06f0",
          "receiveEntropy(bytes32,uint64)": "19848fca",
          "setAssetPriceId(uint256,bytes32)": "53644f31",
          "startGame(uint256,bool)": "d7793c19",
          "transitionToResolution(uint256)": "9a18e981",
          "updatePricesAndResolve(uint256,bytes[],bytes32[],uint256)": "a457d3d6"
        }
      }
    }
  }
}