{
  "contracts/HyperlaneCelo.sol": {
    "HyperlaneCelo": {
      "abi": [
        {
          "inputs": [
            {
              "internalType": "uint32",
              "name": "_sourceDomain",
              "type": "uint32"
            },
            {
              "internalType": "address",
              "name": "_sourceContract",
              "type": "address"
            }
          ],
          "stateMutability": "nonpayable",
          "type": "constructor"
        },
        {
          "inputs": [
            {
              "internalType": "address",
              "name": "owner",
              "type": "address"
            }
          ],
          "name": "OwnableInvalidOwner",
          "type": "error"
        },
        {
          "inputs": [
            {
              "internalType": "address",
              "name": "account",
              "type": "address"
            }
          ],
          "name": "OwnableUnauthorizedAccount",
          "type": "error"
        },
        {
          "anonymous": false,
          "inputs": [
            {
              "indexed": true,
              "internalType": "address",
              "name": "requester",
              "type": "address"
            }
          ],
          "name": "AllowedRequesterAdded",
          "type": "event"
        },
        {
          "anonymous": false,
          "inputs": [
            {
              "indexed": true,
              "internalType": "address",
              "name": "requester",
              "type": "address"
            }
          ],
          "name": "AllowedRequesterRemoved",
          "type": "event"
        },
        {
          "anonymous": false,
          "inputs": [
            {
              "indexed": true,
              "internalType": "address",
              "name": "requester",
              "type": "address"
            },
            {
              "indexed": false,
              "internalType": "bytes",
              "name": "reason",
              "type": "bytes"
            }
          ],
          "name": "EntropyCallbackFailed",
          "type": "event"
        },
        {
          "anonymous": false,
          "inputs": [
            {
              "indexed": true,
              "internalType": "address",
              "name": "requester",
              "type": "address"
            },
            {
              "indexed": false,
              "internalType": "bytes32",
              "name": "randomNumber",
              "type": "bytes32"
            },
            {
              "indexed": false,
              "internalType": "uint64",
              "name": "sequenceNumber",
              "type": "uint64"
            }
          ],
          "name": "EntropyCallbackSent",
          "type": "event"
        },
        {
          "anonymous": false,
          "inputs": [
            {
              "indexed": true,
              "internalType": "address",
              "name": "requester",
              "type": "address"
            },
            {
              "indexed": false,
              "internalType": "bytes32",
              "name": "messageId",
              "type": "bytes32"
            }
          ],
          "name": "EntropyRequested",
          "type": "event"
        },
        {
          "anonymous": false,
          "inputs": [
            {
              "indexed": true,
              "internalType": "address",
              "name": "previousOwner",
              "type": "address"
            },
            {
              "indexed": true,
              "internalType": "address",
              "name": "newOwner",
              "type": "address"
            }
          ],
          "name": "OwnershipTransferred",
          "type": "event"
        },
        {
          "anonymous": false,
          "inputs": [
            {
              "indexed": true,
              "internalType": "uint32",
              "name": "origin",
              "type": "uint32"
            },
            {
              "indexed": true,
              "internalType": "address",
              "name": "sender",
              "type": "address"
            },
            {
              "indexed": false,
              "internalType": "bytes32",
              "name": "randomNumber",
              "type": "bytes32"
            },
            {
              "indexed": false,
              "internalType": "uint256",
              "name": "entropyLength",
              "type": "uint256"
            },
            {
              "indexed": false,
              "internalType": "uint64",
              "name": "sequenceNumber",
              "type": "uint64"
            },
            {
              "indexed": false,
              "internalType": "address",
              "name": "sourceContract",
              "type": "address"
            },
            {
              "indexed": false,
              "internalType": "address",
              "name": "requester",
              "type": "address"
            }
          ],
          "name": "ReceivedMessage",
          "type": "event"
        },
        {
          "anonymous": false,
          "inputs": [
            {
              "indexed": false,
              "internalType": "uint32",
              "name": "sourceDomain",
              "type": "uint32"
            },
            {
              "indexed": false,
              "internalType": "address",
              "name": "sourceContract",
              "type": "address"
            }
          ],
          "name": "SourceConfigUpdated",
          "type": "event"
        },
        {
          "inputs": [],
          "name": "MAILBOX_ADDRESS",
          "outputs": [
            {
              "internalType": "address",
              "name": "",
              "type": "address"
            }
          ],
          "stateMutability": "view",
          "type": "function"
        },
        {
          "inputs": [
            {
              "internalType": "address",
              "name": "_requester",
              "type": "address"
            }
          ],
          "name": "addAllowedRequester",
          "outputs": [],
          "stateMutability": "nonpayable",
          "type": "function"
        },
        {
          "inputs": [
            {
              "internalType": "address",
              "name": "",
              "type": "address"
            }
          ],
          "name": "allowedRequesters",
          "outputs": [
            {
              "internalType": "bool",
              "name": "",
              "type": "bool"
            }
          ],
          "stateMutability": "view",
          "type": "function"
        },
        {
          "inputs": [
            {
              "internalType": "uint32",
              "name": "_origin",
              "type": "uint32"
            },
            {
              "internalType": "bytes32",
              "name": "_sender",
              "type": "bytes32"
            },
            {
              "internalType": "bytes",
              "name": "_messageBody",
              "type": "bytes"
            }
          ],
          "name": "handle",
          "outputs": [],
          "stateMutability": "nonpayable",
          "type": "function"
        },
        {
          "inputs": [
            {
              "internalType": "address",
              "name": "_requester",
              "type": "address"
            }
          ],
          "name": "isAllowedRequester",
          "outputs": [
            {
              "internalType": "bool",
              "name": "",
              "type": "bool"
            }
          ],
          "stateMutability": "view",
          "type": "function"
        },
        {
          "inputs": [],
          "name": "lastEntropyData",
          "outputs": [
            {
              "internalType": "bytes32",
              "name": "randomNumber",
              "type": "bytes32"
            },
            {
              "internalType": "uint256",
              "name": "entropyLength",
              "type": "uint256"
            },
            {
              "internalType": "uint64",
              "name": "sequenceNumber",
              "type": "uint64"
            },
            {
              "internalType": "address",
              "name": "sourceContract",
              "type": "address"
            },
            {
              "internalType": "address",
              "name": "requester",
              "type": "address"
            }
          ],
          "stateMutability": "view",
          "type": "function"
        },
        {
          "inputs": [],
          "name": "lastOriginDomain",
          "outputs": [
            {
              "internalType": "uint32",
              "name": "",
              "type": "uint32"
            }
          ],
          "stateMutability": "view",
          "type": "function"
        },
        {
          "inputs": [],
          "name": "lastSender",
          "outputs": [
            {
              "internalType": "address",
              "name": "",
              "type": "address"
            }
          ],
          "stateMutability": "view",
          "type": "function"
        },
        {
          "inputs": [],
          "name": "mailbox",
          "outputs": [
            {
              "internalType": "contract IMailbox",
              "name": "",
              "type": "address"
            }
          ],
          "stateMutability": "view",
          "type": "function"
        },
        {
          "inputs": [],
          "name": "owner",
          "outputs": [
            {
              "internalType": "address",
              "name": "",
              "type": "address"
            }
          ],
          "stateMutability": "view",
          "type": "function"
        },
        {
          "inputs": [],
          "name": "quoteRequestEntropy",
          "outputs": [
            {
              "internalType": "uint256",
              "name": "",
              "type": "uint256"
            }
          ],
          "stateMutability": "view",
          "type": "function"
        },
        {
          "inputs": [
            {
              "internalType": "address",
              "name": "_requester",
              "type": "address"
            }
          ],
          "name": "removeAllowedRequester",
          "outputs": [],
          "stateMutability": "nonpayable",
          "type": "function"
        },
        {
          "inputs": [],
          "name": "renounceOwnership",
          "outputs": [],
          "stateMutability": "nonpayable",
          "type": "function"
        },
        {
          "inputs": [],
          "name": "requestEntropy",
          "outputs": [],
          "stateMutability": "payable",
          "type": "function"
        },
        {
          "inputs": [
            {
              "internalType": "uint32",
              "name": "_sourceDomain",
              "type": "uint32"
            },
            {
              "internalType": "address",
              "name": "_sourceContract",
              "type": "address"
            }
          ],
          "name": "setSourceConfig",
          "outputs": [],
          "stateMutability": "nonpayable",
          "type": "function"
        },
        {
          "inputs": [],
          "name": "sourceContract",
          "outputs": [
            {
              "internalType": "address",
              "name": "",
              "type": "address"
            }
          ],
          "stateMutability": "view",
          "type": "function"
        },
        {
          "inputs": [],
          "name": "sourceDomain",
          "outputs": [
            {
              "internalType": "uint32",
              "name": "",
              "type": "uint32"
            }
          ],
          "stateMutability": "view",
          "type": "function"
        },
        {
          "inputs": [
            {
              "internalType": "address",
              "name": "newOwner",
              "type": "address"
            }
          ],
          "name": "transferOwnership",
          "outputs": [],
          "stateMutability": "nonpayable",
          "type": "function"
        }
      ],
      "evm": {
        "bytecode": {
          "linkReferences": {},
          "object": "60803461019b57601f61108e38819003918201601f19168301916001600160401b038311848410176101a057808492604094855283398101031261019b5780519063ffffffff8216820361019b57602001516001600160a01b0381169081900361019b5733156101855760008054336001600160a01b0319821681178355604051947350da3b3907a08a24fe4999f4dcf337e8dc7954bb9390926001600160a01b0316907f8be0079c531659141344cd1fd0a4f28419497f9722a3daafe3b4186f6b6457e09080a3600180546001600160c01b03191660a09290921b63ffffffff60a01b1691909117919091178155600280546001600160a01b0319169290921790915560036020527f80e8a8781b867c2968fba4123f4f1cd39dfadf5992190ac5ee50d1ba3021bbd8805460ff1990811683179091557399d657e8b0d905a03e04553db7fcb6cccca546576000527f0f56492a4fd5134b18ff40448eec66cd74a89e8ba4277e80e01e1b7b7b27fc1980549091169091179055610ed790816101b78239f35b631e4fbdf760e01b600052600060045260246000fd5b600080fd5b634e487b7160e01b600052604160045260246000fdfe608080604052600436101561001357600080fd5b600090813560e01c908163256fec8814610ce8575080633e0204b614610c0157806356d5d47514610836578063698a93d1146106ff578063715018a6146107dc57806377cbf812146107b55780638da5cb5b1461078e5780638ddb4a8914610767578063a444ae411461073e578063ae983a42146106ff578063b13038a114610477578063b85ec50514610448578063bf4d0407146103f0578063c10af2c914610349578063d5438eae14610320578063ec6a21921461022f578063f2fde38b146101a95763f7d235c4146100e757600080fd5b346101a65760203660031901126101a657610100610d20565b610108610e78565b6001600160a01b03168082526003602052604082205460ff161561016157808252600360205260408220805460ff191690557f5fdd18a8c15f86971f6eacdbbe203513f530db1ca07b64a74b36b3e5ec1ef0a48280a280f35b60405162461bcd60e51b815260206004820152601860248201527f4e6f7420616e20616c6c6f7765642072657175657374657200000000000000006044820152606490fd5b80fd5b50346101a65760203660031901126101a6576101c3610d20565b6101cb610e78565b6001600160a01b0316801561021b5781546001600160a01b03198116821783556001600160a01b03167f8be0079c531659141344cd1fd0a4f28419497f9722a3daafe3b4186f6b6457e08380a380f35b631e4fbdf760e01b82526004829052602482fd5b50346101a65760203660031901126101a657610249610d20565b610251610e78565b6001600160a01b031680156102e957808252600360205260ff6040832054166102b257808252600360205260408220805460ff191660011790557f8e7489bbae0e8d33d6c2c54651ee456738df22f8f8d9c946c14815f13305e9748280a280f35b60405162461bcd60e51b815260206004820152600f60248201526e105b1c9958591e48185b1b1bddd959608a1b6044820152606490fd5b60405162461bcd60e51b815260206004820152600f60248201526e496e76616c6964206164647265737360881b6044820152606490fd5b50346101a657806003193601126101a6576001546040516001600160a01b039091168152602090f35b50346101a65760403660031901126101a657610363610d0d565b6024356001600160a01b038116908190036103ec577f92c6a25854524e46cfe92eb9509b25e079b44ee10690e5c94355f2e961330bd1916040916103a5610e78565b6001805463ffffffff60a01b191660a084901b63ffffffff60a01b16179055600280546001600160a01b03191682179055825163ffffffff9290921682526020820152a180f35b8280fd5b50346101a657806003193601126101a65760045460055460065460075460408051948552602085019390935267ffffffffffffffff821684840152911c6001600160a01b03908116606084015216608082015260a090f35b50346101a657806003193601126101a65760206040517350da3b3907a08a24fe4999f4dcf337e8dc7954bb8152f35b50806003193601126101a657338152600360205260ff604082205416156106ba576002546001600160a01b03166104af811515610d4a565b6001549063ffffffff8260a01c166104c8811515610d96565b60405192336020850152602084526104e1604085610dda565b60405163138857a360e31b815293906001600160a01b03166020858061050c85888860048501610e53565b0381845afa9485156106af578695610676575b508434106106215761054c93856020946040519687958694859363fa31de0160e01b855260048501610e53565b03925af19081156106165783916105e4575b506040519081527fac4ae69f511acc783878d50744bf46aea0c8fb0f3b06a55bbafdf73b7e8a238b60203392a2803411610596575080f35b803403903482116105d057828080938193829034146105c7575b3390f1156105bb5780f35b604051903d90823e3d90fd5b506108fc6105b0565b634e487b7160e01b83526011600452602483fd5b90506020813d60201161060e575b816105ff60209383610dda565b810103126103ec57513861055e565b3d91506105f2565b6040513d85823e3d90fd5b60405162461bcd60e51b815260206004820152602760248201527f496e73756666696369656e74207061796d656e7420666f7220696e746572636860448201526661696e2067617360c81b6064820152608490fd5b9094506020813d6020116106a7575b8161069260209383610dda565b810103126106a25751933861051f565b600080fd5b3d9150610685565b6040513d88823e3d90fd5b60405162461bcd60e51b815260206004820152601f60248201527f4f6e6c7920616c6c6f776564207265717565737465722063616e2063616c6c006044820152606490fd5b50346101a65760203660031901126101a65760209060ff906040906001600160a01b0361072a610d20565b168152600384522054166040519015158152f35b50346101a657806003193601126101a6576002546040516001600160a01b039091168152602090f35b50346101a657806003193601126101a657602063ffffffff60015460a01c16604051908152f35b50346101a657806003193601126101a657546040516001600160a01b039091168152602090f35b50346101a657806003193601126101a657602063ffffffff60085460a01c16604051908152f35b50346101a657806003193601126101a6576107f5610e78565b80546001600160a01b03198116825581906001600160a01b03167f8be0079c531659141344cd1fd0a4f28419497f9722a3daafe3b4186f6b6457e08280a380f35b50346101a65760603660031901126101a657610850610d0d565b6044359067ffffffffffffffff82116103ec57366023830112156103ec57816004013567ffffffffffffffff8111610bfd578201366024820111610bfd577350da3b3907a08a24fe4999f4dcf337e8dc7954bb3303610bc05760a090839003126103ec576040519060a0820182811067ffffffffffffffff821117610bac57604052602483013580835260448401359384602085015260648101359267ffffffffffffffff841695868503610ba8577ff198dcef1104a41fff43a53752bbc93214a03abbd7b3d3edff3cea3a4feb447c91610a0863ffffffff926040890197885261094f60a461094260848901610d36565b978860608d015201610d36565b60808a810182815260048a905560058490556006805460e089901b168e1760408b811b68010000000000000000600160e01b031691909117909155600780546001600160a01b0319166001600160a01b03958616908117909155600880546001600160c01b031916602435871690811799909a1660a081811b9a909a1790915582519c8d5260208d019690965267ffffffffffffffff909e16908b01529790911660608901528701999099529397919491938291820190565b0390a382516001600160a01b0316803b610a20578480f35b8483519167ffffffffffffffff84511690803b156103ec57604051630cc247e560e11b8152600481019490945267ffffffffffffffff9190911660248401528290604490829084905af19081610b94575b50610b415750503d15610b15573d9067ffffffffffffffff8211610b0157610af57f337b251f7d34d96560f7fd33e148f1380bed7a7feef37a1366e6cf004c6fb0229160405193610acc6020601f19601f8401160186610dda565b84523d85602086013e5b60018060a01b0390511692604051918291602083526020830190610e12565b0390a25b388080808480f35b634e487b7160e01b83526041600452602483fd5b7f337b251f7d34d96560f7fd33e148f1380bed7a7feef37a1366e6cf004c6fb022610af5606092610ad6565b9151905191516040805193845267ffffffffffffffff90911660208401526001600160a01b03909116917ffefdcdad2593caccc74be409f7d2a7b61448a7650c8e79477ae9abc21d1d2e9b9190a2610af9565b85610ba191969296610dda565b9338610a71565b8780fd5b634e487b7160e01b85526041600452602485fd5b60405162461bcd60e51b815260206004820152601560248201527413db9b1e4813585a5b189bde0818d85b8818d85b1b605a1b6044820152606490fd5b8380fd5b50346101a657806003193601126101a657600254610c7d906020906001600160a01b0316610c30811515610d4a565b60015463ffffffff8160a01c1691610c49831515610d96565b604051923385850152848452610c60604085610dda565b60405163138857a360e31b81529586948593849360048501610e53565b03916001600160a01b03165afa908115610cdd578291610ca3575b602082604051908152f35b90506020813d602011610cd5575b81610cbe60209383610dda565b81010312610cd157602091505138610c98565b5080fd5b3d9150610cb1565b6040513d84823e3d90fd5b905034610cd15781600319360112610cd1576008546001600160a01b03168152602090f35b6004359063ffffffff821682036106a257565b600435906001600160a01b03821682036106a257565b35906001600160a01b03821682036106a257565b15610d5157565b60405162461bcd60e51b815260206004820152601760248201527f536f7572636520636f6e7472616374206e6f74207365740000000000000000006044820152606490fd5b15610d9d57565b60405162461bcd60e51b815260206004820152601560248201527414dbdd5c98d948191bdb585a5b881b9bdd081cd95d605a1b6044820152606490fd5b90601f8019910116810190811067ffffffffffffffff821117610dfc57604052565b634e487b7160e01b600052604160045260246000fd5b919082519283825260005b848110610e3e575050826000602080949584010152601f8019910116010190565b80602080928401015182828601015201610e1d565b610e75939263ffffffff60609316825260208201528160408201520190610e12565b90565b6000546001600160a01b03163303610e8c57565b63118cdaa760e01b6000523360045260246000fdfea26469706673582212204d5c427f3b58cd5df13a1bae3e731f0360ac244368f937d9116fb8394dd2407a64736f6c634300081c0033",
          "opcodes": "PUSH1 0x80 CALLVALUE PUSH2 0x19B JUMPI PUSH1 0x1F PUSH2 0x108E CODESIZE DUP2 SWAP1 SUB SWAP2 DUP3 ADD PUSH1 0x1F NOT AND DUP4 ADD SWAP2 PUSH1 0x1 PUSH1 0x1 PUSH1 0x40 SHL SUB DUP4 GT DUP5 DUP5 LT OR PUSH2 0x1A0 JUMPI DUP1 DUP5 SWAP3 PUSH1 0x40 SWAP5 DUP6 MSTORE DUP4 CODECOPY DUP2 ADD SUB SLT PUSH2 0x19B JUMPI DUP1 MLOAD SWAP1 PUSH4 0xFFFFFFFF DUP3 AND DUP3 SUB PUSH2 0x19B JUMPI PUSH1 0x20 ADD MLOAD PUSH1 0x1 PUSH1 0x1 PUSH1 0xA0 SHL SUB DUP2 AND SWAP1 DUP2 SWAP1 SUB PUSH2 0x19B JUMPI CALLER ISZERO PUSH2 0x185 JUMPI PUSH1 0x0 DUP1 SLOAD CALLER PUSH1 0x1 PUSH1 0x1 PUSH1 0xA0 SHL SUB NOT DUP3 AND DUP2 OR DUP4 SSTORE PUSH1 0x40 MLOAD SWAP5 PUSH20 0x50DA3B3907A08A24FE4999F4DCF337E8DC7954BB SWAP4 SWAP1 SWAP3 PUSH1 0x1 PUSH1 0x1 PUSH1 0xA0 SHL SUB AND SWAP1 PUSH32 0x8BE0079C531659141344CD1FD0A4F28419497F9722A3DAAFE3B4186F6B6457E0 SWAP1 DUP1 LOG3 PUSH1 0x1 DUP1 SLOAD PUSH1 0x1 PUSH1 0x1 PUSH1 0xC0 SHL SUB NOT AND PUSH1 0xA0 SWAP3 SWAP1 SWAP3 SHL PUSH4 0xFFFFFFFF PUSH1 0xA0 SHL AND SWAP2 SWAP1 SWAP2 OR SWAP2 SWAP1 SWAP2 OR DUP2 SSTORE PUSH1 0x2 DUP1 SLOAD PUSH1 0x1 PUSH1 0x1 PUSH1 0xA0 SHL SUB NOT AND SWAP3 SWAP1 SWAP3 OR SWAP1 SWAP2 SSTORE PUSH1 0x3 PUSH1 0x20 MSTORE PUSH32 0x80E8A8781B867C2968FBA4123F4F1CD39DFADF5992190AC5EE50D1BA3021BBD8 DUP1 SLOAD PUSH1 0xFF NOT SWAP1 DUP2 AND DUP4 OR SWAP1 SWAP2 SSTORE PUSH20 0x99D657E8B0D905A03E04553DB7FCB6CCCCA54657 PUSH1 0x0 MSTORE PUSH32 0xF56492A4FD5134B18FF40448EEC66CD74A89E8BA4277E80E01E1B7B7B27FC19 DUP1 SLOAD SWAP1 SWAP2 AND SWAP1 SWAP2 OR SWAP1 SSTORE PUSH2 0xED7 SWAP1 DUP2 PUSH2 0x1B7 DUP3 CODECOPY RETURN JUMPDEST PUSH4 0x1E4FBDF7 PUSH1 0xE0 SHL PUSH1 0x0 MSTORE PUSH1 0x0 PUSH1 0x4 MSTORE PUSH1 0x24 PUSH1 0x0 REVERT JUMPDEST PUSH1 0x0 DUP1 REVERT JUMPDEST PUSH4 0x4E487B71 PUSH1 0xE0 SHL PUSH1 0x0 MSTORE PUSH1 0x41 PUSH1 0x4 MSTORE PUSH1 0x24 PUSH1 0x0 REVERT INVALID PUSH1 0x80 DUP1 PUSH1 0x40 MSTORE PUSH1 0x4 CALLDATASIZE LT ISZERO PUSH2 0x13 JUMPI PUSH1 0x0 DUP1 REVERT JUMPDEST PUSH1 0x0 SWAP1 DUP2 CALLDATALOAD PUSH1 0xE0 SHR SWAP1 DUP2 PUSH4 0x256FEC88 EQ PUSH2 0xCE8 JUMPI POP DUP1 PUSH4 0x3E0204B6 EQ PUSH2 0xC01 JUMPI DUP1 PUSH4 0x56D5D475 EQ PUSH2 0x836 JUMPI DUP1 PUSH4 0x698A93D1 EQ PUSH2 0x6FF JUMPI DUP1 PUSH4 0x715018A6 EQ PUSH2 0x7DC JUMPI DUP1 PUSH4 0x77CBF812 EQ PUSH2 0x7B5 JUMPI DUP1 PUSH4 0x8DA5CB5B EQ PUSH2 0x78E JUMPI DUP1 PUSH4 0x8DDB4A89 EQ PUSH2 0x767 JUMPI DUP1 PUSH4 0xA444AE41 EQ PUSH2 0x73E JUMPI DUP1 PUSH4 0xAE983A42 EQ PUSH2 0x6FF JUMPI DUP1 PUSH4 0xB13038A1 EQ PUSH2 0x477 JUMPI DUP1 PUSH4 0xB85EC505 EQ PUSH2 0x448 JUMPI DUP1 PUSH4 0xBF4D0407 EQ PUSH2 0x3F0 JUMPI DUP1 PUSH4 0xC10AF2C9 EQ PUSH2 0x349 JUMPI DUP1 PUSH4 0xD5438EAE EQ PUSH2 0x320 JUMPI DUP1 PUSH4 0xEC6A2192 EQ PUSH2 0x22F JUMPI DUP1 PUSH4 0xF2FDE38B EQ PUSH2 0x1A9 JUMPI PUSH4 0xF7D235C4 EQ PUSH2 0xE7 JUMPI PUSH1 0x0 DUP1 REVERT JUMPDEST CALLVALUE PUSH2 0x1A6 JUMPI PUSH1 0x20 CALLDATASIZE PUSH1 0x3 NOT ADD SLT PUSH2 0x1A6 JUMPI PUSH2 0x100 PUSH2 0xD20 JUMP JUMPDEST PUSH2 0x108 PUSH2 0xE78 JUMP JUMPDEST PUSH1 0x1 PUSH1 0x1 PUSH1 0xA0 SHL SUB AND DUP1 DUP3 MSTORE PUSH1 0x3 PUSH1 0x20 MSTORE PUSH1 0x40 DUP3 KECCAK256 SLOAD PUSH1 0xFF AND ISZERO PUSH2 0x161 JUMPI DUP1 DUP3 MSTORE PUSH1 0x3 PUSH1 0x20 MSTORE PUSH1 0x40 DUP3 KECCAK256 DUP1 SLOAD PUSH1 0xFF NOT AND SWAP1 SSTORE PUSH32 0x5FDD18A8C15F86971F6EACDBBE203513F530DB1CA07B64A74B36B3E5EC1EF0A4 DUP3 DUP1 LOG2 DUP1 RETURN JUMPDEST PUSH1 0x40 MLOAD PUSH3 0x461BCD PUSH1 0xE5 SHL DUP2 MSTORE PUSH1 0x20 PUSH1 0x4 DUP3 ADD MSTORE PUSH1 0x18 PUSH1 0x24 DUP3 ADD MSTORE PUSH32 0x4E6F7420616E20616C6C6F776564207265717565737465720000000000000000 PUSH1 0x44 DUP3 ADD MSTORE PUSH1 0x64 SWAP1 REVERT JUMPDEST DUP1 REVERT JUMPDEST POP CALLVALUE PUSH2 0x1A6 JUMPI PUSH1 0x20 CALLDATASIZE PUSH1 0x3 NOT ADD SLT PUSH2 0x1A6 JUMPI PUSH2 0x1C3 PUSH2 0xD20 JUMP JUMPDEST PUSH2 0x1CB PUSH2 0xE78 JUMP JUMPDEST PUSH1 0x1 PUSH1 0x1 PUSH1 0xA0 SHL SUB AND DUP1 ISZERO PUSH2 0x21B JUMPI DUP2 SLOAD PUSH1 0x1 PUSH1 0x1 PUSH1 0xA0 SHL SUB NOT DUP2 AND DUP3 OR DUP4 SSTORE PUSH1 0x1 PUSH1 0x1 PUSH1 0xA0 SHL SUB AND PUSH32 0x8BE0079C531659141344CD1FD0A4F28419497F9722A3DAAFE3B4186F6B6457E0 DUP4 DUP1 LOG3 DUP1 RETURN JUMPDEST PUSH4 0x1E4FBDF7 PUSH1 0xE0 SHL DUP3 MSTORE PUSH1 0x4 DUP3 SWAP1 MSTORE PUSH1 0x24 DUP3 REVERT JUMPDEST POP CALLVALUE PUSH2 0x1A6 JUMPI PUSH1 0x20 CALLDATASIZE PUSH1 0x3 NOT ADD SLT PUSH2 0x1A6 JUMPI PUSH2 0x249 PUSH2 0xD20 JUMP JUMPDEST PUSH2 0x251 PUSH2 0xE78 JUMP JUMPDEST PUSH1 0x1 PUSH1 0x1 PUSH1 0xA0 SHL SUB AND DUP1 ISZERO PUSH2 0x2E9 JUMPI DUP1 DUP3 MSTORE PUSH1 0x3 PUSH1 0x20 MSTORE PUSH1 0xFF PUSH1 0x40 DUP4 KECCAK256 SLOAD AND PUSH2 0x2B2 JUMPI DUP1 DUP3 MSTORE PUSH1 0x3 PUSH1 0x20 MSTORE PUSH1 0x40 DUP3 KECCAK256 DUP1 SLOAD PUSH1 0xFF NOT AND PUSH1 0x1 OR SWAP1 SSTORE PUSH32 0x8E7489BBAE0E8D33D6C2C54651EE456738DF22F8F8D9C946C14815F13305E974 DUP3 DUP1 LOG2 DUP1 RETURN JUMPDEST PUSH1 0x40 MLOAD PUSH3 0x461BCD PUSH1 0xE5 SHL DUP2 MSTORE PUSH1 0x20 PUSH1 0x4 DUP3 ADD MSTORE PUSH1 0xF PUSH1 0x24 DUP3 ADD MSTORE PUSH15 0x105B1C9958591E48185B1B1BDDD959 PUSH1 0x8A SHL PUSH1 0x44 DUP3 ADD MSTORE PUSH1 0x64 SWAP1 REVERT JUMPDEST PUSH1 0x40 MLOAD PUSH3 0x461BCD PUSH1 0xE5 SHL DUP2 MSTORE PUSH1 0x20 PUSH1 0x4 DUP3 ADD MSTORE PUSH1 0xF PUSH1 0x24 DUP3 ADD MSTORE PUSH15 0x496E76616C69642061646472657373 PUSH1 0x88 SHL PUSH1 0x44 DUP3 ADD MSTORE PUSH1 0x64 SWAP1 REVERT JUMPDEST POP CALLVALUE PUSH2 0x1A6 JUMPI DUP1 PUSH1 0x3 NOT CALLDATASIZE ADD SLT PUSH2 0x1A6 JUMPI PUSH1 0x1 SLOAD PUSH1 0x40 MLOAD PUSH1 0x1 PUSH1 0x1 PUSH1 0xA0 SHL SUB SWAP1 SWAP2 AND DUP2 MSTORE PUSH1 0x20 SWAP1 RETURN JUMPDEST POP CALLVALUE PUSH2 0x1A6 JUMPI PUSH1 0x40 CALLDATASIZE PUSH1 0x3 NOT ADD SLT PUSH2 0x1A6 JUMPI PUSH2 0x363 PUSH2 0xD0D JUMP JUMPDEST PUSH1 0x24 CALLDATALOAD PUSH1 0x1 PUSH1 0x1 PUSH1 0xA0 SHL SUB DUP2 AND SWAP1 DUP2 SWAP1 SUB PUSH2 0x3EC JUMPI PUSH32 0x92C6A25854524E46CFE92EB9509B25E079B44EE10690E5C94355F2E961330BD1 SWAP2 PUSH1 0x40 SWAP2 PUSH2 0x3A5 PUSH2 0xE78 JUMP JUMPDEST PUSH1 0x1 DUP1 SLOAD PUSH4 0xFFFFFFFF PUSH1 0xA0 SHL NOT AND PUSH1 0xA0 DUP5 SWAP1 SHL PUSH4 0xFFFFFFFF PUSH1 0xA0 SHL AND OR SWAP1 SSTORE PUSH1 0x2 DUP1 SLOAD PUSH1 0x1 PUSH1 0x1 PUSH1 0xA0 SHL SUB NOT AND DUP3 OR SWAP1 SSTORE DUP3 MLOAD PUSH4 0xFFFFFFFF SWAP3 SWAP1 SWAP3 AND DUP3 MSTORE PUSH1 0x20 DUP3 ADD MSTORE LOG1 DUP1 RETURN JUMPDEST DUP3 DUP1 REVERT JUMPDEST POP CALLVALUE PUSH2 0x1A6 JUMPI DUP1 PUSH1 0x3 NOT CALLDATASIZE ADD SLT PUSH2 0x1A6 JUMPI PUSH1 0x4 SLOAD PUSH1 0x5 SLOAD PUSH1 0x6 SLOAD PUSH1 0x7 SLOAD PUSH1 0x40 DUP1 MLOAD SWAP5 DUP6 MSTORE PUSH1 0x20 DUP6 ADD SWAP4 SWAP1 SWAP4 MSTORE PUSH8 0xFFFFFFFFFFFFFFFF DUP3 AND DUP5 DUP5 ADD MSTORE SWAP2 SHR PUSH1 0x1 PUSH1 0x1 PUSH1 0xA0 SHL SUB SWAP1 DUP2 AND PUSH1 0x60 DUP5 ADD MSTORE AND PUSH1 0x80 DUP3 ADD MSTORE PUSH1 0xA0 SWAP1 RETURN JUMPDEST POP CALLVALUE PUSH2 0x1A6 JUMPI DUP1 PUSH1 0x3 NOT CALLDATASIZE ADD SLT PUSH2 0x1A6 JUMPI PUSH1 0x20 PUSH1 0x40 MLOAD PUSH20 0x50DA3B3907A08A24FE4999F4DCF337E8DC7954BB DUP2 MSTORE RETURN JUMPDEST POP DUP1 PUSH1 0x3 NOT CALLDATASIZE ADD SLT PUSH2 0x1A6 JUMPI CALLER DUP2 MSTORE PUSH1 0x3 PUSH1 0x20 MSTORE PUSH1 0xFF PUSH1 0x40 DUP3 KECCAK256 SLOAD AND ISZERO PUSH2 0x6BA JUMPI PUSH1 0x2 SLOAD PUSH1 0x1 PUSH1 0x1 PUSH1 0xA0 SHL SUB AND PUSH2 0x4AF DUP2 ISZERO ISZERO PUSH2 0xD4A JUMP JUMPDEST PUSH1 0x1 SLOAD SWAP1 PUSH4 0xFFFFFFFF DUP3 PUSH1 0xA0 SHR AND PUSH2 0x4C8 DUP2 ISZERO ISZERO PUSH2 0xD96 JUMP JUMPDEST PUSH1 0x40 MLOAD SWAP3 CALLER PUSH1 0x20 DUP6 ADD MSTORE PUSH1 0x20 DUP5 MSTORE PUSH2 0x4E1 PUSH1 0x40 DUP6 PUSH2 0xDDA JUMP JUMPDEST PUSH1 0x40 MLOAD PUSH4 0x138857A3 PUSH1 0xE3 SHL DUP2 MSTORE SWAP4 SWAP1 PUSH1 0x1 PUSH1 0x1 PUSH1 0xA0 SHL SUB AND PUSH1 0x20 DUP6 DUP1 PUSH2 0x50C DUP6 DUP9 DUP9 PUSH1 0x4 DUP6 ADD PUSH2 0xE53 JUMP JUMPDEST SUB DUP2 DUP5 GAS STATICCALL SWAP5 DUP6 ISZERO PUSH2 0x6AF JUMPI DUP7 SWAP6 PUSH2 0x676 JUMPI JUMPDEST POP DUP5 CALLVALUE LT PUSH2 0x621 JUMPI PUSH2 0x54C SWAP4 DUP6 PUSH1 0x20 SWAP5 PUSH1 0x40 MLOAD SWAP7 DUP8 SWAP6 DUP7 SWAP5 DUP6 SWAP4 PUSH4 0xFA31DE01 PUSH1 0xE0 SHL DUP6 MSTORE PUSH1 0x4 DUP6 ADD PUSH2 0xE53 JUMP JUMPDEST SUB SWAP3 GAS CALL SWAP1 DUP2 ISZERO PUSH2 0x616 JUMPI DUP4 SWAP2 PUSH2 0x5E4 JUMPI JUMPDEST POP PUSH1 0x40 MLOAD SWAP1 DUP2 MSTORE PUSH32 0xAC4AE69F511ACC783878D50744BF46AEA0C8FB0F3B06A55BBAFDF73B7E8A238B PUSH1 0x20 CALLER SWAP3 LOG2 DUP1 CALLVALUE GT PUSH2 0x596 JUMPI POP DUP1 RETURN JUMPDEST DUP1 CALLVALUE SUB SWAP1 CALLVALUE DUP3 GT PUSH2 0x5D0 JUMPI DUP3 DUP1 DUP1 SWAP4 DUP2 SWAP4 DUP3 SWAP1 CALLVALUE EQ PUSH2 0x5C7 JUMPI JUMPDEST CALLER SWAP1 CALL ISZERO PUSH2 0x5BB JUMPI DUP1 RETURN JUMPDEST PUSH1 0x40 MLOAD SWAP1 RETURNDATASIZE SWAP1 DUP3 RETURNDATACOPY RETURNDATASIZE SWAP1 REVERT JUMPDEST POP PUSH2 0x8FC PUSH2 0x5B0 JUMP JUMPDEST PUSH4 0x4E487B71 PUSH1 0xE0 SHL DUP4 MSTORE PUSH1 0x11 PUSH1 0x4 MSTORE PUSH1 0x24 DUP4 REVERT JUMPDEST SWAP1 POP PUSH1 0x20 DUP2 RETURNDATASIZE PUSH1 0x20 GT PUSH2 0x60E JUMPI JUMPDEST DUP2 PUSH2 0x5FF PUSH1 0x20 SWAP4 DUP4 PUSH2 0xDDA JUMP JUMPDEST DUP2 ADD SUB SLT PUSH2 0x3EC JUMPI MLOAD CODESIZE PUSH2 0x55E JUMP JUMPDEST RETURNDATASIZE SWAP2 POP PUSH2 0x5F2 JUMP JUMPDEST PUSH1 0x40 MLOAD RETURNDATASIZE DUP6 DUP3 RETURNDATACOPY RETURNDATASIZE SWAP1 REVERT JUMPDEST PUSH1 0x40 MLOAD PUSH3 0x461BCD PUSH1 0xE5 SHL DUP2 MSTORE PUSH1 0x20 PUSH1 0x4 DUP3 ADD MSTORE PUSH1 0x27 PUSH1 0x24 DUP3 ADD MSTORE PUSH32 0x496E73756666696369656E74207061796D656E7420666F7220696E7465726368 PUSH1 0x44 DUP3 ADD MSTORE PUSH7 0x61696E20676173 PUSH1 0xC8 SHL PUSH1 0x64 DUP3 ADD MSTORE PUSH1 0x84 SWAP1 REVERT JUMPDEST SWAP1 SWAP5 POP PUSH1 0x20 DUP2 RETURNDATASIZE PUSH1 0x20 GT PUSH2 0x6A7 JUMPI JUMPDEST DUP2 PUSH2 0x692 PUSH1 0x20 SWAP4 DUP4 PUSH2 0xDDA JUMP JUMPDEST DUP2 ADD SUB SLT PUSH2 0x6A2 JUMPI MLOAD SWAP4 CODESIZE PUSH2 0x51F JUMP JUMPDEST PUSH1 0x0 DUP1 REVERT JUMPDEST RETURNDATASIZE SWAP2 POP PUSH2 0x685 JUMP JUMPDEST PUSH1 0x40 MLOAD RETURNDATASIZE DUP9 DUP3 RETURNDATACOPY RETURNDATASIZE SWAP1 REVERT JUMPDEST PUSH1 0x40 MLOAD PUSH3 0x461BCD PUSH1 0xE5 SHL DUP2 MSTORE PUSH1 0x20 PUSH1 0x4 DUP3 ADD MSTORE PUSH1 0x1F PUSH1 0x24 DUP3 ADD MSTORE PUSH32 0x4F6E6C7920616C6C6F776564207265717565737465722063616E2063616C6C00 PUSH1 0x44 DUP3 ADD MSTORE PUSH1 0x64 SWAP1 REVERT JUMPDEST POP CALLVALUE PUSH2 0x1A6 JUMPI PUSH1 0x20 CALLDATASIZE PUSH1 0x3 NOT ADD SLT PUSH2 0x1A6 JUMPI PUSH1 0x20 SWAP1 PUSH1 0xFF SWAP1 PUSH1 0x40 SWAP1 PUSH1 0x1 PUSH1 0x1 PUSH1 0xA0 SHL SUB PUSH2 0x72A PUSH2 0xD20 JUMP JUMPDEST AND DUP2 MSTORE PUSH1 0x3 DUP5 MSTORE KECCAK256 SLOAD AND PUSH1 0x40 MLOAD SWAP1 ISZERO ISZERO DUP2 MSTORE RETURN JUMPDEST POP CALLVALUE PUSH2 0x1A6 JUMPI DUP1 PUSH1 0x3 NOT CALLDATASIZE ADD SLT PUSH2 0x1A6 JUMPI PUSH1 0x2 SLOAD PUSH1 0x40 MLOAD PUSH1 0x1 PUSH1 0x1 PUSH1 0xA0 SHL SUB SWAP1 SWAP2 AND DUP2 MSTORE PUSH1 0x20 SWAP1 RETURN JUMPDEST POP CALLVALUE PUSH2 0x1A6 JUMPI DUP1 PUSH1 0x3 NOT CALLDATASIZE ADD SLT PUSH2 0x1A6 JUMPI PUSH1 0x20 PUSH4 0xFFFFFFFF PUSH1 0x1 SLOAD PUSH1 0xA0 SHR AND PUSH1 0x40 MLOAD SWAP1 DUP2 MSTORE RETURN JUMPDEST POP CALLVALUE PUSH2 0x1A6 JUMPI DUP1 PUSH1 0x3 NOT CALLDATASIZE ADD SLT PUSH2 0x1A6 JUMPI SLOAD PUSH1 0x40 MLOAD PUSH1 0x1 PUSH1 0x1 PUSH1 0xA0 SHL SUB SWAP1 SWAP2 AND DUP2 MSTORE PUSH1 0x20 SWAP1 RETURN JUMPDEST POP CALLVALUE PUSH2 0x1A6 JUMPI DUP1 PUSH1 0x3 NOT CALLDATASIZE ADD SLT PUSH2 0x1A6 JUMPI PUSH1 0x20 PUSH4 0xFFFFFFFF PUSH1 0x8 SLOAD PUSH1 0xA0 SHR AND PUSH1 0x40 MLOAD SWAP1 DUP2 MSTORE RETURN JUMPDEST POP CALLVALUE PUSH2 0x1A6 JUMPI DUP1 PUSH1 0x3 NOT CALLDATASIZE ADD SLT PUSH2 0x1A6 JUMPI PUSH2 0x7F5 PUSH2 0xE78 JUMP JUMPDEST DUP1 SLOAD PUSH1 0x1 PUSH1 0x1 PUSH1 0xA0 SHL SUB NOT DUP2 AND DUP3 SSTORE DUP2 SWAP1 PUSH1 0x1 PUSH1 0x1 PUSH1 0xA0 SHL SUB AND PUSH32 0x8BE0079C531659141344CD1FD0A4F28419497F9722A3DAAFE3B4186F6B6457E0 DUP3 DUP1 LOG3 DUP1 RETURN JUMPDEST POP CALLVALUE PUSH2 0x1A6 JUMPI PUSH1 0x60 CALLDATASIZE PUSH1 0x3 NOT ADD SLT PUSH2 0x1A6 JUMPI PUSH2 0x850 PUSH2 0xD0D JUMP JUMPDEST PUSH1 0x44 CALLDATALOAD SWAP1 PUSH8 0xFFFFFFFFFFFFFFFF DUP3 GT PUSH2 0x3EC JUMPI CALLDATASIZE PUSH1 0x23 DUP4 ADD SLT ISZERO PUSH2 0x3EC JUMPI DUP2 PUSH1 0x4 ADD CALLDATALOAD PUSH8 0xFFFFFFFFFFFFFFFF DUP2 GT PUSH2 0xBFD JUMPI DUP3 ADD CALLDATASIZE PUSH1 0x24 DUP3 ADD GT PUSH2 0xBFD JUMPI PUSH20 0x50DA3B3907A08A24FE4999F4DCF337E8DC7954BB CALLER SUB PUSH2 0xBC0 JUMPI PUSH1 0xA0 SWAP1 DUP4 SWAP1 SUB SLT PUSH2 0x3EC JUMPI PUSH1 0x40 MLOAD SWAP1 PUSH1 0xA0 DUP3 ADD DUP3 DUP2 LT PUSH8 0xFFFFFFFFFFFFFFFF DUP3 GT OR PUSH2 0xBAC JUMPI PUSH1 0x40 MSTORE PUSH1 0x24 DUP4 ADD CALLDATALOAD DUP1 DUP4 MSTORE PUSH1 0x44 DUP5 ADD CALLDATALOAD SWAP4 DUP5 PUSH1 0x20 DUP6 ADD MSTORE PUSH1 0x64 DUP2 ADD CALLDATALOAD SWAP3 PUSH8 0xFFFFFFFFFFFFFFFF DUP5 AND SWAP6 DUP7 DUP6 SUB PUSH2 0xBA8 JUMPI PUSH32 0xF198DCEF1104A41FFF43A53752BBC93214A03ABBD7B3D3EDFF3CEA3A4FEB447C SWAP2 PUSH2 0xA08 PUSH4 0xFFFFFFFF SWAP3 PUSH1 0x40 DUP10 ADD SWAP8 DUP9 MSTORE PUSH2 0x94F PUSH1 0xA4 PUSH2 0x942 PUSH1 0x84 DUP10 ADD PUSH2 0xD36 JUMP JUMPDEST SWAP8 DUP9 PUSH1 0x60 DUP14 ADD MSTORE ADD PUSH2 0xD36 JUMP JUMPDEST PUSH1 0x80 DUP11 DUP2 ADD DUP3 DUP2 MSTORE PUSH1 0x4 DUP11 SWAP1 SSTORE PUSH1 0x5 DUP5 SWAP1 SSTORE PUSH1 0x6 DUP1 SLOAD PUSH1 0xE0 DUP10 SWAP1 SHL AND DUP15 OR PUSH1 0x40 DUP12 DUP2 SHL PUSH9 0x10000000000000000 PUSH1 0x1 PUSH1 0xE0 SHL SUB AND SWAP2 SWAP1 SWAP2 OR SWAP1 SWAP2 SSTORE PUSH1 0x7 DUP1 SLOAD PUSH1 0x1 PUSH1 0x1 PUSH1 0xA0 SHL SUB NOT AND PUSH1 0x1 PUSH1 0x1 PUSH1 0xA0 SHL SUB SWAP6 DUP7 AND SWAP1 DUP2 OR SWAP1 SWAP2 SSTORE PUSH1 0x8 DUP1 SLOAD PUSH1 0x1 PUSH1 0x1 PUSH1 0xC0 SHL SUB NOT AND PUSH1 0x24 CALLDATALOAD DUP8 AND SWAP1 DUP2 OR SWAP10 SWAP1 SWAP11 AND PUSH1 0xA0 DUP2 DUP2 SHL SWAP11 SWAP1 SWAP11 OR SWAP1 SWAP2 SSTORE DUP3 MLOAD SWAP13 DUP14 MSTORE PUSH1 0x20 DUP14 ADD SWAP7 SWAP1 SWAP7 MSTORE PUSH8 0xFFFFFFFFFFFFFFFF SWAP1 SWAP15 AND SWAP1 DUP12 ADD MSTORE SWAP8 SWAP1 SWAP2 AND PUSH1 0x60 DUP10 ADD MSTORE DUP8 ADD SWAP10 SWAP1 SWAP10 MSTORE SWAP4 SWAP8 SWAP2 SWAP5 SWAP2 SWAP4 DUP3 SWAP2 DUP3 ADD SWAP1 JUMP JUMPDEST SUB SWAP1 LOG3 DUP3 MLOAD PUSH1 0x1 PUSH1 0x1 PUSH1 0xA0 SHL SUB AND DUP1 EXTCODESIZE PUSH2 0xA20 JUMPI DUP5 DUP1 RETURN JUMPDEST DUP5 DUP4 MLOAD SWAP2 PUSH8 0xFFFFFFFFFFFFFFFF DUP5 MLOAD AND SWAP1 DUP1 EXTCODESIZE ISZERO PUSH2 0x3EC JUMPI PUSH1 0x40 MLOAD PUSH4 0xCC247E5 PUSH1 0xE1 SHL DUP2 MSTORE PUSH1 0x4 DUP2 ADD SWAP5 SWAP1 SWAP5 MSTORE PUSH8 0xFFFFFFFFFFFFFFFF SWAP2 SWAP1 SWAP2 AND PUSH1 0x24 DUP5 ADD MSTORE DUP3 SWAP1 PUSH1 0x44 SWAP1 DUP3 SWAP1 DUP5 SWAP1 GAS CALL SWAP1 DUP2 PUSH2 0xB94 JUMPI JUMPDEST POP PUSH2 0xB41 JUMPI POP POP RETURNDATASIZE ISZERO PUSH2 0xB15 JUMPI RETURNDATASIZE SWAP1 PUSH8 0xFFFFFFFFFFFFFFFF DUP3 GT PUSH2 0xB01 JUMPI PUSH2 0xAF5 PUSH32 0x337B251F7D34D96560F7FD33E148F1380BED7A7FEEF37A1366E6CF004C6FB022 SWAP2 PUSH1 0x40 MLOAD SWAP4 PUSH2 0xACC PUSH1 0x20 PUSH1 0x1F NOT PUSH1 0x1F DUP5 ADD AND ADD DUP7 PUSH2 0xDDA JUMP JUMPDEST DUP5 MSTORE RETURNDATASIZE DUP6 PUSH1 0x20 DUP7 ADD RETURNDATACOPY JUMPDEST PUSH1 0x1 DUP1 PUSH1 0xA0 SHL SUB SWAP1 MLOAD AND SWAP3 PUSH1 0x40 MLOAD SWAP2 DUP3 SWAP2 PUSH1 0x20 DUP4 MSTORE PUSH1 0x20 DUP4 ADD SWAP1 PUSH2 0xE12 JUMP JUMPDEST SUB SWAP1 LOG2 JUMPDEST CODESIZE DUP1 DUP1 DUP1 DUP5 DUP1 RETURN JUMPDEST PUSH4 0x4E487B71 PUSH1 0xE0 SHL DUP4 MSTORE PUSH1 0x41 PUSH1 0x4 MSTORE PUSH1 0x24 DUP4 REVERT JUMPDEST PUSH32 0x337B251F7D34D96560F7FD33E148F1380BED7A7FEEF37A1366E6CF004C6FB022 PUSH2 0xAF5 PUSH1 0x60 SWAP3 PUSH2 0xAD6 JUMP JUMPDEST SWAP2 MLOAD SWAP1 MLOAD SWAP2 MLOAD PUSH1 0x40 DUP1 MLOAD SWAP4 DUP5 MSTORE PUSH8 0xFFFFFFFFFFFFFFFF SWAP1 SWAP2 AND PUSH1 0x20 DUP5 ADD MSTORE PUSH1 0x1 PUSH1 0x1 PUSH1 0xA0 SHL SUB SWAP1 SWAP2 AND SWAP2 PUSH32 0xFEFDCDAD2593CACCC74BE409F7D2A7B61448A7650C8E79477AE9ABC21D1D2E9B SWAP2 SWAP1 LOG2 PUSH2 0xAF9 JUMP JUMPDEST DUP6 PUSH2 0xBA1 SWAP2 SWAP7 SWAP3 SWAP7 PUSH2 0xDDA JUMP JUMPDEST SWAP4 CODESIZE PUSH2 0xA71 JUMP JUMPDEST DUP8 DUP1 REVERT JUMPDEST PUSH4 0x4E487B71 PUSH1 0xE0 SHL DUP6 MSTORE PUSH1 0x41 PUSH1 0x4 MSTORE PUSH1 0x24 DUP6 REVERT JUMPDEST PUSH1 0x40 MLOAD PUSH3 0x461BCD PUSH1 0xE5 SHL DUP2 MSTORE PUSH1 0x20 PUSH1 0x4 DUP3 ADD MSTORE PUSH1 0x15 PUSH1 0x24 DUP3 ADD MSTORE PUSH21 0x13DB9B1E4813585A5B189BDE0818D85B8818D85B1B PUSH1 0x5A SHL PUSH1 0x44 DUP3 ADD MSTORE PUSH1 0x64 SWAP1 REVERT JUMPDEST DUP4 DUP1 REVERT JUMPDEST POP CALLVALUE PUSH2 0x1A6 JUMPI DUP1 PUSH1 0x3 NOT CALLDATASIZE ADD SLT PUSH2 0x1A6 JUMPI PUSH1 0x2 SLOAD PUSH2 0xC7D SWAP1 PUSH1 0x20 SWAP1 PUSH1 0x1 PUSH1 0x1 PUSH1 0xA0 SHL SUB AND PUSH2 0xC30 DUP2 ISZERO ISZERO PUSH2 0xD4A JUMP JUMPDEST PUSH1 0x1 SLOAD PUSH4 0xFFFFFFFF DUP2 PUSH1 0xA0 SHR AND SWAP2 PUSH2 0xC49 DUP4 ISZERO ISZERO PUSH2 0xD96 JUMP JUMPDEST PUSH1 0x40 MLOAD SWAP3 CALLER DUP6 DUP6 ADD MSTORE DUP5 DUP5 MSTORE PUSH2 0xC60 PUSH1 0x40 DUP6 PUSH2 0xDDA JUMP JUMPDEST PUSH1 0x40 MLOAD PUSH4 0x138857A3 PUSH1 0xE3 SHL DUP2 MSTORE SWAP6 DUP7 SWAP5 DUP6 SWAP4 DUP5 SWAP4 PUSH1 0x4 DUP6 ADD PUSH2 0xE53 JUMP JUMPDEST SUB SWAP2 PUSH1 0x1 PUSH1 0x1 PUSH1 0xA0 SHL SUB AND GAS STATICCALL SWAP1 DUP2 ISZERO PUSH2 0xCDD JUMPI DUP3 SWAP2 PUSH2 0xCA3 JUMPI JUMPDEST PUSH1 0x20 DUP3 PUSH1 0x40 MLOAD SWAP1 DUP2 MSTORE RETURN JUMPDEST SWAP1 POP PUSH1 0x20 DUP2 RETURNDATASIZE PUSH1 0x20 GT PUSH2 0xCD5 JUMPI JUMPDEST DUP2 PUSH2 0xCBE PUSH1 0x20 SWAP4 DUP4 PUSH2 0xDDA JUMP JUMPDEST DUP2 ADD SUB SLT PUSH2 0xCD1 JUMPI PUSH1 0x20 SWAP2 POP MLOAD CODESIZE PUSH2 0xC98 JUMP JUMPDEST POP DUP1 REVERT JUMPDEST RETURNDATASIZE SWAP2 POP PUSH2 0xCB1 JUMP JUMPDEST PUSH1 0x40 MLOAD RETURNDATASIZE DUP5 DUP3 RETURNDATACOPY RETURNDATASIZE SWAP1 REVERT JUMPDEST SWAP1 POP CALLVALUE PUSH2 0xCD1 JUMPI DUP2 PUSH1 0x3 NOT CALLDATASIZE ADD SLT PUSH2 0xCD1 JUMPI PUSH1 0x8 SLOAD PUSH1 0x1 PUSH1 0x1 PUSH1 0xA0 SHL SUB AND DUP2 MSTORE PUSH1 0x20 SWAP1 RETURN JUMPDEST PUSH1 0x4 CALLDATALOAD SWAP1 PUSH4 0xFFFFFFFF DUP3 AND DUP3 SUB PUSH2 0x6A2 JUMPI JUMP JUMPDEST PUSH1 0x4 CALLDATALOAD SWAP1 PUSH1 0x1 PUSH1 0x1 PUSH1 0xA0 SHL SUB DUP3 AND DUP3 SUB PUSH2 0x6A2 JUMPI JUMP JUMPDEST CALLDATALOAD SWAP1 PUSH1 0x1 PUSH1 0x1 PUSH1 0xA0 SHL SUB DUP3 AND DUP3 SUB PUSH2 0x6A2 JUMPI JUMP JUMPDEST ISZERO PUSH2 0xD51 JUMPI JUMP JUMPDEST PUSH1 0x40 MLOAD PUSH3 0x461BCD PUSH1 0xE5 SHL DUP2 MSTORE PUSH1 0x20 PUSH1 0x4 DUP3 ADD MSTORE PUSH1 0x17 PUSH1 0x24 DUP3 ADD MSTORE PUSH32 0x536F7572636520636F6E7472616374206E6F7420736574000000000000000000 PUSH1 0x44 DUP3 ADD MSTORE PUSH1 0x64 SWAP1 REVERT JUMPDEST ISZERO PUSH2 0xD9D JUMPI JUMP JUMPDEST PUSH1 0x40 MLOAD PUSH3 0x461BCD PUSH1 0xE5 SHL DUP2 MSTORE PUSH1 0x20 PUSH1 0x4 DUP3 ADD MSTORE PUSH1 0x15 PUSH1 0x24 DUP3 ADD MSTORE PUSH21 0x14DBDD5C98D948191BDB585A5B881B9BDD081CD95D PUSH1 0x5A SHL PUSH1 0x44 DUP3 ADD MSTORE PUSH1 0x64 SWAP1 REVERT JUMPDEST SWAP1 PUSH1 0x1F DUP1 NOT SWAP2 ADD AND DUP2 ADD SWAP1 DUP2 LT PUSH8 0xFFFFFFFFFFFFFFFF DUP3 GT OR PUSH2 0xDFC JUMPI PUSH1 0x40 MSTORE JUMP JUMPDEST PUSH4 0x4E487B71 PUSH1 0xE0 SHL PUSH1 0x0 MSTORE PUSH1 0x41 PUSH1 0x4 MSTORE PUSH1 0x24 PUSH1 0x0 REVERT JUMPDEST SWAP2 SWAP1 DUP3 MLOAD SWAP3 DUP4 DUP3 MSTORE PUSH1 0x0 JUMPDEST DUP5 DUP2 LT PUSH2 0xE3E JUMPI POP POP DUP3 PUSH1 0x0 PUSH1 0x20 DUP1 SWAP5 SWAP6 DUP5 ADD ADD MSTORE PUSH1 0x1F DUP1 NOT SWAP2 ADD AND ADD ADD SWAP1 JUMP JUMPDEST DUP1 PUSH1 0x20 DUP1 SWAP3 DUP5 ADD ADD MLOAD DUP3 DUP3 DUP7 ADD ADD MSTORE ADD PUSH2 0xE1D JUMP JUMPDEST PUSH2 0xE75 SWAP4 SWAP3 PUSH4 0xFFFFFFFF PUSH1 0x60 SWAP4 AND DUP3 MSTORE PUSH1 0x20 DUP3 ADD MSTORE DUP2 PUSH1 0x40 DUP3 ADD MSTORE ADD SWAP1 PUSH2 0xE12 JUMP JUMPDEST SWAP1 JUMP JUMPDEST PUSH1 0x0 SLOAD PUSH1 0x1 PUSH1 0x1 PUSH1 0xA0 SHL SUB AND CALLER SUB PUSH2 0xE8C JUMPI JUMP JUMPDEST PUSH4 0x118CDAA7 PUSH1 0xE0 SHL PUSH1 0x0 MSTORE CALLER PUSH1 0x4 MSTORE PUSH1 0x24 PUSH1 0x0 REVERT INVALID LOG2 PUSH5 0x6970667358 0x22 SLT KECCAK256 0x4D TLOAD TIMESTAMP PUSH32 0x3B58CD5DF13A1BAE3E731F0360AC244368F937D9116FB8394DD2407A64736F6C PUSH4 0x4300081C STOP CALLER "
        },
        "methodIdentifiers": {
          "MAILBOX_ADDRESS()": "b85ec505",
          "addAllowedRequester(address)": "ec6a2192",
          "allowedRequesters(address)": "ae983a42",
          "handle(uint32,bytes32,bytes)": "56d5d475",
          "isAllowedRequester(address)": "698a93d1",
          "lastEntropyData()": "bf4d0407",
          "lastOriginDomain()": "77cbf812",
          "lastSender()": "256fec88",
          "mailbox()": "d5438eae",
          "owner()": "8da5cb5b",
          "quoteRequestEntropy()": "3e0204b6",
          "removeAllowedRequester(address)": "f7d235c4",
          "renounceOwnership()": "715018a6",
          "requestEntropy()": "b13038a1",
          "setSourceConfig(uint32,address)": "c10af2c9",
          "sourceContract()": "a444ae41",
          "sourceDomain()": "8ddb4a89",
          "transferOwnership(address)": "f2fde38b"
        }
      }
    }
  }
}