{
  "contracts/TradingCardGame.sol": {
    "TradingCardGame": {
      "abi": [
        {
          "inputs": [
            {
              "internalType": "address",
              "name": "_pythAddress",
              "type": "address"
            }
          ],
          "stateMutability": "nonpayable",
          "type": "constructor"
        },
        {
          "anonymous": false,
          "inputs": [
            {
              "indexed": true,
              "internalType": "uint256",
              "name": "gameId",
              "type": "uint256"
            },
            {
              "indexed": true,
              "internalType": "address",
              "name": "player",
              "type": "address"
            },
            {
              "indexed": false,
              "internalType": "uint256[3]",
              "name": "cards",
              "type": "uint256[3]"
            }
          ],
          "name": "ChoicesCommitted",
          "type": "event"
        },
        {
          "anonymous": false,
          "inputs": [
            {
              "indexed": true,
              "internalType": "uint256",
              "name": "gameId",
              "type": "uint256"
            },
            {
              "indexed": false,
              "internalType": "uint256[]",
              "name": "cards",
              "type": "uint256[]"
            }
          ],
          "name": "GameActive",
          "type": "event"
        },
        {
          "anonymous": false,
          "inputs": [
            {
              "indexed": true,
              "internalType": "uint256",
              "name": "gameId",
              "type": "uint256"
            }
          ],
          "name": "GameEnded",
          "type": "event"
        },
        {
          "anonymous": false,
          "inputs": [
            {
              "indexed": true,
              "internalType": "uint256",
              "name": "gameId",
              "type": "uint256"
            },
            {
              "indexed": true,
              "internalType": "address",
              "name": "starter",
              "type": "address"
            }
          ],
          "name": "GameStarted",
          "type": "event"
        },
        {
          "anonymous": false,
          "inputs": [
            {
              "indexed": true,
              "internalType": "uint256",
              "name": "gameId",
              "type": "uint256"
            },
            {
              "indexed": true,
              "internalType": "address",
              "name": "player",
              "type": "address"
            }
          ],
          "name": "PlayerJoined",
          "type": "event"
        },
        {
          "anonymous": false,
          "inputs": [
            {
              "indexed": true,
              "internalType": "uint256",
              "name": "gameId",
              "type": "uint256"
            },
            {
              "indexed": true,
              "internalType": "address",
              "name": "player",
              "type": "address"
            },
            {
              "indexed": false,
              "internalType": "uint256",
              "name": "points",
              "type": "uint256"
            }
          ],
          "name": "PointsAwarded",
          "type": "event"
        },
        {
          "anonymous": false,
          "inputs": [
            {
              "indexed": true,
              "internalType": "uint256",
              "name": "gameId",
              "type": "uint256"
            }
          ],
          "name": "PricesUpdated",
          "type": "event"
        },
        {
          "inputs": [],
          "name": "CHOICE_DURATION",
          "outputs": [
            {
              "internalType": "uint256",
              "name": "",
              "type": "uint256"
            }
          ],
          "stateMutability": "view",
          "type": "function"
        },
        {
          "inputs": [],
          "name": "LOBBY_DURATION",
          "outputs": [
            {
              "internalType": "uint256",
              "name": "",
              "type": "uint256"
            }
          ],
          "stateMutability": "view",
          "type": "function"
        },
        {
          "inputs": [],
          "name": "MIN_PLAYERS",
          "outputs": [
            {
              "internalType": "uint256",
              "name": "",
              "type": "uint256"
            }
          ],
          "stateMutability": "view",
          "type": "function"
        },
        {
          "inputs": [],
          "name": "POINTS_MARKET_CAP_VOLUME",
          "outputs": [
            {
              "internalType": "uint256",
              "name": "",
              "type": "uint256"
            }
          ],
          "stateMutability": "view",
          "type": "function"
        },
        {
          "inputs": [],
          "name": "POINTS_PERCENTAGE_CHANGE",
          "outputs": [
            {
              "internalType": "uint256",
              "name": "",
              "type": "uint256"
            }
          ],
          "stateMutability": "view",
          "type": "function"
        },
        {
          "inputs": [],
          "name": "POINTS_PRICE_ABOVE_BELOW",
          "outputs": [
            {
              "internalType": "uint256",
              "name": "",
              "type": "uint256"
            }
          ],
          "stateMutability": "view",
          "type": "function"
        },
        {
          "inputs": [],
          "name": "POINTS_PRICE_UP_DOWN",
          "outputs": [
            {
              "internalType": "uint256",
              "name": "",
              "type": "uint256"
            }
          ],
          "stateMutability": "view",
          "type": "function"
        },
        {
          "inputs": [],
          "name": "RESOLUTION_DURATION",
          "outputs": [
            {
              "internalType": "uint256",
              "name": "",
              "type": "uint256"
            }
          ],
          "stateMutability": "view",
          "type": "function"
        },
        {
          "inputs": [
            {
              "internalType": "uint256",
              "name": "",
              "type": "uint256"
            }
          ],
          "name": "assetPriceIds",
          "outputs": [
            {
              "internalType": "bytes32",
              "name": "",
              "type": "bytes32"
            }
          ],
          "stateMutability": "view",
          "type": "function"
        },
        {
          "inputs": [
            {
              "internalType": "uint256",
              "name": "_gameId",
              "type": "uint256"
            }
          ],
          "name": "canStartGame",
          "outputs": [
            {
              "internalType": "bool",
              "name": "canStart",
              "type": "bool"
            },
            {
              "internalType": "string",
              "name": "reason",
              "type": "string"
            }
          ],
          "stateMutability": "view",
          "type": "function"
        },
        {
          "inputs": [
            {
              "internalType": "uint256",
              "name": "_gameId",
              "type": "uint256"
            },
            {
              "internalType": "uint256[3]",
              "name": "_cardNumbers",
              "type": "uint256[3]"
            }
          ],
          "name": "commitChoices",
          "outputs": [],
          "stateMutability": "nonpayable",
          "type": "function"
        },
        {
          "inputs": [],
          "name": "createGame",
          "outputs": [
            {
              "internalType": "uint256",
              "name": "",
              "type": "uint256"
            }
          ],
          "stateMutability": "nonpayable",
          "type": "function"
        },
        {
          "inputs": [
            {
              "internalType": "uint256",
              "name": "_gameId",
              "type": "uint256"
            }
          ],
          "name": "endGame",
          "outputs": [],
          "stateMutability": "nonpayable",
          "type": "function"
        },
        {
          "inputs": [
            {
              "internalType": "uint256",
              "name": "",
              "type": "uint256"
            }
          ],
          "name": "games",
          "outputs": [
            {
              "internalType": "uint256",
              "name": "gameId",
              "type": "uint256"
            },
            {
              "internalType": "enum TradingCardGame.GameStatus",
              "name": "status",
              "type": "uint8"
            },
            {
              "internalType": "uint256",
              "name": "startTime",
              "type": "uint256"
            },
            {
              "internalType": "uint256",
              "name": "lobbyDeadline",
              "type": "uint256"
            },
            {
              "internalType": "uint256",
              "name": "choiceDeadline",
              "type": "uint256"
            },
            {
              "internalType": "uint256",
              "name": "resolutionDeadline",
              "type": "uint256"
            },
            {
              "internalType": "bool",
              "name": "resolved",
              "type": "bool"
            }
          ],
          "stateMutability": "view",
          "type": "function"
        },
        {
          "inputs": [
            {
              "internalType": "uint256",
              "name": "_gameId",
              "type": "uint256"
            }
          ],
          "name": "getGameCards",
          "outputs": [
            {
              "internalType": "uint256[]",
              "name": "",
              "type": "uint256[]"
            }
          ],
          "stateMutability": "view",
          "type": "function"
        },
        {
          "inputs": [
            {
              "internalType": "uint256",
              "name": "_gameId",
              "type": "uint256"
            }
          ],
          "name": "getGamePlayers",
          "outputs": [
            {
              "internalType": "address[]",
              "name": "",
              "type": "address[]"
            }
          ],
          "stateMutability": "view",
          "type": "function"
        },
        {
          "inputs": [
            {
              "internalType": "uint256",
              "name": "_gameId",
              "type": "uint256"
            }
          ],
          "name": "getGameState",
          "outputs": [
            {
              "internalType": "enum TradingCardGame.GameStatus",
              "name": "status",
              "type": "uint8"
            },
            {
              "internalType": "uint256",
              "name": "startTime",
              "type": "uint256"
            },
            {
              "internalType": "uint256",
              "name": "lobbyDeadline",
              "type": "uint256"
            },
            {
              "internalType": "uint256",
              "name": "choiceDeadline",
              "type": "uint256"
            },
            {
              "internalType": "uint256",
              "name": "resolutionDeadline",
              "type": "uint256"
            },
            {
              "internalType": "uint256",
              "name": "playerCount",
              "type": "uint256"
            },
            {
              "internalType": "uint256",
              "name": "cardCount",
              "type": "uint256"
            }
          ],
          "stateMutability": "view",
          "type": "function"
        },
        {
          "inputs": [],
          "name": "getNextGameId",
          "outputs": [
            {
              "internalType": "uint256",
              "name": "",
              "type": "uint256"
            }
          ],
          "stateMutability": "view",
          "type": "function"
        },
        {
          "inputs": [
            {
              "internalType": "uint256",
              "name": "_gameId",
              "type": "uint256"
            },
            {
              "internalType": "address",
              "name": "_player",
              "type": "address"
            }
          ],
          "name": "getPlayerChoices",
          "outputs": [
            {
              "internalType": "uint256[3]",
              "name": "selectedCards",
              "type": "uint256[3]"
            },
            {
              "internalType": "uint256",
              "name": "committedAt",
              "type": "uint256"
            },
            {
              "internalType": "bool",
              "name": "committed",
              "type": "bool"
            }
          ],
          "stateMutability": "view",
          "type": "function"
        },
        {
          "inputs": [
            {
              "internalType": "address",
              "name": "_player",
              "type": "address"
            }
          ],
          "name": "getPlayerScore",
          "outputs": [
            {
              "internalType": "uint256",
              "name": "totalPoints",
              "type": "uint256"
            },
            {
              "internalType": "uint256",
              "name": "gamesPlayed",
              "type": "uint256"
            },
            {
              "internalType": "uint256",
              "name": "gamesWon",
              "type": "uint256"
            }
          ],
          "stateMutability": "view",
          "type": "function"
        },
        {
          "inputs": [
            {
              "internalType": "uint256",
              "name": "_gameId",
              "type": "uint256"
            },
            {
              "internalType": "uint256",
              "name": "_cardNumber",
              "type": "uint256"
            }
          ],
          "name": "getPredictionResult",
          "outputs": [
            {
              "internalType": "bool",
              "name": "correct",
              "type": "bool"
            },
            {
              "internalType": "uint256",
              "name": "pointsEarned",
              "type": "uint256"
            }
          ],
          "stateMutability": "view",
          "type": "function"
        },
        {
          "inputs": [],
          "name": "isContractActive",
          "outputs": [
            {
              "internalType": "bool",
              "name": "",
              "type": "bool"
            }
          ],
          "stateMutability": "pure",
          "type": "function"
        },
        {
          "inputs": [
            {
              "internalType": "uint256",
              "name": "_gameId",
              "type": "uint256"
            }
          ],
          "name": "joinGame",
          "outputs": [],
          "stateMutability": "nonpayable",
          "type": "function"
        },
        {
          "inputs": [
            {
              "internalType": "uint256",
              "name": "",
              "type": "uint256"
            }
          ],
          "name": "leaderboard",
          "outputs": [
            {
              "internalType": "address",
              "name": "",
              "type": "address"
            }
          ],
          "stateMutability": "view",
          "type": "function"
        },
        {
          "inputs": [
            {
              "internalType": "address",
              "name": "",
              "type": "address"
            }
          ],
          "name": "playerScores",
          "outputs": [
            {
              "internalType": "address",
              "name": "player",
              "type": "address"
            },
            {
              "internalType": "uint256",
              "name": "totalPoints",
              "type": "uint256"
            },
            {
              "internalType": "uint256",
              "name": "gamesPlayed",
              "type": "uint256"
            },
            {
              "internalType": "uint256",
              "name": "gamesWon",
              "type": "uint256"
            }
          ],
          "stateMutability": "view",
          "type": "function"
        },
        {
          "inputs": [],
          "name": "pyth",
          "outputs": [
            {
              "internalType": "contract IPyth",
              "name": "",
              "type": "address"
            }
          ],
          "stateMutability": "view",
          "type": "function"
        },
        {
          "inputs": [
            {
              "internalType": "uint256",
              "name": "_assetIndex",
              "type": "uint256"
            },
            {
              "internalType": "bytes32",
              "name": "_priceId",
              "type": "bytes32"
            }
          ],
          "name": "setAssetPriceId",
          "outputs": [],
          "stateMutability": "nonpayable",
          "type": "function"
        },
        {
          "inputs": [
            {
              "internalType": "uint256",
              "name": "_gameId",
              "type": "uint256"
            },
            {
              "internalType": "bool",
              "name": "_useSecureRandomness",
              "type": "bool"
            }
          ],
          "name": "startGame",
          "outputs": [],
          "stateMutability": "nonpayable",
          "type": "function"
        },
        {
          "inputs": [
            {
              "internalType": "uint256",
              "name": "_gameId",
              "type": "uint256"
            },
            {
              "internalType": "bytes[]",
              "name": "_priceUpdateData",
              "type": "bytes[]"
            },
            {
              "internalType": "bytes32[]",
              "name": "",
              "type": "bytes32[]"
            },
            {
              "internalType": "uint256",
              "name": "_updateFee",
              "type": "uint256"
            }
          ],
          "name": "updatePricesAndResolve",
          "outputs": [],
          "stateMutability": "payable",
          "type": "function"
        }
      ],
      "evm": {
        "bytecode": {
          "linkReferences": {},
          "object": "60a0604052348015600f57600080fd5b50604051612302380380612302833981016040819052602c916041565b6001600160a01b03166080526001600055606f565b600060208284031215605257600080fd5b81516001600160a01b0381168114606857600080fd5b9392505050565b6080516122716100916000396000818161062c0152610baf01526122716000f3fe6080604052600436106101c25760003560e01c80638f5949f9116100f7578063e085c53911610095578063efaa55a011610064578063efaa55a0146105da578063f79c913e146105fa578063f98d06f01461061a578063ffde0c741461064e57600080fd5b8063e085c5391461054a578063e5c43ef114610348578063e7fad8af146105b0578063ede8af01146105c557600080fd5b8063bee4c6d3116100d1578063bee4c6d3146104bd578063bf368399146104d2578063d0399bb81461050a578063d7793c191461052a57600080fd5b80638f5949f914610479578063a457d3d614610495578063b0fd159f146104a857600080fd5b80635c5c8382116101645780637ca90e591161013e5780637ca90e59146103ea5780637f57504f1461040057806385f07bbe14610437578063860cbc771461044c57600080fd5b80635c5c83821461034857806362550ae11461035d5780637255d729146103d557600080fd5b806315a40f49116101a057806315a40f4914610291578063392b749c146102be5780633c8aec3f146102ec57806353644f311461031957600080fd5b806310c28d31146101c7578063117a5b90146101ff5780631226897a1461026e575b600080fd5b3480156101d357600080fd5b506101e76101e2366004611b43565b610681565b6040516101f693929190611b92565b60405180910390f35b34801561020b57600080fd5b5061025b61021a366004611bb6565b60016020819052600091825260409091208054918101546002820154600383015460048401546005850154600a9095015460ff948516959394929391921687565b6040516101f69796959493929190611c07565b34801561027a57600080fd5b50610283601481565b6040519081526020016101f6565b34801561029d57600080fd5b506102b16102ac366004611bb6565b61073d565b6040516101f69190611c46565b3480156102ca57600080fd5b506102de6102d9366004611bb6565b6107db565b6040516101f6929190611cd8565b3480156102f857600080fd5b50610283610307366004611bb6565b60046020526000908152604090205481565b34801561032557600080fd5b50610346610334366004611cfb565b60009182526004602052604090912055565b005b34801561035457600080fd5b50610283603c81565b34801561036957600080fd5b506103ab610378366004611d1d565b600260208190526000918252604090912080546001820154928201546003909201546001600160a01b0390911692919084565b604080516001600160a01b03909516855260208501939093529183015260608201526080016101f6565b3480156103e157600080fd5b506102836108e8565b3480156103f657600080fd5b5061028361025881565b34801561040c57600080fd5b5061042061041b366004611cfb565b610993565b6040805192151583526020830191909152016101f6565b34801561044357600080fd5b50610283600281565b34801561045857600080fd5b5061046c610467366004611bb6565b6109f6565b6040516101f69190611d3f565b34801561048557600080fd5b50604051600181526020016101f6565b6103466104a3366004611e4f565b610a89565b3480156104b457600080fd5b50610283601281565b3480156104c957600080fd5b50610283600f81565b3480156104de57600080fd5b506104f26104ed366004611bb6565b610c5a565b6040516001600160a01b0390911681526020016101f6565b34801561051657600080fd5b50610346610525366004611bb6565b610c84565b34801561053657600080fd5b50610346610545366004611fa5565b610fc5565b34801561055657600080fd5b50610595610565366004611d1d565b6001600160a01b031660009081526002602081905260409091206001810154918101546003909101549192909190565b604080519384526020840192909252908201526060016101f6565b3480156105bc57600080fd5b50610283600a81565b3480156105d157600080fd5b50600054610283565b3480156105e657600080fd5b506103466105f5366004611bb6565b6110a7565b34801561060657600080fd5b50610346610615366004611fda565b611253565b34801561062657600080fd5b506104f27f000000000000000000000000000000000000000000000000000000000000000081565b34801561065a57600080fd5b5061066e610669366004611bb6565b61164c565b6040516101f69796959493929190612063565b610689611ab6565b6000808460008111801561069e575060005481105b6106c35760405162461bcd60e51b81526004016106ba906120a1565b60405180910390fd5b60008681526001602081815260408084206001600160a01b038a168552600801909152918290206004810154600582015484516060810195869052929493850193919260ff90911691849060039082845b815481526020019060010190808311610714575050505050925094509450945050509250925092565b606081600081118015610751575060005481105b61076d5760405162461bcd60e51b81526004016106ba906120a1565b600083815260016020908152604091829020600601805483518184028101840190945280845290918301828280156107ce57602002820191906000526020600020905b81546001600160a01b031681526001909101906020018083116107b0575b5050505050915050919050565b60006060826000811180156107f1575060005481105b61080d5760405162461bcd60e51b81526004016106ba906120a1565b600084815260016020526040812090600182015460ff16600481111561083557610835611bcf565b1461087c5760006040518060400160405280601a81526020017f47616d65206973206e6f7420696e204c4f42425920737461746500000000000081525093509350506108e2565b80600301544210156108ca5760006040518060400160405280601a81526020017f4c6f62627920646561646c696e65206e6f74207265616368656400000000000081525093509350506108e2565b60016040518060200160405280600081525093509350505b50915091565b60008054819081806108f9836120e0565b909155506000818152600160208190526040909120828155908101805460ff1916905542600282018190559192509061093490603c906120f9565b60038201556006810180546001810182556000918252602082200180546001600160a01b03191633908117909155604051909184917ffadb9547847a0c2c31f4c02590545e318d33d7aae99071caecf3fa4ce3cd7dca9190a350919050565b600080836000811180156109a8575060005481105b6109c45760405162461bcd60e51b81526004016106ba906120a1565b50505060009182526001602081815260408085209385526009909301905291209081015460029091015460ff90911691565b606081600081118015610a0a575060005481105b610a265760405162461bcd60e51b81526004016106ba906120a1565b600083815260016020908152604091829020600701805483518184028101840190945280845290918301828280156107ce57602002820191906000526020600020905b815481526020019060010190808311610a69575050505050915050919050565b83600081118015610a9b575060005481105b610ab75760405162461bcd60e51b81526004016106ba906120a1565b846003806000838152600160208190526040909120015460ff166004811115610ae257610ae2611bcf565b14610aff5760405162461bcd60e51b81526004016106ba9061210c565b600087815260016020526040902034851115610b505760405162461bcd60e51b815260206004820152601060248201526f496e73756666696369656e742066656560801b60448201526064016106ba565b600a81015460ff1615610b985760405162461bcd60e51b815260206004820152601060248201526f105b1c9958591e481c995cdbdb1d995960821b60448201526064016106ba565b604051631df3cbc560e31b81526001600160a01b037f0000000000000000000000000000000000000000000000000000000000000000169063ef9e5e28908790610be6908b90600401612139565b6000604051808303818588803b158015610bff57600080fd5b505af1158015610c13573d6000803e3d6000fd5b50506040518b93507f702ec30635253cae6d3600d38314e616495cf01545d34e549c49ebf6451dab3b925060009150a2600a01805460ff1916600117905550505050505050565b60038181548110610c6a57600080fd5b6000918252602090912001546001600160a01b0316905081565b80600081118015610c96575060005481105b610cb25760405162461bcd60e51b81526004016106ba906120a1565b816003806000838152600160208190526040909120015460ff166004811115610cdd57610cdd611bcf565b14610cfa5760405162461bcd60e51b81526004016106ba9061210c565b60008481526001602052604090206005810154421015610d5c5760405162461bcd60e51b815260206004820152601f60248201527f5265736f6c7574696f6e20646561646c696e65206e6f7420726561636865640060448201526064016106ba565b60005b6006820154811015610f83576000826006018281548110610d8257610d8261219e565b60009182526020808320909101546001600160a01b031680835260088601909152604090912060058101549192509060ff16610dbf575050610f7b565b6000805b6003811015610ea3576000836001018260038110610de357610de361219e565b0154600081815260098901602052604090206001015490915060ff16610e7a576000610e0f8c836116d2565b9050600081610e1f576000610e28565b610e28836116db565b604080516060810182528581529315156020808601918252858301938452600087815260098e0190915291909120935184555160018401805460ff191691151591909117905551600290920191909155505b6000818152600988016020526040902060020154610e9890846120f9565b925050600101610dc3565b506001600160a01b03831660009081526002602052604081206001018054839290610ecf9084906120f9565b90915550506001600160a01b0383166000908152600260208190526040822001805491610efb836120e0565b90915550508015610f33576001600160a01b0383166000908152600260205260408120600301805491610f2d836120e0565b91905055505b826001600160a01b0316897f0dbadce3c07b5bc30ebbe2bcec3d6bb95f9b3a0bb33178ff0d61e4d7d433991583604051610f6f91815260200190565b60405180910390a35050505b600101610d5f565b5060018101805460ff1916600417905560405185907fce24807f7e4b60b4e641462f13029fa5e5f79075bbc3f8e5cd43ecd19661d76090600090a25050505050565b81600081118015610fd7575060005481105b610ff35760405162461bcd60e51b81526004016106ba906120a1565b826000806000838152600160208190526040909120015460ff16600481111561101e5761101e611bcf565b1461103b5760405162461bcd60e51b81526004016106ba9061210c565b600085815260016020526040902060038101544210156110955760405162461bcd60e51b815260206004820152601560248201527410d85b9b9bdd081cdd185c9d0819d85b59481e595d605a1b60448201526064016106ba565b61109f8686611803565b505050505050565b806000811180156110b9575060005481105b6110d55760405162461bcd60e51b81526004016106ba906120a1565b816000806000838152600160208190526040909120015460ff16600481111561110057611100611bcf565b1461111d5760405162461bcd60e51b81526004016106ba9061210c565b6000848152600160205260409020600381015442111561116e5760405162461bcd60e51b815260206004820152600c60248201526b131bd8989e4818db1bdcd95960a21b60448201526064016106ba565b60005b60068201548110156111f757336001600160a01b031682600601828154811061119c5761119c61219e565b6000918252602090912001546001600160a01b0316036111ef5760405162461bcd60e51b815260206004820152600e60248201526d105b1c9958591e481a9bda5b995960921b60448201526064016106ba565b600101611171565b506006810180546001810182556000918252602082200180546001600160a01b03191633908117909155604051909187917f87969bc7faf902221a147b95ceba76e011c5efb0339a0a8ee7a2bb82d9cfbbd69190a35050505050565b81600081118015611265575060005481105b6112815760405162461bcd60e51b81526004016106ba906120a1565b826002806000838152600160208190526040909120015460ff1660048111156112ac576112ac611bcf565b146112c95760405162461bcd60e51b81526004016106ba9061210c565b600085815260016020526040902060048101544211156113245760405162461bcd60e51b815260206004820152601660248201527510da1bda58d948191958591b1a5b99481c185cdcd95960521b60448201526064016106ba565b33600090815260088201602052604090206005015460ff161561137d5760405162461bcd60e51b8152602060048201526011602482015270105b1c9958591e4818dbdb5b5a5d1d1959607a1b60448201526064016106ba565b6000805b60068301548110156113d757336001600160a01b03168360060182815481106113ac576113ac61219e565b6000918252602090912001546001600160a01b0316036113cf57600191506113d7565b600101611381565b50806114255760405162461bcd60e51b815260206004820152601960248201527f4e6f74206120706c6179657220696e20746869732067616d650000000000000060448201526064016106ba565b60005b60038110156114db576000805b600785015481101561148e578883600381106114535761145361219e565b602002015185600701828154811061146d5761146d61219e565b906000526020600020015403611486576001915061148e565b600101611435565b50806114d25760405162461bcd60e51b815260206004820152601360248201527224b73b30b634b21031b0b93210373ab6b132b960691b60448201526064016106ba565b50600101611428565b50604080516080810182523380825260208083018a8152428486015260016060850181905260009384526008880190925293909120825181546001600160a01b0319166001600160a01b03909116178155925191929161153f918301906003611ad4565b5060408281015160048301556060909201516005909101805460ff191691151591909117905551339088907fd67de08bd4ba5b6a6548667370488a8781753615acb89ae1ac1f96f6c270ecf090611597908a906121b4565b60405180910390a3600160005b600684015481101561160b578360080160008560060183815481106115cb576115cb61219e565b60009182526020808320909101546001600160a01b0316835282019290925260400190206005015460ff16611603576000915061160b565b6001016115a4565b50808061161c575082600401544210155b156116425760018301805460ff1916600317905561163c610258426120f9565b60058401555b5050505050505050565b600080600080600080600087600081118015611669575060005481105b6116855760405162461bcd60e51b81526004016106ba906120a1565b50505060009586525050600160208190526040909420938401546002850154600386015460048701546005880154600689015460079099015460ff90951699939892975090955093509190565b60005b92915050565b600080600a6116ea81856121d8565b6116f491906121ec565b905060006117036007836121ec565b600681111561171457611714611bcf565b9050600081600681111561172a5761172a611bcf565b14806117475750600181600681111561174557611745611bcf565b145b156117565750600a9392505050565b600281600681111561176a5761176a611bcf565b14806117875750600381600681111561178557611785611bcf565b145b156117965750600f9392505050565b60048160068111156117aa576117aa611bcf565b14806117c7575060058160068111156117c5576117c5611bcf565b145b156117d6575060129392505050565b60068160068111156117ea576117ea611bcf565b036117f9575060149392505050565b5060009392505050565b600082815260016020526040812090600182015460ff16600481111561182b5761182b611bcf565b1461186c5760405162461bcd60e51b815260206004820152601160248201527047616d65206e6f7420696e206c6f62627960781b60448201526064016106ba565b61187683836118d7565b60018101805460ff19166002179055611890603c426120f9565b600482015560405183907f1e16023bc0e15b4ad55f8e37dccf554d1451b0d26c8e55cd0e7e041eea33c75d906118ca906007850190612200565b60405180910390a2505050565b60008281526001602052604090206007810154156119375760405162461bcd60e51b815260206004820152601760248201527f436172647320616c72656164792067656e65726174656400000000000000000060448201526064016106ba565b811561194b5761194683611954565b505050565b61194683611a11565b60008181526001602090815260408083208151610140810183526104d2815261162e9381019390935261233491830191909152610d806060830152611ed2608083015261092960a0830152611a8560c08301526111d760e08301526122c561010083015261054d610120830152915b600a811015611a0b57826007018282600a81106119e2576119e261219e565b6020908102919091015182546001818101855560009485529290932090920191909155016119c3565b50505050565b6000818152600160205260408120905b600a8110156119465760408051426020820152449181019190915260608082018590526080820183905233901b6bffffffffffffffffffffffff191660a08201526000906127109060b4016040516020818303038152906040528051906020012060001c611a8f91906121ec565b60078401805460018181018355600092835260209092200191909155919091019050611a21565b60405180606001604052806003906020820280368337509192915050565b8260038101928215611b02579160200282015b82811115611b02578251825591602001919060010190611ae7565b50611b0e929150611b12565b5090565b5b80821115611b0e5760008155600101611b13565b80356001600160a01b0381168114611b3e57600080fd5b919050565b60008060408385031215611b5657600080fd5b82359150611b6660208401611b27565b90509250929050565b8060005b6003811015611a0b578151845260209384019390910190600101611b73565b60a08101611ba08286611b6f565b8360608301528215156080830152949350505050565b600060208284031215611bc857600080fd5b5035919050565b634e487b7160e01b600052602160045260246000fd5b60058110611c0357634e487b7160e01b600052602160045260246000fd5b9052565b87815260e08101611c1b6020830189611be5565b60408201969096526060810194909452608084019290925260a0830152151560c09091015292915050565b602080825282518282018190526000918401906040840190835b81811015611c875783516001600160a01b0316835260209384019390920191600101611c60565b509095945050505050565b6000815180845260005b81811015611cb857602081850181015186830182015201611c9c565b506000602082860101526020601f19601f83011685010191505092915050565b8215158152604060208201526000611cf36040830184611c92565b949350505050565b60008060408385031215611d0e57600080fd5b50508035926020909101359150565b600060208284031215611d2f57600080fd5b611d3882611b27565b9392505050565b602080825282518282018190526000918401906040840190835b81811015611c87578351835260209384019390920191600101611d59565b634e487b7160e01b600052604160045260246000fd5b604051601f8201601f1916810167ffffffffffffffff81118282101715611db657611db6611d77565b604052919050565b600067ffffffffffffffff821115611dd857611dd8611d77565b5060051b60200190565b600082601f830112611df357600080fd5b8135611e06611e0182611dbe565b611d8d565b8082825260208201915060208360051b860101925085831115611e2857600080fd5b602085015b83811015611e45578035835260209283019201611e2d565b5095945050505050565b60008060008060808587031215611e6557600080fd5b84359350602085013567ffffffffffffffff811115611e8357600080fd5b8501601f81018713611e9457600080fd5b8035611ea2611e0182611dbe565b8082825260208201915060208360051b850101925089831115611ec457600080fd5b602084015b83811015611f6857803567ffffffffffffffff811115611ee857600080fd5b8501603f81018c13611ef957600080fd5b602081013567ffffffffffffffff811115611f1657611f16611d77565b611f29601f8201601f1916602001611d8d565b8181526040838301018e1015611f3e57600080fd5b81604084016020830137600060208383010152808652505050602083019250602081019050611ec9565b509550505050604085013567ffffffffffffffff811115611f8857600080fd5b611f9487828801611de2565b949793965093946060013593505050565b60008060408385031215611fb857600080fd5b8235915060208301358015158114611fcf57600080fd5b809150509250929050565b60008060808385031215611fed57600080fd5b82359150603f8301841361200057600080fd5b6040516060810167ffffffffffffffff8111828210171561202357612023611d77565b60405280608085018681111561203857600080fd5b602086015b8181101561205557803583526020928301920161203d565b505050809150509250929050565b60e08101612071828a611be5565b8760208301528660408301528560608301528460808301528360a08301528260c083015298975050505050505050565b6020808252600f908201526e125b9d985b1a590819d85b59481251608a1b604082015260600190565b634e487b7160e01b600052601160045260246000fd5b6000600182016120f2576120f26120ca565b5060010190565b808201808211156116d5576116d56120ca565b602080825260139082015272496e76616c69642067616d652073746174757360681b604082015260600190565b6000602082016020835280845180835260408501915060408160051b86010192506020860160005b8281101561219257603f1987860301845261217d858351611c92565b94506020938401939190910190600101612161565b50929695505050505050565b634e487b7160e01b600052603260045260246000fd5b606081016116d58284611b6f565b634e487b7160e01b600052601260045260246000fd5b6000826121e7576121e76121c2565b500490565b6000826121fb576121fb6121c2565b500690565b602080825282548282018190526000848152918220906040840190835b81811015611c8757835483526001938401936020909301920161221d56fea2646970667358221220c788cd39704809b8ba346dc1b4cf5bbfd5c35da8c50a5350d1825fb173c2acf764736f6c634300081c0033",
          "opcodes": "PUSH1 0xA0 PUSH1 0x40 MSTORE CALLVALUE DUP1 ISZERO PUSH1 0xF JUMPI PUSH1 0x0 DUP1 REVERT JUMPDEST POP PUSH1 0x40 MLOAD PUSH2 0x2302 CODESIZE SUB DUP1 PUSH2 0x2302 DUP4 CODECOPY DUP2 ADD PUSH1 0x40 DUP2 SWAP1 MSTORE PUSH1 0x2C SWAP2 PUSH1 0x41 JUMP JUMPDEST PUSH1 0x1 PUSH1 0x1 PUSH1 0xA0 SHL SUB AND PUSH1 0x80 MSTORE PUSH1 0x1 PUSH1 0x0 SSTORE PUSH1 0x6F JUMP JUMPDEST PUSH1 0x0 PUSH1 0x20 DUP3 DUP5 SUB SLT ISZERO PUSH1 0x52 JUMPI PUSH1 0x0 DUP1 REVERT JUMPDEST DUP2 MLOAD PUSH1 0x1 PUSH1 0x1 PUSH1 0xA0 SHL SUB DUP2 AND DUP2 EQ PUSH1 0x68 JUMPI PUSH1 0x0 DUP1 REVERT JUMPDEST SWAP4 SWAP3 POP POP POP JUMP JUMPDEST PUSH1 0x80 MLOAD PUSH2 0x2271 PUSH2 0x91 PUSH1 0x0 CODECOPY PUSH1 0x0 DUP2 DUP2 PUSH2 0x62C ADD MSTORE PUSH2 0xBAF ADD MSTORE PUSH2 0x2271 PUSH1 0x0 RETURN INVALID PUSH1 0x80 PUSH1 0x40 MSTORE PUSH1 0x4 CALLDATASIZE LT PUSH2 0x1C2 JUMPI PUSH1 0x0 CALLDATALOAD PUSH1 0xE0 SHR DUP1 PUSH4 0x8F5949F9 GT PUSH2 0xF7 JUMPI DUP1 PUSH4 0xE085C539 GT PUSH2 0x95 JUMPI DUP1 PUSH4 0xEFAA55A0 GT PUSH2 0x64 JUMPI DUP1 PUSH4 0xEFAA55A0 EQ PUSH2 0x5DA JUMPI DUP1 PUSH4 0xF79C913E EQ PUSH2 0x5FA JUMPI DUP1 PUSH4 0xF98D06F0 EQ PUSH2 0x61A JUMPI DUP1 PUSH4 0xFFDE0C74 EQ PUSH2 0x64E JUMPI PUSH1 0x0 DUP1 REVERT JUMPDEST DUP1 PUSH4 0xE085C539 EQ PUSH2 0x54A JUMPI DUP1 PUSH4 0xE5C43EF1 EQ PUSH2 0x348 JUMPI DUP1 PUSH4 0xE7FAD8AF EQ PUSH2 0x5B0 JUMPI DUP1 PUSH4 0xEDE8AF01 EQ PUSH2 0x5C5 JUMPI PUSH1 0x0 DUP1 REVERT JUMPDEST DUP1 PUSH4 0xBEE4C6D3 GT PUSH2 0xD1 JUMPI DUP1 PUSH4 0xBEE4C6D3 EQ PUSH2 0x4BD JUMPI DUP1 PUSH4 0xBF368399 EQ PUSH2 0x4D2 JUMPI DUP1 PUSH4 0xD0399BB8 EQ PUSH2 0x50A JUMPI DUP1 PUSH4 0xD7793C19 EQ PUSH2 0x52A JUMPI PUSH1 0x0 DUP1 REVERT JUMPDEST DUP1 PUSH4 0x8F5949F9 EQ PUSH2 0x479 JUMPI DUP1 PUSH4 0xA457D3D6 EQ PUSH2 0x495 JUMPI DUP1 PUSH4 0xB0FD159F EQ PUSH2 0x4A8 JUMPI PUSH1 0x0 DUP1 REVERT JUMPDEST DUP1 PUSH4 0x5C5C8382 GT PUSH2 0x164 JUMPI DUP1 PUSH4 0x7CA90E59 GT PUSH2 0x13E JUMPI DUP1 PUSH4 0x7CA90E59 EQ PUSH2 0x3EA JUMPI DUP1 PUSH4 0x7F57504F EQ PUSH2 0x400 JUMPI DUP1 PUSH4 0x85F07BBE EQ PUSH2 0x437 JUMPI DUP1 PUSH4 0x860CBC77 EQ PUSH2 0x44C JUMPI PUSH1 0x0 DUP1 REVERT JUMPDEST DUP1 PUSH4 0x5C5C8382 EQ PUSH2 0x348 JUMPI DUP1 PUSH4 0x62550AE1 EQ PUSH2 0x35D JUMPI DUP1 PUSH4 0x7255D729 EQ PUSH2 0x3D5 JUMPI PUSH1 0x0 DUP1 REVERT JUMPDEST DUP1 PUSH4 0x15A40F49 GT PUSH2 0x1A0 JUMPI DUP1 PUSH4 0x15A40F49 EQ PUSH2 0x291 JUMPI DUP1 PUSH4 0x392B749C EQ PUSH2 0x2BE JUMPI DUP1 PUSH4 0x3C8AEC3F EQ PUSH2 0x2EC JUMPI DUP1 PUSH4 0x53644F31 EQ PUSH2 0x319 JUMPI PUSH1 0x0 DUP1 REVERT JUMPDEST DUP1 PUSH4 0x10C28D31 EQ PUSH2 0x1C7 JUMPI DUP1 PUSH4 0x117A5B90 EQ PUSH2 0x1FF JUMPI DUP1 PUSH4 0x1226897A EQ PUSH2 0x26E JUMPI JUMPDEST PUSH1 0x0 DUP1 REVERT JUMPDEST CALLVALUE DUP1 ISZERO PUSH2 0x1D3 JUMPI PUSH1 0x0 DUP1 REVERT JUMPDEST POP PUSH2 0x1E7 PUSH2 0x1E2 CALLDATASIZE PUSH1 0x4 PUSH2 0x1B43 JUMP JUMPDEST PUSH2 0x681 JUMP JUMPDEST PUSH1 0x40 MLOAD PUSH2 0x1F6 SWAP4 SWAP3 SWAP2 SWAP1 PUSH2 0x1B92 JUMP JUMPDEST PUSH1 0x40 MLOAD DUP1 SWAP2 SUB SWAP1 RETURN JUMPDEST CALLVALUE DUP1 ISZERO PUSH2 0x20B JUMPI PUSH1 0x0 DUP1 REVERT JUMPDEST POP PUSH2 0x25B PUSH2 0x21A CALLDATASIZE PUSH1 0x4 PUSH2 0x1BB6 JUMP JUMPDEST PUSH1 0x1 PUSH1 0x20 DUP2 SWAP1 MSTORE PUSH1 0x0 SWAP2 DUP3 MSTORE PUSH1 0x40 SWAP1 SWAP2 KECCAK256 DUP1 SLOAD SWAP2 DUP2 ADD SLOAD PUSH1 0x2 DUP3 ADD SLOAD PUSH1 0x3 DUP4 ADD SLOAD PUSH1 0x4 DUP5 ADD SLOAD PUSH1 0x5 DUP6 ADD SLOAD PUSH1 0xA SWAP1 SWAP6 ADD SLOAD PUSH1 0xFF SWAP5 DUP6 AND SWAP6 SWAP4 SWAP5 SWAP3 SWAP4 SWAP2 SWAP3 AND DUP8 JUMP JUMPDEST PUSH1 0x40 MLOAD PUSH2 0x1F6 SWAP8 SWAP7 SWAP6 SWAP5 SWAP4 SWAP3 SWAP2 SWAP1 PUSH2 0x1C07 JUMP JUMPDEST CALLVALUE DUP1 ISZERO PUSH2 0x27A JUMPI PUSH1 0x0 DUP1 REVERT JUMPDEST POP PUSH2 0x283 PUSH1 0x14 DUP2 JUMP JUMPDEST PUSH1 0x40 MLOAD SWAP1 DUP2 MSTORE PUSH1 0x20 ADD PUSH2 0x1F6 JUMP JUMPDEST CALLVALUE DUP1 ISZERO PUSH2 0x29D JUMPI PUSH1 0x0 DUP1 REVERT JUMPDEST POP PUSH2 0x2B1 PUSH2 0x2AC CALLDATASIZE PUSH1 0x4 PUSH2 0x1BB6 JUMP JUMPDEST PUSH2 0x73D JUMP JUMPDEST PUSH1 0x40 MLOAD PUSH2 0x1F6 SWAP2 SWAP1 PUSH2 0x1C46 JUMP JUMPDEST CALLVALUE DUP1 ISZERO PUSH2 0x2CA JUMPI PUSH1 0x0 DUP1 REVERT JUMPDEST POP PUSH2 0x2DE PUSH2 0x2D9 CALLDATASIZE PUSH1 0x4 PUSH2 0x1BB6 JUMP JUMPDEST PUSH2 0x7DB JUMP JUMPDEST PUSH1 0x40 MLOAD PUSH2 0x1F6 SWAP3 SWAP2 SWAP1 PUSH2 0x1CD8 JUMP JUMPDEST CALLVALUE DUP1 ISZERO PUSH2 0x2F8 JUMPI PUSH1 0x0 DUP1 REVERT JUMPDEST POP PUSH2 0x283 PUSH2 0x307 CALLDATASIZE PUSH1 0x4 PUSH2 0x1BB6 JUMP JUMPDEST PUSH1 0x4 PUSH1 0x20 MSTORE PUSH1 0x0 SWAP1 DUP2 MSTORE PUSH1 0x40 SWAP1 KECCAK256 SLOAD DUP2 JUMP JUMPDEST CALLVALUE DUP1 ISZERO PUSH2 0x325 JUMPI PUSH1 0x0 DUP1 REVERT JUMPDEST POP PUSH2 0x346 PUSH2 0x334 CALLDATASIZE PUSH1 0x4 PUSH2 0x1CFB JUMP JUMPDEST PUSH1 0x0 SWAP2 DUP3 MSTORE PUSH1 0x4 PUSH1 0x20 MSTORE PUSH1 0x40 SWAP1 SWAP2 KECCAK256 SSTORE JUMP JUMPDEST STOP JUMPDEST CALLVALUE DUP1 ISZERO PUSH2 0x354 JUMPI PUSH1 0x0 DUP1 REVERT JUMPDEST POP PUSH2 0x283 PUSH1 0x3C DUP2 JUMP JUMPDEST CALLVALUE DUP1 ISZERO PUSH2 0x369 JUMPI PUSH1 0x0 DUP1 REVERT JUMPDEST POP PUSH2 0x3AB PUSH2 0x378 CALLDATASIZE PUSH1 0x4 PUSH2 0x1D1D JUMP JUMPDEST PUSH1 0x2 PUSH1 0x20 DUP2 SWAP1 MSTORE PUSH1 0x0 SWAP2 DUP3 MSTORE PUSH1 0x40 SWAP1 SWAP2 KECCAK256 DUP1 SLOAD PUSH1 0x1 DUP3 ADD SLOAD SWAP3 DUP3 ADD SLOAD PUSH1 0x3 SWAP1 SWAP3 ADD SLOAD PUSH1 0x1 PUSH1 0x1 PUSH1 0xA0 SHL SUB SWAP1 SWAP2 AND SWAP3 SWAP2 SWAP1 DUP5 JUMP JUMPDEST PUSH1 0x40 DUP1 MLOAD PUSH1 0x1 PUSH1 0x1 PUSH1 0xA0 SHL SUB SWAP1 SWAP6 AND DUP6 MSTORE PUSH1 0x20 DUP6 ADD SWAP4 SWAP1 SWAP4 MSTORE SWAP2 DUP4 ADD MSTORE PUSH1 0x60 DUP3 ADD MSTORE PUSH1 0x80 ADD PUSH2 0x1F6 JUMP JUMPDEST CALLVALUE DUP1 ISZERO PUSH2 0x3E1 JUMPI PUSH1 0x0 DUP1 REVERT JUMPDEST POP PUSH2 0x283 PUSH2 0x8E8 JUMP JUMPDEST CALLVALUE DUP1 ISZERO PUSH2 0x3F6 JUMPI PUSH1 0x0 DUP1 REVERT JUMPDEST POP PUSH2 0x283 PUSH2 0x258 DUP2 JUMP JUMPDEST CALLVALUE DUP1 ISZERO PUSH2 0x40C JUMPI PUSH1 0x0 DUP1 REVERT JUMPDEST POP PUSH2 0x420 PUSH2 0x41B CALLDATASIZE PUSH1 0x4 PUSH2 0x1CFB JUMP JUMPDEST PUSH2 0x993 JUMP JUMPDEST PUSH1 0x40 DUP1 MLOAD SWAP3 ISZERO ISZERO DUP4 MSTORE PUSH1 0x20 DUP4 ADD SWAP2 SWAP1 SWAP2 MSTORE ADD PUSH2 0x1F6 JUMP JUMPDEST CALLVALUE DUP1 ISZERO PUSH2 0x443 JUMPI PUSH1 0x0 DUP1 REVERT JUMPDEST POP PUSH2 0x283 PUSH1 0x2 DUP2 JUMP JUMPDEST CALLVALUE DUP1 ISZERO PUSH2 0x458 JUMPI PUSH1 0x0 DUP1 REVERT JUMPDEST POP PUSH2 0x46C PUSH2 0x467 CALLDATASIZE PUSH1 0x4 PUSH2 0x1BB6 JUMP JUMPDEST PUSH2 0x9F6 JUMP JUMPDEST PUSH1 0x40 MLOAD PUSH2 0x1F6 SWAP2 SWAP1 PUSH2 0x1D3F JUMP JUMPDEST CALLVALUE DUP1 ISZERO PUSH2 0x485 JUMPI PUSH1 0x0 DUP1 REVERT JUMPDEST POP PUSH1 0x40 MLOAD PUSH1 0x1 DUP2 MSTORE PUSH1 0x20 ADD PUSH2 0x1F6 JUMP JUMPDEST PUSH2 0x346 PUSH2 0x4A3 CALLDATASIZE PUSH1 0x4 PUSH2 0x1E4F JUMP JUMPDEST PUSH2 0xA89 JUMP JUMPDEST CALLVALUE DUP1 ISZERO PUSH2 0x4B4 JUMPI PUSH1 0x0 DUP1 REVERT JUMPDEST POP PUSH2 0x283 PUSH1 0x12 DUP2 JUMP JUMPDEST CALLVALUE DUP1 ISZERO PUSH2 0x4C9 JUMPI PUSH1 0x0 DUP1 REVERT JUMPDEST POP PUSH2 0x283 PUSH1 0xF DUP2 JUMP JUMPDEST CALLVALUE DUP1 ISZERO PUSH2 0x4DE JUMPI PUSH1 0x0 DUP1 REVERT JUMPDEST POP PUSH2 0x4F2 PUSH2 0x4ED CALLDATASIZE PUSH1 0x4 PUSH2 0x1BB6 JUMP JUMPDEST PUSH2 0xC5A JUMP JUMPDEST PUSH1 0x40 MLOAD PUSH1 0x1 PUSH1 0x1 PUSH1 0xA0 SHL SUB SWAP1 SWAP2 AND DUP2 MSTORE PUSH1 0x20 ADD PUSH2 0x1F6 JUMP JUMPDEST CALLVALUE DUP1 ISZERO PUSH2 0x516 JUMPI PUSH1 0x0 DUP1 REVERT JUMPDEST POP PUSH2 0x346 PUSH2 0x525 CALLDATASIZE PUSH1 0x4 PUSH2 0x1BB6 JUMP JUMPDEST PUSH2 0xC84 JUMP JUMPDEST CALLVALUE DUP1 ISZERO PUSH2 0x536 JUMPI PUSH1 0x0 DUP1 REVERT JUMPDEST POP PUSH2 0x346 PUSH2 0x545 CALLDATASIZE PUSH1 0x4 PUSH2 0x1FA5 JUMP JUMPDEST PUSH2 0xFC5 JUMP JUMPDEST CALLVALUE DUP1 ISZERO PUSH2 0x556 JUMPI PUSH1 0x0 DUP1 REVERT JUMPDEST POP PUSH2 0x595 PUSH2 0x565 CALLDATASIZE PUSH1 0x4 PUSH2 0x1D1D JUMP JUMPDEST PUSH1 0x1 PUSH1 0x1 PUSH1 0xA0 SHL SUB AND PUSH1 0x0 SWAP1 DUP2 MSTORE PUSH1 0x2 PUSH1 0x20 DUP2 SWAP1 MSTORE PUSH1 0x40 SWAP1 SWAP2 KECCAK256 PUSH1 0x1 DUP2 ADD SLOAD SWAP2 DUP2 ADD SLOAD PUSH1 0x3 SWAP1 SWAP2 ADD SLOAD SWAP2 SWAP3 SWAP1 SWAP2 SWAP1 JUMP JUMPDEST PUSH1 0x40 DUP1 MLOAD SWAP4 DUP5 MSTORE PUSH1 0x20 DUP5 ADD SWAP3 SWAP1 SWAP3 MSTORE SWAP1 DUP3 ADD MSTORE PUSH1 0x60 ADD PUSH2 0x1F6 JUMP JUMPDEST CALLVALUE DUP1 ISZERO PUSH2 0x5BC JUMPI PUSH1 0x0 DUP1 REVERT JUMPDEST POP PUSH2 0x283 PUSH1 0xA DUP2 JUMP JUMPDEST CALLVALUE DUP1 ISZERO PUSH2 0x5D1 JUMPI PUSH1 0x0 DUP1 REVERT JUMPDEST POP PUSH1 0x0 SLOAD PUSH2 0x283 JUMP JUMPDEST CALLVALUE DUP1 ISZERO PUSH2 0x5E6 JUMPI PUSH1 0x0 DUP1 REVERT JUMPDEST POP PUSH2 0x346 PUSH2 0x5F5 CALLDATASIZE PUSH1 0x4 PUSH2 0x1BB6 JUMP JUMPDEST PUSH2 0x10A7 JUMP JUMPDEST CALLVALUE DUP1 ISZERO PUSH2 0x606 JUMPI PUSH1 0x0 DUP1 REVERT JUMPDEST POP PUSH2 0x346 PUSH2 0x615 CALLDATASIZE PUSH1 0x4 PUSH2 0x1FDA JUMP JUMPDEST PUSH2 0x1253 JUMP JUMPDEST CALLVALUE DUP1 ISZERO PUSH2 0x626 JUMPI PUSH1 0x0 DUP1 REVERT JUMPDEST POP PUSH2 0x4F2 PUSH32 0x0 DUP2 JUMP JUMPDEST CALLVALUE DUP1 ISZERO PUSH2 0x65A JUMPI PUSH1 0x0 DUP1 REVERT JUMPDEST POP PUSH2 0x66E PUSH2 0x669 CALLDATASIZE PUSH1 0x4 PUSH2 0x1BB6 JUMP JUMPDEST PUSH2 0x164C JUMP JUMPDEST PUSH1 0x40 MLOAD PUSH2 0x1F6 SWAP8 SWAP7 SWAP6 SWAP5 SWAP4 SWAP3 SWAP2 SWAP1 PUSH2 0x2063 JUMP JUMPDEST PUSH2 0x689 PUSH2 0x1AB6 JUMP JUMPDEST PUSH1 0x0 DUP1 DUP5 PUSH1 0x0 DUP2 GT DUP1 ISZERO PUSH2 0x69E JUMPI POP PUSH1 0x0 SLOAD DUP2 LT JUMPDEST PUSH2 0x6C3 JUMPI PUSH1 0x40 MLOAD PUSH3 0x461BCD PUSH1 0xE5 SHL DUP2 MSTORE PUSH1 0x4 ADD PUSH2 0x6BA SWAP1 PUSH2 0x20A1 JUMP JUMPDEST PUSH1 0x40 MLOAD DUP1 SWAP2 SUB SWAP1 REVERT JUMPDEST PUSH1 0x0 DUP7 DUP2 MSTORE PUSH1 0x1 PUSH1 0x20 DUP2 DUP2 MSTORE PUSH1 0x40 DUP1 DUP5 KECCAK256 PUSH1 0x1 PUSH1 0x1 PUSH1 0xA0 SHL SUB DUP11 AND DUP6 MSTORE PUSH1 0x8 ADD SWAP1 SWAP2 MSTORE SWAP2 DUP3 SWAP1 KECCAK256 PUSH1 0x4 DUP2 ADD SLOAD PUSH1 0x5 DUP3 ADD SLOAD DUP5 MLOAD PUSH1 0x60 DUP2 ADD SWAP6 DUP7 SWAP1 MSTORE SWAP3 SWAP5 SWAP4 DUP6 ADD SWAP4 SWAP2 SWAP3 PUSH1 0xFF SWAP1 SWAP2 AND SWAP2 DUP5 SWAP1 PUSH1 0x3 SWAP1 DUP3 DUP5 JUMPDEST DUP2 SLOAD DUP2 MSTORE PUSH1 0x20 ADD SWAP1 PUSH1 0x1 ADD SWAP1 DUP1 DUP4 GT PUSH2 0x714 JUMPI POP POP POP POP POP SWAP3 POP SWAP5 POP SWAP5 POP SWAP5 POP POP POP SWAP3 POP SWAP3 POP SWAP3 JUMP JUMPDEST PUSH1 0x60 DUP2 PUSH1 0x0 DUP2 GT DUP1 ISZERO PUSH2 0x751 JUMPI POP PUSH1 0x0 SLOAD DUP2 LT JUMPDEST PUSH2 0x76D JUMPI PUSH1 0x40 MLOAD PUSH3 0x461BCD PUSH1 0xE5 SHL DUP2 MSTORE PUSH1 0x4 ADD PUSH2 0x6BA SWAP1 PUSH2 0x20A1 JUMP JUMPDEST PUSH1 0x0 DUP4 DUP2 MSTORE PUSH1 0x1 PUSH1 0x20 SWAP1 DUP2 MSTORE PUSH1 0x40 SWAP2 DUP3 SWAP1 KECCAK256 PUSH1 0x6 ADD DUP1 SLOAD DUP4 MLOAD DUP2 DUP5 MUL DUP2 ADD DUP5 ADD SWAP1 SWAP5 MSTORE DUP1 DUP5 MSTORE SWAP1 SWAP2 DUP4 ADD DUP3 DUP3 DUP1 ISZERO PUSH2 0x7CE JUMPI PUSH1 0x20 MUL DUP3 ADD SWAP2 SWAP1 PUSH1 0x0 MSTORE PUSH1 0x20 PUSH1 0x0 KECCAK256 SWAP1 JUMPDEST DUP2 SLOAD PUSH1 0x1 PUSH1 0x1 PUSH1 0xA0 SHL SUB AND DUP2 MSTORE PUSH1 0x1 SWAP1 SWAP2 ADD SWAP1 PUSH1 0x20 ADD DUP1 DUP4 GT PUSH2 0x7B0 JUMPI JUMPDEST POP POP POP POP POP SWAP2 POP POP SWAP2 SWAP1 POP JUMP JUMPDEST PUSH1 0x0 PUSH1 0x60 DUP3 PUSH1 0x0 DUP2 GT DUP1 ISZERO PUSH2 0x7F1 JUMPI POP PUSH1 0x0 SLOAD DUP2 LT JUMPDEST PUSH2 0x80D JUMPI PUSH1 0x40 MLOAD PUSH3 0x461BCD PUSH1 0xE5 SHL DUP2 MSTORE PUSH1 0x4 ADD PUSH2 0x6BA SWAP1 PUSH2 0x20A1 JUMP JUMPDEST PUSH1 0x0 DUP5 DUP2 MSTORE PUSH1 0x1 PUSH1 0x20 MSTORE PUSH1 0x40 DUP2 KECCAK256 SWAP1 PUSH1 0x1 DUP3 ADD SLOAD PUSH1 0xFF AND PUSH1 0x4 DUP2 GT ISZERO PUSH2 0x835 JUMPI PUSH2 0x835 PUSH2 0x1BCF JUMP JUMPDEST EQ PUSH2 0x87C JUMPI PUSH1 0x0 PUSH1 0x40 MLOAD DUP1 PUSH1 0x40 ADD PUSH1 0x40 MSTORE DUP1 PUSH1 0x1A DUP2 MSTORE PUSH1 0x20 ADD PUSH32 0x47616D65206973206E6F7420696E204C4F424259207374617465000000000000 DUP2 MSTORE POP SWAP4 POP SWAP4 POP POP PUSH2 0x8E2 JUMP JUMPDEST DUP1 PUSH1 0x3 ADD SLOAD TIMESTAMP LT ISZERO PUSH2 0x8CA JUMPI PUSH1 0x0 PUSH1 0x40 MLOAD DUP1 PUSH1 0x40 ADD PUSH1 0x40 MSTORE DUP1 PUSH1 0x1A DUP2 MSTORE PUSH1 0x20 ADD PUSH32 0x4C6F62627920646561646C696E65206E6F742072656163686564000000000000 DUP2 MSTORE POP SWAP4 POP SWAP4 POP POP PUSH2 0x8E2 JUMP JUMPDEST PUSH1 0x1 PUSH1 0x40 MLOAD DUP1 PUSH1 0x20 ADD PUSH1 0x40 MSTORE DUP1 PUSH1 0x0 DUP2 MSTORE POP SWAP4 POP SWAP4 POP POP JUMPDEST POP SWAP2 POP SWAP2 JUMP JUMPDEST PUSH1 0x0 DUP1 SLOAD DUP2 SWAP1 DUP2 DUP1 PUSH2 0x8F9 DUP4 PUSH2 0x20E0 JUMP JUMPDEST SWAP1 SWAP2 SSTORE POP PUSH1 0x0 DUP2 DUP2 MSTORE PUSH1 0x1 PUSH1 0x20 DUP2 SWAP1 MSTORE PUSH1 0x40 SWAP1 SWAP2 KECCAK256 DUP3 DUP2 SSTORE SWAP1 DUP2 ADD DUP1 SLOAD PUSH1 0xFF NOT AND SWAP1 SSTORE TIMESTAMP PUSH1 0x2 DUP3 ADD DUP2 SWAP1 SSTORE SWAP2 SWAP3 POP SWAP1 PUSH2 0x934 SWAP1 PUSH1 0x3C SWAP1 PUSH2 0x20F9 JUMP JUMPDEST PUSH1 0x3 DUP3 ADD SSTORE PUSH1 0x6 DUP2 ADD DUP1 SLOAD PUSH1 0x1 DUP2 ADD DUP3 SSTORE PUSH1 0x0 SWAP2 DUP3 MSTORE PUSH1 0x20 DUP3 KECCAK256 ADD DUP1 SLOAD PUSH1 0x1 PUSH1 0x1 PUSH1 0xA0 SHL SUB NOT AND CALLER SWAP1 DUP2 OR SWAP1 SWAP2 SSTORE PUSH1 0x40 MLOAD SWAP1 SWAP2 DUP5 SWAP2 PUSH32 0xFADB9547847A0C2C31F4C02590545E318D33D7AAE99071CAECF3FA4CE3CD7DCA SWAP2 SWAP1 LOG3 POP SWAP2 SWAP1 POP JUMP JUMPDEST PUSH1 0x0 DUP1 DUP4 PUSH1 0x0 DUP2 GT DUP1 ISZERO PUSH2 0x9A8 JUMPI POP PUSH1 0x0 SLOAD DUP2 LT JUMPDEST PUSH2 0x9C4 JUMPI PUSH1 0x40 MLOAD PUSH3 0x461BCD PUSH1 0xE5 SHL DUP2 MSTORE PUSH1 0x4 ADD PUSH2 0x6BA SWAP1 PUSH2 0x20A1 JUMP JUMPDEST POP POP POP PUSH1 0x0 SWAP2 DUP3 MSTORE PUSH1 0x1 PUSH1 0x20 DUP2 DUP2 MSTORE PUSH1 0x40 DUP1 DUP6 KECCAK256 SWAP4 DUP6 MSTORE PUSH1 0x9 SWAP1 SWAP4 ADD SWAP1 MSTORE SWAP2 KECCAK256 SWAP1 DUP2 ADD SLOAD PUSH1 0x2 SWAP1 SWAP2 ADD SLOAD PUSH1 0xFF SWAP1 SWAP2 AND SWAP2 JUMP JUMPDEST PUSH1 0x60 DUP2 PUSH1 0x0 DUP2 GT DUP1 ISZERO PUSH2 0xA0A JUMPI POP PUSH1 0x0 SLOAD DUP2 LT JUMPDEST PUSH2 0xA26 JUMPI PUSH1 0x40 MLOAD PUSH3 0x461BCD PUSH1 0xE5 SHL DUP2 MSTORE PUSH1 0x4 ADD PUSH2 0x6BA SWAP1 PUSH2 0x20A1 JUMP JUMPDEST PUSH1 0x0 DUP4 DUP2 MSTORE PUSH1 0x1 PUSH1 0x20 SWAP1 DUP2 MSTORE PUSH1 0x40 SWAP2 DUP3 SWAP1 KECCAK256 PUSH1 0x7 ADD DUP1 SLOAD DUP4 MLOAD DUP2 DUP5 MUL DUP2 ADD DUP5 ADD SWAP1 SWAP5 MSTORE DUP1 DUP5 MSTORE SWAP1 SWAP2 DUP4 ADD DUP3 DUP3 DUP1 ISZERO PUSH2 0x7CE JUMPI PUSH1 0x20 MUL DUP3 ADD SWAP2 SWAP1 PUSH1 0x0 MSTORE PUSH1 0x20 PUSH1 0x0 KECCAK256 SWAP1 JUMPDEST DUP2 SLOAD DUP2 MSTORE PUSH1 0x20 ADD SWAP1 PUSH1 0x1 ADD SWAP1 DUP1 DUP4 GT PUSH2 0xA69 JUMPI POP POP POP POP POP SWAP2 POP POP SWAP2 SWAP1 POP JUMP JUMPDEST DUP4 PUSH1 0x0 DUP2 GT DUP1 ISZERO PUSH2 0xA9B JUMPI POP PUSH1 0x0 SLOAD DUP2 LT JUMPDEST PUSH2 0xAB7 JUMPI PUSH1 0x40 MLOAD PUSH3 0x461BCD PUSH1 0xE5 SHL DUP2 MSTORE PUSH1 0x4 ADD PUSH2 0x6BA SWAP1 PUSH2 0x20A1 JUMP JUMPDEST DUP5 PUSH1 0x3 DUP1 PUSH1 0x0 DUP4 DUP2 MSTORE PUSH1 0x1 PUSH1 0x20 DUP2 SWAP1 MSTORE PUSH1 0x40 SWAP1 SWAP2 KECCAK256 ADD SLOAD PUSH1 0xFF AND PUSH1 0x4 DUP2 GT ISZERO PUSH2 0xAE2 JUMPI PUSH2 0xAE2 PUSH2 0x1BCF JUMP JUMPDEST EQ PUSH2 0xAFF JUMPI PUSH1 0x40 MLOAD PUSH3 0x461BCD PUSH1 0xE5 SHL DUP2 MSTORE PUSH1 0x4 ADD PUSH2 0x6BA SWAP1 PUSH2 0x210C JUMP JUMPDEST PUSH1 0x0 DUP8 DUP2 MSTORE PUSH1 0x1 PUSH1 0x20 MSTORE PUSH1 0x40 SWAP1 KECCAK256 CALLVALUE DUP6 GT ISZERO PUSH2 0xB50 JUMPI PUSH1 0x40 MLOAD PUSH3 0x461BCD PUSH1 0xE5 SHL DUP2 MSTORE PUSH1 0x20 PUSH1 0x4 DUP3 ADD MSTORE PUSH1 0x10 PUSH1 0x24 DUP3 ADD MSTORE PUSH16 0x496E73756666696369656E7420666565 PUSH1 0x80 SHL PUSH1 0x44 DUP3 ADD MSTORE PUSH1 0x64 ADD PUSH2 0x6BA JUMP JUMPDEST PUSH1 0xA DUP2 ADD SLOAD PUSH1 0xFF AND ISZERO PUSH2 0xB98 JUMPI PUSH1 0x40 MLOAD PUSH3 0x461BCD PUSH1 0xE5 SHL DUP2 MSTORE PUSH1 0x20 PUSH1 0x4 DUP3 ADD MSTORE PUSH1 0x10 PUSH1 0x24 DUP3 ADD MSTORE PUSH16 0x105B1C9958591E481C995CDBDB1D9959 PUSH1 0x82 SHL PUSH1 0x44 DUP3 ADD MSTORE PUSH1 0x64 ADD PUSH2 0x6BA JUMP JUMPDEST PUSH1 0x40 MLOAD PUSH4 0x1DF3CBC5 PUSH1 0xE3 SHL DUP2 MSTORE PUSH1 0x1 PUSH1 0x1 PUSH1 0xA0 SHL SUB PUSH32 0x0 AND SWAP1 PUSH4 0xEF9E5E28 SWAP1 DUP8 SWAP1 PUSH2 0xBE6 SWAP1 DUP12 SWAP1 PUSH1 0x4 ADD PUSH2 0x2139 JUMP JUMPDEST PUSH1 0x0 PUSH1 0x40 MLOAD DUP1 DUP4 SUB DUP2 DUP6 DUP9 DUP1 EXTCODESIZE ISZERO DUP1 ISZERO PUSH2 0xBFF JUMPI PUSH1 0x0 DUP1 REVERT JUMPDEST POP GAS CALL ISZERO DUP1 ISZERO PUSH2 0xC13 JUMPI RETURNDATASIZE PUSH1 0x0 DUP1 RETURNDATACOPY RETURNDATASIZE PUSH1 0x0 REVERT JUMPDEST POP POP PUSH1 0x40 MLOAD DUP12 SWAP4 POP PUSH32 0x702EC30635253CAE6D3600D38314E616495CF01545D34E549C49EBF6451DAB3B SWAP3 POP PUSH1 0x0 SWAP2 POP LOG2 PUSH1 0xA ADD DUP1 SLOAD PUSH1 0xFF NOT AND PUSH1 0x1 OR SWAP1 SSTORE POP POP POP POP POP POP POP JUMP JUMPDEST PUSH1 0x3 DUP2 DUP2 SLOAD DUP2 LT PUSH2 0xC6A JUMPI PUSH1 0x0 DUP1 REVERT JUMPDEST PUSH1 0x0 SWAP2 DUP3 MSTORE PUSH1 0x20 SWAP1 SWAP2 KECCAK256 ADD SLOAD PUSH1 0x1 PUSH1 0x1 PUSH1 0xA0 SHL SUB AND SWAP1 POP DUP2 JUMP JUMPDEST DUP1 PUSH1 0x0 DUP2 GT DUP1 ISZERO PUSH2 0xC96 JUMPI POP PUSH1 0x0 SLOAD DUP2 LT JUMPDEST PUSH2 0xCB2 JUMPI PUSH1 0x40 MLOAD PUSH3 0x461BCD PUSH1 0xE5 SHL DUP2 MSTORE PUSH1 0x4 ADD PUSH2 0x6BA SWAP1 PUSH2 0x20A1 JUMP JUMPDEST DUP2 PUSH1 0x3 DUP1 PUSH1 0x0 DUP4 DUP2 MSTORE PUSH1 0x1 PUSH1 0x20 DUP2 SWAP1 MSTORE PUSH1 0x40 SWAP1 SWAP2 KECCAK256 ADD SLOAD PUSH1 0xFF AND PUSH1 0x4 DUP2 GT ISZERO PUSH2 0xCDD JUMPI PUSH2 0xCDD PUSH2 0x1BCF JUMP JUMPDEST EQ PUSH2 0xCFA JUMPI PUSH1 0x40 MLOAD PUSH3 0x461BCD PUSH1 0xE5 SHL DUP2 MSTORE PUSH1 0x4 ADD PUSH2 0x6BA SWAP1 PUSH2 0x210C JUMP JUMPDEST PUSH1 0x0 DUP5 DUP2 MSTORE PUSH1 0x1 PUSH1 0x20 MSTORE PUSH1 0x40 SWAP1 KECCAK256 PUSH1 0x5 DUP2 ADD SLOAD TIMESTAMP LT ISZERO PUSH2 0xD5C JUMPI PUSH1 0x40 MLOAD PUSH3 0x461BCD PUSH1 0xE5 SHL DUP2 MSTORE PUSH1 0x20 PUSH1 0x4 DUP3 ADD MSTORE PUSH1 0x1F PUSH1 0x24 DUP3 ADD MSTORE PUSH32 0x5265736F6C7574696F6E20646561646C696E65206E6F74207265616368656400 PUSH1 0x44 DUP3 ADD MSTORE PUSH1 0x64 ADD PUSH2 0x6BA JUMP JUMPDEST PUSH1 0x0 JUMPDEST PUSH1 0x6 DUP3 ADD SLOAD DUP2 LT ISZERO PUSH2 0xF83 JUMPI PUSH1 0x0 DUP3 PUSH1 0x6 ADD DUP3 DUP2 SLOAD DUP2 LT PUSH2 0xD82 JUMPI PUSH2 0xD82 PUSH2 0x219E JUMP JUMPDEST PUSH1 0x0 SWAP2 DUP3 MSTORE PUSH1 0x20 DUP1 DUP4 KECCAK256 SWAP1 SWAP2 ADD SLOAD PUSH1 0x1 PUSH1 0x1 PUSH1 0xA0 SHL SUB AND DUP1 DUP4 MSTORE PUSH1 0x8 DUP7 ADD SWAP1 SWAP2 MSTORE PUSH1 0x40 SWAP1 SWAP2 KECCAK256 PUSH1 0x5 DUP2 ADD SLOAD SWAP2 SWAP3 POP SWAP1 PUSH1 0xFF AND PUSH2 0xDBF JUMPI POP POP PUSH2 0xF7B JUMP JUMPDEST PUSH1 0x0 DUP1 JUMPDEST PUSH1 0x3 DUP2 LT ISZERO PUSH2 0xEA3 JUMPI PUSH1 0x0 DUP4 PUSH1 0x1 ADD DUP3 PUSH1 0x3 DUP2 LT PUSH2 0xDE3 JUMPI PUSH2 0xDE3 PUSH2 0x219E JUMP JUMPDEST ADD SLOAD PUSH1 0x0 DUP2 DUP2 MSTORE PUSH1 0x9 DUP10 ADD PUSH1 0x20 MSTORE PUSH1 0x40 SWAP1 KECCAK256 PUSH1 0x1 ADD SLOAD SWAP1 SWAP2 POP PUSH1 0xFF AND PUSH2 0xE7A JUMPI PUSH1 0x0 PUSH2 0xE0F DUP13 DUP4 PUSH2 0x16D2 JUMP JUMPDEST SWAP1 POP PUSH1 0x0 DUP2 PUSH2 0xE1F JUMPI PUSH1 0x0 PUSH2 0xE28 JUMP JUMPDEST PUSH2 0xE28 DUP4 PUSH2 0x16DB JUMP JUMPDEST PUSH1 0x40 DUP1 MLOAD PUSH1 0x60 DUP2 ADD DUP3 MSTORE DUP6 DUP2 MSTORE SWAP4 ISZERO ISZERO PUSH1 0x20 DUP1 DUP7 ADD SWAP2 DUP3 MSTORE DUP6 DUP4 ADD SWAP4 DUP5 MSTORE PUSH1 0x0 DUP8 DUP2 MSTORE PUSH1 0x9 DUP15 ADD SWAP1 SWAP2 MSTORE SWAP2 SWAP1 SWAP2 KECCAK256 SWAP4 MLOAD DUP5 SSTORE MLOAD PUSH1 0x1 DUP5 ADD DUP1 SLOAD PUSH1 0xFF NOT AND SWAP2 ISZERO ISZERO SWAP2 SWAP1 SWAP2 OR SWAP1 SSTORE MLOAD PUSH1 0x2 SWAP1 SWAP3 ADD SWAP2 SWAP1 SWAP2 SSTORE POP JUMPDEST PUSH1 0x0 DUP2 DUP2 MSTORE PUSH1 0x9 DUP9 ADD PUSH1 0x20 MSTORE PUSH1 0x40 SWAP1 KECCAK256 PUSH1 0x2 ADD SLOAD PUSH2 0xE98 SWAP1 DUP5 PUSH2 0x20F9 JUMP JUMPDEST SWAP3 POP POP PUSH1 0x1 ADD PUSH2 0xDC3 JUMP JUMPDEST POP PUSH1 0x1 PUSH1 0x1 PUSH1 0xA0 SHL SUB DUP4 AND PUSH1 0x0 SWAP1 DUP2 MSTORE PUSH1 0x2 PUSH1 0x20 MSTORE PUSH1 0x40 DUP2 KECCAK256 PUSH1 0x1 ADD DUP1 SLOAD DUP4 SWAP3 SWAP1 PUSH2 0xECF SWAP1 DUP5 SWAP1 PUSH2 0x20F9 JUMP JUMPDEST SWAP1 SWAP2 SSTORE POP POP PUSH1 0x1 PUSH1 0x1 PUSH1 0xA0 SHL SUB DUP4 AND PUSH1 0x0 SWAP1 DUP2 MSTORE PUSH1 0x2 PUSH1 0x20 DUP2 SWAP1 MSTORE PUSH1 0x40 DUP3 KECCAK256 ADD DUP1 SLOAD SWAP2 PUSH2 0xEFB DUP4 PUSH2 0x20E0 JUMP JUMPDEST SWAP1 SWAP2 SSTORE POP POP DUP1 ISZERO PUSH2 0xF33 JUMPI PUSH1 0x1 PUSH1 0x1 PUSH1 0xA0 SHL SUB DUP4 AND PUSH1 0x0 SWAP1 DUP2 MSTORE PUSH1 0x2 PUSH1 0x20 MSTORE PUSH1 0x40 DUP2 KECCAK256 PUSH1 0x3 ADD DUP1 SLOAD SWAP2 PUSH2 0xF2D DUP4 PUSH2 0x20E0 JUMP JUMPDEST SWAP2 SWAP1 POP SSTORE POP JUMPDEST DUP3 PUSH1 0x1 PUSH1 0x1 PUSH1 0xA0 SHL SUB AND DUP10 PUSH32 0xDBADCE3C07B5BC30EBBE2BCEC3D6BB95F9B3A0BB33178FF0D61E4D7D4339915 DUP4 PUSH1 0x40 MLOAD PUSH2 0xF6F SWAP2 DUP2 MSTORE PUSH1 0x20 ADD SWAP1 JUMP JUMPDEST PUSH1 0x40 MLOAD DUP1 SWAP2 SUB SWAP1 LOG3 POP POP POP JUMPDEST PUSH1 0x1 ADD PUSH2 0xD5F JUMP JUMPDEST POP PUSH1 0x1 DUP2 ADD DUP1 SLOAD PUSH1 0xFF NOT AND PUSH1 0x4 OR SWAP1 SSTORE PUSH1 0x40 MLOAD DUP6 SWAP1 PUSH32 0xCE24807F7E4B60B4E641462F13029FA5E5F79075BBC3F8E5CD43ECD19661D760 SWAP1 PUSH1 0x0 SWAP1 LOG2 POP POP POP POP POP JUMP JUMPDEST DUP2 PUSH1 0x0 DUP2 GT DUP1 ISZERO PUSH2 0xFD7 JUMPI POP PUSH1 0x0 SLOAD DUP2 LT JUMPDEST PUSH2 0xFF3 JUMPI PUSH1 0x40 MLOAD PUSH3 0x461BCD PUSH1 0xE5 SHL DUP2 MSTORE PUSH1 0x4 ADD PUSH2 0x6BA SWAP1 PUSH2 0x20A1 JUMP JUMPDEST DUP3 PUSH1 0x0 DUP1 PUSH1 0x0 DUP4 DUP2 MSTORE PUSH1 0x1 PUSH1 0x20 DUP2 SWAP1 MSTORE PUSH1 0x40 SWAP1 SWAP2 KECCAK256 ADD SLOAD PUSH1 0xFF AND PUSH1 0x4 DUP2 GT ISZERO PUSH2 0x101E JUMPI PUSH2 0x101E PUSH2 0x1BCF JUMP JUMPDEST EQ PUSH2 0x103B JUMPI PUSH1 0x40 MLOAD PUSH3 0x461BCD PUSH1 0xE5 SHL DUP2 MSTORE PUSH1 0x4 ADD PUSH2 0x6BA SWAP1 PUSH2 0x210C JUMP JUMPDEST PUSH1 0x0 DUP6 DUP2 MSTORE PUSH1 0x1 PUSH1 0x20 MSTORE PUSH1 0x40 SWAP1 KECCAK256 PUSH1 0x3 DUP2 ADD SLOAD TIMESTAMP LT ISZERO PUSH2 0x1095 JUMPI PUSH1 0x40 MLOAD PUSH3 0x461BCD PUSH1 0xE5 SHL DUP2 MSTORE PUSH1 0x20 PUSH1 0x4 DUP3 ADD MSTORE PUSH1 0x15 PUSH1 0x24 DUP3 ADD MSTORE PUSH21 0x10D85B9B9BDD081CDD185C9D0819D85B59481E595D PUSH1 0x5A SHL PUSH1 0x44 DUP3 ADD MSTORE PUSH1 0x64 ADD PUSH2 0x6BA JUMP JUMPDEST PUSH2 0x109F DUP7 DUP7 PUSH2 0x1803 JUMP JUMPDEST POP POP POP POP POP POP JUMP JUMPDEST DUP1 PUSH1 0x0 DUP2 GT DUP1 ISZERO PUSH2 0x10B9 JUMPI POP PUSH1 0x0 SLOAD DUP2 LT JUMPDEST PUSH2 0x10D5 JUMPI PUSH1 0x40 MLOAD PUSH3 0x461BCD PUSH1 0xE5 SHL DUP2 MSTORE PUSH1 0x4 ADD PUSH2 0x6BA SWAP1 PUSH2 0x20A1 JUMP JUMPDEST DUP2 PUSH1 0x0 DUP1 PUSH1 0x0 DUP4 DUP2 MSTORE PUSH1 0x1 PUSH1 0x20 DUP2 SWAP1 MSTORE PUSH1 0x40 SWAP1 SWAP2 KECCAK256 ADD SLOAD PUSH1 0xFF AND PUSH1 0x4 DUP2 GT ISZERO PUSH2 0x1100 JUMPI PUSH2 0x1100 PUSH2 0x1BCF JUMP JUMPDEST EQ PUSH2 0x111D JUMPI PUSH1 0x40 MLOAD PUSH3 0x461BCD PUSH1 0xE5 SHL DUP2 MSTORE PUSH1 0x4 ADD PUSH2 0x6BA SWAP1 PUSH2 0x210C JUMP JUMPDEST PUSH1 0x0 DUP5 DUP2 MSTORE PUSH1 0x1 PUSH1 0x20 MSTORE PUSH1 0x40 SWAP1 KECCAK256 PUSH1 0x3 DUP2 ADD SLOAD TIMESTAMP GT ISZERO PUSH2 0x116E JUMPI PUSH1 0x40 MLOAD PUSH3 0x461BCD PUSH1 0xE5 SHL DUP2 MSTORE PUSH1 0x20 PUSH1 0x4 DUP3 ADD MSTORE PUSH1 0xC PUSH1 0x24 DUP3 ADD MSTORE PUSH12 0x131BD8989E4818DB1BDCD959 PUSH1 0xA2 SHL PUSH1 0x44 DUP3 ADD MSTORE PUSH1 0x64 ADD PUSH2 0x6BA JUMP JUMPDEST PUSH1 0x0 JUMPDEST PUSH1 0x6 DUP3 ADD SLOAD DUP2 LT ISZERO PUSH2 0x11F7 JUMPI CALLER PUSH1 0x1 PUSH1 0x1 PUSH1 0xA0 SHL SUB AND DUP3 PUSH1 0x6 ADD DUP3 DUP2 SLOAD DUP2 LT PUSH2 0x119C JUMPI PUSH2 0x119C PUSH2 0x219E JUMP JUMPDEST PUSH1 0x0 SWAP2 DUP3 MSTORE PUSH1 0x20 SWAP1 SWAP2 KECCAK256 ADD SLOAD PUSH1 0x1 PUSH1 0x1 PUSH1 0xA0 SHL SUB AND SUB PUSH2 0x11EF JUMPI PUSH1 0x40 MLOAD PUSH3 0x461BCD PUSH1 0xE5 SHL DUP2 MSTORE PUSH1 0x20 PUSH1 0x4 DUP3 ADD MSTORE PUSH1 0xE PUSH1 0x24 DUP3 ADD MSTORE PUSH14 0x105B1C9958591E481A9BDA5B9959 PUSH1 0x92 SHL PUSH1 0x44 DUP3 ADD MSTORE PUSH1 0x64 ADD PUSH2 0x6BA JUMP JUMPDEST PUSH1 0x1 ADD PUSH2 0x1171 JUMP JUMPDEST POP PUSH1 0x6 DUP2 ADD DUP1 SLOAD PUSH1 0x1 DUP2 ADD DUP3 SSTORE PUSH1 0x0 SWAP2 DUP3 MSTORE PUSH1 0x20 DUP3 KECCAK256 ADD DUP1 SLOAD PUSH1 0x1 PUSH1 0x1 PUSH1 0xA0 SHL SUB NOT AND CALLER SWAP1 DUP2 OR SWAP1 SWAP2 SSTORE PUSH1 0x40 MLOAD SWAP1 SWAP2 DUP8 SWAP2 PUSH32 0x87969BC7FAF902221A147B95CEBA76E011C5EFB0339A0A8EE7A2BB82D9CFBBD6 SWAP2 SWAP1 LOG3 POP POP POP POP POP JUMP JUMPDEST DUP2 PUSH1 0x0 DUP2 GT DUP1 ISZERO PUSH2 0x1265 JUMPI POP PUSH1 0x0 SLOAD DUP2 LT JUMPDEST PUSH2 0x1281 JUMPI PUSH1 0x40 MLOAD PUSH3 0x461BCD PUSH1 0xE5 SHL DUP2 MSTORE PUSH1 0x4 ADD PUSH2 0x6BA SWAP1 PUSH2 0x20A1 JUMP JUMPDEST DUP3 PUSH1 0x2 DUP1 PUSH1 0x0 DUP4 DUP2 MSTORE PUSH1 0x1 PUSH1 0x20 DUP2 SWAP1 MSTORE PUSH1 0x40 SWAP1 SWAP2 KECCAK256 ADD SLOAD PUSH1 0xFF AND PUSH1 0x4 DUP2 GT ISZERO PUSH2 0x12AC JUMPI PUSH2 0x12AC PUSH2 0x1BCF JUMP JUMPDEST EQ PUSH2 0x12C9 JUMPI PUSH1 0x40 MLOAD PUSH3 0x461BCD PUSH1 0xE5 SHL DUP2 MSTORE PUSH1 0x4 ADD PUSH2 0x6BA SWAP1 PUSH2 0x210C JUMP JUMPDEST PUSH1 0x0 DUP6 DUP2 MSTORE PUSH1 0x1 PUSH1 0x20 MSTORE PUSH1 0x40 SWAP1 KECCAK256 PUSH1 0x4 DUP2 ADD SLOAD TIMESTAMP GT ISZERO PUSH2 0x1324 JUMPI PUSH1 0x40 MLOAD PUSH3 0x461BCD PUSH1 0xE5 SHL DUP2 MSTORE PUSH1 0x20 PUSH1 0x4 DUP3 ADD MSTORE PUSH1 0x16 PUSH1 0x24 DUP3 ADD MSTORE PUSH22 0x10DA1BDA58D948191958591B1A5B99481C185CDCD959 PUSH1 0x52 SHL PUSH1 0x44 DUP3 ADD MSTORE PUSH1 0x64 ADD PUSH2 0x6BA JUMP JUMPDEST CALLER PUSH1 0x0 SWAP1 DUP2 MSTORE PUSH1 0x8 DUP3 ADD PUSH1 0x20 MSTORE PUSH1 0x40 SWAP1 KECCAK256 PUSH1 0x5 ADD SLOAD PUSH1 0xFF AND ISZERO PUSH2 0x137D JUMPI PUSH1 0x40 MLOAD PUSH3 0x461BCD PUSH1 0xE5 SHL DUP2 MSTORE PUSH1 0x20 PUSH1 0x4 DUP3 ADD MSTORE PUSH1 0x11 PUSH1 0x24 DUP3 ADD MSTORE PUSH17 0x105B1C9958591E4818DBDB5B5A5D1D1959 PUSH1 0x7A SHL PUSH1 0x44 DUP3 ADD MSTORE PUSH1 0x64 ADD PUSH2 0x6BA JUMP JUMPDEST PUSH1 0x0 DUP1 JUMPDEST PUSH1 0x6 DUP4 ADD SLOAD DUP2 LT ISZERO PUSH2 0x13D7 JUMPI CALLER PUSH1 0x1 PUSH1 0x1 PUSH1 0xA0 SHL SUB AND DUP4 PUSH1 0x6 ADD DUP3 DUP2 SLOAD DUP2 LT PUSH2 0x13AC JUMPI PUSH2 0x13AC PUSH2 0x219E JUMP JUMPDEST PUSH1 0x0 SWAP2 DUP3 MSTORE PUSH1 0x20 SWAP1 SWAP2 KECCAK256 ADD SLOAD PUSH1 0x1 PUSH1 0x1 PUSH1 0xA0 SHL SUB AND SUB PUSH2 0x13CF JUMPI PUSH1 0x1 SWAP2 POP PUSH2 0x13D7 JUMP JUMPDEST PUSH1 0x1 ADD PUSH2 0x1381 JUMP JUMPDEST POP DUP1 PUSH2 0x1425 JUMPI PUSH1 0x40 MLOAD PUSH3 0x461BCD PUSH1 0xE5 SHL DUP2 MSTORE PUSH1 0x20 PUSH1 0x4 DUP3 ADD MSTORE PUSH1 0x19 PUSH1 0x24 DUP3 ADD MSTORE PUSH32 0x4E6F74206120706C6179657220696E20746869732067616D6500000000000000 PUSH1 0x44 DUP3 ADD MSTORE PUSH1 0x64 ADD PUSH2 0x6BA JUMP JUMPDEST PUSH1 0x0 JUMPDEST PUSH1 0x3 DUP2 LT ISZERO PUSH2 0x14DB JUMPI PUSH1 0x0 DUP1 JUMPDEST PUSH1 0x7 DUP6 ADD SLOAD DUP2 LT ISZERO PUSH2 0x148E JUMPI DUP9 DUP4 PUSH1 0x3 DUP2 LT PUSH2 0x1453 JUMPI PUSH2 0x1453 PUSH2 0x219E JUMP JUMPDEST PUSH1 0x20 MUL ADD MLOAD DUP6 PUSH1 0x7 ADD DUP3 DUP2 SLOAD DUP2 LT PUSH2 0x146D JUMPI PUSH2 0x146D PUSH2 0x219E JUMP JUMPDEST SWAP1 PUSH1 0x0 MSTORE PUSH1 0x20 PUSH1 0x0 KECCAK256 ADD SLOAD SUB PUSH2 0x1486 JUMPI PUSH1 0x1 SWAP2 POP PUSH2 0x148E JUMP JUMPDEST PUSH1 0x1 ADD PUSH2 0x1435 JUMP JUMPDEST POP DUP1 PUSH2 0x14D2 JUMPI PUSH1 0x40 MLOAD PUSH3 0x461BCD PUSH1 0xE5 SHL DUP2 MSTORE PUSH1 0x20 PUSH1 0x4 DUP3 ADD MSTORE PUSH1 0x13 PUSH1 0x24 DUP3 ADD MSTORE PUSH19 0x24B73B30B634B21031B0B93210373AB6B132B9 PUSH1 0x69 SHL PUSH1 0x44 DUP3 ADD MSTORE PUSH1 0x64 ADD PUSH2 0x6BA JUMP JUMPDEST POP PUSH1 0x1 ADD PUSH2 0x1428 JUMP JUMPDEST POP PUSH1 0x40 DUP1 MLOAD PUSH1 0x80 DUP2 ADD DUP3 MSTORE CALLER DUP1 DUP3 MSTORE PUSH1 0x20 DUP1 DUP4 ADD DUP11 DUP2 MSTORE TIMESTAMP DUP5 DUP7 ADD MSTORE PUSH1 0x1 PUSH1 0x60 DUP6 ADD DUP2 SWAP1 MSTORE PUSH1 0x0 SWAP4 DUP5 MSTORE PUSH1 0x8 DUP9 ADD SWAP1 SWAP3 MSTORE SWAP4 SWAP1 SWAP2 KECCAK256 DUP3 MLOAD DUP2 SLOAD PUSH1 0x1 PUSH1 0x1 PUSH1 0xA0 SHL SUB NOT AND PUSH1 0x1 PUSH1 0x1 PUSH1 0xA0 SHL SUB SWAP1 SWAP2 AND OR DUP2 SSTORE SWAP3 MLOAD SWAP2 SWAP3 SWAP2 PUSH2 0x153F SWAP2 DUP4 ADD SWAP1 PUSH1 0x3 PUSH2 0x1AD4 JUMP JUMPDEST POP PUSH1 0x40 DUP3 DUP2 ADD MLOAD PUSH1 0x4 DUP4 ADD SSTORE PUSH1 0x60 SWAP1 SWAP3 ADD MLOAD PUSH1 0x5 SWAP1 SWAP2 ADD DUP1 SLOAD PUSH1 0xFF NOT AND SWAP2 ISZERO ISZERO SWAP2 SWAP1 SWAP2 OR SWAP1 SSTORE MLOAD CALLER SWAP1 DUP9 SWAP1 PUSH32 0xD67DE08BD4BA5B6A6548667370488A8781753615ACB89AE1AC1F96F6C270ECF0 SWAP1 PUSH2 0x1597 SWAP1 DUP11 SWAP1 PUSH2 0x21B4 JUMP JUMPDEST PUSH1 0x40 MLOAD DUP1 SWAP2 SUB SWAP1 LOG3 PUSH1 0x1 PUSH1 0x0 JUMPDEST PUSH1 0x6 DUP5 ADD SLOAD DUP2 LT ISZERO PUSH2 0x160B JUMPI DUP4 PUSH1 0x8 ADD PUSH1 0x0 DUP6 PUSH1 0x6 ADD DUP4 DUP2 SLOAD DUP2 LT PUSH2 0x15CB JUMPI PUSH2 0x15CB PUSH2 0x219E JUMP JUMPDEST PUSH1 0x0 SWAP2 DUP3 MSTORE PUSH1 0x20 DUP1 DUP4 KECCAK256 SWAP1 SWAP2 ADD SLOAD PUSH1 0x1 PUSH1 0x1 PUSH1 0xA0 SHL SUB AND DUP4 MSTORE DUP3 ADD SWAP3 SWAP1 SWAP3 MSTORE PUSH1 0x40 ADD SWAP1 KECCAK256 PUSH1 0x5 ADD SLOAD PUSH1 0xFF AND PUSH2 0x1603 JUMPI PUSH1 0x0 SWAP2 POP PUSH2 0x160B JUMP JUMPDEST PUSH1 0x1 ADD PUSH2 0x15A4 JUMP JUMPDEST POP DUP1 DUP1 PUSH2 0x161C JUMPI POP DUP3 PUSH1 0x4 ADD SLOAD TIMESTAMP LT ISZERO JUMPDEST ISZERO PUSH2 0x1642 JUMPI PUSH1 0x1 DUP4 ADD DUP1 SLOAD PUSH1 0xFF NOT AND PUSH1 0x3 OR SWAP1 SSTORE PUSH2 0x163C PUSH2 0x258 TIMESTAMP PUSH2 0x20F9 JUMP JUMPDEST PUSH1 0x5 DUP5 ADD SSTORE JUMPDEST POP POP POP POP POP POP POP POP JUMP JUMPDEST PUSH1 0x0 DUP1 PUSH1 0x0 DUP1 PUSH1 0x0 DUP1 PUSH1 0x0 DUP8 PUSH1 0x0 DUP2 GT DUP1 ISZERO PUSH2 0x1669 JUMPI POP PUSH1 0x0 SLOAD DUP2 LT JUMPDEST PUSH2 0x1685 JUMPI PUSH1 0x40 MLOAD PUSH3 0x461BCD PUSH1 0xE5 SHL DUP2 MSTORE PUSH1 0x4 ADD PUSH2 0x6BA SWAP1 PUSH2 0x20A1 JUMP JUMPDEST POP POP POP PUSH1 0x0 SWAP6 DUP7 MSTORE POP POP PUSH1 0x1 PUSH1 0x20 DUP2 SWAP1 MSTORE PUSH1 0x40 SWAP1 SWAP5 KECCAK256 SWAP4 DUP5 ADD SLOAD PUSH1 0x2 DUP6 ADD SLOAD PUSH1 0x3 DUP7 ADD SLOAD PUSH1 0x4 DUP8 ADD SLOAD PUSH1 0x5 DUP9 ADD SLOAD PUSH1 0x6 DUP10 ADD SLOAD PUSH1 0x7 SWAP1 SWAP10 ADD SLOAD PUSH1 0xFF SWAP1 SWAP6 AND SWAP10 SWAP4 SWAP9 SWAP3 SWAP8 POP SWAP1 SWAP6 POP SWAP4 POP SWAP2 SWAP1 JUMP JUMPDEST PUSH1 0x0 JUMPDEST SWAP3 SWAP2 POP POP JUMP JUMPDEST PUSH1 0x0 DUP1 PUSH1 0xA PUSH2 0x16EA DUP2 DUP6 PUSH2 0x21D8 JUMP JUMPDEST PUSH2 0x16F4 SWAP2 SWAP1 PUSH2 0x21EC JUMP JUMPDEST SWAP1 POP PUSH1 0x0 PUSH2 0x1703 PUSH1 0x7 DUP4 PUSH2 0x21EC JUMP JUMPDEST PUSH1 0x6 DUP2 GT ISZERO PUSH2 0x1714 JUMPI PUSH2 0x1714 PUSH2 0x1BCF JUMP JUMPDEST SWAP1 POP PUSH1 0x0 DUP2 PUSH1 0x6 DUP2 GT ISZERO PUSH2 0x172A JUMPI PUSH2 0x172A PUSH2 0x1BCF JUMP JUMPDEST EQ DUP1 PUSH2 0x1747 JUMPI POP PUSH1 0x1 DUP2 PUSH1 0x6 DUP2 GT ISZERO PUSH2 0x1745 JUMPI PUSH2 0x1745 PUSH2 0x1BCF JUMP JUMPDEST EQ JUMPDEST ISZERO PUSH2 0x1756 JUMPI POP PUSH1 0xA SWAP4 SWAP3 POP POP POP JUMP JUMPDEST PUSH1 0x2 DUP2 PUSH1 0x6 DUP2 GT ISZERO PUSH2 0x176A JUMPI PUSH2 0x176A PUSH2 0x1BCF JUMP JUMPDEST EQ DUP1 PUSH2 0x1787 JUMPI POP PUSH1 0x3 DUP2 PUSH1 0x6 DUP2 GT ISZERO PUSH2 0x1785 JUMPI PUSH2 0x1785 PUSH2 0x1BCF JUMP JUMPDEST EQ JUMPDEST ISZERO PUSH2 0x1796 JUMPI POP PUSH1 0xF SWAP4 SWAP3 POP POP POP JUMP JUMPDEST PUSH1 0x4 DUP2 PUSH1 0x6 DUP2 GT ISZERO PUSH2 0x17AA JUMPI PUSH2 0x17AA PUSH2 0x1BCF JUMP JUMPDEST EQ DUP1 PUSH2 0x17C7 JUMPI POP PUSH1 0x5 DUP2 PUSH1 0x6 DUP2 GT ISZERO PUSH2 0x17C5 JUMPI PUSH2 0x17C5 PUSH2 0x1BCF JUMP JUMPDEST EQ JUMPDEST ISZERO PUSH2 0x17D6 JUMPI POP PUSH1 0x12 SWAP4 SWAP3 POP POP POP JUMP JUMPDEST PUSH1 0x6 DUP2 PUSH1 0x6 DUP2 GT ISZERO PUSH2 0x17EA JUMPI PUSH2 0x17EA PUSH2 0x1BCF JUMP JUMPDEST SUB PUSH2 0x17F9 JUMPI POP PUSH1 0x14 SWAP4 SWAP3 POP POP POP JUMP JUMPDEST POP PUSH1 0x0 SWAP4 SWAP3 POP POP POP JUMP JUMPDEST PUSH1 0x0 DUP3 DUP2 MSTORE PUSH1 0x1 PUSH1 0x20 MSTORE PUSH1 0x40 DUP2 KECCAK256 SWAP1 PUSH1 0x1 DUP3 ADD SLOAD PUSH1 0xFF AND PUSH1 0x4 DUP2 GT ISZERO PUSH2 0x182B JUMPI PUSH2 0x182B PUSH2 0x1BCF JUMP JUMPDEST EQ PUSH2 0x186C JUMPI PUSH1 0x40 MLOAD PUSH3 0x461BCD PUSH1 0xE5 SHL DUP2 MSTORE PUSH1 0x20 PUSH1 0x4 DUP3 ADD MSTORE PUSH1 0x11 PUSH1 0x24 DUP3 ADD MSTORE PUSH17 0x47616D65206E6F7420696E206C6F626279 PUSH1 0x78 SHL PUSH1 0x44 DUP3 ADD MSTORE PUSH1 0x64 ADD PUSH2 0x6BA JUMP JUMPDEST PUSH2 0x1876 DUP4 DUP4 PUSH2 0x18D7 JUMP JUMPDEST PUSH1 0x1 DUP2 ADD DUP1 SLOAD PUSH1 0xFF NOT AND PUSH1 0x2 OR SWAP1 SSTORE PUSH2 0x1890 PUSH1 0x3C TIMESTAMP PUSH2 0x20F9 JUMP JUMPDEST PUSH1 0x4 DUP3 ADD SSTORE PUSH1 0x40 MLOAD DUP4 SWAP1 PUSH32 0x1E16023BC0E15B4AD55F8E37DCCF554D1451B0D26C8E55CD0E7E041EEA33C75D SWAP1 PUSH2 0x18CA SWAP1 PUSH1 0x7 DUP6 ADD SWAP1 PUSH2 0x2200 JUMP JUMPDEST PUSH1 0x40 MLOAD DUP1 SWAP2 SUB SWAP1 LOG2 POP POP POP JUMP JUMPDEST PUSH1 0x0 DUP3 DUP2 MSTORE PUSH1 0x1 PUSH1 0x20 MSTORE PUSH1 0x40 SWAP1 KECCAK256 PUSH1 0x7 DUP2 ADD SLOAD ISZERO PUSH2 0x1937 JUMPI PUSH1 0x40 MLOAD PUSH3 0x461BCD PUSH1 0xE5 SHL DUP2 MSTORE PUSH1 0x20 PUSH1 0x4 DUP3 ADD MSTORE PUSH1 0x17 PUSH1 0x24 DUP3 ADD MSTORE PUSH32 0x436172647320616C72656164792067656E657261746564000000000000000000 PUSH1 0x44 DUP3 ADD MSTORE PUSH1 0x64 ADD PUSH2 0x6BA JUMP JUMPDEST DUP2 ISZERO PUSH2 0x194B JUMPI PUSH2 0x1946 DUP4 PUSH2 0x1954 JUMP JUMPDEST POP POP POP JUMP JUMPDEST PUSH2 0x1946 DUP4 PUSH2 0x1A11 JUMP JUMPDEST PUSH1 0x0 DUP2 DUP2 MSTORE PUSH1 0x1 PUSH1 0x20 SWAP1 DUP2 MSTORE PUSH1 0x40 DUP1 DUP4 KECCAK256 DUP2 MLOAD PUSH2 0x140 DUP2 ADD DUP4 MSTORE PUSH2 0x4D2 DUP2 MSTORE PUSH2 0x162E SWAP4 DUP2 ADD SWAP4 SWAP1 SWAP4 MSTORE PUSH2 0x2334 SWAP2 DUP4 ADD SWAP2 SWAP1 SWAP2 MSTORE PUSH2 0xD80 PUSH1 0x60 DUP4 ADD MSTORE PUSH2 0x1ED2 PUSH1 0x80 DUP4 ADD MSTORE PUSH2 0x929 PUSH1 0xA0 DUP4 ADD MSTORE PUSH2 0x1A85 PUSH1 0xC0 DUP4 ADD MSTORE PUSH2 0x11D7 PUSH1 0xE0 DUP4 ADD MSTORE PUSH2 0x22C5 PUSH2 0x100 DUP4 ADD MSTORE PUSH2 0x54D PUSH2 0x120 DUP4 ADD MSTORE SWAP2 JUMPDEST PUSH1 0xA DUP2 LT ISZERO PUSH2 0x1A0B JUMPI DUP3 PUSH1 0x7 ADD DUP3 DUP3 PUSH1 0xA DUP2 LT PUSH2 0x19E2 JUMPI PUSH2 0x19E2 PUSH2 0x219E JUMP JUMPDEST PUSH1 0x20 SWAP1 DUP2 MUL SWAP2 SWAP1 SWAP2 ADD MLOAD DUP3 SLOAD PUSH1 0x1 DUP2 DUP2 ADD DUP6 SSTORE PUSH1 0x0 SWAP5 DUP6 MSTORE SWAP3 SWAP1 SWAP4 KECCAK256 SWAP1 SWAP3 ADD SWAP2 SWAP1 SWAP2 SSTORE ADD PUSH2 0x19C3 JUMP JUMPDEST POP POP POP POP JUMP JUMPDEST PUSH1 0x0 DUP2 DUP2 MSTORE PUSH1 0x1 PUSH1 0x20 MSTORE PUSH1 0x40 DUP2 KECCAK256 SWAP1 JUMPDEST PUSH1 0xA DUP2 LT ISZERO PUSH2 0x1946 JUMPI PUSH1 0x40 DUP1 MLOAD TIMESTAMP PUSH1 0x20 DUP3 ADD MSTORE PREVRANDAO SWAP2 DUP2 ADD SWAP2 SWAP1 SWAP2 MSTORE PUSH1 0x60 DUP1 DUP3 ADD DUP6 SWAP1 MSTORE PUSH1 0x80 DUP3 ADD DUP4 SWAP1 MSTORE CALLER SWAP1 SHL PUSH12 0xFFFFFFFFFFFFFFFFFFFFFFFF NOT AND PUSH1 0xA0 DUP3 ADD MSTORE PUSH1 0x0 SWAP1 PUSH2 0x2710 SWAP1 PUSH1 0xB4 ADD PUSH1 0x40 MLOAD PUSH1 0x20 DUP2 DUP4 SUB SUB DUP2 MSTORE SWAP1 PUSH1 0x40 MSTORE DUP1 MLOAD SWAP1 PUSH1 0x20 ADD KECCAK256 PUSH1 0x0 SHR PUSH2 0x1A8F SWAP2 SWAP1 PUSH2 0x21EC JUMP JUMPDEST PUSH1 0x7 DUP5 ADD DUP1 SLOAD PUSH1 0x1 DUP2 DUP2 ADD DUP4 SSTORE PUSH1 0x0 SWAP3 DUP4 MSTORE PUSH1 0x20 SWAP1 SWAP3 KECCAK256 ADD SWAP2 SWAP1 SWAP2 SSTORE SWAP2 SWAP1 SWAP2 ADD SWAP1 POP PUSH2 0x1A21 JUMP JUMPDEST PUSH1 0x40 MLOAD DUP1 PUSH1 0x60 ADD PUSH1 0x40 MSTORE DUP1 PUSH1 0x3 SWAP1 PUSH1 0x20 DUP3 MUL DUP1 CALLDATASIZE DUP4 CALLDATACOPY POP SWAP2 SWAP3 SWAP2 POP POP JUMP JUMPDEST DUP3 PUSH1 0x3 DUP2 ADD SWAP3 DUP3 ISZERO PUSH2 0x1B02 JUMPI SWAP2 PUSH1 0x20 MUL DUP3 ADD JUMPDEST DUP3 DUP2 GT ISZERO PUSH2 0x1B02 JUMPI DUP3 MLOAD DUP3 SSTORE SWAP2 PUSH1 0x20 ADD SWAP2 SWAP1 PUSH1 0x1 ADD SWAP1 PUSH2 0x1AE7 JUMP JUMPDEST POP PUSH2 0x1B0E SWAP3 SWAP2 POP PUSH2 0x1B12 JUMP JUMPDEST POP SWAP1 JUMP JUMPDEST JUMPDEST DUP1 DUP3 GT ISZERO PUSH2 0x1B0E JUMPI PUSH1 0x0 DUP2 SSTORE PUSH1 0x1 ADD PUSH2 0x1B13 JUMP JUMPDEST DUP1 CALLDATALOAD PUSH1 0x1 PUSH1 0x1 PUSH1 0xA0 SHL SUB DUP2 AND DUP2 EQ PUSH2 0x1B3E JUMPI PUSH1 0x0 DUP1 REVERT JUMPDEST SWAP2 SWAP1 POP JUMP JUMPDEST PUSH1 0x0 DUP1 PUSH1 0x40 DUP4 DUP6 SUB SLT ISZERO PUSH2 0x1B56 JUMPI PUSH1 0x0 DUP1 REVERT JUMPDEST DUP3 CALLDATALOAD SWAP2 POP PUSH2 0x1B66 PUSH1 0x20 DUP5 ADD PUSH2 0x1B27 JUMP JUMPDEST SWAP1 POP SWAP3 POP SWAP3 SWAP1 POP JUMP JUMPDEST DUP1 PUSH1 0x0 JUMPDEST PUSH1 0x3 DUP2 LT ISZERO PUSH2 0x1A0B JUMPI DUP2 MLOAD DUP5 MSTORE PUSH1 0x20 SWAP4 DUP5 ADD SWAP4 SWAP1 SWAP2 ADD SWAP1 PUSH1 0x1 ADD PUSH2 0x1B73 JUMP JUMPDEST PUSH1 0xA0 DUP2 ADD PUSH2 0x1BA0 DUP3 DUP7 PUSH2 0x1B6F JUMP JUMPDEST DUP4 PUSH1 0x60 DUP4 ADD MSTORE DUP3 ISZERO ISZERO PUSH1 0x80 DUP4 ADD MSTORE SWAP5 SWAP4 POP POP POP POP JUMP JUMPDEST PUSH1 0x0 PUSH1 0x20 DUP3 DUP5 SUB SLT ISZERO PUSH2 0x1BC8 JUMPI PUSH1 0x0 DUP1 REVERT JUMPDEST POP CALLDATALOAD SWAP2 SWAP1 POP JUMP JUMPDEST PUSH4 0x4E487B71 PUSH1 0xE0 SHL PUSH1 0x0 MSTORE PUSH1 0x21 PUSH1 0x4 MSTORE PUSH1 0x24 PUSH1 0x0 REVERT JUMPDEST PUSH1 0x5 DUP2 LT PUSH2 0x1C03 JUMPI PUSH4 0x4E487B71 PUSH1 0xE0 SHL PUSH1 0x0 MSTORE PUSH1 0x21 PUSH1 0x4 MSTORE PUSH1 0x24 PUSH1 0x0 REVERT JUMPDEST SWAP1 MSTORE JUMP JUMPDEST DUP8 DUP2 MSTORE PUSH1 0xE0 DUP2 ADD PUSH2 0x1C1B PUSH1 0x20 DUP4 ADD DUP10 PUSH2 0x1BE5 JUMP JUMPDEST PUSH1 0x40 DUP3 ADD SWAP7 SWAP1 SWAP7 MSTORE PUSH1 0x60 DUP2 ADD SWAP5 SWAP1 SWAP5 MSTORE PUSH1 0x80 DUP5 ADD SWAP3 SWAP1 SWAP3 MSTORE PUSH1 0xA0 DUP4 ADD MSTORE ISZERO ISZERO PUSH1 0xC0 SWAP1 SWAP2 ADD MSTORE SWAP3 SWAP2 POP POP JUMP JUMPDEST PUSH1 0x20 DUP1 DUP3 MSTORE DUP3 MLOAD DUP3 DUP3 ADD DUP2 SWAP1 MSTORE PUSH1 0x0 SWAP2 DUP5 ADD SWAP1 PUSH1 0x40 DUP5 ADD SWAP1 DUP4 JUMPDEST DUP2 DUP2 LT ISZERO PUSH2 0x1C87 JUMPI DUP4 MLOAD PUSH1 0x1 PUSH1 0x1 PUSH1 0xA0 SHL SUB AND DUP4 MSTORE PUSH1 0x20 SWAP4 DUP5 ADD SWAP4 SWAP1 SWAP3 ADD SWAP2 PUSH1 0x1 ADD PUSH2 0x1C60 JUMP JUMPDEST POP SWAP1 SWAP6 SWAP5 POP POP POP POP POP JUMP JUMPDEST PUSH1 0x0 DUP2 MLOAD DUP1 DUP5 MSTORE PUSH1 0x0 JUMPDEST DUP2 DUP2 LT ISZERO PUSH2 0x1CB8 JUMPI PUSH1 0x20 DUP2 DUP6 ADD DUP2 ADD MLOAD DUP7 DUP4 ADD DUP3 ADD MSTORE ADD PUSH2 0x1C9C JUMP JUMPDEST POP PUSH1 0x0 PUSH1 0x20 DUP3 DUP7 ADD ADD MSTORE PUSH1 0x20 PUSH1 0x1F NOT PUSH1 0x1F DUP4 ADD AND DUP6 ADD ADD SWAP2 POP POP SWAP3 SWAP2 POP POP JUMP JUMPDEST DUP3 ISZERO ISZERO DUP2 MSTORE PUSH1 0x40 PUSH1 0x20 DUP3 ADD MSTORE PUSH1 0x0 PUSH2 0x1CF3 PUSH1 0x40 DUP4 ADD DUP5 PUSH2 0x1C92 JUMP JUMPDEST SWAP5 SWAP4 POP POP POP POP JUMP JUMPDEST PUSH1 0x0 DUP1 PUSH1 0x40 DUP4 DUP6 SUB SLT ISZERO PUSH2 0x1D0E JUMPI PUSH1 0x0 DUP1 REVERT JUMPDEST POP POP DUP1 CALLDATALOAD SWAP3 PUSH1 0x20 SWAP1 SWAP2 ADD CALLDATALOAD SWAP2 POP JUMP JUMPDEST PUSH1 0x0 PUSH1 0x20 DUP3 DUP5 SUB SLT ISZERO PUSH2 0x1D2F JUMPI PUSH1 0x0 DUP1 REVERT JUMPDEST PUSH2 0x1D38 DUP3 PUSH2 0x1B27 JUMP JUMPDEST SWAP4 SWAP3 POP POP POP JUMP JUMPDEST PUSH1 0x20 DUP1 DUP3 MSTORE DUP3 MLOAD DUP3 DUP3 ADD DUP2 SWAP1 MSTORE PUSH1 0x0 SWAP2 DUP5 ADD SWAP1 PUSH1 0x40 DUP5 ADD SWAP1 DUP4 JUMPDEST DUP2 DUP2 LT ISZERO PUSH2 0x1C87 JUMPI DUP4 MLOAD DUP4 MSTORE PUSH1 0x20 SWAP4 DUP5 ADD SWAP4 SWAP1 SWAP3 ADD SWAP2 PUSH1 0x1 ADD PUSH2 0x1D59 JUMP JUMPDEST PUSH4 0x4E487B71 PUSH1 0xE0 SHL PUSH1 0x0 MSTORE PUSH1 0x41 PUSH1 0x4 MSTORE PUSH1 0x24 PUSH1 0x0 REVERT JUMPDEST PUSH1 0x40 MLOAD PUSH1 0x1F DUP3 ADD PUSH1 0x1F NOT AND DUP2 ADD PUSH8 0xFFFFFFFFFFFFFFFF DUP2 GT DUP3 DUP3 LT OR ISZERO PUSH2 0x1DB6 JUMPI PUSH2 0x1DB6 PUSH2 0x1D77 JUMP JUMPDEST PUSH1 0x40 MSTORE SWAP2 SWAP1 POP JUMP JUMPDEST PUSH1 0x0 PUSH8 0xFFFFFFFFFFFFFFFF DUP3 GT ISZERO PUSH2 0x1DD8 JUMPI PUSH2 0x1DD8 PUSH2 0x1D77 JUMP JUMPDEST POP PUSH1 0x5 SHL PUSH1 0x20 ADD SWAP1 JUMP JUMPDEST PUSH1 0x0 DUP3 PUSH1 0x1F DUP4 ADD SLT PUSH2 0x1DF3 JUMPI PUSH1 0x0 DUP1 REVERT JUMPDEST DUP2 CALLDATALOAD PUSH2 0x1E06 PUSH2 0x1E01 DUP3 PUSH2 0x1DBE JUMP JUMPDEST PUSH2 0x1D8D JUMP JUMPDEST DUP1 DUP3 DUP3 MSTORE PUSH1 0x20 DUP3 ADD SWAP2 POP PUSH1 0x20 DUP4 PUSH1 0x5 SHL DUP7 ADD ADD SWAP3 POP DUP6 DUP4 GT ISZERO PUSH2 0x1E28 JUMPI PUSH1 0x0 DUP1 REVERT JUMPDEST PUSH1 0x20 DUP6 ADD JUMPDEST DUP4 DUP2 LT ISZERO PUSH2 0x1E45 JUMPI DUP1 CALLDATALOAD DUP4 MSTORE PUSH1 0x20 SWAP3 DUP4 ADD SWAP3 ADD PUSH2 0x1E2D JUMP JUMPDEST POP SWAP6 SWAP5 POP POP POP POP POP JUMP JUMPDEST PUSH1 0x0 DUP1 PUSH1 0x0 DUP1 PUSH1 0x80 DUP6 DUP8 SUB SLT ISZERO PUSH2 0x1E65 JUMPI PUSH1 0x0 DUP1 REVERT JUMPDEST DUP5 CALLDATALOAD SWAP4 POP PUSH1 0x20 DUP6 ADD CALLDATALOAD PUSH8 0xFFFFFFFFFFFFFFFF DUP2 GT ISZERO PUSH2 0x1E83 JUMPI PUSH1 0x0 DUP1 REVERT JUMPDEST DUP6 ADD PUSH1 0x1F DUP2 ADD DUP8 SGT PUSH2 0x1E94 JUMPI PUSH1 0x0 DUP1 REVERT JUMPDEST DUP1 CALLDATALOAD PUSH2 0x1EA2 PUSH2 0x1E01 DUP3 PUSH2 0x1DBE JUMP JUMPDEST DUP1 DUP3 DUP3 MSTORE PUSH1 0x20 DUP3 ADD SWAP2 POP PUSH1 0x20 DUP4 PUSH1 0x5 SHL DUP6 ADD ADD SWAP3 POP DUP10 DUP4 GT ISZERO PUSH2 0x1EC4 JUMPI PUSH1 0x0 DUP1 REVERT JUMPDEST PUSH1 0x20 DUP5 ADD JUMPDEST DUP4 DUP2 LT ISZERO PUSH2 0x1F68 JUMPI DUP1 CALLDATALOAD PUSH8 0xFFFFFFFFFFFFFFFF DUP2 GT ISZERO PUSH2 0x1EE8 JUMPI PUSH1 0x0 DUP1 REVERT JUMPDEST DUP6 ADD PUSH1 0x3F DUP2 ADD DUP13 SGT PUSH2 0x1EF9 JUMPI PUSH1 0x0 DUP1 REVERT JUMPDEST PUSH1 0x20 DUP2 ADD CALLDATALOAD PUSH8 0xFFFFFFFFFFFFFFFF DUP2 GT ISZERO PUSH2 0x1F16 JUMPI PUSH2 0x1F16 PUSH2 0x1D77 JUMP JUMPDEST PUSH2 0x1F29 PUSH1 0x1F DUP3 ADD PUSH1 0x1F NOT AND PUSH1 0x20 ADD PUSH2 0x1D8D JUMP JUMPDEST DUP2 DUP2 MSTORE PUSH1 0x40 DUP4 DUP4 ADD ADD DUP15 LT ISZERO PUSH2 0x1F3E JUMPI PUSH1 0x0 DUP1 REVERT JUMPDEST DUP2 PUSH1 0x40 DUP5 ADD PUSH1 0x20 DUP4 ADD CALLDATACOPY PUSH1 0x0 PUSH1 0x20 DUP4 DUP4 ADD ADD MSTORE DUP1 DUP7 MSTORE POP POP POP PUSH1 0x20 DUP4 ADD SWAP3 POP PUSH1 0x20 DUP2 ADD SWAP1 POP PUSH2 0x1EC9 JUMP JUMPDEST POP SWAP6 POP POP POP POP PUSH1 0x40 DUP6 ADD CALLDATALOAD PUSH8 0xFFFFFFFFFFFFFFFF DUP2 GT ISZERO PUSH2 0x1F88 JUMPI PUSH1 0x0 DUP1 REVERT JUMPDEST PUSH2 0x1F94 DUP8 DUP3 DUP9 ADD PUSH2 0x1DE2 JUMP JUMPDEST SWAP5 SWAP8 SWAP4 SWAP7 POP SWAP4 SWAP5 PUSH1 0x60 ADD CALLDATALOAD SWAP4 POP POP POP JUMP JUMPDEST PUSH1 0x0 DUP1 PUSH1 0x40 DUP4 DUP6 SUB SLT ISZERO PUSH2 0x1FB8 JUMPI PUSH1 0x0 DUP1 REVERT JUMPDEST DUP3 CALLDATALOAD SWAP2 POP PUSH1 0x20 DUP4 ADD CALLDATALOAD DUP1 ISZERO ISZERO DUP2 EQ PUSH2 0x1FCF JUMPI PUSH1 0x0 DUP1 REVERT JUMPDEST DUP1 SWAP2 POP POP SWAP3 POP SWAP3 SWAP1 POP JUMP JUMPDEST PUSH1 0x0 DUP1 PUSH1 0x80 DUP4 DUP6 SUB SLT ISZERO PUSH2 0x1FED JUMPI PUSH1 0x0 DUP1 REVERT JUMPDEST DUP3 CALLDATALOAD SWAP2 POP PUSH1 0x3F DUP4 ADD DUP5 SGT PUSH2 0x2000 JUMPI PUSH1 0x0 DUP1 REVERT JUMPDEST PUSH1 0x40 MLOAD PUSH1 0x60 DUP2 ADD PUSH8 0xFFFFFFFFFFFFFFFF DUP2 GT DUP3 DUP3 LT OR ISZERO PUSH2 0x2023 JUMPI PUSH2 0x2023 PUSH2 0x1D77 JUMP JUMPDEST PUSH1 0x40 MSTORE DUP1 PUSH1 0x80 DUP6 ADD DUP7 DUP2 GT ISZERO PUSH2 0x2038 JUMPI PUSH1 0x0 DUP1 REVERT JUMPDEST PUSH1 0x20 DUP7 ADD JUMPDEST DUP2 DUP2 LT ISZERO PUSH2 0x2055 JUMPI DUP1 CALLDATALOAD DUP4 MSTORE PUSH1 0x20 SWAP3 DUP4 ADD SWAP3 ADD PUSH2 0x203D JUMP JUMPDEST POP POP POP DUP1 SWAP2 POP POP SWAP3 POP SWAP3 SWAP1 POP JUMP JUMPDEST PUSH1 0xE0 DUP2 ADD PUSH2 0x2071 DUP3 DUP11 PUSH2 0x1BE5 JUMP JUMPDEST DUP8 PUSH1 0x20 DUP4 ADD MSTORE DUP7 PUSH1 0x40 DUP4 ADD MSTORE DUP6 PUSH1 0x60 DUP4 ADD MSTORE DUP5 PUSH1 0x80 DUP4 ADD MSTORE DUP4 PUSH1 0xA0 DUP4 ADD MSTORE DUP3 PUSH1 0xC0 DUP4 ADD MSTORE SWAP9 SWAP8 POP POP POP POP POP POP POP POP JUMP JUMPDEST PUSH1 0x20 DUP1 DUP3 MSTORE PUSH1 0xF SWAP1 DUP3 ADD MSTORE PUSH15 0x125B9D985B1A590819D85B59481251 PUSH1 0x8A SHL PUSH1 0x40 DUP3 ADD MSTORE PUSH1 0x60 ADD SWAP1 JUMP JUMPDEST PUSH4 0x4E487B71 PUSH1 0xE0 SHL PUSH1 0x0 MSTORE PUSH1 0x11 PUSH1 0x4 MSTORE PUSH1 0x24 PUSH1 0x0 REVERT JUMPDEST PUSH1 0x0 PUSH1 0x1 DUP3 ADD PUSH2 0x20F2 JUMPI PUSH2 0x20F2 PUSH2 0x20CA JUMP JUMPDEST POP PUSH1 0x1 ADD SWAP1 JUMP JUMPDEST DUP1 DUP3 ADD DUP1 DUP3 GT ISZERO PUSH2 0x16D5 JUMPI PUSH2 0x16D5 PUSH2 0x20CA JUMP JUMPDEST PUSH1 0x20 DUP1 DUP3 MSTORE PUSH1 0x13 SWAP1 DUP3 ADD MSTORE PUSH19 0x496E76616C69642067616D6520737461747573 PUSH1 0x68 SHL PUSH1 0x40 DUP3 ADD MSTORE PUSH1 0x60 ADD SWAP1 JUMP JUMPDEST PUSH1 0x0 PUSH1 0x20 DUP3 ADD PUSH1 0x20 DUP4 MSTORE DUP1 DUP5 MLOAD DUP1 DUP4 MSTORE PUSH1 0x40 DUP6 ADD SWAP2 POP PUSH1 0x40 DUP2 PUSH1 0x5 SHL DUP7 ADD ADD SWAP3 POP PUSH1 0x20 DUP7 ADD PUSH1 0x0 JUMPDEST DUP3 DUP2 LT ISZERO PUSH2 0x2192 JUMPI PUSH1 0x3F NOT DUP8 DUP7 SUB ADD DUP5 MSTORE PUSH2 0x217D DUP6 DUP4 MLOAD PUSH2 0x1C92 JUMP JUMPDEST SWAP5 POP PUSH1 0x20 SWAP4 DUP5 ADD SWAP4 SWAP2 SWAP1 SWAP2 ADD SWAP1 PUSH1 0x1 ADD PUSH2 0x2161 JUMP JUMPDEST POP SWAP3 SWAP7 SWAP6 POP POP POP POP POP POP JUMP JUMPDEST PUSH4 0x4E487B71 PUSH1 0xE0 SHL PUSH1 0x0 MSTORE PUSH1 0x32 PUSH1 0x4 MSTORE PUSH1 0x24 PUSH1 0x0 REVERT JUMPDEST PUSH1 0x60 DUP2 ADD PUSH2 0x16D5 DUP3 DUP5 PUSH2 0x1B6F JUMP JUMPDEST PUSH4 0x4E487B71 PUSH1 0xE0 SHL PUSH1 0x0 MSTORE PUSH1 0x12 PUSH1 0x4 MSTORE PUSH1 0x24 PUSH1 0x0 REVERT JUMPDEST PUSH1 0x0 DUP3 PUSH2 0x21E7 JUMPI PUSH2 0x21E7 PUSH2 0x21C2 JUMP JUMPDEST POP DIV SWAP1 JUMP JUMPDEST PUSH1 0x0 DUP3 PUSH2 0x21FB JUMPI PUSH2 0x21FB PUSH2 0x21C2 JUMP JUMPDEST POP MOD SWAP1 JUMP JUMPDEST PUSH1 0x20 DUP1 DUP3 MSTORE DUP3 SLOAD DUP3 DUP3 ADD DUP2 SWAP1 MSTORE PUSH1 0x0 DUP5 DUP2 MSTORE SWAP2 DUP3 KECCAK256 SWAP1 PUSH1 0x40 DUP5 ADD SWAP1 DUP4 JUMPDEST DUP2 DUP2 LT ISZERO PUSH2 0x1C87 JUMPI DUP4 SLOAD DUP4 MSTORE PUSH1 0x1 SWAP4 DUP5 ADD SWAP4 PUSH1 0x20 SWAP1 SWAP4 ADD SWAP3 ADD PUSH2 0x221D JUMP INVALID LOG2 PUSH5 0x6970667358 0x22 SLT KECCAK256 0xC7 DUP9 0xCD CODECOPY PUSH17 0x4809B8BA346DC1B4CF5BBFD5C35DA8C50A MSTORE8 POP 0xD1 DUP3 PUSH0 0xB1 PUSH20 0xC2ACF764736F6C634300081C0033000000000000 "
        },
        "methodIdentifiers": {
          "CHOICE_DURATION()": "e5c43ef1",
          "LOBBY_DURATION()": "5c5c8382",
          "MIN_PLAYERS()": "85f07bbe",
          "POINTS_MARKET_CAP_VOLUME()": "b0fd159f",
          "POINTS_PERCENTAGE_CHANGE()": "1226897a",
          "POINTS_PRICE_ABOVE_BELOW()": "bee4c6d3",
          "POINTS_PRICE_UP_DOWN()": "e7fad8af",
          "RESOLUTION_DURATION()": "7ca90e59",
          "assetPriceIds(uint256)": "3c8aec3f",
          "canStartGame(uint256)": "392b749c",
          "commitChoices(uint256,uint256[3])": "f79c913e",
          "createGame()": "7255d729",
          "endGame(uint256)": "d0399bb8",
          "games(uint256)": "117a5b90",
          "getGameCards(uint256)": "860cbc77",
          "getGamePlayers(uint256)": "15a40f49",
          "getGameState(uint256)": "ffde0c74",
          "getNextGameId()": "ede8af01",
          "getPlayerChoices(uint256,address)": "10c28d31",
          "getPlayerScore(address)": "e085c539",
          "getPredictionResult(uint256,uint256)": "7f57504f",
          "isContractActive()": "8f5949f9",
          "joinGame(uint256)": "efaa55a0",
          "leaderboard(uint256)": "bf368399",
          "playerScores(address)": "62550ae1",
          "pyth()": "f98d06f0",
          "setAssetPriceId(uint256,bytes32)": "53644f31",
          "startGame(uint256,bool)": "d7793c19",
          "updatePricesAndResolve(uint256,bytes[],bytes32[],uint256)": "a457d3d6"
        }
      }
    }
  }
}