{
  "contracts/TradingCardGame.sol": {
    "TradingCardGame": {
      "abi": [
        {
          "inputs": [
            {
              "internalType": "address",
              "name": "_pythAddress",
              "type": "address"
            },
            {
              "internalType": "address",
              "name": "_hyperlaneCelo",
              "type": "address"
            }
          ],
          "stateMutability": "nonpayable",
          "type": "constructor"
        },
        {
          "inputs": [
            {
              "internalType": "address",
              "name": "owner",
              "type": "address"
            }
          ],
          "name": "OwnableInvalidOwner",
          "type": "error"
        },
        {
          "inputs": [
            {
              "internalType": "address",
              "name": "account",
              "type": "address"
            }
          ],
          "name": "OwnableUnauthorizedAccount",
          "type": "error"
        },
        {
          "anonymous": false,
          "inputs": [
            {
              "indexed": true,
              "internalType": "uint256",
              "name": "gameId",
              "type": "uint256"
            },
            {
              "indexed": true,
              "internalType": "address",
              "name": "player",
              "type": "address"
            },
            {
              "indexed": false,
              "internalType": "uint256[3]",
              "name": "cards",
              "type": "uint256[3]"
            }
          ],
          "name": "ChoicesCommitted",
          "type": "event"
        },
        {
          "anonymous": false,
          "inputs": [
            {
              "indexed": true,
              "internalType": "uint256",
              "name": "gameId",
              "type": "uint256"
            },
            {
              "indexed": false,
              "internalType": "bytes32",
              "name": "randomNumber",
              "type": "bytes32"
            },
            {
              "indexed": false,
              "internalType": "uint64",
              "name": "sequenceNumber",
              "type": "uint64"
            }
          ],
          "name": "EntropyReceived",
          "type": "event"
        },
        {
          "anonymous": false,
          "inputs": [
            {
              "indexed": true,
              "internalType": "uint256",
              "name": "gameId",
              "type": "uint256"
            },
            {
              "indexed": false,
              "internalType": "uint256",
              "name": "requestNumber",
              "type": "uint256"
            }
          ],
          "name": "EntropyRequested",
          "type": "event"
        },
        {
          "anonymous": false,
          "inputs": [
            {
              "indexed": true,
              "internalType": "uint256",
              "name": "gameId",
              "type": "uint256"
            },
            {
              "indexed": false,
              "internalType": "uint256[]",
              "name": "cards",
              "type": "uint256[]"
            }
          ],
          "name": "GameActive",
          "type": "event"
        },
        {
          "anonymous": false,
          "inputs": [
            {
              "indexed": true,
              "internalType": "uint256",
              "name": "gameId",
              "type": "uint256"
            }
          ],
          "name": "GameEnded",
          "type": "event"
        },
        {
          "anonymous": false,
          "inputs": [
            {
              "indexed": true,
              "internalType": "uint256",
              "name": "gameId",
              "type": "uint256"
            },
            {
              "indexed": true,
              "internalType": "address",
              "name": "starter",
              "type": "address"
            }
          ],
          "name": "GameStarted",
          "type": "event"
        },
        {
          "anonymous": false,
          "inputs": [
            {
              "indexed": true,
              "internalType": "address",
              "name": "previousOwner",
              "type": "address"
            },
            {
              "indexed": true,
              "internalType": "address",
              "name": "newOwner",
              "type": "address"
            }
          ],
          "name": "OwnershipTransferred",
          "type": "event"
        },
        {
          "anonymous": false,
          "inputs": [
            {
              "indexed": true,
              "internalType": "uint256",
              "name": "gameId",
              "type": "uint256"
            },
            {
              "indexed": true,
              "internalType": "address",
              "name": "player",
              "type": "address"
            }
          ],
          "name": "PlayerJoined",
          "type": "event"
        },
        {
          "anonymous": false,
          "inputs": [
            {
              "indexed": true,
              "internalType": "uint256",
              "name": "gameId",
              "type": "uint256"
            },
            {
              "indexed": true,
              "internalType": "address",
              "name": "player",
              "type": "address"
            },
            {
              "indexed": false,
              "internalType": "uint256",
              "name": "points",
              "type": "uint256"
            }
          ],
          "name": "PointsAwarded",
          "type": "event"
        },
        {
          "anonymous": false,
          "inputs": [
            {
              "indexed": true,
              "internalType": "uint256",
              "name": "gameId",
              "type": "uint256"
            }
          ],
          "name": "PricesUpdated",
          "type": "event"
        },
        {
          "anonymous": false,
          "inputs": [
            {
              "indexed": true,
              "internalType": "address",
              "name": "recipient",
              "type": "address"
            },
            {
              "indexed": false,
              "internalType": "uint256",
              "name": "amount",
              "type": "uint256"
            }
          ],
          "name": "Withdrawn",
          "type": "event"
        },
        {
          "inputs": [],
          "name": "CHOICE_DURATION",
          "outputs": [
            {
              "internalType": "uint256",
              "name": "",
              "type": "uint256"
            }
          ],
          "stateMutability": "view",
          "type": "function"
        },
        {
          "inputs": [],
          "name": "LOBBY_DURATION",
          "outputs": [
            {
              "internalType": "uint256",
              "name": "",
              "type": "uint256"
            }
          ],
          "stateMutability": "view",
          "type": "function"
        },
        {
          "inputs": [],
          "name": "MIN_PLAYERS",
          "outputs": [
            {
              "internalType": "uint256",
              "name": "",
              "type": "uint256"
            }
          ],
          "stateMutability": "view",
          "type": "function"
        },
        {
          "inputs": [],
          "name": "POINTS_MARKET_CAP_VOLUME",
          "outputs": [
            {
              "internalType": "uint256",
              "name": "",
              "type": "uint256"
            }
          ],
          "stateMutability": "view",
          "type": "function"
        },
        {
          "inputs": [],
          "name": "POINTS_PERCENTAGE_CHANGE",
          "outputs": [
            {
              "internalType": "uint256",
              "name": "",
              "type": "uint256"
            }
          ],
          "stateMutability": "view",
          "type": "function"
        },
        {
          "inputs": [],
          "name": "POINTS_PRICE_ABOVE_BELOW",
          "outputs": [
            {
              "internalType": "uint256",
              "name": "",
              "type": "uint256"
            }
          ],
          "stateMutability": "view",
          "type": "function"
        },
        {
          "inputs": [],
          "name": "POINTS_PRICE_UP_DOWN",
          "outputs": [
            {
              "internalType": "uint256",
              "name": "",
              "type": "uint256"
            }
          ],
          "stateMutability": "view",
          "type": "function"
        },
        {
          "inputs": [],
          "name": "RESOLUTION_DURATION",
          "outputs": [
            {
              "internalType": "uint256",
              "name": "",
              "type": "uint256"
            }
          ],
          "stateMutability": "view",
          "type": "function"
        },
        {
          "inputs": [
            {
              "internalType": "uint256",
              "name": "",
              "type": "uint256"
            }
          ],
          "name": "assetPriceIds",
          "outputs": [
            {
              "internalType": "bytes32",
              "name": "",
              "type": "bytes32"
            }
          ],
          "stateMutability": "view",
          "type": "function"
        },
        {
          "inputs": [
            {
              "internalType": "uint256",
              "name": "_gameId",
              "type": "uint256"
            }
          ],
          "name": "canEndGame",
          "outputs": [
            {
              "internalType": "bool",
              "name": "canEnd",
              "type": "bool"
            },
            {
              "internalType": "string",
              "name": "reason",
              "type": "string"
            },
            {
              "internalType": "enum TradingCardGame.GameStatus",
              "name": "gameStatus_",
              "type": "uint8"
            },
            {
              "internalType": "uint256",
              "name": "resolutionDeadline_",
              "type": "uint256"
            },
            {
              "internalType": "uint256",
              "name": "currentTime",
              "type": "uint256"
            }
          ],
          "stateMutability": "view",
          "type": "function"
        },
        {
          "inputs": [
            {
              "internalType": "uint256",
              "name": "_gameId",
              "type": "uint256"
            }
          ],
          "name": "canStartGame",
          "outputs": [
            {
              "internalType": "bool",
              "name": "canStart",
              "type": "bool"
            },
            {
              "internalType": "string",
              "name": "reason",
              "type": "string"
            }
          ],
          "stateMutability": "view",
          "type": "function"
        },
        {
          "inputs": [
            {
              "internalType": "uint256",
              "name": "_gameId",
              "type": "uint256"
            },
            {
              "internalType": "uint256[3]",
              "name": "_cardNumbers",
              "type": "uint256[3]"
            }
          ],
          "name": "commitChoices",
          "outputs": [],
          "stateMutability": "nonpayable",
          "type": "function"
        },
        {
          "inputs": [],
          "name": "createGame",
          "outputs": [
            {
              "internalType": "uint256",
              "name": "",
              "type": "uint256"
            }
          ],
          "stateMutability": "nonpayable",
          "type": "function"
        },
        {
          "inputs": [
            {
              "internalType": "uint256",
              "name": "_amount",
              "type": "uint256"
            }
          ],
          "name": "emergencyWithdraw",
          "outputs": [],
          "stateMutability": "nonpayable",
          "type": "function"
        },
        {
          "inputs": [
            {
              "internalType": "uint256",
              "name": "_gameId",
              "type": "uint256"
            }
          ],
          "name": "endGame",
          "outputs": [],
          "stateMutability": "nonpayable",
          "type": "function"
        },
        {
          "inputs": [],
          "name": "entropyRequestCount",
          "outputs": [
            {
              "internalType": "uint256",
              "name": "",
              "type": "uint256"
            }
          ],
          "stateMutability": "view",
          "type": "function"
        },
        {
          "inputs": [
            {
              "internalType": "uint256",
              "name": "",
              "type": "uint256"
            }
          ],
          "name": "entropyRequested",
          "outputs": [
            {
              "internalType": "bool",
              "name": "",
              "type": "bool"
            }
          ],
          "stateMutability": "view",
          "type": "function"
        },
        {
          "inputs": [
            {
              "internalType": "uint256",
              "name": "",
              "type": "uint256"
            }
          ],
          "name": "gameEntropy",
          "outputs": [
            {
              "internalType": "bytes32",
              "name": "",
              "type": "bytes32"
            }
          ],
          "stateMutability": "view",
          "type": "function"
        },
        {
          "inputs": [
            {
              "internalType": "uint256",
              "name": "",
              "type": "uint256"
            }
          ],
          "name": "games",
          "outputs": [
            {
              "internalType": "uint256",
              "name": "gameId",
              "type": "uint256"
            },
            {
              "internalType": "enum TradingCardGame.GameStatus",
              "name": "status",
              "type": "uint8"
            },
            {
              "internalType": "uint256",
              "name": "startTime",
              "type": "uint256"
            },
            {
              "internalType": "uint256",
              "name": "lobbyDeadline",
              "type": "uint256"
            },
            {
              "internalType": "uint256",
              "name": "choiceDeadline",
              "type": "uint256"
            },
            {
              "internalType": "uint256",
              "name": "resolutionDeadline",
              "type": "uint256"
            },
            {
              "internalType": "bool",
              "name": "resolved",
              "type": "bool"
            }
          ],
          "stateMutability": "view",
          "type": "function"
        },
        {
          "inputs": [
            {
              "internalType": "uint256",
              "name": "_gameId",
              "type": "uint256"
            }
          ],
          "name": "getCurrentPhase",
          "outputs": [
            {
              "internalType": "enum TradingCardGame.GameStatus",
              "name": "phase",
              "type": "uint8"
            }
          ],
          "stateMutability": "view",
          "type": "function"
        },
        {
          "inputs": [
            {
              "internalType": "uint256",
              "name": "_gameId",
              "type": "uint256"
            }
          ],
          "name": "getEntropyRequestStatus",
          "outputs": [
            {
              "internalType": "bool",
              "name": "requested",
              "type": "bool"
            },
            {
              "internalType": "bool",
              "name": "received",
              "type": "bool"
            }
          ],
          "stateMutability": "view",
          "type": "function"
        },
        {
          "inputs": [
            {
              "internalType": "bytes32",
              "name": "_priceId",
              "type": "bytes32"
            }
          ],
          "name": "getFeedPrice",
          "outputs": [
            {
              "components": [
                {
                  "internalType": "int64",
                  "name": "price",
                  "type": "int64"
                },
                {
                  "internalType": "uint64",
                  "name": "conf",
                  "type": "uint64"
                },
                {
                  "internalType": "int32",
                  "name": "expo",
                  "type": "int32"
                },
                {
                  "internalType": "uint256",
                  "name": "publishTime",
                  "type": "uint256"
                }
              ],
              "internalType": "struct PythStructs.Price",
              "name": "price",
              "type": "tuple"
            }
          ],
          "stateMutability": "view",
          "type": "function"
        },
        {
          "inputs": [
            {
              "internalType": "bytes32[]",
              "name": "_priceIds",
              "type": "bytes32[]"
            }
          ],
          "name": "getFeedPrices",
          "outputs": [
            {
              "components": [
                {
                  "internalType": "int64",
                  "name": "price",
                  "type": "int64"
                },
                {
                  "internalType": "uint64",
                  "name": "conf",
                  "type": "uint64"
                },
                {
                  "internalType": "int32",
                  "name": "expo",
                  "type": "int32"
                },
                {
                  "internalType": "uint256",
                  "name": "publishTime",
                  "type": "uint256"
                }
              ],
              "internalType": "struct PythStructs.Price[]",
              "name": "prices",
              "type": "tuple[]"
            }
          ],
          "stateMutability": "view",
          "type": "function"
        },
        {
          "inputs": [
            {
              "internalType": "uint256",
              "name": "_gameId",
              "type": "uint256"
            }
          ],
          "name": "getGameCards",
          "outputs": [
            {
              "internalType": "uint256[]",
              "name": "",
              "type": "uint256[]"
            }
          ],
          "stateMutability": "view",
          "type": "function"
        },
        {
          "inputs": [
            {
              "internalType": "uint256",
              "name": "_gameId",
              "type": "uint256"
            }
          ],
          "name": "getGamePlayers",
          "outputs": [
            {
              "internalType": "address[]",
              "name": "",
              "type": "address[]"
            }
          ],
          "stateMutability": "view",
          "type": "function"
        },
        {
          "inputs": [
            {
              "internalType": "uint256",
              "name": "_gameId",
              "type": "uint256"
            }
          ],
          "name": "getGameState",
          "outputs": [
            {
              "internalType": "enum TradingCardGame.GameStatus",
              "name": "status",
              "type": "uint8"
            },
            {
              "internalType": "uint256",
              "name": "startTime",
              "type": "uint256"
            },
            {
              "internalType": "uint256",
              "name": "lobbyDeadline",
              "type": "uint256"
            },
            {
              "internalType": "uint256",
              "name": "choiceDeadline",
              "type": "uint256"
            },
            {
              "internalType": "uint256",
              "name": "resolutionDeadline",
              "type": "uint256"
            },
            {
              "internalType": "uint256",
              "name": "playerCount",
              "type": "uint256"
            },
            {
              "internalType": "uint256",
              "name": "cardCount",
              "type": "uint256"
            }
          ],
          "stateMutability": "view",
          "type": "function"
        },
        {
          "inputs": [
            {
              "internalType": "uint256",
              "name": "_gameId",
              "type": "uint256"
            },
            {
              "internalType": "address",
              "name": "_player",
              "type": "address"
            }
          ],
          "name": "getGameStateWithPlayer",
          "outputs": [
            {
              "internalType": "enum TradingCardGame.GameStatus",
              "name": "status",
              "type": "uint8"
            },
            {
              "internalType": "uint256",
              "name": "startTime",
              "type": "uint256"
            },
            {
              "internalType": "uint256",
              "name": "lobbyDeadline",
              "type": "uint256"
            },
            {
              "internalType": "uint256",
              "name": "choiceDeadline",
              "type": "uint256"
            },
            {
              "internalType": "uint256",
              "name": "resolutionDeadline",
              "type": "uint256"
            },
            {
              "internalType": "uint256",
              "name": "playerCount",
              "type": "uint256"
            },
            {
              "internalType": "uint256",
              "name": "cardCount",
              "type": "uint256"
            },
            {
              "internalType": "bool",
              "name": "playerHasCommitted",
              "type": "bool"
            },
            {
              "internalType": "uint256[3]",
              "name": "playerSelectedCards",
              "type": "uint256[3]"
            }
          ],
          "stateMutability": "view",
          "type": "function"
        },
        {
          "inputs": [],
          "name": "getNextGameId",
          "outputs": [
            {
              "internalType": "uint256",
              "name": "",
              "type": "uint256"
            }
          ],
          "stateMutability": "view",
          "type": "function"
        },
        {
          "inputs": [
            {
              "internalType": "address",
              "name": "_player",
              "type": "address"
            }
          ],
          "name": "getPlayerActiveGame",
          "outputs": [
            {
              "internalType": "uint256",
              "name": "",
              "type": "uint256"
            }
          ],
          "stateMutability": "view",
          "type": "function"
        },
        {
          "inputs": [
            {
              "internalType": "uint256",
              "name": "_gameId",
              "type": "uint256"
            },
            {
              "internalType": "address",
              "name": "_player",
              "type": "address"
            }
          ],
          "name": "getPlayerChoices",
          "outputs": [
            {
              "internalType": "uint256[3]",
              "name": "selectedCards",
              "type": "uint256[3]"
            },
            {
              "internalType": "uint256",
              "name": "committedAt",
              "type": "uint256"
            },
            {
              "internalType": "bool",
              "name": "committed",
              "type": "bool"
            }
          ],
          "stateMutability": "view",
          "type": "function"
        },
        {
          "inputs": [
            {
              "internalType": "address",
              "name": "_player",
              "type": "address"
            }
          ],
          "name": "getPlayerScore",
          "outputs": [
            {
              "internalType": "uint256",
              "name": "totalPoints",
              "type": "uint256"
            },
            {
              "internalType": "uint256",
              "name": "gamesPlayed",
              "type": "uint256"
            },
            {
              "internalType": "uint256",
              "name": "gamesWon",
              "type": "uint256"
            }
          ],
          "stateMutability": "view",
          "type": "function"
        },
        {
          "inputs": [
            {
              "internalType": "uint256",
              "name": "_gameId",
              "type": "uint256"
            },
            {
              "internalType": "uint256",
              "name": "_cardNumber",
              "type": "uint256"
            }
          ],
          "name": "getPredictionResult",
          "outputs": [
            {
              "internalType": "bool",
              "name": "correct",
              "type": "bool"
            },
            {
              "internalType": "uint256",
              "name": "pointsEarned",
              "type": "uint256"
            }
          ],
          "stateMutability": "view",
          "type": "function"
        },
        {
          "inputs": [
            {
              "internalType": "uint256",
              "name": "_gameId",
              "type": "uint256"
            }
          ],
          "name": "hasEntropy",
          "outputs": [
            {
              "internalType": "bool",
              "name": "",
              "type": "bool"
            }
          ],
          "stateMutability": "view",
          "type": "function"
        },
        {
          "inputs": [],
          "name": "hyperlaneCelo",
          "outputs": [
            {
              "internalType": "contract IHyperlaneCelo",
              "name": "",
              "type": "address"
            }
          ],
          "stateMutability": "view",
          "type": "function"
        },
        {
          "inputs": [],
          "name": "isContractActive",
          "outputs": [
            {
              "internalType": "bool",
              "name": "",
              "type": "bool"
            }
          ],
          "stateMutability": "pure",
          "type": "function"
        },
        {
          "inputs": [
            {
              "internalType": "uint256",
              "name": "_gameId",
              "type": "uint256"
            }
          ],
          "name": "joinGame",
          "outputs": [],
          "stateMutability": "nonpayable",
          "type": "function"
        },
        {
          "inputs": [
            {
              "internalType": "uint256",
              "name": "",
              "type": "uint256"
            }
          ],
          "name": "leaderboard",
          "outputs": [
            {
              "internalType": "address",
              "name": "",
              "type": "address"
            }
          ],
          "stateMutability": "view",
          "type": "function"
        },
        {
          "inputs": [],
          "name": "owner",
          "outputs": [
            {
              "internalType": "address",
              "name": "",
              "type": "address"
            }
          ],
          "stateMutability": "view",
          "type": "function"
        },
        {
          "inputs": [
            {
              "internalType": "address",
              "name": "",
              "type": "address"
            }
          ],
          "name": "playerActiveGame",
          "outputs": [
            {
              "internalType": "uint256",
              "name": "",
              "type": "uint256"
            }
          ],
          "stateMutability": "view",
          "type": "function"
        },
        {
          "inputs": [
            {
              "internalType": "address",
              "name": "",
              "type": "address"
            }
          ],
          "name": "playerScores",
          "outputs": [
            {
              "internalType": "address",
              "name": "player",
              "type": "address"
            },
            {
              "internalType": "uint256",
              "name": "totalPoints",
              "type": "uint256"
            },
            {
              "internalType": "uint256",
              "name": "gamesPlayed",
              "type": "uint256"
            },
            {
              "internalType": "uint256",
              "name": "gamesWon",
              "type": "uint256"
            }
          ],
          "stateMutability": "view",
          "type": "function"
        },
        {
          "inputs": [],
          "name": "pyth",
          "outputs": [
            {
              "internalType": "contract IPyth",
              "name": "",
              "type": "address"
            }
          ],
          "stateMutability": "view",
          "type": "function"
        },
        {
          "inputs": [
            {
              "internalType": "bytes32",
              "name": "randomNumber",
              "type": "bytes32"
            },
            {
              "internalType": "uint64",
              "name": "sequenceNumber",
              "type": "uint64"
            }
          ],
          "name": "receiveEntropy",
          "outputs": [],
          "stateMutability": "nonpayable",
          "type": "function"
        },
        {
          "inputs": [],
          "name": "renounceOwnership",
          "outputs": [],
          "stateMutability": "nonpayable",
          "type": "function"
        },
        {
          "inputs": [
            {
              "internalType": "uint256",
              "name": "_assetIndex",
              "type": "uint256"
            },
            {
              "internalType": "bytes32",
              "name": "_priceId",
              "type": "bytes32"
            }
          ],
          "name": "setAssetPriceId",
          "outputs": [],
          "stateMutability": "nonpayable",
          "type": "function"
        },
        {
          "inputs": [
            {
              "internalType": "uint256",
              "name": "_gameId",
              "type": "uint256"
            },
            {
              "internalType": "bool",
              "name": "_useSecureRandomness",
              "type": "bool"
            }
          ],
          "name": "startGame",
          "outputs": [],
          "stateMutability": "nonpayable",
          "type": "function"
        },
        {
          "inputs": [
            {
              "internalType": "address",
              "name": "newOwner",
              "type": "address"
            }
          ],
          "name": "transferOwnership",
          "outputs": [],
          "stateMutability": "nonpayable",
          "type": "function"
        },
        {
          "inputs": [
            {
              "internalType": "uint256",
              "name": "_gameId",
              "type": "uint256"
            }
          ],
          "name": "transitionToResolution",
          "outputs": [],
          "stateMutability": "nonpayable",
          "type": "function"
        },
        {
          "inputs": [
            {
              "internalType": "uint256",
              "name": "_gameId",
              "type": "uint256"
            },
            {
              "internalType": "bytes[]",
              "name": "_priceUpdateData",
              "type": "bytes[]"
            },
            {
              "internalType": "bytes32[]",
              "name": "",
              "type": "bytes32[]"
            },
            {
              "internalType": "uint256",
              "name": "_updateFee",
              "type": "uint256"
            }
          ],
          "name": "updatePricesAndResolve",
          "outputs": [],
          "stateMutability": "payable",
          "type": "function"
        },
        {
          "stateMutability": "payable",
          "type": "receive"
        }
      ],
      "evm": {
        "bytecode": {
          "linkReferences": {},
          "object": "60c03461010e57601f612e9138819003918201601f19168301916001600160401b0383118484101761011357808492604094855283398101031261010e57610052602061004b83610129565b9201610129565b33156100f85760008054336001600160a01b0319821681178355604051949290916001600160a01b0316907f8be0079c531659141344cd1fd0a4f28419497f9722a3daafe3b4186f6b6457e09080a36001600160a01b039081166080521660a05260018055612d53908161013e8239608051818181610304015281816112e2015281816120df0152612322015260a0518181816110560152818161186e0152611e7d0152f35b631e4fbdf760e01b600052600060045260246000fd5b600080fd5b634e487b7160e01b600052604160045260246000fd5b51906001600160a01b038216820361010e5756fe6080604052600436101561001b575b361561001957600080fd5b005b6000803560e01c806302653e9a146122bb57806310c28d3114612219578063117a5b901461219d5780631226897a1461218157806314527c58146120a757806315a40f4914611fce57806319848fca14611e51578063392b749c14611df45780633c8aec3f14611dca5780634b9a2a2c14611c8f5780635312ea8e14611bc157806353644f3114611b9a578063572e85ec14611b5f5780635c5c838214610a2957806362550ae114611afb5780636bdca45714611add578063715018a614611a835780637255d7291461177d5780637ca90e59146117615780637f57504f146116fa57806385f07bbe146116de578063860cbc771461163f578063863df0a1146116065780638da5cb5b146115df5780638f5949f9146115c35780639a18e981146115445780639c18c05d14611515578063a457d3d6146111ef578063ad7465d4146111c3578063b0fd159f146111a7578063bc6c97da1461117d578063bee4c6d314611161578063bf368399146110e0578063cb09d27f14611085578063cf10241314611040578063d0399bb814610cd3578063d7793c1914610acb578063de45e20a14610a82578063e085c53914610a2e578063e5c43ef114610a29578063e7fad8af14610a0d578063ede8af01146109ef578063efaa55a014610821578063f2fde38b1461079b578063f79c913e14610393578063f84f079214610333578063f98d06f0146102ee5763ffde0c7414610237575061000e565b346102eb5760203660031901126102eb5760e0906102866004356040811515938480956102e0575b610268906126ef565b82815260026020522092806102d5575b610281906126ef565b612825565b906002810154906003810154600482015460058301549160076006850154940154946102b560405180986125a2565b602087015260408601526060850152608084015260a083015260c0820152f35b506001548110610278565b50600154831061025f565b80fd5b50346102eb57806003193601126102eb576040517f00000000000000000000000000000000000000000000000000000000000000006001600160a01b03168152602090f35b50346102eb5760203660031901126102eb57604090816004359182151580610388575b61035f906126ef565b828152600860205260ff8282205416928152600760205220541515825191151582526020820152f35b506001548310610356565b50346102eb5760803660031901126102eb576004359036604312156102eb57604051906103c16060836124b4565b8136608411610797576024905b608482106107875750508215158061077c575b6103ea906126ef565b8281526002602052604081209260078401928354928315610724576104156003870154421015612bb2565b60048601544210156106e65733600090815260088701602081905260409091206005015460ff166106ad578182600689018054915b828110610675575b5050501561063057815b600381101580610507578390845b8881106104bc575b5050156104815760010161045c565b60405162461bcd60e51b815260206004820152601360248201527224b73b30b634b21031b0b93210373ab6b132b960691b6044820152606490fd5b816104c7828c612622565b90549060031b1c906104f3578460051b880151146104e75760010161046a565b50505060013880610472565b634e487b7160e01b87526032600452602487fd5b604051848a87898761051886612499565b338087526020808801858152426040808b01918252600160608c0190815260009586529590935291909220975188546001600160a01b0319166001600160a01b03919091161788559051865b6003811061061a575050956005610595926001979851600484015551151591019060ff801983541691151516179055565b6105a2604051809361257a565b7fd67de08bd4ba5b6a6548667370488a8781753615acb89ae1ac1f96f6c270ecf060603393a30160ff815416600581101561060657600281141590816105fa575b506105ec575080f35b805460ff1916600217905580f35b600391501415836105e3565b634e487b7160e01b83526021600452602483fd5b6001906020835193019282828c01015501610564565b60405162461bcd60e51b815260206004820152601960248201527f4e6f74206120706c6179657220696e20746869732067616d65000000000000006044820152606490fd5b61067f8183612622565b905460039190911b1c6001600160a01b0316331461069f5760010161044a565b505050506001388080610452565b60405162461bcd60e51b8152602060048201526011602482015270105b1c9958591e4818dbdb5b5a5d1d1959607a1b6044820152606490fd5b60405162461bcd60e51b815260206004820152601660248201527510da1bda58d948191958591b1a5b99481c185cdcd95960521b6044820152606490fd5b60405162461bcd60e51b815260206004820152602a60248201527f47616d65206e6f74207374617274656420796574202d206361726473206e6f746044820152690819d95b995c985d195960b21b6064820152608490fd5b5060015483106103e1565b81358152602091820191016103ce565b5080fd5b50346102eb5760203660031901126102eb576107b5612564565b6107bd612c4a565b6001600160a01b0316801561080d5781546001600160a01b03198116821783556001600160a01b03167f8be0079c531659141344cd1fd0a4f28419497f9722a3daafe3b4186f6b6457e08380a380f35b631e4fbdf760e01b82526004829052602482fd5b50346102eb5760203660031901126102eb57600435801515806109e4575b610848906126ef565b808252600260205260ff60016040842001541660058110156106065761086e9015612982565b808252600260205260408220600381015442116109b0576006018054835b8181106109505750503383526005602052604083205480151580610946575b6108f3575b506108bc903390612907565b338252600560205280604083205533907f87969bc7faf902221a147b95ceba76e011c5efb0339a0a8ee7a2bb82d9cfbbd68380a380f35b8352600260205260ff6001604085200154166005811015610932579061091e60046108bc9314612889565b3384526005602052836040812055906108b0565b634e487b7160e01b84526021600452602484fd5b50828114156108ab565b61095a8184612622565b905460039190911b1c6001600160a01b0316331461097a5760010161088c565b60405162461bcd60e51b815260206004820152600e60248201526d105b1c9958591e481a9bda5b995960921b6044820152606490fd5b60405162461bcd60e51b815260206004820152600c60248201526b131bd8989e4818db1bdcd95960a21b6044820152606490fd5b50600154811061083f565b50346102eb57806003193601126102eb576020600154604051908152f35b50346102eb57806003193601126102eb576020604051600a8152f35b612606565b50346102eb5760203660031901126102eb576060906040906001600160a01b03610a56612564565b168152600360205220600181015490600360028201549101549060405192835260208301526040820152f35b50346102eb5760203660031901126102eb57604060209160043580151580610ac0575b610aae906126ef565b81526007835220541515604051908152f35b506001548110610aa5565b50346102eb5760403660031901126102eb576004356024358015158103610ccf5781151580610cc4575b610afe906126ef565b818352600260205260408320610b1a6003820154421015612bb2565b6004810154421015610c7f576007810191610b36835415612bfe565b8385526002602052610b4f600760408720015415612bfe565b15610c4e5782845260026020526040842083855260076020526040852054801515600014610c165790600701855b600a8110610bd7575050507f1e16023bc0e15b4ad55f8e37dccf554d1451b0d26c8e55cd0e7e041eea33c75d916001610bd1925b01600260ff19825416179055604051918291602083526020830190612948565b0390a280f35b600190610c1061271060405160208101908782528a604082015284606082015260608152610c066080826124b4565b5190200684612c73565b01610b7d565b50507f1e16023bc0e15b4ad55f8e37dccf554d1451b0d26c8e55cd0e7e041eea33c75d916001610bd192610c4986612ca8565b610bb1565b7f1e16023bc0e15b4ad55f8e37dccf554d1451b0d26c8e55cd0e7e041eea33c75d916001610bd192610c4986612ca8565b60405162461bcd60e51b815260206004820152601e60248201527f43686f69636520646561646c696e6520616c72656164792070617373656400006044820152606490fd5b506001548210610af5565b8280fd5b50346102eb5760203660031901126102eb5760043580151580611035575b610cfa906126ef565b8082526002602052604082209060058201544210610ff0576001820160ff8154166005811015610fc05760038114159081610fe4575b50610fd4575b60ff8154166005811015610fc057600414610f865783600684016008600986019501955b8154811015610ee757610d6d8183612622565b905460039190911b1c6001600160a01b03166000818152602089905260409020600581015491989093909160ff1615610eda578491825b6003841015610e3e57610de4600191828689010154808a528c60205260ff8460408c2001541615610dec575b89528b602052600260408a200154906128fa565b930192610da4565b60405160028e610dfb83612468565b838352610e358d604060208601918083528187019481865288825260205220945185555115158885019060ff801983541691151516179055565b51910155610dd0565b8891979550600194935060207f0dbadce3c07b5bc30ebbe2bcec3d6bb95f9b3a0bb33178ff0d61e4d7d4339915919b939b848952600382528660408a2001610e878282546128fa565b905584895260038252600260408a2001610ea181546128d5565b905580610ebb575b604051908152a35b0195909295610d5a565b84895260038252600360408a2001610ed381546128d5565b9055610ea9565b9750939150600190610eb1565b50825460ff1916600417909255805b8254811015610f5d5780610f0c60019285612622565b838060a01b0391549060031b1c168352600560205284604084205414610f33575b01610ef6565b610f3d8185612622565b838060a01b0391549060031b1c1683526005602052826040812055610f2d565b50827fce24807f7e4b60b4e641462f13029fa5e5f79075bbc3f8e5cd43ecd19661d7608280a280f35b60405162461bcd60e51b815260206004820152601260248201527111d85b5948185b1c9958591e48195b99195960721b6044820152606490fd5b634e487b7160e01b85526021600452602485fd5b805460ff19166003178155610d36565b60049150141538610d30565b60405162461bcd60e51b815260206004820152601f60248201527f5265736f6c7574696f6e20646561646c696e65206e6f742072656163686564006044820152606490fd5b506001548110610cf1565b50346102eb57806003193601126102eb576040517f00000000000000000000000000000000000000000000000000000000000000006001600160a01b03168152602090f35b50346102eb5760203660031901126102eb576110a2600435612a10565b906110d26110c76040969596519687961515875260a0602088015260a08701906125c5565b9360408601906125a2565b606084015260808301520390f35b50346102eb5760203660031901126102eb57600435906004548210156102eb5760045482101561114d57600481527f8a35acfbc15ff81a39ae7d344fd709f28e8600b4aa8c65c6b64bfe7fe36bd19b9091015460405160039290921b1c6001600160a01b03168152602090f35b634e487b7160e01b81526032600452602490fd5b50346102eb57806003193601126102eb576020604051600f8152f35b50346102eb5760203660031901126102eb5760406020916004358152600783522054604051908152f35b50346102eb57806003193601126102eb57602060405160128152f35b50346102eb5760203660031901126102eb5760206111e76111e2612564565b6129c4565b604051908152f35b5060803660031901126102eb576024356004356001600160401b038211610ccf5736602383011215610ccf5781600401359161122a836124d5565b9061123860405192836124b4565b838252602082016024819560051b830101913683116113ef5760248101915b83831061148657505050506044356001600160401b038111611482576112819036906004016124ec565b506064359282151580611477575b611298906126ef565b828552600260205260ff60016040872001541660058110156114635760036112c09114612982565b82855260026020526040852084341061142b57600a019360ff8554166113f3577f00000000000000000000000000000000000000000000000000000000000000006001600160a01b031691823b156113ef57604051631df3cbc560e31b81526020600482015293516024850181905287949392916044600583901b860181019290879087015b8282106113ba57505050509183809281879503925af180156113af5761139a575b50807f702ec30635253cae6d3600d38314e616495cf01545d34e549c49ebf6451dab3b91a2805460ff1916600117905580f35b816113a4916124b4565b610ccf578238611367565b6040513d84823e3d90fd5b919360019193959697985060206113dc81926043198c820301865288516125c5565b9601920192018a97969594939192611346565b8680fd5b60405162461bcd60e51b815260206004820152601060248201526f105b1c9958591e481c995cdbdb1d995960821b6044820152606490fd5b60405162461bcd60e51b815260206004820152601060248201526f496e73756666696369656e742066656560801b6044820152606490fd5b634e487b7160e01b86526021600452602486fd5b50600154831061128f565b8480fd5b82356001600160401b0381116115115782019036604383011215611511576024820135906001600160401b0382116114fd576040516114cf601f8401601f1916602001826124b4565b8281528a36604486860101116102eb5760208481969560448397018386013783010152815201920191611257565b634e487b7160e01b8a52604160045260248afd5b8880fd5b50346102eb5760203660031901126102eb5760ff60406020926004358152600884522054166040519015158152f35b50346102eb5760203660031901126102eb57600435801515806115b8575b61156b906126ef565b815260026020526040812060048101544210158061159d575b61158c575080f35b600101805460ff1916600317905580f35b5060ff60018201541660058110156106065760041415611584565b506001548110611562565b50346102eb57806003193601126102eb57602060405160018152f35b50346102eb57806003193601126102eb57546040516001600160a01b039091168152602090f35b50346102eb5760203660031901126102eb576020906040906001600160a01b0361162e612564565b168152600583522054604051908152f35b50346102eb5760203660031901126102eb57600435801515806116d3575b9061166b61168893926126ef565b8152600260205261168f6007604083200160405193848092612948565b03836124b4565b604051918291602083016020845282518091526020604085019301915b8181106116ba575050500390f35b82518452859450602093840193909201916001016116ac565b50600154811061165d565b50346102eb57806003193601126102eb57602060405160028152f35b50346102eb5760403660031901126102eb576040809160043580151580611756575b611725906126ef565b81526002602052600982822001602435825260205220600260ff600183015416910154825191151582526020820152f35b50600154811061171c565b50346102eb57806003193601126102eb57602060405160b48152f35b50346102eb57806003193601126102eb573381526005602052604081205480611a34575b506001546117ae816128d5565b6001558082526002602052604082208181556001810160ff198154169055426002820155603c4201804211611a205780600383015560784201809111611a205780600483015561012c4201809111611a20576005820155611813903390600601612907565b338252600560205280604083205560405133827ffadb9547847a0c2c31f4c02590545e318d33d7aae99071caecf3fa4ce3cd7dca8580a3818352600860205260ff6040842054166119de5750604051631f01025b60e11b81527f00000000000000000000000000000000000000000000000000000000000000006001600160a01b0316602082600481845afa9182156119d357849261199b575b50814710611956578084913b156107975760046040518094819363b13038a160e01b83525af1801561194b57926040918160209561193b575b849150526008845220600160ff19825416179055807fbdc6d9cd20b69192d98208f944398e7220245fa28933232072f237e004b9a376836119286009546128d5565b80600955604051908152a2604051908152f35b611944916124b4565b38816118e6565b6040513d85823e3d90fd5b60405162461bcd60e51b815260206004820152601d60248201527f496e73756666696369656e7420636f6e74726163742062616c616e63650000006044820152606490fd5b9091506020813d6020116119cb575b816119b7602093836124b4565b810103126119c7575190386118ad565b8380fd5b3d91506119aa565b6040513d86823e3d90fd5b62461bcd60e51b815260206004820152601960248201527f456e74726f707920616c726561647920726571756573746564000000000000006044820152606490fd5b634e487b7160e01b84526011600452602484fd5b8152600260205260ff6001604083200154166005811015611a6f576004611a5b9114612889565b3381526005602052806040812055386117a1565b634e487b7160e01b82526021600452602482fd5b50346102eb57806003193601126102eb57611a9c612c4a565b80546001600160a01b03198116825581906001600160a01b03167f8be0079c531659141344cd1fd0a4f28419497f9722a3daafe3b4186f6b6457e08280a380f35b50346102eb57806003193601126102eb576020600954604051908152f35b50346102eb5760203660031901126102eb576080906040906001600160a01b03611b23612564565b16815260036020522060018060a01b03815416906001810154906003600282015491015491604051938452602084015260408301526060820152f35b50346102eb5760203660031901126102eb57506020611b8b600435801515806102d557610281906126ef565b611b9860405180926125a2565bf35b50346102eb5760403660031901126102eb5760043581526006602052602435604082205580f35b50346102eb5760203660031901126102eb57600435611bde612c4a565b478111611c5357818080808460018060a01b03825416828215611c4a575bf115611c3d5781546040519182526001600160a01b0316907f7084f5476618d8e60b11ef0d7d3f06914655adb8793e28ff7f018d4c76d505d590602090a280f35b50604051903d90823e3d90fd5b506108fc611bfc565b60405162461bcd60e51b8152602060048201526014602482015273496e73756666696369656e742062616c616e636560601b6044820152606490fd5b50346102eb5760403660031901126102eb5761016090611b9860043591611cb461254e565b926060604051611cc482826124b4565b36903780151580611dbf575b611cd9906126ef565b8152600260205260408120928190604051611cf381612468565b8381526020810184905260408101849052926001600160a01b038216611d7d575b505060ff60018501541693600281015490600381015460048201546005830154916007600685015494015494611d4d604051809b6125a2565b60208a015260408901526060880152608087015260a086015260c0850152151560e084015261010083019061257a565b6001600160a01b0390911681526008850160205260409020600581015460ff16611da8575b80611d14565b915050611db8600180920161272d565b9038611da2565b506001548110611cd0565b50346102eb5760203660031901126102eb5760406020916004358152600683522054604051908152f35b50346102eb5760203660031901126102eb57611e2360043580151580611e46575b611e1e906126ef565b612764565b90611e42604051928392151583526040602084015260408301906125c5565b0390f35b506001548110611e15565b50346102eb5760403660031901126102eb57600435602435906001600160401b038216809203610ccf577f00000000000000000000000000000000000000000000000000000000000000006001600160a01b03163303611f8957829160018054905b818110611f48575b50508215611f03577f1fc4f2867633636e24f8e6a0625b2bfffa6edfd6ebad5cc1671bc193e5548aa4916040918486526007602052818387205582519182526020820152a280f35b60405162461bcd60e51b815260206004820152601b60248201527f4e6f2067616d652077616974696e6720666f7220656e74726f707900000000006044820152606490fd5b808652600860205260ff60408720541680611f75575b611f6a57600101611eb3565b935038905080611ebb565b508086526007602052604086205415611f5e565b60405162461bcd60e51b815260206004820152601b60248201527f4f6e6c792048797065726c616e6543656c6f2063616e2063616c6c00000000006044820152606490fd5b50346102eb5760203660031901126102eb576004358015158061209c575b611ff5906126ef565b8152600260205260066040822001604051908160208254918281520190819285526020852090855b81811061207d57505050826120339103836124b4565b604051928392602084019060208552518091526040840192915b81811061205b575050500390f35b82516001600160a01b031684528594506020938401939092019160010161204d565b82546001600160a01b031684526020909301926001928301920161201d565b506001548110611fec565b50346102eb5760203660031901126102eb576120c1612650565b506040516396834ad360e01b815260048035908201526080816024817f00000000000000000000000000000000000000000000000000000000000000006001600160a01b03165afa9081156113af5760809291612154575b50611b98604051809260608091805160070b84526001600160401b036020820151166020850152604081015160030b60408501520151910152565b6121749150823d841161217a575b61216c81836124b4565b810190612689565b38612119565b503d612162565b50346102eb57806003193601126102eb57602060405160148152f35b50346102eb5760203660031901126102eb57604060e091600435815260026020522080549060ff60018201541690600281015460038201546004830154916121fc60ff600a6005870154960154169560405197885260208801906125a2565b60408601526060850152608084015260a0830152151560c0820152f35b50346102eb5760403660031901126102eb57604060a09160043561223b61254e565b906060845161224a82826124b4565b369037801515806122b0575b61225f906126ef565b8252600260205260088383200190600180861b0316825260205220600481015490612294600160ff600584015416920161272d565b916122a2604051809461257a565b606083015215156080820152f35b506001548110612256565b50346102eb5760203660031901126102eb576004356001600160401b038111610797576122ec9036906004016124ec565b80516122f7816124d5565b9061230560405192836124b4565b808252612314601f19916124d5565b01835b8181106124515750507f00000000000000000000000000000000000000000000000000000000000000006001600160a01b0316835b83518110156123d35761235f8185612675565b5190604051916396834ad360e01b83526004830152608082602481865afa80156123c85760019287916123aa575b506123988286612675565b526123a38185612675565b500161234c565b6123c2915060803d811161217a5761216c81836124b4565b3861238d565b6040513d88823e3d90fd5b8285604051918291602083016020845282518091526020604085019301915b818110612400575050500390f35b919350916020608082612443600194885160608091805160070b84526001600160401b036020820151166020850152604081015160030b60408501520151910152565b0194019101918493926123f2565b60209061245c612650565b82828601015201612317565b606081019081106001600160401b0382111761248357604052565b634e487b7160e01b600052604160045260246000fd5b608081019081106001600160401b0382111761248357604052565b90601f801991011681019081106001600160401b0382111761248357604052565b6001600160401b0381116124835760051b60200190565b9080601f83011215612549578135612503816124d5565b9261251160405194856124b4565b81845260208085019260051b82010192831161254957602001905b8282106125395750505090565b813581526020918201910161252c565b600080fd5b602435906001600160a01b038216820361254957565b600435906001600160a01b038216820361254957565b906000905b6003821061258c57505050565b602080600192855181520193019101909161257f565b9060058210156125af5752565b634e487b7160e01b600052602160045260246000fd5b919082519283825260005b8481106125f1575050826000602080949584010152601f8019910116010190565b806020809284010151828286010152016125d0565b34612549576000366003190112612549576020604051603c8152f35b805482101561263a5760005260206000200190600090565b634e487b7160e01b600052603260045260246000fd5b6040519061265d82612499565b60006060838281528260208201528260408201520152565b805182101561263a5760209160051b010190565b90816080910312612549576040519060006126a383612499565b81518060070b810361079757835260208201516001600160401b03811681036107975760208401526040820151908160030b82036102eb57509060609160408401520151606082015290565b156126f657565b60405162461bcd60e51b815260206004820152600f60248201526e125b9d985b1a590819d85b59481251608a1b6044820152606490fd5b60405191906000835b6003821061274e5750505061274c6060836124b4565b565b6001602081928554815201930191019091612736565b6000526002602052604060002060ff60018201541660058110156125af576127e6576003015442106127a8576001906040516127a16020826124b4565b6000815290565b6000906040516127b96040826124b4565b601a81527f4c6f62627920646561646c696e65206e6f742072656163686564000000000000602082015290565b506000906040516127f86040826124b4565b601a81527f47616d65206973206e6f7420696e204c4f424259207374617465000000000000602082015290565b6000526002602052604060002060ff60018201541660058110156125af5760041461288357600381015442101561285c5750600090565b600481015442101561286e5750600290565b6005015442101561287e57600390565b600390565b50600490565b1561289057565b60405162461bcd60e51b815260206004820152601960248201527f416c726561647920696e20616e206163746976652067616d65000000000000006044820152606490fd5b60001981146128e45760010190565b634e487b7160e01b600052601160045260246000fd5b919082018092116128e457565b8054600160401b8110156124835761292491600182018155612622565b81546001600160a01b0393841660039290921b91821b9390911b1916919091179055565b906020825491828152019160005260206000209060005b81811061296c5750505090565b825484526020909301926001928301920161295f565b1561298957565b60405162461bcd60e51b8152602060048201526013602482015272496e76616c69642067616d652073746174757360681b6044820152606490fd5b6001600160a01b0316600090815260056020526040902054806129e8575b50600090565b80600052600260205260ff6001604060002001541660058110156125af576004146129e25790565b80158015612ba6575b612b6d5760005260026020526040600020600560ff60018301541691015480429060058410156125af5760038403612b2957808210612ae75715612a7257600193604051612a686020826124b4565b6000815293929190565b600093604051612a836080826124b4565b604581527f5265736f6c7574696f6e20646561646c696e65206e6f7420736574202867616d60208201527f65206d6179206e6f742068617665207472616e736974696f6e65642070726f7060408201526465726c792960d81b606082015293929190565b50600093604051612af96040826124b4565b601f81527f5265736f6c7574696f6e20646561646c696e65206e6f74207265616368656400602082015293929190565b5050600092604051612b3c6040826124b4565b602081527f47616d65206973206e6f7420696e205245534f4c5554494f4e2073746174757360208201529291904290565b50600090604051612b7f6040826124b4565b600f81526e125b9d985b1a590819d85b59481251608a1b6020820152906000906000904290565b50600154811015612a19565b15612bb957565b60405162461bcd60e51b815260206004820152601960248201527f4c6f626279207068617365206e6f7420656e64656420796574000000000000006044820152606490fd5b15612c0557565b60405162461bcd60e51b815260206004820152601760248201527f436172647320616c72656164792067656e6572617465640000000000000000006044820152606490fd5b6000546001600160a01b03163303612c5e57565b63118cdaa760e01b6000523360045260246000fd5b8054600160401b81101561248357612c9091600182018155612622565b819291549060031b91821b91600019901b1916179055565b806000526002602052604060002090600760009201903360601b925b600a8110612cd25750505050565b600190612d1761271060405160208101904282524460408201528660608201528460808201528860a082015260948152612d0d60b4826124b4565b5190200685612c73565b01612cc456fea2646970667358221220b4fb4e9a5d2eb696abd62c53764473bbbc47fc8b6c2b2b43bdaee3f046fa4e7064736f6c634300081c0033",
          "opcodes": "PUSH1 0xC0 CALLVALUE PUSH2 0x10E JUMPI PUSH1 0x1F PUSH2 0x2E91 CODESIZE DUP2 SWAP1 SUB SWAP2 DUP3 ADD PUSH1 0x1F NOT AND DUP4 ADD SWAP2 PUSH1 0x1 PUSH1 0x1 PUSH1 0x40 SHL SUB DUP4 GT DUP5 DUP5 LT OR PUSH2 0x113 JUMPI DUP1 DUP5 SWAP3 PUSH1 0x40 SWAP5 DUP6 MSTORE DUP4 CODECOPY DUP2 ADD SUB SLT PUSH2 0x10E JUMPI PUSH2 0x52 PUSH1 0x20 PUSH2 0x4B DUP4 PUSH2 0x129 JUMP JUMPDEST SWAP3 ADD PUSH2 0x129 JUMP JUMPDEST CALLER ISZERO PUSH2 0xF8 JUMPI PUSH1 0x0 DUP1 SLOAD CALLER PUSH1 0x1 PUSH1 0x1 PUSH1 0xA0 SHL SUB NOT DUP3 AND DUP2 OR DUP4 SSTORE PUSH1 0x40 MLOAD SWAP5 SWAP3 SWAP1 SWAP2 PUSH1 0x1 PUSH1 0x1 PUSH1 0xA0 SHL SUB AND SWAP1 PUSH32 0x8BE0079C531659141344CD1FD0A4F28419497F9722A3DAAFE3B4186F6B6457E0 SWAP1 DUP1 LOG3 PUSH1 0x1 PUSH1 0x1 PUSH1 0xA0 SHL SUB SWAP1 DUP2 AND PUSH1 0x80 MSTORE AND PUSH1 0xA0 MSTORE PUSH1 0x1 DUP1 SSTORE PUSH2 0x2D53 SWAP1 DUP2 PUSH2 0x13E DUP3 CODECOPY PUSH1 0x80 MLOAD DUP2 DUP2 DUP2 PUSH2 0x304 ADD MSTORE DUP2 DUP2 PUSH2 0x12E2 ADD MSTORE DUP2 DUP2 PUSH2 0x20DF ADD MSTORE PUSH2 0x2322 ADD MSTORE PUSH1 0xA0 MLOAD DUP2 DUP2 DUP2 PUSH2 0x1056 ADD MSTORE DUP2 DUP2 PUSH2 0x186E ADD MSTORE PUSH2 0x1E7D ADD MSTORE RETURN JUMPDEST PUSH4 0x1E4FBDF7 PUSH1 0xE0 SHL PUSH1 0x0 MSTORE PUSH1 0x0 PUSH1 0x4 MSTORE PUSH1 0x24 PUSH1 0x0 REVERT JUMPDEST PUSH1 0x0 DUP1 REVERT JUMPDEST PUSH4 0x4E487B71 PUSH1 0xE0 SHL PUSH1 0x0 MSTORE PUSH1 0x41 PUSH1 0x4 MSTORE PUSH1 0x24 PUSH1 0x0 REVERT JUMPDEST MLOAD SWAP1 PUSH1 0x1 PUSH1 0x1 PUSH1 0xA0 SHL SUB DUP3 AND DUP3 SUB PUSH2 0x10E JUMPI JUMP INVALID PUSH1 0x80 PUSH1 0x40 MSTORE PUSH1 0x4 CALLDATASIZE LT ISZERO PUSH2 0x1B JUMPI JUMPDEST CALLDATASIZE ISZERO PUSH2 0x19 JUMPI PUSH1 0x0 DUP1 REVERT JUMPDEST STOP JUMPDEST PUSH1 0x0 DUP1 CALLDATALOAD PUSH1 0xE0 SHR DUP1 PUSH4 0x2653E9A EQ PUSH2 0x22BB JUMPI DUP1 PUSH4 0x10C28D31 EQ PUSH2 0x2219 JUMPI DUP1 PUSH4 0x117A5B90 EQ PUSH2 0x219D JUMPI DUP1 PUSH4 0x1226897A EQ PUSH2 0x2181 JUMPI DUP1 PUSH4 0x14527C58 EQ PUSH2 0x20A7 JUMPI DUP1 PUSH4 0x15A40F49 EQ PUSH2 0x1FCE JUMPI DUP1 PUSH4 0x19848FCA EQ PUSH2 0x1E51 JUMPI DUP1 PUSH4 0x392B749C EQ PUSH2 0x1DF4 JUMPI DUP1 PUSH4 0x3C8AEC3F EQ PUSH2 0x1DCA JUMPI DUP1 PUSH4 0x4B9A2A2C EQ PUSH2 0x1C8F JUMPI DUP1 PUSH4 0x5312EA8E EQ PUSH2 0x1BC1 JUMPI DUP1 PUSH4 0x53644F31 EQ PUSH2 0x1B9A JUMPI DUP1 PUSH4 0x572E85EC EQ PUSH2 0x1B5F JUMPI DUP1 PUSH4 0x5C5C8382 EQ PUSH2 0xA29 JUMPI DUP1 PUSH4 0x62550AE1 EQ PUSH2 0x1AFB JUMPI DUP1 PUSH4 0x6BDCA457 EQ PUSH2 0x1ADD JUMPI DUP1 PUSH4 0x715018A6 EQ PUSH2 0x1A83 JUMPI DUP1 PUSH4 0x7255D729 EQ PUSH2 0x177D JUMPI DUP1 PUSH4 0x7CA90E59 EQ PUSH2 0x1761 JUMPI DUP1 PUSH4 0x7F57504F EQ PUSH2 0x16FA JUMPI DUP1 PUSH4 0x85F07BBE EQ PUSH2 0x16DE JUMPI DUP1 PUSH4 0x860CBC77 EQ PUSH2 0x163F JUMPI DUP1 PUSH4 0x863DF0A1 EQ PUSH2 0x1606 JUMPI DUP1 PUSH4 0x8DA5CB5B EQ PUSH2 0x15DF JUMPI DUP1 PUSH4 0x8F5949F9 EQ PUSH2 0x15C3 JUMPI DUP1 PUSH4 0x9A18E981 EQ PUSH2 0x1544 JUMPI DUP1 PUSH4 0x9C18C05D EQ PUSH2 0x1515 JUMPI DUP1 PUSH4 0xA457D3D6 EQ PUSH2 0x11EF JUMPI DUP1 PUSH4 0xAD7465D4 EQ PUSH2 0x11C3 JUMPI DUP1 PUSH4 0xB0FD159F EQ PUSH2 0x11A7 JUMPI DUP1 PUSH4 0xBC6C97DA EQ PUSH2 0x117D JUMPI DUP1 PUSH4 0xBEE4C6D3 EQ PUSH2 0x1161 JUMPI DUP1 PUSH4 0xBF368399 EQ PUSH2 0x10E0 JUMPI DUP1 PUSH4 0xCB09D27F EQ PUSH2 0x1085 JUMPI DUP1 PUSH4 0xCF102413 EQ PUSH2 0x1040 JUMPI DUP1 PUSH4 0xD0399BB8 EQ PUSH2 0xCD3 JUMPI DUP1 PUSH4 0xD7793C19 EQ PUSH2 0xACB JUMPI DUP1 PUSH4 0xDE45E20A EQ PUSH2 0xA82 JUMPI DUP1 PUSH4 0xE085C539 EQ PUSH2 0xA2E JUMPI DUP1 PUSH4 0xE5C43EF1 EQ PUSH2 0xA29 JUMPI DUP1 PUSH4 0xE7FAD8AF EQ PUSH2 0xA0D JUMPI DUP1 PUSH4 0xEDE8AF01 EQ PUSH2 0x9EF JUMPI DUP1 PUSH4 0xEFAA55A0 EQ PUSH2 0x821 JUMPI DUP1 PUSH4 0xF2FDE38B EQ PUSH2 0x79B JUMPI DUP1 PUSH4 0xF79C913E EQ PUSH2 0x393 JUMPI DUP1 PUSH4 0xF84F0792 EQ PUSH2 0x333 JUMPI DUP1 PUSH4 0xF98D06F0 EQ PUSH2 0x2EE JUMPI PUSH4 0xFFDE0C74 EQ PUSH2 0x237 JUMPI POP PUSH2 0xE JUMP JUMPDEST CALLVALUE PUSH2 0x2EB JUMPI PUSH1 0x20 CALLDATASIZE PUSH1 0x3 NOT ADD SLT PUSH2 0x2EB JUMPI PUSH1 0xE0 SWAP1 PUSH2 0x286 PUSH1 0x4 CALLDATALOAD PUSH1 0x40 DUP2 ISZERO ISZERO SWAP4 DUP5 DUP1 SWAP6 PUSH2 0x2E0 JUMPI JUMPDEST PUSH2 0x268 SWAP1 PUSH2 0x26EF JUMP JUMPDEST DUP3 DUP2 MSTORE PUSH1 0x2 PUSH1 0x20 MSTORE KECCAK256 SWAP3 DUP1 PUSH2 0x2D5 JUMPI JUMPDEST PUSH2 0x281 SWAP1 PUSH2 0x26EF JUMP JUMPDEST PUSH2 0x2825 JUMP JUMPDEST SWAP1 PUSH1 0x2 DUP2 ADD SLOAD SWAP1 PUSH1 0x3 DUP2 ADD SLOAD PUSH1 0x4 DUP3 ADD SLOAD PUSH1 0x5 DUP4 ADD SLOAD SWAP2 PUSH1 0x7 PUSH1 0x6 DUP6 ADD SLOAD SWAP5 ADD SLOAD SWAP5 PUSH2 0x2B5 PUSH1 0x40 MLOAD DUP1 SWAP9 PUSH2 0x25A2 JUMP JUMPDEST PUSH1 0x20 DUP8 ADD MSTORE PUSH1 0x40 DUP7 ADD MSTORE PUSH1 0x60 DUP6 ADD MSTORE PUSH1 0x80 DUP5 ADD MSTORE PUSH1 0xA0 DUP4 ADD MSTORE PUSH1 0xC0 DUP3 ADD MSTORE RETURN JUMPDEST POP PUSH1 0x1 SLOAD DUP2 LT PUSH2 0x278 JUMP JUMPDEST POP PUSH1 0x1 SLOAD DUP4 LT PUSH2 0x25F JUMP JUMPDEST DUP1 REVERT JUMPDEST POP CALLVALUE PUSH2 0x2EB JUMPI DUP1 PUSH1 0x3 NOT CALLDATASIZE ADD SLT PUSH2 0x2EB JUMPI PUSH1 0x40 MLOAD PUSH32 0x0 PUSH1 0x1 PUSH1 0x1 PUSH1 0xA0 SHL SUB AND DUP2 MSTORE PUSH1 0x20 SWAP1 RETURN JUMPDEST POP CALLVALUE PUSH2 0x2EB JUMPI PUSH1 0x20 CALLDATASIZE PUSH1 0x3 NOT ADD SLT PUSH2 0x2EB JUMPI PUSH1 0x40 SWAP1 DUP2 PUSH1 0x4 CALLDATALOAD SWAP2 DUP3 ISZERO ISZERO DUP1 PUSH2 0x388 JUMPI JUMPDEST PUSH2 0x35F SWAP1 PUSH2 0x26EF JUMP JUMPDEST DUP3 DUP2 MSTORE PUSH1 0x8 PUSH1 0x20 MSTORE PUSH1 0xFF DUP3 DUP3 KECCAK256 SLOAD AND SWAP3 DUP2 MSTORE PUSH1 0x7 PUSH1 0x20 MSTORE KECCAK256 SLOAD ISZERO ISZERO DUP3 MLOAD SWAP2 ISZERO ISZERO DUP3 MSTORE PUSH1 0x20 DUP3 ADD MSTORE RETURN JUMPDEST POP PUSH1 0x1 SLOAD DUP4 LT PUSH2 0x356 JUMP JUMPDEST POP CALLVALUE PUSH2 0x2EB JUMPI PUSH1 0x80 CALLDATASIZE PUSH1 0x3 NOT ADD SLT PUSH2 0x2EB JUMPI PUSH1 0x4 CALLDATALOAD SWAP1 CALLDATASIZE PUSH1 0x43 SLT ISZERO PUSH2 0x2EB JUMPI PUSH1 0x40 MLOAD SWAP1 PUSH2 0x3C1 PUSH1 0x60 DUP4 PUSH2 0x24B4 JUMP JUMPDEST DUP2 CALLDATASIZE PUSH1 0x84 GT PUSH2 0x797 JUMPI PUSH1 0x24 SWAP1 JUMPDEST PUSH1 0x84 DUP3 LT PUSH2 0x787 JUMPI POP POP DUP3 ISZERO ISZERO DUP1 PUSH2 0x77C JUMPI JUMPDEST PUSH2 0x3EA SWAP1 PUSH2 0x26EF JUMP JUMPDEST DUP3 DUP2 MSTORE PUSH1 0x2 PUSH1 0x20 MSTORE PUSH1 0x40 DUP2 KECCAK256 SWAP3 PUSH1 0x7 DUP5 ADD SWAP3 DUP4 SLOAD SWAP3 DUP4 ISZERO PUSH2 0x724 JUMPI PUSH2 0x415 PUSH1 0x3 DUP8 ADD SLOAD TIMESTAMP LT ISZERO PUSH2 0x2BB2 JUMP JUMPDEST PUSH1 0x4 DUP7 ADD SLOAD TIMESTAMP LT ISZERO PUSH2 0x6E6 JUMPI CALLER PUSH1 0x0 SWAP1 DUP2 MSTORE PUSH1 0x8 DUP8 ADD PUSH1 0x20 DUP2 SWAP1 MSTORE PUSH1 0x40 SWAP1 SWAP2 KECCAK256 PUSH1 0x5 ADD SLOAD PUSH1 0xFF AND PUSH2 0x6AD JUMPI DUP2 DUP3 PUSH1 0x6 DUP10 ADD DUP1 SLOAD SWAP2 JUMPDEST DUP3 DUP2 LT PUSH2 0x675 JUMPI JUMPDEST POP POP POP ISZERO PUSH2 0x630 JUMPI DUP2 JUMPDEST PUSH1 0x3 DUP2 LT ISZERO DUP1 PUSH2 0x507 JUMPI DUP4 SWAP1 DUP5 JUMPDEST DUP9 DUP2 LT PUSH2 0x4BC JUMPI JUMPDEST POP POP ISZERO PUSH2 0x481 JUMPI PUSH1 0x1 ADD PUSH2 0x45C JUMP JUMPDEST PUSH1 0x40 MLOAD PUSH3 0x461BCD PUSH1 0xE5 SHL DUP2 MSTORE PUSH1 0x20 PUSH1 0x4 DUP3 ADD MSTORE PUSH1 0x13 PUSH1 0x24 DUP3 ADD MSTORE PUSH19 0x24B73B30B634B21031B0B93210373AB6B132B9 PUSH1 0x69 SHL PUSH1 0x44 DUP3 ADD MSTORE PUSH1 0x64 SWAP1 REVERT JUMPDEST DUP2 PUSH2 0x4C7 DUP3 DUP13 PUSH2 0x2622 JUMP JUMPDEST SWAP1 SLOAD SWAP1 PUSH1 0x3 SHL SHR SWAP1 PUSH2 0x4F3 JUMPI DUP5 PUSH1 0x5 SHL DUP9 ADD MLOAD EQ PUSH2 0x4E7 JUMPI PUSH1 0x1 ADD PUSH2 0x46A JUMP JUMPDEST POP POP POP PUSH1 0x1 CODESIZE DUP1 PUSH2 0x472 JUMP JUMPDEST PUSH4 0x4E487B71 PUSH1 0xE0 SHL DUP8 MSTORE PUSH1 0x32 PUSH1 0x4 MSTORE PUSH1 0x24 DUP8 REVERT JUMPDEST PUSH1 0x40 MLOAD DUP5 DUP11 DUP8 DUP10 DUP8 PUSH2 0x518 DUP7 PUSH2 0x2499 JUMP JUMPDEST CALLER DUP1 DUP8 MSTORE PUSH1 0x20 DUP1 DUP9 ADD DUP6 DUP2 MSTORE TIMESTAMP PUSH1 0x40 DUP1 DUP12 ADD SWAP2 DUP3 MSTORE PUSH1 0x1 PUSH1 0x60 DUP13 ADD SWAP1 DUP2 MSTORE PUSH1 0x0 SWAP6 DUP7 MSTORE SWAP6 SWAP1 SWAP4 MSTORE SWAP2 SWAP1 SWAP3 KECCAK256 SWAP8 MLOAD DUP9 SLOAD PUSH1 0x1 PUSH1 0x1 PUSH1 0xA0 SHL SUB NOT AND PUSH1 0x1 PUSH1 0x1 PUSH1 0xA0 SHL SUB SWAP2 SWAP1 SWAP2 AND OR DUP9 SSTORE SWAP1 MLOAD DUP7 JUMPDEST PUSH1 0x3 DUP2 LT PUSH2 0x61A JUMPI POP POP SWAP6 PUSH1 0x5 PUSH2 0x595 SWAP3 PUSH1 0x1 SWAP8 SWAP9 MLOAD PUSH1 0x4 DUP5 ADD SSTORE MLOAD ISZERO ISZERO SWAP2 ADD SWAP1 PUSH1 0xFF DUP1 NOT DUP4 SLOAD AND SWAP2 ISZERO ISZERO AND OR SWAP1 SSTORE JUMP JUMPDEST PUSH2 0x5A2 PUSH1 0x40 MLOAD DUP1 SWAP4 PUSH2 0x257A JUMP JUMPDEST PUSH32 0xD67DE08BD4BA5B6A6548667370488A8781753615ACB89AE1AC1F96F6C270ECF0 PUSH1 0x60 CALLER SWAP4 LOG3 ADD PUSH1 0xFF DUP2 SLOAD AND PUSH1 0x5 DUP2 LT ISZERO PUSH2 0x606 JUMPI PUSH1 0x2 DUP2 EQ ISZERO SWAP1 DUP2 PUSH2 0x5FA JUMPI JUMPDEST POP PUSH2 0x5EC JUMPI POP DUP1 RETURN JUMPDEST DUP1 SLOAD PUSH1 0xFF NOT AND PUSH1 0x2 OR SWAP1 SSTORE DUP1 RETURN JUMPDEST PUSH1 0x3 SWAP2 POP EQ ISZERO DUP4 PUSH2 0x5E3 JUMP JUMPDEST PUSH4 0x4E487B71 PUSH1 0xE0 SHL DUP4 MSTORE PUSH1 0x21 PUSH1 0x4 MSTORE PUSH1 0x24 DUP4 REVERT JUMPDEST PUSH1 0x1 SWAP1 PUSH1 0x20 DUP4 MLOAD SWAP4 ADD SWAP3 DUP3 DUP3 DUP13 ADD ADD SSTORE ADD PUSH2 0x564 JUMP JUMPDEST PUSH1 0x40 MLOAD PUSH3 0x461BCD PUSH1 0xE5 SHL DUP2 MSTORE PUSH1 0x20 PUSH1 0x4 DUP3 ADD MSTORE PUSH1 0x19 PUSH1 0x24 DUP3 ADD MSTORE PUSH32 0x4E6F74206120706C6179657220696E20746869732067616D6500000000000000 PUSH1 0x44 DUP3 ADD MSTORE PUSH1 0x64 SWAP1 REVERT JUMPDEST PUSH2 0x67F DUP2 DUP4 PUSH2 0x2622 JUMP JUMPDEST SWAP1 SLOAD PUSH1 0x3 SWAP2 SWAP1 SWAP2 SHL SHR PUSH1 0x1 PUSH1 0x1 PUSH1 0xA0 SHL SUB AND CALLER EQ PUSH2 0x69F JUMPI PUSH1 0x1 ADD PUSH2 0x44A JUMP JUMPDEST POP POP POP POP PUSH1 0x1 CODESIZE DUP1 DUP1 PUSH2 0x452 JUMP JUMPDEST PUSH1 0x40 MLOAD PUSH3 0x461BCD PUSH1 0xE5 SHL DUP2 MSTORE PUSH1 0x20 PUSH1 0x4 DUP3 ADD MSTORE PUSH1 0x11 PUSH1 0x24 DUP3 ADD MSTORE PUSH17 0x105B1C9958591E4818DBDB5B5A5D1D1959 PUSH1 0x7A SHL PUSH1 0x44 DUP3 ADD MSTORE PUSH1 0x64 SWAP1 REVERT JUMPDEST PUSH1 0x40 MLOAD PUSH3 0x461BCD PUSH1 0xE5 SHL DUP2 MSTORE PUSH1 0x20 PUSH1 0x4 DUP3 ADD MSTORE PUSH1 0x16 PUSH1 0x24 DUP3 ADD MSTORE PUSH22 0x10DA1BDA58D948191958591B1A5B99481C185CDCD959 PUSH1 0x52 SHL PUSH1 0x44 DUP3 ADD MSTORE PUSH1 0x64 SWAP1 REVERT JUMPDEST PUSH1 0x40 MLOAD PUSH3 0x461BCD PUSH1 0xE5 SHL DUP2 MSTORE PUSH1 0x20 PUSH1 0x4 DUP3 ADD MSTORE PUSH1 0x2A PUSH1 0x24 DUP3 ADD MSTORE PUSH32 0x47616D65206E6F74207374617274656420796574202D206361726473206E6F74 PUSH1 0x44 DUP3 ADD MSTORE PUSH10 0x819D95B995C985D1959 PUSH1 0xB2 SHL PUSH1 0x64 DUP3 ADD MSTORE PUSH1 0x84 SWAP1 REVERT JUMPDEST POP PUSH1 0x1 SLOAD DUP4 LT PUSH2 0x3E1 JUMP JUMPDEST DUP2 CALLDATALOAD DUP2 MSTORE PUSH1 0x20 SWAP2 DUP3 ADD SWAP2 ADD PUSH2 0x3CE JUMP JUMPDEST POP DUP1 REVERT JUMPDEST POP CALLVALUE PUSH2 0x2EB JUMPI PUSH1 0x20 CALLDATASIZE PUSH1 0x3 NOT ADD SLT PUSH2 0x2EB JUMPI PUSH2 0x7B5 PUSH2 0x2564 JUMP JUMPDEST PUSH2 0x7BD PUSH2 0x2C4A JUMP JUMPDEST PUSH1 0x1 PUSH1 0x1 PUSH1 0xA0 SHL SUB AND DUP1 ISZERO PUSH2 0x80D JUMPI DUP2 SLOAD PUSH1 0x1 PUSH1 0x1 PUSH1 0xA0 SHL SUB NOT DUP2 AND DUP3 OR DUP4 SSTORE PUSH1 0x1 PUSH1 0x1 PUSH1 0xA0 SHL SUB AND PUSH32 0x8BE0079C531659141344CD1FD0A4F28419497F9722A3DAAFE3B4186F6B6457E0 DUP4 DUP1 LOG3 DUP1 RETURN JUMPDEST PUSH4 0x1E4FBDF7 PUSH1 0xE0 SHL DUP3 MSTORE PUSH1 0x4 DUP3 SWAP1 MSTORE PUSH1 0x24 DUP3 REVERT JUMPDEST POP CALLVALUE PUSH2 0x2EB JUMPI PUSH1 0x20 CALLDATASIZE PUSH1 0x3 NOT ADD SLT PUSH2 0x2EB JUMPI PUSH1 0x4 CALLDATALOAD DUP1 ISZERO ISZERO DUP1 PUSH2 0x9E4 JUMPI JUMPDEST PUSH2 0x848 SWAP1 PUSH2 0x26EF JUMP JUMPDEST DUP1 DUP3 MSTORE PUSH1 0x2 PUSH1 0x20 MSTORE PUSH1 0xFF PUSH1 0x1 PUSH1 0x40 DUP5 KECCAK256 ADD SLOAD AND PUSH1 0x5 DUP2 LT ISZERO PUSH2 0x606 JUMPI PUSH2 0x86E SWAP1 ISZERO PUSH2 0x2982 JUMP JUMPDEST DUP1 DUP3 MSTORE PUSH1 0x2 PUSH1 0x20 MSTORE PUSH1 0x40 DUP3 KECCAK256 PUSH1 0x3 DUP2 ADD SLOAD TIMESTAMP GT PUSH2 0x9B0 JUMPI PUSH1 0x6 ADD DUP1 SLOAD DUP4 JUMPDEST DUP2 DUP2 LT PUSH2 0x950 JUMPI POP POP CALLER DUP4 MSTORE PUSH1 0x5 PUSH1 0x20 MSTORE PUSH1 0x40 DUP4 KECCAK256 SLOAD DUP1 ISZERO ISZERO DUP1 PUSH2 0x946 JUMPI JUMPDEST PUSH2 0x8F3 JUMPI JUMPDEST POP PUSH2 0x8BC SWAP1 CALLER SWAP1 PUSH2 0x2907 JUMP JUMPDEST CALLER DUP3 MSTORE PUSH1 0x5 PUSH1 0x20 MSTORE DUP1 PUSH1 0x40 DUP4 KECCAK256 SSTORE CALLER SWAP1 PUSH32 0x87969BC7FAF902221A147B95CEBA76E011C5EFB0339A0A8EE7A2BB82D9CFBBD6 DUP4 DUP1 LOG3 DUP1 RETURN JUMPDEST DUP4 MSTORE PUSH1 0x2 PUSH1 0x20 MSTORE PUSH1 0xFF PUSH1 0x1 PUSH1 0x40 DUP6 KECCAK256 ADD SLOAD AND PUSH1 0x5 DUP2 LT ISZERO PUSH2 0x932 JUMPI SWAP1 PUSH2 0x91E PUSH1 0x4 PUSH2 0x8BC SWAP4 EQ PUSH2 0x2889 JUMP JUMPDEST CALLER DUP5 MSTORE PUSH1 0x5 PUSH1 0x20 MSTORE DUP4 PUSH1 0x40 DUP2 KECCAK256 SSTORE SWAP1 PUSH2 0x8B0 JUMP JUMPDEST PUSH4 0x4E487B71 PUSH1 0xE0 SHL DUP5 MSTORE PUSH1 0x21 PUSH1 0x4 MSTORE PUSH1 0x24 DUP5 REVERT JUMPDEST POP DUP3 DUP2 EQ ISZERO PUSH2 0x8AB JUMP JUMPDEST PUSH2 0x95A DUP2 DUP5 PUSH2 0x2622 JUMP JUMPDEST SWAP1 SLOAD PUSH1 0x3 SWAP2 SWAP1 SWAP2 SHL SHR PUSH1 0x1 PUSH1 0x1 PUSH1 0xA0 SHL SUB AND CALLER EQ PUSH2 0x97A JUMPI PUSH1 0x1 ADD PUSH2 0x88C JUMP JUMPDEST PUSH1 0x40 MLOAD PUSH3 0x461BCD PUSH1 0xE5 SHL DUP2 MSTORE PUSH1 0x20 PUSH1 0x4 DUP3 ADD MSTORE PUSH1 0xE PUSH1 0x24 DUP3 ADD MSTORE PUSH14 0x105B1C9958591E481A9BDA5B9959 PUSH1 0x92 SHL PUSH1 0x44 DUP3 ADD MSTORE PUSH1 0x64 SWAP1 REVERT JUMPDEST PUSH1 0x40 MLOAD PUSH3 0x461BCD PUSH1 0xE5 SHL DUP2 MSTORE PUSH1 0x20 PUSH1 0x4 DUP3 ADD MSTORE PUSH1 0xC PUSH1 0x24 DUP3 ADD MSTORE PUSH12 0x131BD8989E4818DB1BDCD959 PUSH1 0xA2 SHL PUSH1 0x44 DUP3 ADD MSTORE PUSH1 0x64 SWAP1 REVERT JUMPDEST POP PUSH1 0x1 SLOAD DUP2 LT PUSH2 0x83F JUMP JUMPDEST POP CALLVALUE PUSH2 0x2EB JUMPI DUP1 PUSH1 0x3 NOT CALLDATASIZE ADD SLT PUSH2 0x2EB JUMPI PUSH1 0x20 PUSH1 0x1 SLOAD PUSH1 0x40 MLOAD SWAP1 DUP2 MSTORE RETURN JUMPDEST POP CALLVALUE PUSH2 0x2EB JUMPI DUP1 PUSH1 0x3 NOT CALLDATASIZE ADD SLT PUSH2 0x2EB JUMPI PUSH1 0x20 PUSH1 0x40 MLOAD PUSH1 0xA DUP2 MSTORE RETURN JUMPDEST PUSH2 0x2606 JUMP JUMPDEST POP CALLVALUE PUSH2 0x2EB JUMPI PUSH1 0x20 CALLDATASIZE PUSH1 0x3 NOT ADD SLT PUSH2 0x2EB JUMPI PUSH1 0x60 SWAP1 PUSH1 0x40 SWAP1 PUSH1 0x1 PUSH1 0x1 PUSH1 0xA0 SHL SUB PUSH2 0xA56 PUSH2 0x2564 JUMP JUMPDEST AND DUP2 MSTORE PUSH1 0x3 PUSH1 0x20 MSTORE KECCAK256 PUSH1 0x1 DUP2 ADD SLOAD SWAP1 PUSH1 0x3 PUSH1 0x2 DUP3 ADD SLOAD SWAP2 ADD SLOAD SWAP1 PUSH1 0x40 MLOAD SWAP3 DUP4 MSTORE PUSH1 0x20 DUP4 ADD MSTORE PUSH1 0x40 DUP3 ADD MSTORE RETURN JUMPDEST POP CALLVALUE PUSH2 0x2EB JUMPI PUSH1 0x20 CALLDATASIZE PUSH1 0x3 NOT ADD SLT PUSH2 0x2EB JUMPI PUSH1 0x40 PUSH1 0x20 SWAP2 PUSH1 0x4 CALLDATALOAD DUP1 ISZERO ISZERO DUP1 PUSH2 0xAC0 JUMPI JUMPDEST PUSH2 0xAAE SWAP1 PUSH2 0x26EF JUMP JUMPDEST DUP2 MSTORE PUSH1 0x7 DUP4 MSTORE KECCAK256 SLOAD ISZERO ISZERO PUSH1 0x40 MLOAD SWAP1 DUP2 MSTORE RETURN JUMPDEST POP PUSH1 0x1 SLOAD DUP2 LT PUSH2 0xAA5 JUMP JUMPDEST POP CALLVALUE PUSH2 0x2EB JUMPI PUSH1 0x40 CALLDATASIZE PUSH1 0x3 NOT ADD SLT PUSH2 0x2EB JUMPI PUSH1 0x4 CALLDATALOAD PUSH1 0x24 CALLDATALOAD DUP1 ISZERO ISZERO DUP2 SUB PUSH2 0xCCF JUMPI DUP2 ISZERO ISZERO DUP1 PUSH2 0xCC4 JUMPI JUMPDEST PUSH2 0xAFE SWAP1 PUSH2 0x26EF JUMP JUMPDEST DUP2 DUP4 MSTORE PUSH1 0x2 PUSH1 0x20 MSTORE PUSH1 0x40 DUP4 KECCAK256 PUSH2 0xB1A PUSH1 0x3 DUP3 ADD SLOAD TIMESTAMP LT ISZERO PUSH2 0x2BB2 JUMP JUMPDEST PUSH1 0x4 DUP2 ADD SLOAD TIMESTAMP LT ISZERO PUSH2 0xC7F JUMPI PUSH1 0x7 DUP2 ADD SWAP2 PUSH2 0xB36 DUP4 SLOAD ISZERO PUSH2 0x2BFE JUMP JUMPDEST DUP4 DUP6 MSTORE PUSH1 0x2 PUSH1 0x20 MSTORE PUSH2 0xB4F PUSH1 0x7 PUSH1 0x40 DUP8 KECCAK256 ADD SLOAD ISZERO PUSH2 0x2BFE JUMP JUMPDEST ISZERO PUSH2 0xC4E JUMPI DUP3 DUP5 MSTORE PUSH1 0x2 PUSH1 0x20 MSTORE PUSH1 0x40 DUP5 KECCAK256 DUP4 DUP6 MSTORE PUSH1 0x7 PUSH1 0x20 MSTORE PUSH1 0x40 DUP6 KECCAK256 SLOAD DUP1 ISZERO ISZERO PUSH1 0x0 EQ PUSH2 0xC16 JUMPI SWAP1 PUSH1 0x7 ADD DUP6 JUMPDEST PUSH1 0xA DUP2 LT PUSH2 0xBD7 JUMPI POP POP POP PUSH32 0x1E16023BC0E15B4AD55F8E37DCCF554D1451B0D26C8E55CD0E7E041EEA33C75D SWAP2 PUSH1 0x1 PUSH2 0xBD1 SWAP3 JUMPDEST ADD PUSH1 0x2 PUSH1 0xFF NOT DUP3 SLOAD AND OR SWAP1 SSTORE PUSH1 0x40 MLOAD SWAP2 DUP3 SWAP2 PUSH1 0x20 DUP4 MSTORE PUSH1 0x20 DUP4 ADD SWAP1 PUSH2 0x2948 JUMP JUMPDEST SUB SWAP1 LOG2 DUP1 RETURN JUMPDEST PUSH1 0x1 SWAP1 PUSH2 0xC10 PUSH2 0x2710 PUSH1 0x40 MLOAD PUSH1 0x20 DUP2 ADD SWAP1 DUP8 DUP3 MSTORE DUP11 PUSH1 0x40 DUP3 ADD MSTORE DUP5 PUSH1 0x60 DUP3 ADD MSTORE PUSH1 0x60 DUP2 MSTORE PUSH2 0xC06 PUSH1 0x80 DUP3 PUSH2 0x24B4 JUMP JUMPDEST MLOAD SWAP1 KECCAK256 MOD DUP5 PUSH2 0x2C73 JUMP JUMPDEST ADD PUSH2 0xB7D JUMP JUMPDEST POP POP PUSH32 0x1E16023BC0E15B4AD55F8E37DCCF554D1451B0D26C8E55CD0E7E041EEA33C75D SWAP2 PUSH1 0x1 PUSH2 0xBD1 SWAP3 PUSH2 0xC49 DUP7 PUSH2 0x2CA8 JUMP JUMPDEST PUSH2 0xBB1 JUMP JUMPDEST PUSH32 0x1E16023BC0E15B4AD55F8E37DCCF554D1451B0D26C8E55CD0E7E041EEA33C75D SWAP2 PUSH1 0x1 PUSH2 0xBD1 SWAP3 PUSH2 0xC49 DUP7 PUSH2 0x2CA8 JUMP JUMPDEST PUSH1 0x40 MLOAD PUSH3 0x461BCD PUSH1 0xE5 SHL DUP2 MSTORE PUSH1 0x20 PUSH1 0x4 DUP3 ADD MSTORE PUSH1 0x1E PUSH1 0x24 DUP3 ADD MSTORE PUSH32 0x43686F69636520646561646C696E6520616C7265616479207061737365640000 PUSH1 0x44 DUP3 ADD MSTORE PUSH1 0x64 SWAP1 REVERT JUMPDEST POP PUSH1 0x1 SLOAD DUP3 LT PUSH2 0xAF5 JUMP JUMPDEST DUP3 DUP1 REVERT JUMPDEST POP CALLVALUE PUSH2 0x2EB JUMPI PUSH1 0x20 CALLDATASIZE PUSH1 0x3 NOT ADD SLT PUSH2 0x2EB JUMPI PUSH1 0x4 CALLDATALOAD DUP1 ISZERO ISZERO DUP1 PUSH2 0x1035 JUMPI JUMPDEST PUSH2 0xCFA SWAP1 PUSH2 0x26EF JUMP JUMPDEST DUP1 DUP3 MSTORE PUSH1 0x2 PUSH1 0x20 MSTORE PUSH1 0x40 DUP3 KECCAK256 SWAP1 PUSH1 0x5 DUP3 ADD SLOAD TIMESTAMP LT PUSH2 0xFF0 JUMPI PUSH1 0x1 DUP3 ADD PUSH1 0xFF DUP2 SLOAD AND PUSH1 0x5 DUP2 LT ISZERO PUSH2 0xFC0 JUMPI PUSH1 0x3 DUP2 EQ ISZERO SWAP1 DUP2 PUSH2 0xFE4 JUMPI JUMPDEST POP PUSH2 0xFD4 JUMPI JUMPDEST PUSH1 0xFF DUP2 SLOAD AND PUSH1 0x5 DUP2 LT ISZERO PUSH2 0xFC0 JUMPI PUSH1 0x4 EQ PUSH2 0xF86 JUMPI DUP4 PUSH1 0x6 DUP5 ADD PUSH1 0x8 PUSH1 0x9 DUP7 ADD SWAP6 ADD SWAP6 JUMPDEST DUP2 SLOAD DUP2 LT ISZERO PUSH2 0xEE7 JUMPI PUSH2 0xD6D DUP2 DUP4 PUSH2 0x2622 JUMP JUMPDEST SWAP1 SLOAD PUSH1 0x3 SWAP2 SWAP1 SWAP2 SHL SHR PUSH1 0x1 PUSH1 0x1 PUSH1 0xA0 SHL SUB AND PUSH1 0x0 DUP2 DUP2 MSTORE PUSH1 0x20 DUP10 SWAP1 MSTORE PUSH1 0x40 SWAP1 KECCAK256 PUSH1 0x5 DUP2 ADD SLOAD SWAP2 SWAP9 SWAP1 SWAP4 SWAP1 SWAP2 PUSH1 0xFF AND ISZERO PUSH2 0xEDA JUMPI DUP5 SWAP2 DUP3 JUMPDEST PUSH1 0x3 DUP5 LT ISZERO PUSH2 0xE3E JUMPI PUSH2 0xDE4 PUSH1 0x1 SWAP2 DUP3 DUP7 DUP10 ADD ADD SLOAD DUP1 DUP11 MSTORE DUP13 PUSH1 0x20 MSTORE PUSH1 0xFF DUP5 PUSH1 0x40 DUP13 KECCAK256 ADD SLOAD AND ISZERO PUSH2 0xDEC JUMPI JUMPDEST DUP10 MSTORE DUP12 PUSH1 0x20 MSTORE PUSH1 0x2 PUSH1 0x40 DUP11 KECCAK256 ADD SLOAD SWAP1 PUSH2 0x28FA JUMP JUMPDEST SWAP4 ADD SWAP3 PUSH2 0xDA4 JUMP JUMPDEST PUSH1 0x40 MLOAD PUSH1 0x2 DUP15 PUSH2 0xDFB DUP4 PUSH2 0x2468 JUMP JUMPDEST DUP4 DUP4 MSTORE PUSH2 0xE35 DUP14 PUSH1 0x40 PUSH1 0x20 DUP7 ADD SWAP2 DUP1 DUP4 MSTORE DUP2 DUP8 ADD SWAP5 DUP2 DUP7 MSTORE DUP9 DUP3 MSTORE PUSH1 0x20 MSTORE KECCAK256 SWAP5 MLOAD DUP6 SSTORE MLOAD ISZERO ISZERO DUP9 DUP6 ADD SWAP1 PUSH1 0xFF DUP1 NOT DUP4 SLOAD AND SWAP2 ISZERO ISZERO AND OR SWAP1 SSTORE JUMP JUMPDEST MLOAD SWAP2 ADD SSTORE PUSH2 0xDD0 JUMP JUMPDEST DUP9 SWAP2 SWAP8 SWAP6 POP PUSH1 0x1 SWAP5 SWAP4 POP PUSH1 0x20 PUSH32 0xDBADCE3C07B5BC30EBBE2BCEC3D6BB95F9B3A0BB33178FF0D61E4D7D4339915 SWAP2 SWAP12 SWAP4 SWAP12 DUP5 DUP10 MSTORE PUSH1 0x3 DUP3 MSTORE DUP7 PUSH1 0x40 DUP11 KECCAK256 ADD PUSH2 0xE87 DUP3 DUP3 SLOAD PUSH2 0x28FA JUMP JUMPDEST SWAP1 SSTORE DUP5 DUP10 MSTORE PUSH1 0x3 DUP3 MSTORE PUSH1 0x2 PUSH1 0x40 DUP11 KECCAK256 ADD PUSH2 0xEA1 DUP2 SLOAD PUSH2 0x28D5 JUMP JUMPDEST SWAP1 SSTORE DUP1 PUSH2 0xEBB JUMPI JUMPDEST PUSH1 0x40 MLOAD SWAP1 DUP2 MSTORE LOG3 JUMPDEST ADD SWAP6 SWAP1 SWAP3 SWAP6 PUSH2 0xD5A JUMP JUMPDEST DUP5 DUP10 MSTORE PUSH1 0x3 DUP3 MSTORE PUSH1 0x3 PUSH1 0x40 DUP11 KECCAK256 ADD PUSH2 0xED3 DUP2 SLOAD PUSH2 0x28D5 JUMP JUMPDEST SWAP1 SSTORE PUSH2 0xEA9 JUMP JUMPDEST SWAP8 POP SWAP4 SWAP2 POP PUSH1 0x1 SWAP1 PUSH2 0xEB1 JUMP JUMPDEST POP DUP3 SLOAD PUSH1 0xFF NOT AND PUSH1 0x4 OR SWAP1 SWAP3 SSTORE DUP1 JUMPDEST DUP3 SLOAD DUP2 LT ISZERO PUSH2 0xF5D JUMPI DUP1 PUSH2 0xF0C PUSH1 0x1 SWAP3 DUP6 PUSH2 0x2622 JUMP JUMPDEST DUP4 DUP1 PUSH1 0xA0 SHL SUB SWAP2 SLOAD SWAP1 PUSH1 0x3 SHL SHR AND DUP4 MSTORE PUSH1 0x5 PUSH1 0x20 MSTORE DUP5 PUSH1 0x40 DUP5 KECCAK256 SLOAD EQ PUSH2 0xF33 JUMPI JUMPDEST ADD PUSH2 0xEF6 JUMP JUMPDEST PUSH2 0xF3D DUP2 DUP6 PUSH2 0x2622 JUMP JUMPDEST DUP4 DUP1 PUSH1 0xA0 SHL SUB SWAP2 SLOAD SWAP1 PUSH1 0x3 SHL SHR AND DUP4 MSTORE PUSH1 0x5 PUSH1 0x20 MSTORE DUP3 PUSH1 0x40 DUP2 KECCAK256 SSTORE PUSH2 0xF2D JUMP JUMPDEST POP DUP3 PUSH32 0xCE24807F7E4B60B4E641462F13029FA5E5F79075BBC3F8E5CD43ECD19661D760 DUP3 DUP1 LOG2 DUP1 RETURN JUMPDEST PUSH1 0x40 MLOAD PUSH3 0x461BCD PUSH1 0xE5 SHL DUP2 MSTORE PUSH1 0x20 PUSH1 0x4 DUP3 ADD MSTORE PUSH1 0x12 PUSH1 0x24 DUP3 ADD MSTORE PUSH18 0x11D85B5948185B1C9958591E48195B991959 PUSH1 0x72 SHL PUSH1 0x44 DUP3 ADD MSTORE PUSH1 0x64 SWAP1 REVERT JUMPDEST PUSH4 0x4E487B71 PUSH1 0xE0 SHL DUP6 MSTORE PUSH1 0x21 PUSH1 0x4 MSTORE PUSH1 0x24 DUP6 REVERT JUMPDEST DUP1 SLOAD PUSH1 0xFF NOT AND PUSH1 0x3 OR DUP2 SSTORE PUSH2 0xD36 JUMP JUMPDEST PUSH1 0x4 SWAP2 POP EQ ISZERO CODESIZE PUSH2 0xD30 JUMP JUMPDEST PUSH1 0x40 MLOAD PUSH3 0x461BCD PUSH1 0xE5 SHL DUP2 MSTORE PUSH1 0x20 PUSH1 0x4 DUP3 ADD MSTORE PUSH1 0x1F PUSH1 0x24 DUP3 ADD MSTORE PUSH32 0x5265736F6C7574696F6E20646561646C696E65206E6F74207265616368656400 PUSH1 0x44 DUP3 ADD MSTORE PUSH1 0x64 SWAP1 REVERT JUMPDEST POP PUSH1 0x1 SLOAD DUP2 LT PUSH2 0xCF1 JUMP JUMPDEST POP CALLVALUE PUSH2 0x2EB JUMPI DUP1 PUSH1 0x3 NOT CALLDATASIZE ADD SLT PUSH2 0x2EB JUMPI PUSH1 0x40 MLOAD PUSH32 0x0 PUSH1 0x1 PUSH1 0x1 PUSH1 0xA0 SHL SUB AND DUP2 MSTORE PUSH1 0x20 SWAP1 RETURN JUMPDEST POP CALLVALUE PUSH2 0x2EB JUMPI PUSH1 0x20 CALLDATASIZE PUSH1 0x3 NOT ADD SLT PUSH2 0x2EB JUMPI PUSH2 0x10A2 PUSH1 0x4 CALLDATALOAD PUSH2 0x2A10 JUMP JUMPDEST SWAP1 PUSH2 0x10D2 PUSH2 0x10C7 PUSH1 0x40 SWAP7 SWAP6 SWAP7 MLOAD SWAP7 DUP8 SWAP7 ISZERO ISZERO DUP8 MSTORE PUSH1 0xA0 PUSH1 0x20 DUP9 ADD MSTORE PUSH1 0xA0 DUP8 ADD SWAP1 PUSH2 0x25C5 JUMP JUMPDEST SWAP4 PUSH1 0x40 DUP7 ADD SWAP1 PUSH2 0x25A2 JUMP JUMPDEST PUSH1 0x60 DUP5 ADD MSTORE PUSH1 0x80 DUP4 ADD MSTORE SUB SWAP1 RETURN JUMPDEST POP CALLVALUE PUSH2 0x2EB JUMPI PUSH1 0x20 CALLDATASIZE PUSH1 0x3 NOT ADD SLT PUSH2 0x2EB JUMPI PUSH1 0x4 CALLDATALOAD SWAP1 PUSH1 0x4 SLOAD DUP3 LT ISZERO PUSH2 0x2EB JUMPI PUSH1 0x4 SLOAD DUP3 LT ISZERO PUSH2 0x114D JUMPI PUSH1 0x4 DUP2 MSTORE PUSH32 0x8A35ACFBC15FF81A39AE7D344FD709F28E8600B4AA8C65C6B64BFE7FE36BD19B SWAP1 SWAP2 ADD SLOAD PUSH1 0x40 MLOAD PUSH1 0x3 SWAP3 SWAP1 SWAP3 SHL SHR PUSH1 0x1 PUSH1 0x1 PUSH1 0xA0 SHL SUB AND DUP2 MSTORE PUSH1 0x20 SWAP1 RETURN JUMPDEST PUSH4 0x4E487B71 PUSH1 0xE0 SHL DUP2 MSTORE PUSH1 0x32 PUSH1 0x4 MSTORE PUSH1 0x24 SWAP1 REVERT JUMPDEST POP CALLVALUE PUSH2 0x2EB JUMPI DUP1 PUSH1 0x3 NOT CALLDATASIZE ADD SLT PUSH2 0x2EB JUMPI PUSH1 0x20 PUSH1 0x40 MLOAD PUSH1 0xF DUP2 MSTORE RETURN JUMPDEST POP CALLVALUE PUSH2 0x2EB JUMPI PUSH1 0x20 CALLDATASIZE PUSH1 0x3 NOT ADD SLT PUSH2 0x2EB JUMPI PUSH1 0x40 PUSH1 0x20 SWAP2 PUSH1 0x4 CALLDATALOAD DUP2 MSTORE PUSH1 0x7 DUP4 MSTORE KECCAK256 SLOAD PUSH1 0x40 MLOAD SWAP1 DUP2 MSTORE RETURN JUMPDEST POP CALLVALUE PUSH2 0x2EB JUMPI DUP1 PUSH1 0x3 NOT CALLDATASIZE ADD SLT PUSH2 0x2EB JUMPI PUSH1 0x20 PUSH1 0x40 MLOAD PUSH1 0x12 DUP2 MSTORE RETURN JUMPDEST POP CALLVALUE PUSH2 0x2EB JUMPI PUSH1 0x20 CALLDATASIZE PUSH1 0x3 NOT ADD SLT PUSH2 0x2EB JUMPI PUSH1 0x20 PUSH2 0x11E7 PUSH2 0x11E2 PUSH2 0x2564 JUMP JUMPDEST PUSH2 0x29C4 JUMP JUMPDEST PUSH1 0x40 MLOAD SWAP1 DUP2 MSTORE RETURN JUMPDEST POP PUSH1 0x80 CALLDATASIZE PUSH1 0x3 NOT ADD SLT PUSH2 0x2EB JUMPI PUSH1 0x24 CALLDATALOAD PUSH1 0x4 CALLDATALOAD PUSH1 0x1 PUSH1 0x1 PUSH1 0x40 SHL SUB DUP3 GT PUSH2 0xCCF JUMPI CALLDATASIZE PUSH1 0x23 DUP4 ADD SLT ISZERO PUSH2 0xCCF JUMPI DUP2 PUSH1 0x4 ADD CALLDATALOAD SWAP2 PUSH2 0x122A DUP4 PUSH2 0x24D5 JUMP JUMPDEST SWAP1 PUSH2 0x1238 PUSH1 0x40 MLOAD SWAP3 DUP4 PUSH2 0x24B4 JUMP JUMPDEST DUP4 DUP3 MSTORE PUSH1 0x20 DUP3 ADD PUSH1 0x24 DUP2 SWAP6 PUSH1 0x5 SHL DUP4 ADD ADD SWAP2 CALLDATASIZE DUP4 GT PUSH2 0x13EF JUMPI PUSH1 0x24 DUP2 ADD SWAP2 JUMPDEST DUP4 DUP4 LT PUSH2 0x1486 JUMPI POP POP POP POP PUSH1 0x44 CALLDATALOAD PUSH1 0x1 PUSH1 0x1 PUSH1 0x40 SHL SUB DUP2 GT PUSH2 0x1482 JUMPI PUSH2 0x1281 SWAP1 CALLDATASIZE SWAP1 PUSH1 0x4 ADD PUSH2 0x24EC JUMP JUMPDEST POP PUSH1 0x64 CALLDATALOAD SWAP3 DUP3 ISZERO ISZERO DUP1 PUSH2 0x1477 JUMPI JUMPDEST PUSH2 0x1298 SWAP1 PUSH2 0x26EF JUMP JUMPDEST DUP3 DUP6 MSTORE PUSH1 0x2 PUSH1 0x20 MSTORE PUSH1 0xFF PUSH1 0x1 PUSH1 0x40 DUP8 KECCAK256 ADD SLOAD AND PUSH1 0x5 DUP2 LT ISZERO PUSH2 0x1463 JUMPI PUSH1 0x3 PUSH2 0x12C0 SWAP2 EQ PUSH2 0x2982 JUMP JUMPDEST DUP3 DUP6 MSTORE PUSH1 0x2 PUSH1 0x20 MSTORE PUSH1 0x40 DUP6 KECCAK256 DUP5 CALLVALUE LT PUSH2 0x142B JUMPI PUSH1 0xA ADD SWAP4 PUSH1 0xFF DUP6 SLOAD AND PUSH2 0x13F3 JUMPI PUSH32 0x0 PUSH1 0x1 PUSH1 0x1 PUSH1 0xA0 SHL SUB AND SWAP2 DUP3 EXTCODESIZE ISZERO PUSH2 0x13EF JUMPI PUSH1 0x40 MLOAD PUSH4 0x1DF3CBC5 PUSH1 0xE3 SHL DUP2 MSTORE PUSH1 0x20 PUSH1 0x4 DUP3 ADD MSTORE SWAP4 MLOAD PUSH1 0x24 DUP6 ADD DUP2 SWAP1 MSTORE DUP8 SWAP5 SWAP4 SWAP3 SWAP2 PUSH1 0x44 PUSH1 0x5 DUP4 SWAP1 SHL DUP7 ADD DUP2 ADD SWAP3 SWAP1 DUP8 SWAP1 DUP8 ADD JUMPDEST DUP3 DUP3 LT PUSH2 0x13BA JUMPI POP POP POP POP SWAP2 DUP4 DUP1 SWAP3 DUP2 DUP8 SWAP6 SUB SWAP3 GAS CALL DUP1 ISZERO PUSH2 0x13AF JUMPI PUSH2 0x139A JUMPI JUMPDEST POP DUP1 PUSH32 0x702EC30635253CAE6D3600D38314E616495CF01545D34E549C49EBF6451DAB3B SWAP2 LOG2 DUP1 SLOAD PUSH1 0xFF NOT AND PUSH1 0x1 OR SWAP1 SSTORE DUP1 RETURN JUMPDEST DUP2 PUSH2 0x13A4 SWAP2 PUSH2 0x24B4 JUMP JUMPDEST PUSH2 0xCCF JUMPI DUP3 CODESIZE PUSH2 0x1367 JUMP JUMPDEST PUSH1 0x40 MLOAD RETURNDATASIZE DUP5 DUP3 RETURNDATACOPY RETURNDATASIZE SWAP1 REVERT JUMPDEST SWAP2 SWAP4 PUSH1 0x1 SWAP2 SWAP4 SWAP6 SWAP7 SWAP8 SWAP9 POP PUSH1 0x20 PUSH2 0x13DC DUP2 SWAP3 PUSH1 0x43 NOT DUP13 DUP3 SUB ADD DUP7 MSTORE DUP9 MLOAD PUSH2 0x25C5 JUMP JUMPDEST SWAP7 ADD SWAP3 ADD SWAP3 ADD DUP11 SWAP8 SWAP7 SWAP6 SWAP5 SWAP4 SWAP2 SWAP3 PUSH2 0x1346 JUMP JUMPDEST DUP7 DUP1 REVERT JUMPDEST PUSH1 0x40 MLOAD PUSH3 0x461BCD PUSH1 0xE5 SHL DUP2 MSTORE PUSH1 0x20 PUSH1 0x4 DUP3 ADD MSTORE PUSH1 0x10 PUSH1 0x24 DUP3 ADD MSTORE PUSH16 0x105B1C9958591E481C995CDBDB1D9959 PUSH1 0x82 SHL PUSH1 0x44 DUP3 ADD MSTORE PUSH1 0x64 SWAP1 REVERT JUMPDEST PUSH1 0x40 MLOAD PUSH3 0x461BCD PUSH1 0xE5 SHL DUP2 MSTORE PUSH1 0x20 PUSH1 0x4 DUP3 ADD MSTORE PUSH1 0x10 PUSH1 0x24 DUP3 ADD MSTORE PUSH16 0x496E73756666696369656E7420666565 PUSH1 0x80 SHL PUSH1 0x44 DUP3 ADD MSTORE PUSH1 0x64 SWAP1 REVERT JUMPDEST PUSH4 0x4E487B71 PUSH1 0xE0 SHL DUP7 MSTORE PUSH1 0x21 PUSH1 0x4 MSTORE PUSH1 0x24 DUP7 REVERT JUMPDEST POP PUSH1 0x1 SLOAD DUP4 LT PUSH2 0x128F JUMP JUMPDEST DUP5 DUP1 REVERT JUMPDEST DUP3 CALLDATALOAD PUSH1 0x1 PUSH1 0x1 PUSH1 0x40 SHL SUB DUP2 GT PUSH2 0x1511 JUMPI DUP3 ADD SWAP1 CALLDATASIZE PUSH1 0x43 DUP4 ADD SLT ISZERO PUSH2 0x1511 JUMPI PUSH1 0x24 DUP3 ADD CALLDATALOAD SWAP1 PUSH1 0x1 PUSH1 0x1 PUSH1 0x40 SHL SUB DUP3 GT PUSH2 0x14FD JUMPI PUSH1 0x40 MLOAD PUSH2 0x14CF PUSH1 0x1F DUP5 ADD PUSH1 0x1F NOT AND PUSH1 0x20 ADD DUP3 PUSH2 0x24B4 JUMP JUMPDEST DUP3 DUP2 MSTORE DUP11 CALLDATASIZE PUSH1 0x44 DUP7 DUP7 ADD ADD GT PUSH2 0x2EB JUMPI PUSH1 0x20 DUP5 DUP2 SWAP7 SWAP6 PUSH1 0x44 DUP4 SWAP8 ADD DUP4 DUP7 ADD CALLDATACOPY DUP4 ADD ADD MSTORE DUP2 MSTORE ADD SWAP3 ADD SWAP2 PUSH2 0x1257 JUMP JUMPDEST PUSH4 0x4E487B71 PUSH1 0xE0 SHL DUP11 MSTORE PUSH1 0x41 PUSH1 0x4 MSTORE PUSH1 0x24 DUP11 REVERT JUMPDEST DUP9 DUP1 REVERT JUMPDEST POP CALLVALUE PUSH2 0x2EB JUMPI PUSH1 0x20 CALLDATASIZE PUSH1 0x3 NOT ADD SLT PUSH2 0x2EB JUMPI PUSH1 0xFF PUSH1 0x40 PUSH1 0x20 SWAP3 PUSH1 0x4 CALLDATALOAD DUP2 MSTORE PUSH1 0x8 DUP5 MSTORE KECCAK256 SLOAD AND PUSH1 0x40 MLOAD SWAP1 ISZERO ISZERO DUP2 MSTORE RETURN JUMPDEST POP CALLVALUE PUSH2 0x2EB JUMPI PUSH1 0x20 CALLDATASIZE PUSH1 0x3 NOT ADD SLT PUSH2 0x2EB JUMPI PUSH1 0x4 CALLDATALOAD DUP1 ISZERO ISZERO DUP1 PUSH2 0x15B8 JUMPI JUMPDEST PUSH2 0x156B SWAP1 PUSH2 0x26EF JUMP JUMPDEST DUP2 MSTORE PUSH1 0x2 PUSH1 0x20 MSTORE PUSH1 0x40 DUP2 KECCAK256 PUSH1 0x4 DUP2 ADD SLOAD TIMESTAMP LT ISZERO DUP1 PUSH2 0x159D JUMPI JUMPDEST PUSH2 0x158C JUMPI POP DUP1 RETURN JUMPDEST PUSH1 0x1 ADD DUP1 SLOAD PUSH1 0xFF NOT AND PUSH1 0x3 OR SWAP1 SSTORE DUP1 RETURN JUMPDEST POP PUSH1 0xFF PUSH1 0x1 DUP3 ADD SLOAD AND PUSH1 0x5 DUP2 LT ISZERO PUSH2 0x606 JUMPI PUSH1 0x4 EQ ISZERO PUSH2 0x1584 JUMP JUMPDEST POP PUSH1 0x1 SLOAD DUP2 LT PUSH2 0x1562 JUMP JUMPDEST POP CALLVALUE PUSH2 0x2EB JUMPI DUP1 PUSH1 0x3 NOT CALLDATASIZE ADD SLT PUSH2 0x2EB JUMPI PUSH1 0x20 PUSH1 0x40 MLOAD PUSH1 0x1 DUP2 MSTORE RETURN JUMPDEST POP CALLVALUE PUSH2 0x2EB JUMPI DUP1 PUSH1 0x3 NOT CALLDATASIZE ADD SLT PUSH2 0x2EB JUMPI SLOAD PUSH1 0x40 MLOAD PUSH1 0x1 PUSH1 0x1 PUSH1 0xA0 SHL SUB SWAP1 SWAP2 AND DUP2 MSTORE PUSH1 0x20 SWAP1 RETURN JUMPDEST POP CALLVALUE PUSH2 0x2EB JUMPI PUSH1 0x20 CALLDATASIZE PUSH1 0x3 NOT ADD SLT PUSH2 0x2EB JUMPI PUSH1 0x20 SWAP1 PUSH1 0x40 SWAP1 PUSH1 0x1 PUSH1 0x1 PUSH1 0xA0 SHL SUB PUSH2 0x162E PUSH2 0x2564 JUMP JUMPDEST AND DUP2 MSTORE PUSH1 0x5 DUP4 MSTORE KECCAK256 SLOAD PUSH1 0x40 MLOAD SWAP1 DUP2 MSTORE RETURN JUMPDEST POP CALLVALUE PUSH2 0x2EB JUMPI PUSH1 0x20 CALLDATASIZE PUSH1 0x3 NOT ADD SLT PUSH2 0x2EB JUMPI PUSH1 0x4 CALLDATALOAD DUP1 ISZERO ISZERO DUP1 PUSH2 0x16D3 JUMPI JUMPDEST SWAP1 PUSH2 0x166B PUSH2 0x1688 SWAP4 SWAP3 PUSH2 0x26EF JUMP JUMPDEST DUP2 MSTORE PUSH1 0x2 PUSH1 0x20 MSTORE PUSH2 0x168F PUSH1 0x7 PUSH1 0x40 DUP4 KECCAK256 ADD PUSH1 0x40 MLOAD SWAP4 DUP5 DUP1 SWAP3 PUSH2 0x2948 JUMP JUMPDEST SUB DUP4 PUSH2 0x24B4 JUMP JUMPDEST PUSH1 0x40 MLOAD SWAP2 DUP3 SWAP2 PUSH1 0x20 DUP4 ADD PUSH1 0x20 DUP5 MSTORE DUP3 MLOAD DUP1 SWAP2 MSTORE PUSH1 0x20 PUSH1 0x40 DUP6 ADD SWAP4 ADD SWAP2 JUMPDEST DUP2 DUP2 LT PUSH2 0x16BA JUMPI POP POP POP SUB SWAP1 RETURN JUMPDEST DUP3 MLOAD DUP5 MSTORE DUP6 SWAP5 POP PUSH1 0x20 SWAP4 DUP5 ADD SWAP4 SWAP1 SWAP3 ADD SWAP2 PUSH1 0x1 ADD PUSH2 0x16AC JUMP JUMPDEST POP PUSH1 0x1 SLOAD DUP2 LT PUSH2 0x165D JUMP JUMPDEST POP CALLVALUE PUSH2 0x2EB JUMPI DUP1 PUSH1 0x3 NOT CALLDATASIZE ADD SLT PUSH2 0x2EB JUMPI PUSH1 0x20 PUSH1 0x40 MLOAD PUSH1 0x2 DUP2 MSTORE RETURN JUMPDEST POP CALLVALUE PUSH2 0x2EB JUMPI PUSH1 0x40 CALLDATASIZE PUSH1 0x3 NOT ADD SLT PUSH2 0x2EB JUMPI PUSH1 0x40 DUP1 SWAP2 PUSH1 0x4 CALLDATALOAD DUP1 ISZERO ISZERO DUP1 PUSH2 0x1756 JUMPI JUMPDEST PUSH2 0x1725 SWAP1 PUSH2 0x26EF JUMP JUMPDEST DUP2 MSTORE PUSH1 0x2 PUSH1 0x20 MSTORE PUSH1 0x9 DUP3 DUP3 KECCAK256 ADD PUSH1 0x24 CALLDATALOAD DUP3 MSTORE PUSH1 0x20 MSTORE KECCAK256 PUSH1 0x2 PUSH1 0xFF PUSH1 0x1 DUP4 ADD SLOAD AND SWAP2 ADD SLOAD DUP3 MLOAD SWAP2 ISZERO ISZERO DUP3 MSTORE PUSH1 0x20 DUP3 ADD MSTORE RETURN JUMPDEST POP PUSH1 0x1 SLOAD DUP2 LT PUSH2 0x171C JUMP JUMPDEST POP CALLVALUE PUSH2 0x2EB JUMPI DUP1 PUSH1 0x3 NOT CALLDATASIZE ADD SLT PUSH2 0x2EB JUMPI PUSH1 0x20 PUSH1 0x40 MLOAD PUSH1 0xB4 DUP2 MSTORE RETURN JUMPDEST POP CALLVALUE PUSH2 0x2EB JUMPI DUP1 PUSH1 0x3 NOT CALLDATASIZE ADD SLT PUSH2 0x2EB JUMPI CALLER DUP2 MSTORE PUSH1 0x5 PUSH1 0x20 MSTORE PUSH1 0x40 DUP2 KECCAK256 SLOAD DUP1 PUSH2 0x1A34 JUMPI JUMPDEST POP PUSH1 0x1 SLOAD PUSH2 0x17AE DUP2 PUSH2 0x28D5 JUMP JUMPDEST PUSH1 0x1 SSTORE DUP1 DUP3 MSTORE PUSH1 0x2 PUSH1 0x20 MSTORE PUSH1 0x40 DUP3 KECCAK256 DUP2 DUP2 SSTORE PUSH1 0x1 DUP2 ADD PUSH1 0xFF NOT DUP2 SLOAD AND SWAP1 SSTORE TIMESTAMP PUSH1 0x2 DUP3 ADD SSTORE PUSH1 0x3C TIMESTAMP ADD DUP1 TIMESTAMP GT PUSH2 0x1A20 JUMPI DUP1 PUSH1 0x3 DUP4 ADD SSTORE PUSH1 0x78 TIMESTAMP ADD DUP1 SWAP2 GT PUSH2 0x1A20 JUMPI DUP1 PUSH1 0x4 DUP4 ADD SSTORE PUSH2 0x12C TIMESTAMP ADD DUP1 SWAP2 GT PUSH2 0x1A20 JUMPI PUSH1 0x5 DUP3 ADD SSTORE PUSH2 0x1813 SWAP1 CALLER SWAP1 PUSH1 0x6 ADD PUSH2 0x2907 JUMP JUMPDEST CALLER DUP3 MSTORE PUSH1 0x5 PUSH1 0x20 MSTORE DUP1 PUSH1 0x40 DUP4 KECCAK256 SSTORE PUSH1 0x40 MLOAD CALLER DUP3 PUSH32 0xFADB9547847A0C2C31F4C02590545E318D33D7AAE99071CAECF3FA4CE3CD7DCA DUP6 DUP1 LOG3 DUP2 DUP4 MSTORE PUSH1 0x8 PUSH1 0x20 MSTORE PUSH1 0xFF PUSH1 0x40 DUP5 KECCAK256 SLOAD AND PUSH2 0x19DE JUMPI POP PUSH1 0x40 MLOAD PUSH4 0x1F01025B PUSH1 0xE1 SHL DUP2 MSTORE PUSH32 0x0 PUSH1 0x1 PUSH1 0x1 PUSH1 0xA0 SHL SUB AND PUSH1 0x20 DUP3 PUSH1 0x4 DUP2 DUP5 GAS STATICCALL SWAP2 DUP3 ISZERO PUSH2 0x19D3 JUMPI DUP5 SWAP3 PUSH2 0x199B JUMPI JUMPDEST POP DUP2 SELFBALANCE LT PUSH2 0x1956 JUMPI DUP1 DUP5 SWAP2 EXTCODESIZE ISZERO PUSH2 0x797 JUMPI PUSH1 0x4 PUSH1 0x40 MLOAD DUP1 SWAP5 DUP2 SWAP4 PUSH4 0xB13038A1 PUSH1 0xE0 SHL DUP4 MSTORE GAS CALL DUP1 ISZERO PUSH2 0x194B JUMPI SWAP3 PUSH1 0x40 SWAP2 DUP2 PUSH1 0x20 SWAP6 PUSH2 0x193B JUMPI JUMPDEST DUP5 SWAP2 POP MSTORE PUSH1 0x8 DUP5 MSTORE KECCAK256 PUSH1 0x1 PUSH1 0xFF NOT DUP3 SLOAD AND OR SWAP1 SSTORE DUP1 PUSH32 0xBDC6D9CD20B69192D98208F944398E7220245FA28933232072F237E004B9A376 DUP4 PUSH2 0x1928 PUSH1 0x9 SLOAD PUSH2 0x28D5 JUMP JUMPDEST DUP1 PUSH1 0x9 SSTORE PUSH1 0x40 MLOAD SWAP1 DUP2 MSTORE LOG2 PUSH1 0x40 MLOAD SWAP1 DUP2 MSTORE RETURN JUMPDEST PUSH2 0x1944 SWAP2 PUSH2 0x24B4 JUMP JUMPDEST CODESIZE DUP2 PUSH2 0x18E6 JUMP JUMPDEST PUSH1 0x40 MLOAD RETURNDATASIZE DUP6 DUP3 RETURNDATACOPY RETURNDATASIZE SWAP1 REVERT JUMPDEST PUSH1 0x40 MLOAD PUSH3 0x461BCD PUSH1 0xE5 SHL DUP2 MSTORE PUSH1 0x20 PUSH1 0x4 DUP3 ADD MSTORE PUSH1 0x1D PUSH1 0x24 DUP3 ADD MSTORE PUSH32 0x496E73756666696369656E7420636F6E74726163742062616C616E6365000000 PUSH1 0x44 DUP3 ADD MSTORE PUSH1 0x64 SWAP1 REVERT JUMPDEST SWAP1 SWAP2 POP PUSH1 0x20 DUP2 RETURNDATASIZE PUSH1 0x20 GT PUSH2 0x19CB JUMPI JUMPDEST DUP2 PUSH2 0x19B7 PUSH1 0x20 SWAP4 DUP4 PUSH2 0x24B4 JUMP JUMPDEST DUP2 ADD SUB SLT PUSH2 0x19C7 JUMPI MLOAD SWAP1 CODESIZE PUSH2 0x18AD JUMP JUMPDEST DUP4 DUP1 REVERT JUMPDEST RETURNDATASIZE SWAP2 POP PUSH2 0x19AA JUMP JUMPDEST PUSH1 0x40 MLOAD RETURNDATASIZE DUP7 DUP3 RETURNDATACOPY RETURNDATASIZE SWAP1 REVERT JUMPDEST PUSH3 0x461BCD PUSH1 0xE5 SHL DUP2 MSTORE PUSH1 0x20 PUSH1 0x4 DUP3 ADD MSTORE PUSH1 0x19 PUSH1 0x24 DUP3 ADD MSTORE PUSH32 0x456E74726F707920616C72656164792072657175657374656400000000000000 PUSH1 0x44 DUP3 ADD MSTORE PUSH1 0x64 SWAP1 REVERT JUMPDEST PUSH4 0x4E487B71 PUSH1 0xE0 SHL DUP5 MSTORE PUSH1 0x11 PUSH1 0x4 MSTORE PUSH1 0x24 DUP5 REVERT JUMPDEST DUP2 MSTORE PUSH1 0x2 PUSH1 0x20 MSTORE PUSH1 0xFF PUSH1 0x1 PUSH1 0x40 DUP4 KECCAK256 ADD SLOAD AND PUSH1 0x5 DUP2 LT ISZERO PUSH2 0x1A6F JUMPI PUSH1 0x4 PUSH2 0x1A5B SWAP2 EQ PUSH2 0x2889 JUMP JUMPDEST CALLER DUP2 MSTORE PUSH1 0x5 PUSH1 0x20 MSTORE DUP1 PUSH1 0x40 DUP2 KECCAK256 SSTORE CODESIZE PUSH2 0x17A1 JUMP JUMPDEST PUSH4 0x4E487B71 PUSH1 0xE0 SHL DUP3 MSTORE PUSH1 0x21 PUSH1 0x4 MSTORE PUSH1 0x24 DUP3 REVERT JUMPDEST POP CALLVALUE PUSH2 0x2EB JUMPI DUP1 PUSH1 0x3 NOT CALLDATASIZE ADD SLT PUSH2 0x2EB JUMPI PUSH2 0x1A9C PUSH2 0x2C4A JUMP JUMPDEST DUP1 SLOAD PUSH1 0x1 PUSH1 0x1 PUSH1 0xA0 SHL SUB NOT DUP2 AND DUP3 SSTORE DUP2 SWAP1 PUSH1 0x1 PUSH1 0x1 PUSH1 0xA0 SHL SUB AND PUSH32 0x8BE0079C531659141344CD1FD0A4F28419497F9722A3DAAFE3B4186F6B6457E0 DUP3 DUP1 LOG3 DUP1 RETURN JUMPDEST POP CALLVALUE PUSH2 0x2EB JUMPI DUP1 PUSH1 0x3 NOT CALLDATASIZE ADD SLT PUSH2 0x2EB JUMPI PUSH1 0x20 PUSH1 0x9 SLOAD PUSH1 0x40 MLOAD SWAP1 DUP2 MSTORE RETURN JUMPDEST POP CALLVALUE PUSH2 0x2EB JUMPI PUSH1 0x20 CALLDATASIZE PUSH1 0x3 NOT ADD SLT PUSH2 0x2EB JUMPI PUSH1 0x80 SWAP1 PUSH1 0x40 SWAP1 PUSH1 0x1 PUSH1 0x1 PUSH1 0xA0 SHL SUB PUSH2 0x1B23 PUSH2 0x2564 JUMP JUMPDEST AND DUP2 MSTORE PUSH1 0x3 PUSH1 0x20 MSTORE KECCAK256 PUSH1 0x1 DUP1 PUSH1 0xA0 SHL SUB DUP2 SLOAD AND SWAP1 PUSH1 0x1 DUP2 ADD SLOAD SWAP1 PUSH1 0x3 PUSH1 0x2 DUP3 ADD SLOAD SWAP2 ADD SLOAD SWAP2 PUSH1 0x40 MLOAD SWAP4 DUP5 MSTORE PUSH1 0x20 DUP5 ADD MSTORE PUSH1 0x40 DUP4 ADD MSTORE PUSH1 0x60 DUP3 ADD MSTORE RETURN JUMPDEST POP CALLVALUE PUSH2 0x2EB JUMPI PUSH1 0x20 CALLDATASIZE PUSH1 0x3 NOT ADD SLT PUSH2 0x2EB JUMPI POP PUSH1 0x20 PUSH2 0x1B8B PUSH1 0x4 CALLDATALOAD DUP1 ISZERO ISZERO DUP1 PUSH2 0x2D5 JUMPI PUSH2 0x281 SWAP1 PUSH2 0x26EF JUMP JUMPDEST PUSH2 0x1B98 PUSH1 0x40 MLOAD DUP1 SWAP3 PUSH2 0x25A2 JUMP JUMPDEST RETURN JUMPDEST POP CALLVALUE PUSH2 0x2EB JUMPI PUSH1 0x40 CALLDATASIZE PUSH1 0x3 NOT ADD SLT PUSH2 0x2EB JUMPI PUSH1 0x4 CALLDATALOAD DUP2 MSTORE PUSH1 0x6 PUSH1 0x20 MSTORE PUSH1 0x24 CALLDATALOAD PUSH1 0x40 DUP3 KECCAK256 SSTORE DUP1 RETURN JUMPDEST POP CALLVALUE PUSH2 0x2EB JUMPI PUSH1 0x20 CALLDATASIZE PUSH1 0x3 NOT ADD SLT PUSH2 0x2EB JUMPI PUSH1 0x4 CALLDATALOAD PUSH2 0x1BDE PUSH2 0x2C4A JUMP JUMPDEST SELFBALANCE DUP2 GT PUSH2 0x1C53 JUMPI DUP2 DUP1 DUP1 DUP1 DUP5 PUSH1 0x1 DUP1 PUSH1 0xA0 SHL SUB DUP3 SLOAD AND DUP3 DUP3 ISZERO PUSH2 0x1C4A JUMPI JUMPDEST CALL ISZERO PUSH2 0x1C3D JUMPI DUP2 SLOAD PUSH1 0x40 MLOAD SWAP2 DUP3 MSTORE PUSH1 0x1 PUSH1 0x1 PUSH1 0xA0 SHL SUB AND SWAP1 PUSH32 0x7084F5476618D8E60B11EF0D7D3F06914655ADB8793E28FF7F018D4C76D505D5 SWAP1 PUSH1 0x20 SWAP1 LOG2 DUP1 RETURN JUMPDEST POP PUSH1 0x40 MLOAD SWAP1 RETURNDATASIZE SWAP1 DUP3 RETURNDATACOPY RETURNDATASIZE SWAP1 REVERT JUMPDEST POP PUSH2 0x8FC PUSH2 0x1BFC JUMP JUMPDEST PUSH1 0x40 MLOAD PUSH3 0x461BCD PUSH1 0xE5 SHL DUP2 MSTORE PUSH1 0x20 PUSH1 0x4 DUP3 ADD MSTORE PUSH1 0x14 PUSH1 0x24 DUP3 ADD MSTORE PUSH20 0x496E73756666696369656E742062616C616E6365 PUSH1 0x60 SHL PUSH1 0x44 DUP3 ADD MSTORE PUSH1 0x64 SWAP1 REVERT JUMPDEST POP CALLVALUE PUSH2 0x2EB JUMPI PUSH1 0x40 CALLDATASIZE PUSH1 0x3 NOT ADD SLT PUSH2 0x2EB JUMPI PUSH2 0x160 SWAP1 PUSH2 0x1B98 PUSH1 0x4 CALLDATALOAD SWAP2 PUSH2 0x1CB4 PUSH2 0x254E JUMP JUMPDEST SWAP3 PUSH1 0x60 PUSH1 0x40 MLOAD PUSH2 0x1CC4 DUP3 DUP3 PUSH2 0x24B4 JUMP JUMPDEST CALLDATASIZE SWAP1 CALLDATACOPY DUP1 ISZERO ISZERO DUP1 PUSH2 0x1DBF JUMPI JUMPDEST PUSH2 0x1CD9 SWAP1 PUSH2 0x26EF JUMP JUMPDEST DUP2 MSTORE PUSH1 0x2 PUSH1 0x20 MSTORE PUSH1 0x40 DUP2 KECCAK256 SWAP3 DUP2 SWAP1 PUSH1 0x40 MLOAD PUSH2 0x1CF3 DUP2 PUSH2 0x2468 JUMP JUMPDEST DUP4 DUP2 MSTORE PUSH1 0x20 DUP2 ADD DUP5 SWAP1 MSTORE PUSH1 0x40 DUP2 ADD DUP5 SWAP1 MSTORE SWAP3 PUSH1 0x1 PUSH1 0x1 PUSH1 0xA0 SHL SUB DUP3 AND PUSH2 0x1D7D JUMPI JUMPDEST POP POP PUSH1 0xFF PUSH1 0x1 DUP6 ADD SLOAD AND SWAP4 PUSH1 0x2 DUP2 ADD SLOAD SWAP1 PUSH1 0x3 DUP2 ADD SLOAD PUSH1 0x4 DUP3 ADD SLOAD PUSH1 0x5 DUP4 ADD SLOAD SWAP2 PUSH1 0x7 PUSH1 0x6 DUP6 ADD SLOAD SWAP5 ADD SLOAD SWAP5 PUSH2 0x1D4D PUSH1 0x40 MLOAD DUP1 SWAP12 PUSH2 0x25A2 JUMP JUMPDEST PUSH1 0x20 DUP11 ADD MSTORE PUSH1 0x40 DUP10 ADD MSTORE PUSH1 0x60 DUP9 ADD MSTORE PUSH1 0x80 DUP8 ADD MSTORE PUSH1 0xA0 DUP7 ADD MSTORE PUSH1 0xC0 DUP6 ADD MSTORE ISZERO ISZERO PUSH1 0xE0 DUP5 ADD MSTORE PUSH2 0x100 DUP4 ADD SWAP1 PUSH2 0x257A JUMP JUMPDEST PUSH1 0x1 PUSH1 0x1 PUSH1 0xA0 SHL SUB SWAP1 SWAP2 AND DUP2 MSTORE PUSH1 0x8 DUP6 ADD PUSH1 0x20 MSTORE PUSH1 0x40 SWAP1 KECCAK256 PUSH1 0x5 DUP2 ADD SLOAD PUSH1 0xFF AND PUSH2 0x1DA8 JUMPI JUMPDEST DUP1 PUSH2 0x1D14 JUMP JUMPDEST SWAP2 POP POP PUSH2 0x1DB8 PUSH1 0x1 DUP1 SWAP3 ADD PUSH2 0x272D JUMP JUMPDEST SWAP1 CODESIZE PUSH2 0x1DA2 JUMP JUMPDEST POP PUSH1 0x1 SLOAD DUP2 LT PUSH2 0x1CD0 JUMP JUMPDEST POP CALLVALUE PUSH2 0x2EB JUMPI PUSH1 0x20 CALLDATASIZE PUSH1 0x3 NOT ADD SLT PUSH2 0x2EB JUMPI PUSH1 0x40 PUSH1 0x20 SWAP2 PUSH1 0x4 CALLDATALOAD DUP2 MSTORE PUSH1 0x6 DUP4 MSTORE KECCAK256 SLOAD PUSH1 0x40 MLOAD SWAP1 DUP2 MSTORE RETURN JUMPDEST POP CALLVALUE PUSH2 0x2EB JUMPI PUSH1 0x20 CALLDATASIZE PUSH1 0x3 NOT ADD SLT PUSH2 0x2EB JUMPI PUSH2 0x1E23 PUSH1 0x4 CALLDATALOAD DUP1 ISZERO ISZERO DUP1 PUSH2 0x1E46 JUMPI JUMPDEST PUSH2 0x1E1E SWAP1 PUSH2 0x26EF JUMP JUMPDEST PUSH2 0x2764 JUMP JUMPDEST SWAP1 PUSH2 0x1E42 PUSH1 0x40 MLOAD SWAP3 DUP4 SWAP3 ISZERO ISZERO DUP4 MSTORE PUSH1 0x40 PUSH1 0x20 DUP5 ADD MSTORE PUSH1 0x40 DUP4 ADD SWAP1 PUSH2 0x25C5 JUMP JUMPDEST SUB SWAP1 RETURN JUMPDEST POP PUSH1 0x1 SLOAD DUP2 LT PUSH2 0x1E15 JUMP JUMPDEST POP CALLVALUE PUSH2 0x2EB JUMPI PUSH1 0x40 CALLDATASIZE PUSH1 0x3 NOT ADD SLT PUSH2 0x2EB JUMPI PUSH1 0x4 CALLDATALOAD PUSH1 0x24 CALLDATALOAD SWAP1 PUSH1 0x1 PUSH1 0x1 PUSH1 0x40 SHL SUB DUP3 AND DUP1 SWAP3 SUB PUSH2 0xCCF JUMPI PUSH32 0x0 PUSH1 0x1 PUSH1 0x1 PUSH1 0xA0 SHL SUB AND CALLER SUB PUSH2 0x1F89 JUMPI DUP3 SWAP2 PUSH1 0x1 DUP1 SLOAD SWAP1 JUMPDEST DUP2 DUP2 LT PUSH2 0x1F48 JUMPI JUMPDEST POP POP DUP3 ISZERO PUSH2 0x1F03 JUMPI PUSH32 0x1FC4F2867633636E24F8E6A0625B2BFFFA6EDFD6EBAD5CC1671BC193E5548AA4 SWAP2 PUSH1 0x40 SWAP2 DUP5 DUP7 MSTORE PUSH1 0x7 PUSH1 0x20 MSTORE DUP2 DUP4 DUP8 KECCAK256 SSTORE DUP3 MLOAD SWAP2 DUP3 MSTORE PUSH1 0x20 DUP3 ADD MSTORE LOG2 DUP1 RETURN JUMPDEST PUSH1 0x40 MLOAD PUSH3 0x461BCD PUSH1 0xE5 SHL DUP2 MSTORE PUSH1 0x20 PUSH1 0x4 DUP3 ADD MSTORE PUSH1 0x1B PUSH1 0x24 DUP3 ADD MSTORE PUSH32 0x4E6F2067616D652077616974696E6720666F7220656E74726F70790000000000 PUSH1 0x44 DUP3 ADD MSTORE PUSH1 0x64 SWAP1 REVERT JUMPDEST DUP1 DUP7 MSTORE PUSH1 0x8 PUSH1 0x20 MSTORE PUSH1 0xFF PUSH1 0x40 DUP8 KECCAK256 SLOAD AND DUP1 PUSH2 0x1F75 JUMPI JUMPDEST PUSH2 0x1F6A JUMPI PUSH1 0x1 ADD PUSH2 0x1EB3 JUMP JUMPDEST SWAP4 POP CODESIZE SWAP1 POP DUP1 PUSH2 0x1EBB JUMP JUMPDEST POP DUP1 DUP7 MSTORE PUSH1 0x7 PUSH1 0x20 MSTORE PUSH1 0x40 DUP7 KECCAK256 SLOAD ISZERO PUSH2 0x1F5E JUMP JUMPDEST PUSH1 0x40 MLOAD PUSH3 0x461BCD PUSH1 0xE5 SHL DUP2 MSTORE PUSH1 0x20 PUSH1 0x4 DUP3 ADD MSTORE PUSH1 0x1B PUSH1 0x24 DUP3 ADD MSTORE PUSH32 0x4F6E6C792048797065726C616E6543656C6F2063616E2063616C6C0000000000 PUSH1 0x44 DUP3 ADD MSTORE PUSH1 0x64 SWAP1 REVERT JUMPDEST POP CALLVALUE PUSH2 0x2EB JUMPI PUSH1 0x20 CALLDATASIZE PUSH1 0x3 NOT ADD SLT PUSH2 0x2EB JUMPI PUSH1 0x4 CALLDATALOAD DUP1 ISZERO ISZERO DUP1 PUSH2 0x209C JUMPI JUMPDEST PUSH2 0x1FF5 SWAP1 PUSH2 0x26EF JUMP JUMPDEST DUP2 MSTORE PUSH1 0x2 PUSH1 0x20 MSTORE PUSH1 0x6 PUSH1 0x40 DUP3 KECCAK256 ADD PUSH1 0x40 MLOAD SWAP1 DUP2 PUSH1 0x20 DUP3 SLOAD SWAP2 DUP3 DUP2 MSTORE ADD SWAP1 DUP2 SWAP3 DUP6 MSTORE PUSH1 0x20 DUP6 KECCAK256 SWAP1 DUP6 JUMPDEST DUP2 DUP2 LT PUSH2 0x207D JUMPI POP POP POP DUP3 PUSH2 0x2033 SWAP2 SUB DUP4 PUSH2 0x24B4 JUMP JUMPDEST PUSH1 0x40 MLOAD SWAP3 DUP4 SWAP3 PUSH1 0x20 DUP5 ADD SWAP1 PUSH1 0x20 DUP6 MSTORE MLOAD DUP1 SWAP2 MSTORE PUSH1 0x40 DUP5 ADD SWAP3 SWAP2 JUMPDEST DUP2 DUP2 LT PUSH2 0x205B JUMPI POP POP POP SUB SWAP1 RETURN JUMPDEST DUP3 MLOAD PUSH1 0x1 PUSH1 0x1 PUSH1 0xA0 SHL SUB AND DUP5 MSTORE DUP6 SWAP5 POP PUSH1 0x20 SWAP4 DUP5 ADD SWAP4 SWAP1 SWAP3 ADD SWAP2 PUSH1 0x1 ADD PUSH2 0x204D JUMP JUMPDEST DUP3 SLOAD PUSH1 0x1 PUSH1 0x1 PUSH1 0xA0 SHL SUB AND DUP5 MSTORE PUSH1 0x20 SWAP1 SWAP4 ADD SWAP3 PUSH1 0x1 SWAP3 DUP4 ADD SWAP3 ADD PUSH2 0x201D JUMP JUMPDEST POP PUSH1 0x1 SLOAD DUP2 LT PUSH2 0x1FEC JUMP JUMPDEST POP CALLVALUE PUSH2 0x2EB JUMPI PUSH1 0x20 CALLDATASIZE PUSH1 0x3 NOT ADD SLT PUSH2 0x2EB JUMPI PUSH2 0x20C1 PUSH2 0x2650 JUMP JUMPDEST POP PUSH1 0x40 MLOAD PUSH4 0x96834AD3 PUSH1 0xE0 SHL DUP2 MSTORE PUSH1 0x4 DUP1 CALLDATALOAD SWAP1 DUP3 ADD MSTORE PUSH1 0x80 DUP2 PUSH1 0x24 DUP2 PUSH32 0x0 PUSH1 0x1 PUSH1 0x1 PUSH1 0xA0 SHL SUB AND GAS STATICCALL SWAP1 DUP2 ISZERO PUSH2 0x13AF JUMPI PUSH1 0x80 SWAP3 SWAP2 PUSH2 0x2154 JUMPI JUMPDEST POP PUSH2 0x1B98 PUSH1 0x40 MLOAD DUP1 SWAP3 PUSH1 0x60 DUP1 SWAP2 DUP1 MLOAD PUSH1 0x7 SIGNEXTEND DUP5 MSTORE PUSH1 0x1 PUSH1 0x1 PUSH1 0x40 SHL SUB PUSH1 0x20 DUP3 ADD MLOAD AND PUSH1 0x20 DUP6 ADD MSTORE PUSH1 0x40 DUP2 ADD MLOAD PUSH1 0x3 SIGNEXTEND PUSH1 0x40 DUP6 ADD MSTORE ADD MLOAD SWAP2 ADD MSTORE JUMP JUMPDEST PUSH2 0x2174 SWAP2 POP DUP3 RETURNDATASIZE DUP5 GT PUSH2 0x217A JUMPI JUMPDEST PUSH2 0x216C DUP2 DUP4 PUSH2 0x24B4 JUMP JUMPDEST DUP2 ADD SWAP1 PUSH2 0x2689 JUMP JUMPDEST CODESIZE PUSH2 0x2119 JUMP JUMPDEST POP RETURNDATASIZE PUSH2 0x2162 JUMP JUMPDEST POP CALLVALUE PUSH2 0x2EB JUMPI DUP1 PUSH1 0x3 NOT CALLDATASIZE ADD SLT PUSH2 0x2EB JUMPI PUSH1 0x20 PUSH1 0x40 MLOAD PUSH1 0x14 DUP2 MSTORE RETURN JUMPDEST POP CALLVALUE PUSH2 0x2EB JUMPI PUSH1 0x20 CALLDATASIZE PUSH1 0x3 NOT ADD SLT PUSH2 0x2EB JUMPI PUSH1 0x40 PUSH1 0xE0 SWAP2 PUSH1 0x4 CALLDATALOAD DUP2 MSTORE PUSH1 0x2 PUSH1 0x20 MSTORE KECCAK256 DUP1 SLOAD SWAP1 PUSH1 0xFF PUSH1 0x1 DUP3 ADD SLOAD AND SWAP1 PUSH1 0x2 DUP2 ADD SLOAD PUSH1 0x3 DUP3 ADD SLOAD PUSH1 0x4 DUP4 ADD SLOAD SWAP2 PUSH2 0x21FC PUSH1 0xFF PUSH1 0xA PUSH1 0x5 DUP8 ADD SLOAD SWAP7 ADD SLOAD AND SWAP6 PUSH1 0x40 MLOAD SWAP8 DUP9 MSTORE PUSH1 0x20 DUP9 ADD SWAP1 PUSH2 0x25A2 JUMP JUMPDEST PUSH1 0x40 DUP7 ADD MSTORE PUSH1 0x60 DUP6 ADD MSTORE PUSH1 0x80 DUP5 ADD MSTORE PUSH1 0xA0 DUP4 ADD MSTORE ISZERO ISZERO PUSH1 0xC0 DUP3 ADD MSTORE RETURN JUMPDEST POP CALLVALUE PUSH2 0x2EB JUMPI PUSH1 0x40 CALLDATASIZE PUSH1 0x3 NOT ADD SLT PUSH2 0x2EB JUMPI PUSH1 0x40 PUSH1 0xA0 SWAP2 PUSH1 0x4 CALLDATALOAD PUSH2 0x223B PUSH2 0x254E JUMP JUMPDEST SWAP1 PUSH1 0x60 DUP5 MLOAD PUSH2 0x224A DUP3 DUP3 PUSH2 0x24B4 JUMP JUMPDEST CALLDATASIZE SWAP1 CALLDATACOPY DUP1 ISZERO ISZERO DUP1 PUSH2 0x22B0 JUMPI JUMPDEST PUSH2 0x225F SWAP1 PUSH2 0x26EF JUMP JUMPDEST DUP3 MSTORE PUSH1 0x2 PUSH1 0x20 MSTORE PUSH1 0x8 DUP4 DUP4 KECCAK256 ADD SWAP1 PUSH1 0x1 DUP1 DUP7 SHL SUB AND DUP3 MSTORE PUSH1 0x20 MSTORE KECCAK256 PUSH1 0x4 DUP2 ADD SLOAD SWAP1 PUSH2 0x2294 PUSH1 0x1 PUSH1 0xFF PUSH1 0x5 DUP5 ADD SLOAD AND SWAP3 ADD PUSH2 0x272D JUMP JUMPDEST SWAP2 PUSH2 0x22A2 PUSH1 0x40 MLOAD DUP1 SWAP5 PUSH2 0x257A JUMP JUMPDEST PUSH1 0x60 DUP4 ADD MSTORE ISZERO ISZERO PUSH1 0x80 DUP3 ADD MSTORE RETURN JUMPDEST POP PUSH1 0x1 SLOAD DUP2 LT PUSH2 0x2256 JUMP JUMPDEST POP CALLVALUE PUSH2 0x2EB JUMPI PUSH1 0x20 CALLDATASIZE PUSH1 0x3 NOT ADD SLT PUSH2 0x2EB JUMPI PUSH1 0x4 CALLDATALOAD PUSH1 0x1 PUSH1 0x1 PUSH1 0x40 SHL SUB DUP2 GT PUSH2 0x797 JUMPI PUSH2 0x22EC SWAP1 CALLDATASIZE SWAP1 PUSH1 0x4 ADD PUSH2 0x24EC JUMP JUMPDEST DUP1 MLOAD PUSH2 0x22F7 DUP2 PUSH2 0x24D5 JUMP JUMPDEST SWAP1 PUSH2 0x2305 PUSH1 0x40 MLOAD SWAP3 DUP4 PUSH2 0x24B4 JUMP JUMPDEST DUP1 DUP3 MSTORE PUSH2 0x2314 PUSH1 0x1F NOT SWAP2 PUSH2 0x24D5 JUMP JUMPDEST ADD DUP4 JUMPDEST DUP2 DUP2 LT PUSH2 0x2451 JUMPI POP POP PUSH32 0x0 PUSH1 0x1 PUSH1 0x1 PUSH1 0xA0 SHL SUB AND DUP4 JUMPDEST DUP4 MLOAD DUP2 LT ISZERO PUSH2 0x23D3 JUMPI PUSH2 0x235F DUP2 DUP6 PUSH2 0x2675 JUMP JUMPDEST MLOAD SWAP1 PUSH1 0x40 MLOAD SWAP2 PUSH4 0x96834AD3 PUSH1 0xE0 SHL DUP4 MSTORE PUSH1 0x4 DUP4 ADD MSTORE PUSH1 0x80 DUP3 PUSH1 0x24 DUP2 DUP7 GAS STATICCALL DUP1 ISZERO PUSH2 0x23C8 JUMPI PUSH1 0x1 SWAP3 DUP8 SWAP2 PUSH2 0x23AA JUMPI JUMPDEST POP PUSH2 0x2398 DUP3 DUP7 PUSH2 0x2675 JUMP JUMPDEST MSTORE PUSH2 0x23A3 DUP2 DUP6 PUSH2 0x2675 JUMP JUMPDEST POP ADD PUSH2 0x234C JUMP JUMPDEST PUSH2 0x23C2 SWAP2 POP PUSH1 0x80 RETURNDATASIZE DUP2 GT PUSH2 0x217A JUMPI PUSH2 0x216C DUP2 DUP4 PUSH2 0x24B4 JUMP JUMPDEST CODESIZE PUSH2 0x238D JUMP JUMPDEST PUSH1 0x40 MLOAD RETURNDATASIZE DUP9 DUP3 RETURNDATACOPY RETURNDATASIZE SWAP1 REVERT JUMPDEST DUP3 DUP6 PUSH1 0x40 MLOAD SWAP2 DUP3 SWAP2 PUSH1 0x20 DUP4 ADD PUSH1 0x20 DUP5 MSTORE DUP3 MLOAD DUP1 SWAP2 MSTORE PUSH1 0x20 PUSH1 0x40 DUP6 ADD SWAP4 ADD SWAP2 JUMPDEST DUP2 DUP2 LT PUSH2 0x2400 JUMPI POP POP POP SUB SWAP1 RETURN JUMPDEST SWAP2 SWAP4 POP SWAP2 PUSH1 0x20 PUSH1 0x80 DUP3 PUSH2 0x2443 PUSH1 0x1 SWAP5 DUP9 MLOAD PUSH1 0x60 DUP1 SWAP2 DUP1 MLOAD PUSH1 0x7 SIGNEXTEND DUP5 MSTORE PUSH1 0x1 PUSH1 0x1 PUSH1 0x40 SHL SUB PUSH1 0x20 DUP3 ADD MLOAD AND PUSH1 0x20 DUP6 ADD MSTORE PUSH1 0x40 DUP2 ADD MLOAD PUSH1 0x3 SIGNEXTEND PUSH1 0x40 DUP6 ADD MSTORE ADD MLOAD SWAP2 ADD MSTORE JUMP JUMPDEST ADD SWAP5 ADD SWAP2 ADD SWAP2 DUP5 SWAP4 SWAP3 PUSH2 0x23F2 JUMP JUMPDEST PUSH1 0x20 SWAP1 PUSH2 0x245C PUSH2 0x2650 JUMP JUMPDEST DUP3 DUP3 DUP7 ADD ADD MSTORE ADD PUSH2 0x2317 JUMP JUMPDEST PUSH1 0x60 DUP2 ADD SWAP1 DUP2 LT PUSH1 0x1 PUSH1 0x1 PUSH1 0x40 SHL SUB DUP3 GT OR PUSH2 0x2483 JUMPI PUSH1 0x40 MSTORE JUMP JUMPDEST PUSH4 0x4E487B71 PUSH1 0xE0 SHL PUSH1 0x0 MSTORE PUSH1 0x41 PUSH1 0x4 MSTORE PUSH1 0x24 PUSH1 0x0 REVERT JUMPDEST PUSH1 0x80 DUP2 ADD SWAP1 DUP2 LT PUSH1 0x1 PUSH1 0x1 PUSH1 0x40 SHL SUB DUP3 GT OR PUSH2 0x2483 JUMPI PUSH1 0x40 MSTORE JUMP JUMPDEST SWAP1 PUSH1 0x1F DUP1 NOT SWAP2 ADD AND DUP2 ADD SWAP1 DUP2 LT PUSH1 0x1 PUSH1 0x1 PUSH1 0x40 SHL SUB DUP3 GT OR PUSH2 0x2483 JUMPI PUSH1 0x40 MSTORE JUMP JUMPDEST PUSH1 0x1 PUSH1 0x1 PUSH1 0x40 SHL SUB DUP2 GT PUSH2 0x2483 JUMPI PUSH1 0x5 SHL PUSH1 0x20 ADD SWAP1 JUMP JUMPDEST SWAP1 DUP1 PUSH1 0x1F DUP4 ADD SLT ISZERO PUSH2 0x2549 JUMPI DUP2 CALLDATALOAD PUSH2 0x2503 DUP2 PUSH2 0x24D5 JUMP JUMPDEST SWAP3 PUSH2 0x2511 PUSH1 0x40 MLOAD SWAP5 DUP6 PUSH2 0x24B4 JUMP JUMPDEST DUP2 DUP5 MSTORE PUSH1 0x20 DUP1 DUP6 ADD SWAP3 PUSH1 0x5 SHL DUP3 ADD ADD SWAP3 DUP4 GT PUSH2 0x2549 JUMPI PUSH1 0x20 ADD SWAP1 JUMPDEST DUP3 DUP3 LT PUSH2 0x2539 JUMPI POP POP POP SWAP1 JUMP JUMPDEST DUP2 CALLDATALOAD DUP2 MSTORE PUSH1 0x20 SWAP2 DUP3 ADD SWAP2 ADD PUSH2 0x252C JUMP JUMPDEST PUSH1 0x0 DUP1 REVERT JUMPDEST PUSH1 0x24 CALLDATALOAD SWAP1 PUSH1 0x1 PUSH1 0x1 PUSH1 0xA0 SHL SUB DUP3 AND DUP3 SUB PUSH2 0x2549 JUMPI JUMP JUMPDEST PUSH1 0x4 CALLDATALOAD SWAP1 PUSH1 0x1 PUSH1 0x1 PUSH1 0xA0 SHL SUB DUP3 AND DUP3 SUB PUSH2 0x2549 JUMPI JUMP JUMPDEST SWAP1 PUSH1 0x0 SWAP1 JUMPDEST PUSH1 0x3 DUP3 LT PUSH2 0x258C JUMPI POP POP POP JUMP JUMPDEST PUSH1 0x20 DUP1 PUSH1 0x1 SWAP3 DUP6 MLOAD DUP2 MSTORE ADD SWAP4 ADD SWAP2 ADD SWAP1 SWAP2 PUSH2 0x257F JUMP JUMPDEST SWAP1 PUSH1 0x5 DUP3 LT ISZERO PUSH2 0x25AF JUMPI MSTORE JUMP JUMPDEST PUSH4 0x4E487B71 PUSH1 0xE0 SHL PUSH1 0x0 MSTORE PUSH1 0x21 PUSH1 0x4 MSTORE PUSH1 0x24 PUSH1 0x0 REVERT JUMPDEST SWAP2 SWAP1 DUP3 MLOAD SWAP3 DUP4 DUP3 MSTORE PUSH1 0x0 JUMPDEST DUP5 DUP2 LT PUSH2 0x25F1 JUMPI POP POP DUP3 PUSH1 0x0 PUSH1 0x20 DUP1 SWAP5 SWAP6 DUP5 ADD ADD MSTORE PUSH1 0x1F DUP1 NOT SWAP2 ADD AND ADD ADD SWAP1 JUMP JUMPDEST DUP1 PUSH1 0x20 DUP1 SWAP3 DUP5 ADD ADD MLOAD DUP3 DUP3 DUP7 ADD ADD MSTORE ADD PUSH2 0x25D0 JUMP JUMPDEST CALLVALUE PUSH2 0x2549 JUMPI PUSH1 0x0 CALLDATASIZE PUSH1 0x3 NOT ADD SLT PUSH2 0x2549 JUMPI PUSH1 0x20 PUSH1 0x40 MLOAD PUSH1 0x3C DUP2 MSTORE RETURN JUMPDEST DUP1 SLOAD DUP3 LT ISZERO PUSH2 0x263A JUMPI PUSH1 0x0 MSTORE PUSH1 0x20 PUSH1 0x0 KECCAK256 ADD SWAP1 PUSH1 0x0 SWAP1 JUMP JUMPDEST PUSH4 0x4E487B71 PUSH1 0xE0 SHL PUSH1 0x0 MSTORE PUSH1 0x32 PUSH1 0x4 MSTORE PUSH1 0x24 PUSH1 0x0 REVERT JUMPDEST PUSH1 0x40 MLOAD SWAP1 PUSH2 0x265D DUP3 PUSH2 0x2499 JUMP JUMPDEST PUSH1 0x0 PUSH1 0x60 DUP4 DUP3 DUP2 MSTORE DUP3 PUSH1 0x20 DUP3 ADD MSTORE DUP3 PUSH1 0x40 DUP3 ADD MSTORE ADD MSTORE JUMP JUMPDEST DUP1 MLOAD DUP3 LT ISZERO PUSH2 0x263A JUMPI PUSH1 0x20 SWAP2 PUSH1 0x5 SHL ADD ADD SWAP1 JUMP JUMPDEST SWAP1 DUP2 PUSH1 0x80 SWAP2 SUB SLT PUSH2 0x2549 JUMPI PUSH1 0x40 MLOAD SWAP1 PUSH1 0x0 PUSH2 0x26A3 DUP4 PUSH2 0x2499 JUMP JUMPDEST DUP2 MLOAD DUP1 PUSH1 0x7 SIGNEXTEND DUP2 SUB PUSH2 0x797 JUMPI DUP4 MSTORE PUSH1 0x20 DUP3 ADD MLOAD PUSH1 0x1 PUSH1 0x1 PUSH1 0x40 SHL SUB DUP2 AND DUP2 SUB PUSH2 0x797 JUMPI PUSH1 0x20 DUP5 ADD MSTORE PUSH1 0x40 DUP3 ADD MLOAD SWAP1 DUP2 PUSH1 0x3 SIGNEXTEND DUP3 SUB PUSH2 0x2EB JUMPI POP SWAP1 PUSH1 0x60 SWAP2 PUSH1 0x40 DUP5 ADD MSTORE ADD MLOAD PUSH1 0x60 DUP3 ADD MSTORE SWAP1 JUMP JUMPDEST ISZERO PUSH2 0x26F6 JUMPI JUMP JUMPDEST PUSH1 0x40 MLOAD PUSH3 0x461BCD PUSH1 0xE5 SHL DUP2 MSTORE PUSH1 0x20 PUSH1 0x4 DUP3 ADD MSTORE PUSH1 0xF PUSH1 0x24 DUP3 ADD MSTORE PUSH15 0x125B9D985B1A590819D85B59481251 PUSH1 0x8A SHL PUSH1 0x44 DUP3 ADD MSTORE PUSH1 0x64 SWAP1 REVERT JUMPDEST PUSH1 0x40 MLOAD SWAP2 SWAP1 PUSH1 0x0 DUP4 JUMPDEST PUSH1 0x3 DUP3 LT PUSH2 0x274E JUMPI POP POP POP PUSH2 0x274C PUSH1 0x60 DUP4 PUSH2 0x24B4 JUMP JUMPDEST JUMP JUMPDEST PUSH1 0x1 PUSH1 0x20 DUP2 SWAP3 DUP6 SLOAD DUP2 MSTORE ADD SWAP4 ADD SWAP2 ADD SWAP1 SWAP2 PUSH2 0x2736 JUMP JUMPDEST PUSH1 0x0 MSTORE PUSH1 0x2 PUSH1 0x20 MSTORE PUSH1 0x40 PUSH1 0x0 KECCAK256 PUSH1 0xFF PUSH1 0x1 DUP3 ADD SLOAD AND PUSH1 0x5 DUP2 LT ISZERO PUSH2 0x25AF JUMPI PUSH2 0x27E6 JUMPI PUSH1 0x3 ADD SLOAD TIMESTAMP LT PUSH2 0x27A8 JUMPI PUSH1 0x1 SWAP1 PUSH1 0x40 MLOAD PUSH2 0x27A1 PUSH1 0x20 DUP3 PUSH2 0x24B4 JUMP JUMPDEST PUSH1 0x0 DUP2 MSTORE SWAP1 JUMP JUMPDEST PUSH1 0x0 SWAP1 PUSH1 0x40 MLOAD PUSH2 0x27B9 PUSH1 0x40 DUP3 PUSH2 0x24B4 JUMP JUMPDEST PUSH1 0x1A DUP2 MSTORE PUSH32 0x4C6F62627920646561646C696E65206E6F742072656163686564000000000000 PUSH1 0x20 DUP3 ADD MSTORE SWAP1 JUMP JUMPDEST POP PUSH1 0x0 SWAP1 PUSH1 0x40 MLOAD PUSH2 0x27F8 PUSH1 0x40 DUP3 PUSH2 0x24B4 JUMP JUMPDEST PUSH1 0x1A DUP2 MSTORE PUSH32 0x47616D65206973206E6F7420696E204C4F424259207374617465000000000000 PUSH1 0x20 DUP3 ADD MSTORE SWAP1 JUMP JUMPDEST PUSH1 0x0 MSTORE PUSH1 0x2 PUSH1 0x20 MSTORE PUSH1 0x40 PUSH1 0x0 KECCAK256 PUSH1 0xFF PUSH1 0x1 DUP3 ADD SLOAD AND PUSH1 0x5 DUP2 LT ISZERO PUSH2 0x25AF JUMPI PUSH1 0x4 EQ PUSH2 0x2883 JUMPI PUSH1 0x3 DUP2 ADD SLOAD TIMESTAMP LT ISZERO PUSH2 0x285C JUMPI POP PUSH1 0x0 SWAP1 JUMP JUMPDEST PUSH1 0x4 DUP2 ADD SLOAD TIMESTAMP LT ISZERO PUSH2 0x286E JUMPI POP PUSH1 0x2 SWAP1 JUMP JUMPDEST PUSH1 0x5 ADD SLOAD TIMESTAMP LT ISZERO PUSH2 0x287E JUMPI PUSH1 0x3 SWAP1 JUMP JUMPDEST PUSH1 0x3 SWAP1 JUMP JUMPDEST POP PUSH1 0x4 SWAP1 JUMP JUMPDEST ISZERO PUSH2 0x2890 JUMPI JUMP JUMPDEST PUSH1 0x40 MLOAD PUSH3 0x461BCD PUSH1 0xE5 SHL DUP2 MSTORE PUSH1 0x20 PUSH1 0x4 DUP3 ADD MSTORE PUSH1 0x19 PUSH1 0x24 DUP3 ADD MSTORE PUSH32 0x416C726561647920696E20616E206163746976652067616D6500000000000000 PUSH1 0x44 DUP3 ADD MSTORE PUSH1 0x64 SWAP1 REVERT JUMPDEST PUSH1 0x0 NOT DUP2 EQ PUSH2 0x28E4 JUMPI PUSH1 0x1 ADD SWAP1 JUMP JUMPDEST PUSH4 0x4E487B71 PUSH1 0xE0 SHL PUSH1 0x0 MSTORE PUSH1 0x11 PUSH1 0x4 MSTORE PUSH1 0x24 PUSH1 0x0 REVERT JUMPDEST SWAP2 SWAP1 DUP3 ADD DUP1 SWAP3 GT PUSH2 0x28E4 JUMPI JUMP JUMPDEST DUP1 SLOAD PUSH1 0x1 PUSH1 0x40 SHL DUP2 LT ISZERO PUSH2 0x2483 JUMPI PUSH2 0x2924 SWAP2 PUSH1 0x1 DUP3 ADD DUP2 SSTORE PUSH2 0x2622 JUMP JUMPDEST DUP2 SLOAD PUSH1 0x1 PUSH1 0x1 PUSH1 0xA0 SHL SUB SWAP4 DUP5 AND PUSH1 0x3 SWAP3 SWAP1 SWAP3 SHL SWAP2 DUP3 SHL SWAP4 SWAP1 SWAP2 SHL NOT AND SWAP2 SWAP1 SWAP2 OR SWAP1 SSTORE JUMP JUMPDEST SWAP1 PUSH1 0x20 DUP3 SLOAD SWAP2 DUP3 DUP2 MSTORE ADD SWAP2 PUSH1 0x0 MSTORE PUSH1 0x20 PUSH1 0x0 KECCAK256 SWAP1 PUSH1 0x0 JUMPDEST DUP2 DUP2 LT PUSH2 0x296C JUMPI POP POP POP SWAP1 JUMP JUMPDEST DUP3 SLOAD DUP5 MSTORE PUSH1 0x20 SWAP1 SWAP4 ADD SWAP3 PUSH1 0x1 SWAP3 DUP4 ADD SWAP3 ADD PUSH2 0x295F JUMP JUMPDEST ISZERO PUSH2 0x2989 JUMPI JUMP JUMPDEST PUSH1 0x40 MLOAD PUSH3 0x461BCD PUSH1 0xE5 SHL DUP2 MSTORE PUSH1 0x20 PUSH1 0x4 DUP3 ADD MSTORE PUSH1 0x13 PUSH1 0x24 DUP3 ADD MSTORE PUSH19 0x496E76616C69642067616D6520737461747573 PUSH1 0x68 SHL PUSH1 0x44 DUP3 ADD MSTORE PUSH1 0x64 SWAP1 REVERT JUMPDEST PUSH1 0x1 PUSH1 0x1 PUSH1 0xA0 SHL SUB AND PUSH1 0x0 SWAP1 DUP2 MSTORE PUSH1 0x5 PUSH1 0x20 MSTORE PUSH1 0x40 SWAP1 KECCAK256 SLOAD DUP1 PUSH2 0x29E8 JUMPI JUMPDEST POP PUSH1 0x0 SWAP1 JUMP JUMPDEST DUP1 PUSH1 0x0 MSTORE PUSH1 0x2 PUSH1 0x20 MSTORE PUSH1 0xFF PUSH1 0x1 PUSH1 0x40 PUSH1 0x0 KECCAK256 ADD SLOAD AND PUSH1 0x5 DUP2 LT ISZERO PUSH2 0x25AF JUMPI PUSH1 0x4 EQ PUSH2 0x29E2 JUMPI SWAP1 JUMP JUMPDEST DUP1 ISZERO DUP1 ISZERO PUSH2 0x2BA6 JUMPI JUMPDEST PUSH2 0x2B6D JUMPI PUSH1 0x0 MSTORE PUSH1 0x2 PUSH1 0x20 MSTORE PUSH1 0x40 PUSH1 0x0 KECCAK256 PUSH1 0x5 PUSH1 0xFF PUSH1 0x1 DUP4 ADD SLOAD AND SWAP2 ADD SLOAD DUP1 TIMESTAMP SWAP1 PUSH1 0x5 DUP5 LT ISZERO PUSH2 0x25AF JUMPI PUSH1 0x3 DUP5 SUB PUSH2 0x2B29 JUMPI DUP1 DUP3 LT PUSH2 0x2AE7 JUMPI ISZERO PUSH2 0x2A72 JUMPI PUSH1 0x1 SWAP4 PUSH1 0x40 MLOAD PUSH2 0x2A68 PUSH1 0x20 DUP3 PUSH2 0x24B4 JUMP JUMPDEST PUSH1 0x0 DUP2 MSTORE SWAP4 SWAP3 SWAP2 SWAP1 JUMP JUMPDEST PUSH1 0x0 SWAP4 PUSH1 0x40 MLOAD PUSH2 0x2A83 PUSH1 0x80 DUP3 PUSH2 0x24B4 JUMP JUMPDEST PUSH1 0x45 DUP2 MSTORE PUSH32 0x5265736F6C7574696F6E20646561646C696E65206E6F7420736574202867616D PUSH1 0x20 DUP3 ADD MSTORE PUSH32 0x65206D6179206E6F742068617665207472616E736974696F6E65642070726F70 PUSH1 0x40 DUP3 ADD MSTORE PUSH5 0x65726C7929 PUSH1 0xD8 SHL PUSH1 0x60 DUP3 ADD MSTORE SWAP4 SWAP3 SWAP2 SWAP1 JUMP JUMPDEST POP PUSH1 0x0 SWAP4 PUSH1 0x40 MLOAD PUSH2 0x2AF9 PUSH1 0x40 DUP3 PUSH2 0x24B4 JUMP JUMPDEST PUSH1 0x1F DUP2 MSTORE PUSH32 0x5265736F6C7574696F6E20646561646C696E65206E6F74207265616368656400 PUSH1 0x20 DUP3 ADD MSTORE SWAP4 SWAP3 SWAP2 SWAP1 JUMP JUMPDEST POP POP PUSH1 0x0 SWAP3 PUSH1 0x40 MLOAD PUSH2 0x2B3C PUSH1 0x40 DUP3 PUSH2 0x24B4 JUMP JUMPDEST PUSH1 0x20 DUP2 MSTORE PUSH32 0x47616D65206973206E6F7420696E205245534F4C5554494F4E20737461747573 PUSH1 0x20 DUP3 ADD MSTORE SWAP3 SWAP2 SWAP1 TIMESTAMP SWAP1 JUMP JUMPDEST POP PUSH1 0x0 SWAP1 PUSH1 0x40 MLOAD PUSH2 0x2B7F PUSH1 0x40 DUP3 PUSH2 0x24B4 JUMP JUMPDEST PUSH1 0xF DUP2 MSTORE PUSH15 0x125B9D985B1A590819D85B59481251 PUSH1 0x8A SHL PUSH1 0x20 DUP3 ADD MSTORE SWAP1 PUSH1 0x0 SWAP1 PUSH1 0x0 SWAP1 TIMESTAMP SWAP1 JUMP JUMPDEST POP PUSH1 0x1 SLOAD DUP2 LT ISZERO PUSH2 0x2A19 JUMP JUMPDEST ISZERO PUSH2 0x2BB9 JUMPI JUMP JUMPDEST PUSH1 0x40 MLOAD PUSH3 0x461BCD PUSH1 0xE5 SHL DUP2 MSTORE PUSH1 0x20 PUSH1 0x4 DUP3 ADD MSTORE PUSH1 0x19 PUSH1 0x24 DUP3 ADD MSTORE PUSH32 0x4C6F626279207068617365206E6F7420656E6465642079657400000000000000 PUSH1 0x44 DUP3 ADD MSTORE PUSH1 0x64 SWAP1 REVERT JUMPDEST ISZERO PUSH2 0x2C05 JUMPI JUMP JUMPDEST PUSH1 0x40 MLOAD PUSH3 0x461BCD PUSH1 0xE5 SHL DUP2 MSTORE PUSH1 0x20 PUSH1 0x4 DUP3 ADD MSTORE PUSH1 0x17 PUSH1 0x24 DUP3 ADD MSTORE PUSH32 0x436172647320616C72656164792067656E657261746564000000000000000000 PUSH1 0x44 DUP3 ADD MSTORE PUSH1 0x64 SWAP1 REVERT JUMPDEST PUSH1 0x0 SLOAD PUSH1 0x1 PUSH1 0x1 PUSH1 0xA0 SHL SUB AND CALLER SUB PUSH2 0x2C5E JUMPI JUMP JUMPDEST PUSH4 0x118CDAA7 PUSH1 0xE0 SHL PUSH1 0x0 MSTORE CALLER PUSH1 0x4 MSTORE PUSH1 0x24 PUSH1 0x0 REVERT JUMPDEST DUP1 SLOAD PUSH1 0x1 PUSH1 0x40 SHL DUP2 LT ISZERO PUSH2 0x2483 JUMPI PUSH2 0x2C90 SWAP2 PUSH1 0x1 DUP3 ADD DUP2 SSTORE PUSH2 0x2622 JUMP JUMPDEST DUP2 SWAP3 SWAP2 SLOAD SWAP1 PUSH1 0x3 SHL SWAP2 DUP3 SHL SWAP2 PUSH1 0x0 NOT SWAP1 SHL NOT AND OR SWAP1 SSTORE JUMP JUMPDEST DUP1 PUSH1 0x0 MSTORE PUSH1 0x2 PUSH1 0x20 MSTORE PUSH1 0x40 PUSH1 0x0 KECCAK256 SWAP1 PUSH1 0x7 PUSH1 0x0 SWAP3 ADD SWAP1 CALLER PUSH1 0x60 SHL SWAP3 JUMPDEST PUSH1 0xA DUP2 LT PUSH2 0x2CD2 JUMPI POP POP POP POP JUMP JUMPDEST PUSH1 0x1 SWAP1 PUSH2 0x2D17 PUSH2 0x2710 PUSH1 0x40 MLOAD PUSH1 0x20 DUP2 ADD SWAP1 TIMESTAMP DUP3 MSTORE PREVRANDAO PUSH1 0x40 DUP3 ADD MSTORE DUP7 PUSH1 0x60 DUP3 ADD MSTORE DUP5 PUSH1 0x80 DUP3 ADD MSTORE DUP9 PUSH1 0xA0 DUP3 ADD MSTORE PUSH1 0x94 DUP2 MSTORE PUSH2 0x2D0D PUSH1 0xB4 DUP3 PUSH2 0x24B4 JUMP JUMPDEST MLOAD SWAP1 KECCAK256 MOD DUP6 PUSH2 0x2C73 JUMP JUMPDEST ADD PUSH2 0x2CC4 JUMP INVALID LOG2 PUSH5 0x6970667358 0x22 SLT KECCAK256 0xB4 0xFB 0x4E SWAP11 TSTORE 0x2E 0xB6 SWAP7 0xAB 0xD6 0x2C MSTORE8 PUSH23 0x4473BBBC47FC8B6C2B2B43BDAEE3F046FA4E7064736F6C PUSH4 0x4300081C STOP CALLER "
        },
        "methodIdentifiers": {
          "CHOICE_DURATION()": "e5c43ef1",
          "LOBBY_DURATION()": "5c5c8382",
          "MIN_PLAYERS()": "85f07bbe",
          "POINTS_MARKET_CAP_VOLUME()": "b0fd159f",
          "POINTS_PERCENTAGE_CHANGE()": "1226897a",
          "POINTS_PRICE_ABOVE_BELOW()": "bee4c6d3",
          "POINTS_PRICE_UP_DOWN()": "e7fad8af",
          "RESOLUTION_DURATION()": "7ca90e59",
          "assetPriceIds(uint256)": "3c8aec3f",
          "canEndGame(uint256)": "cb09d27f",
          "canStartGame(uint256)": "392b749c",
          "commitChoices(uint256,uint256[3])": "f79c913e",
          "createGame()": "7255d729",
          "emergencyWithdraw(uint256)": "5312ea8e",
          "endGame(uint256)": "d0399bb8",
          "entropyRequestCount()": "6bdca457",
          "entropyRequested(uint256)": "9c18c05d",
          "gameEntropy(uint256)": "bc6c97da",
          "games(uint256)": "117a5b90",
          "getCurrentPhase(uint256)": "572e85ec",
          "getEntropyRequestStatus(uint256)": "f84f0792",
          "getFeedPrice(bytes32)": "14527c58",
          "getFeedPrices(bytes32[])": "02653e9a",
          "getGameCards(uint256)": "860cbc77",
          "getGamePlayers(uint256)": "15a40f49",
          "getGameState(uint256)": "ffde0c74",
          "getGameStateWithPlayer(uint256,address)": "4b9a2a2c",
          "getNextGameId()": "ede8af01",
          "getPlayerActiveGame(address)": "ad7465d4",
          "getPlayerChoices(uint256,address)": "10c28d31",
          "getPlayerScore(address)": "e085c539",
          "getPredictionResult(uint256,uint256)": "7f57504f",
          "hasEntropy(uint256)": "de45e20a",
          "hyperlaneCelo()": "cf102413",
          "isContractActive()": "8f5949f9",
          "joinGame(uint256)": "efaa55a0",
          "leaderboard(uint256)": "bf368399",
          "owner()": "8da5cb5b",
          "playerActiveGame(address)": "863df0a1",
          "playerScores(address)": "62550ae1",
          "pyth()": "f98d06f0",
          "receiveEntropy(bytes32,uint64)": "19848fca",
          "renounceOwnership()": "715018a6",
          "setAssetPriceId(uint256,bytes32)": "53644f31",
          "startGame(uint256,bool)": "d7793c19",
          "transferOwnership(address)": "f2fde38b",
          "transitionToResolution(uint256)": "9a18e981",
          "updatePricesAndResolve(uint256,bytes[],bytes32[],uint256)": "a457d3d6"
        }
      }
    }
  }
}