{
  "contracts/HyperlaneReceiver.sol": {
    "HyperlaneReceiver": {
      "abi": [
        {
          "anonymous": false,
          "inputs": [
            {
              "indexed": true,
              "internalType": "uint32",
              "name": "origin",
              "type": "uint32"
            },
            {
              "indexed": true,
              "internalType": "address",
              "name": "sender",
              "type": "address"
            },
            {
              "indexed": false,
              "internalType": "bytes32",
              "name": "randomNumber",
              "type": "bytes32"
            },
            {
              "indexed": false,
              "internalType": "uint256",
              "name": "entropyLength",
              "type": "uint256"
            },
            {
              "indexed": false,
              "internalType": "uint64",
              "name": "sequenceNumber",
              "type": "uint64"
            },
            {
              "indexed": false,
              "internalType": "address",
              "name": "sourceContract",
              "type": "address"
            }
          ],
          "name": "ReceivedMessage",
          "type": "event"
        },
        {
          "inputs": [],
          "name": "MAILBOX_ADDRESS",
          "outputs": [
            {
              "internalType": "address",
              "name": "",
              "type": "address"
            }
          ],
          "stateMutability": "view",
          "type": "function"
        },
        {
          "inputs": [
            {
              "internalType": "uint32",
              "name": "_origin",
              "type": "uint32"
            },
            {
              "internalType": "bytes32",
              "name": "_sender",
              "type": "bytes32"
            },
            {
              "internalType": "bytes",
              "name": "_messageBody",
              "type": "bytes"
            }
          ],
          "name": "handle",
          "outputs": [],
          "stateMutability": "nonpayable",
          "type": "function"
        },
        {
          "inputs": [],
          "name": "lastEntropyData",
          "outputs": [
            {
              "internalType": "bytes32",
              "name": "randomNumber",
              "type": "bytes32"
            },
            {
              "internalType": "uint256",
              "name": "entropyLength",
              "type": "uint256"
            },
            {
              "internalType": "uint64",
              "name": "sequenceNumber",
              "type": "uint64"
            },
            {
              "internalType": "address",
              "name": "sourceContract",
              "type": "address"
            }
          ],
          "stateMutability": "view",
          "type": "function"
        },
        {
          "inputs": [],
          "name": "lastOriginDomain",
          "outputs": [
            {
              "internalType": "uint32",
              "name": "",
              "type": "uint32"
            }
          ],
          "stateMutability": "view",
          "type": "function"
        },
        {
          "inputs": [],
          "name": "lastSender",
          "outputs": [
            {
              "internalType": "address",
              "name": "",
              "type": "address"
            }
          ],
          "stateMutability": "view",
          "type": "function"
        }
      ],
      "evm": {
        "bytecode": {
          "linkReferences": {},
          "object": "6080604052348015600f57600080fd5b506104248061001f6000396000f3fe608060405234801561001057600080fd5b50600436106100575760003560e01c8063256fec881461005c57806356d5d4751461008c57806377cbf812146100a1578063b85ec505146100cd578063bf4d0407146100e8575b600080fd5b60035461006f906001600160a01b031681565b6040516001600160a01b0390911681526020015b60405180910390f35b61009f61009a3660046102ae565b61014f565b005b6003546100b890600160a01b900463ffffffff1681565b60405163ffffffff9091168152602001610083565b61006f7350da3b3907a08a24fe4999f4dcf337e8dc7954bb81565b60005460015460025461011692919067ffffffffffffffff811690600160401b90046001600160a01b031684565b6040516100839493929190938452602084019290925267ffffffffffffffff1660408301526001600160a01b0316606082015260800190565b337350da3b3907a08a24fe4999f4dcf337e8dc7954bb146101ae5760405162461bcd60e51b815260206004820152601560248201527413db9b1e4813585a5b189bde0818d85b8818d85b1b605a1b604482015260640160405180910390fd5b60006101bc8284018461035f565b905060008482516000819055602084015160018190556040808601516002805460608901516001600160a01b03808216600160401b026001600160e01b031990931667ffffffffffffffff861617929092179092556003805463ffffffff8f16600160a01b81026001600160c01b0319909216938a169384179190911790915593519697509592947fe2de4b179cc7479b5d54f063e3b85422742d6e987b7d6dcaa6949fde7140fe109461029e94919390929091938452602084019290925267ffffffffffffffff1660408301526001600160a01b0316606082015260800190565b60405180910390a3505050505050565b600080600080606085870312156102c457600080fd5b843563ffffffff811681146102d857600080fd5b935060208501359250604085013567ffffffffffffffff8111156102fb57600080fd5b8501601f8101871361030c57600080fd5b803567ffffffffffffffff81111561032357600080fd5b87602082840101111561033557600080fd5b949793965060200194505050565b80356001600160a01b038116811461035a57600080fd5b919050565b6000608082840312801561037257600080fd5b600090506040516080810181811067ffffffffffffffff821117156103a557634e487b7160e01b83526041600452602483fd5b6040908152843582526020808601359083015284013567ffffffffffffffff811681146103d0578283fd5b60408201526103e160608501610343565b606082015294935050505056fea2646970667358221220d49cf71c4b2346847a4ba6844f22a00281350cba4242da791b9b9c230a80bb0a64736f6c634300081c0033",
          "opcodes": "PUSH1 0x80 PUSH1 0x40 MSTORE CALLVALUE DUP1 ISZERO PUSH1 0xF JUMPI PUSH1 0x0 DUP1 REVERT JUMPDEST POP PUSH2 0x424 DUP1 PUSH2 0x1F PUSH1 0x0 CODECOPY PUSH1 0x0 RETURN INVALID PUSH1 0x80 PUSH1 0x40 MSTORE CALLVALUE DUP1 ISZERO PUSH2 0x10 JUMPI PUSH1 0x0 DUP1 REVERT JUMPDEST POP PUSH1 0x4 CALLDATASIZE LT PUSH2 0x57 JUMPI PUSH1 0x0 CALLDATALOAD PUSH1 0xE0 SHR DUP1 PUSH4 0x256FEC88 EQ PUSH2 0x5C JUMPI DUP1 PUSH4 0x56D5D475 EQ PUSH2 0x8C JUMPI DUP1 PUSH4 0x77CBF812 EQ PUSH2 0xA1 JUMPI DUP1 PUSH4 0xB85EC505 EQ PUSH2 0xCD JUMPI DUP1 PUSH4 0xBF4D0407 EQ PUSH2 0xE8 JUMPI JUMPDEST PUSH1 0x0 DUP1 REVERT JUMPDEST PUSH1 0x3 SLOAD PUSH2 0x6F SWAP1 PUSH1 0x1 PUSH1 0x1 PUSH1 0xA0 SHL SUB AND DUP2 JUMP JUMPDEST PUSH1 0x40 MLOAD PUSH1 0x1 PUSH1 0x1 PUSH1 0xA0 SHL SUB SWAP1 SWAP2 AND DUP2 MSTORE PUSH1 0x20 ADD JUMPDEST PUSH1 0x40 MLOAD DUP1 SWAP2 SUB SWAP1 RETURN JUMPDEST PUSH2 0x9F PUSH2 0x9A CALLDATASIZE PUSH1 0x4 PUSH2 0x2AE JUMP JUMPDEST PUSH2 0x14F JUMP JUMPDEST STOP JUMPDEST PUSH1 0x3 SLOAD PUSH2 0xB8 SWAP1 PUSH1 0x1 PUSH1 0xA0 SHL SWAP1 DIV PUSH4 0xFFFFFFFF AND DUP2 JUMP JUMPDEST PUSH1 0x40 MLOAD PUSH4 0xFFFFFFFF SWAP1 SWAP2 AND DUP2 MSTORE PUSH1 0x20 ADD PUSH2 0x83 JUMP JUMPDEST PUSH2 0x6F PUSH20 0x50DA3B3907A08A24FE4999F4DCF337E8DC7954BB DUP2 JUMP JUMPDEST PUSH1 0x0 SLOAD PUSH1 0x1 SLOAD PUSH1 0x2 SLOAD PUSH2 0x116 SWAP3 SWAP2 SWAP1 PUSH8 0xFFFFFFFFFFFFFFFF DUP2 AND SWAP1 PUSH1 0x1 PUSH1 0x40 SHL SWAP1 DIV PUSH1 0x1 PUSH1 0x1 PUSH1 0xA0 SHL SUB AND DUP5 JUMP JUMPDEST PUSH1 0x40 MLOAD PUSH2 0x83 SWAP5 SWAP4 SWAP3 SWAP2 SWAP1 SWAP4 DUP5 MSTORE PUSH1 0x20 DUP5 ADD SWAP3 SWAP1 SWAP3 MSTORE PUSH8 0xFFFFFFFFFFFFFFFF AND PUSH1 0x40 DUP4 ADD MSTORE PUSH1 0x1 PUSH1 0x1 PUSH1 0xA0 SHL SUB AND PUSH1 0x60 DUP3 ADD MSTORE PUSH1 0x80 ADD SWAP1 JUMP JUMPDEST CALLER PUSH20 0x50DA3B3907A08A24FE4999F4DCF337E8DC7954BB EQ PUSH2 0x1AE JUMPI PUSH1 0x40 MLOAD PUSH3 0x461BCD PUSH1 0xE5 SHL DUP2 MSTORE PUSH1 0x20 PUSH1 0x4 DUP3 ADD MSTORE PUSH1 0x15 PUSH1 0x24 DUP3 ADD MSTORE PUSH21 0x13DB9B1E4813585A5B189BDE0818D85B8818D85B1B PUSH1 0x5A SHL PUSH1 0x44 DUP3 ADD MSTORE PUSH1 0x64 ADD PUSH1 0x40 MLOAD DUP1 SWAP2 SUB SWAP1 REVERT JUMPDEST PUSH1 0x0 PUSH2 0x1BC DUP3 DUP5 ADD DUP5 PUSH2 0x35F JUMP JUMPDEST SWAP1 POP PUSH1 0x0 DUP5 DUP3 MLOAD PUSH1 0x0 DUP2 SWAP1 SSTORE PUSH1 0x20 DUP5 ADD MLOAD PUSH1 0x1 DUP2 SWAP1 SSTORE PUSH1 0x40 DUP1 DUP7 ADD MLOAD PUSH1 0x2 DUP1 SLOAD PUSH1 0x60 DUP10 ADD MLOAD PUSH1 0x1 PUSH1 0x1 PUSH1 0xA0 SHL SUB DUP1 DUP3 AND PUSH1 0x1 PUSH1 0x40 SHL MUL PUSH1 0x1 PUSH1 0x1 PUSH1 0xE0 SHL SUB NOT SWAP1 SWAP4 AND PUSH8 0xFFFFFFFFFFFFFFFF DUP7 AND OR SWAP3 SWAP1 SWAP3 OR SWAP1 SWAP3 SSTORE PUSH1 0x3 DUP1 SLOAD PUSH4 0xFFFFFFFF DUP16 AND PUSH1 0x1 PUSH1 0xA0 SHL DUP2 MUL PUSH1 0x1 PUSH1 0x1 PUSH1 0xC0 SHL SUB NOT SWAP1 SWAP3 AND SWAP4 DUP11 AND SWAP4 DUP5 OR SWAP2 SWAP1 SWAP2 OR SWAP1 SWAP2 SSTORE SWAP4 MLOAD SWAP7 SWAP8 POP SWAP6 SWAP3 SWAP5 PUSH32 0xE2DE4B179CC7479B5D54F063E3B85422742D6E987B7D6DCAA6949FDE7140FE10 SWAP5 PUSH2 0x29E SWAP5 SWAP2 SWAP4 SWAP1 SWAP3 SWAP1 SWAP2 SWAP4 DUP5 MSTORE PUSH1 0x20 DUP5 ADD SWAP3 SWAP1 SWAP3 MSTORE PUSH8 0xFFFFFFFFFFFFFFFF AND PUSH1 0x40 DUP4 ADD MSTORE PUSH1 0x1 PUSH1 0x1 PUSH1 0xA0 SHL SUB AND PUSH1 0x60 DUP3 ADD MSTORE PUSH1 0x80 ADD SWAP1 JUMP JUMPDEST PUSH1 0x40 MLOAD DUP1 SWAP2 SUB SWAP1 LOG3 POP POP POP POP POP POP JUMP JUMPDEST PUSH1 0x0 DUP1 PUSH1 0x0 DUP1 PUSH1 0x60 DUP6 DUP8 SUB SLT ISZERO PUSH2 0x2C4 JUMPI PUSH1 0x0 DUP1 REVERT JUMPDEST DUP5 CALLDATALOAD PUSH4 0xFFFFFFFF DUP2 AND DUP2 EQ PUSH2 0x2D8 JUMPI PUSH1 0x0 DUP1 REVERT JUMPDEST SWAP4 POP PUSH1 0x20 DUP6 ADD CALLDATALOAD SWAP3 POP PUSH1 0x40 DUP6 ADD CALLDATALOAD PUSH8 0xFFFFFFFFFFFFFFFF DUP2 GT ISZERO PUSH2 0x2FB JUMPI PUSH1 0x0 DUP1 REVERT JUMPDEST DUP6 ADD PUSH1 0x1F DUP2 ADD DUP8 SGT PUSH2 0x30C JUMPI PUSH1 0x0 DUP1 REVERT JUMPDEST DUP1 CALLDATALOAD PUSH8 0xFFFFFFFFFFFFFFFF DUP2 GT ISZERO PUSH2 0x323 JUMPI PUSH1 0x0 DUP1 REVERT JUMPDEST DUP8 PUSH1 0x20 DUP3 DUP5 ADD ADD GT ISZERO PUSH2 0x335 JUMPI PUSH1 0x0 DUP1 REVERT JUMPDEST SWAP5 SWAP8 SWAP4 SWAP7 POP PUSH1 0x20 ADD SWAP5 POP POP POP JUMP JUMPDEST DUP1 CALLDATALOAD PUSH1 0x1 PUSH1 0x1 PUSH1 0xA0 SHL SUB DUP2 AND DUP2 EQ PUSH2 0x35A JUMPI PUSH1 0x0 DUP1 REVERT JUMPDEST SWAP2 SWAP1 POP JUMP JUMPDEST PUSH1 0x0 PUSH1 0x80 DUP3 DUP5 SUB SLT DUP1 ISZERO PUSH2 0x372 JUMPI PUSH1 0x0 DUP1 REVERT JUMPDEST PUSH1 0x0 SWAP1 POP PUSH1 0x40 MLOAD PUSH1 0x80 DUP2 ADD DUP2 DUP2 LT PUSH8 0xFFFFFFFFFFFFFFFF DUP3 GT OR ISZERO PUSH2 0x3A5 JUMPI PUSH4 0x4E487B71 PUSH1 0xE0 SHL DUP4 MSTORE PUSH1 0x41 PUSH1 0x4 MSTORE PUSH1 0x24 DUP4 REVERT JUMPDEST PUSH1 0x40 SWAP1 DUP2 MSTORE DUP5 CALLDATALOAD DUP3 MSTORE PUSH1 0x20 DUP1 DUP7 ADD CALLDATALOAD SWAP1 DUP4 ADD MSTORE DUP5 ADD CALLDATALOAD PUSH8 0xFFFFFFFFFFFFFFFF DUP2 AND DUP2 EQ PUSH2 0x3D0 JUMPI DUP3 DUP4 REVERT JUMPDEST PUSH1 0x40 DUP3 ADD MSTORE PUSH2 0x3E1 PUSH1 0x60 DUP6 ADD PUSH2 0x343 JUMP JUMPDEST PUSH1 0x60 DUP3 ADD MSTORE SWAP5 SWAP4 POP POP POP POP JUMP INVALID LOG2 PUSH5 0x6970667358 0x22 SLT KECCAK256 0xD4 SWAP13 0xF7 SHR 0x4B 0x23 CHAINID DUP5 PUSH27 0x4BA6844F22A00281350CBA4242DA791B9B9C230A80BB0A64736F6C PUSH4 0x4300081C STOP CALLER "
        },
        "methodIdentifiers": {
          "MAILBOX_ADDRESS()": "b85ec505",
          "handle(uint32,bytes32,bytes)": "56d5d475",
          "lastEntropyData()": "bf4d0407",
          "lastOriginDomain()": "77cbf812",
          "lastSender()": "256fec88"
        }
      }
    }
  }
}