{
  "contracts/TradingCardGame.sol": {
    "TradingCardGame": {
      "abi": [
        {
          "inputs": [
            {
              "internalType": "address",
              "name": "_pythAddress",
              "type": "address"
            }
          ],
          "stateMutability": "nonpayable",
          "type": "constructor"
        },
        {
          "anonymous": false,
          "inputs": [
            {
              "indexed": true,
              "internalType": "uint256",
              "name": "gameId",
              "type": "uint256"
            },
            {
              "indexed": true,
              "internalType": "address",
              "name": "player",
              "type": "address"
            },
            {
              "indexed": false,
              "internalType": "uint256[3]",
              "name": "cards",
              "type": "uint256[3]"
            }
          ],
          "name": "ChoicesCommitted",
          "type": "event"
        },
        {
          "anonymous": false,
          "inputs": [
            {
              "indexed": true,
              "internalType": "uint256",
              "name": "gameId",
              "type": "uint256"
            },
            {
              "indexed": false,
              "internalType": "uint256[]",
              "name": "cards",
              "type": "uint256[]"
            }
          ],
          "name": "GameActive",
          "type": "event"
        },
        {
          "anonymous": false,
          "inputs": [
            {
              "indexed": true,
              "internalType": "uint256",
              "name": "gameId",
              "type": "uint256"
            }
          ],
          "name": "GameEnded",
          "type": "event"
        },
        {
          "anonymous": false,
          "inputs": [
            {
              "indexed": true,
              "internalType": "uint256",
              "name": "gameId",
              "type": "uint256"
            },
            {
              "indexed": true,
              "internalType": "address",
              "name": "starter",
              "type": "address"
            }
          ],
          "name": "GameStarted",
          "type": "event"
        },
        {
          "anonymous": false,
          "inputs": [
            {
              "indexed": true,
              "internalType": "uint256",
              "name": "gameId",
              "type": "uint256"
            },
            {
              "indexed": true,
              "internalType": "address",
              "name": "player",
              "type": "address"
            }
          ],
          "name": "PlayerJoined",
          "type": "event"
        },
        {
          "anonymous": false,
          "inputs": [
            {
              "indexed": true,
              "internalType": "uint256",
              "name": "gameId",
              "type": "uint256"
            },
            {
              "indexed": true,
              "internalType": "address",
              "name": "player",
              "type": "address"
            },
            {
              "indexed": false,
              "internalType": "uint256",
              "name": "points",
              "type": "uint256"
            }
          ],
          "name": "PointsAwarded",
          "type": "event"
        },
        {
          "anonymous": false,
          "inputs": [
            {
              "indexed": true,
              "internalType": "uint256",
              "name": "gameId",
              "type": "uint256"
            }
          ],
          "name": "PricesUpdated",
          "type": "event"
        },
        {
          "inputs": [],
          "name": "CHOICE_DURATION",
          "outputs": [
            {
              "internalType": "uint256",
              "name": "",
              "type": "uint256"
            }
          ],
          "stateMutability": "view",
          "type": "function"
        },
        {
          "inputs": [],
          "name": "LOBBY_DURATION",
          "outputs": [
            {
              "internalType": "uint256",
              "name": "",
              "type": "uint256"
            }
          ],
          "stateMutability": "view",
          "type": "function"
        },
        {
          "inputs": [],
          "name": "MIN_PLAYERS",
          "outputs": [
            {
              "internalType": "uint256",
              "name": "",
              "type": "uint256"
            }
          ],
          "stateMutability": "view",
          "type": "function"
        },
        {
          "inputs": [],
          "name": "POINTS_MARKET_CAP_VOLUME",
          "outputs": [
            {
              "internalType": "uint256",
              "name": "",
              "type": "uint256"
            }
          ],
          "stateMutability": "view",
          "type": "function"
        },
        {
          "inputs": [],
          "name": "POINTS_PERCENTAGE_CHANGE",
          "outputs": [
            {
              "internalType": "uint256",
              "name": "",
              "type": "uint256"
            }
          ],
          "stateMutability": "view",
          "type": "function"
        },
        {
          "inputs": [],
          "name": "POINTS_PRICE_ABOVE_BELOW",
          "outputs": [
            {
              "internalType": "uint256",
              "name": "",
              "type": "uint256"
            }
          ],
          "stateMutability": "view",
          "type": "function"
        },
        {
          "inputs": [],
          "name": "POINTS_PRICE_UP_DOWN",
          "outputs": [
            {
              "internalType": "uint256",
              "name": "",
              "type": "uint256"
            }
          ],
          "stateMutability": "view",
          "type": "function"
        },
        {
          "inputs": [],
          "name": "RESOLUTION_DURATION",
          "outputs": [
            {
              "internalType": "uint256",
              "name": "",
              "type": "uint256"
            }
          ],
          "stateMutability": "view",
          "type": "function"
        },
        {
          "inputs": [
            {
              "internalType": "uint256",
              "name": "",
              "type": "uint256"
            }
          ],
          "name": "assetPriceIds",
          "outputs": [
            {
              "internalType": "bytes32",
              "name": "",
              "type": "bytes32"
            }
          ],
          "stateMutability": "view",
          "type": "function"
        },
        {
          "inputs": [
            {
              "internalType": "uint256",
              "name": "_gameId",
              "type": "uint256"
            }
          ],
          "name": "canStartGame",
          "outputs": [
            {
              "internalType": "bool",
              "name": "canStart",
              "type": "bool"
            },
            {
              "internalType": "string",
              "name": "reason",
              "type": "string"
            }
          ],
          "stateMutability": "view",
          "type": "function"
        },
        {
          "inputs": [
            {
              "internalType": "uint256",
              "name": "_gameId",
              "type": "uint256"
            },
            {
              "internalType": "uint256[3]",
              "name": "_cardNumbers",
              "type": "uint256[3]"
            }
          ],
          "name": "commitChoices",
          "outputs": [],
          "stateMutability": "nonpayable",
          "type": "function"
        },
        {
          "inputs": [],
          "name": "createGame",
          "outputs": [
            {
              "internalType": "uint256",
              "name": "",
              "type": "uint256"
            }
          ],
          "stateMutability": "nonpayable",
          "type": "function"
        },
        {
          "inputs": [
            {
              "internalType": "uint256",
              "name": "_gameId",
              "type": "uint256"
            }
          ],
          "name": "endGame",
          "outputs": [],
          "stateMutability": "nonpayable",
          "type": "function"
        },
        {
          "inputs": [
            {
              "internalType": "uint256",
              "name": "",
              "type": "uint256"
            }
          ],
          "name": "games",
          "outputs": [
            {
              "internalType": "uint256",
              "name": "gameId",
              "type": "uint256"
            },
            {
              "internalType": "enum TradingCardGame.GameStatus",
              "name": "status",
              "type": "uint8"
            },
            {
              "internalType": "uint256",
              "name": "startTime",
              "type": "uint256"
            },
            {
              "internalType": "uint256",
              "name": "lobbyDeadline",
              "type": "uint256"
            },
            {
              "internalType": "uint256",
              "name": "choiceDeadline",
              "type": "uint256"
            },
            {
              "internalType": "uint256",
              "name": "resolutionDeadline",
              "type": "uint256"
            },
            {
              "internalType": "bool",
              "name": "resolved",
              "type": "bool"
            }
          ],
          "stateMutability": "view",
          "type": "function"
        },
        {
          "inputs": [
            {
              "internalType": "uint256",
              "name": "_gameId",
              "type": "uint256"
            }
          ],
          "name": "getGameCards",
          "outputs": [
            {
              "internalType": "uint256[]",
              "name": "",
              "type": "uint256[]"
            }
          ],
          "stateMutability": "view",
          "type": "function"
        },
        {
          "inputs": [
            {
              "internalType": "uint256",
              "name": "_gameId",
              "type": "uint256"
            }
          ],
          "name": "getGamePlayers",
          "outputs": [
            {
              "internalType": "address[]",
              "name": "",
              "type": "address[]"
            }
          ],
          "stateMutability": "view",
          "type": "function"
        },
        {
          "inputs": [
            {
              "internalType": "uint256",
              "name": "_gameId",
              "type": "uint256"
            }
          ],
          "name": "getGameState",
          "outputs": [
            {
              "internalType": "enum TradingCardGame.GameStatus",
              "name": "status",
              "type": "uint8"
            },
            {
              "internalType": "uint256",
              "name": "startTime",
              "type": "uint256"
            },
            {
              "internalType": "uint256",
              "name": "lobbyDeadline",
              "type": "uint256"
            },
            {
              "internalType": "uint256",
              "name": "choiceDeadline",
              "type": "uint256"
            },
            {
              "internalType": "uint256",
              "name": "resolutionDeadline",
              "type": "uint256"
            },
            {
              "internalType": "uint256",
              "name": "playerCount",
              "type": "uint256"
            },
            {
              "internalType": "uint256",
              "name": "cardCount",
              "type": "uint256"
            }
          ],
          "stateMutability": "view",
          "type": "function"
        },
        {
          "inputs": [],
          "name": "getNextGameId",
          "outputs": [
            {
              "internalType": "uint256",
              "name": "",
              "type": "uint256"
            }
          ],
          "stateMutability": "view",
          "type": "function"
        },
        {
          "inputs": [
            {
              "internalType": "uint256",
              "name": "_gameId",
              "type": "uint256"
            },
            {
              "internalType": "address",
              "name": "_player",
              "type": "address"
            }
          ],
          "name": "getPlayerChoices",
          "outputs": [
            {
              "internalType": "uint256[3]",
              "name": "selectedCards",
              "type": "uint256[3]"
            },
            {
              "internalType": "uint256",
              "name": "committedAt",
              "type": "uint256"
            },
            {
              "internalType": "bool",
              "name": "committed",
              "type": "bool"
            }
          ],
          "stateMutability": "view",
          "type": "function"
        },
        {
          "inputs": [
            {
              "internalType": "address",
              "name": "_player",
              "type": "address"
            }
          ],
          "name": "getPlayerScore",
          "outputs": [
            {
              "internalType": "uint256",
              "name": "totalPoints",
              "type": "uint256"
            },
            {
              "internalType": "uint256",
              "name": "gamesPlayed",
              "type": "uint256"
            },
            {
              "internalType": "uint256",
              "name": "gamesWon",
              "type": "uint256"
            }
          ],
          "stateMutability": "view",
          "type": "function"
        },
        {
          "inputs": [
            {
              "internalType": "uint256",
              "name": "_gameId",
              "type": "uint256"
            },
            {
              "internalType": "uint256",
              "name": "_cardNumber",
              "type": "uint256"
            }
          ],
          "name": "getPredictionResult",
          "outputs": [
            {
              "internalType": "bool",
              "name": "correct",
              "type": "bool"
            },
            {
              "internalType": "uint256",
              "name": "pointsEarned",
              "type": "uint256"
            }
          ],
          "stateMutability": "view",
          "type": "function"
        },
        {
          "inputs": [],
          "name": "isContractActive",
          "outputs": [
            {
              "internalType": "bool",
              "name": "",
              "type": "bool"
            }
          ],
          "stateMutability": "pure",
          "type": "function"
        },
        {
          "inputs": [
            {
              "internalType": "uint256",
              "name": "_gameId",
              "type": "uint256"
            }
          ],
          "name": "joinGame",
          "outputs": [],
          "stateMutability": "nonpayable",
          "type": "function"
        },
        {
          "inputs": [
            {
              "internalType": "uint256",
              "name": "",
              "type": "uint256"
            }
          ],
          "name": "leaderboard",
          "outputs": [
            {
              "internalType": "address",
              "name": "",
              "type": "address"
            }
          ],
          "stateMutability": "view",
          "type": "function"
        },
        {
          "inputs": [
            {
              "internalType": "address",
              "name": "",
              "type": "address"
            }
          ],
          "name": "playerActiveGame",
          "outputs": [
            {
              "internalType": "uint256",
              "name": "",
              "type": "uint256"
            }
          ],
          "stateMutability": "view",
          "type": "function"
        },
        {
          "inputs": [
            {
              "internalType": "address",
              "name": "",
              "type": "address"
            }
          ],
          "name": "playerScores",
          "outputs": [
            {
              "internalType": "address",
              "name": "player",
              "type": "address"
            },
            {
              "internalType": "uint256",
              "name": "totalPoints",
              "type": "uint256"
            },
            {
              "internalType": "uint256",
              "name": "gamesPlayed",
              "type": "uint256"
            },
            {
              "internalType": "uint256",
              "name": "gamesWon",
              "type": "uint256"
            }
          ],
          "stateMutability": "view",
          "type": "function"
        },
        {
          "inputs": [],
          "name": "pyth",
          "outputs": [
            {
              "internalType": "contract IPyth",
              "name": "",
              "type": "address"
            }
          ],
          "stateMutability": "view",
          "type": "function"
        },
        {
          "inputs": [
            {
              "internalType": "uint256",
              "name": "_assetIndex",
              "type": "uint256"
            },
            {
              "internalType": "bytes32",
              "name": "_priceId",
              "type": "bytes32"
            }
          ],
          "name": "setAssetPriceId",
          "outputs": [],
          "stateMutability": "nonpayable",
          "type": "function"
        },
        {
          "inputs": [
            {
              "internalType": "uint256",
              "name": "_gameId",
              "type": "uint256"
            },
            {
              "internalType": "bool",
              "name": "_useSecureRandomness",
              "type": "bool"
            }
          ],
          "name": "startGame",
          "outputs": [],
          "stateMutability": "nonpayable",
          "type": "function"
        },
        {
          "inputs": [
            {
              "internalType": "uint256",
              "name": "_gameId",
              "type": "uint256"
            },
            {
              "internalType": "bytes[]",
              "name": "_priceUpdateData",
              "type": "bytes[]"
            },
            {
              "internalType": "bytes32[]",
              "name": "",
              "type": "bytes32[]"
            },
            {
              "internalType": "uint256",
              "name": "_updateFee",
              "type": "uint256"
            }
          ],
          "name": "updatePricesAndResolve",
          "outputs": [],
          "stateMutability": "payable",
          "type": "function"
        }
      ],
      "evm": {
        "bytecode": {
          "linkReferences": {},
          "object": "60a0604052348015600f57600080fd5b5060405161253b38038061253b833981016040819052602c916041565b6001600160a01b03166080526001600055606f565b600060208284031215605257600080fd5b81516001600160a01b0381168114606857600080fd5b9392505050565b6080516124aa610091600039600081816106640152610c9101526124aa6000f3fe6080604052600436106101cd5760003560e01c80638f5949f9116100f7578063e085c53911610095578063efaa55a011610064578063efaa55a014610612578063f79c913e14610632578063f98d06f014610652578063ffde0c741461068657600080fd5b8063e085c53914610582578063e5c43ef114610353578063e7fad8af146105e8578063ede8af01146105fd57600080fd5b8063bee4c6d3116100d1578063bee4c6d3146104f5578063bf3683991461050a578063d0399bb814610542578063d7793c191461056257600080fd5b80638f5949f9146104b1578063a457d3d6146104cd578063b0fd159f146104e057600080fd5b80635c5c83821161016f5780637f57504f1161013e5780637f57504f1461040b57806385f07bbe14610442578063860cbc7714610457578063863df0a11461048457600080fd5b80635c5c83821461035357806362550ae1146103685780637255d729146103e05780637ca90e59146103f557600080fd5b806315a40f49116101ab57806315a40f491461029c578063392b749c146102c95780633c8aec3f146102f757806353644f311461032457600080fd5b806310c28d31146101d2578063117a5b901461020a5780631226897a14610279575b600080fd5b3480156101de57600080fd5b506101f26101ed366004611d7c565b6106b9565b60405161020193929190611dcb565b60405180910390f35b34801561021657600080fd5b50610266610225366004611def565b60016020819052600091825260409091208054918101546002820154600383015460048401546005850154600a9095015460ff948516959394929391921687565b6040516102019796959493929190611e40565b34801561028557600080fd5b5061028e601481565b604051908152602001610201565b3480156102a857600080fd5b506102bc6102b7366004611def565b610775565b6040516102019190611e7f565b3480156102d557600080fd5b506102e96102e4366004611def565b610813565b604051610201929190611f11565b34801561030357600080fd5b5061028e610312366004611def565b60056020526000908152604090205481565b34801561033057600080fd5b5061035161033f366004611f34565b60009182526005602052604090912055565b005b34801561035f57600080fd5b5061028e603c81565b34801561037457600080fd5b506103b6610383366004611f56565b600260208190526000918252604090912080546001820154928201546003909201546001600160a01b0390911692919084565b604080516001600160a01b0390951685526020850193909352918301526060820152608001610201565b3480156103ec57600080fd5b5061028e610920565b34801561040157600080fd5b5061028e61025881565b34801561041757600080fd5b5061042b610426366004611f34565b610a75565b604080519215158352602083019190915201610201565b34801561044e57600080fd5b5061028e600281565b34801561046357600080fd5b50610477610472366004611def565b610ad8565b6040516102019190611f78565b34801561049057600080fd5b5061028e61049f366004611f56565b60046020526000908152604090205481565b3480156104bd57600080fd5b5060405160018152602001610201565b6103516104db366004612088565b610b6b565b3480156104ec57600080fd5b5061028e601281565b34801561050157600080fd5b5061028e600f81565b34801561051657600080fd5b5061052a610525366004611def565b610d3c565b6040516001600160a01b039091168152602001610201565b34801561054e57600080fd5b5061035161055d366004611def565b610d66565b34801561056e57600080fd5b5061035161057d3660046121de565b611144565b34801561058e57600080fd5b506105cd61059d366004611f56565b6001600160a01b031660009081526002602081905260409091206001810154918101546003909101549192909190565b60408051938452602084019290925290820152606001610201565b3480156105f457600080fd5b5061028e600a81565b34801561060957600080fd5b5060005461028e565b34801561061e57600080fd5b5061035161062d366004611def565b611226565b34801561063e57600080fd5b5061035161064d366004612213565b61148c565b34801561065e57600080fd5b5061052a7f000000000000000000000000000000000000000000000000000000000000000081565b34801561069257600080fd5b506106a66106a1366004611def565b611885565b604051610201979695949392919061229c565b6106c1611cef565b600080846000811180156106d6575060005481105b6106fb5760405162461bcd60e51b81526004016106f2906122da565b60405180910390fd5b60008681526001602081815260408084206001600160a01b038a168552600801909152918290206004810154600582015484516060810195869052929493850193919260ff90911691849060039082845b81548152602001906001019080831161074c575050505050925094509450945050509250925092565b606081600081118015610789575060005481105b6107a55760405162461bcd60e51b81526004016106f2906122da565b6000838152600160209081526040918290206006018054835181840281018401909452808452909183018282801561080657602002820191906000526020600020905b81546001600160a01b031681526001909101906020018083116107e8575b5050505050915050919050565b6000606082600081118015610829575060005481105b6108455760405162461bcd60e51b81526004016106f2906122da565b600084815260016020526040812090600182015460ff16600481111561086d5761086d611e08565b146108b45760006040518060400160405280601a81526020017f47616d65206973206e6f7420696e204c4f424259207374617465000000000000815250935093505061091a565b80600301544210156109025760006040518060400160405280601a81526020017f4c6f62627920646561646c696e65206e6f742072656163686564000000000000815250935093505061091a565b60016040518060200160405280600081525093509350505b50915091565b3360009081526004602052604081205480156109ba5760008181526001602052604090206004600182015460ff16600481111561095f5761095f611e08565b146109a85760405162461bcd60e51b8152602060048201526019602482015278416c726561647920696e20616e206163746976652067616d6560381b60448201526064016106f2565b50336000908152600460205260408120555b6000805481806109c983612319565b909155506000818152600160208190526040909120828155908101805460ff19169055426002820181905591925090610a0490603c90612332565b60038201556006810180546001810182556000918252602080832090910180546001600160a01b031916339081179091558083526004909152604080832085905551909184917ffadb9547847a0c2c31f4c02590545e318d33d7aae99071caecf3fa4ce3cd7dca9190a35092915050565b60008083600081118015610a8a575060005481105b610aa65760405162461bcd60e51b81526004016106f2906122da565b50505060009182526001602081815260408085209385526009909301905291209081015460029091015460ff90911691565b606081600081118015610aec575060005481105b610b085760405162461bcd60e51b81526004016106f2906122da565b6000838152600160209081526040918290206007018054835181840281018401909452808452909183018282801561080657602002820191906000526020600020905b815481526020019060010190808311610b4b575050505050915050919050565b83600081118015610b7d575060005481105b610b995760405162461bcd60e51b81526004016106f2906122da565b846003806000838152600160208190526040909120015460ff166004811115610bc457610bc4611e08565b14610be15760405162461bcd60e51b81526004016106f290612345565b600087815260016020526040902034851115610c325760405162461bcd60e51b815260206004820152601060248201526f496e73756666696369656e742066656560801b60448201526064016106f2565b600a81015460ff1615610c7a5760405162461bcd60e51b815260206004820152601060248201526f105b1c9958591e481c995cdbdb1d995960821b60448201526064016106f2565b604051631df3cbc560e31b81526001600160a01b037f0000000000000000000000000000000000000000000000000000000000000000169063ef9e5e28908790610cc8908b90600401612372565b6000604051808303818588803b158015610ce157600080fd5b505af1158015610cf5573d6000803e3d6000fd5b50506040518b93507f702ec30635253cae6d3600d38314e616495cf01545d34e549c49ebf6451dab3b925060009150a2600a01805460ff1916600117905550505050505050565b60038181548110610d4c57600080fd5b6000918252602090912001546001600160a01b0316905081565b80600081118015610d78575060005481105b610d945760405162461bcd60e51b81526004016106f2906122da565b816003806000838152600160208190526040909120015460ff166004811115610dbf57610dbf611e08565b14610ddc5760405162461bcd60e51b81526004016106f290612345565b60008481526001602052604090206005810154421015610e3e5760405162461bcd60e51b815260206004820152601f60248201527f5265736f6c7574696f6e20646561646c696e65206e6f7420726561636865640060448201526064016106f2565b60005b6006820154811015611065576000826006018281548110610e6457610e646123d7565b60009182526020808320909101546001600160a01b031680835260088601909152604090912060058101549192509060ff16610ea157505061105d565b6000805b6003811015610f85576000836001018260038110610ec557610ec56123d7565b0154600081815260098901602052604090206001015490915060ff16610f5c576000610ef18c8361190b565b9050600081610f01576000610f0a565b610f0a83611914565b604080516060810182528581529315156020808601918252858301938452600087815260098e0190915291909120935184555160018401805460ff191691151591909117905551600290920191909155505b6000818152600988016020526040902060020154610f7a9084612332565b925050600101610ea5565b506001600160a01b03831660009081526002602052604081206001018054839290610fb1908490612332565b90915550506001600160a01b0383166000908152600260208190526040822001805491610fdd83612319565b90915550508015611015576001600160a01b038316600090815260026020526040812060030180549161100f83612319565b91905055505b826001600160a01b0316897f0dbadce3c07b5bc30ebbe2bcec3d6bb95f9b3a0bb33178ff0d61e4d7d43399158360405161105191815260200190565b60405180910390a35050505b600101610e41565b5060018101805460ff1916600417905560005b600682015481101561111157856004600084600601848154811061109e5761109e6123d7565b60009182526020808320909101546001600160a01b0316835282019290925260400190205403611109576000600460008460060184815481106110e3576110e36123d7565b60009182526020808320909101546001600160a01b031683528201929092526040019020555b600101611078565b5060405185907fce24807f7e4b60b4e641462f13029fa5e5f79075bbc3f8e5cd43ecd19661d76090600090a25050505050565b81600081118015611156575060005481105b6111725760405162461bcd60e51b81526004016106f2906122da565b826000806000838152600160208190526040909120015460ff16600481111561119d5761119d611e08565b146111ba5760405162461bcd60e51b81526004016106f290612345565b600085815260016020526040902060038101544210156112145760405162461bcd60e51b815260206004820152601560248201527410d85b9b9bdd081cdd185c9d0819d85b59481e595d605a1b60448201526064016106f2565b61121e8686611a3c565b505050505050565b80600081118015611238575060005481105b6112545760405162461bcd60e51b81526004016106f2906122da565b816000806000838152600160208190526040909120015460ff16600481111561127f5761127f611e08565b1461129c5760405162461bcd60e51b81526004016106f290612345565b600084815260016020526040902060038101544211156112ed5760405162461bcd60e51b815260206004820152600c60248201526b131bd8989e4818db1bdcd95960a21b60448201526064016106f2565b60005b600682015481101561137657336001600160a01b031682600601828154811061131b5761131b6123d7565b6000918252602090912001546001600160a01b03160361136e5760405162461bcd60e51b815260206004820152600e60248201526d105b1c9958591e481a9bda5b995960921b60448201526064016106f2565b6001016112f0565b503360009081526004602052604090205480158015906113965750858114155b1561141f5760008181526001602052604090206004600182015460ff1660048111156113c4576113c4611e08565b1461140d5760405162461bcd60e51b8152602060048201526019602482015278416c726561647920696e20616e206163746976652067616d6560381b60448201526064016106f2565b50336000908152600460205260408120555b6006820180546001810182556000918252602080832090910180546001600160a01b031916339081179091558083526004909152604080832089905551909188917f87969bc7faf902221a147b95ceba76e011c5efb0339a0a8ee7a2bb82d9cfbbd69190a3505050505050565b8160008111801561149e575060005481105b6114ba5760405162461bcd60e51b81526004016106f2906122da565b826002806000838152600160208190526040909120015460ff1660048111156114e5576114e5611e08565b146115025760405162461bcd60e51b81526004016106f290612345565b6000858152600160205260409020600481015442111561155d5760405162461bcd60e51b815260206004820152601660248201527510da1bda58d948191958591b1a5b99481c185cdcd95960521b60448201526064016106f2565b33600090815260088201602052604090206005015460ff16156115b65760405162461bcd60e51b8152602060048201526011602482015270105b1c9958591e4818dbdb5b5a5d1d1959607a1b60448201526064016106f2565b6000805b600683015481101561161057336001600160a01b03168360060182815481106115e5576115e56123d7565b6000918252602090912001546001600160a01b0316036116085760019150611610565b6001016115ba565b508061165e5760405162461bcd60e51b815260206004820152601960248201527f4e6f74206120706c6179657220696e20746869732067616d650000000000000060448201526064016106f2565b60005b6003811015611714576000805b60078501548110156116c75788836003811061168c5761168c6123d7565b60200201518560070182815481106116a6576116a66123d7565b9060005260206000200154036116bf57600191506116c7565b60010161166e565b508061170b5760405162461bcd60e51b815260206004820152601360248201527224b73b30b634b21031b0b93210373ab6b132b960691b60448201526064016106f2565b50600101611661565b50604080516080810182523380825260208083018a8152428486015260016060850181905260009384526008880190925293909120825181546001600160a01b0319166001600160a01b039091161781559251919291611778918301906003611d0d565b5060408281015160048301556060909201516005909101805460ff191691151591909117905551339088907fd67de08bd4ba5b6a6548667370488a8781753615acb89ae1ac1f96f6c270ecf0906117d0908a906123ed565b60405180910390a3600160005b600684015481101561184457836008016000856006018381548110611804576118046123d7565b60009182526020808320909101546001600160a01b0316835282019290925260400190206005015460ff1661183c5760009150611844565b6001016117dd565b508080611855575082600401544210155b1561187b5760018301805460ff1916600317905561187561025842612332565b60058401555b5050505050505050565b6000806000806000806000876000811180156118a2575060005481105b6118be5760405162461bcd60e51b81526004016106f2906122da565b50505060009586525050600160208190526040909420938401546002850154600386015460048701546005880154600689015460079099015460ff90951699939892975090955093509190565b60005b92915050565b600080600a6119238185612411565b61192d9190612425565b9050600061193c600783612425565b600681111561194d5761194d611e08565b9050600081600681111561196357611963611e08565b14806119805750600181600681111561197e5761197e611e08565b145b1561198f5750600a9392505050565b60028160068111156119a3576119a3611e08565b14806119c0575060038160068111156119be576119be611e08565b145b156119cf5750600f9392505050565b60048160068111156119e3576119e3611e08565b1480611a00575060058160068111156119fe576119fe611e08565b145b15611a0f575060129392505050565b6006816006811115611a2357611a23611e08565b03611a32575060149392505050565b5060009392505050565b600082815260016020526040812090600182015460ff166004811115611a6457611a64611e08565b14611aa55760405162461bcd60e51b815260206004820152601160248201527047616d65206e6f7420696e206c6f62627960781b60448201526064016106f2565b611aaf8383611b10565b60018101805460ff19166002179055611ac9603c42612332565b600482015560405183907f1e16023bc0e15b4ad55f8e37dccf554d1451b0d26c8e55cd0e7e041eea33c75d90611b03906007850190612439565b60405180910390a2505050565b6000828152600160205260409020600781015415611b705760405162461bcd60e51b815260206004820152601760248201527f436172647320616c72656164792067656e65726174656400000000000000000060448201526064016106f2565b8115611b8457611b7f83611b8d565b505050565b611b7f83611c4a565b60008181526001602090815260408083208151610140810183526104d2815261162e9381019390935261233491830191909152610d806060830152611ed2608083015261092960a0830152611a8560c08301526111d760e08301526122c561010083015261054d610120830152915b600a811015611c4457826007018282600a8110611c1b57611c1b6123d7565b602090810291909101518254600181810185556000948552929093209092019190915501611bfc565b50505050565b6000818152600160205260408120905b600a811015611b7f5760408051426020820152449181019190915260608082018590526080820183905233901b6bffffffffffffffffffffffff191660a08201526000906127109060b4016040516020818303038152906040528051906020012060001c611cc89190612425565b60078401805460018181018355600092835260209092200191909155919091019050611c5a565b60405180606001604052806003906020820280368337509192915050565b8260038101928215611d3b579160200282015b82811115611d3b578251825591602001919060010190611d20565b50611d47929150611d4b565b5090565b5b80821115611d475760008155600101611d4c565b80356001600160a01b0381168114611d7757600080fd5b919050565b60008060408385031215611d8f57600080fd5b82359150611d9f60208401611d60565b90509250929050565b8060005b6003811015611c44578151845260209384019390910190600101611dac565b60a08101611dd98286611da8565b8360608301528215156080830152949350505050565b600060208284031215611e0157600080fd5b5035919050565b634e487b7160e01b600052602160045260246000fd5b60058110611e3c57634e487b7160e01b600052602160045260246000fd5b9052565b87815260e08101611e546020830189611e1e565b60408201969096526060810194909452608084019290925260a0830152151560c09091015292915050565b602080825282518282018190526000918401906040840190835b81811015611ec05783516001600160a01b0316835260209384019390920191600101611e99565b509095945050505050565b6000815180845260005b81811015611ef157602081850181015186830182015201611ed5565b506000602082860101526020601f19601f83011685010191505092915050565b8215158152604060208201526000611f2c6040830184611ecb565b949350505050565b60008060408385031215611f4757600080fd5b50508035926020909101359150565b600060208284031215611f6857600080fd5b611f7182611d60565b9392505050565b602080825282518282018190526000918401906040840190835b81811015611ec0578351835260209384019390920191600101611f92565b634e487b7160e01b600052604160045260246000fd5b604051601f8201601f1916810167ffffffffffffffff81118282101715611fef57611fef611fb0565b604052919050565b600067ffffffffffffffff82111561201157612011611fb0565b5060051b60200190565b600082601f83011261202c57600080fd5b813561203f61203a82611ff7565b611fc6565b8082825260208201915060208360051b86010192508583111561206157600080fd5b602085015b8381101561207e578035835260209283019201612066565b5095945050505050565b6000806000806080858703121561209e57600080fd5b84359350602085013567ffffffffffffffff8111156120bc57600080fd5b8501601f810187136120cd57600080fd5b80356120db61203a82611ff7565b8082825260208201915060208360051b8501019250898311156120fd57600080fd5b602084015b838110156121a157803567ffffffffffffffff81111561212157600080fd5b8501603f81018c1361213257600080fd5b602081013567ffffffffffffffff81111561214f5761214f611fb0565b612162601f8201601f1916602001611fc6565b8181526040838301018e101561217757600080fd5b81604084016020830137600060208383010152808652505050602083019250602081019050612102565b509550505050604085013567ffffffffffffffff8111156121c157600080fd5b6121cd8782880161201b565b949793965093946060013593505050565b600080604083850312156121f157600080fd5b823591506020830135801515811461220857600080fd5b809150509250929050565b6000806080838503121561222657600080fd5b82359150603f8301841361223957600080fd5b6040516060810167ffffffffffffffff8111828210171561225c5761225c611fb0565b60405280608085018681111561227157600080fd5b602086015b8181101561228e578035835260209283019201612276565b505050809150509250929050565b60e081016122aa828a611e1e565b8760208301528660408301528560608301528460808301528360a08301528260c083015298975050505050505050565b6020808252600f908201526e125b9d985b1a590819d85b59481251608a1b604082015260600190565b634e487b7160e01b600052601160045260246000fd5b60006001820161232b5761232b612303565b5060010190565b8082018082111561190e5761190e612303565b602080825260139082015272496e76616c69642067616d652073746174757360681b604082015260600190565b6000602082016020835280845180835260408501915060408160051b86010192506020860160005b828110156123cb57603f198786030184526123b6858351611ecb565b9450602093840193919091019060010161239a565b50929695505050505050565b634e487b7160e01b600052603260045260246000fd5b6060810161190e8284611da8565b634e487b7160e01b600052601260045260246000fd5b600082612420576124206123fb565b500490565b600082612434576124346123fb565b500690565b602080825282548282018190526000848152918220906040840190835b81811015611ec057835483526001938401936020909301920161245656fea264697066735822122047694c47066cf4d52423cea789b13c03b56f8bafc8ac48b6a22d5c4d1bb5089964736f6c634300081c0033",
          "opcodes": "PUSH1 0xA0 PUSH1 0x40 MSTORE CALLVALUE DUP1 ISZERO PUSH1 0xF JUMPI PUSH1 0x0 DUP1 REVERT JUMPDEST POP PUSH1 0x40 MLOAD PUSH2 0x253B CODESIZE SUB DUP1 PUSH2 0x253B DUP4 CODECOPY DUP2 ADD PUSH1 0x40 DUP2 SWAP1 MSTORE PUSH1 0x2C SWAP2 PUSH1 0x41 JUMP JUMPDEST PUSH1 0x1 PUSH1 0x1 PUSH1 0xA0 SHL SUB AND PUSH1 0x80 MSTORE PUSH1 0x1 PUSH1 0x0 SSTORE PUSH1 0x6F JUMP JUMPDEST PUSH1 0x0 PUSH1 0x20 DUP3 DUP5 SUB SLT ISZERO PUSH1 0x52 JUMPI PUSH1 0x0 DUP1 REVERT JUMPDEST DUP2 MLOAD PUSH1 0x1 PUSH1 0x1 PUSH1 0xA0 SHL SUB DUP2 AND DUP2 EQ PUSH1 0x68 JUMPI PUSH1 0x0 DUP1 REVERT JUMPDEST SWAP4 SWAP3 POP POP POP JUMP JUMPDEST PUSH1 0x80 MLOAD PUSH2 0x24AA PUSH2 0x91 PUSH1 0x0 CODECOPY PUSH1 0x0 DUP2 DUP2 PUSH2 0x664 ADD MSTORE PUSH2 0xC91 ADD MSTORE PUSH2 0x24AA PUSH1 0x0 RETURN INVALID PUSH1 0x80 PUSH1 0x40 MSTORE PUSH1 0x4 CALLDATASIZE LT PUSH2 0x1CD JUMPI PUSH1 0x0 CALLDATALOAD PUSH1 0xE0 SHR DUP1 PUSH4 0x8F5949F9 GT PUSH2 0xF7 JUMPI DUP1 PUSH4 0xE085C539 GT PUSH2 0x95 JUMPI DUP1 PUSH4 0xEFAA55A0 GT PUSH2 0x64 JUMPI DUP1 PUSH4 0xEFAA55A0 EQ PUSH2 0x612 JUMPI DUP1 PUSH4 0xF79C913E EQ PUSH2 0x632 JUMPI DUP1 PUSH4 0xF98D06F0 EQ PUSH2 0x652 JUMPI DUP1 PUSH4 0xFFDE0C74 EQ PUSH2 0x686 JUMPI PUSH1 0x0 DUP1 REVERT JUMPDEST DUP1 PUSH4 0xE085C539 EQ PUSH2 0x582 JUMPI DUP1 PUSH4 0xE5C43EF1 EQ PUSH2 0x353 JUMPI DUP1 PUSH4 0xE7FAD8AF EQ PUSH2 0x5E8 JUMPI DUP1 PUSH4 0xEDE8AF01 EQ PUSH2 0x5FD JUMPI PUSH1 0x0 DUP1 REVERT JUMPDEST DUP1 PUSH4 0xBEE4C6D3 GT PUSH2 0xD1 JUMPI DUP1 PUSH4 0xBEE4C6D3 EQ PUSH2 0x4F5 JUMPI DUP1 PUSH4 0xBF368399 EQ PUSH2 0x50A JUMPI DUP1 PUSH4 0xD0399BB8 EQ PUSH2 0x542 JUMPI DUP1 PUSH4 0xD7793C19 EQ PUSH2 0x562 JUMPI PUSH1 0x0 DUP1 REVERT JUMPDEST DUP1 PUSH4 0x8F5949F9 EQ PUSH2 0x4B1 JUMPI DUP1 PUSH4 0xA457D3D6 EQ PUSH2 0x4CD JUMPI DUP1 PUSH4 0xB0FD159F EQ PUSH2 0x4E0 JUMPI PUSH1 0x0 DUP1 REVERT JUMPDEST DUP1 PUSH4 0x5C5C8382 GT PUSH2 0x16F JUMPI DUP1 PUSH4 0x7F57504F GT PUSH2 0x13E JUMPI DUP1 PUSH4 0x7F57504F EQ PUSH2 0x40B JUMPI DUP1 PUSH4 0x85F07BBE EQ PUSH2 0x442 JUMPI DUP1 PUSH4 0x860CBC77 EQ PUSH2 0x457 JUMPI DUP1 PUSH4 0x863DF0A1 EQ PUSH2 0x484 JUMPI PUSH1 0x0 DUP1 REVERT JUMPDEST DUP1 PUSH4 0x5C5C8382 EQ PUSH2 0x353 JUMPI DUP1 PUSH4 0x62550AE1 EQ PUSH2 0x368 JUMPI DUP1 PUSH4 0x7255D729 EQ PUSH2 0x3E0 JUMPI DUP1 PUSH4 0x7CA90E59 EQ PUSH2 0x3F5 JUMPI PUSH1 0x0 DUP1 REVERT JUMPDEST DUP1 PUSH4 0x15A40F49 GT PUSH2 0x1AB JUMPI DUP1 PUSH4 0x15A40F49 EQ PUSH2 0x29C JUMPI DUP1 PUSH4 0x392B749C EQ PUSH2 0x2C9 JUMPI DUP1 PUSH4 0x3C8AEC3F EQ PUSH2 0x2F7 JUMPI DUP1 PUSH4 0x53644F31 EQ PUSH2 0x324 JUMPI PUSH1 0x0 DUP1 REVERT JUMPDEST DUP1 PUSH4 0x10C28D31 EQ PUSH2 0x1D2 JUMPI DUP1 PUSH4 0x117A5B90 EQ PUSH2 0x20A JUMPI DUP1 PUSH4 0x1226897A EQ PUSH2 0x279 JUMPI JUMPDEST PUSH1 0x0 DUP1 REVERT JUMPDEST CALLVALUE DUP1 ISZERO PUSH2 0x1DE JUMPI PUSH1 0x0 DUP1 REVERT JUMPDEST POP PUSH2 0x1F2 PUSH2 0x1ED CALLDATASIZE PUSH1 0x4 PUSH2 0x1D7C JUMP JUMPDEST PUSH2 0x6B9 JUMP JUMPDEST PUSH1 0x40 MLOAD PUSH2 0x201 SWAP4 SWAP3 SWAP2 SWAP1 PUSH2 0x1DCB JUMP JUMPDEST PUSH1 0x40 MLOAD DUP1 SWAP2 SUB SWAP1 RETURN JUMPDEST CALLVALUE DUP1 ISZERO PUSH2 0x216 JUMPI PUSH1 0x0 DUP1 REVERT JUMPDEST POP PUSH2 0x266 PUSH2 0x225 CALLDATASIZE PUSH1 0x4 PUSH2 0x1DEF JUMP JUMPDEST PUSH1 0x1 PUSH1 0x20 DUP2 SWAP1 MSTORE PUSH1 0x0 SWAP2 DUP3 MSTORE PUSH1 0x40 SWAP1 SWAP2 KECCAK256 DUP1 SLOAD SWAP2 DUP2 ADD SLOAD PUSH1 0x2 DUP3 ADD SLOAD PUSH1 0x3 DUP4 ADD SLOAD PUSH1 0x4 DUP5 ADD SLOAD PUSH1 0x5 DUP6 ADD SLOAD PUSH1 0xA SWAP1 SWAP6 ADD SLOAD PUSH1 0xFF SWAP5 DUP6 AND SWAP6 SWAP4 SWAP5 SWAP3 SWAP4 SWAP2 SWAP3 AND DUP8 JUMP JUMPDEST PUSH1 0x40 MLOAD PUSH2 0x201 SWAP8 SWAP7 SWAP6 SWAP5 SWAP4 SWAP3 SWAP2 SWAP1 PUSH2 0x1E40 JUMP JUMPDEST CALLVALUE DUP1 ISZERO PUSH2 0x285 JUMPI PUSH1 0x0 DUP1 REVERT JUMPDEST POP PUSH2 0x28E PUSH1 0x14 DUP2 JUMP JUMPDEST PUSH1 0x40 MLOAD SWAP1 DUP2 MSTORE PUSH1 0x20 ADD PUSH2 0x201 JUMP JUMPDEST CALLVALUE DUP1 ISZERO PUSH2 0x2A8 JUMPI PUSH1 0x0 DUP1 REVERT JUMPDEST POP PUSH2 0x2BC PUSH2 0x2B7 CALLDATASIZE PUSH1 0x4 PUSH2 0x1DEF JUMP JUMPDEST PUSH2 0x775 JUMP JUMPDEST PUSH1 0x40 MLOAD PUSH2 0x201 SWAP2 SWAP1 PUSH2 0x1E7F JUMP JUMPDEST CALLVALUE DUP1 ISZERO PUSH2 0x2D5 JUMPI PUSH1 0x0 DUP1 REVERT JUMPDEST POP PUSH2 0x2E9 PUSH2 0x2E4 CALLDATASIZE PUSH1 0x4 PUSH2 0x1DEF JUMP JUMPDEST PUSH2 0x813 JUMP JUMPDEST PUSH1 0x40 MLOAD PUSH2 0x201 SWAP3 SWAP2 SWAP1 PUSH2 0x1F11 JUMP JUMPDEST CALLVALUE DUP1 ISZERO PUSH2 0x303 JUMPI PUSH1 0x0 DUP1 REVERT JUMPDEST POP PUSH2 0x28E PUSH2 0x312 CALLDATASIZE PUSH1 0x4 PUSH2 0x1DEF JUMP JUMPDEST PUSH1 0x5 PUSH1 0x20 MSTORE PUSH1 0x0 SWAP1 DUP2 MSTORE PUSH1 0x40 SWAP1 KECCAK256 SLOAD DUP2 JUMP JUMPDEST CALLVALUE DUP1 ISZERO PUSH2 0x330 JUMPI PUSH1 0x0 DUP1 REVERT JUMPDEST POP PUSH2 0x351 PUSH2 0x33F CALLDATASIZE PUSH1 0x4 PUSH2 0x1F34 JUMP JUMPDEST PUSH1 0x0 SWAP2 DUP3 MSTORE PUSH1 0x5 PUSH1 0x20 MSTORE PUSH1 0x40 SWAP1 SWAP2 KECCAK256 SSTORE JUMP JUMPDEST STOP JUMPDEST CALLVALUE DUP1 ISZERO PUSH2 0x35F JUMPI PUSH1 0x0 DUP1 REVERT JUMPDEST POP PUSH2 0x28E PUSH1 0x3C DUP2 JUMP JUMPDEST CALLVALUE DUP1 ISZERO PUSH2 0x374 JUMPI PUSH1 0x0 DUP1 REVERT JUMPDEST POP PUSH2 0x3B6 PUSH2 0x383 CALLDATASIZE PUSH1 0x4 PUSH2 0x1F56 JUMP JUMPDEST PUSH1 0x2 PUSH1 0x20 DUP2 SWAP1 MSTORE PUSH1 0x0 SWAP2 DUP3 MSTORE PUSH1 0x40 SWAP1 SWAP2 KECCAK256 DUP1 SLOAD PUSH1 0x1 DUP3 ADD SLOAD SWAP3 DUP3 ADD SLOAD PUSH1 0x3 SWAP1 SWAP3 ADD SLOAD PUSH1 0x1 PUSH1 0x1 PUSH1 0xA0 SHL SUB SWAP1 SWAP2 AND SWAP3 SWAP2 SWAP1 DUP5 JUMP JUMPDEST PUSH1 0x40 DUP1 MLOAD PUSH1 0x1 PUSH1 0x1 PUSH1 0xA0 SHL SUB SWAP1 SWAP6 AND DUP6 MSTORE PUSH1 0x20 DUP6 ADD SWAP4 SWAP1 SWAP4 MSTORE SWAP2 DUP4 ADD MSTORE PUSH1 0x60 DUP3 ADD MSTORE PUSH1 0x80 ADD PUSH2 0x201 JUMP JUMPDEST CALLVALUE DUP1 ISZERO PUSH2 0x3EC JUMPI PUSH1 0x0 DUP1 REVERT JUMPDEST POP PUSH2 0x28E PUSH2 0x920 JUMP JUMPDEST CALLVALUE DUP1 ISZERO PUSH2 0x401 JUMPI PUSH1 0x0 DUP1 REVERT JUMPDEST POP PUSH2 0x28E PUSH2 0x258 DUP2 JUMP JUMPDEST CALLVALUE DUP1 ISZERO PUSH2 0x417 JUMPI PUSH1 0x0 DUP1 REVERT JUMPDEST POP PUSH2 0x42B PUSH2 0x426 CALLDATASIZE PUSH1 0x4 PUSH2 0x1F34 JUMP JUMPDEST PUSH2 0xA75 JUMP JUMPDEST PUSH1 0x40 DUP1 MLOAD SWAP3 ISZERO ISZERO DUP4 MSTORE PUSH1 0x20 DUP4 ADD SWAP2 SWAP1 SWAP2 MSTORE ADD PUSH2 0x201 JUMP JUMPDEST CALLVALUE DUP1 ISZERO PUSH2 0x44E JUMPI PUSH1 0x0 DUP1 REVERT JUMPDEST POP PUSH2 0x28E PUSH1 0x2 DUP2 JUMP JUMPDEST CALLVALUE DUP1 ISZERO PUSH2 0x463 JUMPI PUSH1 0x0 DUP1 REVERT JUMPDEST POP PUSH2 0x477 PUSH2 0x472 CALLDATASIZE PUSH1 0x4 PUSH2 0x1DEF JUMP JUMPDEST PUSH2 0xAD8 JUMP JUMPDEST PUSH1 0x40 MLOAD PUSH2 0x201 SWAP2 SWAP1 PUSH2 0x1F78 JUMP JUMPDEST CALLVALUE DUP1 ISZERO PUSH2 0x490 JUMPI PUSH1 0x0 DUP1 REVERT JUMPDEST POP PUSH2 0x28E PUSH2 0x49F CALLDATASIZE PUSH1 0x4 PUSH2 0x1F56 JUMP JUMPDEST PUSH1 0x4 PUSH1 0x20 MSTORE PUSH1 0x0 SWAP1 DUP2 MSTORE PUSH1 0x40 SWAP1 KECCAK256 SLOAD DUP2 JUMP JUMPDEST CALLVALUE DUP1 ISZERO PUSH2 0x4BD JUMPI PUSH1 0x0 DUP1 REVERT JUMPDEST POP PUSH1 0x40 MLOAD PUSH1 0x1 DUP2 MSTORE PUSH1 0x20 ADD PUSH2 0x201 JUMP JUMPDEST PUSH2 0x351 PUSH2 0x4DB CALLDATASIZE PUSH1 0x4 PUSH2 0x2088 JUMP JUMPDEST PUSH2 0xB6B JUMP JUMPDEST CALLVALUE DUP1 ISZERO PUSH2 0x4EC JUMPI PUSH1 0x0 DUP1 REVERT JUMPDEST POP PUSH2 0x28E PUSH1 0x12 DUP2 JUMP JUMPDEST CALLVALUE DUP1 ISZERO PUSH2 0x501 JUMPI PUSH1 0x0 DUP1 REVERT JUMPDEST POP PUSH2 0x28E PUSH1 0xF DUP2 JUMP JUMPDEST CALLVALUE DUP1 ISZERO PUSH2 0x516 JUMPI PUSH1 0x0 DUP1 REVERT JUMPDEST POP PUSH2 0x52A PUSH2 0x525 CALLDATASIZE PUSH1 0x4 PUSH2 0x1DEF JUMP JUMPDEST PUSH2 0xD3C JUMP JUMPDEST PUSH1 0x40 MLOAD PUSH1 0x1 PUSH1 0x1 PUSH1 0xA0 SHL SUB SWAP1 SWAP2 AND DUP2 MSTORE PUSH1 0x20 ADD PUSH2 0x201 JUMP JUMPDEST CALLVALUE DUP1 ISZERO PUSH2 0x54E JUMPI PUSH1 0x0 DUP1 REVERT JUMPDEST POP PUSH2 0x351 PUSH2 0x55D CALLDATASIZE PUSH1 0x4 PUSH2 0x1DEF JUMP JUMPDEST PUSH2 0xD66 JUMP JUMPDEST CALLVALUE DUP1 ISZERO PUSH2 0x56E JUMPI PUSH1 0x0 DUP1 REVERT JUMPDEST POP PUSH2 0x351 PUSH2 0x57D CALLDATASIZE PUSH1 0x4 PUSH2 0x21DE JUMP JUMPDEST PUSH2 0x1144 JUMP JUMPDEST CALLVALUE DUP1 ISZERO PUSH2 0x58E JUMPI PUSH1 0x0 DUP1 REVERT JUMPDEST POP PUSH2 0x5CD PUSH2 0x59D CALLDATASIZE PUSH1 0x4 PUSH2 0x1F56 JUMP JUMPDEST PUSH1 0x1 PUSH1 0x1 PUSH1 0xA0 SHL SUB AND PUSH1 0x0 SWAP1 DUP2 MSTORE PUSH1 0x2 PUSH1 0x20 DUP2 SWAP1 MSTORE PUSH1 0x40 SWAP1 SWAP2 KECCAK256 PUSH1 0x1 DUP2 ADD SLOAD SWAP2 DUP2 ADD SLOAD PUSH1 0x3 SWAP1 SWAP2 ADD SLOAD SWAP2 SWAP3 SWAP1 SWAP2 SWAP1 JUMP JUMPDEST PUSH1 0x40 DUP1 MLOAD SWAP4 DUP5 MSTORE PUSH1 0x20 DUP5 ADD SWAP3 SWAP1 SWAP3 MSTORE SWAP1 DUP3 ADD MSTORE PUSH1 0x60 ADD PUSH2 0x201 JUMP JUMPDEST CALLVALUE DUP1 ISZERO PUSH2 0x5F4 JUMPI PUSH1 0x0 DUP1 REVERT JUMPDEST POP PUSH2 0x28E PUSH1 0xA DUP2 JUMP JUMPDEST CALLVALUE DUP1 ISZERO PUSH2 0x609 JUMPI PUSH1 0x0 DUP1 REVERT JUMPDEST POP PUSH1 0x0 SLOAD PUSH2 0x28E JUMP JUMPDEST CALLVALUE DUP1 ISZERO PUSH2 0x61E JUMPI PUSH1 0x0 DUP1 REVERT JUMPDEST POP PUSH2 0x351 PUSH2 0x62D CALLDATASIZE PUSH1 0x4 PUSH2 0x1DEF JUMP JUMPDEST PUSH2 0x1226 JUMP JUMPDEST CALLVALUE DUP1 ISZERO PUSH2 0x63E JUMPI PUSH1 0x0 DUP1 REVERT JUMPDEST POP PUSH2 0x351 PUSH2 0x64D CALLDATASIZE PUSH1 0x4 PUSH2 0x2213 JUMP JUMPDEST PUSH2 0x148C JUMP JUMPDEST CALLVALUE DUP1 ISZERO PUSH2 0x65E JUMPI PUSH1 0x0 DUP1 REVERT JUMPDEST POP PUSH2 0x52A PUSH32 0x0 DUP2 JUMP JUMPDEST CALLVALUE DUP1 ISZERO PUSH2 0x692 JUMPI PUSH1 0x0 DUP1 REVERT JUMPDEST POP PUSH2 0x6A6 PUSH2 0x6A1 CALLDATASIZE PUSH1 0x4 PUSH2 0x1DEF JUMP JUMPDEST PUSH2 0x1885 JUMP JUMPDEST PUSH1 0x40 MLOAD PUSH2 0x201 SWAP8 SWAP7 SWAP6 SWAP5 SWAP4 SWAP3 SWAP2 SWAP1 PUSH2 0x229C JUMP JUMPDEST PUSH2 0x6C1 PUSH2 0x1CEF JUMP JUMPDEST PUSH1 0x0 DUP1 DUP5 PUSH1 0x0 DUP2 GT DUP1 ISZERO PUSH2 0x6D6 JUMPI POP PUSH1 0x0 SLOAD DUP2 LT JUMPDEST PUSH2 0x6FB JUMPI PUSH1 0x40 MLOAD PUSH3 0x461BCD PUSH1 0xE5 SHL DUP2 MSTORE PUSH1 0x4 ADD PUSH2 0x6F2 SWAP1 PUSH2 0x22DA JUMP JUMPDEST PUSH1 0x40 MLOAD DUP1 SWAP2 SUB SWAP1 REVERT JUMPDEST PUSH1 0x0 DUP7 DUP2 MSTORE PUSH1 0x1 PUSH1 0x20 DUP2 DUP2 MSTORE PUSH1 0x40 DUP1 DUP5 KECCAK256 PUSH1 0x1 PUSH1 0x1 PUSH1 0xA0 SHL SUB DUP11 AND DUP6 MSTORE PUSH1 0x8 ADD SWAP1 SWAP2 MSTORE SWAP2 DUP3 SWAP1 KECCAK256 PUSH1 0x4 DUP2 ADD SLOAD PUSH1 0x5 DUP3 ADD SLOAD DUP5 MLOAD PUSH1 0x60 DUP2 ADD SWAP6 DUP7 SWAP1 MSTORE SWAP3 SWAP5 SWAP4 DUP6 ADD SWAP4 SWAP2 SWAP3 PUSH1 0xFF SWAP1 SWAP2 AND SWAP2 DUP5 SWAP1 PUSH1 0x3 SWAP1 DUP3 DUP5 JUMPDEST DUP2 SLOAD DUP2 MSTORE PUSH1 0x20 ADD SWAP1 PUSH1 0x1 ADD SWAP1 DUP1 DUP4 GT PUSH2 0x74C JUMPI POP POP POP POP POP SWAP3 POP SWAP5 POP SWAP5 POP SWAP5 POP POP POP SWAP3 POP SWAP3 POP SWAP3 JUMP JUMPDEST PUSH1 0x60 DUP2 PUSH1 0x0 DUP2 GT DUP1 ISZERO PUSH2 0x789 JUMPI POP PUSH1 0x0 SLOAD DUP2 LT JUMPDEST PUSH2 0x7A5 JUMPI PUSH1 0x40 MLOAD PUSH3 0x461BCD PUSH1 0xE5 SHL DUP2 MSTORE PUSH1 0x4 ADD PUSH2 0x6F2 SWAP1 PUSH2 0x22DA JUMP JUMPDEST PUSH1 0x0 DUP4 DUP2 MSTORE PUSH1 0x1 PUSH1 0x20 SWAP1 DUP2 MSTORE PUSH1 0x40 SWAP2 DUP3 SWAP1 KECCAK256 PUSH1 0x6 ADD DUP1 SLOAD DUP4 MLOAD DUP2 DUP5 MUL DUP2 ADD DUP5 ADD SWAP1 SWAP5 MSTORE DUP1 DUP5 MSTORE SWAP1 SWAP2 DUP4 ADD DUP3 DUP3 DUP1 ISZERO PUSH2 0x806 JUMPI PUSH1 0x20 MUL DUP3 ADD SWAP2 SWAP1 PUSH1 0x0 MSTORE PUSH1 0x20 PUSH1 0x0 KECCAK256 SWAP1 JUMPDEST DUP2 SLOAD PUSH1 0x1 PUSH1 0x1 PUSH1 0xA0 SHL SUB AND DUP2 MSTORE PUSH1 0x1 SWAP1 SWAP2 ADD SWAP1 PUSH1 0x20 ADD DUP1 DUP4 GT PUSH2 0x7E8 JUMPI JUMPDEST POP POP POP POP POP SWAP2 POP POP SWAP2 SWAP1 POP JUMP JUMPDEST PUSH1 0x0 PUSH1 0x60 DUP3 PUSH1 0x0 DUP2 GT DUP1 ISZERO PUSH2 0x829 JUMPI POP PUSH1 0x0 SLOAD DUP2 LT JUMPDEST PUSH2 0x845 JUMPI PUSH1 0x40 MLOAD PUSH3 0x461BCD PUSH1 0xE5 SHL DUP2 MSTORE PUSH1 0x4 ADD PUSH2 0x6F2 SWAP1 PUSH2 0x22DA JUMP JUMPDEST PUSH1 0x0 DUP5 DUP2 MSTORE PUSH1 0x1 PUSH1 0x20 MSTORE PUSH1 0x40 DUP2 KECCAK256 SWAP1 PUSH1 0x1 DUP3 ADD SLOAD PUSH1 0xFF AND PUSH1 0x4 DUP2 GT ISZERO PUSH2 0x86D JUMPI PUSH2 0x86D PUSH2 0x1E08 JUMP JUMPDEST EQ PUSH2 0x8B4 JUMPI PUSH1 0x0 PUSH1 0x40 MLOAD DUP1 PUSH1 0x40 ADD PUSH1 0x40 MSTORE DUP1 PUSH1 0x1A DUP2 MSTORE PUSH1 0x20 ADD PUSH32 0x47616D65206973206E6F7420696E204C4F424259207374617465000000000000 DUP2 MSTORE POP SWAP4 POP SWAP4 POP POP PUSH2 0x91A JUMP JUMPDEST DUP1 PUSH1 0x3 ADD SLOAD TIMESTAMP LT ISZERO PUSH2 0x902 JUMPI PUSH1 0x0 PUSH1 0x40 MLOAD DUP1 PUSH1 0x40 ADD PUSH1 0x40 MSTORE DUP1 PUSH1 0x1A DUP2 MSTORE PUSH1 0x20 ADD PUSH32 0x4C6F62627920646561646C696E65206E6F742072656163686564000000000000 DUP2 MSTORE POP SWAP4 POP SWAP4 POP POP PUSH2 0x91A JUMP JUMPDEST PUSH1 0x1 PUSH1 0x40 MLOAD DUP1 PUSH1 0x20 ADD PUSH1 0x40 MSTORE DUP1 PUSH1 0x0 DUP2 MSTORE POP SWAP4 POP SWAP4 POP POP JUMPDEST POP SWAP2 POP SWAP2 JUMP JUMPDEST CALLER PUSH1 0x0 SWAP1 DUP2 MSTORE PUSH1 0x4 PUSH1 0x20 MSTORE PUSH1 0x40 DUP2 KECCAK256 SLOAD DUP1 ISZERO PUSH2 0x9BA JUMPI PUSH1 0x0 DUP2 DUP2 MSTORE PUSH1 0x1 PUSH1 0x20 MSTORE PUSH1 0x40 SWAP1 KECCAK256 PUSH1 0x4 PUSH1 0x1 DUP3 ADD SLOAD PUSH1 0xFF AND PUSH1 0x4 DUP2 GT ISZERO PUSH2 0x95F JUMPI PUSH2 0x95F PUSH2 0x1E08 JUMP JUMPDEST EQ PUSH2 0x9A8 JUMPI PUSH1 0x40 MLOAD PUSH3 0x461BCD PUSH1 0xE5 SHL DUP2 MSTORE PUSH1 0x20 PUSH1 0x4 DUP3 ADD MSTORE PUSH1 0x19 PUSH1 0x24 DUP3 ADD MSTORE PUSH25 0x416C726561647920696E20616E206163746976652067616D65 PUSH1 0x38 SHL PUSH1 0x44 DUP3 ADD MSTORE PUSH1 0x64 ADD PUSH2 0x6F2 JUMP JUMPDEST POP CALLER PUSH1 0x0 SWAP1 DUP2 MSTORE PUSH1 0x4 PUSH1 0x20 MSTORE PUSH1 0x40 DUP2 KECCAK256 SSTORE JUMPDEST PUSH1 0x0 DUP1 SLOAD DUP2 DUP1 PUSH2 0x9C9 DUP4 PUSH2 0x2319 JUMP JUMPDEST SWAP1 SWAP2 SSTORE POP PUSH1 0x0 DUP2 DUP2 MSTORE PUSH1 0x1 PUSH1 0x20 DUP2 SWAP1 MSTORE PUSH1 0x40 SWAP1 SWAP2 KECCAK256 DUP3 DUP2 SSTORE SWAP1 DUP2 ADD DUP1 SLOAD PUSH1 0xFF NOT AND SWAP1 SSTORE TIMESTAMP PUSH1 0x2 DUP3 ADD DUP2 SWAP1 SSTORE SWAP2 SWAP3 POP SWAP1 PUSH2 0xA04 SWAP1 PUSH1 0x3C SWAP1 PUSH2 0x2332 JUMP JUMPDEST PUSH1 0x3 DUP3 ADD SSTORE PUSH1 0x6 DUP2 ADD DUP1 SLOAD PUSH1 0x1 DUP2 ADD DUP3 SSTORE PUSH1 0x0 SWAP2 DUP3 MSTORE PUSH1 0x20 DUP1 DUP4 KECCAK256 SWAP1 SWAP2 ADD DUP1 SLOAD PUSH1 0x1 PUSH1 0x1 PUSH1 0xA0 SHL SUB NOT AND CALLER SWAP1 DUP2 OR SWAP1 SWAP2 SSTORE DUP1 DUP4 MSTORE PUSH1 0x4 SWAP1 SWAP2 MSTORE PUSH1 0x40 DUP1 DUP4 KECCAK256 DUP6 SWAP1 SSTORE MLOAD SWAP1 SWAP2 DUP5 SWAP2 PUSH32 0xFADB9547847A0C2C31F4C02590545E318D33D7AAE99071CAECF3FA4CE3CD7DCA SWAP2 SWAP1 LOG3 POP SWAP3 SWAP2 POP POP JUMP JUMPDEST PUSH1 0x0 DUP1 DUP4 PUSH1 0x0 DUP2 GT DUP1 ISZERO PUSH2 0xA8A JUMPI POP PUSH1 0x0 SLOAD DUP2 LT JUMPDEST PUSH2 0xAA6 JUMPI PUSH1 0x40 MLOAD PUSH3 0x461BCD PUSH1 0xE5 SHL DUP2 MSTORE PUSH1 0x4 ADD PUSH2 0x6F2 SWAP1 PUSH2 0x22DA JUMP JUMPDEST POP POP POP PUSH1 0x0 SWAP2 DUP3 MSTORE PUSH1 0x1 PUSH1 0x20 DUP2 DUP2 MSTORE PUSH1 0x40 DUP1 DUP6 KECCAK256 SWAP4 DUP6 MSTORE PUSH1 0x9 SWAP1 SWAP4 ADD SWAP1 MSTORE SWAP2 KECCAK256 SWAP1 DUP2 ADD SLOAD PUSH1 0x2 SWAP1 SWAP2 ADD SLOAD PUSH1 0xFF SWAP1 SWAP2 AND SWAP2 JUMP JUMPDEST PUSH1 0x60 DUP2 PUSH1 0x0 DUP2 GT DUP1 ISZERO PUSH2 0xAEC JUMPI POP PUSH1 0x0 SLOAD DUP2 LT JUMPDEST PUSH2 0xB08 JUMPI PUSH1 0x40 MLOAD PUSH3 0x461BCD PUSH1 0xE5 SHL DUP2 MSTORE PUSH1 0x4 ADD PUSH2 0x6F2 SWAP1 PUSH2 0x22DA JUMP JUMPDEST PUSH1 0x0 DUP4 DUP2 MSTORE PUSH1 0x1 PUSH1 0x20 SWAP1 DUP2 MSTORE PUSH1 0x40 SWAP2 DUP3 SWAP1 KECCAK256 PUSH1 0x7 ADD DUP1 SLOAD DUP4 MLOAD DUP2 DUP5 MUL DUP2 ADD DUP5 ADD SWAP1 SWAP5 MSTORE DUP1 DUP5 MSTORE SWAP1 SWAP2 DUP4 ADD DUP3 DUP3 DUP1 ISZERO PUSH2 0x806 JUMPI PUSH1 0x20 MUL DUP3 ADD SWAP2 SWAP1 PUSH1 0x0 MSTORE PUSH1 0x20 PUSH1 0x0 KECCAK256 SWAP1 JUMPDEST DUP2 SLOAD DUP2 MSTORE PUSH1 0x20 ADD SWAP1 PUSH1 0x1 ADD SWAP1 DUP1 DUP4 GT PUSH2 0xB4B JUMPI POP POP POP POP POP SWAP2 POP POP SWAP2 SWAP1 POP JUMP JUMPDEST DUP4 PUSH1 0x0 DUP2 GT DUP1 ISZERO PUSH2 0xB7D JUMPI POP PUSH1 0x0 SLOAD DUP2 LT JUMPDEST PUSH2 0xB99 JUMPI PUSH1 0x40 MLOAD PUSH3 0x461BCD PUSH1 0xE5 SHL DUP2 MSTORE PUSH1 0x4 ADD PUSH2 0x6F2 SWAP1 PUSH2 0x22DA JUMP JUMPDEST DUP5 PUSH1 0x3 DUP1 PUSH1 0x0 DUP4 DUP2 MSTORE PUSH1 0x1 PUSH1 0x20 DUP2 SWAP1 MSTORE PUSH1 0x40 SWAP1 SWAP2 KECCAK256 ADD SLOAD PUSH1 0xFF AND PUSH1 0x4 DUP2 GT ISZERO PUSH2 0xBC4 JUMPI PUSH2 0xBC4 PUSH2 0x1E08 JUMP JUMPDEST EQ PUSH2 0xBE1 JUMPI PUSH1 0x40 MLOAD PUSH3 0x461BCD PUSH1 0xE5 SHL DUP2 MSTORE PUSH1 0x4 ADD PUSH2 0x6F2 SWAP1 PUSH2 0x2345 JUMP JUMPDEST PUSH1 0x0 DUP8 DUP2 MSTORE PUSH1 0x1 PUSH1 0x20 MSTORE PUSH1 0x40 SWAP1 KECCAK256 CALLVALUE DUP6 GT ISZERO PUSH2 0xC32 JUMPI PUSH1 0x40 MLOAD PUSH3 0x461BCD PUSH1 0xE5 SHL DUP2 MSTORE PUSH1 0x20 PUSH1 0x4 DUP3 ADD MSTORE PUSH1 0x10 PUSH1 0x24 DUP3 ADD MSTORE PUSH16 0x496E73756666696369656E7420666565 PUSH1 0x80 SHL PUSH1 0x44 DUP3 ADD MSTORE PUSH1 0x64 ADD PUSH2 0x6F2 JUMP JUMPDEST PUSH1 0xA DUP2 ADD SLOAD PUSH1 0xFF AND ISZERO PUSH2 0xC7A JUMPI PUSH1 0x40 MLOAD PUSH3 0x461BCD PUSH1 0xE5 SHL DUP2 MSTORE PUSH1 0x20 PUSH1 0x4 DUP3 ADD MSTORE PUSH1 0x10 PUSH1 0x24 DUP3 ADD MSTORE PUSH16 0x105B1C9958591E481C995CDBDB1D9959 PUSH1 0x82 SHL PUSH1 0x44 DUP3 ADD MSTORE PUSH1 0x64 ADD PUSH2 0x6F2 JUMP JUMPDEST PUSH1 0x40 MLOAD PUSH4 0x1DF3CBC5 PUSH1 0xE3 SHL DUP2 MSTORE PUSH1 0x1 PUSH1 0x1 PUSH1 0xA0 SHL SUB PUSH32 0x0 AND SWAP1 PUSH4 0xEF9E5E28 SWAP1 DUP8 SWAP1 PUSH2 0xCC8 SWAP1 DUP12 SWAP1 PUSH1 0x4 ADD PUSH2 0x2372 JUMP JUMPDEST PUSH1 0x0 PUSH1 0x40 MLOAD DUP1 DUP4 SUB DUP2 DUP6 DUP9 DUP1 EXTCODESIZE ISZERO DUP1 ISZERO PUSH2 0xCE1 JUMPI PUSH1 0x0 DUP1 REVERT JUMPDEST POP GAS CALL ISZERO DUP1 ISZERO PUSH2 0xCF5 JUMPI RETURNDATASIZE PUSH1 0x0 DUP1 RETURNDATACOPY RETURNDATASIZE PUSH1 0x0 REVERT JUMPDEST POP POP PUSH1 0x40 MLOAD DUP12 SWAP4 POP PUSH32 0x702EC30635253CAE6D3600D38314E616495CF01545D34E549C49EBF6451DAB3B SWAP3 POP PUSH1 0x0 SWAP2 POP LOG2 PUSH1 0xA ADD DUP1 SLOAD PUSH1 0xFF NOT AND PUSH1 0x1 OR SWAP1 SSTORE POP POP POP POP POP POP POP JUMP JUMPDEST PUSH1 0x3 DUP2 DUP2 SLOAD DUP2 LT PUSH2 0xD4C JUMPI PUSH1 0x0 DUP1 REVERT JUMPDEST PUSH1 0x0 SWAP2 DUP3 MSTORE PUSH1 0x20 SWAP1 SWAP2 KECCAK256 ADD SLOAD PUSH1 0x1 PUSH1 0x1 PUSH1 0xA0 SHL SUB AND SWAP1 POP DUP2 JUMP JUMPDEST DUP1 PUSH1 0x0 DUP2 GT DUP1 ISZERO PUSH2 0xD78 JUMPI POP PUSH1 0x0 SLOAD DUP2 LT JUMPDEST PUSH2 0xD94 JUMPI PUSH1 0x40 MLOAD PUSH3 0x461BCD PUSH1 0xE5 SHL DUP2 MSTORE PUSH1 0x4 ADD PUSH2 0x6F2 SWAP1 PUSH2 0x22DA JUMP JUMPDEST DUP2 PUSH1 0x3 DUP1 PUSH1 0x0 DUP4 DUP2 MSTORE PUSH1 0x1 PUSH1 0x20 DUP2 SWAP1 MSTORE PUSH1 0x40 SWAP1 SWAP2 KECCAK256 ADD SLOAD PUSH1 0xFF AND PUSH1 0x4 DUP2 GT ISZERO PUSH2 0xDBF JUMPI PUSH2 0xDBF PUSH2 0x1E08 JUMP JUMPDEST EQ PUSH2 0xDDC JUMPI PUSH1 0x40 MLOAD PUSH3 0x461BCD PUSH1 0xE5 SHL DUP2 MSTORE PUSH1 0x4 ADD PUSH2 0x6F2 SWAP1 PUSH2 0x2345 JUMP JUMPDEST PUSH1 0x0 DUP5 DUP2 MSTORE PUSH1 0x1 PUSH1 0x20 MSTORE PUSH1 0x40 SWAP1 KECCAK256 PUSH1 0x5 DUP2 ADD SLOAD TIMESTAMP LT ISZERO PUSH2 0xE3E JUMPI PUSH1 0x40 MLOAD PUSH3 0x461BCD PUSH1 0xE5 SHL DUP2 MSTORE PUSH1 0x20 PUSH1 0x4 DUP3 ADD MSTORE PUSH1 0x1F PUSH1 0x24 DUP3 ADD MSTORE PUSH32 0x5265736F6C7574696F6E20646561646C696E65206E6F74207265616368656400 PUSH1 0x44 DUP3 ADD MSTORE PUSH1 0x64 ADD PUSH2 0x6F2 JUMP JUMPDEST PUSH1 0x0 JUMPDEST PUSH1 0x6 DUP3 ADD SLOAD DUP2 LT ISZERO PUSH2 0x1065 JUMPI PUSH1 0x0 DUP3 PUSH1 0x6 ADD DUP3 DUP2 SLOAD DUP2 LT PUSH2 0xE64 JUMPI PUSH2 0xE64 PUSH2 0x23D7 JUMP JUMPDEST PUSH1 0x0 SWAP2 DUP3 MSTORE PUSH1 0x20 DUP1 DUP4 KECCAK256 SWAP1 SWAP2 ADD SLOAD PUSH1 0x1 PUSH1 0x1 PUSH1 0xA0 SHL SUB AND DUP1 DUP4 MSTORE PUSH1 0x8 DUP7 ADD SWAP1 SWAP2 MSTORE PUSH1 0x40 SWAP1 SWAP2 KECCAK256 PUSH1 0x5 DUP2 ADD SLOAD SWAP2 SWAP3 POP SWAP1 PUSH1 0xFF AND PUSH2 0xEA1 JUMPI POP POP PUSH2 0x105D JUMP JUMPDEST PUSH1 0x0 DUP1 JUMPDEST PUSH1 0x3 DUP2 LT ISZERO PUSH2 0xF85 JUMPI PUSH1 0x0 DUP4 PUSH1 0x1 ADD DUP3 PUSH1 0x3 DUP2 LT PUSH2 0xEC5 JUMPI PUSH2 0xEC5 PUSH2 0x23D7 JUMP JUMPDEST ADD SLOAD PUSH1 0x0 DUP2 DUP2 MSTORE PUSH1 0x9 DUP10 ADD PUSH1 0x20 MSTORE PUSH1 0x40 SWAP1 KECCAK256 PUSH1 0x1 ADD SLOAD SWAP1 SWAP2 POP PUSH1 0xFF AND PUSH2 0xF5C JUMPI PUSH1 0x0 PUSH2 0xEF1 DUP13 DUP4 PUSH2 0x190B JUMP JUMPDEST SWAP1 POP PUSH1 0x0 DUP2 PUSH2 0xF01 JUMPI PUSH1 0x0 PUSH2 0xF0A JUMP JUMPDEST PUSH2 0xF0A DUP4 PUSH2 0x1914 JUMP JUMPDEST PUSH1 0x40 DUP1 MLOAD PUSH1 0x60 DUP2 ADD DUP3 MSTORE DUP6 DUP2 MSTORE SWAP4 ISZERO ISZERO PUSH1 0x20 DUP1 DUP7 ADD SWAP2 DUP3 MSTORE DUP6 DUP4 ADD SWAP4 DUP5 MSTORE PUSH1 0x0 DUP8 DUP2 MSTORE PUSH1 0x9 DUP15 ADD SWAP1 SWAP2 MSTORE SWAP2 SWAP1 SWAP2 KECCAK256 SWAP4 MLOAD DUP5 SSTORE MLOAD PUSH1 0x1 DUP5 ADD DUP1 SLOAD PUSH1 0xFF NOT AND SWAP2 ISZERO ISZERO SWAP2 SWAP1 SWAP2 OR SWAP1 SSTORE MLOAD PUSH1 0x2 SWAP1 SWAP3 ADD SWAP2 SWAP1 SWAP2 SSTORE POP JUMPDEST PUSH1 0x0 DUP2 DUP2 MSTORE PUSH1 0x9 DUP9 ADD PUSH1 0x20 MSTORE PUSH1 0x40 SWAP1 KECCAK256 PUSH1 0x2 ADD SLOAD PUSH2 0xF7A SWAP1 DUP5 PUSH2 0x2332 JUMP JUMPDEST SWAP3 POP POP PUSH1 0x1 ADD PUSH2 0xEA5 JUMP JUMPDEST POP PUSH1 0x1 PUSH1 0x1 PUSH1 0xA0 SHL SUB DUP4 AND PUSH1 0x0 SWAP1 DUP2 MSTORE PUSH1 0x2 PUSH1 0x20 MSTORE PUSH1 0x40 DUP2 KECCAK256 PUSH1 0x1 ADD DUP1 SLOAD DUP4 SWAP3 SWAP1 PUSH2 0xFB1 SWAP1 DUP5 SWAP1 PUSH2 0x2332 JUMP JUMPDEST SWAP1 SWAP2 SSTORE POP POP PUSH1 0x1 PUSH1 0x1 PUSH1 0xA0 SHL SUB DUP4 AND PUSH1 0x0 SWAP1 DUP2 MSTORE PUSH1 0x2 PUSH1 0x20 DUP2 SWAP1 MSTORE PUSH1 0x40 DUP3 KECCAK256 ADD DUP1 SLOAD SWAP2 PUSH2 0xFDD DUP4 PUSH2 0x2319 JUMP JUMPDEST SWAP1 SWAP2 SSTORE POP POP DUP1 ISZERO PUSH2 0x1015 JUMPI PUSH1 0x1 PUSH1 0x1 PUSH1 0xA0 SHL SUB DUP4 AND PUSH1 0x0 SWAP1 DUP2 MSTORE PUSH1 0x2 PUSH1 0x20 MSTORE PUSH1 0x40 DUP2 KECCAK256 PUSH1 0x3 ADD DUP1 SLOAD SWAP2 PUSH2 0x100F DUP4 PUSH2 0x2319 JUMP JUMPDEST SWAP2 SWAP1 POP SSTORE POP JUMPDEST DUP3 PUSH1 0x1 PUSH1 0x1 PUSH1 0xA0 SHL SUB AND DUP10 PUSH32 0xDBADCE3C07B5BC30EBBE2BCEC3D6BB95F9B3A0BB33178FF0D61E4D7D4339915 DUP4 PUSH1 0x40 MLOAD PUSH2 0x1051 SWAP2 DUP2 MSTORE PUSH1 0x20 ADD SWAP1 JUMP JUMPDEST PUSH1 0x40 MLOAD DUP1 SWAP2 SUB SWAP1 LOG3 POP POP POP JUMPDEST PUSH1 0x1 ADD PUSH2 0xE41 JUMP JUMPDEST POP PUSH1 0x1 DUP2 ADD DUP1 SLOAD PUSH1 0xFF NOT AND PUSH1 0x4 OR SWAP1 SSTORE PUSH1 0x0 JUMPDEST PUSH1 0x6 DUP3 ADD SLOAD DUP2 LT ISZERO PUSH2 0x1111 JUMPI DUP6 PUSH1 0x4 PUSH1 0x0 DUP5 PUSH1 0x6 ADD DUP5 DUP2 SLOAD DUP2 LT PUSH2 0x109E JUMPI PUSH2 0x109E PUSH2 0x23D7 JUMP JUMPDEST PUSH1 0x0 SWAP2 DUP3 MSTORE PUSH1 0x20 DUP1 DUP4 KECCAK256 SWAP1 SWAP2 ADD SLOAD PUSH1 0x1 PUSH1 0x1 PUSH1 0xA0 SHL SUB AND DUP4 MSTORE DUP3 ADD SWAP3 SWAP1 SWAP3 MSTORE PUSH1 0x40 ADD SWAP1 KECCAK256 SLOAD SUB PUSH2 0x1109 JUMPI PUSH1 0x0 PUSH1 0x4 PUSH1 0x0 DUP5 PUSH1 0x6 ADD DUP5 DUP2 SLOAD DUP2 LT PUSH2 0x10E3 JUMPI PUSH2 0x10E3 PUSH2 0x23D7 JUMP JUMPDEST PUSH1 0x0 SWAP2 DUP3 MSTORE PUSH1 0x20 DUP1 DUP4 KECCAK256 SWAP1 SWAP2 ADD SLOAD PUSH1 0x1 PUSH1 0x1 PUSH1 0xA0 SHL SUB AND DUP4 MSTORE DUP3 ADD SWAP3 SWAP1 SWAP3 MSTORE PUSH1 0x40 ADD SWAP1 KECCAK256 SSTORE JUMPDEST PUSH1 0x1 ADD PUSH2 0x1078 JUMP JUMPDEST POP PUSH1 0x40 MLOAD DUP6 SWAP1 PUSH32 0xCE24807F7E4B60B4E641462F13029FA5E5F79075BBC3F8E5CD43ECD19661D760 SWAP1 PUSH1 0x0 SWAP1 LOG2 POP POP POP POP POP JUMP JUMPDEST DUP2 PUSH1 0x0 DUP2 GT DUP1 ISZERO PUSH2 0x1156 JUMPI POP PUSH1 0x0 SLOAD DUP2 LT JUMPDEST PUSH2 0x1172 JUMPI PUSH1 0x40 MLOAD PUSH3 0x461BCD PUSH1 0xE5 SHL DUP2 MSTORE PUSH1 0x4 ADD PUSH2 0x6F2 SWAP1 PUSH2 0x22DA JUMP JUMPDEST DUP3 PUSH1 0x0 DUP1 PUSH1 0x0 DUP4 DUP2 MSTORE PUSH1 0x1 PUSH1 0x20 DUP2 SWAP1 MSTORE PUSH1 0x40 SWAP1 SWAP2 KECCAK256 ADD SLOAD PUSH1 0xFF AND PUSH1 0x4 DUP2 GT ISZERO PUSH2 0x119D JUMPI PUSH2 0x119D PUSH2 0x1E08 JUMP JUMPDEST EQ PUSH2 0x11BA JUMPI PUSH1 0x40 MLOAD PUSH3 0x461BCD PUSH1 0xE5 SHL DUP2 MSTORE PUSH1 0x4 ADD PUSH2 0x6F2 SWAP1 PUSH2 0x2345 JUMP JUMPDEST PUSH1 0x0 DUP6 DUP2 MSTORE PUSH1 0x1 PUSH1 0x20 MSTORE PUSH1 0x40 SWAP1 KECCAK256 PUSH1 0x3 DUP2 ADD SLOAD TIMESTAMP LT ISZERO PUSH2 0x1214 JUMPI PUSH1 0x40 MLOAD PUSH3 0x461BCD PUSH1 0xE5 SHL DUP2 MSTORE PUSH1 0x20 PUSH1 0x4 DUP3 ADD MSTORE PUSH1 0x15 PUSH1 0x24 DUP3 ADD MSTORE PUSH21 0x10D85B9B9BDD081CDD185C9D0819D85B59481E595D PUSH1 0x5A SHL PUSH1 0x44 DUP3 ADD MSTORE PUSH1 0x64 ADD PUSH2 0x6F2 JUMP JUMPDEST PUSH2 0x121E DUP7 DUP7 PUSH2 0x1A3C JUMP JUMPDEST POP POP POP POP POP POP JUMP JUMPDEST DUP1 PUSH1 0x0 DUP2 GT DUP1 ISZERO PUSH2 0x1238 JUMPI POP PUSH1 0x0 SLOAD DUP2 LT JUMPDEST PUSH2 0x1254 JUMPI PUSH1 0x40 MLOAD PUSH3 0x461BCD PUSH1 0xE5 SHL DUP2 MSTORE PUSH1 0x4 ADD PUSH2 0x6F2 SWAP1 PUSH2 0x22DA JUMP JUMPDEST DUP2 PUSH1 0x0 DUP1 PUSH1 0x0 DUP4 DUP2 MSTORE PUSH1 0x1 PUSH1 0x20 DUP2 SWAP1 MSTORE PUSH1 0x40 SWAP1 SWAP2 KECCAK256 ADD SLOAD PUSH1 0xFF AND PUSH1 0x4 DUP2 GT ISZERO PUSH2 0x127F JUMPI PUSH2 0x127F PUSH2 0x1E08 JUMP JUMPDEST EQ PUSH2 0x129C JUMPI PUSH1 0x40 MLOAD PUSH3 0x461BCD PUSH1 0xE5 SHL DUP2 MSTORE PUSH1 0x4 ADD PUSH2 0x6F2 SWAP1 PUSH2 0x2345 JUMP JUMPDEST PUSH1 0x0 DUP5 DUP2 MSTORE PUSH1 0x1 PUSH1 0x20 MSTORE PUSH1 0x40 SWAP1 KECCAK256 PUSH1 0x3 DUP2 ADD SLOAD TIMESTAMP GT ISZERO PUSH2 0x12ED JUMPI PUSH1 0x40 MLOAD PUSH3 0x461BCD PUSH1 0xE5 SHL DUP2 MSTORE PUSH1 0x20 PUSH1 0x4 DUP3 ADD MSTORE PUSH1 0xC PUSH1 0x24 DUP3 ADD MSTORE PUSH12 0x131BD8989E4818DB1BDCD959 PUSH1 0xA2 SHL PUSH1 0x44 DUP3 ADD MSTORE PUSH1 0x64 ADD PUSH2 0x6F2 JUMP JUMPDEST PUSH1 0x0 JUMPDEST PUSH1 0x6 DUP3 ADD SLOAD DUP2 LT ISZERO PUSH2 0x1376 JUMPI CALLER PUSH1 0x1 PUSH1 0x1 PUSH1 0xA0 SHL SUB AND DUP3 PUSH1 0x6 ADD DUP3 DUP2 SLOAD DUP2 LT PUSH2 0x131B JUMPI PUSH2 0x131B PUSH2 0x23D7 JUMP JUMPDEST PUSH1 0x0 SWAP2 DUP3 MSTORE PUSH1 0x20 SWAP1 SWAP2 KECCAK256 ADD SLOAD PUSH1 0x1 PUSH1 0x1 PUSH1 0xA0 SHL SUB AND SUB PUSH2 0x136E JUMPI PUSH1 0x40 MLOAD PUSH3 0x461BCD PUSH1 0xE5 SHL DUP2 MSTORE PUSH1 0x20 PUSH1 0x4 DUP3 ADD MSTORE PUSH1 0xE PUSH1 0x24 DUP3 ADD MSTORE PUSH14 0x105B1C9958591E481A9BDA5B9959 PUSH1 0x92 SHL PUSH1 0x44 DUP3 ADD MSTORE PUSH1 0x64 ADD PUSH2 0x6F2 JUMP JUMPDEST PUSH1 0x1 ADD PUSH2 0x12F0 JUMP JUMPDEST POP CALLER PUSH1 0x0 SWAP1 DUP2 MSTORE PUSH1 0x4 PUSH1 0x20 MSTORE PUSH1 0x40 SWAP1 KECCAK256 SLOAD DUP1 ISZERO DUP1 ISZERO SWAP1 PUSH2 0x1396 JUMPI POP DUP6 DUP2 EQ ISZERO JUMPDEST ISZERO PUSH2 0x141F JUMPI PUSH1 0x0 DUP2 DUP2 MSTORE PUSH1 0x1 PUSH1 0x20 MSTORE PUSH1 0x40 SWAP1 KECCAK256 PUSH1 0x4 PUSH1 0x1 DUP3 ADD SLOAD PUSH1 0xFF AND PUSH1 0x4 DUP2 GT ISZERO PUSH2 0x13C4 JUMPI PUSH2 0x13C4 PUSH2 0x1E08 JUMP JUMPDEST EQ PUSH2 0x140D JUMPI PUSH1 0x40 MLOAD PUSH3 0x461BCD PUSH1 0xE5 SHL DUP2 MSTORE PUSH1 0x20 PUSH1 0x4 DUP3 ADD MSTORE PUSH1 0x19 PUSH1 0x24 DUP3 ADD MSTORE PUSH25 0x416C726561647920696E20616E206163746976652067616D65 PUSH1 0x38 SHL PUSH1 0x44 DUP3 ADD MSTORE PUSH1 0x64 ADD PUSH2 0x6F2 JUMP JUMPDEST POP CALLER PUSH1 0x0 SWAP1 DUP2 MSTORE PUSH1 0x4 PUSH1 0x20 MSTORE PUSH1 0x40 DUP2 KECCAK256 SSTORE JUMPDEST PUSH1 0x6 DUP3 ADD DUP1 SLOAD PUSH1 0x1 DUP2 ADD DUP3 SSTORE PUSH1 0x0 SWAP2 DUP3 MSTORE PUSH1 0x20 DUP1 DUP4 KECCAK256 SWAP1 SWAP2 ADD DUP1 SLOAD PUSH1 0x1 PUSH1 0x1 PUSH1 0xA0 SHL SUB NOT AND CALLER SWAP1 DUP2 OR SWAP1 SWAP2 SSTORE DUP1 DUP4 MSTORE PUSH1 0x4 SWAP1 SWAP2 MSTORE PUSH1 0x40 DUP1 DUP4 KECCAK256 DUP10 SWAP1 SSTORE MLOAD SWAP1 SWAP2 DUP9 SWAP2 PUSH32 0x87969BC7FAF902221A147B95CEBA76E011C5EFB0339A0A8EE7A2BB82D9CFBBD6 SWAP2 SWAP1 LOG3 POP POP POP POP POP POP JUMP JUMPDEST DUP2 PUSH1 0x0 DUP2 GT DUP1 ISZERO PUSH2 0x149E JUMPI POP PUSH1 0x0 SLOAD DUP2 LT JUMPDEST PUSH2 0x14BA JUMPI PUSH1 0x40 MLOAD PUSH3 0x461BCD PUSH1 0xE5 SHL DUP2 MSTORE PUSH1 0x4 ADD PUSH2 0x6F2 SWAP1 PUSH2 0x22DA JUMP JUMPDEST DUP3 PUSH1 0x2 DUP1 PUSH1 0x0 DUP4 DUP2 MSTORE PUSH1 0x1 PUSH1 0x20 DUP2 SWAP1 MSTORE PUSH1 0x40 SWAP1 SWAP2 KECCAK256 ADD SLOAD PUSH1 0xFF AND PUSH1 0x4 DUP2 GT ISZERO PUSH2 0x14E5 JUMPI PUSH2 0x14E5 PUSH2 0x1E08 JUMP JUMPDEST EQ PUSH2 0x1502 JUMPI PUSH1 0x40 MLOAD PUSH3 0x461BCD PUSH1 0xE5 SHL DUP2 MSTORE PUSH1 0x4 ADD PUSH2 0x6F2 SWAP1 PUSH2 0x2345 JUMP JUMPDEST PUSH1 0x0 DUP6 DUP2 MSTORE PUSH1 0x1 PUSH1 0x20 MSTORE PUSH1 0x40 SWAP1 KECCAK256 PUSH1 0x4 DUP2 ADD SLOAD TIMESTAMP GT ISZERO PUSH2 0x155D JUMPI PUSH1 0x40 MLOAD PUSH3 0x461BCD PUSH1 0xE5 SHL DUP2 MSTORE PUSH1 0x20 PUSH1 0x4 DUP3 ADD MSTORE PUSH1 0x16 PUSH1 0x24 DUP3 ADD MSTORE PUSH22 0x10DA1BDA58D948191958591B1A5B99481C185CDCD959 PUSH1 0x52 SHL PUSH1 0x44 DUP3 ADD MSTORE PUSH1 0x64 ADD PUSH2 0x6F2 JUMP JUMPDEST CALLER PUSH1 0x0 SWAP1 DUP2 MSTORE PUSH1 0x8 DUP3 ADD PUSH1 0x20 MSTORE PUSH1 0x40 SWAP1 KECCAK256 PUSH1 0x5 ADD SLOAD PUSH1 0xFF AND ISZERO PUSH2 0x15B6 JUMPI PUSH1 0x40 MLOAD PUSH3 0x461BCD PUSH1 0xE5 SHL DUP2 MSTORE PUSH1 0x20 PUSH1 0x4 DUP3 ADD MSTORE PUSH1 0x11 PUSH1 0x24 DUP3 ADD MSTORE PUSH17 0x105B1C9958591E4818DBDB5B5A5D1D1959 PUSH1 0x7A SHL PUSH1 0x44 DUP3 ADD MSTORE PUSH1 0x64 ADD PUSH2 0x6F2 JUMP JUMPDEST PUSH1 0x0 DUP1 JUMPDEST PUSH1 0x6 DUP4 ADD SLOAD DUP2 LT ISZERO PUSH2 0x1610 JUMPI CALLER PUSH1 0x1 PUSH1 0x1 PUSH1 0xA0 SHL SUB AND DUP4 PUSH1 0x6 ADD DUP3 DUP2 SLOAD DUP2 LT PUSH2 0x15E5 JUMPI PUSH2 0x15E5 PUSH2 0x23D7 JUMP JUMPDEST PUSH1 0x0 SWAP2 DUP3 MSTORE PUSH1 0x20 SWAP1 SWAP2 KECCAK256 ADD SLOAD PUSH1 0x1 PUSH1 0x1 PUSH1 0xA0 SHL SUB AND SUB PUSH2 0x1608 JUMPI PUSH1 0x1 SWAP2 POP PUSH2 0x1610 JUMP JUMPDEST PUSH1 0x1 ADD PUSH2 0x15BA JUMP JUMPDEST POP DUP1 PUSH2 0x165E JUMPI PUSH1 0x40 MLOAD PUSH3 0x461BCD PUSH1 0xE5 SHL DUP2 MSTORE PUSH1 0x20 PUSH1 0x4 DUP3 ADD MSTORE PUSH1 0x19 PUSH1 0x24 DUP3 ADD MSTORE PUSH32 0x4E6F74206120706C6179657220696E20746869732067616D6500000000000000 PUSH1 0x44 DUP3 ADD MSTORE PUSH1 0x64 ADD PUSH2 0x6F2 JUMP JUMPDEST PUSH1 0x0 JUMPDEST PUSH1 0x3 DUP2 LT ISZERO PUSH2 0x1714 JUMPI PUSH1 0x0 DUP1 JUMPDEST PUSH1 0x7 DUP6 ADD SLOAD DUP2 LT ISZERO PUSH2 0x16C7 JUMPI DUP9 DUP4 PUSH1 0x3 DUP2 LT PUSH2 0x168C JUMPI PUSH2 0x168C PUSH2 0x23D7 JUMP JUMPDEST PUSH1 0x20 MUL ADD MLOAD DUP6 PUSH1 0x7 ADD DUP3 DUP2 SLOAD DUP2 LT PUSH2 0x16A6 JUMPI PUSH2 0x16A6 PUSH2 0x23D7 JUMP JUMPDEST SWAP1 PUSH1 0x0 MSTORE PUSH1 0x20 PUSH1 0x0 KECCAK256 ADD SLOAD SUB PUSH2 0x16BF JUMPI PUSH1 0x1 SWAP2 POP PUSH2 0x16C7 JUMP JUMPDEST PUSH1 0x1 ADD PUSH2 0x166E JUMP JUMPDEST POP DUP1 PUSH2 0x170B JUMPI PUSH1 0x40 MLOAD PUSH3 0x461BCD PUSH1 0xE5 SHL DUP2 MSTORE PUSH1 0x20 PUSH1 0x4 DUP3 ADD MSTORE PUSH1 0x13 PUSH1 0x24 DUP3 ADD MSTORE PUSH19 0x24B73B30B634B21031B0B93210373AB6B132B9 PUSH1 0x69 SHL PUSH1 0x44 DUP3 ADD MSTORE PUSH1 0x64 ADD PUSH2 0x6F2 JUMP JUMPDEST POP PUSH1 0x1 ADD PUSH2 0x1661 JUMP JUMPDEST POP PUSH1 0x40 DUP1 MLOAD PUSH1 0x80 DUP2 ADD DUP3 MSTORE CALLER DUP1 DUP3 MSTORE PUSH1 0x20 DUP1 DUP4 ADD DUP11 DUP2 MSTORE TIMESTAMP DUP5 DUP7 ADD MSTORE PUSH1 0x1 PUSH1 0x60 DUP6 ADD DUP2 SWAP1 MSTORE PUSH1 0x0 SWAP4 DUP5 MSTORE PUSH1 0x8 DUP9 ADD SWAP1 SWAP3 MSTORE SWAP4 SWAP1 SWAP2 KECCAK256 DUP3 MLOAD DUP2 SLOAD PUSH1 0x1 PUSH1 0x1 PUSH1 0xA0 SHL SUB NOT AND PUSH1 0x1 PUSH1 0x1 PUSH1 0xA0 SHL SUB SWAP1 SWAP2 AND OR DUP2 SSTORE SWAP3 MLOAD SWAP2 SWAP3 SWAP2 PUSH2 0x1778 SWAP2 DUP4 ADD SWAP1 PUSH1 0x3 PUSH2 0x1D0D JUMP JUMPDEST POP PUSH1 0x40 DUP3 DUP2 ADD MLOAD PUSH1 0x4 DUP4 ADD SSTORE PUSH1 0x60 SWAP1 SWAP3 ADD MLOAD PUSH1 0x5 SWAP1 SWAP2 ADD DUP1 SLOAD PUSH1 0xFF NOT AND SWAP2 ISZERO ISZERO SWAP2 SWAP1 SWAP2 OR SWAP1 SSTORE MLOAD CALLER SWAP1 DUP9 SWAP1 PUSH32 0xD67DE08BD4BA5B6A6548667370488A8781753615ACB89AE1AC1F96F6C270ECF0 SWAP1 PUSH2 0x17D0 SWAP1 DUP11 SWAP1 PUSH2 0x23ED JUMP JUMPDEST PUSH1 0x40 MLOAD DUP1 SWAP2 SUB SWAP1 LOG3 PUSH1 0x1 PUSH1 0x0 JUMPDEST PUSH1 0x6 DUP5 ADD SLOAD DUP2 LT ISZERO PUSH2 0x1844 JUMPI DUP4 PUSH1 0x8 ADD PUSH1 0x0 DUP6 PUSH1 0x6 ADD DUP4 DUP2 SLOAD DUP2 LT PUSH2 0x1804 JUMPI PUSH2 0x1804 PUSH2 0x23D7 JUMP JUMPDEST PUSH1 0x0 SWAP2 DUP3 MSTORE PUSH1 0x20 DUP1 DUP4 KECCAK256 SWAP1 SWAP2 ADD SLOAD PUSH1 0x1 PUSH1 0x1 PUSH1 0xA0 SHL SUB AND DUP4 MSTORE DUP3 ADD SWAP3 SWAP1 SWAP3 MSTORE PUSH1 0x40 ADD SWAP1 KECCAK256 PUSH1 0x5 ADD SLOAD PUSH1 0xFF AND PUSH2 0x183C JUMPI PUSH1 0x0 SWAP2 POP PUSH2 0x1844 JUMP JUMPDEST PUSH1 0x1 ADD PUSH2 0x17DD JUMP JUMPDEST POP DUP1 DUP1 PUSH2 0x1855 JUMPI POP DUP3 PUSH1 0x4 ADD SLOAD TIMESTAMP LT ISZERO JUMPDEST ISZERO PUSH2 0x187B JUMPI PUSH1 0x1 DUP4 ADD DUP1 SLOAD PUSH1 0xFF NOT AND PUSH1 0x3 OR SWAP1 SSTORE PUSH2 0x1875 PUSH2 0x258 TIMESTAMP PUSH2 0x2332 JUMP JUMPDEST PUSH1 0x5 DUP5 ADD SSTORE JUMPDEST POP POP POP POP POP POP POP POP JUMP JUMPDEST PUSH1 0x0 DUP1 PUSH1 0x0 DUP1 PUSH1 0x0 DUP1 PUSH1 0x0 DUP8 PUSH1 0x0 DUP2 GT DUP1 ISZERO PUSH2 0x18A2 JUMPI POP PUSH1 0x0 SLOAD DUP2 LT JUMPDEST PUSH2 0x18BE JUMPI PUSH1 0x40 MLOAD PUSH3 0x461BCD PUSH1 0xE5 SHL DUP2 MSTORE PUSH1 0x4 ADD PUSH2 0x6F2 SWAP1 PUSH2 0x22DA JUMP JUMPDEST POP POP POP PUSH1 0x0 SWAP6 DUP7 MSTORE POP POP PUSH1 0x1 PUSH1 0x20 DUP2 SWAP1 MSTORE PUSH1 0x40 SWAP1 SWAP5 KECCAK256 SWAP4 DUP5 ADD SLOAD PUSH1 0x2 DUP6 ADD SLOAD PUSH1 0x3 DUP7 ADD SLOAD PUSH1 0x4 DUP8 ADD SLOAD PUSH1 0x5 DUP9 ADD SLOAD PUSH1 0x6 DUP10 ADD SLOAD PUSH1 0x7 SWAP1 SWAP10 ADD SLOAD PUSH1 0xFF SWAP1 SWAP6 AND SWAP10 SWAP4 SWAP9 SWAP3 SWAP8 POP SWAP1 SWAP6 POP SWAP4 POP SWAP2 SWAP1 JUMP JUMPDEST PUSH1 0x0 JUMPDEST SWAP3 SWAP2 POP POP JUMP JUMPDEST PUSH1 0x0 DUP1 PUSH1 0xA PUSH2 0x1923 DUP2 DUP6 PUSH2 0x2411 JUMP JUMPDEST PUSH2 0x192D SWAP2 SWAP1 PUSH2 0x2425 JUMP JUMPDEST SWAP1 POP PUSH1 0x0 PUSH2 0x193C PUSH1 0x7 DUP4 PUSH2 0x2425 JUMP JUMPDEST PUSH1 0x6 DUP2 GT ISZERO PUSH2 0x194D JUMPI PUSH2 0x194D PUSH2 0x1E08 JUMP JUMPDEST SWAP1 POP PUSH1 0x0 DUP2 PUSH1 0x6 DUP2 GT ISZERO PUSH2 0x1963 JUMPI PUSH2 0x1963 PUSH2 0x1E08 JUMP JUMPDEST EQ DUP1 PUSH2 0x1980 JUMPI POP PUSH1 0x1 DUP2 PUSH1 0x6 DUP2 GT ISZERO PUSH2 0x197E JUMPI PUSH2 0x197E PUSH2 0x1E08 JUMP JUMPDEST EQ JUMPDEST ISZERO PUSH2 0x198F JUMPI POP PUSH1 0xA SWAP4 SWAP3 POP POP POP JUMP JUMPDEST PUSH1 0x2 DUP2 PUSH1 0x6 DUP2 GT ISZERO PUSH2 0x19A3 JUMPI PUSH2 0x19A3 PUSH2 0x1E08 JUMP JUMPDEST EQ DUP1 PUSH2 0x19C0 JUMPI POP PUSH1 0x3 DUP2 PUSH1 0x6 DUP2 GT ISZERO PUSH2 0x19BE JUMPI PUSH2 0x19BE PUSH2 0x1E08 JUMP JUMPDEST EQ JUMPDEST ISZERO PUSH2 0x19CF JUMPI POP PUSH1 0xF SWAP4 SWAP3 POP POP POP JUMP JUMPDEST PUSH1 0x4 DUP2 PUSH1 0x6 DUP2 GT ISZERO PUSH2 0x19E3 JUMPI PUSH2 0x19E3 PUSH2 0x1E08 JUMP JUMPDEST EQ DUP1 PUSH2 0x1A00 JUMPI POP PUSH1 0x5 DUP2 PUSH1 0x6 DUP2 GT ISZERO PUSH2 0x19FE JUMPI PUSH2 0x19FE PUSH2 0x1E08 JUMP JUMPDEST EQ JUMPDEST ISZERO PUSH2 0x1A0F JUMPI POP PUSH1 0x12 SWAP4 SWAP3 POP POP POP JUMP JUMPDEST PUSH1 0x6 DUP2 PUSH1 0x6 DUP2 GT ISZERO PUSH2 0x1A23 JUMPI PUSH2 0x1A23 PUSH2 0x1E08 JUMP JUMPDEST SUB PUSH2 0x1A32 JUMPI POP PUSH1 0x14 SWAP4 SWAP3 POP POP POP JUMP JUMPDEST POP PUSH1 0x0 SWAP4 SWAP3 POP POP POP JUMP JUMPDEST PUSH1 0x0 DUP3 DUP2 MSTORE PUSH1 0x1 PUSH1 0x20 MSTORE PUSH1 0x40 DUP2 KECCAK256 SWAP1 PUSH1 0x1 DUP3 ADD SLOAD PUSH1 0xFF AND PUSH1 0x4 DUP2 GT ISZERO PUSH2 0x1A64 JUMPI PUSH2 0x1A64 PUSH2 0x1E08 JUMP JUMPDEST EQ PUSH2 0x1AA5 JUMPI PUSH1 0x40 MLOAD PUSH3 0x461BCD PUSH1 0xE5 SHL DUP2 MSTORE PUSH1 0x20 PUSH1 0x4 DUP3 ADD MSTORE PUSH1 0x11 PUSH1 0x24 DUP3 ADD MSTORE PUSH17 0x47616D65206E6F7420696E206C6F626279 PUSH1 0x78 SHL PUSH1 0x44 DUP3 ADD MSTORE PUSH1 0x64 ADD PUSH2 0x6F2 JUMP JUMPDEST PUSH2 0x1AAF DUP4 DUP4 PUSH2 0x1B10 JUMP JUMPDEST PUSH1 0x1 DUP2 ADD DUP1 SLOAD PUSH1 0xFF NOT AND PUSH1 0x2 OR SWAP1 SSTORE PUSH2 0x1AC9 PUSH1 0x3C TIMESTAMP PUSH2 0x2332 JUMP JUMPDEST PUSH1 0x4 DUP3 ADD SSTORE PUSH1 0x40 MLOAD DUP4 SWAP1 PUSH32 0x1E16023BC0E15B4AD55F8E37DCCF554D1451B0D26C8E55CD0E7E041EEA33C75D SWAP1 PUSH2 0x1B03 SWAP1 PUSH1 0x7 DUP6 ADD SWAP1 PUSH2 0x2439 JUMP JUMPDEST PUSH1 0x40 MLOAD DUP1 SWAP2 SUB SWAP1 LOG2 POP POP POP JUMP JUMPDEST PUSH1 0x0 DUP3 DUP2 MSTORE PUSH1 0x1 PUSH1 0x20 MSTORE PUSH1 0x40 SWAP1 KECCAK256 PUSH1 0x7 DUP2 ADD SLOAD ISZERO PUSH2 0x1B70 JUMPI PUSH1 0x40 MLOAD PUSH3 0x461BCD PUSH1 0xE5 SHL DUP2 MSTORE PUSH1 0x20 PUSH1 0x4 DUP3 ADD MSTORE PUSH1 0x17 PUSH1 0x24 DUP3 ADD MSTORE PUSH32 0x436172647320616C72656164792067656E657261746564000000000000000000 PUSH1 0x44 DUP3 ADD MSTORE PUSH1 0x64 ADD PUSH2 0x6F2 JUMP JUMPDEST DUP2 ISZERO PUSH2 0x1B84 JUMPI PUSH2 0x1B7F DUP4 PUSH2 0x1B8D JUMP JUMPDEST POP POP POP JUMP JUMPDEST PUSH2 0x1B7F DUP4 PUSH2 0x1C4A JUMP JUMPDEST PUSH1 0x0 DUP2 DUP2 MSTORE PUSH1 0x1 PUSH1 0x20 SWAP1 DUP2 MSTORE PUSH1 0x40 DUP1 DUP4 KECCAK256 DUP2 MLOAD PUSH2 0x140 DUP2 ADD DUP4 MSTORE PUSH2 0x4D2 DUP2 MSTORE PUSH2 0x162E SWAP4 DUP2 ADD SWAP4 SWAP1 SWAP4 MSTORE PUSH2 0x2334 SWAP2 DUP4 ADD SWAP2 SWAP1 SWAP2 MSTORE PUSH2 0xD80 PUSH1 0x60 DUP4 ADD MSTORE PUSH2 0x1ED2 PUSH1 0x80 DUP4 ADD MSTORE PUSH2 0x929 PUSH1 0xA0 DUP4 ADD MSTORE PUSH2 0x1A85 PUSH1 0xC0 DUP4 ADD MSTORE PUSH2 0x11D7 PUSH1 0xE0 DUP4 ADD MSTORE PUSH2 0x22C5 PUSH2 0x100 DUP4 ADD MSTORE PUSH2 0x54D PUSH2 0x120 DUP4 ADD MSTORE SWAP2 JUMPDEST PUSH1 0xA DUP2 LT ISZERO PUSH2 0x1C44 JUMPI DUP3 PUSH1 0x7 ADD DUP3 DUP3 PUSH1 0xA DUP2 LT PUSH2 0x1C1B JUMPI PUSH2 0x1C1B PUSH2 0x23D7 JUMP JUMPDEST PUSH1 0x20 SWAP1 DUP2 MUL SWAP2 SWAP1 SWAP2 ADD MLOAD DUP3 SLOAD PUSH1 0x1 DUP2 DUP2 ADD DUP6 SSTORE PUSH1 0x0 SWAP5 DUP6 MSTORE SWAP3 SWAP1 SWAP4 KECCAK256 SWAP1 SWAP3 ADD SWAP2 SWAP1 SWAP2 SSTORE ADD PUSH2 0x1BFC JUMP JUMPDEST POP POP POP POP JUMP JUMPDEST PUSH1 0x0 DUP2 DUP2 MSTORE PUSH1 0x1 PUSH1 0x20 MSTORE PUSH1 0x40 DUP2 KECCAK256 SWAP1 JUMPDEST PUSH1 0xA DUP2 LT ISZERO PUSH2 0x1B7F JUMPI PUSH1 0x40 DUP1 MLOAD TIMESTAMP PUSH1 0x20 DUP3 ADD MSTORE PREVRANDAO SWAP2 DUP2 ADD SWAP2 SWAP1 SWAP2 MSTORE PUSH1 0x60 DUP1 DUP3 ADD DUP6 SWAP1 MSTORE PUSH1 0x80 DUP3 ADD DUP4 SWAP1 MSTORE CALLER SWAP1 SHL PUSH12 0xFFFFFFFFFFFFFFFFFFFFFFFF NOT AND PUSH1 0xA0 DUP3 ADD MSTORE PUSH1 0x0 SWAP1 PUSH2 0x2710 SWAP1 PUSH1 0xB4 ADD PUSH1 0x40 MLOAD PUSH1 0x20 DUP2 DUP4 SUB SUB DUP2 MSTORE SWAP1 PUSH1 0x40 MSTORE DUP1 MLOAD SWAP1 PUSH1 0x20 ADD KECCAK256 PUSH1 0x0 SHR PUSH2 0x1CC8 SWAP2 SWAP1 PUSH2 0x2425 JUMP JUMPDEST PUSH1 0x7 DUP5 ADD DUP1 SLOAD PUSH1 0x1 DUP2 DUP2 ADD DUP4 SSTORE PUSH1 0x0 SWAP3 DUP4 MSTORE PUSH1 0x20 SWAP1 SWAP3 KECCAK256 ADD SWAP2 SWAP1 SWAP2 SSTORE SWAP2 SWAP1 SWAP2 ADD SWAP1 POP PUSH2 0x1C5A JUMP JUMPDEST PUSH1 0x40 MLOAD DUP1 PUSH1 0x60 ADD PUSH1 0x40 MSTORE DUP1 PUSH1 0x3 SWAP1 PUSH1 0x20 DUP3 MUL DUP1 CALLDATASIZE DUP4 CALLDATACOPY POP SWAP2 SWAP3 SWAP2 POP POP JUMP JUMPDEST DUP3 PUSH1 0x3 DUP2 ADD SWAP3 DUP3 ISZERO PUSH2 0x1D3B JUMPI SWAP2 PUSH1 0x20 MUL DUP3 ADD JUMPDEST DUP3 DUP2 GT ISZERO PUSH2 0x1D3B JUMPI DUP3 MLOAD DUP3 SSTORE SWAP2 PUSH1 0x20 ADD SWAP2 SWAP1 PUSH1 0x1 ADD SWAP1 PUSH2 0x1D20 JUMP JUMPDEST POP PUSH2 0x1D47 SWAP3 SWAP2 POP PUSH2 0x1D4B JUMP JUMPDEST POP SWAP1 JUMP JUMPDEST JUMPDEST DUP1 DUP3 GT ISZERO PUSH2 0x1D47 JUMPI PUSH1 0x0 DUP2 SSTORE PUSH1 0x1 ADD PUSH2 0x1D4C JUMP JUMPDEST DUP1 CALLDATALOAD PUSH1 0x1 PUSH1 0x1 PUSH1 0xA0 SHL SUB DUP2 AND DUP2 EQ PUSH2 0x1D77 JUMPI PUSH1 0x0 DUP1 REVERT JUMPDEST SWAP2 SWAP1 POP JUMP JUMPDEST PUSH1 0x0 DUP1 PUSH1 0x40 DUP4 DUP6 SUB SLT ISZERO PUSH2 0x1D8F JUMPI PUSH1 0x0 DUP1 REVERT JUMPDEST DUP3 CALLDATALOAD SWAP2 POP PUSH2 0x1D9F PUSH1 0x20 DUP5 ADD PUSH2 0x1D60 JUMP JUMPDEST SWAP1 POP SWAP3 POP SWAP3 SWAP1 POP JUMP JUMPDEST DUP1 PUSH1 0x0 JUMPDEST PUSH1 0x3 DUP2 LT ISZERO PUSH2 0x1C44 JUMPI DUP2 MLOAD DUP5 MSTORE PUSH1 0x20 SWAP4 DUP5 ADD SWAP4 SWAP1 SWAP2 ADD SWAP1 PUSH1 0x1 ADD PUSH2 0x1DAC JUMP JUMPDEST PUSH1 0xA0 DUP2 ADD PUSH2 0x1DD9 DUP3 DUP7 PUSH2 0x1DA8 JUMP JUMPDEST DUP4 PUSH1 0x60 DUP4 ADD MSTORE DUP3 ISZERO ISZERO PUSH1 0x80 DUP4 ADD MSTORE SWAP5 SWAP4 POP POP POP POP JUMP JUMPDEST PUSH1 0x0 PUSH1 0x20 DUP3 DUP5 SUB SLT ISZERO PUSH2 0x1E01 JUMPI PUSH1 0x0 DUP1 REVERT JUMPDEST POP CALLDATALOAD SWAP2 SWAP1 POP JUMP JUMPDEST PUSH4 0x4E487B71 PUSH1 0xE0 SHL PUSH1 0x0 MSTORE PUSH1 0x21 PUSH1 0x4 MSTORE PUSH1 0x24 PUSH1 0x0 REVERT JUMPDEST PUSH1 0x5 DUP2 LT PUSH2 0x1E3C JUMPI PUSH4 0x4E487B71 PUSH1 0xE0 SHL PUSH1 0x0 MSTORE PUSH1 0x21 PUSH1 0x4 MSTORE PUSH1 0x24 PUSH1 0x0 REVERT JUMPDEST SWAP1 MSTORE JUMP JUMPDEST DUP8 DUP2 MSTORE PUSH1 0xE0 DUP2 ADD PUSH2 0x1E54 PUSH1 0x20 DUP4 ADD DUP10 PUSH2 0x1E1E JUMP JUMPDEST PUSH1 0x40 DUP3 ADD SWAP7 SWAP1 SWAP7 MSTORE PUSH1 0x60 DUP2 ADD SWAP5 SWAP1 SWAP5 MSTORE PUSH1 0x80 DUP5 ADD SWAP3 SWAP1 SWAP3 MSTORE PUSH1 0xA0 DUP4 ADD MSTORE ISZERO ISZERO PUSH1 0xC0 SWAP1 SWAP2 ADD MSTORE SWAP3 SWAP2 POP POP JUMP JUMPDEST PUSH1 0x20 DUP1 DUP3 MSTORE DUP3 MLOAD DUP3 DUP3 ADD DUP2 SWAP1 MSTORE PUSH1 0x0 SWAP2 DUP5 ADD SWAP1 PUSH1 0x40 DUP5 ADD SWAP1 DUP4 JUMPDEST DUP2 DUP2 LT ISZERO PUSH2 0x1EC0 JUMPI DUP4 MLOAD PUSH1 0x1 PUSH1 0x1 PUSH1 0xA0 SHL SUB AND DUP4 MSTORE PUSH1 0x20 SWAP4 DUP5 ADD SWAP4 SWAP1 SWAP3 ADD SWAP2 PUSH1 0x1 ADD PUSH2 0x1E99 JUMP JUMPDEST POP SWAP1 SWAP6 SWAP5 POP POP POP POP POP JUMP JUMPDEST PUSH1 0x0 DUP2 MLOAD DUP1 DUP5 MSTORE PUSH1 0x0 JUMPDEST DUP2 DUP2 LT ISZERO PUSH2 0x1EF1 JUMPI PUSH1 0x20 DUP2 DUP6 ADD DUP2 ADD MLOAD DUP7 DUP4 ADD DUP3 ADD MSTORE ADD PUSH2 0x1ED5 JUMP JUMPDEST POP PUSH1 0x0 PUSH1 0x20 DUP3 DUP7 ADD ADD MSTORE PUSH1 0x20 PUSH1 0x1F NOT PUSH1 0x1F DUP4 ADD AND DUP6 ADD ADD SWAP2 POP POP SWAP3 SWAP2 POP POP JUMP JUMPDEST DUP3 ISZERO ISZERO DUP2 MSTORE PUSH1 0x40 PUSH1 0x20 DUP3 ADD MSTORE PUSH1 0x0 PUSH2 0x1F2C PUSH1 0x40 DUP4 ADD DUP5 PUSH2 0x1ECB JUMP JUMPDEST SWAP5 SWAP4 POP POP POP POP JUMP JUMPDEST PUSH1 0x0 DUP1 PUSH1 0x40 DUP4 DUP6 SUB SLT ISZERO PUSH2 0x1F47 JUMPI PUSH1 0x0 DUP1 REVERT JUMPDEST POP POP DUP1 CALLDATALOAD SWAP3 PUSH1 0x20 SWAP1 SWAP2 ADD CALLDATALOAD SWAP2 POP JUMP JUMPDEST PUSH1 0x0 PUSH1 0x20 DUP3 DUP5 SUB SLT ISZERO PUSH2 0x1F68 JUMPI PUSH1 0x0 DUP1 REVERT JUMPDEST PUSH2 0x1F71 DUP3 PUSH2 0x1D60 JUMP JUMPDEST SWAP4 SWAP3 POP POP POP JUMP JUMPDEST PUSH1 0x20 DUP1 DUP3 MSTORE DUP3 MLOAD DUP3 DUP3 ADD DUP2 SWAP1 MSTORE PUSH1 0x0 SWAP2 DUP5 ADD SWAP1 PUSH1 0x40 DUP5 ADD SWAP1 DUP4 JUMPDEST DUP2 DUP2 LT ISZERO PUSH2 0x1EC0 JUMPI DUP4 MLOAD DUP4 MSTORE PUSH1 0x20 SWAP4 DUP5 ADD SWAP4 SWAP1 SWAP3 ADD SWAP2 PUSH1 0x1 ADD PUSH2 0x1F92 JUMP JUMPDEST PUSH4 0x4E487B71 PUSH1 0xE0 SHL PUSH1 0x0 MSTORE PUSH1 0x41 PUSH1 0x4 MSTORE PUSH1 0x24 PUSH1 0x0 REVERT JUMPDEST PUSH1 0x40 MLOAD PUSH1 0x1F DUP3 ADD PUSH1 0x1F NOT AND DUP2 ADD PUSH8 0xFFFFFFFFFFFFFFFF DUP2 GT DUP3 DUP3 LT OR ISZERO PUSH2 0x1FEF JUMPI PUSH2 0x1FEF PUSH2 0x1FB0 JUMP JUMPDEST PUSH1 0x40 MSTORE SWAP2 SWAP1 POP JUMP JUMPDEST PUSH1 0x0 PUSH8 0xFFFFFFFFFFFFFFFF DUP3 GT ISZERO PUSH2 0x2011 JUMPI PUSH2 0x2011 PUSH2 0x1FB0 JUMP JUMPDEST POP PUSH1 0x5 SHL PUSH1 0x20 ADD SWAP1 JUMP JUMPDEST PUSH1 0x0 DUP3 PUSH1 0x1F DUP4 ADD SLT PUSH2 0x202C JUMPI PUSH1 0x0 DUP1 REVERT JUMPDEST DUP2 CALLDATALOAD PUSH2 0x203F PUSH2 0x203A DUP3 PUSH2 0x1FF7 JUMP JUMPDEST PUSH2 0x1FC6 JUMP JUMPDEST DUP1 DUP3 DUP3 MSTORE PUSH1 0x20 DUP3 ADD SWAP2 POP PUSH1 0x20 DUP4 PUSH1 0x5 SHL DUP7 ADD ADD SWAP3 POP DUP6 DUP4 GT ISZERO PUSH2 0x2061 JUMPI PUSH1 0x0 DUP1 REVERT JUMPDEST PUSH1 0x20 DUP6 ADD JUMPDEST DUP4 DUP2 LT ISZERO PUSH2 0x207E JUMPI DUP1 CALLDATALOAD DUP4 MSTORE PUSH1 0x20 SWAP3 DUP4 ADD SWAP3 ADD PUSH2 0x2066 JUMP JUMPDEST POP SWAP6 SWAP5 POP POP POP POP POP JUMP JUMPDEST PUSH1 0x0 DUP1 PUSH1 0x0 DUP1 PUSH1 0x80 DUP6 DUP8 SUB SLT ISZERO PUSH2 0x209E JUMPI PUSH1 0x0 DUP1 REVERT JUMPDEST DUP5 CALLDATALOAD SWAP4 POP PUSH1 0x20 DUP6 ADD CALLDATALOAD PUSH8 0xFFFFFFFFFFFFFFFF DUP2 GT ISZERO PUSH2 0x20BC JUMPI PUSH1 0x0 DUP1 REVERT JUMPDEST DUP6 ADD PUSH1 0x1F DUP2 ADD DUP8 SGT PUSH2 0x20CD JUMPI PUSH1 0x0 DUP1 REVERT JUMPDEST DUP1 CALLDATALOAD PUSH2 0x20DB PUSH2 0x203A DUP3 PUSH2 0x1FF7 JUMP JUMPDEST DUP1 DUP3 DUP3 MSTORE PUSH1 0x20 DUP3 ADD SWAP2 POP PUSH1 0x20 DUP4 PUSH1 0x5 SHL DUP6 ADD ADD SWAP3 POP DUP10 DUP4 GT ISZERO PUSH2 0x20FD JUMPI PUSH1 0x0 DUP1 REVERT JUMPDEST PUSH1 0x20 DUP5 ADD JUMPDEST DUP4 DUP2 LT ISZERO PUSH2 0x21A1 JUMPI DUP1 CALLDATALOAD PUSH8 0xFFFFFFFFFFFFFFFF DUP2 GT ISZERO PUSH2 0x2121 JUMPI PUSH1 0x0 DUP1 REVERT JUMPDEST DUP6 ADD PUSH1 0x3F DUP2 ADD DUP13 SGT PUSH2 0x2132 JUMPI PUSH1 0x0 DUP1 REVERT JUMPDEST PUSH1 0x20 DUP2 ADD CALLDATALOAD PUSH8 0xFFFFFFFFFFFFFFFF DUP2 GT ISZERO PUSH2 0x214F JUMPI PUSH2 0x214F PUSH2 0x1FB0 JUMP JUMPDEST PUSH2 0x2162 PUSH1 0x1F DUP3 ADD PUSH1 0x1F NOT AND PUSH1 0x20 ADD PUSH2 0x1FC6 JUMP JUMPDEST DUP2 DUP2 MSTORE PUSH1 0x40 DUP4 DUP4 ADD ADD DUP15 LT ISZERO PUSH2 0x2177 JUMPI PUSH1 0x0 DUP1 REVERT JUMPDEST DUP2 PUSH1 0x40 DUP5 ADD PUSH1 0x20 DUP4 ADD CALLDATACOPY PUSH1 0x0 PUSH1 0x20 DUP4 DUP4 ADD ADD MSTORE DUP1 DUP7 MSTORE POP POP POP PUSH1 0x20 DUP4 ADD SWAP3 POP PUSH1 0x20 DUP2 ADD SWAP1 POP PUSH2 0x2102 JUMP JUMPDEST POP SWAP6 POP POP POP POP PUSH1 0x40 DUP6 ADD CALLDATALOAD PUSH8 0xFFFFFFFFFFFFFFFF DUP2 GT ISZERO PUSH2 0x21C1 JUMPI PUSH1 0x0 DUP1 REVERT JUMPDEST PUSH2 0x21CD DUP8 DUP3 DUP9 ADD PUSH2 0x201B JUMP JUMPDEST SWAP5 SWAP8 SWAP4 SWAP7 POP SWAP4 SWAP5 PUSH1 0x60 ADD CALLDATALOAD SWAP4 POP POP POP JUMP JUMPDEST PUSH1 0x0 DUP1 PUSH1 0x40 DUP4 DUP6 SUB SLT ISZERO PUSH2 0x21F1 JUMPI PUSH1 0x0 DUP1 REVERT JUMPDEST DUP3 CALLDATALOAD SWAP2 POP PUSH1 0x20 DUP4 ADD CALLDATALOAD DUP1 ISZERO ISZERO DUP2 EQ PUSH2 0x2208 JUMPI PUSH1 0x0 DUP1 REVERT JUMPDEST DUP1 SWAP2 POP POP SWAP3 POP SWAP3 SWAP1 POP JUMP JUMPDEST PUSH1 0x0 DUP1 PUSH1 0x80 DUP4 DUP6 SUB SLT ISZERO PUSH2 0x2226 JUMPI PUSH1 0x0 DUP1 REVERT JUMPDEST DUP3 CALLDATALOAD SWAP2 POP PUSH1 0x3F DUP4 ADD DUP5 SGT PUSH2 0x2239 JUMPI PUSH1 0x0 DUP1 REVERT JUMPDEST PUSH1 0x40 MLOAD PUSH1 0x60 DUP2 ADD PUSH8 0xFFFFFFFFFFFFFFFF DUP2 GT DUP3 DUP3 LT OR ISZERO PUSH2 0x225C JUMPI PUSH2 0x225C PUSH2 0x1FB0 JUMP JUMPDEST PUSH1 0x40 MSTORE DUP1 PUSH1 0x80 DUP6 ADD DUP7 DUP2 GT ISZERO PUSH2 0x2271 JUMPI PUSH1 0x0 DUP1 REVERT JUMPDEST PUSH1 0x20 DUP7 ADD JUMPDEST DUP2 DUP2 LT ISZERO PUSH2 0x228E JUMPI DUP1 CALLDATALOAD DUP4 MSTORE PUSH1 0x20 SWAP3 DUP4 ADD SWAP3 ADD PUSH2 0x2276 JUMP JUMPDEST POP POP POP DUP1 SWAP2 POP POP SWAP3 POP SWAP3 SWAP1 POP JUMP JUMPDEST PUSH1 0xE0 DUP2 ADD PUSH2 0x22AA DUP3 DUP11 PUSH2 0x1E1E JUMP JUMPDEST DUP8 PUSH1 0x20 DUP4 ADD MSTORE DUP7 PUSH1 0x40 DUP4 ADD MSTORE DUP6 PUSH1 0x60 DUP4 ADD MSTORE DUP5 PUSH1 0x80 DUP4 ADD MSTORE DUP4 PUSH1 0xA0 DUP4 ADD MSTORE DUP3 PUSH1 0xC0 DUP4 ADD MSTORE SWAP9 SWAP8 POP POP POP POP POP POP POP POP JUMP JUMPDEST PUSH1 0x20 DUP1 DUP3 MSTORE PUSH1 0xF SWAP1 DUP3 ADD MSTORE PUSH15 0x125B9D985B1A590819D85B59481251 PUSH1 0x8A SHL PUSH1 0x40 DUP3 ADD MSTORE PUSH1 0x60 ADD SWAP1 JUMP JUMPDEST PUSH4 0x4E487B71 PUSH1 0xE0 SHL PUSH1 0x0 MSTORE PUSH1 0x11 PUSH1 0x4 MSTORE PUSH1 0x24 PUSH1 0x0 REVERT JUMPDEST PUSH1 0x0 PUSH1 0x1 DUP3 ADD PUSH2 0x232B JUMPI PUSH2 0x232B PUSH2 0x2303 JUMP JUMPDEST POP PUSH1 0x1 ADD SWAP1 JUMP JUMPDEST DUP1 DUP3 ADD DUP1 DUP3 GT ISZERO PUSH2 0x190E JUMPI PUSH2 0x190E PUSH2 0x2303 JUMP JUMPDEST PUSH1 0x20 DUP1 DUP3 MSTORE PUSH1 0x13 SWAP1 DUP3 ADD MSTORE PUSH19 0x496E76616C69642067616D6520737461747573 PUSH1 0x68 SHL PUSH1 0x40 DUP3 ADD MSTORE PUSH1 0x60 ADD SWAP1 JUMP JUMPDEST PUSH1 0x0 PUSH1 0x20 DUP3 ADD PUSH1 0x20 DUP4 MSTORE DUP1 DUP5 MLOAD DUP1 DUP4 MSTORE PUSH1 0x40 DUP6 ADD SWAP2 POP PUSH1 0x40 DUP2 PUSH1 0x5 SHL DUP7 ADD ADD SWAP3 POP PUSH1 0x20 DUP7 ADD PUSH1 0x0 JUMPDEST DUP3 DUP2 LT ISZERO PUSH2 0x23CB JUMPI PUSH1 0x3F NOT DUP8 DUP7 SUB ADD DUP5 MSTORE PUSH2 0x23B6 DUP6 DUP4 MLOAD PUSH2 0x1ECB JUMP JUMPDEST SWAP5 POP PUSH1 0x20 SWAP4 DUP5 ADD SWAP4 SWAP2 SWAP1 SWAP2 ADD SWAP1 PUSH1 0x1 ADD PUSH2 0x239A JUMP JUMPDEST POP SWAP3 SWAP7 SWAP6 POP POP POP POP POP POP JUMP JUMPDEST PUSH4 0x4E487B71 PUSH1 0xE0 SHL PUSH1 0x0 MSTORE PUSH1 0x32 PUSH1 0x4 MSTORE PUSH1 0x24 PUSH1 0x0 REVERT JUMPDEST PUSH1 0x60 DUP2 ADD PUSH2 0x190E DUP3 DUP5 PUSH2 0x1DA8 JUMP JUMPDEST PUSH4 0x4E487B71 PUSH1 0xE0 SHL PUSH1 0x0 MSTORE PUSH1 0x12 PUSH1 0x4 MSTORE PUSH1 0x24 PUSH1 0x0 REVERT JUMPDEST PUSH1 0x0 DUP3 PUSH2 0x2420 JUMPI PUSH2 0x2420 PUSH2 0x23FB JUMP JUMPDEST POP DIV SWAP1 JUMP JUMPDEST PUSH1 0x0 DUP3 PUSH2 0x2434 JUMPI PUSH2 0x2434 PUSH2 0x23FB JUMP JUMPDEST POP MOD SWAP1 JUMP JUMPDEST PUSH1 0x20 DUP1 DUP3 MSTORE DUP3 SLOAD DUP3 DUP3 ADD DUP2 SWAP1 MSTORE PUSH1 0x0 DUP5 DUP2 MSTORE SWAP2 DUP3 KECCAK256 SWAP1 PUSH1 0x40 DUP5 ADD SWAP1 DUP4 JUMPDEST DUP2 DUP2 LT ISZERO PUSH2 0x1EC0 JUMPI DUP4 SLOAD DUP4 MSTORE PUSH1 0x1 SWAP4 DUP5 ADD SWAP4 PUSH1 0x20 SWAP1 SWAP4 ADD SWAP3 ADD PUSH2 0x2456 JUMP INVALID LOG2 PUSH5 0x6970667358 0x22 SLT KECCAK256 SELFBALANCE PUSH10 0x4C47066CF4D52423CEA7 DUP10 0xB1 EXTCODECOPY SUB 0xB5 PUSH16 0x8BAFC8AC48B6A22D5C4D1BB508996473 PUSH16 0x6C634300081C00330000000000000000 "
        },
        "methodIdentifiers": {
          "CHOICE_DURATION()": "e5c43ef1",
          "LOBBY_DURATION()": "5c5c8382",
          "MIN_PLAYERS()": "85f07bbe",
          "POINTS_MARKET_CAP_VOLUME()": "b0fd159f",
          "POINTS_PERCENTAGE_CHANGE()": "1226897a",
          "POINTS_PRICE_ABOVE_BELOW()": "bee4c6d3",
          "POINTS_PRICE_UP_DOWN()": "e7fad8af",
          "RESOLUTION_DURATION()": "7ca90e59",
          "assetPriceIds(uint256)": "3c8aec3f",
          "canStartGame(uint256)": "392b749c",
          "commitChoices(uint256,uint256[3])": "f79c913e",
          "createGame()": "7255d729",
          "endGame(uint256)": "d0399bb8",
          "games(uint256)": "117a5b90",
          "getGameCards(uint256)": "860cbc77",
          "getGamePlayers(uint256)": "15a40f49",
          "getGameState(uint256)": "ffde0c74",
          "getNextGameId()": "ede8af01",
          "getPlayerChoices(uint256,address)": "10c28d31",
          "getPlayerScore(address)": "e085c539",
          "getPredictionResult(uint256,uint256)": "7f57504f",
          "isContractActive()": "8f5949f9",
          "joinGame(uint256)": "efaa55a0",
          "leaderboard(uint256)": "bf368399",
          "playerActiveGame(address)": "863df0a1",
          "playerScores(address)": "62550ae1",
          "pyth()": "f98d06f0",
          "setAssetPriceId(uint256,bytes32)": "53644f31",
          "startGame(uint256,bool)": "d7793c19",
          "updatePricesAndResolve(uint256,bytes[],bytes32[],uint256)": "a457d3d6"
        }
      }
    }
  }
}