{
  "contracts/HyperlaneReceiver.sol": {
    "HyperlaneReceiver": {
      "abi": [
        {
          "anonymous": false,
          "inputs": [
            {
              "indexed": true,
              "internalType": "uint32",
              "name": "origin",
              "type": "uint32"
            },
            {
              "indexed": true,
              "internalType": "address",
              "name": "sender",
              "type": "address"
            },
            {
              "indexed": false,
              "internalType": "bytes32",
              "name": "randomNumber",
              "type": "bytes32"
            },
            {
              "indexed": false,
              "internalType": "uint256",
              "name": "entropyLength",
              "type": "uint256"
            },
            {
              "indexed": false,
              "internalType": "uint64",
              "name": "sequenceNumber",
              "type": "uint64"
            },
            {
              "indexed": false,
              "internalType": "address",
              "name": "sourceContract",
              "type": "address"
            }
          ],
          "name": "ReceivedMessage",
          "type": "event"
        },
        {
          "inputs": [],
          "name": "MAILBOX_ADDRESS",
          "outputs": [
            {
              "internalType": "address",
              "name": "",
              "type": "address"
            }
          ],
          "stateMutability": "view",
          "type": "function"
        },
        {
          "inputs": [
            {
              "internalType": "uint32",
              "name": "_origin",
              "type": "uint32"
            },
            {
              "internalType": "bytes32",
              "name": "_sender",
              "type": "bytes32"
            },
            {
              "internalType": "bytes",
              "name": "_messageBody",
              "type": "bytes"
            }
          ],
          "name": "handle",
          "outputs": [],
          "stateMutability": "nonpayable",
          "type": "function"
        },
        {
          "inputs": [],
          "name": "lastEntropyData",
          "outputs": [
            {
              "internalType": "bytes32",
              "name": "randomNumber",
              "type": "bytes32"
            },
            {
              "internalType": "uint256",
              "name": "entropyLength",
              "type": "uint256"
            },
            {
              "internalType": "uint64",
              "name": "sequenceNumber",
              "type": "uint64"
            },
            {
              "internalType": "address",
              "name": "sourceContract",
              "type": "address"
            }
          ],
          "stateMutability": "view",
          "type": "function"
        },
        {
          "inputs": [],
          "name": "lastOriginDomain",
          "outputs": [
            {
              "internalType": "uint32",
              "name": "",
              "type": "uint32"
            }
          ],
          "stateMutability": "view",
          "type": "function"
        },
        {
          "inputs": [],
          "name": "lastSender",
          "outputs": [
            {
              "internalType": "address",
              "name": "",
              "type": "address"
            }
          ],
          "stateMutability": "view",
          "type": "function"
        }
      ],
      "evm": {
        "bytecode": {
          "linkReferences": {},
          "object": "60808060405234601557610362908161001b8239f35b600080fdfe608080604052600436101561001357600080fd5b60003560e01c908163256fec88146103085750806356d5d475146100fe57806377cbf812146100d7578063b85ec505146100a85763bf4d04071461005657600080fd5b346100a35760003660031901126100a35760005460015460025460408051938452602084019290925267ffffffffffffffff8116838301526001600160a01b03911c166060820152608090f35b600080fd5b346100a35760003660031901126100a35760206040517350da3b3907a08a24fe4999f4dcf337e8dc7954bb8152f35b346100a35760003660031901126100a357602063ffffffff60035460a01c16604051908152f35b346100a35760603660031901126100a35760043563ffffffff81168082036100a3576044359067ffffffffffffffff82116100a357366023830112156100a357816004013567ffffffffffffffff81116100a35782013660248201116100a3577350da3b3907a08a24fe4999f4dcf337e8dc7954bb33036102cb57608090839003126100a3576000926040516080810181811067ffffffffffffffff8211176102b7576040526024840135808252604485013591826020820152606486013567ffffffffffffffff8116968782036102b357604083019190915260840135956001600160a01b038716908188036102b35760609283018890528389556001859055600280546001600160e01b03191682176040998a1b68010000000000000000600160e01b0316179055600380546001600160c01b0319166024356001600160a01b0390811691821760a09990991b63ffffffff60a01b16989098179091558851948552602085019590955267ffffffffffffffff169683019690965294909216938201939093527fe2de4b179cc7479b5d54f063e3b85422742d6e987b7d6dcaa6949fde7140fe109080608081010390a380f35b8880fd5b634e487b7160e01b86526041600452602486fd5b60405162461bcd60e51b815260206004820152601560248201527413db9b1e4813585a5b189bde0818d85b8818d85b1b605a1b6044820152606490fd5b346100a35760003660031901126100a3576003546001600160a01b03168152602090f3fea264697066735822122014dd56e119c2e413366a11125b42d72215e5584f48a3aab1d50f0bb4bd21807a64736f6c634300081c0033",
          "opcodes": "PUSH1 0x80 DUP1 PUSH1 0x40 MSTORE CALLVALUE PUSH1 0x15 JUMPI PUSH2 0x362 SWAP1 DUP2 PUSH2 0x1B DUP3 CODECOPY RETURN JUMPDEST PUSH1 0x0 DUP1 REVERT INVALID PUSH1 0x80 DUP1 PUSH1 0x40 MSTORE PUSH1 0x4 CALLDATASIZE LT ISZERO PUSH2 0x13 JUMPI PUSH1 0x0 DUP1 REVERT JUMPDEST PUSH1 0x0 CALLDATALOAD PUSH1 0xE0 SHR SWAP1 DUP2 PUSH4 0x256FEC88 EQ PUSH2 0x308 JUMPI POP DUP1 PUSH4 0x56D5D475 EQ PUSH2 0xFE JUMPI DUP1 PUSH4 0x77CBF812 EQ PUSH2 0xD7 JUMPI DUP1 PUSH4 0xB85EC505 EQ PUSH2 0xA8 JUMPI PUSH4 0xBF4D0407 EQ PUSH2 0x56 JUMPI PUSH1 0x0 DUP1 REVERT JUMPDEST CALLVALUE PUSH2 0xA3 JUMPI PUSH1 0x0 CALLDATASIZE PUSH1 0x3 NOT ADD SLT PUSH2 0xA3 JUMPI PUSH1 0x0 SLOAD PUSH1 0x1 SLOAD PUSH1 0x2 SLOAD PUSH1 0x40 DUP1 MLOAD SWAP4 DUP5 MSTORE PUSH1 0x20 DUP5 ADD SWAP3 SWAP1 SWAP3 MSTORE PUSH8 0xFFFFFFFFFFFFFFFF DUP2 AND DUP4 DUP4 ADD MSTORE PUSH1 0x1 PUSH1 0x1 PUSH1 0xA0 SHL SUB SWAP2 SHR AND PUSH1 0x60 DUP3 ADD MSTORE PUSH1 0x80 SWAP1 RETURN JUMPDEST PUSH1 0x0 DUP1 REVERT JUMPDEST CALLVALUE PUSH2 0xA3 JUMPI PUSH1 0x0 CALLDATASIZE PUSH1 0x3 NOT ADD SLT PUSH2 0xA3 JUMPI PUSH1 0x20 PUSH1 0x40 MLOAD PUSH20 0x50DA3B3907A08A24FE4999F4DCF337E8DC7954BB DUP2 MSTORE RETURN JUMPDEST CALLVALUE PUSH2 0xA3 JUMPI PUSH1 0x0 CALLDATASIZE PUSH1 0x3 NOT ADD SLT PUSH2 0xA3 JUMPI PUSH1 0x20 PUSH4 0xFFFFFFFF PUSH1 0x3 SLOAD PUSH1 0xA0 SHR AND PUSH1 0x40 MLOAD SWAP1 DUP2 MSTORE RETURN JUMPDEST CALLVALUE PUSH2 0xA3 JUMPI PUSH1 0x60 CALLDATASIZE PUSH1 0x3 NOT ADD SLT PUSH2 0xA3 JUMPI PUSH1 0x4 CALLDATALOAD PUSH4 0xFFFFFFFF DUP2 AND DUP1 DUP3 SUB PUSH2 0xA3 JUMPI PUSH1 0x44 CALLDATALOAD SWAP1 PUSH8 0xFFFFFFFFFFFFFFFF DUP3 GT PUSH2 0xA3 JUMPI CALLDATASIZE PUSH1 0x23 DUP4 ADD SLT ISZERO PUSH2 0xA3 JUMPI DUP2 PUSH1 0x4 ADD CALLDATALOAD PUSH8 0xFFFFFFFFFFFFFFFF DUP2 GT PUSH2 0xA3 JUMPI DUP3 ADD CALLDATASIZE PUSH1 0x24 DUP3 ADD GT PUSH2 0xA3 JUMPI PUSH20 0x50DA3B3907A08A24FE4999F4DCF337E8DC7954BB CALLER SUB PUSH2 0x2CB JUMPI PUSH1 0x80 SWAP1 DUP4 SWAP1 SUB SLT PUSH2 0xA3 JUMPI PUSH1 0x0 SWAP3 PUSH1 0x40 MLOAD PUSH1 0x80 DUP2 ADD DUP2 DUP2 LT PUSH8 0xFFFFFFFFFFFFFFFF DUP3 GT OR PUSH2 0x2B7 JUMPI PUSH1 0x40 MSTORE PUSH1 0x24 DUP5 ADD CALLDATALOAD DUP1 DUP3 MSTORE PUSH1 0x44 DUP6 ADD CALLDATALOAD SWAP2 DUP3 PUSH1 0x20 DUP3 ADD MSTORE PUSH1 0x64 DUP7 ADD CALLDATALOAD PUSH8 0xFFFFFFFFFFFFFFFF DUP2 AND SWAP7 DUP8 DUP3 SUB PUSH2 0x2B3 JUMPI PUSH1 0x40 DUP4 ADD SWAP2 SWAP1 SWAP2 MSTORE PUSH1 0x84 ADD CALLDATALOAD SWAP6 PUSH1 0x1 PUSH1 0x1 PUSH1 0xA0 SHL SUB DUP8 AND SWAP1 DUP2 DUP9 SUB PUSH2 0x2B3 JUMPI PUSH1 0x60 SWAP3 DUP4 ADD DUP9 SWAP1 MSTORE DUP4 DUP10 SSTORE PUSH1 0x1 DUP6 SWAP1 SSTORE PUSH1 0x2 DUP1 SLOAD PUSH1 0x1 PUSH1 0x1 PUSH1 0xE0 SHL SUB NOT AND DUP3 OR PUSH1 0x40 SWAP10 DUP11 SHL PUSH9 0x10000000000000000 PUSH1 0x1 PUSH1 0xE0 SHL SUB AND OR SWAP1 SSTORE PUSH1 0x3 DUP1 SLOAD PUSH1 0x1 PUSH1 0x1 PUSH1 0xC0 SHL SUB NOT AND PUSH1 0x24 CALLDATALOAD PUSH1 0x1 PUSH1 0x1 PUSH1 0xA0 SHL SUB SWAP1 DUP2 AND SWAP2 DUP3 OR PUSH1 0xA0 SWAP10 SWAP1 SWAP10 SHL PUSH4 0xFFFFFFFF PUSH1 0xA0 SHL AND SWAP9 SWAP1 SWAP9 OR SWAP1 SWAP2 SSTORE DUP9 MLOAD SWAP5 DUP6 MSTORE PUSH1 0x20 DUP6 ADD SWAP6 SWAP1 SWAP6 MSTORE PUSH8 0xFFFFFFFFFFFFFFFF AND SWAP7 DUP4 ADD SWAP7 SWAP1 SWAP7 MSTORE SWAP5 SWAP1 SWAP3 AND SWAP4 DUP3 ADD SWAP4 SWAP1 SWAP4 MSTORE PUSH32 0xE2DE4B179CC7479B5D54F063E3B85422742D6E987B7D6DCAA6949FDE7140FE10 SWAP1 DUP1 PUSH1 0x80 DUP2 ADD SUB SWAP1 LOG3 DUP1 RETURN JUMPDEST DUP9 DUP1 REVERT JUMPDEST PUSH4 0x4E487B71 PUSH1 0xE0 SHL DUP7 MSTORE PUSH1 0x41 PUSH1 0x4 MSTORE PUSH1 0x24 DUP7 REVERT JUMPDEST PUSH1 0x40 MLOAD PUSH3 0x461BCD PUSH1 0xE5 SHL DUP2 MSTORE PUSH1 0x20 PUSH1 0x4 DUP3 ADD MSTORE PUSH1 0x15 PUSH1 0x24 DUP3 ADD MSTORE PUSH21 0x13DB9B1E4813585A5B189BDE0818D85B8818D85B1B PUSH1 0x5A SHL PUSH1 0x44 DUP3 ADD MSTORE PUSH1 0x64 SWAP1 REVERT JUMPDEST CALLVALUE PUSH2 0xA3 JUMPI PUSH1 0x0 CALLDATASIZE PUSH1 0x3 NOT ADD SLT PUSH2 0xA3 JUMPI PUSH1 0x3 SLOAD PUSH1 0x1 PUSH1 0x1 PUSH1 0xA0 SHL SUB AND DUP2 MSTORE PUSH1 0x20 SWAP1 RETURN INVALID LOG2 PUSH5 0x6970667358 0x22 SLT KECCAK256 EQ 0xDD JUMP 0xE1 NOT 0xC2 0xE4 SGT CALLDATASIZE PUSH11 0x11125B42D72215E5584F48 LOG3 0xAA 0xB1 0xD5 0xF SIGNEXTEND 0xB4 0xBD 0x21 DUP1 PUSH27 0x64736F6C634300081C003300000000000000000000000000000000 "
        },
        "methodIdentifiers": {
          "MAILBOX_ADDRESS()": "b85ec505",
          "handle(uint32,bytes32,bytes)": "56d5d475",
          "lastEntropyData()": "bf4d0407",
          "lastOriginDomain()": "77cbf812",
          "lastSender()": "256fec88"
        }
      }
    }
  }
}