{
  "contracts/HyperlaneSource.sol": {
    "HyperlaneSender": {
      "abi": [
        {
          "inputs": [],
          "stateMutability": "nonpayable",
          "type": "constructor"
        },
        {
          "inputs": [
            {
              "internalType": "address",
              "name": "owner",
              "type": "address"
            }
          ],
          "name": "OwnableInvalidOwner",
          "type": "error"
        },
        {
          "inputs": [
            {
              "internalType": "address",
              "name": "account",
              "type": "address"
            }
          ],
          "name": "OwnableUnauthorizedAccount",
          "type": "error"
        },
        {
          "anonymous": false,
          "inputs": [
            {
              "indexed": true,
              "internalType": "uint64",
              "name": "sequenceNumber",
              "type": "uint64"
            },
            {
              "indexed": false,
              "internalType": "uint32",
              "name": "destinationDomain",
              "type": "uint32"
            },
            {
              "indexed": false,
              "internalType": "address",
              "name": "recipient",
              "type": "address"
            },
            {
              "indexed": false,
              "internalType": "uint256",
              "name": "length",
              "type": "uint256"
            }
          ],
          "name": "EntropyRequested",
          "type": "event"
        },
        {
          "anonymous": false,
          "inputs": [
            {
              "indexed": true,
              "internalType": "uint64",
              "name": "sequenceNumber",
              "type": "uint64"
            },
            {
              "indexed": false,
              "internalType": "bytes32",
              "name": "messageId",
              "type": "bytes32"
            },
            {
              "indexed": false,
              "internalType": "bytes32",
              "name": "randomNumber",
              "type": "bytes32"
            }
          ],
          "name": "EntropySent",
          "type": "event"
        },
        {
          "anonymous": false,
          "inputs": [
            {
              "indexed": true,
              "internalType": "bytes32",
              "name": "messageId",
              "type": "bytes32"
            },
            {
              "indexed": false,
              "internalType": "uint32",
              "name": "destinationDomain",
              "type": "uint32"
            },
            {
              "indexed": false,
              "internalType": "address",
              "name": "recipient",
              "type": "address"
            }
          ],
          "name": "MessageSent",
          "type": "event"
        },
        {
          "anonymous": false,
          "inputs": [
            {
              "indexed": true,
              "internalType": "address",
              "name": "previousOwner",
              "type": "address"
            },
            {
              "indexed": true,
              "internalType": "address",
              "name": "newOwner",
              "type": "address"
            }
          ],
          "name": "OwnershipTransferred",
          "type": "event"
        },
        {
          "inputs": [],
          "name": "ENTROPY_ADDRESS",
          "outputs": [
            {
              "internalType": "address",
              "name": "",
              "type": "address"
            }
          ],
          "stateMutability": "view",
          "type": "function"
        },
        {
          "inputs": [],
          "name": "MAILBOX_ADDRESS",
          "outputs": [
            {
              "internalType": "address",
              "name": "",
              "type": "address"
            }
          ],
          "stateMutability": "view",
          "type": "function"
        },
        {
          "inputs": [
            {
              "internalType": "uint64",
              "name": "sequence",
              "type": "uint64"
            },
            {
              "internalType": "address",
              "name": "provider",
              "type": "address"
            },
            {
              "internalType": "bytes32",
              "name": "randomNumber",
              "type": "bytes32"
            }
          ],
          "name": "_entropyCallback",
          "outputs": [],
          "stateMutability": "nonpayable",
          "type": "function"
        },
        {
          "inputs": [],
          "name": "entropy",
          "outputs": [
            {
              "internalType": "contract IEntropyV2",
              "name": "",
              "type": "address"
            }
          ],
          "stateMutability": "view",
          "type": "function"
        },
        {
          "inputs": [],
          "name": "mailbox",
          "outputs": [
            {
              "internalType": "contract IMailbox",
              "name": "",
              "type": "address"
            }
          ],
          "stateMutability": "view",
          "type": "function"
        },
        {
          "inputs": [],
          "name": "owner",
          "outputs": [
            {
              "internalType": "address",
              "name": "",
              "type": "address"
            }
          ],
          "stateMutability": "view",
          "type": "function"
        },
        {
          "inputs": [
            {
              "internalType": "uint64",
              "name": "",
              "type": "uint64"
            }
          ],
          "name": "pendingRequests",
          "outputs": [
            {
              "internalType": "uint32",
              "name": "destinationDomain",
              "type": "uint32"
            },
            {
              "internalType": "address",
              "name": "recipient",
              "type": "address"
            },
            {
              "internalType": "uint256",
              "name": "length",
              "type": "uint256"
            },
            {
              "internalType": "uint256",
              "name": "hyperlaneValue",
              "type": "uint256"
            }
          ],
          "stateMutability": "view",
          "type": "function"
        },
        {
          "inputs": [
            {
              "internalType": "uint32",
              "name": "_destinationDomain",
              "type": "uint32"
            },
            {
              "internalType": "address",
              "name": "_recipient",
              "type": "address"
            }
          ],
          "name": "quoteEntropyRelay",
          "outputs": [
            {
              "internalType": "uint256",
              "name": "",
              "type": "uint256"
            }
          ],
          "stateMutability": "view",
          "type": "function"
        },
        {
          "inputs": [
            {
              "internalType": "uint32",
              "name": "_destinationDomain",
              "type": "uint32"
            },
            {
              "internalType": "address",
              "name": "_recipient",
              "type": "address"
            },
            {
              "internalType": "string",
              "name": "_message",
              "type": "string"
            }
          ],
          "name": "quoteSendMessage",
          "outputs": [
            {
              "internalType": "uint256",
              "name": "",
              "type": "uint256"
            }
          ],
          "stateMutability": "view",
          "type": "function"
        },
        {
          "inputs": [],
          "name": "renounceOwnership",
          "outputs": [],
          "stateMutability": "nonpayable",
          "type": "function"
        },
        {
          "inputs": [
            {
              "internalType": "uint32",
              "name": "_destinationDomain",
              "type": "uint32"
            },
            {
              "internalType": "address",
              "name": "_recipient",
              "type": "address"
            }
          ],
          "name": "requestAndRelayEntropy",
          "outputs": [],
          "stateMutability": "payable",
          "type": "function"
        },
        {
          "inputs": [
            {
              "internalType": "uint32",
              "name": "_destinationDomain",
              "type": "uint32"
            },
            {
              "internalType": "address",
              "name": "_recipient",
              "type": "address"
            },
            {
              "internalType": "string",
              "name": "_message",
              "type": "string"
            }
          ],
          "name": "sendMessage",
          "outputs": [],
          "stateMutability": "payable",
          "type": "function"
        },
        {
          "inputs": [
            {
              "internalType": "address",
              "name": "newOwner",
              "type": "address"
            }
          ],
          "name": "transferOwnership",
          "outputs": [],
          "stateMutability": "nonpayable",
          "type": "function"
        }
      ],
      "evm": {
        "bytecode": {
          "linkReferences": {},
          "object": "6080806040523460bd57331560a75760008054336001600160a01b0319821681178355916001600160a01b03909116907f8be0079c531659141344cd1fd0a4f28419497f9722a3daafe3b4186f6b6457e09080a3600180546001600160a01b031990811673ea87ae93fa0019a82a727bfd3ebd1cfca8f64f1d1790915560028054909116736e7d74fa7d5c90fef9f0512987605a6d546181bb179055610e8f90816100c38239f35b631e4fbdf760e01b600052600060045260246000fd5b600080fdfe608080604052600436101561001357600080fd5b60003560e01c90816347ce07cc14610c105750806352a5f1f81461094257806355c7eb53146108a057806365b07d5814610836578063715018a6146107dd5780638da5cb5b146107b4578063b85ec50514610785578063d526a753146105bb578063d5438eae14610592578063df50d66c146102bd578063f2fde38b14610230578063f3709157146100e25763fbd84123146100ae57600080fd5b346100dd5760003660031901126100dd576020604051736e7d74fa7d5c90fef9f0512987605a6d546181bb8152f35b600080fd5b346100dd5760403660031901126100dd5760046100fd610c61565b610105610c4b565b6002546040516341025b3d60e11b81529360209185919082906001600160a01b03165afa9283156101ec576000936101f8575b506101899160209160405191600084840152838352610158604084610d1c565b60015460405163138857a360e31b81529586946001600160a01b039283169486948594919091169060048501610d85565b03915afa9081156101ec576000916101b9575b60206101b1836001600160801b038616610e23565b604051908152f35b90506020813d6020116101e4575b816101d460209383610d1c565b810103126100dd5751602061019c565b3d91506101c7565b6040513d6000823e3d90fd5b60209193509161022061018993833d8511610229575b6102188183610d1c565b810190610e04565b93915091610138565b503d61020e565b346100dd5760203660031901126100dd576004356001600160a01b038116908190036100dd5761025e610e30565b80156102a757600080546001600160a01b03198116831782556001600160a01b0316907f8be0079c531659141344cd1fd0a4f28419497f9722a3daafe3b4186f6b6457e09080a3005b631e4fbdf760e01b600052600060045260246000fd5b60403660031901126100dd576102d1610c61565b6102d9610c4b565b906102e2610e30565b6002546040516341025b3d60e11b81526001600160a01b0390911692602082600481875afa9081156101ec5761036592600092610571575b5060018060a01b031690602060405160008282015281815261033d604082610d1c565b60018060a01b0360015416604051808097819463138857a360e31b8352888b60048501610d85565b03915afa9283156101ec57600093610536575b506001600160801b03169261038d8385610e23565b948534106104fa57602090600460405180978193637b43155d60e01b83525af19384156101ec576000946104ab575b50916060917f4de76c25b186ba04d88e5e44ca24d4287d4e29d4d95bd39ffaf1722a7aea1c9d93600263ffffffff604051926103f784610cea565b1693848352602083019784895267ffffffffffffffff604085019160208352888601938452169889600052600360205263ffffffff6040600020955116855491640100000000600160c01b03905160201b169167ffffffffffffffff60c01b161717845551600184015551910155604051918252602082015260206040820152a280341161048157005b60008080610490819434610de1565b8181156104a2575b3390f1156101ec57005b506108fc610498565b6020949194813d6020116104f2575b816104c760209383610d1c565b810103126104ee57519067ffffffffffffffff821682036104eb57509260606103bc565b80fd5b5080fd5b3d91506104ba565b60405162461bcd60e51b8152602060048201526014602482015273125b9cdd59999a58da595b9d081c185e5b595b9d60621b6044820152606490fd5b90926020823d602011610569575b8161055160209383610d1c565b810103126104eb575051916001600160801b03610378565b3d9150610544565b61058b91925060203d602011610229576102188183610d1c565b908561031a565b346100dd5760003660031901126100dd576001546040516001600160a01b039091168152602090f35b6105e26105c736610c74565b93916105d1610e30565b6001600160a01b0316933691610d3e565b60015460405163138857a360e31b815293919291906001600160a01b03166020858061061387868860048501610d85565b0381845afa9485156101ec57600095610751575b508434106106fc57610655602091869560405196878094819363fa31de0160e01b8352888a60048501610d85565b03925af19283156101ec576000936106a8575b507f69a34bed73b4a103e37a0446a015bebd8429e0e18b464511600f291bac69756c9160409163ffffffff8351921682526020820152a280341161048157005b9092506020813d6020116106f4575b816106c460209383610d1c565b810103126100dd5751917f69a34bed73b4a103e37a0446a015bebd8429e0e18b464511600f291bac69756c610668565b3d91506106b7565b60405162461bcd60e51b815260206004820152602760248201527f496e73756666696369656e74207061796d656e7420666f7220696e746572636860448201526661696e2067617360c81b6064820152608490fd5b90946020823d60201161077d575b8161076c60209383610d1c565b810103126104eb5750519385610627565b3d915061075f565b346100dd5760003660031901126100dd57602060405173ea87ae93fa0019a82a727bfd3ebd1cfca8f64f1d8152f35b346100dd5760003660031901126100dd576000546040516001600160a01b039091168152602090f35b346100dd5760003660031901126100dd576107f6610e30565b600080546001600160a01b0319811682556001600160a01b03167f8be0079c531659141344cd1fd0a4f28419497f9722a3daafe3b4186f6b6457e08280a3005b346100dd5760203660031901126100dd5767ffffffffffffffff610858610c34565b1660005260036020526080604060002080549060026001820154910154906040519263ffffffff8116845260018060a01b039060201c16602084015260408301526060820152f35b346100dd576108f260206108c16108b636610c74565b939192933691610d3e565b60015460405163138857a360e31b81529586946001600160a01b039283169486948594909291169060048501610d85565b03915afa80156101ec5760009061090f575b602090604051908152f35b506020813d60201161093a575b8161092960209383610d1c565b810103126100dd5760209051610904565b3d915061091c565b346100dd5760603660031901126100dd5761095b610c34565b610963610c4b565b5060025460443591906001600160a01b03168015610bcb573303610b7a5767ffffffffffffffff16908160005260036020526040600020906040516109a781610cea565b825490600263ffffffff831694858352602083019360018060a01b039060201c168452600181015460408401520154936060820194855215610b2957610a8b93602092604051926109f784610cea565b85845284840193858552606060408201918a8352019230845260018060a01b039051169267ffffffffffffffff63ffffffff60018060a01b0360015416965194511692604051978a8a8a01525160408901525116606087015260018060a01b03905116608086015260808552610a6e60a086610d1c565b60405163fa31de0160e01b81529788958694859360048501610d85565b03925af19081156101ec578392600092610af1575b507f719cad4bccaf472dca017b233609217a9b60243706615c90a5caa73152a1e5ff9160409182519182526020820152a2600052600360205260006002604082208281558260018201550155600080f35b925090506020823d602011610b21575b81610b0e60209383610d1c565b810103126100dd57905182916040610aa0565b3d9150610b01565b60405162461bcd60e51b8152602060048201526024808201527f4e6f2070656e64696e67207265717565737420666f7220746869732073657175604482015263656e636560e01b6064820152608490fd5b60405162461bcd60e51b815260206004820152602360248201527f4f6e6c7920456e74726f70792063616e2063616c6c20746869732066756e637460448201526234b7b760e91b6064820152608490fd5b60405162461bcd60e51b815260206004820152601760248201527f456e74726f70792061646472657373206e6f74207365740000000000000000006044820152606490fd5b346100dd5760003660031901126100dd576002546001600160a01b03168152602090f35b6004359067ffffffffffffffff821682036100dd57565b602435906001600160a01b03821682036100dd57565b6004359063ffffffff821682036100dd57565b9060606003198301126100dd5760043563ffffffff811681036100dd57916024356001600160a01b03811681036100dd579160443567ffffffffffffffff81116100dd57826023820112156100dd5780600401359267ffffffffffffffff84116100dd57602484830101116100dd576024019190565b6080810190811067ffffffffffffffff821117610d0657604052565b634e487b7160e01b600052604160045260246000fd5b90601f8019910116810190811067ffffffffffffffff821117610d0657604052565b92919267ffffffffffffffff8211610d065760405191610d68601f8201601f191660200184610d1c565b8294818452818301116100dd578281602093846000960137010152565b919063ffffffff90949394168252602082015260606040820152825180606083015260005b818110610dcb575060809293506000838284010152601f8019910116010190565b8060208092870101516080828601015201610daa565b91908203918211610dee57565b634e487b7160e01b600052601160045260246000fd5b908160209103126100dd57516001600160801b03811681036100dd5790565b91908201809211610dee57565b6000546001600160a01b03163303610e4457565b63118cdaa760e01b6000523360045260246000fdfea26469706673582212209da9e4d3590ab9b5411b9372c65ca3c4f71accf730c042d16152f82f66224c5864736f6c634300081c0033",
          "opcodes": "PUSH1 0x80 DUP1 PUSH1 0x40 MSTORE CALLVALUE PUSH1 0xBD JUMPI CALLER ISZERO PUSH1 0xA7 JUMPI PUSH1 0x0 DUP1 SLOAD CALLER PUSH1 0x1 PUSH1 0x1 PUSH1 0xA0 SHL SUB NOT DUP3 AND DUP2 OR DUP4 SSTORE SWAP2 PUSH1 0x1 PUSH1 0x1 PUSH1 0xA0 SHL SUB SWAP1 SWAP2 AND SWAP1 PUSH32 0x8BE0079C531659141344CD1FD0A4F28419497F9722A3DAAFE3B4186F6B6457E0 SWAP1 DUP1 LOG3 PUSH1 0x1 DUP1 SLOAD PUSH1 0x1 PUSH1 0x1 PUSH1 0xA0 SHL SUB NOT SWAP1 DUP2 AND PUSH20 0xEA87AE93FA0019A82A727BFD3EBD1CFCA8F64F1D OR SWAP1 SWAP2 SSTORE PUSH1 0x2 DUP1 SLOAD SWAP1 SWAP2 AND PUSH20 0x6E7D74FA7D5C90FEF9F0512987605A6D546181BB OR SWAP1 SSTORE PUSH2 0xE8F SWAP1 DUP2 PUSH2 0xC3 DUP3 CODECOPY RETURN JUMPDEST PUSH4 0x1E4FBDF7 PUSH1 0xE0 SHL PUSH1 0x0 MSTORE PUSH1 0x0 PUSH1 0x4 MSTORE PUSH1 0x24 PUSH1 0x0 REVERT JUMPDEST PUSH1 0x0 DUP1 REVERT INVALID PUSH1 0x80 DUP1 PUSH1 0x40 MSTORE PUSH1 0x4 CALLDATASIZE LT ISZERO PUSH2 0x13 JUMPI PUSH1 0x0 DUP1 REVERT JUMPDEST PUSH1 0x0 CALLDATALOAD PUSH1 0xE0 SHR SWAP1 DUP2 PUSH4 0x47CE07CC EQ PUSH2 0xC10 JUMPI POP DUP1 PUSH4 0x52A5F1F8 EQ PUSH2 0x942 JUMPI DUP1 PUSH4 0x55C7EB53 EQ PUSH2 0x8A0 JUMPI DUP1 PUSH4 0x65B07D58 EQ PUSH2 0x836 JUMPI DUP1 PUSH4 0x715018A6 EQ PUSH2 0x7DD JUMPI DUP1 PUSH4 0x8DA5CB5B EQ PUSH2 0x7B4 JUMPI DUP1 PUSH4 0xB85EC505 EQ PUSH2 0x785 JUMPI DUP1 PUSH4 0xD526A753 EQ PUSH2 0x5BB JUMPI DUP1 PUSH4 0xD5438EAE EQ PUSH2 0x592 JUMPI DUP1 PUSH4 0xDF50D66C EQ PUSH2 0x2BD JUMPI DUP1 PUSH4 0xF2FDE38B EQ PUSH2 0x230 JUMPI DUP1 PUSH4 0xF3709157 EQ PUSH2 0xE2 JUMPI PUSH4 0xFBD84123 EQ PUSH2 0xAE JUMPI PUSH1 0x0 DUP1 REVERT JUMPDEST CALLVALUE PUSH2 0xDD JUMPI PUSH1 0x0 CALLDATASIZE PUSH1 0x3 NOT ADD SLT PUSH2 0xDD JUMPI PUSH1 0x20 PUSH1 0x40 MLOAD PUSH20 0x6E7D74FA7D5C90FEF9F0512987605A6D546181BB DUP2 MSTORE RETURN JUMPDEST PUSH1 0x0 DUP1 REVERT JUMPDEST CALLVALUE PUSH2 0xDD JUMPI PUSH1 0x40 CALLDATASIZE PUSH1 0x3 NOT ADD SLT PUSH2 0xDD JUMPI PUSH1 0x4 PUSH2 0xFD PUSH2 0xC61 JUMP JUMPDEST PUSH2 0x105 PUSH2 0xC4B JUMP JUMPDEST PUSH1 0x2 SLOAD PUSH1 0x40 MLOAD PUSH4 0x41025B3D PUSH1 0xE1 SHL DUP2 MSTORE SWAP4 PUSH1 0x20 SWAP2 DUP6 SWAP2 SWAP1 DUP3 SWAP1 PUSH1 0x1 PUSH1 0x1 PUSH1 0xA0 SHL SUB AND GAS STATICCALL SWAP3 DUP4 ISZERO PUSH2 0x1EC JUMPI PUSH1 0x0 SWAP4 PUSH2 0x1F8 JUMPI JUMPDEST POP PUSH2 0x189 SWAP2 PUSH1 0x20 SWAP2 PUSH1 0x40 MLOAD SWAP2 PUSH1 0x0 DUP5 DUP5 ADD MSTORE DUP4 DUP4 MSTORE PUSH2 0x158 PUSH1 0x40 DUP5 PUSH2 0xD1C JUMP JUMPDEST PUSH1 0x1 SLOAD PUSH1 0x40 MLOAD PUSH4 0x138857A3 PUSH1 0xE3 SHL DUP2 MSTORE SWAP6 DUP7 SWAP5 PUSH1 0x1 PUSH1 0x1 PUSH1 0xA0 SHL SUB SWAP3 DUP4 AND SWAP5 DUP7 SWAP5 DUP6 SWAP5 SWAP2 SWAP1 SWAP2 AND SWAP1 PUSH1 0x4 DUP6 ADD PUSH2 0xD85 JUMP JUMPDEST SUB SWAP2 GAS STATICCALL SWAP1 DUP2 ISZERO PUSH2 0x1EC JUMPI PUSH1 0x0 SWAP2 PUSH2 0x1B9 JUMPI JUMPDEST PUSH1 0x20 PUSH2 0x1B1 DUP4 PUSH1 0x1 PUSH1 0x1 PUSH1 0x80 SHL SUB DUP7 AND PUSH2 0xE23 JUMP JUMPDEST PUSH1 0x40 MLOAD SWAP1 DUP2 MSTORE RETURN JUMPDEST SWAP1 POP PUSH1 0x20 DUP2 RETURNDATASIZE PUSH1 0x20 GT PUSH2 0x1E4 JUMPI JUMPDEST DUP2 PUSH2 0x1D4 PUSH1 0x20 SWAP4 DUP4 PUSH2 0xD1C JUMP JUMPDEST DUP2 ADD SUB SLT PUSH2 0xDD JUMPI MLOAD PUSH1 0x20 PUSH2 0x19C JUMP JUMPDEST RETURNDATASIZE SWAP2 POP PUSH2 0x1C7 JUMP JUMPDEST PUSH1 0x40 MLOAD RETURNDATASIZE PUSH1 0x0 DUP3 RETURNDATACOPY RETURNDATASIZE SWAP1 REVERT JUMPDEST PUSH1 0x20 SWAP2 SWAP4 POP SWAP2 PUSH2 0x220 PUSH2 0x189 SWAP4 DUP4 RETURNDATASIZE DUP6 GT PUSH2 0x229 JUMPI JUMPDEST PUSH2 0x218 DUP2 DUP4 PUSH2 0xD1C JUMP JUMPDEST DUP2 ADD SWAP1 PUSH2 0xE04 JUMP JUMPDEST SWAP4 SWAP2 POP SWAP2 PUSH2 0x138 JUMP JUMPDEST POP RETURNDATASIZE PUSH2 0x20E JUMP JUMPDEST CALLVALUE PUSH2 0xDD JUMPI PUSH1 0x20 CALLDATASIZE PUSH1 0x3 NOT ADD SLT PUSH2 0xDD JUMPI PUSH1 0x4 CALLDATALOAD PUSH1 0x1 PUSH1 0x1 PUSH1 0xA0 SHL SUB DUP2 AND SWAP1 DUP2 SWAP1 SUB PUSH2 0xDD JUMPI PUSH2 0x25E PUSH2 0xE30 JUMP JUMPDEST DUP1 ISZERO PUSH2 0x2A7 JUMPI PUSH1 0x0 DUP1 SLOAD PUSH1 0x1 PUSH1 0x1 PUSH1 0xA0 SHL SUB NOT DUP2 AND DUP4 OR DUP3 SSTORE PUSH1 0x1 PUSH1 0x1 PUSH1 0xA0 SHL SUB AND SWAP1 PUSH32 0x8BE0079C531659141344CD1FD0A4F28419497F9722A3DAAFE3B4186F6B6457E0 SWAP1 DUP1 LOG3 STOP JUMPDEST PUSH4 0x1E4FBDF7 PUSH1 0xE0 SHL PUSH1 0x0 MSTORE PUSH1 0x0 PUSH1 0x4 MSTORE PUSH1 0x24 PUSH1 0x0 REVERT JUMPDEST PUSH1 0x40 CALLDATASIZE PUSH1 0x3 NOT ADD SLT PUSH2 0xDD JUMPI PUSH2 0x2D1 PUSH2 0xC61 JUMP JUMPDEST PUSH2 0x2D9 PUSH2 0xC4B JUMP JUMPDEST SWAP1 PUSH2 0x2E2 PUSH2 0xE30 JUMP JUMPDEST PUSH1 0x2 SLOAD PUSH1 0x40 MLOAD PUSH4 0x41025B3D PUSH1 0xE1 SHL DUP2 MSTORE PUSH1 0x1 PUSH1 0x1 PUSH1 0xA0 SHL SUB SWAP1 SWAP2 AND SWAP3 PUSH1 0x20 DUP3 PUSH1 0x4 DUP2 DUP8 GAS STATICCALL SWAP1 DUP2 ISZERO PUSH2 0x1EC JUMPI PUSH2 0x365 SWAP3 PUSH1 0x0 SWAP3 PUSH2 0x571 JUMPI JUMPDEST POP PUSH1 0x1 DUP1 PUSH1 0xA0 SHL SUB AND SWAP1 PUSH1 0x20 PUSH1 0x40 MLOAD PUSH1 0x0 DUP3 DUP3 ADD MSTORE DUP2 DUP2 MSTORE PUSH2 0x33D PUSH1 0x40 DUP3 PUSH2 0xD1C JUMP JUMPDEST PUSH1 0x1 DUP1 PUSH1 0xA0 SHL SUB PUSH1 0x1 SLOAD AND PUSH1 0x40 MLOAD DUP1 DUP1 SWAP8 DUP2 SWAP5 PUSH4 0x138857A3 PUSH1 0xE3 SHL DUP4 MSTORE DUP9 DUP12 PUSH1 0x4 DUP6 ADD PUSH2 0xD85 JUMP JUMPDEST SUB SWAP2 GAS STATICCALL SWAP3 DUP4 ISZERO PUSH2 0x1EC JUMPI PUSH1 0x0 SWAP4 PUSH2 0x536 JUMPI JUMPDEST POP PUSH1 0x1 PUSH1 0x1 PUSH1 0x80 SHL SUB AND SWAP3 PUSH2 0x38D DUP4 DUP6 PUSH2 0xE23 JUMP JUMPDEST SWAP5 DUP6 CALLVALUE LT PUSH2 0x4FA JUMPI PUSH1 0x20 SWAP1 PUSH1 0x4 PUSH1 0x40 MLOAD DUP1 SWAP8 DUP2 SWAP4 PUSH4 0x7B43155D PUSH1 0xE0 SHL DUP4 MSTORE GAS CALL SWAP4 DUP5 ISZERO PUSH2 0x1EC JUMPI PUSH1 0x0 SWAP5 PUSH2 0x4AB JUMPI JUMPDEST POP SWAP2 PUSH1 0x60 SWAP2 PUSH32 0x4DE76C25B186BA04D88E5E44CA24D4287D4E29D4D95BD39FFAF1722A7AEA1C9D SWAP4 PUSH1 0x2 PUSH4 0xFFFFFFFF PUSH1 0x40 MLOAD SWAP3 PUSH2 0x3F7 DUP5 PUSH2 0xCEA JUMP JUMPDEST AND SWAP4 DUP5 DUP4 MSTORE PUSH1 0x20 DUP4 ADD SWAP8 DUP5 DUP10 MSTORE PUSH8 0xFFFFFFFFFFFFFFFF PUSH1 0x40 DUP6 ADD SWAP2 PUSH1 0x20 DUP4 MSTORE DUP9 DUP7 ADD SWAP4 DUP5 MSTORE AND SWAP9 DUP10 PUSH1 0x0 MSTORE PUSH1 0x3 PUSH1 0x20 MSTORE PUSH4 0xFFFFFFFF PUSH1 0x40 PUSH1 0x0 KECCAK256 SWAP6 MLOAD AND DUP6 SLOAD SWAP2 PUSH5 0x100000000 PUSH1 0x1 PUSH1 0xC0 SHL SUB SWAP1 MLOAD PUSH1 0x20 SHL AND SWAP2 PUSH8 0xFFFFFFFFFFFFFFFF PUSH1 0xC0 SHL AND OR OR DUP5 SSTORE MLOAD PUSH1 0x1 DUP5 ADD SSTORE MLOAD SWAP2 ADD SSTORE PUSH1 0x40 MLOAD SWAP2 DUP3 MSTORE PUSH1 0x20 DUP3 ADD MSTORE PUSH1 0x20 PUSH1 0x40 DUP3 ADD MSTORE LOG2 DUP1 CALLVALUE GT PUSH2 0x481 JUMPI STOP JUMPDEST PUSH1 0x0 DUP1 DUP1 PUSH2 0x490 DUP2 SWAP5 CALLVALUE PUSH2 0xDE1 JUMP JUMPDEST DUP2 DUP2 ISZERO PUSH2 0x4A2 JUMPI JUMPDEST CALLER SWAP1 CALL ISZERO PUSH2 0x1EC JUMPI STOP JUMPDEST POP PUSH2 0x8FC PUSH2 0x498 JUMP JUMPDEST PUSH1 0x20 SWAP5 SWAP2 SWAP5 DUP2 RETURNDATASIZE PUSH1 0x20 GT PUSH2 0x4F2 JUMPI JUMPDEST DUP2 PUSH2 0x4C7 PUSH1 0x20 SWAP4 DUP4 PUSH2 0xD1C JUMP JUMPDEST DUP2 ADD SUB SLT PUSH2 0x4EE JUMPI MLOAD SWAP1 PUSH8 0xFFFFFFFFFFFFFFFF DUP3 AND DUP3 SUB PUSH2 0x4EB JUMPI POP SWAP3 PUSH1 0x60 PUSH2 0x3BC JUMP JUMPDEST DUP1 REVERT JUMPDEST POP DUP1 REVERT JUMPDEST RETURNDATASIZE SWAP2 POP PUSH2 0x4BA JUMP JUMPDEST PUSH1 0x40 MLOAD PUSH3 0x461BCD PUSH1 0xE5 SHL DUP2 MSTORE PUSH1 0x20 PUSH1 0x4 DUP3 ADD MSTORE PUSH1 0x14 PUSH1 0x24 DUP3 ADD MSTORE PUSH20 0x125B9CDD59999A58DA595B9D081C185E5B595B9D PUSH1 0x62 SHL PUSH1 0x44 DUP3 ADD MSTORE PUSH1 0x64 SWAP1 REVERT JUMPDEST SWAP1 SWAP3 PUSH1 0x20 DUP3 RETURNDATASIZE PUSH1 0x20 GT PUSH2 0x569 JUMPI JUMPDEST DUP2 PUSH2 0x551 PUSH1 0x20 SWAP4 DUP4 PUSH2 0xD1C JUMP JUMPDEST DUP2 ADD SUB SLT PUSH2 0x4EB JUMPI POP MLOAD SWAP2 PUSH1 0x1 PUSH1 0x1 PUSH1 0x80 SHL SUB PUSH2 0x378 JUMP JUMPDEST RETURNDATASIZE SWAP2 POP PUSH2 0x544 JUMP JUMPDEST PUSH2 0x58B SWAP2 SWAP3 POP PUSH1 0x20 RETURNDATASIZE PUSH1 0x20 GT PUSH2 0x229 JUMPI PUSH2 0x218 DUP2 DUP4 PUSH2 0xD1C JUMP JUMPDEST SWAP1 DUP6 PUSH2 0x31A JUMP JUMPDEST CALLVALUE PUSH2 0xDD JUMPI PUSH1 0x0 CALLDATASIZE PUSH1 0x3 NOT ADD SLT PUSH2 0xDD JUMPI PUSH1 0x1 SLOAD PUSH1 0x40 MLOAD PUSH1 0x1 PUSH1 0x1 PUSH1 0xA0 SHL SUB SWAP1 SWAP2 AND DUP2 MSTORE PUSH1 0x20 SWAP1 RETURN JUMPDEST PUSH2 0x5E2 PUSH2 0x5C7 CALLDATASIZE PUSH2 0xC74 JUMP JUMPDEST SWAP4 SWAP2 PUSH2 0x5D1 PUSH2 0xE30 JUMP JUMPDEST PUSH1 0x1 PUSH1 0x1 PUSH1 0xA0 SHL SUB AND SWAP4 CALLDATASIZE SWAP2 PUSH2 0xD3E JUMP JUMPDEST PUSH1 0x1 SLOAD PUSH1 0x40 MLOAD PUSH4 0x138857A3 PUSH1 0xE3 SHL DUP2 MSTORE SWAP4 SWAP2 SWAP3 SWAP2 SWAP1 PUSH1 0x1 PUSH1 0x1 PUSH1 0xA0 SHL SUB AND PUSH1 0x20 DUP6 DUP1 PUSH2 0x613 DUP8 DUP7 DUP9 PUSH1 0x4 DUP6 ADD PUSH2 0xD85 JUMP JUMPDEST SUB DUP2 DUP5 GAS STATICCALL SWAP5 DUP6 ISZERO PUSH2 0x1EC JUMPI PUSH1 0x0 SWAP6 PUSH2 0x751 JUMPI JUMPDEST POP DUP5 CALLVALUE LT PUSH2 0x6FC JUMPI PUSH2 0x655 PUSH1 0x20 SWAP2 DUP7 SWAP6 PUSH1 0x40 MLOAD SWAP7 DUP8 DUP1 SWAP5 DUP2 SWAP4 PUSH4 0xFA31DE01 PUSH1 0xE0 SHL DUP4 MSTORE DUP9 DUP11 PUSH1 0x4 DUP6 ADD PUSH2 0xD85 JUMP JUMPDEST SUB SWAP3 GAS CALL SWAP3 DUP4 ISZERO PUSH2 0x1EC JUMPI PUSH1 0x0 SWAP4 PUSH2 0x6A8 JUMPI JUMPDEST POP PUSH32 0x69A34BED73B4A103E37A0446A015BEBD8429E0E18B464511600F291BAC69756C SWAP2 PUSH1 0x40 SWAP2 PUSH4 0xFFFFFFFF DUP4 MLOAD SWAP3 AND DUP3 MSTORE PUSH1 0x20 DUP3 ADD MSTORE LOG2 DUP1 CALLVALUE GT PUSH2 0x481 JUMPI STOP JUMPDEST SWAP1 SWAP3 POP PUSH1 0x20 DUP2 RETURNDATASIZE PUSH1 0x20 GT PUSH2 0x6F4 JUMPI JUMPDEST DUP2 PUSH2 0x6C4 PUSH1 0x20 SWAP4 DUP4 PUSH2 0xD1C JUMP JUMPDEST DUP2 ADD SUB SLT PUSH2 0xDD JUMPI MLOAD SWAP2 PUSH32 0x69A34BED73B4A103E37A0446A015BEBD8429E0E18B464511600F291BAC69756C PUSH2 0x668 JUMP JUMPDEST RETURNDATASIZE SWAP2 POP PUSH2 0x6B7 JUMP JUMPDEST PUSH1 0x40 MLOAD PUSH3 0x461BCD PUSH1 0xE5 SHL DUP2 MSTORE PUSH1 0x20 PUSH1 0x4 DUP3 ADD MSTORE PUSH1 0x27 PUSH1 0x24 DUP3 ADD MSTORE PUSH32 0x496E73756666696369656E74207061796D656E7420666F7220696E7465726368 PUSH1 0x44 DUP3 ADD MSTORE PUSH7 0x61696E20676173 PUSH1 0xC8 SHL PUSH1 0x64 DUP3 ADD MSTORE PUSH1 0x84 SWAP1 REVERT JUMPDEST SWAP1 SWAP5 PUSH1 0x20 DUP3 RETURNDATASIZE PUSH1 0x20 GT PUSH2 0x77D JUMPI JUMPDEST DUP2 PUSH2 0x76C PUSH1 0x20 SWAP4 DUP4 PUSH2 0xD1C JUMP JUMPDEST DUP2 ADD SUB SLT PUSH2 0x4EB JUMPI POP MLOAD SWAP4 DUP6 PUSH2 0x627 JUMP JUMPDEST RETURNDATASIZE SWAP2 POP PUSH2 0x75F JUMP JUMPDEST CALLVALUE PUSH2 0xDD JUMPI PUSH1 0x0 CALLDATASIZE PUSH1 0x3 NOT ADD SLT PUSH2 0xDD JUMPI PUSH1 0x20 PUSH1 0x40 MLOAD PUSH20 0xEA87AE93FA0019A82A727BFD3EBD1CFCA8F64F1D DUP2 MSTORE RETURN JUMPDEST CALLVALUE PUSH2 0xDD JUMPI PUSH1 0x0 CALLDATASIZE PUSH1 0x3 NOT ADD SLT PUSH2 0xDD JUMPI PUSH1 0x0 SLOAD PUSH1 0x40 MLOAD PUSH1 0x1 PUSH1 0x1 PUSH1 0xA0 SHL SUB SWAP1 SWAP2 AND DUP2 MSTORE PUSH1 0x20 SWAP1 RETURN JUMPDEST CALLVALUE PUSH2 0xDD JUMPI PUSH1 0x0 CALLDATASIZE PUSH1 0x3 NOT ADD SLT PUSH2 0xDD JUMPI PUSH2 0x7F6 PUSH2 0xE30 JUMP JUMPDEST PUSH1 0x0 DUP1 SLOAD PUSH1 0x1 PUSH1 0x1 PUSH1 0xA0 SHL SUB NOT DUP2 AND DUP3 SSTORE PUSH1 0x1 PUSH1 0x1 PUSH1 0xA0 SHL SUB AND PUSH32 0x8BE0079C531659141344CD1FD0A4F28419497F9722A3DAAFE3B4186F6B6457E0 DUP3 DUP1 LOG3 STOP JUMPDEST CALLVALUE PUSH2 0xDD JUMPI PUSH1 0x20 CALLDATASIZE PUSH1 0x3 NOT ADD SLT PUSH2 0xDD JUMPI PUSH8 0xFFFFFFFFFFFFFFFF PUSH2 0x858 PUSH2 0xC34 JUMP JUMPDEST AND PUSH1 0x0 MSTORE PUSH1 0x3 PUSH1 0x20 MSTORE PUSH1 0x80 PUSH1 0x40 PUSH1 0x0 KECCAK256 DUP1 SLOAD SWAP1 PUSH1 0x2 PUSH1 0x1 DUP3 ADD SLOAD SWAP2 ADD SLOAD SWAP1 PUSH1 0x40 MLOAD SWAP3 PUSH4 0xFFFFFFFF DUP2 AND DUP5 MSTORE PUSH1 0x1 DUP1 PUSH1 0xA0 SHL SUB SWAP1 PUSH1 0x20 SHR AND PUSH1 0x20 DUP5 ADD MSTORE PUSH1 0x40 DUP4 ADD MSTORE PUSH1 0x60 DUP3 ADD MSTORE RETURN JUMPDEST CALLVALUE PUSH2 0xDD JUMPI PUSH2 0x8F2 PUSH1 0x20 PUSH2 0x8C1 PUSH2 0x8B6 CALLDATASIZE PUSH2 0xC74 JUMP JUMPDEST SWAP4 SWAP2 SWAP3 SWAP4 CALLDATASIZE SWAP2 PUSH2 0xD3E JUMP JUMPDEST PUSH1 0x1 SLOAD PUSH1 0x40 MLOAD PUSH4 0x138857A3 PUSH1 0xE3 SHL DUP2 MSTORE SWAP6 DUP7 SWAP5 PUSH1 0x1 PUSH1 0x1 PUSH1 0xA0 SHL SUB SWAP3 DUP4 AND SWAP5 DUP7 SWAP5 DUP6 SWAP5 SWAP1 SWAP3 SWAP2 AND SWAP1 PUSH1 0x4 DUP6 ADD PUSH2 0xD85 JUMP JUMPDEST SUB SWAP2 GAS STATICCALL DUP1 ISZERO PUSH2 0x1EC JUMPI PUSH1 0x0 SWAP1 PUSH2 0x90F JUMPI JUMPDEST PUSH1 0x20 SWAP1 PUSH1 0x40 MLOAD SWAP1 DUP2 MSTORE RETURN JUMPDEST POP PUSH1 0x20 DUP2 RETURNDATASIZE PUSH1 0x20 GT PUSH2 0x93A JUMPI JUMPDEST DUP2 PUSH2 0x929 PUSH1 0x20 SWAP4 DUP4 PUSH2 0xD1C JUMP JUMPDEST DUP2 ADD SUB SLT PUSH2 0xDD JUMPI PUSH1 0x20 SWAP1 MLOAD PUSH2 0x904 JUMP JUMPDEST RETURNDATASIZE SWAP2 POP PUSH2 0x91C JUMP JUMPDEST CALLVALUE PUSH2 0xDD JUMPI PUSH1 0x60 CALLDATASIZE PUSH1 0x3 NOT ADD SLT PUSH2 0xDD JUMPI PUSH2 0x95B PUSH2 0xC34 JUMP JUMPDEST PUSH2 0x963 PUSH2 0xC4B JUMP JUMPDEST POP PUSH1 0x2 SLOAD PUSH1 0x44 CALLDATALOAD SWAP2 SWAP1 PUSH1 0x1 PUSH1 0x1 PUSH1 0xA0 SHL SUB AND DUP1 ISZERO PUSH2 0xBCB JUMPI CALLER SUB PUSH2 0xB7A JUMPI PUSH8 0xFFFFFFFFFFFFFFFF AND SWAP1 DUP2 PUSH1 0x0 MSTORE PUSH1 0x3 PUSH1 0x20 MSTORE PUSH1 0x40 PUSH1 0x0 KECCAK256 SWAP1 PUSH1 0x40 MLOAD PUSH2 0x9A7 DUP2 PUSH2 0xCEA JUMP JUMPDEST DUP3 SLOAD SWAP1 PUSH1 0x2 PUSH4 0xFFFFFFFF DUP4 AND SWAP5 DUP6 DUP4 MSTORE PUSH1 0x20 DUP4 ADD SWAP4 PUSH1 0x1 DUP1 PUSH1 0xA0 SHL SUB SWAP1 PUSH1 0x20 SHR AND DUP5 MSTORE PUSH1 0x1 DUP2 ADD SLOAD PUSH1 0x40 DUP5 ADD MSTORE ADD SLOAD SWAP4 PUSH1 0x60 DUP3 ADD SWAP5 DUP6 MSTORE ISZERO PUSH2 0xB29 JUMPI PUSH2 0xA8B SWAP4 PUSH1 0x20 SWAP3 PUSH1 0x40 MLOAD SWAP3 PUSH2 0x9F7 DUP5 PUSH2 0xCEA JUMP JUMPDEST DUP6 DUP5 MSTORE DUP5 DUP5 ADD SWAP4 DUP6 DUP6 MSTORE PUSH1 0x60 PUSH1 0x40 DUP3 ADD SWAP2 DUP11 DUP4 MSTORE ADD SWAP3 ADDRESS DUP5 MSTORE PUSH1 0x1 DUP1 PUSH1 0xA0 SHL SUB SWAP1 MLOAD AND SWAP3 PUSH8 0xFFFFFFFFFFFFFFFF PUSH4 0xFFFFFFFF PUSH1 0x1 DUP1 PUSH1 0xA0 SHL SUB PUSH1 0x1 SLOAD AND SWAP7 MLOAD SWAP5 MLOAD AND SWAP3 PUSH1 0x40 MLOAD SWAP8 DUP11 DUP11 DUP11 ADD MSTORE MLOAD PUSH1 0x40 DUP10 ADD MSTORE MLOAD AND PUSH1 0x60 DUP8 ADD MSTORE PUSH1 0x1 DUP1 PUSH1 0xA0 SHL SUB SWAP1 MLOAD AND PUSH1 0x80 DUP7 ADD MSTORE PUSH1 0x80 DUP6 MSTORE PUSH2 0xA6E PUSH1 0xA0 DUP7 PUSH2 0xD1C JUMP JUMPDEST PUSH1 0x40 MLOAD PUSH4 0xFA31DE01 PUSH1 0xE0 SHL DUP2 MSTORE SWAP8 DUP9 SWAP6 DUP7 SWAP5 DUP6 SWAP4 PUSH1 0x4 DUP6 ADD PUSH2 0xD85 JUMP JUMPDEST SUB SWAP3 GAS CALL SWAP1 DUP2 ISZERO PUSH2 0x1EC JUMPI DUP4 SWAP3 PUSH1 0x0 SWAP3 PUSH2 0xAF1 JUMPI JUMPDEST POP PUSH32 0x719CAD4BCCAF472DCA017B233609217A9B60243706615C90A5CAA73152A1E5FF SWAP2 PUSH1 0x40 SWAP2 DUP3 MLOAD SWAP2 DUP3 MSTORE PUSH1 0x20 DUP3 ADD MSTORE LOG2 PUSH1 0x0 MSTORE PUSH1 0x3 PUSH1 0x20 MSTORE PUSH1 0x0 PUSH1 0x2 PUSH1 0x40 DUP3 KECCAK256 DUP3 DUP2 SSTORE DUP3 PUSH1 0x1 DUP3 ADD SSTORE ADD SSTORE PUSH1 0x0 DUP1 RETURN JUMPDEST SWAP3 POP SWAP1 POP PUSH1 0x20 DUP3 RETURNDATASIZE PUSH1 0x20 GT PUSH2 0xB21 JUMPI JUMPDEST DUP2 PUSH2 0xB0E PUSH1 0x20 SWAP4 DUP4 PUSH2 0xD1C JUMP JUMPDEST DUP2 ADD SUB SLT PUSH2 0xDD JUMPI SWAP1 MLOAD DUP3 SWAP2 PUSH1 0x40 PUSH2 0xAA0 JUMP JUMPDEST RETURNDATASIZE SWAP2 POP PUSH2 0xB01 JUMP JUMPDEST PUSH1 0x40 MLOAD PUSH3 0x461BCD PUSH1 0xE5 SHL DUP2 MSTORE PUSH1 0x20 PUSH1 0x4 DUP3 ADD MSTORE PUSH1 0x24 DUP1 DUP3 ADD MSTORE PUSH32 0x4E6F2070656E64696E67207265717565737420666F7220746869732073657175 PUSH1 0x44 DUP3 ADD MSTORE PUSH4 0x656E6365 PUSH1 0xE0 SHL PUSH1 0x64 DUP3 ADD MSTORE PUSH1 0x84 SWAP1 REVERT JUMPDEST PUSH1 0x40 MLOAD PUSH3 0x461BCD PUSH1 0xE5 SHL DUP2 MSTORE PUSH1 0x20 PUSH1 0x4 DUP3 ADD MSTORE PUSH1 0x23 PUSH1 0x24 DUP3 ADD MSTORE PUSH32 0x4F6E6C7920456E74726F70792063616E2063616C6C20746869732066756E6374 PUSH1 0x44 DUP3 ADD MSTORE PUSH3 0x34B7B7 PUSH1 0xE9 SHL PUSH1 0x64 DUP3 ADD MSTORE PUSH1 0x84 SWAP1 REVERT JUMPDEST PUSH1 0x40 MLOAD PUSH3 0x461BCD PUSH1 0xE5 SHL DUP2 MSTORE PUSH1 0x20 PUSH1 0x4 DUP3 ADD MSTORE PUSH1 0x17 PUSH1 0x24 DUP3 ADD MSTORE PUSH32 0x456E74726F70792061646472657373206E6F7420736574000000000000000000 PUSH1 0x44 DUP3 ADD MSTORE PUSH1 0x64 SWAP1 REVERT JUMPDEST CALLVALUE PUSH2 0xDD JUMPI PUSH1 0x0 CALLDATASIZE PUSH1 0x3 NOT ADD SLT PUSH2 0xDD JUMPI PUSH1 0x2 SLOAD PUSH1 0x1 PUSH1 0x1 PUSH1 0xA0 SHL SUB AND DUP2 MSTORE PUSH1 0x20 SWAP1 RETURN JUMPDEST PUSH1 0x4 CALLDATALOAD SWAP1 PUSH8 0xFFFFFFFFFFFFFFFF DUP3 AND DUP3 SUB PUSH2 0xDD JUMPI JUMP JUMPDEST PUSH1 0x24 CALLDATALOAD SWAP1 PUSH1 0x1 PUSH1 0x1 PUSH1 0xA0 SHL SUB DUP3 AND DUP3 SUB PUSH2 0xDD JUMPI JUMP JUMPDEST PUSH1 0x4 CALLDATALOAD SWAP1 PUSH4 0xFFFFFFFF DUP3 AND DUP3 SUB PUSH2 0xDD JUMPI JUMP JUMPDEST SWAP1 PUSH1 0x60 PUSH1 0x3 NOT DUP4 ADD SLT PUSH2 0xDD JUMPI PUSH1 0x4 CALLDATALOAD PUSH4 0xFFFFFFFF DUP2 AND DUP2 SUB PUSH2 0xDD JUMPI SWAP2 PUSH1 0x24 CALLDATALOAD PUSH1 0x1 PUSH1 0x1 PUSH1 0xA0 SHL SUB DUP2 AND DUP2 SUB PUSH2 0xDD JUMPI SWAP2 PUSH1 0x44 CALLDATALOAD PUSH8 0xFFFFFFFFFFFFFFFF DUP2 GT PUSH2 0xDD JUMPI DUP3 PUSH1 0x23 DUP3 ADD SLT ISZERO PUSH2 0xDD JUMPI DUP1 PUSH1 0x4 ADD CALLDATALOAD SWAP3 PUSH8 0xFFFFFFFFFFFFFFFF DUP5 GT PUSH2 0xDD JUMPI PUSH1 0x24 DUP5 DUP4 ADD ADD GT PUSH2 0xDD JUMPI PUSH1 0x24 ADD SWAP2 SWAP1 JUMP JUMPDEST PUSH1 0x80 DUP2 ADD SWAP1 DUP2 LT PUSH8 0xFFFFFFFFFFFFFFFF DUP3 GT OR PUSH2 0xD06 JUMPI PUSH1 0x40 MSTORE JUMP JUMPDEST PUSH4 0x4E487B71 PUSH1 0xE0 SHL PUSH1 0x0 MSTORE PUSH1 0x41 PUSH1 0x4 MSTORE PUSH1 0x24 PUSH1 0x0 REVERT JUMPDEST SWAP1 PUSH1 0x1F DUP1 NOT SWAP2 ADD AND DUP2 ADD SWAP1 DUP2 LT PUSH8 0xFFFFFFFFFFFFFFFF DUP3 GT OR PUSH2 0xD06 JUMPI PUSH1 0x40 MSTORE JUMP JUMPDEST SWAP3 SWAP2 SWAP3 PUSH8 0xFFFFFFFFFFFFFFFF DUP3 GT PUSH2 0xD06 JUMPI PUSH1 0x40 MLOAD SWAP2 PUSH2 0xD68 PUSH1 0x1F DUP3 ADD PUSH1 0x1F NOT AND PUSH1 0x20 ADD DUP5 PUSH2 0xD1C JUMP JUMPDEST DUP3 SWAP5 DUP2 DUP5 MSTORE DUP2 DUP4 ADD GT PUSH2 0xDD JUMPI DUP3 DUP2 PUSH1 0x20 SWAP4 DUP5 PUSH1 0x0 SWAP7 ADD CALLDATACOPY ADD ADD MSTORE JUMP JUMPDEST SWAP2 SWAP1 PUSH4 0xFFFFFFFF SWAP1 SWAP5 SWAP4 SWAP5 AND DUP3 MSTORE PUSH1 0x20 DUP3 ADD MSTORE PUSH1 0x60 PUSH1 0x40 DUP3 ADD MSTORE DUP3 MLOAD DUP1 PUSH1 0x60 DUP4 ADD MSTORE PUSH1 0x0 JUMPDEST DUP2 DUP2 LT PUSH2 0xDCB JUMPI POP PUSH1 0x80 SWAP3 SWAP4 POP PUSH1 0x0 DUP4 DUP3 DUP5 ADD ADD MSTORE PUSH1 0x1F DUP1 NOT SWAP2 ADD AND ADD ADD SWAP1 JUMP JUMPDEST DUP1 PUSH1 0x20 DUP1 SWAP3 DUP8 ADD ADD MLOAD PUSH1 0x80 DUP3 DUP7 ADD ADD MSTORE ADD PUSH2 0xDAA JUMP JUMPDEST SWAP2 SWAP1 DUP3 SUB SWAP2 DUP3 GT PUSH2 0xDEE JUMPI JUMP JUMPDEST PUSH4 0x4E487B71 PUSH1 0xE0 SHL PUSH1 0x0 MSTORE PUSH1 0x11 PUSH1 0x4 MSTORE PUSH1 0x24 PUSH1 0x0 REVERT JUMPDEST SWAP1 DUP2 PUSH1 0x20 SWAP2 SUB SLT PUSH2 0xDD JUMPI MLOAD PUSH1 0x1 PUSH1 0x1 PUSH1 0x80 SHL SUB DUP2 AND DUP2 SUB PUSH2 0xDD JUMPI SWAP1 JUMP JUMPDEST SWAP2 SWAP1 DUP3 ADD DUP1 SWAP3 GT PUSH2 0xDEE JUMPI JUMP JUMPDEST PUSH1 0x0 SLOAD PUSH1 0x1 PUSH1 0x1 PUSH1 0xA0 SHL SUB AND CALLER SUB PUSH2 0xE44 JUMPI JUMP JUMPDEST PUSH4 0x118CDAA7 PUSH1 0xE0 SHL PUSH1 0x0 MSTORE CALLER PUSH1 0x4 MSTORE PUSH1 0x24 PUSH1 0x0 REVERT INVALID LOG2 PUSH5 0x6970667358 0x22 SLT KECCAK256 SWAP14 0xA9 0xE4 0xD3 MSIZE EXP 0xB9 0xB5 COINBASE SHL SWAP4 PUSH19 0xC65CA3C4F71ACCF730C042D16152F82F66224C PC PUSH5 0x736F6C6343 STOP ADDMOD SHR STOP CALLER "
        },
        "methodIdentifiers": {
          "ENTROPY_ADDRESS()": "fbd84123",
          "MAILBOX_ADDRESS()": "b85ec505",
          "_entropyCallback(uint64,address,bytes32)": "52a5f1f8",
          "entropy()": "47ce07cc",
          "mailbox()": "d5438eae",
          "owner()": "8da5cb5b",
          "pendingRequests(uint64)": "65b07d58",
          "quoteEntropyRelay(uint32,address)": "f3709157",
          "quoteSendMessage(uint32,address,string)": "55c7eb53",
          "renounceOwnership()": "715018a6",
          "requestAndRelayEntropy(uint32,address)": "df50d66c",
          "sendMessage(uint32,address,string)": "d526a753",
          "transferOwnership(address)": "f2fde38b"
        }
      }
    }
  }
}