{
  "contracts/TradingCardGame.sol": {
    "TradingCardGame": {
      "abi": [
        {
          "inputs": [
            {
              "internalType": "address",
              "name": "_pythAddress",
              "type": "address"
            }
          ],
          "stateMutability": "nonpayable",
          "type": "constructor"
        },
        {
          "anonymous": false,
          "inputs": [
            {
              "indexed": true,
              "internalType": "uint256",
              "name": "gameId",
              "type": "uint256"
            },
            {
              "indexed": true,
              "internalType": "address",
              "name": "player",
              "type": "address"
            },
            {
              "indexed": false,
              "internalType": "uint256[3]",
              "name": "cards",
              "type": "uint256[3]"
            }
          ],
          "name": "ChoicesCommitted",
          "type": "event"
        },
        {
          "anonymous": false,
          "inputs": [
            {
              "indexed": true,
              "internalType": "uint256",
              "name": "gameId",
              "type": "uint256"
            },
            {
              "indexed": false,
              "internalType": "uint256[]",
              "name": "cards",
              "type": "uint256[]"
            }
          ],
          "name": "GameActive",
          "type": "event"
        },
        {
          "anonymous": false,
          "inputs": [
            {
              "indexed": true,
              "internalType": "uint256",
              "name": "gameId",
              "type": "uint256"
            }
          ],
          "name": "GameEnded",
          "type": "event"
        },
        {
          "anonymous": false,
          "inputs": [
            {
              "indexed": true,
              "internalType": "uint256",
              "name": "gameId",
              "type": "uint256"
            },
            {
              "indexed": true,
              "internalType": "address",
              "name": "starter",
              "type": "address"
            }
          ],
          "name": "GameStarted",
          "type": "event"
        },
        {
          "anonymous": false,
          "inputs": [
            {
              "indexed": true,
              "internalType": "uint256",
              "name": "gameId",
              "type": "uint256"
            },
            {
              "indexed": true,
              "internalType": "address",
              "name": "player",
              "type": "address"
            }
          ],
          "name": "PlayerJoined",
          "type": "event"
        },
        {
          "anonymous": false,
          "inputs": [
            {
              "indexed": true,
              "internalType": "uint256",
              "name": "gameId",
              "type": "uint256"
            },
            {
              "indexed": true,
              "internalType": "address",
              "name": "player",
              "type": "address"
            },
            {
              "indexed": false,
              "internalType": "uint256",
              "name": "points",
              "type": "uint256"
            }
          ],
          "name": "PointsAwarded",
          "type": "event"
        },
        {
          "anonymous": false,
          "inputs": [
            {
              "indexed": true,
              "internalType": "uint256",
              "name": "gameId",
              "type": "uint256"
            }
          ],
          "name": "PricesUpdated",
          "type": "event"
        },
        {
          "inputs": [],
          "name": "CHOICE_DURATION",
          "outputs": [
            {
              "internalType": "uint256",
              "name": "",
              "type": "uint256"
            }
          ],
          "stateMutability": "view",
          "type": "function"
        },
        {
          "inputs": [],
          "name": "LOBBY_DURATION",
          "outputs": [
            {
              "internalType": "uint256",
              "name": "",
              "type": "uint256"
            }
          ],
          "stateMutability": "view",
          "type": "function"
        },
        {
          "inputs": [],
          "name": "MIN_PLAYERS",
          "outputs": [
            {
              "internalType": "uint256",
              "name": "",
              "type": "uint256"
            }
          ],
          "stateMutability": "view",
          "type": "function"
        },
        {
          "inputs": [],
          "name": "POINTS_MARKET_CAP_VOLUME",
          "outputs": [
            {
              "internalType": "uint256",
              "name": "",
              "type": "uint256"
            }
          ],
          "stateMutability": "view",
          "type": "function"
        },
        {
          "inputs": [],
          "name": "POINTS_PERCENTAGE_CHANGE",
          "outputs": [
            {
              "internalType": "uint256",
              "name": "",
              "type": "uint256"
            }
          ],
          "stateMutability": "view",
          "type": "function"
        },
        {
          "inputs": [],
          "name": "POINTS_PRICE_ABOVE_BELOW",
          "outputs": [
            {
              "internalType": "uint256",
              "name": "",
              "type": "uint256"
            }
          ],
          "stateMutability": "view",
          "type": "function"
        },
        {
          "inputs": [],
          "name": "POINTS_PRICE_UP_DOWN",
          "outputs": [
            {
              "internalType": "uint256",
              "name": "",
              "type": "uint256"
            }
          ],
          "stateMutability": "view",
          "type": "function"
        },
        {
          "inputs": [],
          "name": "RESOLUTION_DURATION",
          "outputs": [
            {
              "internalType": "uint256",
              "name": "",
              "type": "uint256"
            }
          ],
          "stateMutability": "view",
          "type": "function"
        },
        {
          "inputs": [
            {
              "internalType": "uint256",
              "name": "",
              "type": "uint256"
            }
          ],
          "name": "assetPriceIds",
          "outputs": [
            {
              "internalType": "bytes32",
              "name": "",
              "type": "bytes32"
            }
          ],
          "stateMutability": "view",
          "type": "function"
        },
        {
          "inputs": [
            {
              "internalType": "uint256",
              "name": "_gameId",
              "type": "uint256"
            }
          ],
          "name": "canStartGame",
          "outputs": [
            {
              "internalType": "bool",
              "name": "canStart",
              "type": "bool"
            },
            {
              "internalType": "string",
              "name": "reason",
              "type": "string"
            }
          ],
          "stateMutability": "view",
          "type": "function"
        },
        {
          "inputs": [
            {
              "internalType": "uint256",
              "name": "_gameId",
              "type": "uint256"
            },
            {
              "internalType": "uint256[3]",
              "name": "_cardNumbers",
              "type": "uint256[3]"
            }
          ],
          "name": "commitChoices",
          "outputs": [],
          "stateMutability": "nonpayable",
          "type": "function"
        },
        {
          "inputs": [],
          "name": "createGame",
          "outputs": [
            {
              "internalType": "uint256",
              "name": "",
              "type": "uint256"
            }
          ],
          "stateMutability": "nonpayable",
          "type": "function"
        },
        {
          "inputs": [
            {
              "internalType": "uint256",
              "name": "_gameId",
              "type": "uint256"
            }
          ],
          "name": "endGame",
          "outputs": [],
          "stateMutability": "nonpayable",
          "type": "function"
        },
        {
          "inputs": [
            {
              "internalType": "uint256",
              "name": "",
              "type": "uint256"
            }
          ],
          "name": "games",
          "outputs": [
            {
              "internalType": "uint256",
              "name": "gameId",
              "type": "uint256"
            },
            {
              "internalType": "enum TradingCardGame.GameStatus",
              "name": "status",
              "type": "uint8"
            },
            {
              "internalType": "uint256",
              "name": "startTime",
              "type": "uint256"
            },
            {
              "internalType": "uint256",
              "name": "lobbyDeadline",
              "type": "uint256"
            },
            {
              "internalType": "uint256",
              "name": "choiceDeadline",
              "type": "uint256"
            },
            {
              "internalType": "uint256",
              "name": "resolutionDeadline",
              "type": "uint256"
            },
            {
              "internalType": "bool",
              "name": "resolved",
              "type": "bool"
            }
          ],
          "stateMutability": "view",
          "type": "function"
        },
        {
          "inputs": [
            {
              "internalType": "uint256",
              "name": "_gameId",
              "type": "uint256"
            }
          ],
          "name": "getGameCards",
          "outputs": [
            {
              "internalType": "uint256[]",
              "name": "",
              "type": "uint256[]"
            }
          ],
          "stateMutability": "view",
          "type": "function"
        },
        {
          "inputs": [
            {
              "internalType": "uint256",
              "name": "_gameId",
              "type": "uint256"
            }
          ],
          "name": "getGamePlayers",
          "outputs": [
            {
              "internalType": "address[]",
              "name": "",
              "type": "address[]"
            }
          ],
          "stateMutability": "view",
          "type": "function"
        },
        {
          "inputs": [
            {
              "internalType": "uint256",
              "name": "_gameId",
              "type": "uint256"
            }
          ],
          "name": "getGameState",
          "outputs": [
            {
              "internalType": "enum TradingCardGame.GameStatus",
              "name": "status",
              "type": "uint8"
            },
            {
              "internalType": "uint256",
              "name": "startTime",
              "type": "uint256"
            },
            {
              "internalType": "uint256",
              "name": "lobbyDeadline",
              "type": "uint256"
            },
            {
              "internalType": "uint256",
              "name": "choiceDeadline",
              "type": "uint256"
            },
            {
              "internalType": "uint256",
              "name": "resolutionDeadline",
              "type": "uint256"
            },
            {
              "internalType": "uint256",
              "name": "playerCount",
              "type": "uint256"
            },
            {
              "internalType": "uint256",
              "name": "cardCount",
              "type": "uint256"
            }
          ],
          "stateMutability": "view",
          "type": "function"
        },
        {
          "inputs": [
            {
              "internalType": "uint256",
              "name": "_gameId",
              "type": "uint256"
            },
            {
              "internalType": "address",
              "name": "_player",
              "type": "address"
            }
          ],
          "name": "getGameStateWithPlayer",
          "outputs": [
            {
              "internalType": "enum TradingCardGame.GameStatus",
              "name": "status",
              "type": "uint8"
            },
            {
              "internalType": "uint256",
              "name": "startTime",
              "type": "uint256"
            },
            {
              "internalType": "uint256",
              "name": "lobbyDeadline",
              "type": "uint256"
            },
            {
              "internalType": "uint256",
              "name": "choiceDeadline",
              "type": "uint256"
            },
            {
              "internalType": "uint256",
              "name": "resolutionDeadline",
              "type": "uint256"
            },
            {
              "internalType": "uint256",
              "name": "playerCount",
              "type": "uint256"
            },
            {
              "internalType": "uint256",
              "name": "cardCount",
              "type": "uint256"
            },
            {
              "internalType": "bool",
              "name": "playerHasCommitted",
              "type": "bool"
            },
            {
              "internalType": "uint256[3]",
              "name": "playerSelectedCards",
              "type": "uint256[3]"
            }
          ],
          "stateMutability": "view",
          "type": "function"
        },
        {
          "inputs": [],
          "name": "getNextGameId",
          "outputs": [
            {
              "internalType": "uint256",
              "name": "",
              "type": "uint256"
            }
          ],
          "stateMutability": "view",
          "type": "function"
        },
        {
          "inputs": [
            {
              "internalType": "address",
              "name": "_player",
              "type": "address"
            }
          ],
          "name": "getPlayerActiveGame",
          "outputs": [
            {
              "internalType": "uint256",
              "name": "",
              "type": "uint256"
            }
          ],
          "stateMutability": "view",
          "type": "function"
        },
        {
          "inputs": [
            {
              "internalType": "uint256",
              "name": "_gameId",
              "type": "uint256"
            },
            {
              "internalType": "address",
              "name": "_player",
              "type": "address"
            }
          ],
          "name": "getPlayerChoices",
          "outputs": [
            {
              "internalType": "uint256[3]",
              "name": "selectedCards",
              "type": "uint256[3]"
            },
            {
              "internalType": "uint256",
              "name": "committedAt",
              "type": "uint256"
            },
            {
              "internalType": "bool",
              "name": "committed",
              "type": "bool"
            }
          ],
          "stateMutability": "view",
          "type": "function"
        },
        {
          "inputs": [
            {
              "internalType": "address",
              "name": "_player",
              "type": "address"
            }
          ],
          "name": "getPlayerScore",
          "outputs": [
            {
              "internalType": "uint256",
              "name": "totalPoints",
              "type": "uint256"
            },
            {
              "internalType": "uint256",
              "name": "gamesPlayed",
              "type": "uint256"
            },
            {
              "internalType": "uint256",
              "name": "gamesWon",
              "type": "uint256"
            }
          ],
          "stateMutability": "view",
          "type": "function"
        },
        {
          "inputs": [
            {
              "internalType": "uint256",
              "name": "_gameId",
              "type": "uint256"
            },
            {
              "internalType": "uint256",
              "name": "_cardNumber",
              "type": "uint256"
            }
          ],
          "name": "getPredictionResult",
          "outputs": [
            {
              "internalType": "bool",
              "name": "correct",
              "type": "bool"
            },
            {
              "internalType": "uint256",
              "name": "pointsEarned",
              "type": "uint256"
            }
          ],
          "stateMutability": "view",
          "type": "function"
        },
        {
          "inputs": [],
          "name": "isContractActive",
          "outputs": [
            {
              "internalType": "bool",
              "name": "",
              "type": "bool"
            }
          ],
          "stateMutability": "pure",
          "type": "function"
        },
        {
          "inputs": [
            {
              "internalType": "uint256",
              "name": "_gameId",
              "type": "uint256"
            }
          ],
          "name": "joinGame",
          "outputs": [],
          "stateMutability": "nonpayable",
          "type": "function"
        },
        {
          "inputs": [
            {
              "internalType": "uint256",
              "name": "",
              "type": "uint256"
            }
          ],
          "name": "leaderboard",
          "outputs": [
            {
              "internalType": "address",
              "name": "",
              "type": "address"
            }
          ],
          "stateMutability": "view",
          "type": "function"
        },
        {
          "inputs": [
            {
              "internalType": "address",
              "name": "",
              "type": "address"
            }
          ],
          "name": "playerActiveGame",
          "outputs": [
            {
              "internalType": "uint256",
              "name": "",
              "type": "uint256"
            }
          ],
          "stateMutability": "view",
          "type": "function"
        },
        {
          "inputs": [
            {
              "internalType": "address",
              "name": "",
              "type": "address"
            }
          ],
          "name": "playerScores",
          "outputs": [
            {
              "internalType": "address",
              "name": "player",
              "type": "address"
            },
            {
              "internalType": "uint256",
              "name": "totalPoints",
              "type": "uint256"
            },
            {
              "internalType": "uint256",
              "name": "gamesPlayed",
              "type": "uint256"
            },
            {
              "internalType": "uint256",
              "name": "gamesWon",
              "type": "uint256"
            }
          ],
          "stateMutability": "view",
          "type": "function"
        },
        {
          "inputs": [],
          "name": "pyth",
          "outputs": [
            {
              "internalType": "contract IPyth",
              "name": "",
              "type": "address"
            }
          ],
          "stateMutability": "view",
          "type": "function"
        },
        {
          "inputs": [
            {
              "internalType": "uint256",
              "name": "_assetIndex",
              "type": "uint256"
            },
            {
              "internalType": "bytes32",
              "name": "_priceId",
              "type": "bytes32"
            }
          ],
          "name": "setAssetPriceId",
          "outputs": [],
          "stateMutability": "nonpayable",
          "type": "function"
        },
        {
          "inputs": [
            {
              "internalType": "uint256",
              "name": "_gameId",
              "type": "uint256"
            },
            {
              "internalType": "bool",
              "name": "_useSecureRandomness",
              "type": "bool"
            }
          ],
          "name": "startGame",
          "outputs": [],
          "stateMutability": "nonpayable",
          "type": "function"
        },
        {
          "inputs": [
            {
              "internalType": "uint256",
              "name": "_gameId",
              "type": "uint256"
            }
          ],
          "name": "transitionToResolution",
          "outputs": [],
          "stateMutability": "nonpayable",
          "type": "function"
        },
        {
          "inputs": [
            {
              "internalType": "uint256",
              "name": "_gameId",
              "type": "uint256"
            },
            {
              "internalType": "bytes[]",
              "name": "_priceUpdateData",
              "type": "bytes[]"
            },
            {
              "internalType": "bytes32[]",
              "name": "",
              "type": "bytes32[]"
            },
            {
              "internalType": "uint256",
              "name": "_updateFee",
              "type": "uint256"
            }
          ],
          "name": "updatePricesAndResolve",
          "outputs": [],
          "stateMutability": "payable",
          "type": "function"
        }
      ],
      "evm": {
        "bytecode": {
          "linkReferences": {},
          "object": "60a034607457601f6120ae38819003918201601f19168301916001600160401b03831184841017607957808492602094604052833981010312607457516001600160a01b03811690819003607457608052600160005560405161201e90816100908239608051818181610235015261119a0152f35b600080fd5b634e487b7160e01b600052604160045260246000fdfe6080604052600436101561001257600080fd5b6000803560e01c806310c28d3114611b1c578063117a5b9014611aa05780631226897a14611a8457806315a40f49146119ac578063392b749c1461194c5780633c8aec3f146119225780634b9a2a2c146117e657806353644f31146117bf5780635c5c8382146108da57806362550ae11461175b5780637255d7291461165b5780637ca90e591461163e5780637f57504f146115d857806385f07bbe146115bc578063860cbc77146114f6578063863df0a1146114bd5780638f5949f9146114a15780639a18e981146113ca578063a457d3d614611068578063ad7465d41461103c578063b0fd159f14611020578063bee4c6d314611004578063bf36839914610f83578063d0399bb814610c8d578063d7793c1914610933578063e085c539146108df578063e5c43ef1146108da578063e7fad8af146108be578063ede8af01146108a1578063efaa55a0146106d4578063f79c913e14610264578063f98d06f01461021f5763ffde0c741461018857600080fd5b3461021c57602036600319011261021c57604060e09160043580151580610212575b6101b390611d30565b815260016020522060ff600182015416906002810154906003810154600482015460058301549160076006850154940154946101f26040518098611c16565b602087015260408601526060850152608084015260a083015260c0820152f35b50815481106101aa565b80fd5b503461021c578060031936011261021c576040517f00000000000000000000000000000000000000000000000000000000000000006001600160a01b03168152602090f35b503461021c57608036600319011261021c5760043536604312156106d05760405190610291606083611cc8565b81366084116106cc576024905b608482106106bc575050801515806106b2575b6102ba90611d30565b808352600160205260ff600160408520015416600581101561069e5760026102e29114611f25565b8083526001602052604083209060048201928354421161066057600883019460018060a01b0333166000528560205260ff60056040600020015416610627578093819460068201958654905b8181106105f1575b5050156105ac5760078101805495979096835b6003811015806103f7578590865b8b8b82106103ab575b5050501561037057600101610349565b60405162461bcd60e51b815260206004820152601360248201527224b73b30b634b21031b0b93210373ab6b132b960691b6044820152606490fd5b6103b6828492611d02565b90549060031b1c906103e3578460051b8a0151146103d657600101610357565b505050600138808b610360565b634e487b7160e01b89526032600452602489fd5b50508885876040516080810181811067ffffffffffffffff8211176105985760405233815260208101838152604082014281526060830191600183526040600060018060a01b03331681528a602052209360018060a01b039051166bffffffffffffffffffffffff60a01b855416178455518a5b60038110610582575050610499929160059151600484015551151591019060ff801983541691151516179055565b6104a66040518093611bee565b7fd67de08bd4ba5b6a6548667370488a8781753615acb89ae1ac1f96f6c270ecf060603393a360019285918054925b838110610534575b505050508115610528575b506104f1575080f35b60018101600360ff19825416179055610258420190814211610514576005015580f35b634e487b7160e01b83526011600452602483fd5b905054421015836104e8565b60ff600560406105448486611d02565b905460039190911b1c6001600160a01b0316600090815260208790522001541615610571576001016104d5565b5050505090508290848080806104dd565b600190602083519301928282880101550161046b565b634e487b7160e01b89526041600452602489fd5b60405162461bcd60e51b815260206004820152601960248201527f4e6f74206120706c6179657220696e20746869732067616d65000000000000006044820152606490fd5b6105fb8189611d02565b905460039190911b1c6001600160a01b0316331461061b5760010161032e565b50505060013880610336565b60405162461bcd60e51b8152602060048201526011602482015270105b1c9958591e4818dbdb5b5a5d1d1959607a1b6044820152606490fd5b60405162461bcd60e51b815260206004820152601660248201527510da1bda58d948191958591b1a5b99481c185cdcd95960521b6044820152606490fd5b634e487b7160e01b84526021600452602484fd5b50825481106102b1565b813581526020918201910161029e565b8380fd5b5080fd5b503461021c57602036600319011261021c5760043580151580610897575b6106fb90611d30565b808252600160205260ff6001604084200154166005811015610883576107219015611f25565b8082526001602052604082206003810154421161084f576006018054835b8181106107ef57505033835260046020526040832054801515806107e5575b6107a6575b5061076f903390611ee4565b338252600460205280604083205533907f87969bc7faf902221a147b95ceba76e011c5efb0339a0a8ee7a2bb82d9cfbbd68380a380f35b8352600160205260ff600160408520015416600581101561069e57906107d1600461076f9314611e66565b338452600460205283604081205590610763565b508281141561075e565b6107f98184611d02565b905460039190911b1c6001600160a01b031633146108195760010161073f565b60405162461bcd60e51b815260206004820152600e60248201526d105b1c9958591e481a9bda5b995960921b6044820152606490fd5b60405162461bcd60e51b815260206004820152600c60248201526b131bd8989e4818db1bdcd95960a21b6044820152606490fd5b634e487b7160e01b83526021600452602483fd5b50815481106106f2565b503461021c578060031936011261021c5760209054604051908152f35b503461021c578060031936011261021c576020604051600a8152f35b611c7a565b503461021c57602036600319011261021c576060906040906001600160a01b03610907611bd8565b168152600260205220600181015490600360028201549101549060405192835260208301526040820152f35b503461021c57604036600319011261021c576004356024358015158103610c895781151580610c7f575b61096690611d30565b818352600160205260ff600160408520015416600581101561069e5761098c9015611f25565b818352600160205260036040842001544210610c4257818352600160205260408320600181019160ff8354166005811015610c2e57610bf55783855260016020526007604086200154610bb05715610b3d578284526001602052604084209260405191610140830183811067ffffffffffffffff821117610b29576040959495526104d2835261162e60208401526123346040840152610d806060840152611ed2608084015261092960a0840152611a8560c08401526111d760e08401526122c561010084015261054d6101208401526007869401935b600a811015610a8557600190610a7f8160051b86015187611fb3565b01610a63565b5092509290505b600260ff19825416179055603c4201804211610b1557906007916004820155016040519060208201602083528154809152604083019185526020852090855b818110610aff5750505090807f1e16023bc0e15b4ad55f8e37dccf554d1451b0d26c8e55cd0e7e041eea33c75d920390a280f35b8254845260209093019260019283019201610acb565b634e487b7160e01b84526011600452602484fd5b634e487b7160e01b87526041600452602487fd5b9082845260016020526040842060078591013360601b915b600a8110610b6557505050610a8c565b600190610baa61271060405160208101904282524460408201528a60608201528460808201528760a082015260948152610ba060b482611cc8565b5190200684611fb3565b01610b55565b60405162461bcd60e51b815260206004820152601760248201527f436172647320616c72656164792067656e6572617465640000000000000000006044820152606490fd5b60405162461bcd60e51b815260206004820152601160248201527047616d65206e6f7420696e206c6f62627960781b6044820152606490fd5b634e487b7160e01b86526021600452602486fd5b60405162461bcd60e51b815260206004820152601560248201527410d85b9b9bdd081cdd185c9d0819d85b59481e595d605a1b6044820152606490fd5b508254821061095d565b8280fd5b503461021c57602036600319011261021c5760043580151580610f79575b610cb490611d30565b808252600160205260ff6001604084200154166005811015610883576003610cdc9114611f25565b8082526001602052604082209060058201544210610f3457600882019260098301929060068201815b8154811015610e9257610d188183611d02565b905460039190911b1c6001600160a01b03166000818152602089905260409020600581015491989093909160ff1615610e85578491825b6003841015610de957610d8f600191828689010154808a528c60205260ff8460408c2001541615610d97575b89528b602052600260408a20015490611ed7565b930192610d4f565b60405160028e610da683611c96565b838352610de08d604060208601918083528187019481865288825260205220945185555115158885019060ff801983541691151516179055565b51910155610d7b565b8891979550600194935060207f0dbadce3c07b5bc30ebbe2bcec3d6bb95f9b3a0bb33178ff0d61e4d7d4339915919b939b848952600282528660408a2001610e32828254611ed7565b905584895260028252600260408a2001610e4c8154611eb2565b905580610e66575b604051908152a35b0195909295610d05565b84895260028252600360408a2001610e7e8154611eb2565b9055610e54565b9750939150600190610e5c565b5091600101600460ff19825416179055805b8254811015610f0b5780610eba60019285611d02565b838060a01b0391549060031b1c168352600460205284604084205414610ee1575b01610ea4565b610eeb8185611d02565b838060a01b0391549060031b1c1683526004602052826040812055610edb565b50827fce24807f7e4b60b4e641462f13029fa5e5f79075bbc3f8e5cd43ecd19661d7608280a280f35b60405162461bcd60e51b815260206004820152601f60248201527f5265736f6c7574696f6e20646561646c696e65206e6f742072656163686564006044820152606490fd5b5081548110610cab565b503461021c57602036600319011261021c576004359060035482101561021c57600354821015610ff05760038082527fc2575a0e9e593c00f959f8c92f12db2869c3395a3b0502d05e2516446f71f85b92909201546040516001600160a01b039290931b1c168152602090f35b634e487b7160e01b81526032600452602490fd5b503461021c578060031936011261021c576020604051600f8152f35b503461021c578060031936011261021c57602060405160128152f35b503461021c57602036600319011261021c57602061106061105b611bd8565b611f67565b604051908152f35b50608036600319011261021c5760243560043567ffffffffffffffff8211610c895736602383011215610c89578160040135916110a483611cea565b906110b26040519283611cc8565b838252602082016024819560051b830101913683116112a75760248101915b838310611339575050505060443567ffffffffffffffff811161133557366023820112156113355780600401356024602061110b83611cea565b6111186040519182611cc8565b838152019160051b830101913683116112a757602401905b82821061132557505050606435928215158061131b575b61115090611d30565b828552600160205260ff6001604087200154166005811015610c2e5760036111789114611f25565b8285526001602052604085208434106112e357600a019360ff8554166112ab577f00000000000000000000000000000000000000000000000000000000000000006001600160a01b031691823b156112a7579290918692604051948593631df3cbc560e31b855260248501906020600487015251809152604485019060448160051b870101929187905b82821061127257505050509083809203925af1801561126757611253575b507f702ec30635253cae6d3600d38314e616495cf01545d34e549c49ebf6451dab3b8380a2805460ff1916600117905580f35b8361126091949294611cc8565b9138611220565b6040513d86823e3d90fd5b9295975092600191949650602061129481926043198c82030186528851611c39565b960192019201928795938b979593611202565b8680fd5b60405162461bcd60e51b815260206004820152601060248201526f105b1c9958591e481c995cdbdb1d995960821b6044820152606490fd5b60405162461bcd60e51b815260206004820152601060248201526f496e73756666696369656e742066656560801b6044820152606490fd5b5084548310611147565b8135815260209182019101611130565b8480fd5b823567ffffffffffffffff81116113c657820190366043830112156113c65760248201359067ffffffffffffffff82116113b257604051611384601f8401601f191660200182611cc8565b8281528a366044868601011161021c57602084819695604483970183860137830101528152019201916110d1565b634e487b7160e01b8a52604160045260248afd5b8880fd5b503461021c57602036600319011261021c5760043580151580611497575b6113f190611d30565b808252600160205260ff60016040842001541660058110156108835760026114199114611f25565b8152600160205260408120600481015442106114525760018101600360ff19825416179055610258420190814211610514576005015580f35b60405162461bcd60e51b815260206004820152601b60248201527f43686f69636520646561646c696e65206e6f74207265616368656400000000006044820152606490fd5b50815481106113e8565b503461021c578060031936011261021c57602060405160018152f35b503461021c57602036600319011261021c576020906040906001600160a01b036114e5611bd8565b168152600483522054604051908152f35b503461021c57602036600319011261021c57600435801515806115b2575b61151d90611d30565b8152600160205260076040822001604051908160208254918281520190819285526020852090855b81811061159c575050508261155b910383611cc8565b604051928392602084019060208552518091526040840192915b818110611583575050500390f35b8251845285945060209384019390920191600101611575565b8254845260209093019260019283019201611545565b5081548110611514565b503461021c578060031936011261021c57602060405160028152f35b503461021c57604036600319011261021c576040809160043580151580611634575b61160390611d30565b81526001602052600982822001602435825260205220600260ff600183015416910154825191151582526020820152f35b50815481106115fa565b503461021c578060031936011261021c5760206040516102588152f35b503461021c578060031936011261021c57338152600460205260408120548061170c575b5080549061168c82611eb2565b8155818152600160205260408120918083556001830160ff198154169055426002840155603c420180421161051457836116d191600360209601556006339101611ee4565b3382526004835280604083205560405191817ffadb9547847a0c2c31f4c02590545e318d33d7aae99071caecf3fa4ce3cd7dca339280a38152f35b8152600160205260ff60016040832001541660058110156117475760046117339114611e66565b33815260046020528060408120553861167f565b634e487b7160e01b82526021600452602482fd5b503461021c57602036600319011261021c576080906040906001600160a01b03611783611bd8565b16815260026020522060018060a01b03815416906001810154906003600282015491015491604051938452602084015260408301526060820152f35b503461021c57604036600319011261021c5760043581526005602052602435604082205580f35b503461021c57604036600319011261021c57610160906118d46004359161180b611bbd565b92606060405161181b8282611cc8565b36903780151580611918575b61183090611d30565b815260016020526040812092819060405161184a81611c96565b8381526020810184905260408101849052926001600160a01b0382166118d6575b505060ff600185015416936002810154906003810154600482015460058301549160076006850154940154946118a4604051809b611c16565b60208a015260408901526060880152608087015260a086015260c0850152151560e0840152610100830190611bee565bf35b6001600160a01b0390911681526008850160205260409020600581015460ff16611901575b8061186b565b9150506119116001809201611d6e565b90386118fb565b5081548110611827565b503461021c57602036600319011261021c5760406020916004358152600583522054604051908152f35b503461021c57602036600319011261021c5761197e906119796004359182151590816119a1575b50611d30565b611da5565b9061199d60405192839215158352604060208401526040830190611c39565b0390f35b905054821038611973565b503461021c57602036600319011261021c5760043580151580611a7a575b6119d390611d30565b8152600160205260066040822001604051908160208254918281520190819285526020852090855b818110611a5b5750505082611a11910383611cc8565b604051928392602084019060208552518091526040840192915b818110611a39575050500390f35b82516001600160a01b0316845285945060209384019390920191600101611a2b565b82546001600160a01b03168452602090930192600192830192016119fb565b50815481106119ca565b503461021c578060031936011261021c57602060405160148152f35b503461021c57602036600319011261021c57604060e091600435815260016020522080549060ff6001820154169060028101546003820154600483015491611aff60ff600a600587015496015416956040519788526020880190611c16565b60408601526060850152608084015260a0830152151560c0820152f35b503461021c57604036600319011261021c57604060a091600435611b3e611bbd565b9060608451611b4d8282611cc8565b36903780151580611bb3575b611b6290611d30565b8252600160205260088383200190600180861b0316825260205220600481015490611b97600160ff6005840154169201611d6e565b91611ba56040518094611bee565b606083015215156080820152f35b5082548110611b59565b602435906001600160a01b0382168203611bd357565b600080fd5b600435906001600160a01b0382168203611bd357565b906000905b60038210611c0057505050565b6020806001928551815201930191019091611bf3565b906005821015611c235752565b634e487b7160e01b600052602160045260246000fd5b919082519283825260005b848110611c65575050826000602080949584010152601f8019910116010190565b80602080928401015182828601015201611c44565b34611bd3576000366003190112611bd3576020604051603c8152f35b6060810190811067ffffffffffffffff821117611cb257604052565b634e487b7160e01b600052604160045260246000fd5b90601f8019910116810190811067ffffffffffffffff821117611cb257604052565b67ffffffffffffffff8111611cb25760051b60200190565b8054821015611d1a5760005260206000200190600090565b634e487b7160e01b600052603260045260246000fd5b15611d3757565b60405162461bcd60e51b815260206004820152600f60248201526e125b9d985b1a590819d85b59481251608a1b6044820152606490fd5b60405191906000835b60038210611d8f57505050611d8d606083611cc8565b565b6001602081928554815201930191019091611d77565b6000526001602052604060002060ff6001820154166005811015611c2357611e2757600301544210611de957600190604051611de2602082611cc8565b6000815290565b600090604051611dfa604082611cc8565b601a81527f4c6f62627920646561646c696e65206e6f742072656163686564000000000000602082015290565b50600090604051611e39604082611cc8565b601a81527f47616d65206973206e6f7420696e204c4f424259207374617465000000000000602082015290565b15611e6d57565b60405162461bcd60e51b815260206004820152601960248201527f416c726561647920696e20616e206163746976652067616d65000000000000006044820152606490fd5b6000198114611ec15760010190565b634e487b7160e01b600052601160045260246000fd5b91908201809211611ec157565b8054600160401b811015611cb257611f0191600182018155611d02565b81546001600160a01b0393841660039290921b91821b9390911b1916919091179055565b15611f2c57565b60405162461bcd60e51b8152602060048201526013602482015272496e76616c69642067616d652073746174757360681b6044820152606490fd5b6001600160a01b031660009081526004602052604090205480611f8b575b50600090565b80600052600160205260ff600160406000200154166005811015611c2357600414611f855790565b8054600160401b811015611cb257611fd091600182018155611d02565b819291549060031b91821b91600019901b191617905556fea26469706673582212200c03093d0069dcd7782f5f8fa9bc9afae6d4c8de1c39a3a603c663f2fa2f9aec64736f6c634300081c0033",
          "opcodes": "PUSH1 0xA0 CALLVALUE PUSH1 0x74 JUMPI PUSH1 0x1F PUSH2 0x20AE CODESIZE DUP2 SWAP1 SUB SWAP2 DUP3 ADD PUSH1 0x1F NOT AND DUP4 ADD SWAP2 PUSH1 0x1 PUSH1 0x1 PUSH1 0x40 SHL SUB DUP4 GT DUP5 DUP5 LT OR PUSH1 0x79 JUMPI DUP1 DUP5 SWAP3 PUSH1 0x20 SWAP5 PUSH1 0x40 MSTORE DUP4 CODECOPY DUP2 ADD SUB SLT PUSH1 0x74 JUMPI MLOAD PUSH1 0x1 PUSH1 0x1 PUSH1 0xA0 SHL SUB DUP2 AND SWAP1 DUP2 SWAP1 SUB PUSH1 0x74 JUMPI PUSH1 0x80 MSTORE PUSH1 0x1 PUSH1 0x0 SSTORE PUSH1 0x40 MLOAD PUSH2 0x201E SWAP1 DUP2 PUSH2 0x90 DUP3 CODECOPY PUSH1 0x80 MLOAD DUP2 DUP2 DUP2 PUSH2 0x235 ADD MSTORE PUSH2 0x119A ADD MSTORE RETURN JUMPDEST PUSH1 0x0 DUP1 REVERT JUMPDEST PUSH4 0x4E487B71 PUSH1 0xE0 SHL PUSH1 0x0 MSTORE PUSH1 0x41 PUSH1 0x4 MSTORE PUSH1 0x24 PUSH1 0x0 REVERT INVALID PUSH1 0x80 PUSH1 0x40 MSTORE PUSH1 0x4 CALLDATASIZE LT ISZERO PUSH2 0x12 JUMPI PUSH1 0x0 DUP1 REVERT JUMPDEST PUSH1 0x0 DUP1 CALLDATALOAD PUSH1 0xE0 SHR DUP1 PUSH4 0x10C28D31 EQ PUSH2 0x1B1C JUMPI DUP1 PUSH4 0x117A5B90 EQ PUSH2 0x1AA0 JUMPI DUP1 PUSH4 0x1226897A EQ PUSH2 0x1A84 JUMPI DUP1 PUSH4 0x15A40F49 EQ PUSH2 0x19AC JUMPI DUP1 PUSH4 0x392B749C EQ PUSH2 0x194C JUMPI DUP1 PUSH4 0x3C8AEC3F EQ PUSH2 0x1922 JUMPI DUP1 PUSH4 0x4B9A2A2C EQ PUSH2 0x17E6 JUMPI DUP1 PUSH4 0x53644F31 EQ PUSH2 0x17BF JUMPI DUP1 PUSH4 0x5C5C8382 EQ PUSH2 0x8DA JUMPI DUP1 PUSH4 0x62550AE1 EQ PUSH2 0x175B JUMPI DUP1 PUSH4 0x7255D729 EQ PUSH2 0x165B JUMPI DUP1 PUSH4 0x7CA90E59 EQ PUSH2 0x163E JUMPI DUP1 PUSH4 0x7F57504F EQ PUSH2 0x15D8 JUMPI DUP1 PUSH4 0x85F07BBE EQ PUSH2 0x15BC JUMPI DUP1 PUSH4 0x860CBC77 EQ PUSH2 0x14F6 JUMPI DUP1 PUSH4 0x863DF0A1 EQ PUSH2 0x14BD JUMPI DUP1 PUSH4 0x8F5949F9 EQ PUSH2 0x14A1 JUMPI DUP1 PUSH4 0x9A18E981 EQ PUSH2 0x13CA JUMPI DUP1 PUSH4 0xA457D3D6 EQ PUSH2 0x1068 JUMPI DUP1 PUSH4 0xAD7465D4 EQ PUSH2 0x103C JUMPI DUP1 PUSH4 0xB0FD159F EQ PUSH2 0x1020 JUMPI DUP1 PUSH4 0xBEE4C6D3 EQ PUSH2 0x1004 JUMPI DUP1 PUSH4 0xBF368399 EQ PUSH2 0xF83 JUMPI DUP1 PUSH4 0xD0399BB8 EQ PUSH2 0xC8D JUMPI DUP1 PUSH4 0xD7793C19 EQ PUSH2 0x933 JUMPI DUP1 PUSH4 0xE085C539 EQ PUSH2 0x8DF JUMPI DUP1 PUSH4 0xE5C43EF1 EQ PUSH2 0x8DA JUMPI DUP1 PUSH4 0xE7FAD8AF EQ PUSH2 0x8BE JUMPI DUP1 PUSH4 0xEDE8AF01 EQ PUSH2 0x8A1 JUMPI DUP1 PUSH4 0xEFAA55A0 EQ PUSH2 0x6D4 JUMPI DUP1 PUSH4 0xF79C913E EQ PUSH2 0x264 JUMPI DUP1 PUSH4 0xF98D06F0 EQ PUSH2 0x21F JUMPI PUSH4 0xFFDE0C74 EQ PUSH2 0x188 JUMPI PUSH1 0x0 DUP1 REVERT JUMPDEST CALLVALUE PUSH2 0x21C JUMPI PUSH1 0x20 CALLDATASIZE PUSH1 0x3 NOT ADD SLT PUSH2 0x21C JUMPI PUSH1 0x40 PUSH1 0xE0 SWAP2 PUSH1 0x4 CALLDATALOAD DUP1 ISZERO ISZERO DUP1 PUSH2 0x212 JUMPI JUMPDEST PUSH2 0x1B3 SWAP1 PUSH2 0x1D30 JUMP JUMPDEST DUP2 MSTORE PUSH1 0x1 PUSH1 0x20 MSTORE KECCAK256 PUSH1 0xFF PUSH1 0x1 DUP3 ADD SLOAD AND SWAP1 PUSH1 0x2 DUP2 ADD SLOAD SWAP1 PUSH1 0x3 DUP2 ADD SLOAD PUSH1 0x4 DUP3 ADD SLOAD PUSH1 0x5 DUP4 ADD SLOAD SWAP2 PUSH1 0x7 PUSH1 0x6 DUP6 ADD SLOAD SWAP5 ADD SLOAD SWAP5 PUSH2 0x1F2 PUSH1 0x40 MLOAD DUP1 SWAP9 PUSH2 0x1C16 JUMP JUMPDEST PUSH1 0x20 DUP8 ADD MSTORE PUSH1 0x40 DUP7 ADD MSTORE PUSH1 0x60 DUP6 ADD MSTORE PUSH1 0x80 DUP5 ADD MSTORE PUSH1 0xA0 DUP4 ADD MSTORE PUSH1 0xC0 DUP3 ADD MSTORE RETURN JUMPDEST POP DUP2 SLOAD DUP2 LT PUSH2 0x1AA JUMP JUMPDEST DUP1 REVERT JUMPDEST POP CALLVALUE PUSH2 0x21C JUMPI DUP1 PUSH1 0x3 NOT CALLDATASIZE ADD SLT PUSH2 0x21C JUMPI PUSH1 0x40 MLOAD PUSH32 0x0 PUSH1 0x1 PUSH1 0x1 PUSH1 0xA0 SHL SUB AND DUP2 MSTORE PUSH1 0x20 SWAP1 RETURN JUMPDEST POP CALLVALUE PUSH2 0x21C JUMPI PUSH1 0x80 CALLDATASIZE PUSH1 0x3 NOT ADD SLT PUSH2 0x21C JUMPI PUSH1 0x4 CALLDATALOAD CALLDATASIZE PUSH1 0x43 SLT ISZERO PUSH2 0x6D0 JUMPI PUSH1 0x40 MLOAD SWAP1 PUSH2 0x291 PUSH1 0x60 DUP4 PUSH2 0x1CC8 JUMP JUMPDEST DUP2 CALLDATASIZE PUSH1 0x84 GT PUSH2 0x6CC JUMPI PUSH1 0x24 SWAP1 JUMPDEST PUSH1 0x84 DUP3 LT PUSH2 0x6BC JUMPI POP POP DUP1 ISZERO ISZERO DUP1 PUSH2 0x6B2 JUMPI JUMPDEST PUSH2 0x2BA SWAP1 PUSH2 0x1D30 JUMP JUMPDEST DUP1 DUP4 MSTORE PUSH1 0x1 PUSH1 0x20 MSTORE PUSH1 0xFF PUSH1 0x1 PUSH1 0x40 DUP6 KECCAK256 ADD SLOAD AND PUSH1 0x5 DUP2 LT ISZERO PUSH2 0x69E JUMPI PUSH1 0x2 PUSH2 0x2E2 SWAP2 EQ PUSH2 0x1F25 JUMP JUMPDEST DUP1 DUP4 MSTORE PUSH1 0x1 PUSH1 0x20 MSTORE PUSH1 0x40 DUP4 KECCAK256 SWAP1 PUSH1 0x4 DUP3 ADD SWAP3 DUP4 SLOAD TIMESTAMP GT PUSH2 0x660 JUMPI PUSH1 0x8 DUP4 ADD SWAP5 PUSH1 0x1 DUP1 PUSH1 0xA0 SHL SUB CALLER AND PUSH1 0x0 MSTORE DUP6 PUSH1 0x20 MSTORE PUSH1 0xFF PUSH1 0x5 PUSH1 0x40 PUSH1 0x0 KECCAK256 ADD SLOAD AND PUSH2 0x627 JUMPI DUP1 SWAP4 DUP2 SWAP5 PUSH1 0x6 DUP3 ADD SWAP6 DUP7 SLOAD SWAP1 JUMPDEST DUP2 DUP2 LT PUSH2 0x5F1 JUMPI JUMPDEST POP POP ISZERO PUSH2 0x5AC JUMPI PUSH1 0x7 DUP2 ADD DUP1 SLOAD SWAP6 SWAP8 SWAP1 SWAP7 DUP4 JUMPDEST PUSH1 0x3 DUP2 LT ISZERO DUP1 PUSH2 0x3F7 JUMPI DUP6 SWAP1 DUP7 JUMPDEST DUP12 DUP12 DUP3 LT PUSH2 0x3AB JUMPI JUMPDEST POP POP POP ISZERO PUSH2 0x370 JUMPI PUSH1 0x1 ADD PUSH2 0x349 JUMP JUMPDEST PUSH1 0x40 MLOAD PUSH3 0x461BCD PUSH1 0xE5 SHL DUP2 MSTORE PUSH1 0x20 PUSH1 0x4 DUP3 ADD MSTORE PUSH1 0x13 PUSH1 0x24 DUP3 ADD MSTORE PUSH19 0x24B73B30B634B21031B0B93210373AB6B132B9 PUSH1 0x69 SHL PUSH1 0x44 DUP3 ADD MSTORE PUSH1 0x64 SWAP1 REVERT JUMPDEST PUSH2 0x3B6 DUP3 DUP5 SWAP3 PUSH2 0x1D02 JUMP JUMPDEST SWAP1 SLOAD SWAP1 PUSH1 0x3 SHL SHR SWAP1 PUSH2 0x3E3 JUMPI DUP5 PUSH1 0x5 SHL DUP11 ADD MLOAD EQ PUSH2 0x3D6 JUMPI PUSH1 0x1 ADD PUSH2 0x357 JUMP JUMPDEST POP POP POP PUSH1 0x1 CODESIZE DUP1 DUP12 PUSH2 0x360 JUMP JUMPDEST PUSH4 0x4E487B71 PUSH1 0xE0 SHL DUP10 MSTORE PUSH1 0x32 PUSH1 0x4 MSTORE PUSH1 0x24 DUP10 REVERT JUMPDEST POP POP DUP9 DUP6 DUP8 PUSH1 0x40 MLOAD PUSH1 0x80 DUP2 ADD DUP2 DUP2 LT PUSH8 0xFFFFFFFFFFFFFFFF DUP3 GT OR PUSH2 0x598 JUMPI PUSH1 0x40 MSTORE CALLER DUP2 MSTORE PUSH1 0x20 DUP2 ADD DUP4 DUP2 MSTORE PUSH1 0x40 DUP3 ADD TIMESTAMP DUP2 MSTORE PUSH1 0x60 DUP4 ADD SWAP2 PUSH1 0x1 DUP4 MSTORE PUSH1 0x40 PUSH1 0x0 PUSH1 0x1 DUP1 PUSH1 0xA0 SHL SUB CALLER AND DUP2 MSTORE DUP11 PUSH1 0x20 MSTORE KECCAK256 SWAP4 PUSH1 0x1 DUP1 PUSH1 0xA0 SHL SUB SWAP1 MLOAD AND PUSH12 0xFFFFFFFFFFFFFFFFFFFFFFFF PUSH1 0xA0 SHL DUP6 SLOAD AND OR DUP5 SSTORE MLOAD DUP11 JUMPDEST PUSH1 0x3 DUP2 LT PUSH2 0x582 JUMPI POP POP PUSH2 0x499 SWAP3 SWAP2 PUSH1 0x5 SWAP2 MLOAD PUSH1 0x4 DUP5 ADD SSTORE MLOAD ISZERO ISZERO SWAP2 ADD SWAP1 PUSH1 0xFF DUP1 NOT DUP4 SLOAD AND SWAP2 ISZERO ISZERO AND OR SWAP1 SSTORE JUMP JUMPDEST PUSH2 0x4A6 PUSH1 0x40 MLOAD DUP1 SWAP4 PUSH2 0x1BEE JUMP JUMPDEST PUSH32 0xD67DE08BD4BA5B6A6548667370488A8781753615ACB89AE1AC1F96F6C270ECF0 PUSH1 0x60 CALLER SWAP4 LOG3 PUSH1 0x1 SWAP3 DUP6 SWAP2 DUP1 SLOAD SWAP3 JUMPDEST DUP4 DUP2 LT PUSH2 0x534 JUMPI JUMPDEST POP POP POP POP DUP2 ISZERO PUSH2 0x528 JUMPI JUMPDEST POP PUSH2 0x4F1 JUMPI POP DUP1 RETURN JUMPDEST PUSH1 0x1 DUP2 ADD PUSH1 0x3 PUSH1 0xFF NOT DUP3 SLOAD AND OR SWAP1 SSTORE PUSH2 0x258 TIMESTAMP ADD SWAP1 DUP2 TIMESTAMP GT PUSH2 0x514 JUMPI PUSH1 0x5 ADD SSTORE DUP1 RETURN JUMPDEST PUSH4 0x4E487B71 PUSH1 0xE0 SHL DUP4 MSTORE PUSH1 0x11 PUSH1 0x4 MSTORE PUSH1 0x24 DUP4 REVERT JUMPDEST SWAP1 POP SLOAD TIMESTAMP LT ISZERO DUP4 PUSH2 0x4E8 JUMP JUMPDEST PUSH1 0xFF PUSH1 0x5 PUSH1 0x40 PUSH2 0x544 DUP5 DUP7 PUSH2 0x1D02 JUMP JUMPDEST SWAP1 SLOAD PUSH1 0x3 SWAP2 SWAP1 SWAP2 SHL SHR PUSH1 0x1 PUSH1 0x1 PUSH1 0xA0 SHL SUB AND PUSH1 0x0 SWAP1 DUP2 MSTORE PUSH1 0x20 DUP8 SWAP1 MSTORE KECCAK256 ADD SLOAD AND ISZERO PUSH2 0x571 JUMPI PUSH1 0x1 ADD PUSH2 0x4D5 JUMP JUMPDEST POP POP POP POP SWAP1 POP DUP3 SWAP1 DUP5 DUP1 DUP1 DUP1 PUSH2 0x4DD JUMP JUMPDEST PUSH1 0x1 SWAP1 PUSH1 0x20 DUP4 MLOAD SWAP4 ADD SWAP3 DUP3 DUP3 DUP9 ADD ADD SSTORE ADD PUSH2 0x46B JUMP JUMPDEST PUSH4 0x4E487B71 PUSH1 0xE0 SHL DUP10 MSTORE PUSH1 0x41 PUSH1 0x4 MSTORE PUSH1 0x24 DUP10 REVERT JUMPDEST PUSH1 0x40 MLOAD PUSH3 0x461BCD PUSH1 0xE5 SHL DUP2 MSTORE PUSH1 0x20 PUSH1 0x4 DUP3 ADD MSTORE PUSH1 0x19 PUSH1 0x24 DUP3 ADD MSTORE PUSH32 0x4E6F74206120706C6179657220696E20746869732067616D6500000000000000 PUSH1 0x44 DUP3 ADD MSTORE PUSH1 0x64 SWAP1 REVERT JUMPDEST PUSH2 0x5FB DUP2 DUP10 PUSH2 0x1D02 JUMP JUMPDEST SWAP1 SLOAD PUSH1 0x3 SWAP2 SWAP1 SWAP2 SHL SHR PUSH1 0x1 PUSH1 0x1 PUSH1 0xA0 SHL SUB AND CALLER EQ PUSH2 0x61B JUMPI PUSH1 0x1 ADD PUSH2 0x32E JUMP JUMPDEST POP POP POP PUSH1 0x1 CODESIZE DUP1 PUSH2 0x336 JUMP JUMPDEST PUSH1 0x40 MLOAD PUSH3 0x461BCD PUSH1 0xE5 SHL DUP2 MSTORE PUSH1 0x20 PUSH1 0x4 DUP3 ADD MSTORE PUSH1 0x11 PUSH1 0x24 DUP3 ADD MSTORE PUSH17 0x105B1C9958591E4818DBDB5B5A5D1D1959 PUSH1 0x7A SHL PUSH1 0x44 DUP3 ADD MSTORE PUSH1 0x64 SWAP1 REVERT JUMPDEST PUSH1 0x40 MLOAD PUSH3 0x461BCD PUSH1 0xE5 SHL DUP2 MSTORE PUSH1 0x20 PUSH1 0x4 DUP3 ADD MSTORE PUSH1 0x16 PUSH1 0x24 DUP3 ADD MSTORE PUSH22 0x10DA1BDA58D948191958591B1A5B99481C185CDCD959 PUSH1 0x52 SHL PUSH1 0x44 DUP3 ADD MSTORE PUSH1 0x64 SWAP1 REVERT JUMPDEST PUSH4 0x4E487B71 PUSH1 0xE0 SHL DUP5 MSTORE PUSH1 0x21 PUSH1 0x4 MSTORE PUSH1 0x24 DUP5 REVERT JUMPDEST POP DUP3 SLOAD DUP2 LT PUSH2 0x2B1 JUMP JUMPDEST DUP2 CALLDATALOAD DUP2 MSTORE PUSH1 0x20 SWAP2 DUP3 ADD SWAP2 ADD PUSH2 0x29E JUMP JUMPDEST DUP4 DUP1 REVERT JUMPDEST POP DUP1 REVERT JUMPDEST POP CALLVALUE PUSH2 0x21C JUMPI PUSH1 0x20 CALLDATASIZE PUSH1 0x3 NOT ADD SLT PUSH2 0x21C JUMPI PUSH1 0x4 CALLDATALOAD DUP1 ISZERO ISZERO DUP1 PUSH2 0x897 JUMPI JUMPDEST PUSH2 0x6FB SWAP1 PUSH2 0x1D30 JUMP JUMPDEST DUP1 DUP3 MSTORE PUSH1 0x1 PUSH1 0x20 MSTORE PUSH1 0xFF PUSH1 0x1 PUSH1 0x40 DUP5 KECCAK256 ADD SLOAD AND PUSH1 0x5 DUP2 LT ISZERO PUSH2 0x883 JUMPI PUSH2 0x721 SWAP1 ISZERO PUSH2 0x1F25 JUMP JUMPDEST DUP1 DUP3 MSTORE PUSH1 0x1 PUSH1 0x20 MSTORE PUSH1 0x40 DUP3 KECCAK256 PUSH1 0x3 DUP2 ADD SLOAD TIMESTAMP GT PUSH2 0x84F JUMPI PUSH1 0x6 ADD DUP1 SLOAD DUP4 JUMPDEST DUP2 DUP2 LT PUSH2 0x7EF JUMPI POP POP CALLER DUP4 MSTORE PUSH1 0x4 PUSH1 0x20 MSTORE PUSH1 0x40 DUP4 KECCAK256 SLOAD DUP1 ISZERO ISZERO DUP1 PUSH2 0x7E5 JUMPI JUMPDEST PUSH2 0x7A6 JUMPI JUMPDEST POP PUSH2 0x76F SWAP1 CALLER SWAP1 PUSH2 0x1EE4 JUMP JUMPDEST CALLER DUP3 MSTORE PUSH1 0x4 PUSH1 0x20 MSTORE DUP1 PUSH1 0x40 DUP4 KECCAK256 SSTORE CALLER SWAP1 PUSH32 0x87969BC7FAF902221A147B95CEBA76E011C5EFB0339A0A8EE7A2BB82D9CFBBD6 DUP4 DUP1 LOG3 DUP1 RETURN JUMPDEST DUP4 MSTORE PUSH1 0x1 PUSH1 0x20 MSTORE PUSH1 0xFF PUSH1 0x1 PUSH1 0x40 DUP6 KECCAK256 ADD SLOAD AND PUSH1 0x5 DUP2 LT ISZERO PUSH2 0x69E JUMPI SWAP1 PUSH2 0x7D1 PUSH1 0x4 PUSH2 0x76F SWAP4 EQ PUSH2 0x1E66 JUMP JUMPDEST CALLER DUP5 MSTORE PUSH1 0x4 PUSH1 0x20 MSTORE DUP4 PUSH1 0x40 DUP2 KECCAK256 SSTORE SWAP1 PUSH2 0x763 JUMP JUMPDEST POP DUP3 DUP2 EQ ISZERO PUSH2 0x75E JUMP JUMPDEST PUSH2 0x7F9 DUP2 DUP5 PUSH2 0x1D02 JUMP JUMPDEST SWAP1 SLOAD PUSH1 0x3 SWAP2 SWAP1 SWAP2 SHL SHR PUSH1 0x1 PUSH1 0x1 PUSH1 0xA0 SHL SUB AND CALLER EQ PUSH2 0x819 JUMPI PUSH1 0x1 ADD PUSH2 0x73F JUMP JUMPDEST PUSH1 0x40 MLOAD PUSH3 0x461BCD PUSH1 0xE5 SHL DUP2 MSTORE PUSH1 0x20 PUSH1 0x4 DUP3 ADD MSTORE PUSH1 0xE PUSH1 0x24 DUP3 ADD MSTORE PUSH14 0x105B1C9958591E481A9BDA5B9959 PUSH1 0x92 SHL PUSH1 0x44 DUP3 ADD MSTORE PUSH1 0x64 SWAP1 REVERT JUMPDEST PUSH1 0x40 MLOAD PUSH3 0x461BCD PUSH1 0xE5 SHL DUP2 MSTORE PUSH1 0x20 PUSH1 0x4 DUP3 ADD MSTORE PUSH1 0xC PUSH1 0x24 DUP3 ADD MSTORE PUSH12 0x131BD8989E4818DB1BDCD959 PUSH1 0xA2 SHL PUSH1 0x44 DUP3 ADD MSTORE PUSH1 0x64 SWAP1 REVERT JUMPDEST PUSH4 0x4E487B71 PUSH1 0xE0 SHL DUP4 MSTORE PUSH1 0x21 PUSH1 0x4 MSTORE PUSH1 0x24 DUP4 REVERT JUMPDEST POP DUP2 SLOAD DUP2 LT PUSH2 0x6F2 JUMP JUMPDEST POP CALLVALUE PUSH2 0x21C JUMPI DUP1 PUSH1 0x3 NOT CALLDATASIZE ADD SLT PUSH2 0x21C JUMPI PUSH1 0x20 SWAP1 SLOAD PUSH1 0x40 MLOAD SWAP1 DUP2 MSTORE RETURN JUMPDEST POP CALLVALUE PUSH2 0x21C JUMPI DUP1 PUSH1 0x3 NOT CALLDATASIZE ADD SLT PUSH2 0x21C JUMPI PUSH1 0x20 PUSH1 0x40 MLOAD PUSH1 0xA DUP2 MSTORE RETURN JUMPDEST PUSH2 0x1C7A JUMP JUMPDEST POP CALLVALUE PUSH2 0x21C JUMPI PUSH1 0x20 CALLDATASIZE PUSH1 0x3 NOT ADD SLT PUSH2 0x21C JUMPI PUSH1 0x60 SWAP1 PUSH1 0x40 SWAP1 PUSH1 0x1 PUSH1 0x1 PUSH1 0xA0 SHL SUB PUSH2 0x907 PUSH2 0x1BD8 JUMP JUMPDEST AND DUP2 MSTORE PUSH1 0x2 PUSH1 0x20 MSTORE KECCAK256 PUSH1 0x1 DUP2 ADD SLOAD SWAP1 PUSH1 0x3 PUSH1 0x2 DUP3 ADD SLOAD SWAP2 ADD SLOAD SWAP1 PUSH1 0x40 MLOAD SWAP3 DUP4 MSTORE PUSH1 0x20 DUP4 ADD MSTORE PUSH1 0x40 DUP3 ADD MSTORE RETURN JUMPDEST POP CALLVALUE PUSH2 0x21C JUMPI PUSH1 0x40 CALLDATASIZE PUSH1 0x3 NOT ADD SLT PUSH2 0x21C JUMPI PUSH1 0x4 CALLDATALOAD PUSH1 0x24 CALLDATALOAD DUP1 ISZERO ISZERO DUP2 SUB PUSH2 0xC89 JUMPI DUP2 ISZERO ISZERO DUP1 PUSH2 0xC7F JUMPI JUMPDEST PUSH2 0x966 SWAP1 PUSH2 0x1D30 JUMP JUMPDEST DUP2 DUP4 MSTORE PUSH1 0x1 PUSH1 0x20 MSTORE PUSH1 0xFF PUSH1 0x1 PUSH1 0x40 DUP6 KECCAK256 ADD SLOAD AND PUSH1 0x5 DUP2 LT ISZERO PUSH2 0x69E JUMPI PUSH2 0x98C SWAP1 ISZERO PUSH2 0x1F25 JUMP JUMPDEST DUP2 DUP4 MSTORE PUSH1 0x1 PUSH1 0x20 MSTORE PUSH1 0x3 PUSH1 0x40 DUP5 KECCAK256 ADD SLOAD TIMESTAMP LT PUSH2 0xC42 JUMPI DUP2 DUP4 MSTORE PUSH1 0x1 PUSH1 0x20 MSTORE PUSH1 0x40 DUP4 KECCAK256 PUSH1 0x1 DUP2 ADD SWAP2 PUSH1 0xFF DUP4 SLOAD AND PUSH1 0x5 DUP2 LT ISZERO PUSH2 0xC2E JUMPI PUSH2 0xBF5 JUMPI DUP4 DUP6 MSTORE PUSH1 0x1 PUSH1 0x20 MSTORE PUSH1 0x7 PUSH1 0x40 DUP7 KECCAK256 ADD SLOAD PUSH2 0xBB0 JUMPI ISZERO PUSH2 0xB3D JUMPI DUP3 DUP5 MSTORE PUSH1 0x1 PUSH1 0x20 MSTORE PUSH1 0x40 DUP5 KECCAK256 SWAP3 PUSH1 0x40 MLOAD SWAP2 PUSH2 0x140 DUP4 ADD DUP4 DUP2 LT PUSH8 0xFFFFFFFFFFFFFFFF DUP3 GT OR PUSH2 0xB29 JUMPI PUSH1 0x40 SWAP6 SWAP5 SWAP6 MSTORE PUSH2 0x4D2 DUP4 MSTORE PUSH2 0x162E PUSH1 0x20 DUP5 ADD MSTORE PUSH2 0x2334 PUSH1 0x40 DUP5 ADD MSTORE PUSH2 0xD80 PUSH1 0x60 DUP5 ADD MSTORE PUSH2 0x1ED2 PUSH1 0x80 DUP5 ADD MSTORE PUSH2 0x929 PUSH1 0xA0 DUP5 ADD MSTORE PUSH2 0x1A85 PUSH1 0xC0 DUP5 ADD MSTORE PUSH2 0x11D7 PUSH1 0xE0 DUP5 ADD MSTORE PUSH2 0x22C5 PUSH2 0x100 DUP5 ADD MSTORE PUSH2 0x54D PUSH2 0x120 DUP5 ADD MSTORE PUSH1 0x7 DUP7 SWAP5 ADD SWAP4 JUMPDEST PUSH1 0xA DUP2 LT ISZERO PUSH2 0xA85 JUMPI PUSH1 0x1 SWAP1 PUSH2 0xA7F DUP2 PUSH1 0x5 SHL DUP7 ADD MLOAD DUP8 PUSH2 0x1FB3 JUMP JUMPDEST ADD PUSH2 0xA63 JUMP JUMPDEST POP SWAP3 POP SWAP3 SWAP1 POP JUMPDEST PUSH1 0x2 PUSH1 0xFF NOT DUP3 SLOAD AND OR SWAP1 SSTORE PUSH1 0x3C TIMESTAMP ADD DUP1 TIMESTAMP GT PUSH2 0xB15 JUMPI SWAP1 PUSH1 0x7 SWAP2 PUSH1 0x4 DUP3 ADD SSTORE ADD PUSH1 0x40 MLOAD SWAP1 PUSH1 0x20 DUP3 ADD PUSH1 0x20 DUP4 MSTORE DUP2 SLOAD DUP1 SWAP2 MSTORE PUSH1 0x40 DUP4 ADD SWAP2 DUP6 MSTORE PUSH1 0x20 DUP6 KECCAK256 SWAP1 DUP6 JUMPDEST DUP2 DUP2 LT PUSH2 0xAFF JUMPI POP POP POP SWAP1 DUP1 PUSH32 0x1E16023BC0E15B4AD55F8E37DCCF554D1451B0D26C8E55CD0E7E041EEA33C75D SWAP3 SUB SWAP1 LOG2 DUP1 RETURN JUMPDEST DUP3 SLOAD DUP5 MSTORE PUSH1 0x20 SWAP1 SWAP4 ADD SWAP3 PUSH1 0x1 SWAP3 DUP4 ADD SWAP3 ADD PUSH2 0xACB JUMP JUMPDEST PUSH4 0x4E487B71 PUSH1 0xE0 SHL DUP5 MSTORE PUSH1 0x11 PUSH1 0x4 MSTORE PUSH1 0x24 DUP5 REVERT JUMPDEST PUSH4 0x4E487B71 PUSH1 0xE0 SHL DUP8 MSTORE PUSH1 0x41 PUSH1 0x4 MSTORE PUSH1 0x24 DUP8 REVERT JUMPDEST SWAP1 DUP3 DUP5 MSTORE PUSH1 0x1 PUSH1 0x20 MSTORE PUSH1 0x40 DUP5 KECCAK256 PUSH1 0x7 DUP6 SWAP2 ADD CALLER PUSH1 0x60 SHL SWAP2 JUMPDEST PUSH1 0xA DUP2 LT PUSH2 0xB65 JUMPI POP POP POP PUSH2 0xA8C JUMP JUMPDEST PUSH1 0x1 SWAP1 PUSH2 0xBAA PUSH2 0x2710 PUSH1 0x40 MLOAD PUSH1 0x20 DUP2 ADD SWAP1 TIMESTAMP DUP3 MSTORE PREVRANDAO PUSH1 0x40 DUP3 ADD MSTORE DUP11 PUSH1 0x60 DUP3 ADD MSTORE DUP5 PUSH1 0x80 DUP3 ADD MSTORE DUP8 PUSH1 0xA0 DUP3 ADD MSTORE PUSH1 0x94 DUP2 MSTORE PUSH2 0xBA0 PUSH1 0xB4 DUP3 PUSH2 0x1CC8 JUMP JUMPDEST MLOAD SWAP1 KECCAK256 MOD DUP5 PUSH2 0x1FB3 JUMP JUMPDEST ADD PUSH2 0xB55 JUMP JUMPDEST PUSH1 0x40 MLOAD PUSH3 0x461BCD PUSH1 0xE5 SHL DUP2 MSTORE PUSH1 0x20 PUSH1 0x4 DUP3 ADD MSTORE PUSH1 0x17 PUSH1 0x24 DUP3 ADD MSTORE PUSH32 0x436172647320616C72656164792067656E657261746564000000000000000000 PUSH1 0x44 DUP3 ADD MSTORE PUSH1 0x64 SWAP1 REVERT JUMPDEST PUSH1 0x40 MLOAD PUSH3 0x461BCD PUSH1 0xE5 SHL DUP2 MSTORE PUSH1 0x20 PUSH1 0x4 DUP3 ADD MSTORE PUSH1 0x11 PUSH1 0x24 DUP3 ADD MSTORE PUSH17 0x47616D65206E6F7420696E206C6F626279 PUSH1 0x78 SHL PUSH1 0x44 DUP3 ADD MSTORE PUSH1 0x64 SWAP1 REVERT JUMPDEST PUSH4 0x4E487B71 PUSH1 0xE0 SHL DUP7 MSTORE PUSH1 0x21 PUSH1 0x4 MSTORE PUSH1 0x24 DUP7 REVERT JUMPDEST PUSH1 0x40 MLOAD PUSH3 0x461BCD PUSH1 0xE5 SHL DUP2 MSTORE PUSH1 0x20 PUSH1 0x4 DUP3 ADD MSTORE PUSH1 0x15 PUSH1 0x24 DUP3 ADD MSTORE PUSH21 0x10D85B9B9BDD081CDD185C9D0819D85B59481E595D PUSH1 0x5A SHL PUSH1 0x44 DUP3 ADD MSTORE PUSH1 0x64 SWAP1 REVERT JUMPDEST POP DUP3 SLOAD DUP3 LT PUSH2 0x95D JUMP JUMPDEST DUP3 DUP1 REVERT JUMPDEST POP CALLVALUE PUSH2 0x21C JUMPI PUSH1 0x20 CALLDATASIZE PUSH1 0x3 NOT ADD SLT PUSH2 0x21C JUMPI PUSH1 0x4 CALLDATALOAD DUP1 ISZERO ISZERO DUP1 PUSH2 0xF79 JUMPI JUMPDEST PUSH2 0xCB4 SWAP1 PUSH2 0x1D30 JUMP JUMPDEST DUP1 DUP3 MSTORE PUSH1 0x1 PUSH1 0x20 MSTORE PUSH1 0xFF PUSH1 0x1 PUSH1 0x40 DUP5 KECCAK256 ADD SLOAD AND PUSH1 0x5 DUP2 LT ISZERO PUSH2 0x883 JUMPI PUSH1 0x3 PUSH2 0xCDC SWAP2 EQ PUSH2 0x1F25 JUMP JUMPDEST DUP1 DUP3 MSTORE PUSH1 0x1 PUSH1 0x20 MSTORE PUSH1 0x40 DUP3 KECCAK256 SWAP1 PUSH1 0x5 DUP3 ADD SLOAD TIMESTAMP LT PUSH2 0xF34 JUMPI PUSH1 0x8 DUP3 ADD SWAP3 PUSH1 0x9 DUP4 ADD SWAP3 SWAP1 PUSH1 0x6 DUP3 ADD DUP2 JUMPDEST DUP2 SLOAD DUP2 LT ISZERO PUSH2 0xE92 JUMPI PUSH2 0xD18 DUP2 DUP4 PUSH2 0x1D02 JUMP JUMPDEST SWAP1 SLOAD PUSH1 0x3 SWAP2 SWAP1 SWAP2 SHL SHR PUSH1 0x1 PUSH1 0x1 PUSH1 0xA0 SHL SUB AND PUSH1 0x0 DUP2 DUP2 MSTORE PUSH1 0x20 DUP10 SWAP1 MSTORE PUSH1 0x40 SWAP1 KECCAK256 PUSH1 0x5 DUP2 ADD SLOAD SWAP2 SWAP9 SWAP1 SWAP4 SWAP1 SWAP2 PUSH1 0xFF AND ISZERO PUSH2 0xE85 JUMPI DUP5 SWAP2 DUP3 JUMPDEST PUSH1 0x3 DUP5 LT ISZERO PUSH2 0xDE9 JUMPI PUSH2 0xD8F PUSH1 0x1 SWAP2 DUP3 DUP7 DUP10 ADD ADD SLOAD DUP1 DUP11 MSTORE DUP13 PUSH1 0x20 MSTORE PUSH1 0xFF DUP5 PUSH1 0x40 DUP13 KECCAK256 ADD SLOAD AND ISZERO PUSH2 0xD97 JUMPI JUMPDEST DUP10 MSTORE DUP12 PUSH1 0x20 MSTORE PUSH1 0x2 PUSH1 0x40 DUP11 KECCAK256 ADD SLOAD SWAP1 PUSH2 0x1ED7 JUMP JUMPDEST SWAP4 ADD SWAP3 PUSH2 0xD4F JUMP JUMPDEST PUSH1 0x40 MLOAD PUSH1 0x2 DUP15 PUSH2 0xDA6 DUP4 PUSH2 0x1C96 JUMP JUMPDEST DUP4 DUP4 MSTORE PUSH2 0xDE0 DUP14 PUSH1 0x40 PUSH1 0x20 DUP7 ADD SWAP2 DUP1 DUP4 MSTORE DUP2 DUP8 ADD SWAP5 DUP2 DUP7 MSTORE DUP9 DUP3 MSTORE PUSH1 0x20 MSTORE KECCAK256 SWAP5 MLOAD DUP6 SSTORE MLOAD ISZERO ISZERO DUP9 DUP6 ADD SWAP1 PUSH1 0xFF DUP1 NOT DUP4 SLOAD AND SWAP2 ISZERO ISZERO AND OR SWAP1 SSTORE JUMP JUMPDEST MLOAD SWAP2 ADD SSTORE PUSH2 0xD7B JUMP JUMPDEST DUP9 SWAP2 SWAP8 SWAP6 POP PUSH1 0x1 SWAP5 SWAP4 POP PUSH1 0x20 PUSH32 0xDBADCE3C07B5BC30EBBE2BCEC3D6BB95F9B3A0BB33178FF0D61E4D7D4339915 SWAP2 SWAP12 SWAP4 SWAP12 DUP5 DUP10 MSTORE PUSH1 0x2 DUP3 MSTORE DUP7 PUSH1 0x40 DUP11 KECCAK256 ADD PUSH2 0xE32 DUP3 DUP3 SLOAD PUSH2 0x1ED7 JUMP JUMPDEST SWAP1 SSTORE DUP5 DUP10 MSTORE PUSH1 0x2 DUP3 MSTORE PUSH1 0x2 PUSH1 0x40 DUP11 KECCAK256 ADD PUSH2 0xE4C DUP2 SLOAD PUSH2 0x1EB2 JUMP JUMPDEST SWAP1 SSTORE DUP1 PUSH2 0xE66 JUMPI JUMPDEST PUSH1 0x40 MLOAD SWAP1 DUP2 MSTORE LOG3 JUMPDEST ADD SWAP6 SWAP1 SWAP3 SWAP6 PUSH2 0xD05 JUMP JUMPDEST DUP5 DUP10 MSTORE PUSH1 0x2 DUP3 MSTORE PUSH1 0x3 PUSH1 0x40 DUP11 KECCAK256 ADD PUSH2 0xE7E DUP2 SLOAD PUSH2 0x1EB2 JUMP JUMPDEST SWAP1 SSTORE PUSH2 0xE54 JUMP JUMPDEST SWAP8 POP SWAP4 SWAP2 POP PUSH1 0x1 SWAP1 PUSH2 0xE5C JUMP JUMPDEST POP SWAP2 PUSH1 0x1 ADD PUSH1 0x4 PUSH1 0xFF NOT DUP3 SLOAD AND OR SWAP1 SSTORE DUP1 JUMPDEST DUP3 SLOAD DUP2 LT ISZERO PUSH2 0xF0B JUMPI DUP1 PUSH2 0xEBA PUSH1 0x1 SWAP3 DUP6 PUSH2 0x1D02 JUMP JUMPDEST DUP4 DUP1 PUSH1 0xA0 SHL SUB SWAP2 SLOAD SWAP1 PUSH1 0x3 SHL SHR AND DUP4 MSTORE PUSH1 0x4 PUSH1 0x20 MSTORE DUP5 PUSH1 0x40 DUP5 KECCAK256 SLOAD EQ PUSH2 0xEE1 JUMPI JUMPDEST ADD PUSH2 0xEA4 JUMP JUMPDEST PUSH2 0xEEB DUP2 DUP6 PUSH2 0x1D02 JUMP JUMPDEST DUP4 DUP1 PUSH1 0xA0 SHL SUB SWAP2 SLOAD SWAP1 PUSH1 0x3 SHL SHR AND DUP4 MSTORE PUSH1 0x4 PUSH1 0x20 MSTORE DUP3 PUSH1 0x40 DUP2 KECCAK256 SSTORE PUSH2 0xEDB JUMP JUMPDEST POP DUP3 PUSH32 0xCE24807F7E4B60B4E641462F13029FA5E5F79075BBC3F8E5CD43ECD19661D760 DUP3 DUP1 LOG2 DUP1 RETURN JUMPDEST PUSH1 0x40 MLOAD PUSH3 0x461BCD PUSH1 0xE5 SHL DUP2 MSTORE PUSH1 0x20 PUSH1 0x4 DUP3 ADD MSTORE PUSH1 0x1F PUSH1 0x24 DUP3 ADD MSTORE PUSH32 0x5265736F6C7574696F6E20646561646C696E65206E6F74207265616368656400 PUSH1 0x44 DUP3 ADD MSTORE PUSH1 0x64 SWAP1 REVERT JUMPDEST POP DUP2 SLOAD DUP2 LT PUSH2 0xCAB JUMP JUMPDEST POP CALLVALUE PUSH2 0x21C JUMPI PUSH1 0x20 CALLDATASIZE PUSH1 0x3 NOT ADD SLT PUSH2 0x21C JUMPI PUSH1 0x4 CALLDATALOAD SWAP1 PUSH1 0x3 SLOAD DUP3 LT ISZERO PUSH2 0x21C JUMPI PUSH1 0x3 SLOAD DUP3 LT ISZERO PUSH2 0xFF0 JUMPI PUSH1 0x3 DUP1 DUP3 MSTORE PUSH32 0xC2575A0E9E593C00F959F8C92F12DB2869C3395A3B0502D05E2516446F71F85B SWAP3 SWAP1 SWAP3 ADD SLOAD PUSH1 0x40 MLOAD PUSH1 0x1 PUSH1 0x1 PUSH1 0xA0 SHL SUB SWAP3 SWAP1 SWAP4 SHL SHR AND DUP2 MSTORE PUSH1 0x20 SWAP1 RETURN JUMPDEST PUSH4 0x4E487B71 PUSH1 0xE0 SHL DUP2 MSTORE PUSH1 0x32 PUSH1 0x4 MSTORE PUSH1 0x24 SWAP1 REVERT JUMPDEST POP CALLVALUE PUSH2 0x21C JUMPI DUP1 PUSH1 0x3 NOT CALLDATASIZE ADD SLT PUSH2 0x21C JUMPI PUSH1 0x20 PUSH1 0x40 MLOAD PUSH1 0xF DUP2 MSTORE RETURN JUMPDEST POP CALLVALUE PUSH2 0x21C JUMPI DUP1 PUSH1 0x3 NOT CALLDATASIZE ADD SLT PUSH2 0x21C JUMPI PUSH1 0x20 PUSH1 0x40 MLOAD PUSH1 0x12 DUP2 MSTORE RETURN JUMPDEST POP CALLVALUE PUSH2 0x21C JUMPI PUSH1 0x20 CALLDATASIZE PUSH1 0x3 NOT ADD SLT PUSH2 0x21C JUMPI PUSH1 0x20 PUSH2 0x1060 PUSH2 0x105B PUSH2 0x1BD8 JUMP JUMPDEST PUSH2 0x1F67 JUMP JUMPDEST PUSH1 0x40 MLOAD SWAP1 DUP2 MSTORE RETURN JUMPDEST POP PUSH1 0x80 CALLDATASIZE PUSH1 0x3 NOT ADD SLT PUSH2 0x21C JUMPI PUSH1 0x24 CALLDATALOAD PUSH1 0x4 CALLDATALOAD PUSH8 0xFFFFFFFFFFFFFFFF DUP3 GT PUSH2 0xC89 JUMPI CALLDATASIZE PUSH1 0x23 DUP4 ADD SLT ISZERO PUSH2 0xC89 JUMPI DUP2 PUSH1 0x4 ADD CALLDATALOAD SWAP2 PUSH2 0x10A4 DUP4 PUSH2 0x1CEA JUMP JUMPDEST SWAP1 PUSH2 0x10B2 PUSH1 0x40 MLOAD SWAP3 DUP4 PUSH2 0x1CC8 JUMP JUMPDEST DUP4 DUP3 MSTORE PUSH1 0x20 DUP3 ADD PUSH1 0x24 DUP2 SWAP6 PUSH1 0x5 SHL DUP4 ADD ADD SWAP2 CALLDATASIZE DUP4 GT PUSH2 0x12A7 JUMPI PUSH1 0x24 DUP2 ADD SWAP2 JUMPDEST DUP4 DUP4 LT PUSH2 0x1339 JUMPI POP POP POP POP PUSH1 0x44 CALLDATALOAD PUSH8 0xFFFFFFFFFFFFFFFF DUP2 GT PUSH2 0x1335 JUMPI CALLDATASIZE PUSH1 0x23 DUP3 ADD SLT ISZERO PUSH2 0x1335 JUMPI DUP1 PUSH1 0x4 ADD CALLDATALOAD PUSH1 0x24 PUSH1 0x20 PUSH2 0x110B DUP4 PUSH2 0x1CEA JUMP JUMPDEST PUSH2 0x1118 PUSH1 0x40 MLOAD SWAP2 DUP3 PUSH2 0x1CC8 JUMP JUMPDEST DUP4 DUP2 MSTORE ADD SWAP2 PUSH1 0x5 SHL DUP4 ADD ADD SWAP2 CALLDATASIZE DUP4 GT PUSH2 0x12A7 JUMPI PUSH1 0x24 ADD SWAP1 JUMPDEST DUP3 DUP3 LT PUSH2 0x1325 JUMPI POP POP POP PUSH1 0x64 CALLDATALOAD SWAP3 DUP3 ISZERO ISZERO DUP1 PUSH2 0x131B JUMPI JUMPDEST PUSH2 0x1150 SWAP1 PUSH2 0x1D30 JUMP JUMPDEST DUP3 DUP6 MSTORE PUSH1 0x1 PUSH1 0x20 MSTORE PUSH1 0xFF PUSH1 0x1 PUSH1 0x40 DUP8 KECCAK256 ADD SLOAD AND PUSH1 0x5 DUP2 LT ISZERO PUSH2 0xC2E JUMPI PUSH1 0x3 PUSH2 0x1178 SWAP2 EQ PUSH2 0x1F25 JUMP JUMPDEST DUP3 DUP6 MSTORE PUSH1 0x1 PUSH1 0x20 MSTORE PUSH1 0x40 DUP6 KECCAK256 DUP5 CALLVALUE LT PUSH2 0x12E3 JUMPI PUSH1 0xA ADD SWAP4 PUSH1 0xFF DUP6 SLOAD AND PUSH2 0x12AB JUMPI PUSH32 0x0 PUSH1 0x1 PUSH1 0x1 PUSH1 0xA0 SHL SUB AND SWAP2 DUP3 EXTCODESIZE ISZERO PUSH2 0x12A7 JUMPI SWAP3 SWAP1 SWAP2 DUP7 SWAP3 PUSH1 0x40 MLOAD SWAP5 DUP6 SWAP4 PUSH4 0x1DF3CBC5 PUSH1 0xE3 SHL DUP6 MSTORE PUSH1 0x24 DUP6 ADD SWAP1 PUSH1 0x20 PUSH1 0x4 DUP8 ADD MSTORE MLOAD DUP1 SWAP2 MSTORE PUSH1 0x44 DUP6 ADD SWAP1 PUSH1 0x44 DUP2 PUSH1 0x5 SHL DUP8 ADD ADD SWAP3 SWAP2 DUP8 SWAP1 JUMPDEST DUP3 DUP3 LT PUSH2 0x1272 JUMPI POP POP POP POP SWAP1 DUP4 DUP1 SWAP3 SUB SWAP3 GAS CALL DUP1 ISZERO PUSH2 0x1267 JUMPI PUSH2 0x1253 JUMPI JUMPDEST POP PUSH32 0x702EC30635253CAE6D3600D38314E616495CF01545D34E549C49EBF6451DAB3B DUP4 DUP1 LOG2 DUP1 SLOAD PUSH1 0xFF NOT AND PUSH1 0x1 OR SWAP1 SSTORE DUP1 RETURN JUMPDEST DUP4 PUSH2 0x1260 SWAP2 SWAP5 SWAP3 SWAP5 PUSH2 0x1CC8 JUMP JUMPDEST SWAP2 CODESIZE PUSH2 0x1220 JUMP JUMPDEST PUSH1 0x40 MLOAD RETURNDATASIZE DUP7 DUP3 RETURNDATACOPY RETURNDATASIZE SWAP1 REVERT JUMPDEST SWAP3 SWAP6 SWAP8 POP SWAP3 PUSH1 0x1 SWAP2 SWAP5 SWAP7 POP PUSH1 0x20 PUSH2 0x1294 DUP2 SWAP3 PUSH1 0x43 NOT DUP13 DUP3 SUB ADD DUP7 MSTORE DUP9 MLOAD PUSH2 0x1C39 JUMP JUMPDEST SWAP7 ADD SWAP3 ADD SWAP3 ADD SWAP3 DUP8 SWAP6 SWAP4 DUP12 SWAP8 SWAP6 SWAP4 PUSH2 0x1202 JUMP JUMPDEST DUP7 DUP1 REVERT JUMPDEST PUSH1 0x40 MLOAD PUSH3 0x461BCD PUSH1 0xE5 SHL DUP2 MSTORE PUSH1 0x20 PUSH1 0x4 DUP3 ADD MSTORE PUSH1 0x10 PUSH1 0x24 DUP3 ADD MSTORE PUSH16 0x105B1C9958591E481C995CDBDB1D9959 PUSH1 0x82 SHL PUSH1 0x44 DUP3 ADD MSTORE PUSH1 0x64 SWAP1 REVERT JUMPDEST PUSH1 0x40 MLOAD PUSH3 0x461BCD PUSH1 0xE5 SHL DUP2 MSTORE PUSH1 0x20 PUSH1 0x4 DUP3 ADD MSTORE PUSH1 0x10 PUSH1 0x24 DUP3 ADD MSTORE PUSH16 0x496E73756666696369656E7420666565 PUSH1 0x80 SHL PUSH1 0x44 DUP3 ADD MSTORE PUSH1 0x64 SWAP1 REVERT JUMPDEST POP DUP5 SLOAD DUP4 LT PUSH2 0x1147 JUMP JUMPDEST DUP2 CALLDATALOAD DUP2 MSTORE PUSH1 0x20 SWAP2 DUP3 ADD SWAP2 ADD PUSH2 0x1130 JUMP JUMPDEST DUP5 DUP1 REVERT JUMPDEST DUP3 CALLDATALOAD PUSH8 0xFFFFFFFFFFFFFFFF DUP2 GT PUSH2 0x13C6 JUMPI DUP3 ADD SWAP1 CALLDATASIZE PUSH1 0x43 DUP4 ADD SLT ISZERO PUSH2 0x13C6 JUMPI PUSH1 0x24 DUP3 ADD CALLDATALOAD SWAP1 PUSH8 0xFFFFFFFFFFFFFFFF DUP3 GT PUSH2 0x13B2 JUMPI PUSH1 0x40 MLOAD PUSH2 0x1384 PUSH1 0x1F DUP5 ADD PUSH1 0x1F NOT AND PUSH1 0x20 ADD DUP3 PUSH2 0x1CC8 JUMP JUMPDEST DUP3 DUP2 MSTORE DUP11 CALLDATASIZE PUSH1 0x44 DUP7 DUP7 ADD ADD GT PUSH2 0x21C JUMPI PUSH1 0x20 DUP5 DUP2 SWAP7 SWAP6 PUSH1 0x44 DUP4 SWAP8 ADD DUP4 DUP7 ADD CALLDATACOPY DUP4 ADD ADD MSTORE DUP2 MSTORE ADD SWAP3 ADD SWAP2 PUSH2 0x10D1 JUMP JUMPDEST PUSH4 0x4E487B71 PUSH1 0xE0 SHL DUP11 MSTORE PUSH1 0x41 PUSH1 0x4 MSTORE PUSH1 0x24 DUP11 REVERT JUMPDEST DUP9 DUP1 REVERT JUMPDEST POP CALLVALUE PUSH2 0x21C JUMPI PUSH1 0x20 CALLDATASIZE PUSH1 0x3 NOT ADD SLT PUSH2 0x21C JUMPI PUSH1 0x4 CALLDATALOAD DUP1 ISZERO ISZERO DUP1 PUSH2 0x1497 JUMPI JUMPDEST PUSH2 0x13F1 SWAP1 PUSH2 0x1D30 JUMP JUMPDEST DUP1 DUP3 MSTORE PUSH1 0x1 PUSH1 0x20 MSTORE PUSH1 0xFF PUSH1 0x1 PUSH1 0x40 DUP5 KECCAK256 ADD SLOAD AND PUSH1 0x5 DUP2 LT ISZERO PUSH2 0x883 JUMPI PUSH1 0x2 PUSH2 0x1419 SWAP2 EQ PUSH2 0x1F25 JUMP JUMPDEST DUP2 MSTORE PUSH1 0x1 PUSH1 0x20 MSTORE PUSH1 0x40 DUP2 KECCAK256 PUSH1 0x4 DUP2 ADD SLOAD TIMESTAMP LT PUSH2 0x1452 JUMPI PUSH1 0x1 DUP2 ADD PUSH1 0x3 PUSH1 0xFF NOT DUP3 SLOAD AND OR SWAP1 SSTORE PUSH2 0x258 TIMESTAMP ADD SWAP1 DUP2 TIMESTAMP GT PUSH2 0x514 JUMPI PUSH1 0x5 ADD SSTORE DUP1 RETURN JUMPDEST PUSH1 0x40 MLOAD PUSH3 0x461BCD PUSH1 0xE5 SHL DUP2 MSTORE PUSH1 0x20 PUSH1 0x4 DUP3 ADD MSTORE PUSH1 0x1B PUSH1 0x24 DUP3 ADD MSTORE PUSH32 0x43686F69636520646561646C696E65206E6F7420726561636865640000000000 PUSH1 0x44 DUP3 ADD MSTORE PUSH1 0x64 SWAP1 REVERT JUMPDEST POP DUP2 SLOAD DUP2 LT PUSH2 0x13E8 JUMP JUMPDEST POP CALLVALUE PUSH2 0x21C JUMPI DUP1 PUSH1 0x3 NOT CALLDATASIZE ADD SLT PUSH2 0x21C JUMPI PUSH1 0x20 PUSH1 0x40 MLOAD PUSH1 0x1 DUP2 MSTORE RETURN JUMPDEST POP CALLVALUE PUSH2 0x21C JUMPI PUSH1 0x20 CALLDATASIZE PUSH1 0x3 NOT ADD SLT PUSH2 0x21C JUMPI PUSH1 0x20 SWAP1 PUSH1 0x40 SWAP1 PUSH1 0x1 PUSH1 0x1 PUSH1 0xA0 SHL SUB PUSH2 0x14E5 PUSH2 0x1BD8 JUMP JUMPDEST AND DUP2 MSTORE PUSH1 0x4 DUP4 MSTORE KECCAK256 SLOAD PUSH1 0x40 MLOAD SWAP1 DUP2 MSTORE RETURN JUMPDEST POP CALLVALUE PUSH2 0x21C JUMPI PUSH1 0x20 CALLDATASIZE PUSH1 0x3 NOT ADD SLT PUSH2 0x21C JUMPI PUSH1 0x4 CALLDATALOAD DUP1 ISZERO ISZERO DUP1 PUSH2 0x15B2 JUMPI JUMPDEST PUSH2 0x151D SWAP1 PUSH2 0x1D30 JUMP JUMPDEST DUP2 MSTORE PUSH1 0x1 PUSH1 0x20 MSTORE PUSH1 0x7 PUSH1 0x40 DUP3 KECCAK256 ADD PUSH1 0x40 MLOAD SWAP1 DUP2 PUSH1 0x20 DUP3 SLOAD SWAP2 DUP3 DUP2 MSTORE ADD SWAP1 DUP2 SWAP3 DUP6 MSTORE PUSH1 0x20 DUP6 KECCAK256 SWAP1 DUP6 JUMPDEST DUP2 DUP2 LT PUSH2 0x159C JUMPI POP POP POP DUP3 PUSH2 0x155B SWAP2 SUB DUP4 PUSH2 0x1CC8 JUMP JUMPDEST PUSH1 0x40 MLOAD SWAP3 DUP4 SWAP3 PUSH1 0x20 DUP5 ADD SWAP1 PUSH1 0x20 DUP6 MSTORE MLOAD DUP1 SWAP2 MSTORE PUSH1 0x40 DUP5 ADD SWAP3 SWAP2 JUMPDEST DUP2 DUP2 LT PUSH2 0x1583 JUMPI POP POP POP SUB SWAP1 RETURN JUMPDEST DUP3 MLOAD DUP5 MSTORE DUP6 SWAP5 POP PUSH1 0x20 SWAP4 DUP5 ADD SWAP4 SWAP1 SWAP3 ADD SWAP2 PUSH1 0x1 ADD PUSH2 0x1575 JUMP JUMPDEST DUP3 SLOAD DUP5 MSTORE PUSH1 0x20 SWAP1 SWAP4 ADD SWAP3 PUSH1 0x1 SWAP3 DUP4 ADD SWAP3 ADD PUSH2 0x1545 JUMP JUMPDEST POP DUP2 SLOAD DUP2 LT PUSH2 0x1514 JUMP JUMPDEST POP CALLVALUE PUSH2 0x21C JUMPI DUP1 PUSH1 0x3 NOT CALLDATASIZE ADD SLT PUSH2 0x21C JUMPI PUSH1 0x20 PUSH1 0x40 MLOAD PUSH1 0x2 DUP2 MSTORE RETURN JUMPDEST POP CALLVALUE PUSH2 0x21C JUMPI PUSH1 0x40 CALLDATASIZE PUSH1 0x3 NOT ADD SLT PUSH2 0x21C JUMPI PUSH1 0x40 DUP1 SWAP2 PUSH1 0x4 CALLDATALOAD DUP1 ISZERO ISZERO DUP1 PUSH2 0x1634 JUMPI JUMPDEST PUSH2 0x1603 SWAP1 PUSH2 0x1D30 JUMP JUMPDEST DUP2 MSTORE PUSH1 0x1 PUSH1 0x20 MSTORE PUSH1 0x9 DUP3 DUP3 KECCAK256 ADD PUSH1 0x24 CALLDATALOAD DUP3 MSTORE PUSH1 0x20 MSTORE KECCAK256 PUSH1 0x2 PUSH1 0xFF PUSH1 0x1 DUP4 ADD SLOAD AND SWAP2 ADD SLOAD DUP3 MLOAD SWAP2 ISZERO ISZERO DUP3 MSTORE PUSH1 0x20 DUP3 ADD MSTORE RETURN JUMPDEST POP DUP2 SLOAD DUP2 LT PUSH2 0x15FA JUMP JUMPDEST POP CALLVALUE PUSH2 0x21C JUMPI DUP1 PUSH1 0x3 NOT CALLDATASIZE ADD SLT PUSH2 0x21C JUMPI PUSH1 0x20 PUSH1 0x40 MLOAD PUSH2 0x258 DUP2 MSTORE RETURN JUMPDEST POP CALLVALUE PUSH2 0x21C JUMPI DUP1 PUSH1 0x3 NOT CALLDATASIZE ADD SLT PUSH2 0x21C JUMPI CALLER DUP2 MSTORE PUSH1 0x4 PUSH1 0x20 MSTORE PUSH1 0x40 DUP2 KECCAK256 SLOAD DUP1 PUSH2 0x170C JUMPI JUMPDEST POP DUP1 SLOAD SWAP1 PUSH2 0x168C DUP3 PUSH2 0x1EB2 JUMP JUMPDEST DUP2 SSTORE DUP2 DUP2 MSTORE PUSH1 0x1 PUSH1 0x20 MSTORE PUSH1 0x40 DUP2 KECCAK256 SWAP2 DUP1 DUP4 SSTORE PUSH1 0x1 DUP4 ADD PUSH1 0xFF NOT DUP2 SLOAD AND SWAP1 SSTORE TIMESTAMP PUSH1 0x2 DUP5 ADD SSTORE PUSH1 0x3C TIMESTAMP ADD DUP1 TIMESTAMP GT PUSH2 0x514 JUMPI DUP4 PUSH2 0x16D1 SWAP2 PUSH1 0x3 PUSH1 0x20 SWAP7 ADD SSTORE PUSH1 0x6 CALLER SWAP2 ADD PUSH2 0x1EE4 JUMP JUMPDEST CALLER DUP3 MSTORE PUSH1 0x4 DUP4 MSTORE DUP1 PUSH1 0x40 DUP4 KECCAK256 SSTORE PUSH1 0x40 MLOAD SWAP2 DUP2 PUSH32 0xFADB9547847A0C2C31F4C02590545E318D33D7AAE99071CAECF3FA4CE3CD7DCA CALLER SWAP3 DUP1 LOG3 DUP2 MSTORE RETURN JUMPDEST DUP2 MSTORE PUSH1 0x1 PUSH1 0x20 MSTORE PUSH1 0xFF PUSH1 0x1 PUSH1 0x40 DUP4 KECCAK256 ADD SLOAD AND PUSH1 0x5 DUP2 LT ISZERO PUSH2 0x1747 JUMPI PUSH1 0x4 PUSH2 0x1733 SWAP2 EQ PUSH2 0x1E66 JUMP JUMPDEST CALLER DUP2 MSTORE PUSH1 0x4 PUSH1 0x20 MSTORE DUP1 PUSH1 0x40 DUP2 KECCAK256 SSTORE CODESIZE PUSH2 0x167F JUMP JUMPDEST PUSH4 0x4E487B71 PUSH1 0xE0 SHL DUP3 MSTORE PUSH1 0x21 PUSH1 0x4 MSTORE PUSH1 0x24 DUP3 REVERT JUMPDEST POP CALLVALUE PUSH2 0x21C JUMPI PUSH1 0x20 CALLDATASIZE PUSH1 0x3 NOT ADD SLT PUSH2 0x21C JUMPI PUSH1 0x80 SWAP1 PUSH1 0x40 SWAP1 PUSH1 0x1 PUSH1 0x1 PUSH1 0xA0 SHL SUB PUSH2 0x1783 PUSH2 0x1BD8 JUMP JUMPDEST AND DUP2 MSTORE PUSH1 0x2 PUSH1 0x20 MSTORE KECCAK256 PUSH1 0x1 DUP1 PUSH1 0xA0 SHL SUB DUP2 SLOAD AND SWAP1 PUSH1 0x1 DUP2 ADD SLOAD SWAP1 PUSH1 0x3 PUSH1 0x2 DUP3 ADD SLOAD SWAP2 ADD SLOAD SWAP2 PUSH1 0x40 MLOAD SWAP4 DUP5 MSTORE PUSH1 0x20 DUP5 ADD MSTORE PUSH1 0x40 DUP4 ADD MSTORE PUSH1 0x60 DUP3 ADD MSTORE RETURN JUMPDEST POP CALLVALUE PUSH2 0x21C JUMPI PUSH1 0x40 CALLDATASIZE PUSH1 0x3 NOT ADD SLT PUSH2 0x21C JUMPI PUSH1 0x4 CALLDATALOAD DUP2 MSTORE PUSH1 0x5 PUSH1 0x20 MSTORE PUSH1 0x24 CALLDATALOAD PUSH1 0x40 DUP3 KECCAK256 SSTORE DUP1 RETURN JUMPDEST POP CALLVALUE PUSH2 0x21C JUMPI PUSH1 0x40 CALLDATASIZE PUSH1 0x3 NOT ADD SLT PUSH2 0x21C JUMPI PUSH2 0x160 SWAP1 PUSH2 0x18D4 PUSH1 0x4 CALLDATALOAD SWAP2 PUSH2 0x180B PUSH2 0x1BBD JUMP JUMPDEST SWAP3 PUSH1 0x60 PUSH1 0x40 MLOAD PUSH2 0x181B DUP3 DUP3 PUSH2 0x1CC8 JUMP JUMPDEST CALLDATASIZE SWAP1 CALLDATACOPY DUP1 ISZERO ISZERO DUP1 PUSH2 0x1918 JUMPI JUMPDEST PUSH2 0x1830 SWAP1 PUSH2 0x1D30 JUMP JUMPDEST DUP2 MSTORE PUSH1 0x1 PUSH1 0x20 MSTORE PUSH1 0x40 DUP2 KECCAK256 SWAP3 DUP2 SWAP1 PUSH1 0x40 MLOAD PUSH2 0x184A DUP2 PUSH2 0x1C96 JUMP JUMPDEST DUP4 DUP2 MSTORE PUSH1 0x20 DUP2 ADD DUP5 SWAP1 MSTORE PUSH1 0x40 DUP2 ADD DUP5 SWAP1 MSTORE SWAP3 PUSH1 0x1 PUSH1 0x1 PUSH1 0xA0 SHL SUB DUP3 AND PUSH2 0x18D6 JUMPI JUMPDEST POP POP PUSH1 0xFF PUSH1 0x1 DUP6 ADD SLOAD AND SWAP4 PUSH1 0x2 DUP2 ADD SLOAD SWAP1 PUSH1 0x3 DUP2 ADD SLOAD PUSH1 0x4 DUP3 ADD SLOAD PUSH1 0x5 DUP4 ADD SLOAD SWAP2 PUSH1 0x7 PUSH1 0x6 DUP6 ADD SLOAD SWAP5 ADD SLOAD SWAP5 PUSH2 0x18A4 PUSH1 0x40 MLOAD DUP1 SWAP12 PUSH2 0x1C16 JUMP JUMPDEST PUSH1 0x20 DUP11 ADD MSTORE PUSH1 0x40 DUP10 ADD MSTORE PUSH1 0x60 DUP9 ADD MSTORE PUSH1 0x80 DUP8 ADD MSTORE PUSH1 0xA0 DUP7 ADD MSTORE PUSH1 0xC0 DUP6 ADD MSTORE ISZERO ISZERO PUSH1 0xE0 DUP5 ADD MSTORE PUSH2 0x100 DUP4 ADD SWAP1 PUSH2 0x1BEE JUMP JUMPDEST RETURN JUMPDEST PUSH1 0x1 PUSH1 0x1 PUSH1 0xA0 SHL SUB SWAP1 SWAP2 AND DUP2 MSTORE PUSH1 0x8 DUP6 ADD PUSH1 0x20 MSTORE PUSH1 0x40 SWAP1 KECCAK256 PUSH1 0x5 DUP2 ADD SLOAD PUSH1 0xFF AND PUSH2 0x1901 JUMPI JUMPDEST DUP1 PUSH2 0x186B JUMP JUMPDEST SWAP2 POP POP PUSH2 0x1911 PUSH1 0x1 DUP1 SWAP3 ADD PUSH2 0x1D6E JUMP JUMPDEST SWAP1 CODESIZE PUSH2 0x18FB JUMP JUMPDEST POP DUP2 SLOAD DUP2 LT PUSH2 0x1827 JUMP JUMPDEST POP CALLVALUE PUSH2 0x21C JUMPI PUSH1 0x20 CALLDATASIZE PUSH1 0x3 NOT ADD SLT PUSH2 0x21C JUMPI PUSH1 0x40 PUSH1 0x20 SWAP2 PUSH1 0x4 CALLDATALOAD DUP2 MSTORE PUSH1 0x5 DUP4 MSTORE KECCAK256 SLOAD PUSH1 0x40 MLOAD SWAP1 DUP2 MSTORE RETURN JUMPDEST POP CALLVALUE PUSH2 0x21C JUMPI PUSH1 0x20 CALLDATASIZE PUSH1 0x3 NOT ADD SLT PUSH2 0x21C JUMPI PUSH2 0x197E SWAP1 PUSH2 0x1979 PUSH1 0x4 CALLDATALOAD SWAP2 DUP3 ISZERO ISZERO SWAP1 DUP2 PUSH2 0x19A1 JUMPI JUMPDEST POP PUSH2 0x1D30 JUMP JUMPDEST PUSH2 0x1DA5 JUMP JUMPDEST SWAP1 PUSH2 0x199D PUSH1 0x40 MLOAD SWAP3 DUP4 SWAP3 ISZERO ISZERO DUP4 MSTORE PUSH1 0x40 PUSH1 0x20 DUP5 ADD MSTORE PUSH1 0x40 DUP4 ADD SWAP1 PUSH2 0x1C39 JUMP JUMPDEST SUB SWAP1 RETURN JUMPDEST SWAP1 POP SLOAD DUP3 LT CODESIZE PUSH2 0x1973 JUMP JUMPDEST POP CALLVALUE PUSH2 0x21C JUMPI PUSH1 0x20 CALLDATASIZE PUSH1 0x3 NOT ADD SLT PUSH2 0x21C JUMPI PUSH1 0x4 CALLDATALOAD DUP1 ISZERO ISZERO DUP1 PUSH2 0x1A7A JUMPI JUMPDEST PUSH2 0x19D3 SWAP1 PUSH2 0x1D30 JUMP JUMPDEST DUP2 MSTORE PUSH1 0x1 PUSH1 0x20 MSTORE PUSH1 0x6 PUSH1 0x40 DUP3 KECCAK256 ADD PUSH1 0x40 MLOAD SWAP1 DUP2 PUSH1 0x20 DUP3 SLOAD SWAP2 DUP3 DUP2 MSTORE ADD SWAP1 DUP2 SWAP3 DUP6 MSTORE PUSH1 0x20 DUP6 KECCAK256 SWAP1 DUP6 JUMPDEST DUP2 DUP2 LT PUSH2 0x1A5B JUMPI POP POP POP DUP3 PUSH2 0x1A11 SWAP2 SUB DUP4 PUSH2 0x1CC8 JUMP JUMPDEST PUSH1 0x40 MLOAD SWAP3 DUP4 SWAP3 PUSH1 0x20 DUP5 ADD SWAP1 PUSH1 0x20 DUP6 MSTORE MLOAD DUP1 SWAP2 MSTORE PUSH1 0x40 DUP5 ADD SWAP3 SWAP2 JUMPDEST DUP2 DUP2 LT PUSH2 0x1A39 JUMPI POP POP POP SUB SWAP1 RETURN JUMPDEST DUP3 MLOAD PUSH1 0x1 PUSH1 0x1 PUSH1 0xA0 SHL SUB AND DUP5 MSTORE DUP6 SWAP5 POP PUSH1 0x20 SWAP4 DUP5 ADD SWAP4 SWAP1 SWAP3 ADD SWAP2 PUSH1 0x1 ADD PUSH2 0x1A2B JUMP JUMPDEST DUP3 SLOAD PUSH1 0x1 PUSH1 0x1 PUSH1 0xA0 SHL SUB AND DUP5 MSTORE PUSH1 0x20 SWAP1 SWAP4 ADD SWAP3 PUSH1 0x1 SWAP3 DUP4 ADD SWAP3 ADD PUSH2 0x19FB JUMP JUMPDEST POP DUP2 SLOAD DUP2 LT PUSH2 0x19CA JUMP JUMPDEST POP CALLVALUE PUSH2 0x21C JUMPI DUP1 PUSH1 0x3 NOT CALLDATASIZE ADD SLT PUSH2 0x21C JUMPI PUSH1 0x20 PUSH1 0x40 MLOAD PUSH1 0x14 DUP2 MSTORE RETURN JUMPDEST POP CALLVALUE PUSH2 0x21C JUMPI PUSH1 0x20 CALLDATASIZE PUSH1 0x3 NOT ADD SLT PUSH2 0x21C JUMPI PUSH1 0x40 PUSH1 0xE0 SWAP2 PUSH1 0x4 CALLDATALOAD DUP2 MSTORE PUSH1 0x1 PUSH1 0x20 MSTORE KECCAK256 DUP1 SLOAD SWAP1 PUSH1 0xFF PUSH1 0x1 DUP3 ADD SLOAD AND SWAP1 PUSH1 0x2 DUP2 ADD SLOAD PUSH1 0x3 DUP3 ADD SLOAD PUSH1 0x4 DUP4 ADD SLOAD SWAP2 PUSH2 0x1AFF PUSH1 0xFF PUSH1 0xA PUSH1 0x5 DUP8 ADD SLOAD SWAP7 ADD SLOAD AND SWAP6 PUSH1 0x40 MLOAD SWAP8 DUP9 MSTORE PUSH1 0x20 DUP9 ADD SWAP1 PUSH2 0x1C16 JUMP JUMPDEST PUSH1 0x40 DUP7 ADD MSTORE PUSH1 0x60 DUP6 ADD MSTORE PUSH1 0x80 DUP5 ADD MSTORE PUSH1 0xA0 DUP4 ADD MSTORE ISZERO ISZERO PUSH1 0xC0 DUP3 ADD MSTORE RETURN JUMPDEST POP CALLVALUE PUSH2 0x21C JUMPI PUSH1 0x40 CALLDATASIZE PUSH1 0x3 NOT ADD SLT PUSH2 0x21C JUMPI PUSH1 0x40 PUSH1 0xA0 SWAP2 PUSH1 0x4 CALLDATALOAD PUSH2 0x1B3E PUSH2 0x1BBD JUMP JUMPDEST SWAP1 PUSH1 0x60 DUP5 MLOAD PUSH2 0x1B4D DUP3 DUP3 PUSH2 0x1CC8 JUMP JUMPDEST CALLDATASIZE SWAP1 CALLDATACOPY DUP1 ISZERO ISZERO DUP1 PUSH2 0x1BB3 JUMPI JUMPDEST PUSH2 0x1B62 SWAP1 PUSH2 0x1D30 JUMP JUMPDEST DUP3 MSTORE PUSH1 0x1 PUSH1 0x20 MSTORE PUSH1 0x8 DUP4 DUP4 KECCAK256 ADD SWAP1 PUSH1 0x1 DUP1 DUP7 SHL SUB AND DUP3 MSTORE PUSH1 0x20 MSTORE KECCAK256 PUSH1 0x4 DUP2 ADD SLOAD SWAP1 PUSH2 0x1B97 PUSH1 0x1 PUSH1 0xFF PUSH1 0x5 DUP5 ADD SLOAD AND SWAP3 ADD PUSH2 0x1D6E JUMP JUMPDEST SWAP2 PUSH2 0x1BA5 PUSH1 0x40 MLOAD DUP1 SWAP5 PUSH2 0x1BEE JUMP JUMPDEST PUSH1 0x60 DUP4 ADD MSTORE ISZERO ISZERO PUSH1 0x80 DUP3 ADD MSTORE RETURN JUMPDEST POP DUP3 SLOAD DUP2 LT PUSH2 0x1B59 JUMP JUMPDEST PUSH1 0x24 CALLDATALOAD SWAP1 PUSH1 0x1 PUSH1 0x1 PUSH1 0xA0 SHL SUB DUP3 AND DUP3 SUB PUSH2 0x1BD3 JUMPI JUMP JUMPDEST PUSH1 0x0 DUP1 REVERT JUMPDEST PUSH1 0x4 CALLDATALOAD SWAP1 PUSH1 0x1 PUSH1 0x1 PUSH1 0xA0 SHL SUB DUP3 AND DUP3 SUB PUSH2 0x1BD3 JUMPI JUMP JUMPDEST SWAP1 PUSH1 0x0 SWAP1 JUMPDEST PUSH1 0x3 DUP3 LT PUSH2 0x1C00 JUMPI POP POP POP JUMP JUMPDEST PUSH1 0x20 DUP1 PUSH1 0x1 SWAP3 DUP6 MLOAD DUP2 MSTORE ADD SWAP4 ADD SWAP2 ADD SWAP1 SWAP2 PUSH2 0x1BF3 JUMP JUMPDEST SWAP1 PUSH1 0x5 DUP3 LT ISZERO PUSH2 0x1C23 JUMPI MSTORE JUMP JUMPDEST PUSH4 0x4E487B71 PUSH1 0xE0 SHL PUSH1 0x0 MSTORE PUSH1 0x21 PUSH1 0x4 MSTORE PUSH1 0x24 PUSH1 0x0 REVERT JUMPDEST SWAP2 SWAP1 DUP3 MLOAD SWAP3 DUP4 DUP3 MSTORE PUSH1 0x0 JUMPDEST DUP5 DUP2 LT PUSH2 0x1C65 JUMPI POP POP DUP3 PUSH1 0x0 PUSH1 0x20 DUP1 SWAP5 SWAP6 DUP5 ADD ADD MSTORE PUSH1 0x1F DUP1 NOT SWAP2 ADD AND ADD ADD SWAP1 JUMP JUMPDEST DUP1 PUSH1 0x20 DUP1 SWAP3 DUP5 ADD ADD MLOAD DUP3 DUP3 DUP7 ADD ADD MSTORE ADD PUSH2 0x1C44 JUMP JUMPDEST CALLVALUE PUSH2 0x1BD3 JUMPI PUSH1 0x0 CALLDATASIZE PUSH1 0x3 NOT ADD SLT PUSH2 0x1BD3 JUMPI PUSH1 0x20 PUSH1 0x40 MLOAD PUSH1 0x3C DUP2 MSTORE RETURN JUMPDEST PUSH1 0x60 DUP2 ADD SWAP1 DUP2 LT PUSH8 0xFFFFFFFFFFFFFFFF DUP3 GT OR PUSH2 0x1CB2 JUMPI PUSH1 0x40 MSTORE JUMP JUMPDEST PUSH4 0x4E487B71 PUSH1 0xE0 SHL PUSH1 0x0 MSTORE PUSH1 0x41 PUSH1 0x4 MSTORE PUSH1 0x24 PUSH1 0x0 REVERT JUMPDEST SWAP1 PUSH1 0x1F DUP1 NOT SWAP2 ADD AND DUP2 ADD SWAP1 DUP2 LT PUSH8 0xFFFFFFFFFFFFFFFF DUP3 GT OR PUSH2 0x1CB2 JUMPI PUSH1 0x40 MSTORE JUMP JUMPDEST PUSH8 0xFFFFFFFFFFFFFFFF DUP2 GT PUSH2 0x1CB2 JUMPI PUSH1 0x5 SHL PUSH1 0x20 ADD SWAP1 JUMP JUMPDEST DUP1 SLOAD DUP3 LT ISZERO PUSH2 0x1D1A JUMPI PUSH1 0x0 MSTORE PUSH1 0x20 PUSH1 0x0 KECCAK256 ADD SWAP1 PUSH1 0x0 SWAP1 JUMP JUMPDEST PUSH4 0x4E487B71 PUSH1 0xE0 SHL PUSH1 0x0 MSTORE PUSH1 0x32 PUSH1 0x4 MSTORE PUSH1 0x24 PUSH1 0x0 REVERT JUMPDEST ISZERO PUSH2 0x1D37 JUMPI JUMP JUMPDEST PUSH1 0x40 MLOAD PUSH3 0x461BCD PUSH1 0xE5 SHL DUP2 MSTORE PUSH1 0x20 PUSH1 0x4 DUP3 ADD MSTORE PUSH1 0xF PUSH1 0x24 DUP3 ADD MSTORE PUSH15 0x125B9D985B1A590819D85B59481251 PUSH1 0x8A SHL PUSH1 0x44 DUP3 ADD MSTORE PUSH1 0x64 SWAP1 REVERT JUMPDEST PUSH1 0x40 MLOAD SWAP2 SWAP1 PUSH1 0x0 DUP4 JUMPDEST PUSH1 0x3 DUP3 LT PUSH2 0x1D8F JUMPI POP POP POP PUSH2 0x1D8D PUSH1 0x60 DUP4 PUSH2 0x1CC8 JUMP JUMPDEST JUMP JUMPDEST PUSH1 0x1 PUSH1 0x20 DUP2 SWAP3 DUP6 SLOAD DUP2 MSTORE ADD SWAP4 ADD SWAP2 ADD SWAP1 SWAP2 PUSH2 0x1D77 JUMP JUMPDEST PUSH1 0x0 MSTORE PUSH1 0x1 PUSH1 0x20 MSTORE PUSH1 0x40 PUSH1 0x0 KECCAK256 PUSH1 0xFF PUSH1 0x1 DUP3 ADD SLOAD AND PUSH1 0x5 DUP2 LT ISZERO PUSH2 0x1C23 JUMPI PUSH2 0x1E27 JUMPI PUSH1 0x3 ADD SLOAD TIMESTAMP LT PUSH2 0x1DE9 JUMPI PUSH1 0x1 SWAP1 PUSH1 0x40 MLOAD PUSH2 0x1DE2 PUSH1 0x20 DUP3 PUSH2 0x1CC8 JUMP JUMPDEST PUSH1 0x0 DUP2 MSTORE SWAP1 JUMP JUMPDEST PUSH1 0x0 SWAP1 PUSH1 0x40 MLOAD PUSH2 0x1DFA PUSH1 0x40 DUP3 PUSH2 0x1CC8 JUMP JUMPDEST PUSH1 0x1A DUP2 MSTORE PUSH32 0x4C6F62627920646561646C696E65206E6F742072656163686564000000000000 PUSH1 0x20 DUP3 ADD MSTORE SWAP1 JUMP JUMPDEST POP PUSH1 0x0 SWAP1 PUSH1 0x40 MLOAD PUSH2 0x1E39 PUSH1 0x40 DUP3 PUSH2 0x1CC8 JUMP JUMPDEST PUSH1 0x1A DUP2 MSTORE PUSH32 0x47616D65206973206E6F7420696E204C4F424259207374617465000000000000 PUSH1 0x20 DUP3 ADD MSTORE SWAP1 JUMP JUMPDEST ISZERO PUSH2 0x1E6D JUMPI JUMP JUMPDEST PUSH1 0x40 MLOAD PUSH3 0x461BCD PUSH1 0xE5 SHL DUP2 MSTORE PUSH1 0x20 PUSH1 0x4 DUP3 ADD MSTORE PUSH1 0x19 PUSH1 0x24 DUP3 ADD MSTORE PUSH32 0x416C726561647920696E20616E206163746976652067616D6500000000000000 PUSH1 0x44 DUP3 ADD MSTORE PUSH1 0x64 SWAP1 REVERT JUMPDEST PUSH1 0x0 NOT DUP2 EQ PUSH2 0x1EC1 JUMPI PUSH1 0x1 ADD SWAP1 JUMP JUMPDEST PUSH4 0x4E487B71 PUSH1 0xE0 SHL PUSH1 0x0 MSTORE PUSH1 0x11 PUSH1 0x4 MSTORE PUSH1 0x24 PUSH1 0x0 REVERT JUMPDEST SWAP2 SWAP1 DUP3 ADD DUP1 SWAP3 GT PUSH2 0x1EC1 JUMPI JUMP JUMPDEST DUP1 SLOAD PUSH1 0x1 PUSH1 0x40 SHL DUP2 LT ISZERO PUSH2 0x1CB2 JUMPI PUSH2 0x1F01 SWAP2 PUSH1 0x1 DUP3 ADD DUP2 SSTORE PUSH2 0x1D02 JUMP JUMPDEST DUP2 SLOAD PUSH1 0x1 PUSH1 0x1 PUSH1 0xA0 SHL SUB SWAP4 DUP5 AND PUSH1 0x3 SWAP3 SWAP1 SWAP3 SHL SWAP2 DUP3 SHL SWAP4 SWAP1 SWAP2 SHL NOT AND SWAP2 SWAP1 SWAP2 OR SWAP1 SSTORE JUMP JUMPDEST ISZERO PUSH2 0x1F2C JUMPI JUMP JUMPDEST PUSH1 0x40 MLOAD PUSH3 0x461BCD PUSH1 0xE5 SHL DUP2 MSTORE PUSH1 0x20 PUSH1 0x4 DUP3 ADD MSTORE PUSH1 0x13 PUSH1 0x24 DUP3 ADD MSTORE PUSH19 0x496E76616C69642067616D6520737461747573 PUSH1 0x68 SHL PUSH1 0x44 DUP3 ADD MSTORE PUSH1 0x64 SWAP1 REVERT JUMPDEST PUSH1 0x1 PUSH1 0x1 PUSH1 0xA0 SHL SUB AND PUSH1 0x0 SWAP1 DUP2 MSTORE PUSH1 0x4 PUSH1 0x20 MSTORE PUSH1 0x40 SWAP1 KECCAK256 SLOAD DUP1 PUSH2 0x1F8B JUMPI JUMPDEST POP PUSH1 0x0 SWAP1 JUMP JUMPDEST DUP1 PUSH1 0x0 MSTORE PUSH1 0x1 PUSH1 0x20 MSTORE PUSH1 0xFF PUSH1 0x1 PUSH1 0x40 PUSH1 0x0 KECCAK256 ADD SLOAD AND PUSH1 0x5 DUP2 LT ISZERO PUSH2 0x1C23 JUMPI PUSH1 0x4 EQ PUSH2 0x1F85 JUMPI SWAP1 JUMP JUMPDEST DUP1 SLOAD PUSH1 0x1 PUSH1 0x40 SHL DUP2 LT ISZERO PUSH2 0x1CB2 JUMPI PUSH2 0x1FD0 SWAP2 PUSH1 0x1 DUP3 ADD DUP2 SSTORE PUSH2 0x1D02 JUMP JUMPDEST DUP2 SWAP3 SWAP2 SLOAD SWAP1 PUSH1 0x3 SHL SWAP2 DUP3 SHL SWAP2 PUSH1 0x0 NOT SWAP1 SHL NOT AND OR SWAP1 SSTORE JUMP INVALID LOG2 PUSH5 0x6970667358 0x22 SLT KECCAK256 0xC SUB MULMOD RETURNDATASIZE STOP PUSH10 0xDCD7782F5F8FA9BC9AFA 0xE6 0xD4 0xC8 0xDE SHR CODECOPY LOG3 0xA6 SUB 0xC6 PUSH4 0xF2FA2F9A 0xEC PUSH5 0x736F6C6343 STOP ADDMOD SHR STOP CALLER "
        },
        "methodIdentifiers": {
          "CHOICE_DURATION()": "e5c43ef1",
          "LOBBY_DURATION()": "5c5c8382",
          "MIN_PLAYERS()": "85f07bbe",
          "POINTS_MARKET_CAP_VOLUME()": "b0fd159f",
          "POINTS_PERCENTAGE_CHANGE()": "1226897a",
          "POINTS_PRICE_ABOVE_BELOW()": "bee4c6d3",
          "POINTS_PRICE_UP_DOWN()": "e7fad8af",
          "RESOLUTION_DURATION()": "7ca90e59",
          "assetPriceIds(uint256)": "3c8aec3f",
          "canStartGame(uint256)": "392b749c",
          "commitChoices(uint256,uint256[3])": "f79c913e",
          "createGame()": "7255d729",
          "endGame(uint256)": "d0399bb8",
          "games(uint256)": "117a5b90",
          "getGameCards(uint256)": "860cbc77",
          "getGamePlayers(uint256)": "15a40f49",
          "getGameState(uint256)": "ffde0c74",
          "getGameStateWithPlayer(uint256,address)": "4b9a2a2c",
          "getNextGameId()": "ede8af01",
          "getPlayerActiveGame(address)": "ad7465d4",
          "getPlayerChoices(uint256,address)": "10c28d31",
          "getPlayerScore(address)": "e085c539",
          "getPredictionResult(uint256,uint256)": "7f57504f",
          "isContractActive()": "8f5949f9",
          "joinGame(uint256)": "efaa55a0",
          "leaderboard(uint256)": "bf368399",
          "playerActiveGame(address)": "863df0a1",
          "playerScores(address)": "62550ae1",
          "pyth()": "f98d06f0",
          "setAssetPriceId(uint256,bytes32)": "53644f31",
          "startGame(uint256,bool)": "d7793c19",
          "transitionToResolution(uint256)": "9a18e981",
          "updatePricesAndResolve(uint256,bytes[],bytes32[],uint256)": "a457d3d6"
        }
      }
    }
  }
}