{
  "contracts/RandomNumbers.sol": {
    "RandomNumbers": {
      "abi": [
        {
          "inputs": [],
          "name": "NUMBER_FOUR",
          "outputs": [
            {
              "internalType": "uint16",
              "name": "",
              "type": "uint16"
            }
          ],
          "stateMutability": "view",
          "type": "function"
        },
        {
          "inputs": [],
          "name": "NUMBER_ONE",
          "outputs": [
            {
              "internalType": "uint16",
              "name": "",
              "type": "uint16"
            }
          ],
          "stateMutability": "view",
          "type": "function"
        },
        {
          "inputs": [],
          "name": "NUMBER_THREE",
          "outputs": [
            {
              "internalType": "uint16",
              "name": "",
              "type": "uint16"
            }
          ],
          "stateMutability": "view",
          "type": "function"
        },
        {
          "inputs": [],
          "name": "NUMBER_TWO",
          "outputs": [
            {
              "internalType": "uint16",
              "name": "",
              "type": "uint16"
            }
          ],
          "stateMutability": "view",
          "type": "function"
        },
        {
          "inputs": [],
          "name": "getAllNumbers",
          "outputs": [
            {
              "internalType": "uint16[4]",
              "name": "",
              "type": "uint16[4]"
            }
          ],
          "stateMutability": "pure",
          "type": "function"
        },
        {
          "inputs": [],
          "name": "getNumbers",
          "outputs": [
            {
              "internalType": "uint16",
              "name": "",
              "type": "uint16"
            },
            {
              "internalType": "uint16",
              "name": "",
              "type": "uint16"
            },
            {
              "internalType": "uint16",
              "name": "",
              "type": "uint16"
            },
            {
              "internalType": "uint16",
              "name": "",
              "type": "uint16"
            }
          ],
          "stateMutability": "pure",
          "type": "function"
        }
      ],
      "evm": {
        "bytecode": {
          "linkReferences": {},
          "object": "608080604052346015576101f7908161001b8239f35b600080fdfe608080604052600436101561001357600080fd5b60003560e01c90816302151210146101a6575080636f1425aa1461018957806374fddd21146100d5578063810174c5146100b857806389f915f6146100835763942971421461006157600080fd5b3461007e57600036600319011261007e5760206040516124378152f35b600080fd5b3461007e57600036600319011261007e576080604051611d3a8152610e2360208201526116ca60408201526124376060820152f35b3461007e57600036600319011261007e5760206040516116ca8152f35b3461007e57600036600319011261007e5760806040518181019080821067ffffffffffffffff83111761017357829160405236903760405181810181811067ffffffffffffffff82111761017357604052611d3a8152610e2360208201526116ca6040820152612437606082015260405190816000905b6004821061015957505050f35b60208060019261ffff86511681520193019101909161014c565b634e487b7160e01b600052604160045260246000fd5b3461007e57600036600319011261007e576020604051611d3a8152f35b3461007e57600036600319011261007e5780610e2360209252f3fea2646970667358221220f8b18569d0fd3573b1f886b4dee1ad687865ada493abc4c540fd397a0d9a025364736f6c634300081c0033",
          "opcodes": "PUSH1 0x80 DUP1 PUSH1 0x40 MSTORE CALLVALUE PUSH1 0x15 JUMPI PUSH2 0x1F7 SWAP1 DUP2 PUSH2 0x1B DUP3 CODECOPY RETURN JUMPDEST PUSH1 0x0 DUP1 REVERT INVALID PUSH1 0x80 DUP1 PUSH1 0x40 MSTORE PUSH1 0x4 CALLDATASIZE LT ISZERO PUSH2 0x13 JUMPI PUSH1 0x0 DUP1 REVERT JUMPDEST PUSH1 0x0 CALLDATALOAD PUSH1 0xE0 SHR SWAP1 DUP2 PUSH4 0x2151210 EQ PUSH2 0x1A6 JUMPI POP DUP1 PUSH4 0x6F1425AA EQ PUSH2 0x189 JUMPI DUP1 PUSH4 0x74FDDD21 EQ PUSH2 0xD5 JUMPI DUP1 PUSH4 0x810174C5 EQ PUSH2 0xB8 JUMPI DUP1 PUSH4 0x89F915F6 EQ PUSH2 0x83 JUMPI PUSH4 0x94297142 EQ PUSH2 0x61 JUMPI PUSH1 0x0 DUP1 REVERT JUMPDEST CALLVALUE PUSH2 0x7E JUMPI PUSH1 0x0 CALLDATASIZE PUSH1 0x3 NOT ADD SLT PUSH2 0x7E JUMPI PUSH1 0x20 PUSH1 0x40 MLOAD PUSH2 0x2437 DUP2 MSTORE RETURN JUMPDEST PUSH1 0x0 DUP1 REVERT JUMPDEST CALLVALUE PUSH2 0x7E JUMPI PUSH1 0x0 CALLDATASIZE PUSH1 0x3 NOT ADD SLT PUSH2 0x7E JUMPI PUSH1 0x80 PUSH1 0x40 MLOAD PUSH2 0x1D3A DUP2 MSTORE PUSH2 0xE23 PUSH1 0x20 DUP3 ADD MSTORE PUSH2 0x16CA PUSH1 0x40 DUP3 ADD MSTORE PUSH2 0x2437 PUSH1 0x60 DUP3 ADD MSTORE RETURN JUMPDEST CALLVALUE PUSH2 0x7E JUMPI PUSH1 0x0 CALLDATASIZE PUSH1 0x3 NOT ADD SLT PUSH2 0x7E JUMPI PUSH1 0x20 PUSH1 0x40 MLOAD PUSH2 0x16CA DUP2 MSTORE RETURN JUMPDEST CALLVALUE PUSH2 0x7E JUMPI PUSH1 0x0 CALLDATASIZE PUSH1 0x3 NOT ADD SLT PUSH2 0x7E JUMPI PUSH1 0x80 PUSH1 0x40 MLOAD DUP2 DUP2 ADD SWAP1 DUP1 DUP3 LT PUSH8 0xFFFFFFFFFFFFFFFF DUP4 GT OR PUSH2 0x173 JUMPI DUP3 SWAP2 PUSH1 0x40 MSTORE CALLDATASIZE SWAP1 CALLDATACOPY PUSH1 0x40 MLOAD DUP2 DUP2 ADD DUP2 DUP2 LT PUSH8 0xFFFFFFFFFFFFFFFF DUP3 GT OR PUSH2 0x173 JUMPI PUSH1 0x40 MSTORE PUSH2 0x1D3A DUP2 MSTORE PUSH2 0xE23 PUSH1 0x20 DUP3 ADD MSTORE PUSH2 0x16CA PUSH1 0x40 DUP3 ADD MSTORE PUSH2 0x2437 PUSH1 0x60 DUP3 ADD MSTORE PUSH1 0x40 MLOAD SWAP1 DUP2 PUSH1 0x0 SWAP1 JUMPDEST PUSH1 0x4 DUP3 LT PUSH2 0x159 JUMPI POP POP POP RETURN JUMPDEST PUSH1 0x20 DUP1 PUSH1 0x1 SWAP3 PUSH2 0xFFFF DUP7 MLOAD AND DUP2 MSTORE ADD SWAP4 ADD SWAP2 ADD SWAP1 SWAP2 PUSH2 0x14C JUMP JUMPDEST PUSH4 0x4E487B71 PUSH1 0xE0 SHL PUSH1 0x0 MSTORE PUSH1 0x41 PUSH1 0x4 MSTORE PUSH1 0x24 PUSH1 0x0 REVERT JUMPDEST CALLVALUE PUSH2 0x7E JUMPI PUSH1 0x0 CALLDATASIZE PUSH1 0x3 NOT ADD SLT PUSH2 0x7E JUMPI PUSH1 0x20 PUSH1 0x40 MLOAD PUSH2 0x1D3A DUP2 MSTORE RETURN JUMPDEST CALLVALUE PUSH2 0x7E JUMPI PUSH1 0x0 CALLDATASIZE PUSH1 0x3 NOT ADD SLT PUSH2 0x7E JUMPI DUP1 PUSH2 0xE23 PUSH1 0x20 SWAP3 MSTORE RETURN INVALID LOG2 PUSH5 0x6970667358 0x22 SLT KECCAK256 0xF8 0xB1 DUP6 PUSH10 0xD0FD3573B1F886B4DEE1 0xAD PUSH9 0x7865ADA493ABC4C540 REVERT CODECOPY PUSH27 0xD9A025364736F6C634300081C0033000000000000000000000000 "
        },
        "methodIdentifiers": {
          "NUMBER_FOUR()": "94297142",
          "NUMBER_ONE()": "6f1425aa",
          "NUMBER_THREE()": "810174c5",
          "NUMBER_TWO()": "02151210",
          "getAllNumbers()": "74fddd21",
          "getNumbers()": "89f915f6"
        }
      }
    }
  }
}