{
  "contracts/HyperlaneBase.sol": {
    "HyperlaneBase": {
      "abi": [
        {
          "inputs": [],
          "stateMutability": "nonpayable",
          "type": "constructor"
        },
        {
          "inputs": [
            {
              "internalType": "address",
              "name": "owner",
              "type": "address"
            }
          ],
          "name": "OwnableInvalidOwner",
          "type": "error"
        },
        {
          "inputs": [
            {
              "internalType": "address",
              "name": "account",
              "type": "address"
            }
          ],
          "name": "OwnableUnauthorizedAccount",
          "type": "error"
        },
        {
          "anonymous": false,
          "inputs": [
            {
              "indexed": true,
              "internalType": "uint32",
              "name": "origin",
              "type": "uint32"
            },
            {
              "indexed": true,
              "internalType": "bytes32",
              "name": "senderContract",
              "type": "bytes32"
            },
            {
              "indexed": false,
              "internalType": "address",
              "name": "requester",
              "type": "address"
            }
          ],
          "name": "EntropyRequestReceived",
          "type": "event"
        },
        {
          "anonymous": false,
          "inputs": [
            {
              "indexed": true,
              "internalType": "uint64",
              "name": "sequenceNumber",
              "type": "uint64"
            },
            {
              "indexed": false,
              "internalType": "uint32",
              "name": "destinationDomain",
              "type": "uint32"
            },
            {
              "indexed": false,
              "internalType": "address",
              "name": "recipient",
              "type": "address"
            },
            {
              "indexed": false,
              "internalType": "address",
              "name": "requester",
              "type": "address"
            },
            {
              "indexed": false,
              "internalType": "uint256",
              "name": "length",
              "type": "uint256"
            }
          ],
          "name": "EntropyRequested",
          "type": "event"
        },
        {
          "anonymous": false,
          "inputs": [
            {
              "indexed": true,
              "internalType": "uint64",
              "name": "sequenceNumber",
              "type": "uint64"
            },
            {
              "indexed": false,
              "internalType": "bytes32",
              "name": "messageId",
              "type": "bytes32"
            },
            {
              "indexed": false,
              "internalType": "uint32",
              "name": "destinationDomain",
              "type": "uint32"
            },
            {
              "indexed": false,
              "internalType": "address",
              "name": "recipient",
              "type": "address"
            },
            {
              "indexed": false,
              "internalType": "bytes32",
              "name": "randomNumber",
              "type": "bytes32"
            }
          ],
          "name": "EntropySent",
          "type": "event"
        },
        {
          "anonymous": false,
          "inputs": [
            {
              "indexed": true,
              "internalType": "address",
              "name": "funder",
              "type": "address"
            },
            {
              "indexed": false,
              "internalType": "uint256",
              "name": "amount",
              "type": "uint256"
            }
          ],
          "name": "Funded",
          "type": "event"
        },
        {
          "anonymous": false,
          "inputs": [
            {
              "indexed": true,
              "internalType": "bytes32",
              "name": "messageId",
              "type": "bytes32"
            },
            {
              "indexed": false,
              "internalType": "uint32",
              "name": "destinationDomain",
              "type": "uint32"
            },
            {
              "indexed": false,
              "internalType": "address",
              "name": "recipient",
              "type": "address"
            }
          ],
          "name": "MessageSent",
          "type": "event"
        },
        {
          "anonymous": false,
          "inputs": [
            {
              "indexed": true,
              "internalType": "address",
              "name": "previousOwner",
              "type": "address"
            },
            {
              "indexed": true,
              "internalType": "address",
              "name": "newOwner",
              "type": "address"
            }
          ],
          "name": "OwnershipTransferred",
          "type": "event"
        },
        {
          "anonymous": false,
          "inputs": [
            {
              "indexed": true,
              "internalType": "address",
              "name": "recipient",
              "type": "address"
            },
            {
              "indexed": false,
              "internalType": "uint256",
              "name": "amount",
              "type": "uint256"
            }
          ],
          "name": "Withdrawn",
          "type": "event"
        },
        {
          "inputs": [],
          "name": "ENTROPY_ADDRESS",
          "outputs": [
            {
              "internalType": "address",
              "name": "",
              "type": "address"
            }
          ],
          "stateMutability": "view",
          "type": "function"
        },
        {
          "inputs": [],
          "name": "MAILBOX_ADDRESS",
          "outputs": [
            {
              "internalType": "address",
              "name": "",
              "type": "address"
            }
          ],
          "stateMutability": "view",
          "type": "function"
        },
        {
          "inputs": [
            {
              "internalType": "uint64",
              "name": "sequence",
              "type": "uint64"
            },
            {
              "internalType": "address",
              "name": "provider",
              "type": "address"
            },
            {
              "internalType": "bytes32",
              "name": "randomNumber",
              "type": "bytes32"
            }
          ],
          "name": "_entropyCallback",
          "outputs": [],
          "stateMutability": "nonpayable",
          "type": "function"
        },
        {
          "inputs": [
            {
              "internalType": "uint32",
              "name": "",
              "type": "uint32"
            }
          ],
          "name": "approvedSenders",
          "outputs": [
            {
              "internalType": "address",
              "name": "",
              "type": "address"
            }
          ],
          "stateMutability": "view",
          "type": "function"
        },
        {
          "inputs": [
            {
              "internalType": "bytes32",
              "name": "_bytes32",
              "type": "bytes32"
            }
          ],
          "name": "bytes32ToAddress",
          "outputs": [
            {
              "internalType": "address",
              "name": "",
              "type": "address"
            }
          ],
          "stateMutability": "pure",
          "type": "function"
        },
        {
          "inputs": [
            {
              "internalType": "uint256",
              "name": "_amount",
              "type": "uint256"
            }
          ],
          "name": "emergencyWithdraw",
          "outputs": [],
          "stateMutability": "nonpayable",
          "type": "function"
        },
        {
          "inputs": [],
          "name": "entropy",
          "outputs": [
            {
              "internalType": "contract IEntropyV2",
              "name": "",
              "type": "address"
            }
          ],
          "stateMutability": "view",
          "type": "function"
        },
        {
          "inputs": [],
          "name": "getBalance",
          "outputs": [
            {
              "internalType": "uint256",
              "name": "",
              "type": "uint256"
            }
          ],
          "stateMutability": "view",
          "type": "function"
        },
        {
          "inputs": [
            {
              "internalType": "uint32",
              "name": "_origin",
              "type": "uint32"
            },
            {
              "internalType": "bytes32",
              "name": "_sender",
              "type": "bytes32"
            },
            {
              "internalType": "bytes",
              "name": "_messageBody",
              "type": "bytes"
            }
          ],
          "name": "handle",
          "outputs": [],
          "stateMutability": "payable",
          "type": "function"
        },
        {
          "inputs": [],
          "name": "mailbox",
          "outputs": [
            {
              "internalType": "contract IMailbox",
              "name": "",
              "type": "address"
            }
          ],
          "stateMutability": "view",
          "type": "function"
        },
        {
          "inputs": [],
          "name": "owner",
          "outputs": [
            {
              "internalType": "address",
              "name": "",
              "type": "address"
            }
          ],
          "stateMutability": "view",
          "type": "function"
        },
        {
          "inputs": [
            {
              "internalType": "uint64",
              "name": "",
              "type": "uint64"
            }
          ],
          "name": "pendingRequests",
          "outputs": [
            {
              "internalType": "uint32",
              "name": "destinationDomain",
              "type": "uint32"
            },
            {
              "internalType": "address",
              "name": "recipient",
              "type": "address"
            },
            {
              "internalType": "uint256",
              "name": "length",
              "type": "uint256"
            },
            {
              "internalType": "uint256",
              "name": "hyperlaneValue",
              "type": "uint256"
            },
            {
              "internalType": "address",
              "name": "requester",
              "type": "address"
            }
          ],
          "stateMutability": "view",
          "type": "function"
        },
        {
          "inputs": [
            {
              "internalType": "uint32",
              "name": "_destinationDomain",
              "type": "uint32"
            },
            {
              "internalType": "address",
              "name": "_recipient",
              "type": "address"
            }
          ],
          "name": "quoteEntropyRelay",
          "outputs": [
            {
              "internalType": "uint256",
              "name": "",
              "type": "uint256"
            }
          ],
          "stateMutability": "view",
          "type": "function"
        },
        {
          "inputs": [
            {
              "internalType": "uint32",
              "name": "_destinationDomain",
              "type": "uint32"
            },
            {
              "internalType": "address",
              "name": "_recipient",
              "type": "address"
            },
            {
              "internalType": "string",
              "name": "_message",
              "type": "string"
            }
          ],
          "name": "quoteSendMessage",
          "outputs": [
            {
              "internalType": "uint256",
              "name": "",
              "type": "uint256"
            }
          ],
          "stateMutability": "view",
          "type": "function"
        },
        {
          "inputs": [],
          "name": "renounceOwnership",
          "outputs": [],
          "stateMutability": "nonpayable",
          "type": "function"
        },
        {
          "inputs": [
            {
              "internalType": "uint32",
              "name": "_destinationDomain",
              "type": "uint32"
            },
            {
              "internalType": "address",
              "name": "_recipient",
              "type": "address"
            }
          ],
          "name": "requestAndRelayEntropy",
          "outputs": [],
          "stateMutability": "payable",
          "type": "function"
        },
        {
          "inputs": [
            {
              "internalType": "uint32",
              "name": "_destinationDomain",
              "type": "uint32"
            },
            {
              "internalType": "address",
              "name": "_recipient",
              "type": "address"
            },
            {
              "internalType": "string",
              "name": "_message",
              "type": "string"
            }
          ],
          "name": "sendMessage",
          "outputs": [],
          "stateMutability": "payable",
          "type": "function"
        },
        {
          "inputs": [
            {
              "internalType": "address",
              "name": "newOwner",
              "type": "address"
            }
          ],
          "name": "transferOwnership",
          "outputs": [],
          "stateMutability": "nonpayable",
          "type": "function"
        },
        {
          "stateMutability": "payable",
          "type": "receive"
        }
      ],
      "evm": {
        "bytecode": {
          "linkReferences": {},
          "object": "6080806040523460bd57331560a75760008054336001600160a01b0319821681178355916001600160a01b03909116907f8be0079c531659141344cd1fd0a4f28419497f9722a3daafe3b4186f6b6457e09080a3600180546001600160a01b031990811673ea87ae93fa0019a82a727bfd3ebd1cfca8f64f1d1790915560028054909116736e7d74fa7d5c90fef9f0512987605a6d546181bb17905561125f90816100c38239f35b631e4fbdf760e01b600052600060045260246000fd5b600080fdfe6080806040526004361015610049575b50361561001b57600080fd5b6040513481527f5af8184bef8e4b45eb9f6ed7734d04da38ced226495548f46e0c8ff8d7d9a52460203392a2005b60003560e01c90816312065fe014610ca65750806330ff6fe714610c6757806347ce07cc14610c3e57806352a5f1f8146109435780635312ea8e1461088257806355c7eb53146107e057806356d5d475146106eb5780635ced058e146106c457806365b07d5814610649578063715018a6146105f05780638da5cb5b146105c7578063b85ec50514610598578063d526a75314610387578063d5438eae1461035e578063df50d66c1461032b578063f2fde38b1461029e578063f3709157146101505763fbd841231461011c573861000f565b3461014b57600036600319011261014b576020604051736e7d74fa7d5c90fef9f0512987605a6d546181bb8152f35b600080fd5b3461014b57604036600319011261014b57600461016b610cbf565b610173610ce8565b6002546040516341025b3d60e11b81529360209185919082906001600160a01b03165afa92831561025a57600093610266575b506101f791602091604051916000848401528383526101c6604084610daf565b60015460405163138857a360e31b81529586946001600160a01b039283169486948594919091169060048501610e16565b03915afa90811561025a57600091610227575b602061021f836001600160801b038616610e91565b604051908152f35b90506020813d602011610252575b8161024260209383610daf565b8101031261014b5751602061020a565b3d9150610235565b6040513d6000823e3d90fd5b60209193509161028e6101f793833d8511610297575b6102868183610daf565b810190610e72565b939150916101a6565b503d61027c565b3461014b57602036600319011261014b576004356001600160a01b0381169081900361014b576102cc610eeb565b801561031557600080546001600160a01b03198116831782556001600160a01b0316907f8be0079c531659141344cd1fd0a4f28419497f9722a3daafe3b4186f6b6457e09080a3005b631e4fbdf760e01b600052600060045260246000fd5b604036600319011261014b5761035c610342610cbf565b61034a610ce8565b90610353610eeb565b34913391610f14565b005b3461014b57600036600319011261014b576001546040516001600160a01b039091168152602090f35b6103ae61039336610d2b565b939161039d610eeb565b6001600160a01b0316933691610dd0565b60015460405163138857a360e31b815293919291906001600160a01b0316602085806103df87868860048501610e16565b0381845afa94851561025a57600095610561575b5084341061050c57610421602091869560405196878094819363fa31de0160e01b8352888a60048501610e16565b03925af192831561025a576000936104b8575b507f69a34bed73b4a103e37a0446a015bebd8429e0e18b464511600f291bac69756c9160409163ffffffff8351921682526020820152a280341161047457005b803403903482116104a2576000808093819382903414610499575b3390f11561025a57005b506108fc61048f565b634e487b7160e01b600052601160045260246000fd5b9092506020813d602011610504575b816104d460209383610daf565b8101031261014b5751917f69a34bed73b4a103e37a0446a015bebd8429e0e18b464511600f291bac69756c610434565b3d91506104c7565b60405162461bcd60e51b815260206004820152602760248201527f496e73756666696369656e74207061796d656e7420666f7220696e746572636860448201526661696e2067617360c81b6064820152608490fd5b90946020823d602011610590575b8161057c60209383610daf565b8101031261058d57505193856103f3565b80fd5b3d915061056f565b3461014b57600036600319011261014b57602060405173ea87ae93fa0019a82a727bfd3ebd1cfca8f64f1d8152f35b3461014b57600036600319011261014b576000546040516001600160a01b039091168152602090f35b3461014b57600036600319011261014b57610609610eeb565b600080546001600160a01b0319811682556001600160a01b03167f8be0079c531659141344cd1fd0a4f28419497f9722a3daafe3b4186f6b6457e08280a3005b3461014b57602036600319011261014b576001600160401b0361066a610cd2565b16600052600360205260a060406000208054906001810154906002810154906003600180871b0391015416916040519363ffffffff81168552600180871b039060201c166020850152604084015260608301526080820152f35b3461014b57602036600319011261014b576040516004356001600160a01b03168152602090f35b606036600319011261014b576106ff610cbf565b6024356044356001600160401b03811161014b57610721903690600401610cfe565b73ea87ae93fa0019a82a727bfd3ebd1cfca8f64f1d33036107a357816020918101031261014b57356001600160a01b0381169081900361014b5761035c92826040518381527f43873e80420fa4a3230130e2131684c217929d9cde1b82fdbbd707202c7e78f4602063ffffffff851692a334926001600160a01b031690610f14565b60405162461bcd60e51b815260206004820152601560248201527413db9b1e4813585a5b189bde0818d85b8818d85b1b605a1b6044820152606490fd5b3461014b5761083260206108016107f636610d2b565b939192933691610dd0565b60015460405163138857a360e31b81529586946001600160a01b039283169486948594909291169060048501610e16565b03915afa801561025a5760009061084f575b602090604051908152f35b506020813d60201161087a575b8161086960209383610daf565b8101031261014b5760209051610844565b3d915061085c565b3461014b57602036600319011261014b5760043561089e610eeb565b4781116109075760008080808460018060a01b038254168282156108fe575bf11561025a576000546040519182526001600160a01b0316907f7084f5476618d8e60b11ef0d7d3f06914655adb8793e28ff7f018d4c76d505d590602090a2005b506108fc6108bd565b60405162461bcd60e51b8152602060048201526014602482015273496e73756666696369656e742062616c616e636560601b6044820152606490fd5b3461014b57606036600319011261014b5761095c610cd2565b610964610ce8565b5060025460443591906001600160a01b03168015610bf9573303610ba8576001600160401b031690816000526003602052604060002090604051906109a882610d7e565b825463ffffffff81168084526001600160a01b03602092831c8116928501928352600186015460408601526002860154606086019081526003909601541660808501908152949015610b57579351604051610a8e95602092610a6392906001600160a01b0316610a1782610d7e565b8682528480830152896040830152306060830152608082015260018060a01b038551169060018060a01b0360015416925190610a7163ffffffff8a511691604051968791898301610e9e565b03601f198101875286610daf565b60405163fa31de0160e01b8152998a958694859360048501610e16565b03925af192831561025a578594600094610b19575b505190516040805194855263ffffffff90921660208501526001600160a01b03169083015260608201527f8408cad943265dac5827d6a5f18b9ec92561b0b72f5b9dc377b865b8c2c4962e90608090a2600052600360205260006003604082208281558260018201558260028201550155600080f35b9294509092506020823d602011610b4f575b81610b3860209383610daf565b8101031261014b5790518493909290916080610aa3565b3d9150610b2b565b60405162461bcd60e51b8152602060048201526024808201527f4e6f2070656e64696e67207265717565737420666f7220746869732073657175604482015263656e636560e01b6064820152608490fd5b60405162461bcd60e51b815260206004820152602360248201527f4f6e6c7920456e74726f70792063616e2063616c6c20746869732066756e637460448201526234b7b760e91b6064820152608490fd5b60405162461bcd60e51b815260206004820152601760248201527f456e74726f70792061646472657373206e6f74207365740000000000000000006044820152606490fd5b3461014b57600036600319011261014b576002546040516001600160a01b039091168152602090f35b3461014b57602036600319011261014b5763ffffffff610c85610cbf565b166000526004602052602060018060a01b0360406000205416604051908152f35b3461014b57600036600319011261014b57602090478152f35b6004359063ffffffff8216820361014b57565b600435906001600160401b038216820361014b57565b602435906001600160a01b038216820361014b57565b9181601f8401121561014b578235916001600160401b03831161014b576020838186019501011161014b57565b606060031982011261014b5760043563ffffffff8116810361014b57916024356001600160a01b038116810361014b5791604435906001600160401b03821161014b57610d7a91600401610cfe565b9091565b60a081019081106001600160401b03821117610d9957604052565b634e487b7160e01b600052604160045260246000fd5b90601f801991011681019081106001600160401b03821117610d9957604052565b9291926001600160401b038211610d995760405191610df9601f8201601f191660200184610daf565b82948184528183011161014b578281602093846000960137010152565b919063ffffffff90949394168252602082015260606040820152825180606083015260005b818110610e5c575060809293506000838284010152601f8019910116010190565b8060208092870101516080828601015201610e3b565b9081602091031261014b57516001600160801b038116810361014b5790565b919082018092116104a257565b81518152602080830151908201526040808301516001600160401b0316908201526060808301516001600160a01b0390811691830191909152608092830151169181019190915260a00190565b6000546001600160a01b03163303610eff57565b63118cdaa760e01b6000523360045260246000fd5b6002546040516341025b3d60e11b81529491939291906001600160a01b0316602086600481845afa92831561025a57610fd796600094611208575b5060018060a01b0316926020610fa1610faf60405197610f6e89610d7e565b6000895283808a0152600060408a01523060608a015260018060a01b031697886080820152604051928391858301610e9e565b03601f198101835282610daf565b60018060a01b036001541660405180809b819463138857a360e31b83528a8d60048501610e16565b03915afa96871561025a576000976111cd575b506001600160801b03169161100a6110028885610e91565b914790610e91565b1061118857602090600460405180948193637b43155d60e01b83525af190811561025a57600091611122575b50917f0251fcd2692e8b1c335006400229b3dd3b45343aeb91aed95ff1820b1ea5bdaa9391608093600363ffffffff6040519561107287610d7e565b16948581526020810198848a526040820160208152606083019182526001600160401b0389840195888752169a8b6000528460205263ffffffff6040600020945116845491640100000000600160c01b03905160201b16916001600160401b0360c01b1617178355516001830155516002820155019060018060a01b039051166bffffffffffffffffffffffff60a01b8254161790556040519283526020830152604082015260206060820152a2565b6020813d602011611180575b8161113b60209383610daf565b8101031261117c5751906001600160401b038216820361058d57507f0251fcd2692e8b1c335006400229b3dd3b45343aeb91aed95ff1820b1ea5bdaa611036565b5080fd5b3d915061112e565b60405162461bcd60e51b815260206004820152601e60248201527f496e73756666696369656e742066756e647320696e20636f6e747261637400006044820152606490fd5b90966020823d602011611200575b816111e860209383610daf565b8101031261058d575051956001600160801b03610fea565b3d91506111db565b61122291945060203d602011610297576102868183610daf565b9238610f4f56fea26469706673582212208f28eaa99cb59bfbb410c12b9633558d76bea358adca29a7b14ea7bf8f6d696864736f6c634300081c0033",
          "opcodes": "PUSH1 0x80 DUP1 PUSH1 0x40 MSTORE CALLVALUE PUSH1 0xBD JUMPI CALLER ISZERO PUSH1 0xA7 JUMPI PUSH1 0x0 DUP1 SLOAD CALLER PUSH1 0x1 PUSH1 0x1 PUSH1 0xA0 SHL SUB NOT DUP3 AND DUP2 OR DUP4 SSTORE SWAP2 PUSH1 0x1 PUSH1 0x1 PUSH1 0xA0 SHL SUB SWAP1 SWAP2 AND SWAP1 PUSH32 0x8BE0079C531659141344CD1FD0A4F28419497F9722A3DAAFE3B4186F6B6457E0 SWAP1 DUP1 LOG3 PUSH1 0x1 DUP1 SLOAD PUSH1 0x1 PUSH1 0x1 PUSH1 0xA0 SHL SUB NOT SWAP1 DUP2 AND PUSH20 0xEA87AE93FA0019A82A727BFD3EBD1CFCA8F64F1D OR SWAP1 SWAP2 SSTORE PUSH1 0x2 DUP1 SLOAD SWAP1 SWAP2 AND PUSH20 0x6E7D74FA7D5C90FEF9F0512987605A6D546181BB OR SWAP1 SSTORE PUSH2 0x125F SWAP1 DUP2 PUSH2 0xC3 DUP3 CODECOPY RETURN JUMPDEST PUSH4 0x1E4FBDF7 PUSH1 0xE0 SHL PUSH1 0x0 MSTORE PUSH1 0x0 PUSH1 0x4 MSTORE PUSH1 0x24 PUSH1 0x0 REVERT JUMPDEST PUSH1 0x0 DUP1 REVERT INVALID PUSH1 0x80 DUP1 PUSH1 0x40 MSTORE PUSH1 0x4 CALLDATASIZE LT ISZERO PUSH2 0x49 JUMPI JUMPDEST POP CALLDATASIZE ISZERO PUSH2 0x1B JUMPI PUSH1 0x0 DUP1 REVERT JUMPDEST PUSH1 0x40 MLOAD CALLVALUE DUP2 MSTORE PUSH32 0x5AF8184BEF8E4B45EB9F6ED7734D04DA38CED226495548F46E0C8FF8D7D9A524 PUSH1 0x20 CALLER SWAP3 LOG2 STOP JUMPDEST PUSH1 0x0 CALLDATALOAD PUSH1 0xE0 SHR SWAP1 DUP2 PUSH4 0x12065FE0 EQ PUSH2 0xCA6 JUMPI POP DUP1 PUSH4 0x30FF6FE7 EQ PUSH2 0xC67 JUMPI DUP1 PUSH4 0x47CE07CC EQ PUSH2 0xC3E JUMPI DUP1 PUSH4 0x52A5F1F8 EQ PUSH2 0x943 JUMPI DUP1 PUSH4 0x5312EA8E EQ PUSH2 0x882 JUMPI DUP1 PUSH4 0x55C7EB53 EQ PUSH2 0x7E0 JUMPI DUP1 PUSH4 0x56D5D475 EQ PUSH2 0x6EB JUMPI DUP1 PUSH4 0x5CED058E EQ PUSH2 0x6C4 JUMPI DUP1 PUSH4 0x65B07D58 EQ PUSH2 0x649 JUMPI DUP1 PUSH4 0x715018A6 EQ PUSH2 0x5F0 JUMPI DUP1 PUSH4 0x8DA5CB5B EQ PUSH2 0x5C7 JUMPI DUP1 PUSH4 0xB85EC505 EQ PUSH2 0x598 JUMPI DUP1 PUSH4 0xD526A753 EQ PUSH2 0x387 JUMPI DUP1 PUSH4 0xD5438EAE EQ PUSH2 0x35E JUMPI DUP1 PUSH4 0xDF50D66C EQ PUSH2 0x32B JUMPI DUP1 PUSH4 0xF2FDE38B EQ PUSH2 0x29E JUMPI DUP1 PUSH4 0xF3709157 EQ PUSH2 0x150 JUMPI PUSH4 0xFBD84123 EQ PUSH2 0x11C JUMPI CODESIZE PUSH2 0xF JUMP JUMPDEST CALLVALUE PUSH2 0x14B JUMPI PUSH1 0x0 CALLDATASIZE PUSH1 0x3 NOT ADD SLT PUSH2 0x14B JUMPI PUSH1 0x20 PUSH1 0x40 MLOAD PUSH20 0x6E7D74FA7D5C90FEF9F0512987605A6D546181BB DUP2 MSTORE RETURN JUMPDEST PUSH1 0x0 DUP1 REVERT JUMPDEST CALLVALUE PUSH2 0x14B JUMPI PUSH1 0x40 CALLDATASIZE PUSH1 0x3 NOT ADD SLT PUSH2 0x14B JUMPI PUSH1 0x4 PUSH2 0x16B PUSH2 0xCBF JUMP JUMPDEST PUSH2 0x173 PUSH2 0xCE8 JUMP JUMPDEST PUSH1 0x2 SLOAD PUSH1 0x40 MLOAD PUSH4 0x41025B3D PUSH1 0xE1 SHL DUP2 MSTORE SWAP4 PUSH1 0x20 SWAP2 DUP6 SWAP2 SWAP1 DUP3 SWAP1 PUSH1 0x1 PUSH1 0x1 PUSH1 0xA0 SHL SUB AND GAS STATICCALL SWAP3 DUP4 ISZERO PUSH2 0x25A JUMPI PUSH1 0x0 SWAP4 PUSH2 0x266 JUMPI JUMPDEST POP PUSH2 0x1F7 SWAP2 PUSH1 0x20 SWAP2 PUSH1 0x40 MLOAD SWAP2 PUSH1 0x0 DUP5 DUP5 ADD MSTORE DUP4 DUP4 MSTORE PUSH2 0x1C6 PUSH1 0x40 DUP5 PUSH2 0xDAF JUMP JUMPDEST PUSH1 0x1 SLOAD PUSH1 0x40 MLOAD PUSH4 0x138857A3 PUSH1 0xE3 SHL DUP2 MSTORE SWAP6 DUP7 SWAP5 PUSH1 0x1 PUSH1 0x1 PUSH1 0xA0 SHL SUB SWAP3 DUP4 AND SWAP5 DUP7 SWAP5 DUP6 SWAP5 SWAP2 SWAP1 SWAP2 AND SWAP1 PUSH1 0x4 DUP6 ADD PUSH2 0xE16 JUMP JUMPDEST SUB SWAP2 GAS STATICCALL SWAP1 DUP2 ISZERO PUSH2 0x25A JUMPI PUSH1 0x0 SWAP2 PUSH2 0x227 JUMPI JUMPDEST PUSH1 0x20 PUSH2 0x21F DUP4 PUSH1 0x1 PUSH1 0x1 PUSH1 0x80 SHL SUB DUP7 AND PUSH2 0xE91 JUMP JUMPDEST PUSH1 0x40 MLOAD SWAP1 DUP2 MSTORE RETURN JUMPDEST SWAP1 POP PUSH1 0x20 DUP2 RETURNDATASIZE PUSH1 0x20 GT PUSH2 0x252 JUMPI JUMPDEST DUP2 PUSH2 0x242 PUSH1 0x20 SWAP4 DUP4 PUSH2 0xDAF JUMP JUMPDEST DUP2 ADD SUB SLT PUSH2 0x14B JUMPI MLOAD PUSH1 0x20 PUSH2 0x20A JUMP JUMPDEST RETURNDATASIZE SWAP2 POP PUSH2 0x235 JUMP JUMPDEST PUSH1 0x40 MLOAD RETURNDATASIZE PUSH1 0x0 DUP3 RETURNDATACOPY RETURNDATASIZE SWAP1 REVERT JUMPDEST PUSH1 0x20 SWAP2 SWAP4 POP SWAP2 PUSH2 0x28E PUSH2 0x1F7 SWAP4 DUP4 RETURNDATASIZE DUP6 GT PUSH2 0x297 JUMPI JUMPDEST PUSH2 0x286 DUP2 DUP4 PUSH2 0xDAF JUMP JUMPDEST DUP2 ADD SWAP1 PUSH2 0xE72 JUMP JUMPDEST SWAP4 SWAP2 POP SWAP2 PUSH2 0x1A6 JUMP JUMPDEST POP RETURNDATASIZE PUSH2 0x27C JUMP JUMPDEST CALLVALUE PUSH2 0x14B JUMPI PUSH1 0x20 CALLDATASIZE PUSH1 0x3 NOT ADD SLT PUSH2 0x14B JUMPI PUSH1 0x4 CALLDATALOAD PUSH1 0x1 PUSH1 0x1 PUSH1 0xA0 SHL SUB DUP2 AND SWAP1 DUP2 SWAP1 SUB PUSH2 0x14B JUMPI PUSH2 0x2CC PUSH2 0xEEB JUMP JUMPDEST DUP1 ISZERO PUSH2 0x315 JUMPI PUSH1 0x0 DUP1 SLOAD PUSH1 0x1 PUSH1 0x1 PUSH1 0xA0 SHL SUB NOT DUP2 AND DUP4 OR DUP3 SSTORE PUSH1 0x1 PUSH1 0x1 PUSH1 0xA0 SHL SUB AND SWAP1 PUSH32 0x8BE0079C531659141344CD1FD0A4F28419497F9722A3DAAFE3B4186F6B6457E0 SWAP1 DUP1 LOG3 STOP JUMPDEST PUSH4 0x1E4FBDF7 PUSH1 0xE0 SHL PUSH1 0x0 MSTORE PUSH1 0x0 PUSH1 0x4 MSTORE PUSH1 0x24 PUSH1 0x0 REVERT JUMPDEST PUSH1 0x40 CALLDATASIZE PUSH1 0x3 NOT ADD SLT PUSH2 0x14B JUMPI PUSH2 0x35C PUSH2 0x342 PUSH2 0xCBF JUMP JUMPDEST PUSH2 0x34A PUSH2 0xCE8 JUMP JUMPDEST SWAP1 PUSH2 0x353 PUSH2 0xEEB JUMP JUMPDEST CALLVALUE SWAP2 CALLER SWAP2 PUSH2 0xF14 JUMP JUMPDEST STOP JUMPDEST CALLVALUE PUSH2 0x14B JUMPI PUSH1 0x0 CALLDATASIZE PUSH1 0x3 NOT ADD SLT PUSH2 0x14B JUMPI PUSH1 0x1 SLOAD PUSH1 0x40 MLOAD PUSH1 0x1 PUSH1 0x1 PUSH1 0xA0 SHL SUB SWAP1 SWAP2 AND DUP2 MSTORE PUSH1 0x20 SWAP1 RETURN JUMPDEST PUSH2 0x3AE PUSH2 0x393 CALLDATASIZE PUSH2 0xD2B JUMP JUMPDEST SWAP4 SWAP2 PUSH2 0x39D PUSH2 0xEEB JUMP JUMPDEST PUSH1 0x1 PUSH1 0x1 PUSH1 0xA0 SHL SUB AND SWAP4 CALLDATASIZE SWAP2 PUSH2 0xDD0 JUMP JUMPDEST PUSH1 0x1 SLOAD PUSH1 0x40 MLOAD PUSH4 0x138857A3 PUSH1 0xE3 SHL DUP2 MSTORE SWAP4 SWAP2 SWAP3 SWAP2 SWAP1 PUSH1 0x1 PUSH1 0x1 PUSH1 0xA0 SHL SUB AND PUSH1 0x20 DUP6 DUP1 PUSH2 0x3DF DUP8 DUP7 DUP9 PUSH1 0x4 DUP6 ADD PUSH2 0xE16 JUMP JUMPDEST SUB DUP2 DUP5 GAS STATICCALL SWAP5 DUP6 ISZERO PUSH2 0x25A JUMPI PUSH1 0x0 SWAP6 PUSH2 0x561 JUMPI JUMPDEST POP DUP5 CALLVALUE LT PUSH2 0x50C JUMPI PUSH2 0x421 PUSH1 0x20 SWAP2 DUP7 SWAP6 PUSH1 0x40 MLOAD SWAP7 DUP8 DUP1 SWAP5 DUP2 SWAP4 PUSH4 0xFA31DE01 PUSH1 0xE0 SHL DUP4 MSTORE DUP9 DUP11 PUSH1 0x4 DUP6 ADD PUSH2 0xE16 JUMP JUMPDEST SUB SWAP3 GAS CALL SWAP3 DUP4 ISZERO PUSH2 0x25A JUMPI PUSH1 0x0 SWAP4 PUSH2 0x4B8 JUMPI JUMPDEST POP PUSH32 0x69A34BED73B4A103E37A0446A015BEBD8429E0E18B464511600F291BAC69756C SWAP2 PUSH1 0x40 SWAP2 PUSH4 0xFFFFFFFF DUP4 MLOAD SWAP3 AND DUP3 MSTORE PUSH1 0x20 DUP3 ADD MSTORE LOG2 DUP1 CALLVALUE GT PUSH2 0x474 JUMPI STOP JUMPDEST DUP1 CALLVALUE SUB SWAP1 CALLVALUE DUP3 GT PUSH2 0x4A2 JUMPI PUSH1 0x0 DUP1 DUP1 SWAP4 DUP2 SWAP4 DUP3 SWAP1 CALLVALUE EQ PUSH2 0x499 JUMPI JUMPDEST CALLER SWAP1 CALL ISZERO PUSH2 0x25A JUMPI STOP JUMPDEST POP PUSH2 0x8FC PUSH2 0x48F JUMP JUMPDEST PUSH4 0x4E487B71 PUSH1 0xE0 SHL PUSH1 0x0 MSTORE PUSH1 0x11 PUSH1 0x4 MSTORE PUSH1 0x24 PUSH1 0x0 REVERT JUMPDEST SWAP1 SWAP3 POP PUSH1 0x20 DUP2 RETURNDATASIZE PUSH1 0x20 GT PUSH2 0x504 JUMPI JUMPDEST DUP2 PUSH2 0x4D4 PUSH1 0x20 SWAP4 DUP4 PUSH2 0xDAF JUMP JUMPDEST DUP2 ADD SUB SLT PUSH2 0x14B JUMPI MLOAD SWAP2 PUSH32 0x69A34BED73B4A103E37A0446A015BEBD8429E0E18B464511600F291BAC69756C PUSH2 0x434 JUMP JUMPDEST RETURNDATASIZE SWAP2 POP PUSH2 0x4C7 JUMP JUMPDEST PUSH1 0x40 MLOAD PUSH3 0x461BCD PUSH1 0xE5 SHL DUP2 MSTORE PUSH1 0x20 PUSH1 0x4 DUP3 ADD MSTORE PUSH1 0x27 PUSH1 0x24 DUP3 ADD MSTORE PUSH32 0x496E73756666696369656E74207061796D656E7420666F7220696E7465726368 PUSH1 0x44 DUP3 ADD MSTORE PUSH7 0x61696E20676173 PUSH1 0xC8 SHL PUSH1 0x64 DUP3 ADD MSTORE PUSH1 0x84 SWAP1 REVERT JUMPDEST SWAP1 SWAP5 PUSH1 0x20 DUP3 RETURNDATASIZE PUSH1 0x20 GT PUSH2 0x590 JUMPI JUMPDEST DUP2 PUSH2 0x57C PUSH1 0x20 SWAP4 DUP4 PUSH2 0xDAF JUMP JUMPDEST DUP2 ADD SUB SLT PUSH2 0x58D JUMPI POP MLOAD SWAP4 DUP6 PUSH2 0x3F3 JUMP JUMPDEST DUP1 REVERT JUMPDEST RETURNDATASIZE SWAP2 POP PUSH2 0x56F JUMP JUMPDEST CALLVALUE PUSH2 0x14B JUMPI PUSH1 0x0 CALLDATASIZE PUSH1 0x3 NOT ADD SLT PUSH2 0x14B JUMPI PUSH1 0x20 PUSH1 0x40 MLOAD PUSH20 0xEA87AE93FA0019A82A727BFD3EBD1CFCA8F64F1D DUP2 MSTORE RETURN JUMPDEST CALLVALUE PUSH2 0x14B JUMPI PUSH1 0x0 CALLDATASIZE PUSH1 0x3 NOT ADD SLT PUSH2 0x14B JUMPI PUSH1 0x0 SLOAD PUSH1 0x40 MLOAD PUSH1 0x1 PUSH1 0x1 PUSH1 0xA0 SHL SUB SWAP1 SWAP2 AND DUP2 MSTORE PUSH1 0x20 SWAP1 RETURN JUMPDEST CALLVALUE PUSH2 0x14B JUMPI PUSH1 0x0 CALLDATASIZE PUSH1 0x3 NOT ADD SLT PUSH2 0x14B JUMPI PUSH2 0x609 PUSH2 0xEEB JUMP JUMPDEST PUSH1 0x0 DUP1 SLOAD PUSH1 0x1 PUSH1 0x1 PUSH1 0xA0 SHL SUB NOT DUP2 AND DUP3 SSTORE PUSH1 0x1 PUSH1 0x1 PUSH1 0xA0 SHL SUB AND PUSH32 0x8BE0079C531659141344CD1FD0A4F28419497F9722A3DAAFE3B4186F6B6457E0 DUP3 DUP1 LOG3 STOP JUMPDEST CALLVALUE PUSH2 0x14B JUMPI PUSH1 0x20 CALLDATASIZE PUSH1 0x3 NOT ADD SLT PUSH2 0x14B JUMPI PUSH1 0x1 PUSH1 0x1 PUSH1 0x40 SHL SUB PUSH2 0x66A PUSH2 0xCD2 JUMP JUMPDEST AND PUSH1 0x0 MSTORE PUSH1 0x3 PUSH1 0x20 MSTORE PUSH1 0xA0 PUSH1 0x40 PUSH1 0x0 KECCAK256 DUP1 SLOAD SWAP1 PUSH1 0x1 DUP2 ADD SLOAD SWAP1 PUSH1 0x2 DUP2 ADD SLOAD SWAP1 PUSH1 0x3 PUSH1 0x1 DUP1 DUP8 SHL SUB SWAP2 ADD SLOAD AND SWAP2 PUSH1 0x40 MLOAD SWAP4 PUSH4 0xFFFFFFFF DUP2 AND DUP6 MSTORE PUSH1 0x1 DUP1 DUP8 SHL SUB SWAP1 PUSH1 0x20 SHR AND PUSH1 0x20 DUP6 ADD MSTORE PUSH1 0x40 DUP5 ADD MSTORE PUSH1 0x60 DUP4 ADD MSTORE PUSH1 0x80 DUP3 ADD MSTORE RETURN JUMPDEST CALLVALUE PUSH2 0x14B JUMPI PUSH1 0x20 CALLDATASIZE PUSH1 0x3 NOT ADD SLT PUSH2 0x14B JUMPI PUSH1 0x40 MLOAD PUSH1 0x4 CALLDATALOAD PUSH1 0x1 PUSH1 0x1 PUSH1 0xA0 SHL SUB AND DUP2 MSTORE PUSH1 0x20 SWAP1 RETURN JUMPDEST PUSH1 0x60 CALLDATASIZE PUSH1 0x3 NOT ADD SLT PUSH2 0x14B JUMPI PUSH2 0x6FF PUSH2 0xCBF JUMP JUMPDEST PUSH1 0x24 CALLDATALOAD PUSH1 0x44 CALLDATALOAD PUSH1 0x1 PUSH1 0x1 PUSH1 0x40 SHL SUB DUP2 GT PUSH2 0x14B JUMPI PUSH2 0x721 SWAP1 CALLDATASIZE SWAP1 PUSH1 0x4 ADD PUSH2 0xCFE JUMP JUMPDEST PUSH20 0xEA87AE93FA0019A82A727BFD3EBD1CFCA8F64F1D CALLER SUB PUSH2 0x7A3 JUMPI DUP2 PUSH1 0x20 SWAP2 DUP2 ADD SUB SLT PUSH2 0x14B JUMPI CALLDATALOAD PUSH1 0x1 PUSH1 0x1 PUSH1 0xA0 SHL SUB DUP2 AND SWAP1 DUP2 SWAP1 SUB PUSH2 0x14B JUMPI PUSH2 0x35C SWAP3 DUP3 PUSH1 0x40 MLOAD DUP4 DUP2 MSTORE PUSH32 0x43873E80420FA4A3230130E2131684C217929D9CDE1B82FDBBD707202C7E78F4 PUSH1 0x20 PUSH4 0xFFFFFFFF DUP6 AND SWAP3 LOG3 CALLVALUE SWAP3 PUSH1 0x1 PUSH1 0x1 PUSH1 0xA0 SHL SUB AND SWAP1 PUSH2 0xF14 JUMP JUMPDEST PUSH1 0x40 MLOAD PUSH3 0x461BCD PUSH1 0xE5 SHL DUP2 MSTORE PUSH1 0x20 PUSH1 0x4 DUP3 ADD MSTORE PUSH1 0x15 PUSH1 0x24 DUP3 ADD MSTORE PUSH21 0x13DB9B1E4813585A5B189BDE0818D85B8818D85B1B PUSH1 0x5A SHL PUSH1 0x44 DUP3 ADD MSTORE PUSH1 0x64 SWAP1 REVERT JUMPDEST CALLVALUE PUSH2 0x14B JUMPI PUSH2 0x832 PUSH1 0x20 PUSH2 0x801 PUSH2 0x7F6 CALLDATASIZE PUSH2 0xD2B JUMP JUMPDEST SWAP4 SWAP2 SWAP3 SWAP4 CALLDATASIZE SWAP2 PUSH2 0xDD0 JUMP JUMPDEST PUSH1 0x1 SLOAD PUSH1 0x40 MLOAD PUSH4 0x138857A3 PUSH1 0xE3 SHL DUP2 MSTORE SWAP6 DUP7 SWAP5 PUSH1 0x1 PUSH1 0x1 PUSH1 0xA0 SHL SUB SWAP3 DUP4 AND SWAP5 DUP7 SWAP5 DUP6 SWAP5 SWAP1 SWAP3 SWAP2 AND SWAP1 PUSH1 0x4 DUP6 ADD PUSH2 0xE16 JUMP JUMPDEST SUB SWAP2 GAS STATICCALL DUP1 ISZERO PUSH2 0x25A JUMPI PUSH1 0x0 SWAP1 PUSH2 0x84F JUMPI JUMPDEST PUSH1 0x20 SWAP1 PUSH1 0x40 MLOAD SWAP1 DUP2 MSTORE RETURN JUMPDEST POP PUSH1 0x20 DUP2 RETURNDATASIZE PUSH1 0x20 GT PUSH2 0x87A JUMPI JUMPDEST DUP2 PUSH2 0x869 PUSH1 0x20 SWAP4 DUP4 PUSH2 0xDAF JUMP JUMPDEST DUP2 ADD SUB SLT PUSH2 0x14B JUMPI PUSH1 0x20 SWAP1 MLOAD PUSH2 0x844 JUMP JUMPDEST RETURNDATASIZE SWAP2 POP PUSH2 0x85C JUMP JUMPDEST CALLVALUE PUSH2 0x14B JUMPI PUSH1 0x20 CALLDATASIZE PUSH1 0x3 NOT ADD SLT PUSH2 0x14B JUMPI PUSH1 0x4 CALLDATALOAD PUSH2 0x89E PUSH2 0xEEB JUMP JUMPDEST SELFBALANCE DUP2 GT PUSH2 0x907 JUMPI PUSH1 0x0 DUP1 DUP1 DUP1 DUP5 PUSH1 0x1 DUP1 PUSH1 0xA0 SHL SUB DUP3 SLOAD AND DUP3 DUP3 ISZERO PUSH2 0x8FE JUMPI JUMPDEST CALL ISZERO PUSH2 0x25A JUMPI PUSH1 0x0 SLOAD PUSH1 0x40 MLOAD SWAP2 DUP3 MSTORE PUSH1 0x1 PUSH1 0x1 PUSH1 0xA0 SHL SUB AND SWAP1 PUSH32 0x7084F5476618D8E60B11EF0D7D3F06914655ADB8793E28FF7F018D4C76D505D5 SWAP1 PUSH1 0x20 SWAP1 LOG2 STOP JUMPDEST POP PUSH2 0x8FC PUSH2 0x8BD JUMP JUMPDEST PUSH1 0x40 MLOAD PUSH3 0x461BCD PUSH1 0xE5 SHL DUP2 MSTORE PUSH1 0x20 PUSH1 0x4 DUP3 ADD MSTORE PUSH1 0x14 PUSH1 0x24 DUP3 ADD MSTORE PUSH20 0x496E73756666696369656E742062616C616E6365 PUSH1 0x60 SHL PUSH1 0x44 DUP3 ADD MSTORE PUSH1 0x64 SWAP1 REVERT JUMPDEST CALLVALUE PUSH2 0x14B JUMPI PUSH1 0x60 CALLDATASIZE PUSH1 0x3 NOT ADD SLT PUSH2 0x14B JUMPI PUSH2 0x95C PUSH2 0xCD2 JUMP JUMPDEST PUSH2 0x964 PUSH2 0xCE8 JUMP JUMPDEST POP PUSH1 0x2 SLOAD PUSH1 0x44 CALLDATALOAD SWAP2 SWAP1 PUSH1 0x1 PUSH1 0x1 PUSH1 0xA0 SHL SUB AND DUP1 ISZERO PUSH2 0xBF9 JUMPI CALLER SUB PUSH2 0xBA8 JUMPI PUSH1 0x1 PUSH1 0x1 PUSH1 0x40 SHL SUB AND SWAP1 DUP2 PUSH1 0x0 MSTORE PUSH1 0x3 PUSH1 0x20 MSTORE PUSH1 0x40 PUSH1 0x0 KECCAK256 SWAP1 PUSH1 0x40 MLOAD SWAP1 PUSH2 0x9A8 DUP3 PUSH2 0xD7E JUMP JUMPDEST DUP3 SLOAD PUSH4 0xFFFFFFFF DUP2 AND DUP1 DUP5 MSTORE PUSH1 0x1 PUSH1 0x1 PUSH1 0xA0 SHL SUB PUSH1 0x20 SWAP3 DUP4 SHR DUP2 AND SWAP3 DUP6 ADD SWAP3 DUP4 MSTORE PUSH1 0x1 DUP7 ADD SLOAD PUSH1 0x40 DUP7 ADD MSTORE PUSH1 0x2 DUP7 ADD SLOAD PUSH1 0x60 DUP7 ADD SWAP1 DUP2 MSTORE PUSH1 0x3 SWAP1 SWAP7 ADD SLOAD AND PUSH1 0x80 DUP6 ADD SWAP1 DUP2 MSTORE SWAP5 SWAP1 ISZERO PUSH2 0xB57 JUMPI SWAP4 MLOAD PUSH1 0x40 MLOAD PUSH2 0xA8E SWAP6 PUSH1 0x20 SWAP3 PUSH2 0xA63 SWAP3 SWAP1 PUSH1 0x1 PUSH1 0x1 PUSH1 0xA0 SHL SUB AND PUSH2 0xA17 DUP3 PUSH2 0xD7E JUMP JUMPDEST DUP7 DUP3 MSTORE DUP5 DUP1 DUP4 ADD MSTORE DUP10 PUSH1 0x40 DUP4 ADD MSTORE ADDRESS PUSH1 0x60 DUP4 ADD MSTORE PUSH1 0x80 DUP3 ADD MSTORE PUSH1 0x1 DUP1 PUSH1 0xA0 SHL SUB DUP6 MLOAD AND SWAP1 PUSH1 0x1 DUP1 PUSH1 0xA0 SHL SUB PUSH1 0x1 SLOAD AND SWAP3 MLOAD SWAP1 PUSH2 0xA71 PUSH4 0xFFFFFFFF DUP11 MLOAD AND SWAP2 PUSH1 0x40 MLOAD SWAP7 DUP8 SWAP2 DUP10 DUP4 ADD PUSH2 0xE9E JUMP JUMPDEST SUB PUSH1 0x1F NOT DUP2 ADD DUP8 MSTORE DUP7 PUSH2 0xDAF JUMP JUMPDEST PUSH1 0x40 MLOAD PUSH4 0xFA31DE01 PUSH1 0xE0 SHL DUP2 MSTORE SWAP10 DUP11 SWAP6 DUP7 SWAP5 DUP6 SWAP4 PUSH1 0x4 DUP6 ADD PUSH2 0xE16 JUMP JUMPDEST SUB SWAP3 GAS CALL SWAP3 DUP4 ISZERO PUSH2 0x25A JUMPI DUP6 SWAP5 PUSH1 0x0 SWAP5 PUSH2 0xB19 JUMPI JUMPDEST POP MLOAD SWAP1 MLOAD PUSH1 0x40 DUP1 MLOAD SWAP5 DUP6 MSTORE PUSH4 0xFFFFFFFF SWAP1 SWAP3 AND PUSH1 0x20 DUP6 ADD MSTORE PUSH1 0x1 PUSH1 0x1 PUSH1 0xA0 SHL SUB AND SWAP1 DUP4 ADD MSTORE PUSH1 0x60 DUP3 ADD MSTORE PUSH32 0x8408CAD943265DAC5827D6A5F18B9EC92561B0B72F5B9DC377B865B8C2C4962E SWAP1 PUSH1 0x80 SWAP1 LOG2 PUSH1 0x0 MSTORE PUSH1 0x3 PUSH1 0x20 MSTORE PUSH1 0x0 PUSH1 0x3 PUSH1 0x40 DUP3 KECCAK256 DUP3 DUP2 SSTORE DUP3 PUSH1 0x1 DUP3 ADD SSTORE DUP3 PUSH1 0x2 DUP3 ADD SSTORE ADD SSTORE PUSH1 0x0 DUP1 RETURN JUMPDEST SWAP3 SWAP5 POP SWAP1 SWAP3 POP PUSH1 0x20 DUP3 RETURNDATASIZE PUSH1 0x20 GT PUSH2 0xB4F JUMPI JUMPDEST DUP2 PUSH2 0xB38 PUSH1 0x20 SWAP4 DUP4 PUSH2 0xDAF JUMP JUMPDEST DUP2 ADD SUB SLT PUSH2 0x14B JUMPI SWAP1 MLOAD DUP5 SWAP4 SWAP1 SWAP3 SWAP1 SWAP2 PUSH1 0x80 PUSH2 0xAA3 JUMP JUMPDEST RETURNDATASIZE SWAP2 POP PUSH2 0xB2B JUMP JUMPDEST PUSH1 0x40 MLOAD PUSH3 0x461BCD PUSH1 0xE5 SHL DUP2 MSTORE PUSH1 0x20 PUSH1 0x4 DUP3 ADD MSTORE PUSH1 0x24 DUP1 DUP3 ADD MSTORE PUSH32 0x4E6F2070656E64696E67207265717565737420666F7220746869732073657175 PUSH1 0x44 DUP3 ADD MSTORE PUSH4 0x656E6365 PUSH1 0xE0 SHL PUSH1 0x64 DUP3 ADD MSTORE PUSH1 0x84 SWAP1 REVERT JUMPDEST PUSH1 0x40 MLOAD PUSH3 0x461BCD PUSH1 0xE5 SHL DUP2 MSTORE PUSH1 0x20 PUSH1 0x4 DUP3 ADD MSTORE PUSH1 0x23 PUSH1 0x24 DUP3 ADD MSTORE PUSH32 0x4F6E6C7920456E74726F70792063616E2063616C6C20746869732066756E6374 PUSH1 0x44 DUP3 ADD MSTORE PUSH3 0x34B7B7 PUSH1 0xE9 SHL PUSH1 0x64 DUP3 ADD MSTORE PUSH1 0x84 SWAP1 REVERT JUMPDEST PUSH1 0x40 MLOAD PUSH3 0x461BCD PUSH1 0xE5 SHL DUP2 MSTORE PUSH1 0x20 PUSH1 0x4 DUP3 ADD MSTORE PUSH1 0x17 PUSH1 0x24 DUP3 ADD MSTORE PUSH32 0x456E74726F70792061646472657373206E6F7420736574000000000000000000 PUSH1 0x44 DUP3 ADD MSTORE PUSH1 0x64 SWAP1 REVERT JUMPDEST CALLVALUE PUSH2 0x14B JUMPI PUSH1 0x0 CALLDATASIZE PUSH1 0x3 NOT ADD SLT PUSH2 0x14B JUMPI PUSH1 0x2 SLOAD PUSH1 0x40 MLOAD PUSH1 0x1 PUSH1 0x1 PUSH1 0xA0 SHL SUB SWAP1 SWAP2 AND DUP2 MSTORE PUSH1 0x20 SWAP1 RETURN JUMPDEST CALLVALUE PUSH2 0x14B JUMPI PUSH1 0x20 CALLDATASIZE PUSH1 0x3 NOT ADD SLT PUSH2 0x14B JUMPI PUSH4 0xFFFFFFFF PUSH2 0xC85 PUSH2 0xCBF JUMP JUMPDEST AND PUSH1 0x0 MSTORE PUSH1 0x4 PUSH1 0x20 MSTORE PUSH1 0x20 PUSH1 0x1 DUP1 PUSH1 0xA0 SHL SUB PUSH1 0x40 PUSH1 0x0 KECCAK256 SLOAD AND PUSH1 0x40 MLOAD SWAP1 DUP2 MSTORE RETURN JUMPDEST CALLVALUE PUSH2 0x14B JUMPI PUSH1 0x0 CALLDATASIZE PUSH1 0x3 NOT ADD SLT PUSH2 0x14B JUMPI PUSH1 0x20 SWAP1 SELFBALANCE DUP2 MSTORE RETURN JUMPDEST PUSH1 0x4 CALLDATALOAD SWAP1 PUSH4 0xFFFFFFFF DUP3 AND DUP3 SUB PUSH2 0x14B JUMPI JUMP JUMPDEST PUSH1 0x4 CALLDATALOAD SWAP1 PUSH1 0x1 PUSH1 0x1 PUSH1 0x40 SHL SUB DUP3 AND DUP3 SUB PUSH2 0x14B JUMPI JUMP JUMPDEST PUSH1 0x24 CALLDATALOAD SWAP1 PUSH1 0x1 PUSH1 0x1 PUSH1 0xA0 SHL SUB DUP3 AND DUP3 SUB PUSH2 0x14B JUMPI JUMP JUMPDEST SWAP2 DUP2 PUSH1 0x1F DUP5 ADD SLT ISZERO PUSH2 0x14B JUMPI DUP3 CALLDATALOAD SWAP2 PUSH1 0x1 PUSH1 0x1 PUSH1 0x40 SHL SUB DUP4 GT PUSH2 0x14B JUMPI PUSH1 0x20 DUP4 DUP2 DUP7 ADD SWAP6 ADD ADD GT PUSH2 0x14B JUMPI JUMP JUMPDEST PUSH1 0x60 PUSH1 0x3 NOT DUP3 ADD SLT PUSH2 0x14B JUMPI PUSH1 0x4 CALLDATALOAD PUSH4 0xFFFFFFFF DUP2 AND DUP2 SUB PUSH2 0x14B JUMPI SWAP2 PUSH1 0x24 CALLDATALOAD PUSH1 0x1 PUSH1 0x1 PUSH1 0xA0 SHL SUB DUP2 AND DUP2 SUB PUSH2 0x14B JUMPI SWAP2 PUSH1 0x44 CALLDATALOAD SWAP1 PUSH1 0x1 PUSH1 0x1 PUSH1 0x40 SHL SUB DUP3 GT PUSH2 0x14B JUMPI PUSH2 0xD7A SWAP2 PUSH1 0x4 ADD PUSH2 0xCFE JUMP JUMPDEST SWAP1 SWAP2 JUMP JUMPDEST PUSH1 0xA0 DUP2 ADD SWAP1 DUP2 LT PUSH1 0x1 PUSH1 0x1 PUSH1 0x40 SHL SUB DUP3 GT OR PUSH2 0xD99 JUMPI PUSH1 0x40 MSTORE JUMP JUMPDEST PUSH4 0x4E487B71 PUSH1 0xE0 SHL PUSH1 0x0 MSTORE PUSH1 0x41 PUSH1 0x4 MSTORE PUSH1 0x24 PUSH1 0x0 REVERT JUMPDEST SWAP1 PUSH1 0x1F DUP1 NOT SWAP2 ADD AND DUP2 ADD SWAP1 DUP2 LT PUSH1 0x1 PUSH1 0x1 PUSH1 0x40 SHL SUB DUP3 GT OR PUSH2 0xD99 JUMPI PUSH1 0x40 MSTORE JUMP JUMPDEST SWAP3 SWAP2 SWAP3 PUSH1 0x1 PUSH1 0x1 PUSH1 0x40 SHL SUB DUP3 GT PUSH2 0xD99 JUMPI PUSH1 0x40 MLOAD SWAP2 PUSH2 0xDF9 PUSH1 0x1F DUP3 ADD PUSH1 0x1F NOT AND PUSH1 0x20 ADD DUP5 PUSH2 0xDAF JUMP JUMPDEST DUP3 SWAP5 DUP2 DUP5 MSTORE DUP2 DUP4 ADD GT PUSH2 0x14B JUMPI DUP3 DUP2 PUSH1 0x20 SWAP4 DUP5 PUSH1 0x0 SWAP7 ADD CALLDATACOPY ADD ADD MSTORE JUMP JUMPDEST SWAP2 SWAP1 PUSH4 0xFFFFFFFF SWAP1 SWAP5 SWAP4 SWAP5 AND DUP3 MSTORE PUSH1 0x20 DUP3 ADD MSTORE PUSH1 0x60 PUSH1 0x40 DUP3 ADD MSTORE DUP3 MLOAD DUP1 PUSH1 0x60 DUP4 ADD MSTORE PUSH1 0x0 JUMPDEST DUP2 DUP2 LT PUSH2 0xE5C JUMPI POP PUSH1 0x80 SWAP3 SWAP4 POP PUSH1 0x0 DUP4 DUP3 DUP5 ADD ADD MSTORE PUSH1 0x1F DUP1 NOT SWAP2 ADD AND ADD ADD SWAP1 JUMP JUMPDEST DUP1 PUSH1 0x20 DUP1 SWAP3 DUP8 ADD ADD MLOAD PUSH1 0x80 DUP3 DUP7 ADD ADD MSTORE ADD PUSH2 0xE3B JUMP JUMPDEST SWAP1 DUP2 PUSH1 0x20 SWAP2 SUB SLT PUSH2 0x14B JUMPI MLOAD PUSH1 0x1 PUSH1 0x1 PUSH1 0x80 SHL SUB DUP2 AND DUP2 SUB PUSH2 0x14B JUMPI SWAP1 JUMP JUMPDEST SWAP2 SWAP1 DUP3 ADD DUP1 SWAP3 GT PUSH2 0x4A2 JUMPI JUMP JUMPDEST DUP2 MLOAD DUP2 MSTORE PUSH1 0x20 DUP1 DUP4 ADD MLOAD SWAP1 DUP3 ADD MSTORE PUSH1 0x40 DUP1 DUP4 ADD MLOAD PUSH1 0x1 PUSH1 0x1 PUSH1 0x40 SHL SUB AND SWAP1 DUP3 ADD MSTORE PUSH1 0x60 DUP1 DUP4 ADD MLOAD PUSH1 0x1 PUSH1 0x1 PUSH1 0xA0 SHL SUB SWAP1 DUP2 AND SWAP2 DUP4 ADD SWAP2 SWAP1 SWAP2 MSTORE PUSH1 0x80 SWAP3 DUP4 ADD MLOAD AND SWAP2 DUP2 ADD SWAP2 SWAP1 SWAP2 MSTORE PUSH1 0xA0 ADD SWAP1 JUMP JUMPDEST PUSH1 0x0 SLOAD PUSH1 0x1 PUSH1 0x1 PUSH1 0xA0 SHL SUB AND CALLER SUB PUSH2 0xEFF JUMPI JUMP JUMPDEST PUSH4 0x118CDAA7 PUSH1 0xE0 SHL PUSH1 0x0 MSTORE CALLER PUSH1 0x4 MSTORE PUSH1 0x24 PUSH1 0x0 REVERT JUMPDEST PUSH1 0x2 SLOAD PUSH1 0x40 MLOAD PUSH4 0x41025B3D PUSH1 0xE1 SHL DUP2 MSTORE SWAP5 SWAP2 SWAP4 SWAP3 SWAP2 SWAP1 PUSH1 0x1 PUSH1 0x1 PUSH1 0xA0 SHL SUB AND PUSH1 0x20 DUP7 PUSH1 0x4 DUP2 DUP5 GAS STATICCALL SWAP3 DUP4 ISZERO PUSH2 0x25A JUMPI PUSH2 0xFD7 SWAP7 PUSH1 0x0 SWAP5 PUSH2 0x1208 JUMPI JUMPDEST POP PUSH1 0x1 DUP1 PUSH1 0xA0 SHL SUB AND SWAP3 PUSH1 0x20 PUSH2 0xFA1 PUSH2 0xFAF PUSH1 0x40 MLOAD SWAP8 PUSH2 0xF6E DUP10 PUSH2 0xD7E JUMP JUMPDEST PUSH1 0x0 DUP10 MSTORE DUP4 DUP1 DUP11 ADD MSTORE PUSH1 0x0 PUSH1 0x40 DUP11 ADD MSTORE ADDRESS PUSH1 0x60 DUP11 ADD MSTORE PUSH1 0x1 DUP1 PUSH1 0xA0 SHL SUB AND SWAP8 DUP9 PUSH1 0x80 DUP3 ADD MSTORE PUSH1 0x40 MLOAD SWAP3 DUP4 SWAP2 DUP6 DUP4 ADD PUSH2 0xE9E JUMP JUMPDEST SUB PUSH1 0x1F NOT DUP2 ADD DUP4 MSTORE DUP3 PUSH2 0xDAF JUMP JUMPDEST PUSH1 0x1 DUP1 PUSH1 0xA0 SHL SUB PUSH1 0x1 SLOAD AND PUSH1 0x40 MLOAD DUP1 DUP1 SWAP12 DUP2 SWAP5 PUSH4 0x138857A3 PUSH1 0xE3 SHL DUP4 MSTORE DUP11 DUP14 PUSH1 0x4 DUP6 ADD PUSH2 0xE16 JUMP JUMPDEST SUB SWAP2 GAS STATICCALL SWAP7 DUP8 ISZERO PUSH2 0x25A JUMPI PUSH1 0x0 SWAP8 PUSH2 0x11CD JUMPI JUMPDEST POP PUSH1 0x1 PUSH1 0x1 PUSH1 0x80 SHL SUB AND SWAP2 PUSH2 0x100A PUSH2 0x1002 DUP9 DUP6 PUSH2 0xE91 JUMP JUMPDEST SWAP2 SELFBALANCE SWAP1 PUSH2 0xE91 JUMP JUMPDEST LT PUSH2 0x1188 JUMPI PUSH1 0x20 SWAP1 PUSH1 0x4 PUSH1 0x40 MLOAD DUP1 SWAP5 DUP2 SWAP4 PUSH4 0x7B43155D PUSH1 0xE0 SHL DUP4 MSTORE GAS CALL SWAP1 DUP2 ISZERO PUSH2 0x25A JUMPI PUSH1 0x0 SWAP2 PUSH2 0x1122 JUMPI JUMPDEST POP SWAP2 PUSH32 0x251FCD2692E8B1C335006400229B3DD3B45343AEB91AED95FF1820B1EA5BDAA SWAP4 SWAP2 PUSH1 0x80 SWAP4 PUSH1 0x3 PUSH4 0xFFFFFFFF PUSH1 0x40 MLOAD SWAP6 PUSH2 0x1072 DUP8 PUSH2 0xD7E JUMP JUMPDEST AND SWAP5 DUP6 DUP2 MSTORE PUSH1 0x20 DUP2 ADD SWAP9 DUP5 DUP11 MSTORE PUSH1 0x40 DUP3 ADD PUSH1 0x20 DUP2 MSTORE PUSH1 0x60 DUP4 ADD SWAP2 DUP3 MSTORE PUSH1 0x1 PUSH1 0x1 PUSH1 0x40 SHL SUB DUP10 DUP5 ADD SWAP6 DUP9 DUP8 MSTORE AND SWAP11 DUP12 PUSH1 0x0 MSTORE DUP5 PUSH1 0x20 MSTORE PUSH4 0xFFFFFFFF PUSH1 0x40 PUSH1 0x0 KECCAK256 SWAP5 MLOAD AND DUP5 SLOAD SWAP2 PUSH5 0x100000000 PUSH1 0x1 PUSH1 0xC0 SHL SUB SWAP1 MLOAD PUSH1 0x20 SHL AND SWAP2 PUSH1 0x1 PUSH1 0x1 PUSH1 0x40 SHL SUB PUSH1 0xC0 SHL AND OR OR DUP4 SSTORE MLOAD PUSH1 0x1 DUP4 ADD SSTORE MLOAD PUSH1 0x2 DUP3 ADD SSTORE ADD SWAP1 PUSH1 0x1 DUP1 PUSH1 0xA0 SHL SUB SWAP1 MLOAD AND PUSH12 0xFFFFFFFFFFFFFFFFFFFFFFFF PUSH1 0xA0 SHL DUP3 SLOAD AND OR SWAP1 SSTORE PUSH1 0x40 MLOAD SWAP3 DUP4 MSTORE PUSH1 0x20 DUP4 ADD MSTORE PUSH1 0x40 DUP3 ADD MSTORE PUSH1 0x20 PUSH1 0x60 DUP3 ADD MSTORE LOG2 JUMP JUMPDEST PUSH1 0x20 DUP2 RETURNDATASIZE PUSH1 0x20 GT PUSH2 0x1180 JUMPI JUMPDEST DUP2 PUSH2 0x113B PUSH1 0x20 SWAP4 DUP4 PUSH2 0xDAF JUMP JUMPDEST DUP2 ADD SUB SLT PUSH2 0x117C JUMPI MLOAD SWAP1 PUSH1 0x1 PUSH1 0x1 PUSH1 0x40 SHL SUB DUP3 AND DUP3 SUB PUSH2 0x58D JUMPI POP PUSH32 0x251FCD2692E8B1C335006400229B3DD3B45343AEB91AED95FF1820B1EA5BDAA PUSH2 0x1036 JUMP JUMPDEST POP DUP1 REVERT JUMPDEST RETURNDATASIZE SWAP2 POP PUSH2 0x112E JUMP JUMPDEST PUSH1 0x40 MLOAD PUSH3 0x461BCD PUSH1 0xE5 SHL DUP2 MSTORE PUSH1 0x20 PUSH1 0x4 DUP3 ADD MSTORE PUSH1 0x1E PUSH1 0x24 DUP3 ADD MSTORE PUSH32 0x496E73756666696369656E742066756E647320696E20636F6E74726163740000 PUSH1 0x44 DUP3 ADD MSTORE PUSH1 0x64 SWAP1 REVERT JUMPDEST SWAP1 SWAP7 PUSH1 0x20 DUP3 RETURNDATASIZE PUSH1 0x20 GT PUSH2 0x1200 JUMPI JUMPDEST DUP2 PUSH2 0x11E8 PUSH1 0x20 SWAP4 DUP4 PUSH2 0xDAF JUMP JUMPDEST DUP2 ADD SUB SLT PUSH2 0x58D JUMPI POP MLOAD SWAP6 PUSH1 0x1 PUSH1 0x1 PUSH1 0x80 SHL SUB PUSH2 0xFEA JUMP JUMPDEST RETURNDATASIZE SWAP2 POP PUSH2 0x11DB JUMP JUMPDEST PUSH2 0x1222 SWAP2 SWAP5 POP PUSH1 0x20 RETURNDATASIZE PUSH1 0x20 GT PUSH2 0x297 JUMPI PUSH2 0x286 DUP2 DUP4 PUSH2 0xDAF JUMP JUMPDEST SWAP3 CODESIZE PUSH2 0xF4F JUMP INVALID LOG2 PUSH5 0x6970667358 0x22 SLT KECCAK256 DUP16 0x28 0xEA 0xA9 SWAP13 0xB5 SWAP12 0xFB 0xB4 LT 0xC1 0x2B SWAP7 CALLER SSTORE DUP14 PUSH23 0xBEA358ADCA29A7B14EA7BF8F6D696864736F6C63430008 SHR STOP CALLER "
        },
        "methodIdentifiers": {
          "ENTROPY_ADDRESS()": "fbd84123",
          "MAILBOX_ADDRESS()": "b85ec505",
          "_entropyCallback(uint64,address,bytes32)": "52a5f1f8",
          "approvedSenders(uint32)": "30ff6fe7",
          "bytes32ToAddress(bytes32)": "5ced058e",
          "emergencyWithdraw(uint256)": "5312ea8e",
          "entropy()": "47ce07cc",
          "getBalance()": "12065fe0",
          "handle(uint32,bytes32,bytes)": "56d5d475",
          "mailbox()": "d5438eae",
          "owner()": "8da5cb5b",
          "pendingRequests(uint64)": "65b07d58",
          "quoteEntropyRelay(uint32,address)": "f3709157",
          "quoteSendMessage(uint32,address,string)": "55c7eb53",
          "renounceOwnership()": "715018a6",
          "requestAndRelayEntropy(uint32,address)": "df50d66c",
          "sendMessage(uint32,address,string)": "d526a753",
          "transferOwnership(address)": "f2fde38b"
        }
      }
    }
  }
}