{
  "contracts/ExampleEntropyConsumer.sol": {
    "ExampleEntropyConsumer": {
      "abi": [
        {
          "inputs": [
            {
              "internalType": "address",
              "name": "_hyperlaneCelo",
              "type": "address"
            }
          ],
          "stateMutability": "nonpayable",
          "type": "constructor"
        },
        {
          "anonymous": false,
          "inputs": [
            {
              "indexed": false,
              "internalType": "bytes32",
              "name": "randomNumber",
              "type": "bytes32"
            },
            {
              "indexed": false,
              "internalType": "uint64",
              "name": "sequenceNumber",
              "type": "uint64"
            }
          ],
          "name": "EntropyReceived",
          "type": "event"
        },
        {
          "anonymous": false,
          "inputs": [
            {
              "indexed": false,
              "internalType": "uint256",
              "name": "requestNumber",
              "type": "uint256"
            }
          ],
          "name": "EntropyRequested",
          "type": "event"
        },
        {
          "inputs": [],
          "name": "entropyRequestCount",
          "outputs": [
            {
              "internalType": "uint256",
              "name": "",
              "type": "uint256"
            }
          ],
          "stateMutability": "view",
          "type": "function"
        },
        {
          "inputs": [
            {
              "internalType": "uint256",
              "name": "count",
              "type": "uint256"
            },
            {
              "internalType": "uint256",
              "name": "max",
              "type": "uint256"
            }
          ],
          "name": "getMultipleRandom",
          "outputs": [
            {
              "internalType": "uint256[]",
              "name": "",
              "type": "uint256[]"
            }
          ],
          "stateMutability": "view",
          "type": "function"
        },
        {
          "inputs": [
            {
              "internalType": "uint256",
              "name": "max",
              "type": "uint256"
            }
          ],
          "name": "getRandomInRange",
          "outputs": [
            {
              "internalType": "uint256",
              "name": "",
              "type": "uint256"
            }
          ],
          "stateMutability": "view",
          "type": "function"
        },
        {
          "inputs": [],
          "name": "hyperlaneCelo",
          "outputs": [
            {
              "internalType": "address",
              "name": "",
              "type": "address"
            }
          ],
          "stateMutability": "view",
          "type": "function"
        },
        {
          "inputs": [],
          "name": "lastRandomNumber",
          "outputs": [
            {
              "internalType": "bytes32",
              "name": "",
              "type": "bytes32"
            }
          ],
          "stateMutability": "view",
          "type": "function"
        },
        {
          "inputs": [],
          "name": "lastSequenceNumber",
          "outputs": [
            {
              "internalType": "uint64",
              "name": "",
              "type": "uint64"
            }
          ],
          "stateMutability": "view",
          "type": "function"
        },
        {
          "inputs": [
            {
              "internalType": "bytes32",
              "name": "randomNumber",
              "type": "bytes32"
            },
            {
              "internalType": "uint64",
              "name": "sequenceNumber",
              "type": "uint64"
            }
          ],
          "name": "receiveEntropy",
          "outputs": [],
          "stateMutability": "nonpayable",
          "type": "function"
        },
        {
          "inputs": [],
          "name": "requestRandomness",
          "outputs": [],
          "stateMutability": "payable",
          "type": "function"
        },
        {
          "stateMutability": "payable",
          "type": "receive"
        }
      ],
      "evm": {
        "bytecode": {
          "linkReferences": {},
          "object": "608034607057601f61066d38819003918201601f19168301916001600160401b03831184841017607557808492602094604052833981010312607057516001600160a01b03811690819003607057600080546001600160a01b0319169190911790556040516105e1908161008c8239f35b600080fd5b634e487b7160e01b600052604160045260246000fdfe6080604052600436101561001b575b361561001957600080fd5b005b6000803560e01c806316b02374146103a757806319848fca146102d957806321e1ba4e146102bb5780636bdca4571461029d5780636e3910b414610267578063955112cd1461023f578063cf102413146102185763f8413b071461007f575061000e565b80600319360112610215578054604051631f01025b60e11b815291906001600160a01b0316602083600481845afa9283156101965782936101e1575b508234106101a557803b156101a15781839160046040518094819363b13038a160e01b83525af1801561019657610186575b5090600354600019811461017257602060017f6ab4d3605438901c2c16d05ecddf4593282d86ff03bc92289aed71ec7ddb37f9920180600355604051908152a1803411610138575080f35b803403903482116101725782808093819382903414610169575b3390f11561015d5780f35b604051903d90823e3d90fd5b506108fc610152565b634e487b7160e01b83526011600452602483fd5b816101909161053b565b386100ed565b6040513d84823e3d90fd5b5080fd5b60405162461bcd60e51b8152602060048201526014602482015273125b9cdd59999a58da595b9d081c185e5b595b9d60621b6044820152606490fd5b9092506020813d60201161020d575b816101fd6020938361053b565b810103126101a1575191386100bb565b3d91506101f0565b80fd5b5034610215578060031936011261021557546040516001600160a01b039091168152602090f35b5034610215578060031936011261021557602067ffffffffffffffff60025416604051908152f35b503461021557602036600319011261021557602061029560015461028c8115156104ef565b6004359061058b565b604051908152f35b50346102155780600319360112610215576020600354604051908152f35b50346102155780600319360112610215576020600154604051908152f35b50346102155760403660031901126102155760043560243567ffffffffffffffff81168091036103a35782546001600160a01b0316330361035e57816040917f4946a2dc2f59526ac6d17afddcb8b4d272be163508e68bf2052b0f3b0dac6a5a936001558067ffffffffffffffff19600254161760025582519182526020820152a180f35b60405162461bcd60e51b815260206004820152601b60248201527f4f6e6c792048797065726c616e6543656c6f2063616e2063616c6c00000000006044820152606490fd5b8280fd5b5034610215576040366003190112610215576001546024356004356103cd8315156104ef565b600a81116104b1576103de81610573565b916103ec604051938461053b565b8183526103f882610573565b602084019490601f190136863785905b83821061045357868587604051928392602084019060208552518091526040840192915b81811061043a575050500390f35b825184528594506020938401939092019160010161042c565b604051602081019182528260408201526040815261047260608261053b565b51902090610480838361058b565b855182101561049d57600582901b86016020015260010190610408565b634e487b7160e01b88526032600452602488fd5b60405162461bcd60e51b81526020600482015260166024820152754d6178203130206e756d62657273206174206f6e636560501b6044820152606490fd5b156104f657565b60405162461bcd60e51b815260206004820152601760248201527f4e6f20656e74726f7079207265636569766564207965740000000000000000006044820152606490fd5b90601f8019910116810190811067ffffffffffffffff82111761055d57604052565b634e487b7160e01b600052604160045260246000fd5b67ffffffffffffffff811161055d5760051b60200190565b8115610595570690565b634e487b7160e01b600052601260045260246000fdfea264697066735822122079d213a250858b856ee883a1fba5168b2f78f75e898a3fd3fb5f7aa054a5025b64736f6c634300081c0033",
          "opcodes": "PUSH1 0x80 CALLVALUE PUSH1 0x70 JUMPI PUSH1 0x1F PUSH2 0x66D CODESIZE DUP2 SWAP1 SUB SWAP2 DUP3 ADD PUSH1 0x1F NOT AND DUP4 ADD SWAP2 PUSH1 0x1 PUSH1 0x1 PUSH1 0x40 SHL SUB DUP4 GT DUP5 DUP5 LT OR PUSH1 0x75 JUMPI DUP1 DUP5 SWAP3 PUSH1 0x20 SWAP5 PUSH1 0x40 MSTORE DUP4 CODECOPY DUP2 ADD SUB SLT PUSH1 0x70 JUMPI MLOAD PUSH1 0x1 PUSH1 0x1 PUSH1 0xA0 SHL SUB DUP2 AND SWAP1 DUP2 SWAP1 SUB PUSH1 0x70 JUMPI PUSH1 0x0 DUP1 SLOAD PUSH1 0x1 PUSH1 0x1 PUSH1 0xA0 SHL SUB NOT AND SWAP2 SWAP1 SWAP2 OR SWAP1 SSTORE PUSH1 0x40 MLOAD PUSH2 0x5E1 SWAP1 DUP2 PUSH2 0x8C DUP3 CODECOPY RETURN JUMPDEST PUSH1 0x0 DUP1 REVERT JUMPDEST PUSH4 0x4E487B71 PUSH1 0xE0 SHL PUSH1 0x0 MSTORE PUSH1 0x41 PUSH1 0x4 MSTORE PUSH1 0x24 PUSH1 0x0 REVERT INVALID PUSH1 0x80 PUSH1 0x40 MSTORE PUSH1 0x4 CALLDATASIZE LT ISZERO PUSH2 0x1B JUMPI JUMPDEST CALLDATASIZE ISZERO PUSH2 0x19 JUMPI PUSH1 0x0 DUP1 REVERT JUMPDEST STOP JUMPDEST PUSH1 0x0 DUP1 CALLDATALOAD PUSH1 0xE0 SHR DUP1 PUSH4 0x16B02374 EQ PUSH2 0x3A7 JUMPI DUP1 PUSH4 0x19848FCA EQ PUSH2 0x2D9 JUMPI DUP1 PUSH4 0x21E1BA4E EQ PUSH2 0x2BB JUMPI DUP1 PUSH4 0x6BDCA457 EQ PUSH2 0x29D JUMPI DUP1 PUSH4 0x6E3910B4 EQ PUSH2 0x267 JUMPI DUP1 PUSH4 0x955112CD EQ PUSH2 0x23F JUMPI DUP1 PUSH4 0xCF102413 EQ PUSH2 0x218 JUMPI PUSH4 0xF8413B07 EQ PUSH2 0x7F JUMPI POP PUSH2 0xE JUMP JUMPDEST DUP1 PUSH1 0x3 NOT CALLDATASIZE ADD SLT PUSH2 0x215 JUMPI DUP1 SLOAD PUSH1 0x40 MLOAD PUSH4 0x1F01025B PUSH1 0xE1 SHL DUP2 MSTORE SWAP2 SWAP1 PUSH1 0x1 PUSH1 0x1 PUSH1 0xA0 SHL SUB AND PUSH1 0x20 DUP4 PUSH1 0x4 DUP2 DUP5 GAS STATICCALL SWAP3 DUP4 ISZERO PUSH2 0x196 JUMPI DUP3 SWAP4 PUSH2 0x1E1 JUMPI JUMPDEST POP DUP3 CALLVALUE LT PUSH2 0x1A5 JUMPI DUP1 EXTCODESIZE ISZERO PUSH2 0x1A1 JUMPI DUP2 DUP4 SWAP2 PUSH1 0x4 PUSH1 0x40 MLOAD DUP1 SWAP5 DUP2 SWAP4 PUSH4 0xB13038A1 PUSH1 0xE0 SHL DUP4 MSTORE GAS CALL DUP1 ISZERO PUSH2 0x196 JUMPI PUSH2 0x186 JUMPI JUMPDEST POP SWAP1 PUSH1 0x3 SLOAD PUSH1 0x0 NOT DUP2 EQ PUSH2 0x172 JUMPI PUSH1 0x20 PUSH1 0x1 PUSH32 0x6AB4D3605438901C2C16D05ECDDF4593282D86FF03BC92289AED71EC7DDB37F9 SWAP3 ADD DUP1 PUSH1 0x3 SSTORE PUSH1 0x40 MLOAD SWAP1 DUP2 MSTORE LOG1 DUP1 CALLVALUE GT PUSH2 0x138 JUMPI POP DUP1 RETURN JUMPDEST DUP1 CALLVALUE SUB SWAP1 CALLVALUE DUP3 GT PUSH2 0x172 JUMPI DUP3 DUP1 DUP1 SWAP4 DUP2 SWAP4 DUP3 SWAP1 CALLVALUE EQ PUSH2 0x169 JUMPI JUMPDEST CALLER SWAP1 CALL ISZERO PUSH2 0x15D JUMPI DUP1 RETURN JUMPDEST PUSH1 0x40 MLOAD SWAP1 RETURNDATASIZE SWAP1 DUP3 RETURNDATACOPY RETURNDATASIZE SWAP1 REVERT JUMPDEST POP PUSH2 0x8FC PUSH2 0x152 JUMP JUMPDEST PUSH4 0x4E487B71 PUSH1 0xE0 SHL DUP4 MSTORE PUSH1 0x11 PUSH1 0x4 MSTORE PUSH1 0x24 DUP4 REVERT JUMPDEST DUP2 PUSH2 0x190 SWAP2 PUSH2 0x53B JUMP JUMPDEST CODESIZE PUSH2 0xED JUMP JUMPDEST PUSH1 0x40 MLOAD RETURNDATASIZE DUP5 DUP3 RETURNDATACOPY RETURNDATASIZE SWAP1 REVERT JUMPDEST POP DUP1 REVERT JUMPDEST PUSH1 0x40 MLOAD PUSH3 0x461BCD PUSH1 0xE5 SHL DUP2 MSTORE PUSH1 0x20 PUSH1 0x4 DUP3 ADD MSTORE PUSH1 0x14 PUSH1 0x24 DUP3 ADD MSTORE PUSH20 0x125B9CDD59999A58DA595B9D081C185E5B595B9D PUSH1 0x62 SHL PUSH1 0x44 DUP3 ADD MSTORE PUSH1 0x64 SWAP1 REVERT JUMPDEST SWAP1 SWAP3 POP PUSH1 0x20 DUP2 RETURNDATASIZE PUSH1 0x20 GT PUSH2 0x20D JUMPI JUMPDEST DUP2 PUSH2 0x1FD PUSH1 0x20 SWAP4 DUP4 PUSH2 0x53B JUMP JUMPDEST DUP2 ADD SUB SLT PUSH2 0x1A1 JUMPI MLOAD SWAP2 CODESIZE PUSH2 0xBB JUMP JUMPDEST RETURNDATASIZE SWAP2 POP PUSH2 0x1F0 JUMP JUMPDEST DUP1 REVERT JUMPDEST POP CALLVALUE PUSH2 0x215 JUMPI DUP1 PUSH1 0x3 NOT CALLDATASIZE ADD SLT PUSH2 0x215 JUMPI SLOAD PUSH1 0x40 MLOAD PUSH1 0x1 PUSH1 0x1 PUSH1 0xA0 SHL SUB SWAP1 SWAP2 AND DUP2 MSTORE PUSH1 0x20 SWAP1 RETURN JUMPDEST POP CALLVALUE PUSH2 0x215 JUMPI DUP1 PUSH1 0x3 NOT CALLDATASIZE ADD SLT PUSH2 0x215 JUMPI PUSH1 0x20 PUSH8 0xFFFFFFFFFFFFFFFF PUSH1 0x2 SLOAD AND PUSH1 0x40 MLOAD SWAP1 DUP2 MSTORE RETURN JUMPDEST POP CALLVALUE PUSH2 0x215 JUMPI PUSH1 0x20 CALLDATASIZE PUSH1 0x3 NOT ADD SLT PUSH2 0x215 JUMPI PUSH1 0x20 PUSH2 0x295 PUSH1 0x1 SLOAD PUSH2 0x28C DUP2 ISZERO ISZERO PUSH2 0x4EF JUMP JUMPDEST PUSH1 0x4 CALLDATALOAD SWAP1 PUSH2 0x58B JUMP JUMPDEST PUSH1 0x40 MLOAD SWAP1 DUP2 MSTORE RETURN JUMPDEST POP CALLVALUE PUSH2 0x215 JUMPI DUP1 PUSH1 0x3 NOT CALLDATASIZE ADD SLT PUSH2 0x215 JUMPI PUSH1 0x20 PUSH1 0x3 SLOAD PUSH1 0x40 MLOAD SWAP1 DUP2 MSTORE RETURN JUMPDEST POP CALLVALUE PUSH2 0x215 JUMPI DUP1 PUSH1 0x3 NOT CALLDATASIZE ADD SLT PUSH2 0x215 JUMPI PUSH1 0x20 PUSH1 0x1 SLOAD PUSH1 0x40 MLOAD SWAP1 DUP2 MSTORE RETURN JUMPDEST POP CALLVALUE PUSH2 0x215 JUMPI PUSH1 0x40 CALLDATASIZE PUSH1 0x3 NOT ADD SLT PUSH2 0x215 JUMPI PUSH1 0x4 CALLDATALOAD PUSH1 0x24 CALLDATALOAD PUSH8 0xFFFFFFFFFFFFFFFF DUP2 AND DUP1 SWAP2 SUB PUSH2 0x3A3 JUMPI DUP3 SLOAD PUSH1 0x1 PUSH1 0x1 PUSH1 0xA0 SHL SUB AND CALLER SUB PUSH2 0x35E JUMPI DUP2 PUSH1 0x40 SWAP2 PUSH32 0x4946A2DC2F59526AC6D17AFDDCB8B4D272BE163508E68BF2052B0F3B0DAC6A5A SWAP4 PUSH1 0x1 SSTORE DUP1 PUSH8 0xFFFFFFFFFFFFFFFF NOT PUSH1 0x2 SLOAD AND OR PUSH1 0x2 SSTORE DUP3 MLOAD SWAP2 DUP3 MSTORE PUSH1 0x20 DUP3 ADD MSTORE LOG1 DUP1 RETURN JUMPDEST PUSH1 0x40 MLOAD PUSH3 0x461BCD PUSH1 0xE5 SHL DUP2 MSTORE PUSH1 0x20 PUSH1 0x4 DUP3 ADD MSTORE PUSH1 0x1B PUSH1 0x24 DUP3 ADD MSTORE PUSH32 0x4F6E6C792048797065726C616E6543656C6F2063616E2063616C6C0000000000 PUSH1 0x44 DUP3 ADD MSTORE PUSH1 0x64 SWAP1 REVERT JUMPDEST DUP3 DUP1 REVERT JUMPDEST POP CALLVALUE PUSH2 0x215 JUMPI PUSH1 0x40 CALLDATASIZE PUSH1 0x3 NOT ADD SLT PUSH2 0x215 JUMPI PUSH1 0x1 SLOAD PUSH1 0x24 CALLDATALOAD PUSH1 0x4 CALLDATALOAD PUSH2 0x3CD DUP4 ISZERO ISZERO PUSH2 0x4EF JUMP JUMPDEST PUSH1 0xA DUP2 GT PUSH2 0x4B1 JUMPI PUSH2 0x3DE DUP2 PUSH2 0x573 JUMP JUMPDEST SWAP2 PUSH2 0x3EC PUSH1 0x40 MLOAD SWAP4 DUP5 PUSH2 0x53B JUMP JUMPDEST DUP2 DUP4 MSTORE PUSH2 0x3F8 DUP3 PUSH2 0x573 JUMP JUMPDEST PUSH1 0x20 DUP5 ADD SWAP5 SWAP1 PUSH1 0x1F NOT ADD CALLDATASIZE DUP7 CALLDATACOPY DUP6 SWAP1 JUMPDEST DUP4 DUP3 LT PUSH2 0x453 JUMPI DUP7 DUP6 DUP8 PUSH1 0x40 MLOAD SWAP3 DUP4 SWAP3 PUSH1 0x20 DUP5 ADD SWAP1 PUSH1 0x20 DUP6 MSTORE MLOAD DUP1 SWAP2 MSTORE PUSH1 0x40 DUP5 ADD SWAP3 SWAP2 JUMPDEST DUP2 DUP2 LT PUSH2 0x43A JUMPI POP POP POP SUB SWAP1 RETURN JUMPDEST DUP3 MLOAD DUP5 MSTORE DUP6 SWAP5 POP PUSH1 0x20 SWAP4 DUP5 ADD SWAP4 SWAP1 SWAP3 ADD SWAP2 PUSH1 0x1 ADD PUSH2 0x42C JUMP JUMPDEST PUSH1 0x40 MLOAD PUSH1 0x20 DUP2 ADD SWAP2 DUP3 MSTORE DUP3 PUSH1 0x40 DUP3 ADD MSTORE PUSH1 0x40 DUP2 MSTORE PUSH2 0x472 PUSH1 0x60 DUP3 PUSH2 0x53B JUMP JUMPDEST MLOAD SWAP1 KECCAK256 SWAP1 PUSH2 0x480 DUP4 DUP4 PUSH2 0x58B JUMP JUMPDEST DUP6 MLOAD DUP3 LT ISZERO PUSH2 0x49D JUMPI PUSH1 0x5 DUP3 SWAP1 SHL DUP7 ADD PUSH1 0x20 ADD MSTORE PUSH1 0x1 ADD SWAP1 PUSH2 0x408 JUMP JUMPDEST PUSH4 0x4E487B71 PUSH1 0xE0 SHL DUP9 MSTORE PUSH1 0x32 PUSH1 0x4 MSTORE PUSH1 0x24 DUP9 REVERT JUMPDEST PUSH1 0x40 MLOAD PUSH3 0x461BCD PUSH1 0xE5 SHL DUP2 MSTORE PUSH1 0x20 PUSH1 0x4 DUP3 ADD MSTORE PUSH1 0x16 PUSH1 0x24 DUP3 ADD MSTORE PUSH22 0x4D6178203130206E756D62657273206174206F6E6365 PUSH1 0x50 SHL PUSH1 0x44 DUP3 ADD MSTORE PUSH1 0x64 SWAP1 REVERT JUMPDEST ISZERO PUSH2 0x4F6 JUMPI JUMP JUMPDEST PUSH1 0x40 MLOAD PUSH3 0x461BCD PUSH1 0xE5 SHL DUP2 MSTORE PUSH1 0x20 PUSH1 0x4 DUP3 ADD MSTORE PUSH1 0x17 PUSH1 0x24 DUP3 ADD MSTORE PUSH32 0x4E6F20656E74726F707920726563656976656420796574000000000000000000 PUSH1 0x44 DUP3 ADD MSTORE PUSH1 0x64 SWAP1 REVERT JUMPDEST SWAP1 PUSH1 0x1F DUP1 NOT SWAP2 ADD AND DUP2 ADD SWAP1 DUP2 LT PUSH8 0xFFFFFFFFFFFFFFFF DUP3 GT OR PUSH2 0x55D JUMPI PUSH1 0x40 MSTORE JUMP JUMPDEST PUSH4 0x4E487B71 PUSH1 0xE0 SHL PUSH1 0x0 MSTORE PUSH1 0x41 PUSH1 0x4 MSTORE PUSH1 0x24 PUSH1 0x0 REVERT JUMPDEST PUSH8 0xFFFFFFFFFFFFFFFF DUP2 GT PUSH2 0x55D JUMPI PUSH1 0x5 SHL PUSH1 0x20 ADD SWAP1 JUMP JUMPDEST DUP2 ISZERO PUSH2 0x595 JUMPI MOD SWAP1 JUMP JUMPDEST PUSH4 0x4E487B71 PUSH1 0xE0 SHL PUSH1 0x0 MSTORE PUSH1 0x12 PUSH1 0x4 MSTORE PUSH1 0x24 PUSH1 0x0 REVERT INVALID LOG2 PUSH5 0x6970667358 0x22 SLT KECCAK256 PUSH26 0xD213A250858B856EE883A1FBA5168B2F78F75E898A3FD3FB5F7A LOG0 SLOAD 0xA5 MUL JUMPDEST PUSH5 0x736F6C6343 STOP ADDMOD SHR STOP CALLER "
        },
        "methodIdentifiers": {
          "entropyRequestCount()": "6bdca457",
          "getMultipleRandom(uint256,uint256)": "16b02374",
          "getRandomInRange(uint256)": "6e3910b4",
          "hyperlaneCelo()": "cf102413",
          "lastRandomNumber()": "21e1ba4e",
          "lastSequenceNumber()": "955112cd",
          "receiveEntropy(bytes32,uint64)": "19848fca",
          "requestRandomness()": "f8413b07"
        }
      }
    }
  }
}