{
  "contracts/HyperlaneCelo.sol": {
    "HyperlaneCelo": {
      "abi": [
        {
          "inputs": [
            {
              "internalType": "uint32",
              "name": "_sourceDomain",
              "type": "uint32"
            },
            {
              "internalType": "address",
              "name": "_sourceContract",
              "type": "address"
            }
          ],
          "stateMutability": "nonpayable",
          "type": "constructor"
        },
        {
          "inputs": [
            {
              "internalType": "address",
              "name": "owner",
              "type": "address"
            }
          ],
          "name": "OwnableInvalidOwner",
          "type": "error"
        },
        {
          "inputs": [
            {
              "internalType": "address",
              "name": "account",
              "type": "address"
            }
          ],
          "name": "OwnableUnauthorizedAccount",
          "type": "error"
        },
        {
          "anonymous": false,
          "inputs": [
            {
              "indexed": true,
              "internalType": "address",
              "name": "oldRequester",
              "type": "address"
            },
            {
              "indexed": true,
              "internalType": "address",
              "name": "newRequester",
              "type": "address"
            }
          ],
          "name": "AllowedRequesterUpdated",
          "type": "event"
        },
        {
          "anonymous": false,
          "inputs": [
            {
              "indexed": true,
              "internalType": "address",
              "name": "requester",
              "type": "address"
            },
            {
              "indexed": false,
              "internalType": "bytes",
              "name": "reason",
              "type": "bytes"
            }
          ],
          "name": "EntropyCallbackFailed",
          "type": "event"
        },
        {
          "anonymous": false,
          "inputs": [
            {
              "indexed": true,
              "internalType": "address",
              "name": "requester",
              "type": "address"
            },
            {
              "indexed": false,
              "internalType": "bytes32",
              "name": "randomNumber",
              "type": "bytes32"
            },
            {
              "indexed": false,
              "internalType": "uint64",
              "name": "sequenceNumber",
              "type": "uint64"
            }
          ],
          "name": "EntropyCallbackSent",
          "type": "event"
        },
        {
          "anonymous": false,
          "inputs": [
            {
              "indexed": true,
              "internalType": "address",
              "name": "requester",
              "type": "address"
            },
            {
              "indexed": false,
              "internalType": "bytes32",
              "name": "messageId",
              "type": "bytes32"
            }
          ],
          "name": "EntropyRequested",
          "type": "event"
        },
        {
          "anonymous": false,
          "inputs": [
            {
              "indexed": true,
              "internalType": "address",
              "name": "previousOwner",
              "type": "address"
            },
            {
              "indexed": true,
              "internalType": "address",
              "name": "newOwner",
              "type": "address"
            }
          ],
          "name": "OwnershipTransferred",
          "type": "event"
        },
        {
          "anonymous": false,
          "inputs": [
            {
              "indexed": true,
              "internalType": "uint32",
              "name": "origin",
              "type": "uint32"
            },
            {
              "indexed": true,
              "internalType": "address",
              "name": "sender",
              "type": "address"
            },
            {
              "indexed": false,
              "internalType": "bytes32",
              "name": "randomNumber",
              "type": "bytes32"
            },
            {
              "indexed": false,
              "internalType": "uint256",
              "name": "entropyLength",
              "type": "uint256"
            },
            {
              "indexed": false,
              "internalType": "uint64",
              "name": "sequenceNumber",
              "type": "uint64"
            },
            {
              "indexed": false,
              "internalType": "address",
              "name": "sourceContract",
              "type": "address"
            },
            {
              "indexed": false,
              "internalType": "address",
              "name": "requester",
              "type": "address"
            }
          ],
          "name": "ReceivedMessage",
          "type": "event"
        },
        {
          "anonymous": false,
          "inputs": [
            {
              "indexed": false,
              "internalType": "uint32",
              "name": "sourceDomain",
              "type": "uint32"
            },
            {
              "indexed": false,
              "internalType": "address",
              "name": "sourceContract",
              "type": "address"
            }
          ],
          "name": "SourceConfigUpdated",
          "type": "event"
        },
        {
          "inputs": [],
          "name": "MAILBOX_ADDRESS",
          "outputs": [
            {
              "internalType": "address",
              "name": "",
              "type": "address"
            }
          ],
          "stateMutability": "view",
          "type": "function"
        },
        {
          "inputs": [],
          "name": "allowedRequester",
          "outputs": [
            {
              "internalType": "address",
              "name": "",
              "type": "address"
            }
          ],
          "stateMutability": "view",
          "type": "function"
        },
        {
          "inputs": [
            {
              "internalType": "uint32",
              "name": "_origin",
              "type": "uint32"
            },
            {
              "internalType": "bytes32",
              "name": "_sender",
              "type": "bytes32"
            },
            {
              "internalType": "bytes",
              "name": "_messageBody",
              "type": "bytes"
            }
          ],
          "name": "handle",
          "outputs": [],
          "stateMutability": "nonpayable",
          "type": "function"
        },
        {
          "inputs": [],
          "name": "lastEntropyData",
          "outputs": [
            {
              "internalType": "bytes32",
              "name": "randomNumber",
              "type": "bytes32"
            },
            {
              "internalType": "uint256",
              "name": "entropyLength",
              "type": "uint256"
            },
            {
              "internalType": "uint64",
              "name": "sequenceNumber",
              "type": "uint64"
            },
            {
              "internalType": "address",
              "name": "sourceContract",
              "type": "address"
            },
            {
              "internalType": "address",
              "name": "requester",
              "type": "address"
            }
          ],
          "stateMutability": "view",
          "type": "function"
        },
        {
          "inputs": [],
          "name": "lastOriginDomain",
          "outputs": [
            {
              "internalType": "uint32",
              "name": "",
              "type": "uint32"
            }
          ],
          "stateMutability": "view",
          "type": "function"
        },
        {
          "inputs": [],
          "name": "lastSender",
          "outputs": [
            {
              "internalType": "address",
              "name": "",
              "type": "address"
            }
          ],
          "stateMutability": "view",
          "type": "function"
        },
        {
          "inputs": [],
          "name": "mailbox",
          "outputs": [
            {
              "internalType": "contract IMailbox",
              "name": "",
              "type": "address"
            }
          ],
          "stateMutability": "view",
          "type": "function"
        },
        {
          "inputs": [],
          "name": "owner",
          "outputs": [
            {
              "internalType": "address",
              "name": "",
              "type": "address"
            }
          ],
          "stateMutability": "view",
          "type": "function"
        },
        {
          "inputs": [],
          "name": "quoteRequestEntropy",
          "outputs": [
            {
              "internalType": "uint256",
              "name": "",
              "type": "uint256"
            }
          ],
          "stateMutability": "view",
          "type": "function"
        },
        {
          "inputs": [],
          "name": "renounceOwnership",
          "outputs": [],
          "stateMutability": "nonpayable",
          "type": "function"
        },
        {
          "inputs": [],
          "name": "requestEntropy",
          "outputs": [],
          "stateMutability": "payable",
          "type": "function"
        },
        {
          "inputs": [
            {
              "internalType": "address",
              "name": "_allowedRequester",
              "type": "address"
            }
          ],
          "name": "setAllowedRequester",
          "outputs": [],
          "stateMutability": "nonpayable",
          "type": "function"
        },
        {
          "inputs": [
            {
              "internalType": "uint32",
              "name": "_sourceDomain",
              "type": "uint32"
            },
            {
              "internalType": "address",
              "name": "_sourceContract",
              "type": "address"
            }
          ],
          "name": "setSourceConfig",
          "outputs": [],
          "stateMutability": "nonpayable",
          "type": "function"
        },
        {
          "inputs": [],
          "name": "sourceContract",
          "outputs": [
            {
              "internalType": "address",
              "name": "",
              "type": "address"
            }
          ],
          "stateMutability": "view",
          "type": "function"
        },
        {
          "inputs": [],
          "name": "sourceDomain",
          "outputs": [
            {
              "internalType": "uint32",
              "name": "",
              "type": "uint32"
            }
          ],
          "stateMutability": "view",
          "type": "function"
        },
        {
          "inputs": [
            {
              "internalType": "address",
              "name": "newOwner",
              "type": "address"
            }
          ],
          "name": "transferOwnership",
          "outputs": [],
          "stateMutability": "nonpayable",
          "type": "function"
        }
      ],
      "evm": {
        "bytecode": {
          "linkReferences": {},
          "object": "60803461012457601f610ea238819003918201601f19168301916001600160401b038311848410176101295780849260409485528339810103126101245780519063ffffffff8216820361012457602001516001600160a01b0381169081900361012457331561010e5760008054336001600160a01b0319821681178355604051947350da3b3907a08a24fe4999f4dcf337e8dc7954bb9390926001600160a01b0316907f8be0079c531659141344cd1fd0a4f28419497f9722a3daafe3b4186f6b6457e09080a3600180546001600160c01b03191660a09290921b63ffffffff60a01b1691909117919091179055600280546001600160a01b031916919091179055610d6290816101408239f35b631e4fbdf760e01b600052600060045260246000fd5b600080fd5b634e487b7160e01b600052604160045260246000fdfe608080604052600436101561001357600080fd5b600090813560e01c908163256fec8814610b73575080633e0204b614610a8c57806356d5d475146106c15780636af0933714610698578063715018a61461063e57806377cbf812146106175780638da5cb5b146105f05780638ddb4a89146105c9578063a444ae41146105a0578063b13038a11461031b578063b85ec505146102ec578063bf4d040714610294578063c10af2c9146101ed578063c641956a14610182578063d5438eae146101595763f2fde38b146100d157600080fd5b34610156576020366003190112610156576100ea610bab565b6100f2610d03565b6001600160a01b031680156101425781546001600160a01b03198116821783556001600160a01b03167f8be0079c531659141344cd1fd0a4f28419497f9722a3daafe3b4186f6b6457e08380a380f35b631e4fbdf760e01b82526004829052602482fd5b80fd5b50346101565780600319360112610156576001546040516001600160a01b039091168152602090f35b50346101565760203660031901126101565761019c610bab565b6101a4610d03565b600380546001600160a01b039283166001600160a01b0319821681179092559091167f74a9e622229e0782adaaa880f3c049f138fe3e12acf61baeefeaeb2c9df8e0698380a380f35b503461015657604036600319011261015657610207610b98565b6024356001600160a01b03811690819003610290577f92c6a25854524e46cfe92eb9509b25e079b44ee10690e5c94355f2e961330bd191604091610249610d03565b6001805463ffffffff60a01b191660a084901b63ffffffff60a01b16179055600280546001600160a01b03191682179055825163ffffffff9290921682526020820152a180f35b8280fd5b503461015657806003193601126101565760045460055460065460075460408051948552602085019390935267ffffffffffffffff821684840152911c6001600160a01b03908116606084015216608082015260a090f35b503461015657806003193601126101565760206040517350da3b3907a08a24fe4999f4dcf337e8dc7954bb8152f35b5080600319360112610156576003546001600160a01b0316330361055b576002546001600160a01b0316610350811515610bd5565b6001549063ffffffff8260a01c16610369811515610c21565b6040519233602085015260208452610382604085610c65565b60405163138857a360e31b815293906001600160a01b0316602085806103ad85888860048501610cde565b0381845afa948515610550578695610517575b508434106104c2576103ed93856020946040519687958694859363fa31de0160e01b855260048501610cde565b03925af19081156104b7578391610485575b506040519081527fac4ae69f511acc783878d50744bf46aea0c8fb0f3b06a55bbafdf73b7e8a238b60203392a2803411610437575080f35b803403903482116104715782808093819382903414610468575b3390f11561045c5780f35b604051903d90823e3d90fd5b506108fc610451565b634e487b7160e01b83526011600452602483fd5b90506020813d6020116104af575b816104a060209383610c65565b810103126102905751386103ff565b3d9150610493565b6040513d85823e3d90fd5b60405162461bcd60e51b815260206004820152602760248201527f496e73756666696369656e74207061796d656e7420666f7220696e746572636860448201526661696e2067617360c81b6064820152608490fd5b9094506020813d602011610548575b8161053360209383610c65565b81010312610543575193386103c0565b600080fd5b3d9150610526565b6040513d88823e3d90fd5b60405162461bcd60e51b815260206004820152601f60248201527f4f6e6c7920616c6c6f776564207265717565737465722063616e2063616c6c006044820152606490fd5b50346101565780600319360112610156576002546040516001600160a01b039091168152602090f35b5034610156578060031936011261015657602063ffffffff60015460a01c16604051908152f35b5034610156578060031936011261015657546040516001600160a01b039091168152602090f35b5034610156578060031936011261015657602063ffffffff60085460a01c16604051908152f35b5034610156578060031936011261015657610657610d03565b80546001600160a01b03198116825581906001600160a01b03167f8be0079c531659141344cd1fd0a4f28419497f9722a3daafe3b4186f6b6457e08280a380f35b50346101565780600319360112610156576003546040516001600160a01b039091168152602090f35b5034610156576060366003190112610156576106db610b98565b6044359067ffffffffffffffff8211610290573660238301121561029057816004013567ffffffffffffffff8111610a88578201366024820111610a88577350da3b3907a08a24fe4999f4dcf337e8dc7954bb3303610a4b5760a09083900312610290576040519060a0820182811067ffffffffffffffff821117610a3757604052602483013580835260448401359384602085015260648101359267ffffffffffffffff841695868503610a33577ff198dcef1104a41fff43a53752bbc93214a03abbd7b3d3edff3cea3a4feb447c9161089363ffffffff92604089019788526107da60a46107cd60848901610bc1565b978860608d015201610bc1565b60808a810182815260048a905560058490556006805460e089901b168e1760408b811b68010000000000000000600160e01b031691909117909155600780546001600160a01b0319166001600160a01b03958616908117909155600880546001600160c01b031916602435871690811799909a1660a081811b9a909a1790915582519c8d5260208d019690965267ffffffffffffffff909e16908b01529790911660608901528701999099529397919491938291820190565b0390a382516001600160a01b0316803b6108ab578480f35b8483519167ffffffffffffffff84511690803b1561029057604051630cc247e560e11b8152600481019490945267ffffffffffffffff9190911660248401528290604490829084905af19081610a1f575b506109cc5750503d156109a0573d9067ffffffffffffffff821161098c576109807f337b251f7d34d96560f7fd33e148f1380bed7a7feef37a1366e6cf004c6fb02291604051936109576020601f19601f8401160186610c65565b84523d85602086013e5b60018060a01b0390511692604051918291602083526020830190610c9d565b0390a25b388080808480f35b634e487b7160e01b83526041600452602483fd5b7f337b251f7d34d96560f7fd33e148f1380bed7a7feef37a1366e6cf004c6fb022610980606092610961565b9151905191516040805193845267ffffffffffffffff90911660208401526001600160a01b03909116917ffefdcdad2593caccc74be409f7d2a7b61448a7650c8e79477ae9abc21d1d2e9b9190a2610984565b85610a2c91969296610c65565b93386108fc565b8780fd5b634e487b7160e01b85526041600452602485fd5b60405162461bcd60e51b815260206004820152601560248201527413db9b1e4813585a5b189bde0818d85b8818d85b1b605a1b6044820152606490fd5b8380fd5b5034610156578060031936011261015657600254610b08906020906001600160a01b0316610abb811515610bd5565b60015463ffffffff8160a01c1691610ad4831515610c21565b604051923385850152848452610aeb604085610c65565b60405163138857a360e31b81529586948593849360048501610cde565b03916001600160a01b03165afa908115610b68578291610b2e575b602082604051908152f35b90506020813d602011610b60575b81610b4960209383610c65565b81010312610b5c57602091505138610b23565b5080fd5b3d9150610b3c565b6040513d84823e3d90fd5b905034610b5c5781600319360112610b5c576008546001600160a01b03168152602090f35b6004359063ffffffff8216820361054357565b600435906001600160a01b038216820361054357565b35906001600160a01b038216820361054357565b15610bdc57565b60405162461bcd60e51b815260206004820152601760248201527f536f7572636520636f6e7472616374206e6f74207365740000000000000000006044820152606490fd5b15610c2857565b60405162461bcd60e51b815260206004820152601560248201527414dbdd5c98d948191bdb585a5b881b9bdd081cd95d605a1b6044820152606490fd5b90601f8019910116810190811067ffffffffffffffff821117610c8757604052565b634e487b7160e01b600052604160045260246000fd5b919082519283825260005b848110610cc9575050826000602080949584010152601f8019910116010190565b80602080928401015182828601015201610ca8565b610d00939263ffffffff60609316825260208201528160408201520190610c9d565b90565b6000546001600160a01b03163303610d1757565b63118cdaa760e01b6000523360045260246000fdfea264697066735822122068d9d08acaf769f29d796b3dda6ad557d4ce008d875e514444fe1c01a3dc467a64736f6c634300081c0033",
          "opcodes": "PUSH1 0x80 CALLVALUE PUSH2 0x124 JUMPI PUSH1 0x1F PUSH2 0xEA2 CODESIZE DUP2 SWAP1 SUB SWAP2 DUP3 ADD PUSH1 0x1F NOT AND DUP4 ADD SWAP2 PUSH1 0x1 PUSH1 0x1 PUSH1 0x40 SHL SUB DUP4 GT DUP5 DUP5 LT OR PUSH2 0x129 JUMPI DUP1 DUP5 SWAP3 PUSH1 0x40 SWAP5 DUP6 MSTORE DUP4 CODECOPY DUP2 ADD SUB SLT PUSH2 0x124 JUMPI DUP1 MLOAD SWAP1 PUSH4 0xFFFFFFFF DUP3 AND DUP3 SUB PUSH2 0x124 JUMPI PUSH1 0x20 ADD MLOAD PUSH1 0x1 PUSH1 0x1 PUSH1 0xA0 SHL SUB DUP2 AND SWAP1 DUP2 SWAP1 SUB PUSH2 0x124 JUMPI CALLER ISZERO PUSH2 0x10E JUMPI PUSH1 0x0 DUP1 SLOAD CALLER PUSH1 0x1 PUSH1 0x1 PUSH1 0xA0 SHL SUB NOT DUP3 AND DUP2 OR DUP4 SSTORE PUSH1 0x40 MLOAD SWAP5 PUSH20 0x50DA3B3907A08A24FE4999F4DCF337E8DC7954BB SWAP4 SWAP1 SWAP3 PUSH1 0x1 PUSH1 0x1 PUSH1 0xA0 SHL SUB AND SWAP1 PUSH32 0x8BE0079C531659141344CD1FD0A4F28419497F9722A3DAAFE3B4186F6B6457E0 SWAP1 DUP1 LOG3 PUSH1 0x1 DUP1 SLOAD PUSH1 0x1 PUSH1 0x1 PUSH1 0xC0 SHL SUB NOT AND PUSH1 0xA0 SWAP3 SWAP1 SWAP3 SHL PUSH4 0xFFFFFFFF PUSH1 0xA0 SHL AND SWAP2 SWAP1 SWAP2 OR SWAP2 SWAP1 SWAP2 OR SWAP1 SSTORE PUSH1 0x2 DUP1 SLOAD PUSH1 0x1 PUSH1 0x1 PUSH1 0xA0 SHL SUB NOT AND SWAP2 SWAP1 SWAP2 OR SWAP1 SSTORE PUSH2 0xD62 SWAP1 DUP2 PUSH2 0x140 DUP3 CODECOPY RETURN JUMPDEST PUSH4 0x1E4FBDF7 PUSH1 0xE0 SHL PUSH1 0x0 MSTORE PUSH1 0x0 PUSH1 0x4 MSTORE PUSH1 0x24 PUSH1 0x0 REVERT JUMPDEST PUSH1 0x0 DUP1 REVERT JUMPDEST PUSH4 0x4E487B71 PUSH1 0xE0 SHL PUSH1 0x0 MSTORE PUSH1 0x41 PUSH1 0x4 MSTORE PUSH1 0x24 PUSH1 0x0 REVERT INVALID PUSH1 0x80 DUP1 PUSH1 0x40 MSTORE PUSH1 0x4 CALLDATASIZE LT ISZERO PUSH2 0x13 JUMPI PUSH1 0x0 DUP1 REVERT JUMPDEST PUSH1 0x0 SWAP1 DUP2 CALLDATALOAD PUSH1 0xE0 SHR SWAP1 DUP2 PUSH4 0x256FEC88 EQ PUSH2 0xB73 JUMPI POP DUP1 PUSH4 0x3E0204B6 EQ PUSH2 0xA8C JUMPI DUP1 PUSH4 0x56D5D475 EQ PUSH2 0x6C1 JUMPI DUP1 PUSH4 0x6AF09337 EQ PUSH2 0x698 JUMPI DUP1 PUSH4 0x715018A6 EQ PUSH2 0x63E JUMPI DUP1 PUSH4 0x77CBF812 EQ PUSH2 0x617 JUMPI DUP1 PUSH4 0x8DA5CB5B EQ PUSH2 0x5F0 JUMPI DUP1 PUSH4 0x8DDB4A89 EQ PUSH2 0x5C9 JUMPI DUP1 PUSH4 0xA444AE41 EQ PUSH2 0x5A0 JUMPI DUP1 PUSH4 0xB13038A1 EQ PUSH2 0x31B JUMPI DUP1 PUSH4 0xB85EC505 EQ PUSH2 0x2EC JUMPI DUP1 PUSH4 0xBF4D0407 EQ PUSH2 0x294 JUMPI DUP1 PUSH4 0xC10AF2C9 EQ PUSH2 0x1ED JUMPI DUP1 PUSH4 0xC641956A EQ PUSH2 0x182 JUMPI DUP1 PUSH4 0xD5438EAE EQ PUSH2 0x159 JUMPI PUSH4 0xF2FDE38B EQ PUSH2 0xD1 JUMPI PUSH1 0x0 DUP1 REVERT JUMPDEST CALLVALUE PUSH2 0x156 JUMPI PUSH1 0x20 CALLDATASIZE PUSH1 0x3 NOT ADD SLT PUSH2 0x156 JUMPI PUSH2 0xEA PUSH2 0xBAB JUMP JUMPDEST PUSH2 0xF2 PUSH2 0xD03 JUMP JUMPDEST PUSH1 0x1 PUSH1 0x1 PUSH1 0xA0 SHL SUB AND DUP1 ISZERO PUSH2 0x142 JUMPI DUP2 SLOAD PUSH1 0x1 PUSH1 0x1 PUSH1 0xA0 SHL SUB NOT DUP2 AND DUP3 OR DUP4 SSTORE PUSH1 0x1 PUSH1 0x1 PUSH1 0xA0 SHL SUB AND PUSH32 0x8BE0079C531659141344CD1FD0A4F28419497F9722A3DAAFE3B4186F6B6457E0 DUP4 DUP1 LOG3 DUP1 RETURN JUMPDEST PUSH4 0x1E4FBDF7 PUSH1 0xE0 SHL DUP3 MSTORE PUSH1 0x4 DUP3 SWAP1 MSTORE PUSH1 0x24 DUP3 REVERT JUMPDEST DUP1 REVERT JUMPDEST POP CALLVALUE PUSH2 0x156 JUMPI DUP1 PUSH1 0x3 NOT CALLDATASIZE ADD SLT PUSH2 0x156 JUMPI PUSH1 0x1 SLOAD PUSH1 0x40 MLOAD PUSH1 0x1 PUSH1 0x1 PUSH1 0xA0 SHL SUB SWAP1 SWAP2 AND DUP2 MSTORE PUSH1 0x20 SWAP1 RETURN JUMPDEST POP CALLVALUE PUSH2 0x156 JUMPI PUSH1 0x20 CALLDATASIZE PUSH1 0x3 NOT ADD SLT PUSH2 0x156 JUMPI PUSH2 0x19C PUSH2 0xBAB JUMP JUMPDEST PUSH2 0x1A4 PUSH2 0xD03 JUMP JUMPDEST PUSH1 0x3 DUP1 SLOAD PUSH1 0x1 PUSH1 0x1 PUSH1 0xA0 SHL SUB SWAP3 DUP4 AND PUSH1 0x1 PUSH1 0x1 PUSH1 0xA0 SHL SUB NOT DUP3 AND DUP2 OR SWAP1 SWAP3 SSTORE SWAP1 SWAP2 AND PUSH32 0x74A9E622229E0782ADAAA880F3C049F138FE3E12ACF61BAEEFEAEB2C9DF8E069 DUP4 DUP1 LOG3 DUP1 RETURN JUMPDEST POP CALLVALUE PUSH2 0x156 JUMPI PUSH1 0x40 CALLDATASIZE PUSH1 0x3 NOT ADD SLT PUSH2 0x156 JUMPI PUSH2 0x207 PUSH2 0xB98 JUMP JUMPDEST PUSH1 0x24 CALLDATALOAD PUSH1 0x1 PUSH1 0x1 PUSH1 0xA0 SHL SUB DUP2 AND SWAP1 DUP2 SWAP1 SUB PUSH2 0x290 JUMPI PUSH32 0x92C6A25854524E46CFE92EB9509B25E079B44EE10690E5C94355F2E961330BD1 SWAP2 PUSH1 0x40 SWAP2 PUSH2 0x249 PUSH2 0xD03 JUMP JUMPDEST PUSH1 0x1 DUP1 SLOAD PUSH4 0xFFFFFFFF PUSH1 0xA0 SHL NOT AND PUSH1 0xA0 DUP5 SWAP1 SHL PUSH4 0xFFFFFFFF PUSH1 0xA0 SHL AND OR SWAP1 SSTORE PUSH1 0x2 DUP1 SLOAD PUSH1 0x1 PUSH1 0x1 PUSH1 0xA0 SHL SUB NOT AND DUP3 OR SWAP1 SSTORE DUP3 MLOAD PUSH4 0xFFFFFFFF SWAP3 SWAP1 SWAP3 AND DUP3 MSTORE PUSH1 0x20 DUP3 ADD MSTORE LOG1 DUP1 RETURN JUMPDEST DUP3 DUP1 REVERT JUMPDEST POP CALLVALUE PUSH2 0x156 JUMPI DUP1 PUSH1 0x3 NOT CALLDATASIZE ADD SLT PUSH2 0x156 JUMPI PUSH1 0x4 SLOAD PUSH1 0x5 SLOAD PUSH1 0x6 SLOAD PUSH1 0x7 SLOAD PUSH1 0x40 DUP1 MLOAD SWAP5 DUP6 MSTORE PUSH1 0x20 DUP6 ADD SWAP4 SWAP1 SWAP4 MSTORE PUSH8 0xFFFFFFFFFFFFFFFF DUP3 AND DUP5 DUP5 ADD MSTORE SWAP2 SHR PUSH1 0x1 PUSH1 0x1 PUSH1 0xA0 SHL SUB SWAP1 DUP2 AND PUSH1 0x60 DUP5 ADD MSTORE AND PUSH1 0x80 DUP3 ADD MSTORE PUSH1 0xA0 SWAP1 RETURN JUMPDEST POP CALLVALUE PUSH2 0x156 JUMPI DUP1 PUSH1 0x3 NOT CALLDATASIZE ADD SLT PUSH2 0x156 JUMPI PUSH1 0x20 PUSH1 0x40 MLOAD PUSH20 0x50DA3B3907A08A24FE4999F4DCF337E8DC7954BB DUP2 MSTORE RETURN JUMPDEST POP DUP1 PUSH1 0x3 NOT CALLDATASIZE ADD SLT PUSH2 0x156 JUMPI PUSH1 0x3 SLOAD PUSH1 0x1 PUSH1 0x1 PUSH1 0xA0 SHL SUB AND CALLER SUB PUSH2 0x55B JUMPI PUSH1 0x2 SLOAD PUSH1 0x1 PUSH1 0x1 PUSH1 0xA0 SHL SUB AND PUSH2 0x350 DUP2 ISZERO ISZERO PUSH2 0xBD5 JUMP JUMPDEST PUSH1 0x1 SLOAD SWAP1 PUSH4 0xFFFFFFFF DUP3 PUSH1 0xA0 SHR AND PUSH2 0x369 DUP2 ISZERO ISZERO PUSH2 0xC21 JUMP JUMPDEST PUSH1 0x40 MLOAD SWAP3 CALLER PUSH1 0x20 DUP6 ADD MSTORE PUSH1 0x20 DUP5 MSTORE PUSH2 0x382 PUSH1 0x40 DUP6 PUSH2 0xC65 JUMP JUMPDEST PUSH1 0x40 MLOAD PUSH4 0x138857A3 PUSH1 0xE3 SHL DUP2 MSTORE SWAP4 SWAP1 PUSH1 0x1 PUSH1 0x1 PUSH1 0xA0 SHL SUB AND PUSH1 0x20 DUP6 DUP1 PUSH2 0x3AD DUP6 DUP9 DUP9 PUSH1 0x4 DUP6 ADD PUSH2 0xCDE JUMP JUMPDEST SUB DUP2 DUP5 GAS STATICCALL SWAP5 DUP6 ISZERO PUSH2 0x550 JUMPI DUP7 SWAP6 PUSH2 0x517 JUMPI JUMPDEST POP DUP5 CALLVALUE LT PUSH2 0x4C2 JUMPI PUSH2 0x3ED SWAP4 DUP6 PUSH1 0x20 SWAP5 PUSH1 0x40 MLOAD SWAP7 DUP8 SWAP6 DUP7 SWAP5 DUP6 SWAP4 PUSH4 0xFA31DE01 PUSH1 0xE0 SHL DUP6 MSTORE PUSH1 0x4 DUP6 ADD PUSH2 0xCDE JUMP JUMPDEST SUB SWAP3 GAS CALL SWAP1 DUP2 ISZERO PUSH2 0x4B7 JUMPI DUP4 SWAP2 PUSH2 0x485 JUMPI JUMPDEST POP PUSH1 0x40 MLOAD SWAP1 DUP2 MSTORE PUSH32 0xAC4AE69F511ACC783878D50744BF46AEA0C8FB0F3B06A55BBAFDF73B7E8A238B PUSH1 0x20 CALLER SWAP3 LOG2 DUP1 CALLVALUE GT PUSH2 0x437 JUMPI POP DUP1 RETURN JUMPDEST DUP1 CALLVALUE SUB SWAP1 CALLVALUE DUP3 GT PUSH2 0x471 JUMPI DUP3 DUP1 DUP1 SWAP4 DUP2 SWAP4 DUP3 SWAP1 CALLVALUE EQ PUSH2 0x468 JUMPI JUMPDEST CALLER SWAP1 CALL ISZERO PUSH2 0x45C JUMPI DUP1 RETURN JUMPDEST PUSH1 0x40 MLOAD SWAP1 RETURNDATASIZE SWAP1 DUP3 RETURNDATACOPY RETURNDATASIZE SWAP1 REVERT JUMPDEST POP PUSH2 0x8FC PUSH2 0x451 JUMP JUMPDEST PUSH4 0x4E487B71 PUSH1 0xE0 SHL DUP4 MSTORE PUSH1 0x11 PUSH1 0x4 MSTORE PUSH1 0x24 DUP4 REVERT JUMPDEST SWAP1 POP PUSH1 0x20 DUP2 RETURNDATASIZE PUSH1 0x20 GT PUSH2 0x4AF JUMPI JUMPDEST DUP2 PUSH2 0x4A0 PUSH1 0x20 SWAP4 DUP4 PUSH2 0xC65 JUMP JUMPDEST DUP2 ADD SUB SLT PUSH2 0x290 JUMPI MLOAD CODESIZE PUSH2 0x3FF JUMP JUMPDEST RETURNDATASIZE SWAP2 POP PUSH2 0x493 JUMP JUMPDEST PUSH1 0x40 MLOAD RETURNDATASIZE DUP6 DUP3 RETURNDATACOPY RETURNDATASIZE SWAP1 REVERT JUMPDEST PUSH1 0x40 MLOAD PUSH3 0x461BCD PUSH1 0xE5 SHL DUP2 MSTORE PUSH1 0x20 PUSH1 0x4 DUP3 ADD MSTORE PUSH1 0x27 PUSH1 0x24 DUP3 ADD MSTORE PUSH32 0x496E73756666696369656E74207061796D656E7420666F7220696E7465726368 PUSH1 0x44 DUP3 ADD MSTORE PUSH7 0x61696E20676173 PUSH1 0xC8 SHL PUSH1 0x64 DUP3 ADD MSTORE PUSH1 0x84 SWAP1 REVERT JUMPDEST SWAP1 SWAP5 POP PUSH1 0x20 DUP2 RETURNDATASIZE PUSH1 0x20 GT PUSH2 0x548 JUMPI JUMPDEST DUP2 PUSH2 0x533 PUSH1 0x20 SWAP4 DUP4 PUSH2 0xC65 JUMP JUMPDEST DUP2 ADD SUB SLT PUSH2 0x543 JUMPI MLOAD SWAP4 CODESIZE PUSH2 0x3C0 JUMP JUMPDEST PUSH1 0x0 DUP1 REVERT JUMPDEST RETURNDATASIZE SWAP2 POP PUSH2 0x526 JUMP JUMPDEST PUSH1 0x40 MLOAD RETURNDATASIZE DUP9 DUP3 RETURNDATACOPY RETURNDATASIZE SWAP1 REVERT JUMPDEST PUSH1 0x40 MLOAD PUSH3 0x461BCD PUSH1 0xE5 SHL DUP2 MSTORE PUSH1 0x20 PUSH1 0x4 DUP3 ADD MSTORE PUSH1 0x1F PUSH1 0x24 DUP3 ADD MSTORE PUSH32 0x4F6E6C7920616C6C6F776564207265717565737465722063616E2063616C6C00 PUSH1 0x44 DUP3 ADD MSTORE PUSH1 0x64 SWAP1 REVERT JUMPDEST POP CALLVALUE PUSH2 0x156 JUMPI DUP1 PUSH1 0x3 NOT CALLDATASIZE ADD SLT PUSH2 0x156 JUMPI PUSH1 0x2 SLOAD PUSH1 0x40 MLOAD PUSH1 0x1 PUSH1 0x1 PUSH1 0xA0 SHL SUB SWAP1 SWAP2 AND DUP2 MSTORE PUSH1 0x20 SWAP1 RETURN JUMPDEST POP CALLVALUE PUSH2 0x156 JUMPI DUP1 PUSH1 0x3 NOT CALLDATASIZE ADD SLT PUSH2 0x156 JUMPI PUSH1 0x20 PUSH4 0xFFFFFFFF PUSH1 0x1 SLOAD PUSH1 0xA0 SHR AND PUSH1 0x40 MLOAD SWAP1 DUP2 MSTORE RETURN JUMPDEST POP CALLVALUE PUSH2 0x156 JUMPI DUP1 PUSH1 0x3 NOT CALLDATASIZE ADD SLT PUSH2 0x156 JUMPI SLOAD PUSH1 0x40 MLOAD PUSH1 0x1 PUSH1 0x1 PUSH1 0xA0 SHL SUB SWAP1 SWAP2 AND DUP2 MSTORE PUSH1 0x20 SWAP1 RETURN JUMPDEST POP CALLVALUE PUSH2 0x156 JUMPI DUP1 PUSH1 0x3 NOT CALLDATASIZE ADD SLT PUSH2 0x156 JUMPI PUSH1 0x20 PUSH4 0xFFFFFFFF PUSH1 0x8 SLOAD PUSH1 0xA0 SHR AND PUSH1 0x40 MLOAD SWAP1 DUP2 MSTORE RETURN JUMPDEST POP CALLVALUE PUSH2 0x156 JUMPI DUP1 PUSH1 0x3 NOT CALLDATASIZE ADD SLT PUSH2 0x156 JUMPI PUSH2 0x657 PUSH2 0xD03 JUMP JUMPDEST DUP1 SLOAD PUSH1 0x1 PUSH1 0x1 PUSH1 0xA0 SHL SUB NOT DUP2 AND DUP3 SSTORE DUP2 SWAP1 PUSH1 0x1 PUSH1 0x1 PUSH1 0xA0 SHL SUB AND PUSH32 0x8BE0079C531659141344CD1FD0A4F28419497F9722A3DAAFE3B4186F6B6457E0 DUP3 DUP1 LOG3 DUP1 RETURN JUMPDEST POP CALLVALUE PUSH2 0x156 JUMPI DUP1 PUSH1 0x3 NOT CALLDATASIZE ADD SLT PUSH2 0x156 JUMPI PUSH1 0x3 SLOAD PUSH1 0x40 MLOAD PUSH1 0x1 PUSH1 0x1 PUSH1 0xA0 SHL SUB SWAP1 SWAP2 AND DUP2 MSTORE PUSH1 0x20 SWAP1 RETURN JUMPDEST POP CALLVALUE PUSH2 0x156 JUMPI PUSH1 0x60 CALLDATASIZE PUSH1 0x3 NOT ADD SLT PUSH2 0x156 JUMPI PUSH2 0x6DB PUSH2 0xB98 JUMP JUMPDEST PUSH1 0x44 CALLDATALOAD SWAP1 PUSH8 0xFFFFFFFFFFFFFFFF DUP3 GT PUSH2 0x290 JUMPI CALLDATASIZE PUSH1 0x23 DUP4 ADD SLT ISZERO PUSH2 0x290 JUMPI DUP2 PUSH1 0x4 ADD CALLDATALOAD PUSH8 0xFFFFFFFFFFFFFFFF DUP2 GT PUSH2 0xA88 JUMPI DUP3 ADD CALLDATASIZE PUSH1 0x24 DUP3 ADD GT PUSH2 0xA88 JUMPI PUSH20 0x50DA3B3907A08A24FE4999F4DCF337E8DC7954BB CALLER SUB PUSH2 0xA4B JUMPI PUSH1 0xA0 SWAP1 DUP4 SWAP1 SUB SLT PUSH2 0x290 JUMPI PUSH1 0x40 MLOAD SWAP1 PUSH1 0xA0 DUP3 ADD DUP3 DUP2 LT PUSH8 0xFFFFFFFFFFFFFFFF DUP3 GT OR PUSH2 0xA37 JUMPI PUSH1 0x40 MSTORE PUSH1 0x24 DUP4 ADD CALLDATALOAD DUP1 DUP4 MSTORE PUSH1 0x44 DUP5 ADD CALLDATALOAD SWAP4 DUP5 PUSH1 0x20 DUP6 ADD MSTORE PUSH1 0x64 DUP2 ADD CALLDATALOAD SWAP3 PUSH8 0xFFFFFFFFFFFFFFFF DUP5 AND SWAP6 DUP7 DUP6 SUB PUSH2 0xA33 JUMPI PUSH32 0xF198DCEF1104A41FFF43A53752BBC93214A03ABBD7B3D3EDFF3CEA3A4FEB447C SWAP2 PUSH2 0x893 PUSH4 0xFFFFFFFF SWAP3 PUSH1 0x40 DUP10 ADD SWAP8 DUP9 MSTORE PUSH2 0x7DA PUSH1 0xA4 PUSH2 0x7CD PUSH1 0x84 DUP10 ADD PUSH2 0xBC1 JUMP JUMPDEST SWAP8 DUP9 PUSH1 0x60 DUP14 ADD MSTORE ADD PUSH2 0xBC1 JUMP JUMPDEST PUSH1 0x80 DUP11 DUP2 ADD DUP3 DUP2 MSTORE PUSH1 0x4 DUP11 SWAP1 SSTORE PUSH1 0x5 DUP5 SWAP1 SSTORE PUSH1 0x6 DUP1 SLOAD PUSH1 0xE0 DUP10 SWAP1 SHL AND DUP15 OR PUSH1 0x40 DUP12 DUP2 SHL PUSH9 0x10000000000000000 PUSH1 0x1 PUSH1 0xE0 SHL SUB AND SWAP2 SWAP1 SWAP2 OR SWAP1 SWAP2 SSTORE PUSH1 0x7 DUP1 SLOAD PUSH1 0x1 PUSH1 0x1 PUSH1 0xA0 SHL SUB NOT AND PUSH1 0x1 PUSH1 0x1 PUSH1 0xA0 SHL SUB SWAP6 DUP7 AND SWAP1 DUP2 OR SWAP1 SWAP2 SSTORE PUSH1 0x8 DUP1 SLOAD PUSH1 0x1 PUSH1 0x1 PUSH1 0xC0 SHL SUB NOT AND PUSH1 0x24 CALLDATALOAD DUP8 AND SWAP1 DUP2 OR SWAP10 SWAP1 SWAP11 AND PUSH1 0xA0 DUP2 DUP2 SHL SWAP11 SWAP1 SWAP11 OR SWAP1 SWAP2 SSTORE DUP3 MLOAD SWAP13 DUP14 MSTORE PUSH1 0x20 DUP14 ADD SWAP7 SWAP1 SWAP7 MSTORE PUSH8 0xFFFFFFFFFFFFFFFF SWAP1 SWAP15 AND SWAP1 DUP12 ADD MSTORE SWAP8 SWAP1 SWAP2 AND PUSH1 0x60 DUP10 ADD MSTORE DUP8 ADD SWAP10 SWAP1 SWAP10 MSTORE SWAP4 SWAP8 SWAP2 SWAP5 SWAP2 SWAP4 DUP3 SWAP2 DUP3 ADD SWAP1 JUMP JUMPDEST SUB SWAP1 LOG3 DUP3 MLOAD PUSH1 0x1 PUSH1 0x1 PUSH1 0xA0 SHL SUB AND DUP1 EXTCODESIZE PUSH2 0x8AB JUMPI DUP5 DUP1 RETURN JUMPDEST DUP5 DUP4 MLOAD SWAP2 PUSH8 0xFFFFFFFFFFFFFFFF DUP5 MLOAD AND SWAP1 DUP1 EXTCODESIZE ISZERO PUSH2 0x290 JUMPI PUSH1 0x40 MLOAD PUSH4 0xCC247E5 PUSH1 0xE1 SHL DUP2 MSTORE PUSH1 0x4 DUP2 ADD SWAP5 SWAP1 SWAP5 MSTORE PUSH8 0xFFFFFFFFFFFFFFFF SWAP2 SWAP1 SWAP2 AND PUSH1 0x24 DUP5 ADD MSTORE DUP3 SWAP1 PUSH1 0x44 SWAP1 DUP3 SWAP1 DUP5 SWAP1 GAS CALL SWAP1 DUP2 PUSH2 0xA1F JUMPI JUMPDEST POP PUSH2 0x9CC JUMPI POP POP RETURNDATASIZE ISZERO PUSH2 0x9A0 JUMPI RETURNDATASIZE SWAP1 PUSH8 0xFFFFFFFFFFFFFFFF DUP3 GT PUSH2 0x98C JUMPI PUSH2 0x980 PUSH32 0x337B251F7D34D96560F7FD33E148F1380BED7A7FEEF37A1366E6CF004C6FB022 SWAP2 PUSH1 0x40 MLOAD SWAP4 PUSH2 0x957 PUSH1 0x20 PUSH1 0x1F NOT PUSH1 0x1F DUP5 ADD AND ADD DUP7 PUSH2 0xC65 JUMP JUMPDEST DUP5 MSTORE RETURNDATASIZE DUP6 PUSH1 0x20 DUP7 ADD RETURNDATACOPY JUMPDEST PUSH1 0x1 DUP1 PUSH1 0xA0 SHL SUB SWAP1 MLOAD AND SWAP3 PUSH1 0x40 MLOAD SWAP2 DUP3 SWAP2 PUSH1 0x20 DUP4 MSTORE PUSH1 0x20 DUP4 ADD SWAP1 PUSH2 0xC9D JUMP JUMPDEST SUB SWAP1 LOG2 JUMPDEST CODESIZE DUP1 DUP1 DUP1 DUP5 DUP1 RETURN JUMPDEST PUSH4 0x4E487B71 PUSH1 0xE0 SHL DUP4 MSTORE PUSH1 0x41 PUSH1 0x4 MSTORE PUSH1 0x24 DUP4 REVERT JUMPDEST PUSH32 0x337B251F7D34D96560F7FD33E148F1380BED7A7FEEF37A1366E6CF004C6FB022 PUSH2 0x980 PUSH1 0x60 SWAP3 PUSH2 0x961 JUMP JUMPDEST SWAP2 MLOAD SWAP1 MLOAD SWAP2 MLOAD PUSH1 0x40 DUP1 MLOAD SWAP4 DUP5 MSTORE PUSH8 0xFFFFFFFFFFFFFFFF SWAP1 SWAP2 AND PUSH1 0x20 DUP5 ADD MSTORE PUSH1 0x1 PUSH1 0x1 PUSH1 0xA0 SHL SUB SWAP1 SWAP2 AND SWAP2 PUSH32 0xFEFDCDAD2593CACCC74BE409F7D2A7B61448A7650C8E79477AE9ABC21D1D2E9B SWAP2 SWAP1 LOG2 PUSH2 0x984 JUMP JUMPDEST DUP6 PUSH2 0xA2C SWAP2 SWAP7 SWAP3 SWAP7 PUSH2 0xC65 JUMP JUMPDEST SWAP4 CODESIZE PUSH2 0x8FC JUMP JUMPDEST DUP8 DUP1 REVERT JUMPDEST PUSH4 0x4E487B71 PUSH1 0xE0 SHL DUP6 MSTORE PUSH1 0x41 PUSH1 0x4 MSTORE PUSH1 0x24 DUP6 REVERT JUMPDEST PUSH1 0x40 MLOAD PUSH3 0x461BCD PUSH1 0xE5 SHL DUP2 MSTORE PUSH1 0x20 PUSH1 0x4 DUP3 ADD MSTORE PUSH1 0x15 PUSH1 0x24 DUP3 ADD MSTORE PUSH21 0x13DB9B1E4813585A5B189BDE0818D85B8818D85B1B PUSH1 0x5A SHL PUSH1 0x44 DUP3 ADD MSTORE PUSH1 0x64 SWAP1 REVERT JUMPDEST DUP4 DUP1 REVERT JUMPDEST POP CALLVALUE PUSH2 0x156 JUMPI DUP1 PUSH1 0x3 NOT CALLDATASIZE ADD SLT PUSH2 0x156 JUMPI PUSH1 0x2 SLOAD PUSH2 0xB08 SWAP1 PUSH1 0x20 SWAP1 PUSH1 0x1 PUSH1 0x1 PUSH1 0xA0 SHL SUB AND PUSH2 0xABB DUP2 ISZERO ISZERO PUSH2 0xBD5 JUMP JUMPDEST PUSH1 0x1 SLOAD PUSH4 0xFFFFFFFF DUP2 PUSH1 0xA0 SHR AND SWAP2 PUSH2 0xAD4 DUP4 ISZERO ISZERO PUSH2 0xC21 JUMP JUMPDEST PUSH1 0x40 MLOAD SWAP3 CALLER DUP6 DUP6 ADD MSTORE DUP5 DUP5 MSTORE PUSH2 0xAEB PUSH1 0x40 DUP6 PUSH2 0xC65 JUMP JUMPDEST PUSH1 0x40 MLOAD PUSH4 0x138857A3 PUSH1 0xE3 SHL DUP2 MSTORE SWAP6 DUP7 SWAP5 DUP6 SWAP4 DUP5 SWAP4 PUSH1 0x4 DUP6 ADD PUSH2 0xCDE JUMP JUMPDEST SUB SWAP2 PUSH1 0x1 PUSH1 0x1 PUSH1 0xA0 SHL SUB AND GAS STATICCALL SWAP1 DUP2 ISZERO PUSH2 0xB68 JUMPI DUP3 SWAP2 PUSH2 0xB2E JUMPI JUMPDEST PUSH1 0x20 DUP3 PUSH1 0x40 MLOAD SWAP1 DUP2 MSTORE RETURN JUMPDEST SWAP1 POP PUSH1 0x20 DUP2 RETURNDATASIZE PUSH1 0x20 GT PUSH2 0xB60 JUMPI JUMPDEST DUP2 PUSH2 0xB49 PUSH1 0x20 SWAP4 DUP4 PUSH2 0xC65 JUMP JUMPDEST DUP2 ADD SUB SLT PUSH2 0xB5C JUMPI PUSH1 0x20 SWAP2 POP MLOAD CODESIZE PUSH2 0xB23 JUMP JUMPDEST POP DUP1 REVERT JUMPDEST RETURNDATASIZE SWAP2 POP PUSH2 0xB3C JUMP JUMPDEST PUSH1 0x40 MLOAD RETURNDATASIZE DUP5 DUP3 RETURNDATACOPY RETURNDATASIZE SWAP1 REVERT JUMPDEST SWAP1 POP CALLVALUE PUSH2 0xB5C JUMPI DUP2 PUSH1 0x3 NOT CALLDATASIZE ADD SLT PUSH2 0xB5C JUMPI PUSH1 0x8 SLOAD PUSH1 0x1 PUSH1 0x1 PUSH1 0xA0 SHL SUB AND DUP2 MSTORE PUSH1 0x20 SWAP1 RETURN JUMPDEST PUSH1 0x4 CALLDATALOAD SWAP1 PUSH4 0xFFFFFFFF DUP3 AND DUP3 SUB PUSH2 0x543 JUMPI JUMP JUMPDEST PUSH1 0x4 CALLDATALOAD SWAP1 PUSH1 0x1 PUSH1 0x1 PUSH1 0xA0 SHL SUB DUP3 AND DUP3 SUB PUSH2 0x543 JUMPI JUMP JUMPDEST CALLDATALOAD SWAP1 PUSH1 0x1 PUSH1 0x1 PUSH1 0xA0 SHL SUB DUP3 AND DUP3 SUB PUSH2 0x543 JUMPI JUMP JUMPDEST ISZERO PUSH2 0xBDC JUMPI JUMP JUMPDEST PUSH1 0x40 MLOAD PUSH3 0x461BCD PUSH1 0xE5 SHL DUP2 MSTORE PUSH1 0x20 PUSH1 0x4 DUP3 ADD MSTORE PUSH1 0x17 PUSH1 0x24 DUP3 ADD MSTORE PUSH32 0x536F7572636520636F6E7472616374206E6F7420736574000000000000000000 PUSH1 0x44 DUP3 ADD MSTORE PUSH1 0x64 SWAP1 REVERT JUMPDEST ISZERO PUSH2 0xC28 JUMPI JUMP JUMPDEST PUSH1 0x40 MLOAD PUSH3 0x461BCD PUSH1 0xE5 SHL DUP2 MSTORE PUSH1 0x20 PUSH1 0x4 DUP3 ADD MSTORE PUSH1 0x15 PUSH1 0x24 DUP3 ADD MSTORE PUSH21 0x14DBDD5C98D948191BDB585A5B881B9BDD081CD95D PUSH1 0x5A SHL PUSH1 0x44 DUP3 ADD MSTORE PUSH1 0x64 SWAP1 REVERT JUMPDEST SWAP1 PUSH1 0x1F DUP1 NOT SWAP2 ADD AND DUP2 ADD SWAP1 DUP2 LT PUSH8 0xFFFFFFFFFFFFFFFF DUP3 GT OR PUSH2 0xC87 JUMPI PUSH1 0x40 MSTORE JUMP JUMPDEST PUSH4 0x4E487B71 PUSH1 0xE0 SHL PUSH1 0x0 MSTORE PUSH1 0x41 PUSH1 0x4 MSTORE PUSH1 0x24 PUSH1 0x0 REVERT JUMPDEST SWAP2 SWAP1 DUP3 MLOAD SWAP3 DUP4 DUP3 MSTORE PUSH1 0x0 JUMPDEST DUP5 DUP2 LT PUSH2 0xCC9 JUMPI POP POP DUP3 PUSH1 0x0 PUSH1 0x20 DUP1 SWAP5 SWAP6 DUP5 ADD ADD MSTORE PUSH1 0x1F DUP1 NOT SWAP2 ADD AND ADD ADD SWAP1 JUMP JUMPDEST DUP1 PUSH1 0x20 DUP1 SWAP3 DUP5 ADD ADD MLOAD DUP3 DUP3 DUP7 ADD ADD MSTORE ADD PUSH2 0xCA8 JUMP JUMPDEST PUSH2 0xD00 SWAP4 SWAP3 PUSH4 0xFFFFFFFF PUSH1 0x60 SWAP4 AND DUP3 MSTORE PUSH1 0x20 DUP3 ADD MSTORE DUP2 PUSH1 0x40 DUP3 ADD MSTORE ADD SWAP1 PUSH2 0xC9D JUMP JUMPDEST SWAP1 JUMP JUMPDEST PUSH1 0x0 SLOAD PUSH1 0x1 PUSH1 0x1 PUSH1 0xA0 SHL SUB AND CALLER SUB PUSH2 0xD17 JUMPI JUMP JUMPDEST PUSH4 0x118CDAA7 PUSH1 0xE0 SHL PUSH1 0x0 MSTORE CALLER PUSH1 0x4 MSTORE PUSH1 0x24 PUSH1 0x0 REVERT INVALID LOG2 PUSH5 0x6970667358 0x22 SLT KECCAK256 PUSH9 0xD9D08ACAF769F29D79 PUSH12 0x3DDA6AD557D4CE008D875E51 PREVRANDAO PREVRANDAO INVALID SHR ADD LOG3 0xDC CHAINID PUSH27 0x64736F6C634300081C003300000000000000000000000000000000 "
        },
        "methodIdentifiers": {
          "MAILBOX_ADDRESS()": "b85ec505",
          "allowedRequester()": "6af09337",
          "handle(uint32,bytes32,bytes)": "56d5d475",
          "lastEntropyData()": "bf4d0407",
          "lastOriginDomain()": "77cbf812",
          "lastSender()": "256fec88",
          "mailbox()": "d5438eae",
          "owner()": "8da5cb5b",
          "quoteRequestEntropy()": "3e0204b6",
          "renounceOwnership()": "715018a6",
          "requestEntropy()": "b13038a1",
          "setAllowedRequester(address)": "c641956a",
          "setSourceConfig(uint32,address)": "c10af2c9",
          "sourceContract()": "a444ae41",
          "sourceDomain()": "8ddb4a89",
          "transferOwnership(address)": "f2fde38b"
        }
      }
    }
  }
}