{
  "_format": "hh-sol-artifact-1",
  "contractName": "TradingCardGame",
  "sourceName": "contracts/TradingCardGame.sol",
  "abi": [
    {
      "inputs": [
        {
          "internalType": "address",
          "name": "_pythAddress",
          "type": "address"
        },
        {
          "internalType": "address",
          "name": "_hyperlaneCelo",
          "type": "address"
        }
      ],
      "stateMutability": "nonpayable",
      "type": "constructor"
    },
    {
      "anonymous": false,
      "inputs": [
        {
          "indexed": true,
          "internalType": "uint256",
          "name": "gameId",
          "type": "uint256"
        },
        {
          "indexed": true,
          "internalType": "address",
          "name": "player",
          "type": "address"
        },
        {
          "indexed": false,
          "internalType": "uint256[3]",
          "name": "cards",
          "type": "uint256[3]"
        }
      ],
      "name": "ChoicesCommitted",
      "type": "event"
    },
    {
      "anonymous": false,
      "inputs": [
        {
          "indexed": true,
          "internalType": "uint256",
          "name": "gameId",
          "type": "uint256"
        },
        {
          "indexed": false,
          "internalType": "bytes32",
          "name": "randomNumber",
          "type": "bytes32"
        },
        {
          "indexed": false,
          "internalType": "uint64",
          "name": "sequenceNumber",
          "type": "uint64"
        }
      ],
      "name": "EntropyReceived",
      "type": "event"
    },
    {
      "anonymous": false,
      "inputs": [
        {
          "indexed": true,
          "internalType": "uint256",
          "name": "gameId",
          "type": "uint256"
        },
        {
          "indexed": false,
          "internalType": "uint256",
          "name": "requestNumber",
          "type": "uint256"
        }
      ],
      "name": "EntropyRequested",
      "type": "event"
    },
    {
      "anonymous": false,
      "inputs": [
        {
          "indexed": true,
          "internalType": "uint256",
          "name": "gameId",
          "type": "uint256"
        },
        {
          "indexed": false,
          "internalType": "uint256[]",
          "name": "cards",
          "type": "uint256[]"
        }
      ],
      "name": "GameActive",
      "type": "event"
    },
    {
      "anonymous": false,
      "inputs": [
        {
          "indexed": true,
          "internalType": "uint256",
          "name": "gameId",
          "type": "uint256"
        }
      ],
      "name": "GameEnded",
      "type": "event"
    },
    {
      "anonymous": false,
      "inputs": [
        {
          "indexed": true,
          "internalType": "uint256",
          "name": "gameId",
          "type": "uint256"
        },
        {
          "indexed": true,
          "internalType": "address",
          "name": "starter",
          "type": "address"
        }
      ],
      "name": "GameStarted",
      "type": "event"
    },
    {
      "anonymous": false,
      "inputs": [
        {
          "indexed": true,
          "internalType": "uint256",
          "name": "gameId",
          "type": "uint256"
        },
        {
          "indexed": true,
          "internalType": "address",
          "name": "player",
          "type": "address"
        }
      ],
      "name": "PlayerJoined",
      "type": "event"
    },
    {
      "anonymous": false,
      "inputs": [
        {
          "indexed": true,
          "internalType": "uint256",
          "name": "gameId",
          "type": "uint256"
        },
        {
          "indexed": true,
          "internalType": "address",
          "name": "player",
          "type": "address"
        },
        {
          "indexed": false,
          "internalType": "uint256",
          "name": "points",
          "type": "uint256"
        }
      ],
      "name": "PointsAwarded",
      "type": "event"
    },
    {
      "anonymous": false,
      "inputs": [
        {
          "indexed": true,
          "internalType": "uint256",
          "name": "gameId",
          "type": "uint256"
        }
      ],
      "name": "PricesUpdated",
      "type": "event"
    },
    {
      "inputs": [],
      "name": "CHOICE_DURATION",
      "outputs": [
        {
          "internalType": "uint256",
          "name": "",
          "type": "uint256"
        }
      ],
      "stateMutability": "view",
      "type": "function"
    },
    {
      "inputs": [],
      "name": "LOBBY_DURATION",
      "outputs": [
        {
          "internalType": "uint256",
          "name": "",
          "type": "uint256"
        }
      ],
      "stateMutability": "view",
      "type": "function"
    },
    {
      "inputs": [],
      "name": "MIN_PLAYERS",
      "outputs": [
        {
          "internalType": "uint256",
          "name": "",
          "type": "uint256"
        }
      ],
      "stateMutability": "view",
      "type": "function"
    },
    {
      "inputs": [],
      "name": "POINTS_MARKET_CAP_VOLUME",
      "outputs": [
        {
          "internalType": "uint256",
          "name": "",
          "type": "uint256"
        }
      ],
      "stateMutability": "view",
      "type": "function"
    },
    {
      "inputs": [],
      "name": "POINTS_PERCENTAGE_CHANGE",
      "outputs": [
        {
          "internalType": "uint256",
          "name": "",
          "type": "uint256"
        }
      ],
      "stateMutability": "view",
      "type": "function"
    },
    {
      "inputs": [],
      "name": "POINTS_PRICE_ABOVE_BELOW",
      "outputs": [
        {
          "internalType": "uint256",
          "name": "",
          "type": "uint256"
        }
      ],
      "stateMutability": "view",
      "type": "function"
    },
    {
      "inputs": [],
      "name": "POINTS_PRICE_UP_DOWN",
      "outputs": [
        {
          "internalType": "uint256",
          "name": "",
          "type": "uint256"
        }
      ],
      "stateMutability": "view",
      "type": "function"
    },
    {
      "inputs": [],
      "name": "RESOLUTION_DURATION",
      "outputs": [
        {
          "internalType": "uint256",
          "name": "",
          "type": "uint256"
        }
      ],
      "stateMutability": "view",
      "type": "function"
    },
    {
      "inputs": [
        {
          "internalType": "uint256",
          "name": "",
          "type": "uint256"
        }
      ],
      "name": "assetPriceIds",
      "outputs": [
        {
          "internalType": "bytes32",
          "name": "",
          "type": "bytes32"
        }
      ],
      "stateMutability": "view",
      "type": "function"
    },
    {
      "inputs": [
        {
          "internalType": "uint256",
          "name": "_gameId",
          "type": "uint256"
        }
      ],
      "name": "canEndGame",
      "outputs": [
        {
          "internalType": "bool",
          "name": "canEnd",
          "type": "bool"
        },
        {
          "internalType": "string",
          "name": "reason",
          "type": "string"
        },
        {
          "internalType": "enum TradingCardGame.GameStatus",
          "name": "gameStatus_",
          "type": "uint8"
        },
        {
          "internalType": "uint256",
          "name": "resolutionDeadline_",
          "type": "uint256"
        },
        {
          "internalType": "uint256",
          "name": "currentTime",
          "type": "uint256"
        }
      ],
      "stateMutability": "view",
      "type": "function"
    },
    {
      "inputs": [
        {
          "internalType": "uint256",
          "name": "_gameId",
          "type": "uint256"
        }
      ],
      "name": "canStartGame",
      "outputs": [
        {
          "internalType": "bool",
          "name": "canStart",
          "type": "bool"
        },
        {
          "internalType": "string",
          "name": "reason",
          "type": "string"
        }
      ],
      "stateMutability": "view",
      "type": "function"
    },
    {
      "inputs": [
        {
          "internalType": "uint256",
          "name": "_gameId",
          "type": "uint256"
        },
        {
          "internalType": "uint256[3]",
          "name": "_cardNumbers",
          "type": "uint256[3]"
        }
      ],
      "name": "commitChoices",
      "outputs": [],
      "stateMutability": "nonpayable",
      "type": "function"
    },
    {
      "inputs": [],
      "name": "createGame",
      "outputs": [
        {
          "internalType": "uint256",
          "name": "",
          "type": "uint256"
        }
      ],
      "stateMutability": "nonpayable",
      "type": "function"
    },
    {
      "inputs": [
        {
          "internalType": "uint256",
          "name": "_gameId",
          "type": "uint256"
        }
      ],
      "name": "endGame",
      "outputs": [],
      "stateMutability": "nonpayable",
      "type": "function"
    },
    {
      "inputs": [],
      "name": "entropyRequestCount",
      "outputs": [
        {
          "internalType": "uint256",
          "name": "",
          "type": "uint256"
        }
      ],
      "stateMutability": "view",
      "type": "function"
    },
    {
      "inputs": [
        {
          "internalType": "uint256",
          "name": "",
          "type": "uint256"
        }
      ],
      "name": "entropyRequested",
      "outputs": [
        {
          "internalType": "bool",
          "name": "",
          "type": "bool"
        }
      ],
      "stateMutability": "view",
      "type": "function"
    },
    {
      "inputs": [
        {
          "internalType": "uint256",
          "name": "",
          "type": "uint256"
        }
      ],
      "name": "gameEntropy",
      "outputs": [
        {
          "internalType": "bytes32",
          "name": "",
          "type": "bytes32"
        }
      ],
      "stateMutability": "view",
      "type": "function"
    },
    {
      "inputs": [
        {
          "internalType": "uint256",
          "name": "",
          "type": "uint256"
        }
      ],
      "name": "games",
      "outputs": [
        {
          "internalType": "uint256",
          "name": "gameId",
          "type": "uint256"
        },
        {
          "internalType": "enum TradingCardGame.GameStatus",
          "name": "status",
          "type": "uint8"
        },
        {
          "internalType": "uint256",
          "name": "startTime",
          "type": "uint256"
        },
        {
          "internalType": "uint256",
          "name": "lobbyDeadline",
          "type": "uint256"
        },
        {
          "internalType": "uint256",
          "name": "choiceDeadline",
          "type": "uint256"
        },
        {
          "internalType": "uint256",
          "name": "resolutionDeadline",
          "type": "uint256"
        },
        {
          "internalType": "bool",
          "name": "resolved",
          "type": "bool"
        }
      ],
      "stateMutability": "view",
      "type": "function"
    },
    {
      "inputs": [
        {
          "internalType": "uint256",
          "name": "_gameId",
          "type": "uint256"
        }
      ],
      "name": "getCurrentPhase",
      "outputs": [
        {
          "internalType": "enum TradingCardGame.GameStatus",
          "name": "phase",
          "type": "uint8"
        }
      ],
      "stateMutability": "view",
      "type": "function"
    },
    {
      "inputs": [
        {
          "internalType": "uint256",
          "name": "_gameId",
          "type": "uint256"
        }
      ],
      "name": "getEntropyRequestStatus",
      "outputs": [
        {
          "internalType": "bool",
          "name": "requested",
          "type": "bool"
        },
        {
          "internalType": "bool",
          "name": "received",
          "type": "bool"
        }
      ],
      "stateMutability": "view",
      "type": "function"
    },
    {
      "inputs": [
        {
          "internalType": "bytes32",
          "name": "_priceId",
          "type": "bytes32"
        }
      ],
      "name": "getFeedPrice",
      "outputs": [
        {
          "components": [
            {
              "internalType": "int64",
              "name": "price",
              "type": "int64"
            },
            {
              "internalType": "uint64",
              "name": "conf",
              "type": "uint64"
            },
            {
              "internalType": "int32",
              "name": "expo",
              "type": "int32"
            },
            {
              "internalType": "uint256",
              "name": "publishTime",
              "type": "uint256"
            }
          ],
          "internalType": "struct PythStructs.Price",
          "name": "price",
          "type": "tuple"
        }
      ],
      "stateMutability": "view",
      "type": "function"
    },
    {
      "inputs": [
        {
          "internalType": "bytes32[]",
          "name": "_priceIds",
          "type": "bytes32[]"
        }
      ],
      "name": "getFeedPrices",
      "outputs": [
        {
          "components": [
            {
              "internalType": "int64",
              "name": "price",
              "type": "int64"
            },
            {
              "internalType": "uint64",
              "name": "conf",
              "type": "uint64"
            },
            {
              "internalType": "int32",
              "name": "expo",
              "type": "int32"
            },
            {
              "internalType": "uint256",
              "name": "publishTime",
              "type": "uint256"
            }
          ],
          "internalType": "struct PythStructs.Price[]",
          "name": "prices",
          "type": "tuple[]"
        }
      ],
      "stateMutability": "view",
      "type": "function"
    },
    {
      "inputs": [
        {
          "internalType": "uint256",
          "name": "_gameId",
          "type": "uint256"
        }
      ],
      "name": "getGameCards",
      "outputs": [
        {
          "internalType": "uint256[]",
          "name": "",
          "type": "uint256[]"
        }
      ],
      "stateMutability": "view",
      "type": "function"
    },
    {
      "inputs": [
        {
          "internalType": "uint256",
          "name": "_gameId",
          "type": "uint256"
        }
      ],
      "name": "getGamePlayers",
      "outputs": [
        {
          "internalType": "address[]",
          "name": "",
          "type": "address[]"
        }
      ],
      "stateMutability": "view",
      "type": "function"
    },
    {
      "inputs": [
        {
          "internalType": "uint256",
          "name": "_gameId",
          "type": "uint256"
        }
      ],
      "name": "getGameState",
      "outputs": [
        {
          "internalType": "enum TradingCardGame.GameStatus",
          "name": "status",
          "type": "uint8"
        },
        {
          "internalType": "uint256",
          "name": "startTime",
          "type": "uint256"
        },
        {
          "internalType": "uint256",
          "name": "lobbyDeadline",
          "type": "uint256"
        },
        {
          "internalType": "uint256",
          "name": "choiceDeadline",
          "type": "uint256"
        },
        {
          "internalType": "uint256",
          "name": "resolutionDeadline",
          "type": "uint256"
        },
        {
          "internalType": "uint256",
          "name": "playerCount",
          "type": "uint256"
        },
        {
          "internalType": "uint256",
          "name": "cardCount",
          "type": "uint256"
        }
      ],
      "stateMutability": "view",
      "type": "function"
    },
    {
      "inputs": [
        {
          "internalType": "uint256",
          "name": "_gameId",
          "type": "uint256"
        },
        {
          "internalType": "address",
          "name": "_player",
          "type": "address"
        }
      ],
      "name": "getGameStateWithPlayer",
      "outputs": [
        {
          "internalType": "enum TradingCardGame.GameStatus",
          "name": "status",
          "type": "uint8"
        },
        {
          "internalType": "uint256",
          "name": "startTime",
          "type": "uint256"
        },
        {
          "internalType": "uint256",
          "name": "lobbyDeadline",
          "type": "uint256"
        },
        {
          "internalType": "uint256",
          "name": "choiceDeadline",
          "type": "uint256"
        },
        {
          "internalType": "uint256",
          "name": "resolutionDeadline",
          "type": "uint256"
        },
        {
          "internalType": "uint256",
          "name": "playerCount",
          "type": "uint256"
        },
        {
          "internalType": "uint256",
          "name": "cardCount",
          "type": "uint256"
        },
        {
          "internalType": "bool",
          "name": "playerHasCommitted",
          "type": "bool"
        },
        {
          "internalType": "uint256[3]",
          "name": "playerSelectedCards",
          "type": "uint256[3]"
        }
      ],
      "stateMutability": "view",
      "type": "function"
    },
    {
      "inputs": [],
      "name": "getNextGameId",
      "outputs": [
        {
          "internalType": "uint256",
          "name": "",
          "type": "uint256"
        }
      ],
      "stateMutability": "view",
      "type": "function"
    },
    {
      "inputs": [
        {
          "internalType": "address",
          "name": "_player",
          "type": "address"
        }
      ],
      "name": "getPlayerActiveGame",
      "outputs": [
        {
          "internalType": "uint256",
          "name": "",
          "type": "uint256"
        }
      ],
      "stateMutability": "view",
      "type": "function"
    },
    {
      "inputs": [
        {
          "internalType": "uint256",
          "name": "_gameId",
          "type": "uint256"
        },
        {
          "internalType": "address",
          "name": "_player",
          "type": "address"
        }
      ],
      "name": "getPlayerChoices",
      "outputs": [
        {
          "internalType": "uint256[3]",
          "name": "selectedCards",
          "type": "uint256[3]"
        },
        {
          "internalType": "uint256",
          "name": "committedAt",
          "type": "uint256"
        },
        {
          "internalType": "bool",
          "name": "committed",
          "type": "bool"
        }
      ],
      "stateMutability": "view",
      "type": "function"
    },
    {
      "inputs": [
        {
          "internalType": "address",
          "name": "_player",
          "type": "address"
        }
      ],
      "name": "getPlayerScore",
      "outputs": [
        {
          "internalType": "uint256",
          "name": "totalPoints",
          "type": "uint256"
        },
        {
          "internalType": "uint256",
          "name": "gamesPlayed",
          "type": "uint256"
        },
        {
          "internalType": "uint256",
          "name": "gamesWon",
          "type": "uint256"
        }
      ],
      "stateMutability": "view",
      "type": "function"
    },
    {
      "inputs": [
        {
          "internalType": "uint256",
          "name": "_gameId",
          "type": "uint256"
        },
        {
          "internalType": "uint256",
          "name": "_cardNumber",
          "type": "uint256"
        }
      ],
      "name": "getPredictionResult",
      "outputs": [
        {
          "internalType": "bool",
          "name": "correct",
          "type": "bool"
        },
        {
          "internalType": "uint256",
          "name": "pointsEarned",
          "type": "uint256"
        }
      ],
      "stateMutability": "view",
      "type": "function"
    },
    {
      "inputs": [
        {
          "internalType": "uint256",
          "name": "_gameId",
          "type": "uint256"
        }
      ],
      "name": "hasEntropy",
      "outputs": [
        {
          "internalType": "bool",
          "name": "",
          "type": "bool"
        }
      ],
      "stateMutability": "view",
      "type": "function"
    },
    {
      "inputs": [],
      "name": "hyperlaneCelo",
      "outputs": [
        {
          "internalType": "contract IHyperlaneCelo",
          "name": "",
          "type": "address"
        }
      ],
      "stateMutability": "view",
      "type": "function"
    },
    {
      "inputs": [],
      "name": "isContractActive",
      "outputs": [
        {
          "internalType": "bool",
          "name": "",
          "type": "bool"
        }
      ],
      "stateMutability": "pure",
      "type": "function"
    },
    {
      "inputs": [
        {
          "internalType": "uint256",
          "name": "_gameId",
          "type": "uint256"
        }
      ],
      "name": "joinGame",
      "outputs": [],
      "stateMutability": "nonpayable",
      "type": "function"
    },
    {
      "inputs": [
        {
          "internalType": "uint256",
          "name": "",
          "type": "uint256"
        }
      ],
      "name": "leaderboard",
      "outputs": [
        {
          "internalType": "address",
          "name": "",
          "type": "address"
        }
      ],
      "stateMutability": "view",
      "type": "function"
    },
    {
      "inputs": [
        {
          "internalType": "address",
          "name": "",
          "type": "address"
        }
      ],
      "name": "playerActiveGame",
      "outputs": [
        {
          "internalType": "uint256",
          "name": "",
          "type": "uint256"
        }
      ],
      "stateMutability": "view",
      "type": "function"
    },
    {
      "inputs": [
        {
          "internalType": "address",
          "name": "",
          "type": "address"
        }
      ],
      "name": "playerScores",
      "outputs": [
        {
          "internalType": "address",
          "name": "player",
          "type": "address"
        },
        {
          "internalType": "uint256",
          "name": "totalPoints",
          "type": "uint256"
        },
        {
          "internalType": "uint256",
          "name": "gamesPlayed",
          "type": "uint256"
        },
        {
          "internalType": "uint256",
          "name": "gamesWon",
          "type": "uint256"
        }
      ],
      "stateMutability": "view",
      "type": "function"
    },
    {
      "inputs": [],
      "name": "pyth",
      "outputs": [
        {
          "internalType": "contract IPyth",
          "name": "",
          "type": "address"
        }
      ],
      "stateMutability": "view",
      "type": "function"
    },
    {
      "inputs": [
        {
          "internalType": "bytes32",
          "name": "randomNumber",
          "type": "bytes32"
        },
        {
          "internalType": "uint64",
          "name": "sequenceNumber",
          "type": "uint64"
        }
      ],
      "name": "receiveEntropy",
      "outputs": [],
      "stateMutability": "nonpayable",
      "type": "function"
    },
    {
      "inputs": [
        {
          "internalType": "uint256",
          "name": "_assetIndex",
          "type": "uint256"
        },
        {
          "internalType": "bytes32",
          "name": "_priceId",
          "type": "bytes32"
        }
      ],
      "name": "setAssetPriceId",
      "outputs": [],
      "stateMutability": "nonpayable",
      "type": "function"
    },
    {
      "inputs": [
        {
          "internalType": "uint256",
          "name": "_gameId",
          "type": "uint256"
        },
        {
          "internalType": "bool",
          "name": "_useSecureRandomness",
          "type": "bool"
        }
      ],
      "name": "startGame",
      "outputs": [],
      "stateMutability": "nonpayable",
      "type": "function"
    },
    {
      "inputs": [
        {
          "internalType": "uint256",
          "name": "_gameId",
          "type": "uint256"
        }
      ],
      "name": "transitionToResolution",
      "outputs": [],
      "stateMutability": "nonpayable",
      "type": "function"
    },
    {
      "inputs": [
        {
          "internalType": "uint256",
          "name": "_gameId",
          "type": "uint256"
        },
        {
          "internalType": "bytes[]",
          "name": "_priceUpdateData",
          "type": "bytes[]"
        },
        {
          "internalType": "bytes32[]",
          "name": "",
          "type": "bytes32[]"
        },
        {
          "internalType": "uint256",
          "name": "_updateFee",
          "type": "uint256"
        }
      ],
      "name": "updatePricesAndResolve",
      "outputs": [],
      "stateMutability": "payable",
      "type": "function"
    },
    {
      "stateMutability": "payable",
      "type": "receive"
    }
  ],
  "bytecode": "0x60c0346100ad57601f612bed38819003918201601f19168301916001600160401b038311848410176100b25780849260409485528339810103126100ad57610052602061004b836100c8565b92016100c8565b6001600160a01b039182166080521660a0526001600055604051612b1090816100dd82396080518181816102d60152818161122701528181611ec60152612108015260a051818181610f9b015281816117860152611c650152f35b600080fd5b634e487b7160e01b600052604160045260246000fd5b51906001600160a01b03821682036100ad5756fe6080604052600436101561001b575b361561001957600080fd5b005b6000803560e01c806302653e9a146120a157806310c28d3114612000578063117a5b9014611f845780631226897a14611f6857806314527c5814611e8e57806315a40f4914611db657806319848fca14611c39578063392b749c14611be55780633c8aec3f14611bbb5780634b9a2a2c14611a8157806353644f3114611a5a578063572e85ec14611a1d5780635c5c83821461097157806362550ae1146119b95780636bdca4571461199b5780637255d729146116975780637ca90e591461167b5780637f57504f1461161557806385f07bbe146115f9578063860cbc771461155b578063863df0a1146115225780638f5949f9146115065780639a18e981146114885780639c18c05d14611459578063a457d3d614611134578063ad7465d414611108578063b0fd159f146110ec578063bc6c97da146110c2578063bee4c6d3146110a6578063bf36839914611025578063cb09d27f14610fca578063cf10241314610f85578063d0399bb814610c19578063d7793c1914610a12578063de45e20a146109ca578063e085c53914610976578063e5c43ef114610971578063e7fad8af14610955578063ede8af0114610938578063efaa55a01461076b578063f79c913e14610364578063f84f079214610305578063f98d06f0146102c05763ffde0c741461020b575061000e565b346102bd5760203660031901126102bd5760e09061025960043561025481151580806102b3575b61023b906124d5565b82855260016020526040852094816102a8575b506124d5565b61260b565b906002810154906003810154600482015460058301549160076006850154940154946102886040518098612388565b602087015260408601526060850152608084015260a083015260c0820152f35b90505482103861024e565b5084548310610232565b80fd5b50346102bd57806003193601126102bd576040517f00000000000000000000000000000000000000000000000000000000000000006001600160a01b03168152602090f35b50346102bd5760203660031901126102bd5760409081600435918215158061035a575b610331906124d5565b828152600760205260ff8282205416928152600660205220541515825191151582526020820152f35b5080548310610328565b50346102bd5760803660031901126102bd576004359036604312156102bd576040519061039260608361229a565b8136608411610767576024905b608482106107575750508215158061074d575b6103bb906124d5565b82815260016020526040812092600784019283549283156106f5576103e66003870154421015612998565b60048601544210156106b75733600090815260088701602081905260409091206005015460ff1661067e578182600689018054915b828110610646575b5050501561060157815b6003811015806104d8578390845b88811061048d575b5050156104525760010161042d565b60405162461bcd60e51b815260206004820152601360248201527224b73b30b634b21031b0b93210373ab6b132b960691b6044820152606490fd5b81610498828c612408565b90549060031b1c906104c4578460051b880151146104b85760010161043b565b50505060013880610443565b634e487b7160e01b87526032600452602487fd5b604051848a8789876104e98661227f565b338087526020808801858152426040808b01918252600160608c0190815260009586529590935291909220975188546001600160a01b0319166001600160a01b03919091161788559051865b600381106105eb575050956005610566926001979851600484015551151591019060ff801983541691151516179055565b6105736040518093612360565b7fd67de08bd4ba5b6a6548667370488a8781753615acb89ae1ac1f96f6c270ecf060603393a30160ff81541660058110156105d757600281141590816105cb575b506105bd575080f35b805460ff1916600217905580f35b600391501415836105b4565b634e487b7160e01b83526021600452602483fd5b6001906020835193019282828c01015501610535565b60405162461bcd60e51b815260206004820152601960248201527f4e6f74206120706c6179657220696e20746869732067616d65000000000000006044820152606490fd5b6106508183612408565b905460039190911b1c6001600160a01b031633146106705760010161041b565b505050506001388080610423565b60405162461bcd60e51b8152602060048201526011602482015270105b1c9958591e4818dbdb5b5a5d1d1959607a1b6044820152606490fd5b60405162461bcd60e51b815260206004820152601660248201527510da1bda58d948191958591b1a5b99481c185cdcd95960521b6044820152606490fd5b60405162461bcd60e51b815260206004820152602a60248201527f47616d65206e6f74207374617274656420796574202d206361726473206e6f746044820152690819d95b995c985d195960b21b6064820152608490fd5b50805483106103b2565b813581526020918201910161039f565b5080fd5b50346102bd5760203660031901126102bd576004358015158061092e575b610792906124d5565b808252600160205260ff60016040842001541660058110156105d7576107b89015612768565b808252600160205260408220600381015442116108fa576006018054835b81811061089a5750503383526004602052604083205480151580610890575b61083d575b506108069033906126ed565b338252600460205280604083205533907f87969bc7faf902221a147b95ceba76e011c5efb0339a0a8ee7a2bb82d9cfbbd68380a380f35b8352600160205260ff600160408520015416600581101561087c57906108686004610806931461266f565b3384526004602052836040812055906107fa565b634e487b7160e01b84526021600452602484fd5b50828114156107f5565b6108a48184612408565b905460039190911b1c6001600160a01b031633146108c4576001016107d6565b60405162461bcd60e51b815260206004820152600e60248201526d105b1c9958591e481a9bda5b995960921b6044820152606490fd5b60405162461bcd60e51b815260206004820152600c60248201526b131bd8989e4818db1bdcd95960a21b6044820152606490fd5b5081548110610789565b50346102bd57806003193601126102bd5760209054604051908152f35b50346102bd57806003193601126102bd576020604051600a8152f35b6123ec565b50346102bd5760203660031901126102bd576060906040906001600160a01b0361099e61234a565b168152600260205220600181015490600360028201549101549060405192835260208301526040820152f35b50346102bd5760203660031901126102bd57604060209160043580151580610a08575b6109f6906124d5565b81526006835220541515604051908152f35b50815481106109ed565b50346102bd5760403660031901126102bd576004356024358015158103610c155781151580610c0b575b610a45906124d5565b818352600160205260408320610a616003820154421015612998565b6004810154421015610bc6576007810191610a7d8354156129e4565b8385526001602052610a966007604087200154156129e4565b15610b955782845260016020526040842083855260066020526040852054801515600014610b5d5790600701855b600a8110610b1e575050507f1e16023bc0e15b4ad55f8e37dccf554d1451b0d26c8e55cd0e7e041eea33c75d916001610b18925b01600260ff1982541617905560405191829160208352602083019061272e565b0390a280f35b600190610b5761271060405160208101908782528a604082015284606082015260608152610b4d60808261229a565b5190200684612a30565b01610ac4565b50507f1e16023bc0e15b4ad55f8e37dccf554d1451b0d26c8e55cd0e7e041eea33c75d916001610b1892610b9086612a65565b610af8565b7f1e16023bc0e15b4ad55f8e37dccf554d1451b0d26c8e55cd0e7e041eea33c75d916001610b1892610b9086612a65565b60405162461bcd60e51b815260206004820152601e60248201527f43686f69636520646561646c696e6520616c72656164792070617373656400006044820152606490fd5b5082548210610a3c565b8280fd5b50346102bd5760203660031901126102bd5760043580151580610f7b575b610c40906124d5565b8082526001602052604082209060058201544210610f36576001820160ff8154166005811015610f065760038114159081610f2a575b50610f1a575b60ff8154166005811015610f0657600414610ecc5783600684016008600986019501955b8154811015610e2d57610cb38183612408565b905460039190911b1c6001600160a01b03166000818152602089905260409020600581015491989093909160ff1615610e20578491825b6003841015610d8457610d2a600191828689010154808a528c60205260ff8460408c2001541615610d32575b89528b602052600260408a200154906126e0565b930192610cea565b60405160028e610d418361224e565b838352610d7b8d604060208601918083528187019481865288825260205220945185555115158885019060ff801983541691151516179055565b51910155610d16565b8891979550600194935060207f0dbadce3c07b5bc30ebbe2bcec3d6bb95f9b3a0bb33178ff0d61e4d7d4339915919b939b848952600282528660408a2001610dcd8282546126e0565b905584895260028252600260408a2001610de781546126bb565b905580610e01575b604051908152a35b0195909295610ca0565b84895260028252600360408a2001610e1981546126bb565b9055610def565b9750939150600190610df7565b50825460ff1916600417909255805b8254811015610ea35780610e5260019285612408565b838060a01b0391549060031b1c168352600460205284604084205414610e79575b01610e3c565b610e838185612408565b838060a01b0391549060031b1c1683526004602052826040812055610e73565b50827fce24807f7e4b60b4e641462f13029fa5e5f79075bbc3f8e5cd43ecd19661d7608280a280f35b60405162461bcd60e51b815260206004820152601260248201527111d85b5948185b1c9958591e48195b99195960721b6044820152606490fd5b634e487b7160e01b85526021600452602485fd5b805460ff19166003178155610c7c565b60049150141538610c76565b60405162461bcd60e51b815260206004820152601f60248201527f5265736f6c7574696f6e20646561646c696e65206e6f742072656163686564006044820152606490fd5b5081548110610c37565b50346102bd57806003193601126102bd576040517f00000000000000000000000000000000000000000000000000000000000000006001600160a01b03168152602090f35b50346102bd5760203660031901126102bd57610fe76004356127f6565b9061101761100c6040969596519687961515875260a0602088015260a08701906123ab565b936040860190612388565b606084015260808301520390f35b50346102bd5760203660031901126102bd57600435906003548210156102bd576003548210156110925760038082527fc2575a0e9e593c00f959f8c92f12db2869c3395a3b0502d05e2516446f71f85b92909201546040516001600160a01b039290931b1c168152602090f35b634e487b7160e01b81526032600452602490fd5b50346102bd57806003193601126102bd576020604051600f8152f35b50346102bd5760203660031901126102bd5760406020916004358152600683522054604051908152f35b50346102bd57806003193601126102bd57602060405160128152f35b50346102bd5760203660031901126102bd57602061112c61112761234a565b6127aa565b604051908152f35b5060803660031901126102bd576024356004356001600160401b038211610c155736602383011215610c155781600401359161116f836122bb565b9061117d604051928361229a565b838252602082016024819560051b830101913683116113345760248101915b8383106113ca57505050506044356001600160401b0381116113c6576111c69036906004016122d2565b5060643592821515806113bc575b6111dd906124d5565b828552600160205260ff60016040872001541660058110156113a85760036112059114612768565b82855260016020526040852084341061137057600a019360ff855416611338577f00000000000000000000000000000000000000000000000000000000000000006001600160a01b031691823b1561133457604051631df3cbc560e31b81526020600482015293516024850181905287949392916044600583901b860181019290879087015b8282106112ff57505050509183809281879503925af180156112f4576112df575b50807f702ec30635253cae6d3600d38314e616495cf01545d34e549c49ebf6451dab3b91a2805460ff1916600117905580f35b816112e99161229a565b610c155782386112ac565b6040513d84823e3d90fd5b9193600191939596979850602061132181926043198c820301865288516123ab565b9601920192018a9796959493919261128b565b8680fd5b60405162461bcd60e51b815260206004820152601060248201526f105b1c9958591e481c995cdbdb1d995960821b6044820152606490fd5b60405162461bcd60e51b815260206004820152601060248201526f496e73756666696369656e742066656560801b6044820152606490fd5b634e487b7160e01b86526021600452602486fd5b50845483106111d4565b8480fd5b82356001600160401b0381116114555782019036604383011215611455576024820135906001600160401b03821161144157604051611413601f8401601f19166020018261229a565b8281528a36604486860101116102bd576020848196956044839701838601378301015281520192019161119c565b634e487b7160e01b8a52604160045260248afd5b8880fd5b50346102bd5760203660031901126102bd5760ff60406020926004358152600784522054166040519015158152f35b50346102bd5760203660031901126102bd57600435801515806114fc575b6114af906124d5565b81526001602052604081206004810154421015806114e1575b6114d0575080f35b600101805460ff1916600317905580f35b5060ff60018201541660058110156105d757600414156114c8565b50815481106114a6565b50346102bd57806003193601126102bd57602060405160018152f35b50346102bd5760203660031901126102bd576020906040906001600160a01b0361154a61234a565b168152600483522054604051908152f35b50346102bd5760203660031901126102bd57600435801515806115ef575b906115876115a493926124d5565b815260016020526115ab600760408320016040519384809261272e565b038361229a565b604051918291602083016020845282518091526020604085019301915b8181106115d6575050500390f35b82518452859450602093840193909201916001016115c8565b5081548110611579565b50346102bd57806003193601126102bd57602060405160028152f35b50346102bd5760403660031901126102bd576040809160043580151580611671575b611640906124d5565b81526001602052600982822001602435825260205220600260ff600183015416910154825191151582526020820152f35b5081548110611637565b50346102bd57806003193601126102bd57602060405160b48152f35b50346102bd57806003193601126102bd57338152600460205260408120548061194c575b5080546116c7816126bb565b82558082526001602052604082208181556001810160ff198154169055426002820155603c420180421161193857806003830155607842018091116119385780600483015561012c420180911161193857600582015561172b9033906006016126ed565b338252600460205280604083205560405133827ffadb9547847a0c2c31f4c02590545e318d33d7aae99071caecf3fa4ce3cd7dca8580a3818352600760205260ff6040842054166118f65750604051631f01025b60e11b81527f00000000000000000000000000000000000000000000000000000000000000006001600160a01b0316602082600481845afa9182156118eb5784926118b3575b5081471061186e578084913b156107675760046040518094819363b13038a160e01b83525af18015611863579260409181602095611853575b849150526007845220600160ff19825416179055807fbdc6d9cd20b69192d98208f944398e7220245fa28933232072f237e004b9a376836118406008546126bb565b80600855604051908152a2604051908152f35b61185c9161229a565b38816117fe565b6040513d85823e3d90fd5b60405162461bcd60e51b815260206004820152601d60248201527f496e73756666696369656e7420636f6e74726163742062616c616e63650000006044820152606490fd5b9091506020813d6020116118e3575b816118cf6020938361229a565b810103126118df575190386117c5565b8380fd5b3d91506118c2565b6040513d86823e3d90fd5b62461bcd60e51b815260206004820152601960248201527f456e74726f707920616c726561647920726571756573746564000000000000006044820152606490fd5b634e487b7160e01b84526011600452602484fd5b8152600160205260ff6001604083200154166005811015611987576004611973911461266f565b3381526004602052806040812055386116bb565b634e487b7160e01b82526021600452602482fd5b50346102bd57806003193601126102bd576020600854604051908152f35b50346102bd5760203660031901126102bd576080906040906001600160a01b036119e161234a565b16815260026020522060018060a01b03815416906001810154906003600282015491015491604051938452602084015260408301526060820152f35b50346102bd5760203660031901126102bd57611a4b6020916102546004359182151590816102a857506124d5565b611a586040518092612388565bf35b50346102bd5760403660031901126102bd5760043581526005602052602435604082205580f35b50346102bd5760403660031901126102bd5761016090611a5860043591611aa6612334565b926060604051611ab6828261229a565b36903780151580611bb1575b611acb906124d5565b8152600160205260408120928190604051611ae58161224e565b8381526020810184905260408101849052926001600160a01b038216611b6f575b505060ff60018501541693600281015490600381015460048201546005830154916007600685015494015494611b3f604051809b612388565b60208a015260408901526060880152608087015260a086015260c0850152151560e0840152610100830190612360565b6001600160a01b0390911681526008850160205260409020600581015460ff16611b9a575b80611b06565b915050611baa6001809201612513565b9038611b94565b5081548110611ac2565b50346102bd5760203660031901126102bd5760406020916004358152600583522054604051908152f35b50346102bd5760203660031901126102bd57611c1690611c116004359182151590816102a857506124d5565b61254a565b90611c35604051928392151583526040602084015260408301906123ab565b0390f35b50346102bd5760403660031901126102bd57600435602435906001600160401b038216809203610c15577f00000000000000000000000000000000000000000000000000000000000000006001600160a01b03163303611d7157829160018454905b818110611d30575b50508215611ceb577f1fc4f2867633636e24f8e6a0625b2bfffa6edfd6ebad5cc1671bc193e5548aa4916040918486526006602052818387205582519182526020820152a280f35b60405162461bcd60e51b815260206004820152601b60248201527f4e6f2067616d652077616974696e6720666f7220656e74726f707900000000006044820152606490fd5b808652600760205260ff60408720541680611d5d575b611d5257600101611c9b565b935038905080611ca3565b508086526006602052604086205415611d46565b60405162461bcd60e51b815260206004820152601b60248201527f4f6e6c792048797065726c616e6543656c6f2063616e2063616c6c00000000006044820152606490fd5b50346102bd5760203660031901126102bd5760043580151580611e84575b611ddd906124d5565b8152600160205260066040822001604051908160208254918281520190819285526020852090855b818110611e655750505082611e1b91038361229a565b604051928392602084019060208552518091526040840192915b818110611e43575050500390f35b82516001600160a01b0316845285945060209384019390920191600101611e35565b82546001600160a01b0316845260209093019260019283019201611e05565b5081548110611dd4565b50346102bd5760203660031901126102bd57611ea8612436565b506040516396834ad360e01b815260048035908201526080816024817f00000000000000000000000000000000000000000000000000000000000000006001600160a01b03165afa9081156112f45760809291611f3b575b50611a58604051809260608091805160070b84526001600160401b036020820151166020850152604081015160030b60408501520151910152565b611f5b9150823d8411611f61575b611f53818361229a565b81019061246f565b38611f00565b503d611f49565b50346102bd57806003193601126102bd57602060405160148152f35b50346102bd5760203660031901126102bd57604060e091600435815260016020522080549060ff6001820154169060028101546003820154600483015491611fe360ff600a600587015496015416956040519788526020880190612388565b60408601526060850152608084015260a0830152151560c0820152f35b50346102bd5760403660031901126102bd57604060a091600435612022612334565b9060608451612031828261229a565b36903780151580612097575b612046906124d5565b8252600160205260088383200190600180861b031682526020522060048101549061207b600160ff6005840154169201612513565b916120896040518094612360565b606083015215156080820152f35b508254811061203d565b50346102bd5760203660031901126102bd576004356001600160401b038111610767576120d29036906004016122d2565b80516120dd816122bb565b906120eb604051928361229a565b8082526120fa601f19916122bb565b01835b8181106122375750507f00000000000000000000000000000000000000000000000000000000000000006001600160a01b0316835b83518110156121b957612145818561245b565b5190604051916396834ad360e01b83526004830152608082602481865afa80156121ae576001928791612190575b5061217e828661245b565b52612189818561245b565b5001612132565b6121a8915060803d8111611f6157611f53818361229a565b38612173565b6040513d88823e3d90fd5b8285604051918291602083016020845282518091526020604085019301915b8181106121e6575050500390f35b919350916020608082612229600194885160608091805160070b84526001600160401b036020820151166020850152604081015160030b60408501520151910152565b0194019101918493926121d8565b602090612242612436565b828286010152016120fd565b606081019081106001600160401b0382111761226957604052565b634e487b7160e01b600052604160045260246000fd5b608081019081106001600160401b0382111761226957604052565b90601f801991011681019081106001600160401b0382111761226957604052565b6001600160401b0381116122695760051b60200190565b9080601f8301121561232f5781356122e9816122bb565b926122f7604051948561229a565b81845260208085019260051b82010192831161232f57602001905b82821061231f5750505090565b8135815260209182019101612312565b600080fd5b602435906001600160a01b038216820361232f57565b600435906001600160a01b038216820361232f57565b906000905b6003821061237257505050565b6020806001928551815201930191019091612365565b9060058210156123955752565b634e487b7160e01b600052602160045260246000fd5b919082519283825260005b8481106123d7575050826000602080949584010152601f8019910116010190565b806020809284010151828286010152016123b6565b3461232f57600036600319011261232f576020604051603c8152f35b80548210156124205760005260206000200190600090565b634e487b7160e01b600052603260045260246000fd5b604051906124438261227f565b60006060838281528260208201528260408201520152565b80518210156124205760209160051b010190565b9081608091031261232f576040519060006124898361227f565b81518060070b810361076757835260208201516001600160401b03811681036107675760208401526040820151908160030b82036102bd57509060609160408401520151606082015290565b156124dc57565b60405162461bcd60e51b815260206004820152600f60248201526e125b9d985b1a590819d85b59481251608a1b6044820152606490fd5b60405191906000835b600382106125345750505061253260608361229a565b565b600160208192855481520193019101909161251c565b6000526001602052604060002060ff6001820154166005811015612395576125cc5760030154421061258e5760019060405161258760208261229a565b6000815290565b60009060405161259f60408261229a565b601a81527f4c6f62627920646561646c696e65206e6f742072656163686564000000000000602082015290565b506000906040516125de60408261229a565b601a81527f47616d65206973206e6f7420696e204c4f424259207374617465000000000000602082015290565b6000526001602052604060002060ff6001820154166005811015612395576004146126695760038101544210156126425750600090565b60048101544210156126545750600290565b6005015442101561266457600390565b600390565b50600490565b1561267657565b60405162461bcd60e51b815260206004820152601960248201527f416c726561647920696e20616e206163746976652067616d65000000000000006044820152606490fd5b60001981146126ca5760010190565b634e487b7160e01b600052601160045260246000fd5b919082018092116126ca57565b8054600160401b8110156122695761270a91600182018155612408565b81546001600160a01b0393841660039290921b91821b9390911b1916919091179055565b906020825491828152019160005260206000209060005b8181106127525750505090565b8254845260209093019260019283019201612745565b1561276f57565b60405162461bcd60e51b8152602060048201526013602482015272496e76616c69642067616d652073746174757360681b6044820152606490fd5b6001600160a01b0316600090815260046020526040902054806127ce575b50600090565b80600052600160205260ff600160406000200154166005811015612395576004146127c85790565b8015801561298c575b6129535760005260016020526040600020600560ff6001830154169101548042906005841015612395576003840361290f578082106128cd57156128585760019360405161284e60208261229a565b6000815293929190565b60009360405161286960808261229a565b604581527f5265736f6c7574696f6e20646561646c696e65206e6f7420736574202867616d60208201527f65206d6179206e6f742068617665207472616e736974696f6e65642070726f7060408201526465726c792960d81b606082015293929190565b506000936040516128df60408261229a565b601f81527f5265736f6c7574696f6e20646561646c696e65206e6f74207265616368656400602082015293929190565b505060009260405161292260408261229a565b602081527f47616d65206973206e6f7420696e205245534f4c5554494f4e2073746174757360208201529291904290565b5060009060405161296560408261229a565b600f81526e125b9d985b1a590819d85b59481251608a1b6020820152906000906000904290565b506000548110156127ff565b1561299f57565b60405162461bcd60e51b815260206004820152601960248201527f4c6f626279207068617365206e6f7420656e64656420796574000000000000006044820152606490fd5b156129eb57565b60405162461bcd60e51b815260206004820152601760248201527f436172647320616c72656164792067656e6572617465640000000000000000006044820152606490fd5b8054600160401b81101561226957612a4d91600182018155612408565b819291549060031b91821b91600019901b1916179055565b806000526001602052604060002090600760009201903360601b925b600a8110612a8f5750505050565b600190612ad461271060405160208101904282524460408201528660608201528460808201528860a082015260948152612aca60b48261229a565b5190200685612a30565b01612a8156fea2646970667358221220770ef5944cb9181b2838e719318e1eb5e97373c522368825d0a620424ad70b7064736f6c634300081c0033",
  "linkReferences": {},
  "deployedLinkReferences": {}
}