{
  "_format": "hh-sol-artifact-1",
  "contractName": "TradingCardGame",
  "sourceName": "contracts/TradingCardGame.sol",
  "abi": [
    {
      "inputs": [
        {
          "internalType": "address",
          "name": "_pythAddress",
          "type": "address"
        }
      ],
      "stateMutability": "nonpayable",
      "type": "constructor"
    },
    {
      "anonymous": false,
      "inputs": [
        {
          "indexed": true,
          "internalType": "uint256",
          "name": "gameId",
          "type": "uint256"
        },
        {
          "indexed": true,
          "internalType": "address",
          "name": "player",
          "type": "address"
        },
        {
          "indexed": false,
          "internalType": "uint256[3]",
          "name": "cards",
          "type": "uint256[3]"
        }
      ],
      "name": "ChoicesCommitted",
      "type": "event"
    },
    {
      "anonymous": false,
      "inputs": [
        {
          "indexed": true,
          "internalType": "uint256",
          "name": "gameId",
          "type": "uint256"
        },
        {
          "indexed": false,
          "internalType": "uint256[]",
          "name": "cards",
          "type": "uint256[]"
        }
      ],
      "name": "GameActive",
      "type": "event"
    },
    {
      "anonymous": false,
      "inputs": [
        {
          "indexed": true,
          "internalType": "uint256",
          "name": "gameId",
          "type": "uint256"
        }
      ],
      "name": "GameEnded",
      "type": "event"
    },
    {
      "anonymous": false,
      "inputs": [
        {
          "indexed": true,
          "internalType": "uint256",
          "name": "gameId",
          "type": "uint256"
        },
        {
          "indexed": true,
          "internalType": "address",
          "name": "starter",
          "type": "address"
        }
      ],
      "name": "GameStarted",
      "type": "event"
    },
    {
      "anonymous": false,
      "inputs": [
        {
          "indexed": true,
          "internalType": "uint256",
          "name": "gameId",
          "type": "uint256"
        },
        {
          "indexed": true,
          "internalType": "address",
          "name": "player",
          "type": "address"
        }
      ],
      "name": "PlayerJoined",
      "type": "event"
    },
    {
      "anonymous": false,
      "inputs": [
        {
          "indexed": true,
          "internalType": "uint256",
          "name": "gameId",
          "type": "uint256"
        },
        {
          "indexed": true,
          "internalType": "address",
          "name": "player",
          "type": "address"
        },
        {
          "indexed": false,
          "internalType": "uint256",
          "name": "points",
          "type": "uint256"
        }
      ],
      "name": "PointsAwarded",
      "type": "event"
    },
    {
      "anonymous": false,
      "inputs": [
        {
          "indexed": true,
          "internalType": "uint256",
          "name": "gameId",
          "type": "uint256"
        }
      ],
      "name": "PricesUpdated",
      "type": "event"
    },
    {
      "inputs": [],
      "name": "CHOICE_DURATION",
      "outputs": [
        {
          "internalType": "uint256",
          "name": "",
          "type": "uint256"
        }
      ],
      "stateMutability": "view",
      "type": "function"
    },
    {
      "inputs": [],
      "name": "LOBBY_DURATION",
      "outputs": [
        {
          "internalType": "uint256",
          "name": "",
          "type": "uint256"
        }
      ],
      "stateMutability": "view",
      "type": "function"
    },
    {
      "inputs": [],
      "name": "MIN_PLAYERS",
      "outputs": [
        {
          "internalType": "uint256",
          "name": "",
          "type": "uint256"
        }
      ],
      "stateMutability": "view",
      "type": "function"
    },
    {
      "inputs": [],
      "name": "POINTS_MARKET_CAP_VOLUME",
      "outputs": [
        {
          "internalType": "uint256",
          "name": "",
          "type": "uint256"
        }
      ],
      "stateMutability": "view",
      "type": "function"
    },
    {
      "inputs": [],
      "name": "POINTS_PERCENTAGE_CHANGE",
      "outputs": [
        {
          "internalType": "uint256",
          "name": "",
          "type": "uint256"
        }
      ],
      "stateMutability": "view",
      "type": "function"
    },
    {
      "inputs": [],
      "name": "POINTS_PRICE_ABOVE_BELOW",
      "outputs": [
        {
          "internalType": "uint256",
          "name": "",
          "type": "uint256"
        }
      ],
      "stateMutability": "view",
      "type": "function"
    },
    {
      "inputs": [],
      "name": "POINTS_PRICE_UP_DOWN",
      "outputs": [
        {
          "internalType": "uint256",
          "name": "",
          "type": "uint256"
        }
      ],
      "stateMutability": "view",
      "type": "function"
    },
    {
      "inputs": [],
      "name": "RESOLUTION_DURATION",
      "outputs": [
        {
          "internalType": "uint256",
          "name": "",
          "type": "uint256"
        }
      ],
      "stateMutability": "view",
      "type": "function"
    },
    {
      "inputs": [
        {
          "internalType": "uint256",
          "name": "",
          "type": "uint256"
        }
      ],
      "name": "assetPriceIds",
      "outputs": [
        {
          "internalType": "bytes32",
          "name": "",
          "type": "bytes32"
        }
      ],
      "stateMutability": "view",
      "type": "function"
    },
    {
      "inputs": [
        {
          "internalType": "uint256",
          "name": "_gameId",
          "type": "uint256"
        }
      ],
      "name": "canStartGame",
      "outputs": [
        {
          "internalType": "bool",
          "name": "canStart",
          "type": "bool"
        },
        {
          "internalType": "string",
          "name": "reason",
          "type": "string"
        }
      ],
      "stateMutability": "view",
      "type": "function"
    },
    {
      "inputs": [
        {
          "internalType": "uint256",
          "name": "_gameId",
          "type": "uint256"
        },
        {
          "internalType": "uint256[3]",
          "name": "_cardNumbers",
          "type": "uint256[3]"
        }
      ],
      "name": "commitChoices",
      "outputs": [],
      "stateMutability": "nonpayable",
      "type": "function"
    },
    {
      "inputs": [],
      "name": "createGame",
      "outputs": [
        {
          "internalType": "uint256",
          "name": "",
          "type": "uint256"
        }
      ],
      "stateMutability": "nonpayable",
      "type": "function"
    },
    {
      "inputs": [
        {
          "internalType": "uint256",
          "name": "_gameId",
          "type": "uint256"
        }
      ],
      "name": "endGame",
      "outputs": [],
      "stateMutability": "nonpayable",
      "type": "function"
    },
    {
      "inputs": [
        {
          "internalType": "uint256",
          "name": "",
          "type": "uint256"
        }
      ],
      "name": "games",
      "outputs": [
        {
          "internalType": "uint256",
          "name": "gameId",
          "type": "uint256"
        },
        {
          "internalType": "enum TradingCardGame.GameStatus",
          "name": "status",
          "type": "uint8"
        },
        {
          "internalType": "uint256",
          "name": "startTime",
          "type": "uint256"
        },
        {
          "internalType": "uint256",
          "name": "lobbyDeadline",
          "type": "uint256"
        },
        {
          "internalType": "uint256",
          "name": "choiceDeadline",
          "type": "uint256"
        },
        {
          "internalType": "uint256",
          "name": "resolutionDeadline",
          "type": "uint256"
        },
        {
          "internalType": "bool",
          "name": "resolved",
          "type": "bool"
        }
      ],
      "stateMutability": "view",
      "type": "function"
    },
    {
      "inputs": [
        {
          "internalType": "uint256",
          "name": "_gameId",
          "type": "uint256"
        }
      ],
      "name": "getGameCards",
      "outputs": [
        {
          "internalType": "uint256[]",
          "name": "",
          "type": "uint256[]"
        }
      ],
      "stateMutability": "view",
      "type": "function"
    },
    {
      "inputs": [
        {
          "internalType": "uint256",
          "name": "_gameId",
          "type": "uint256"
        }
      ],
      "name": "getGamePlayers",
      "outputs": [
        {
          "internalType": "address[]",
          "name": "",
          "type": "address[]"
        }
      ],
      "stateMutability": "view",
      "type": "function"
    },
    {
      "inputs": [
        {
          "internalType": "uint256",
          "name": "_gameId",
          "type": "uint256"
        }
      ],
      "name": "getGameState",
      "outputs": [
        {
          "internalType": "enum TradingCardGame.GameStatus",
          "name": "status",
          "type": "uint8"
        },
        {
          "internalType": "uint256",
          "name": "startTime",
          "type": "uint256"
        },
        {
          "internalType": "uint256",
          "name": "lobbyDeadline",
          "type": "uint256"
        },
        {
          "internalType": "uint256",
          "name": "choiceDeadline",
          "type": "uint256"
        },
        {
          "internalType": "uint256",
          "name": "resolutionDeadline",
          "type": "uint256"
        },
        {
          "internalType": "uint256",
          "name": "playerCount",
          "type": "uint256"
        },
        {
          "internalType": "uint256",
          "name": "cardCount",
          "type": "uint256"
        }
      ],
      "stateMutability": "view",
      "type": "function"
    },
    {
      "inputs": [],
      "name": "getNextGameId",
      "outputs": [
        {
          "internalType": "uint256",
          "name": "",
          "type": "uint256"
        }
      ],
      "stateMutability": "view",
      "type": "function"
    },
    {
      "inputs": [
        {
          "internalType": "uint256",
          "name": "_gameId",
          "type": "uint256"
        },
        {
          "internalType": "address",
          "name": "_player",
          "type": "address"
        }
      ],
      "name": "getPlayerChoices",
      "outputs": [
        {
          "internalType": "uint256[3]",
          "name": "selectedCards",
          "type": "uint256[3]"
        },
        {
          "internalType": "uint256",
          "name": "committedAt",
          "type": "uint256"
        },
        {
          "internalType": "bool",
          "name": "committed",
          "type": "bool"
        }
      ],
      "stateMutability": "view",
      "type": "function"
    },
    {
      "inputs": [
        {
          "internalType": "address",
          "name": "_player",
          "type": "address"
        }
      ],
      "name": "getPlayerScore",
      "outputs": [
        {
          "internalType": "uint256",
          "name": "totalPoints",
          "type": "uint256"
        },
        {
          "internalType": "uint256",
          "name": "gamesPlayed",
          "type": "uint256"
        },
        {
          "internalType": "uint256",
          "name": "gamesWon",
          "type": "uint256"
        }
      ],
      "stateMutability": "view",
      "type": "function"
    },
    {
      "inputs": [
        {
          "internalType": "uint256",
          "name": "_gameId",
          "type": "uint256"
        },
        {
          "internalType": "uint256",
          "name": "_cardNumber",
          "type": "uint256"
        }
      ],
      "name": "getPredictionResult",
      "outputs": [
        {
          "internalType": "bool",
          "name": "correct",
          "type": "bool"
        },
        {
          "internalType": "uint256",
          "name": "pointsEarned",
          "type": "uint256"
        }
      ],
      "stateMutability": "view",
      "type": "function"
    },
    {
      "inputs": [],
      "name": "isContractActive",
      "outputs": [
        {
          "internalType": "bool",
          "name": "",
          "type": "bool"
        }
      ],
      "stateMutability": "pure",
      "type": "function"
    },
    {
      "inputs": [
        {
          "internalType": "uint256",
          "name": "_gameId",
          "type": "uint256"
        }
      ],
      "name": "joinGame",
      "outputs": [],
      "stateMutability": "nonpayable",
      "type": "function"
    },
    {
      "inputs": [
        {
          "internalType": "uint256",
          "name": "",
          "type": "uint256"
        }
      ],
      "name": "leaderboard",
      "outputs": [
        {
          "internalType": "address",
          "name": "",
          "type": "address"
        }
      ],
      "stateMutability": "view",
      "type": "function"
    },
    {
      "inputs": [
        {
          "internalType": "address",
          "name": "",
          "type": "address"
        }
      ],
      "name": "playerActiveGame",
      "outputs": [
        {
          "internalType": "uint256",
          "name": "",
          "type": "uint256"
        }
      ],
      "stateMutability": "view",
      "type": "function"
    },
    {
      "inputs": [
        {
          "internalType": "address",
          "name": "",
          "type": "address"
        }
      ],
      "name": "playerScores",
      "outputs": [
        {
          "internalType": "address",
          "name": "player",
          "type": "address"
        },
        {
          "internalType": "uint256",
          "name": "totalPoints",
          "type": "uint256"
        },
        {
          "internalType": "uint256",
          "name": "gamesPlayed",
          "type": "uint256"
        },
        {
          "internalType": "uint256",
          "name": "gamesWon",
          "type": "uint256"
        }
      ],
      "stateMutability": "view",
      "type": "function"
    },
    {
      "inputs": [],
      "name": "pyth",
      "outputs": [
        {
          "internalType": "contract IPyth",
          "name": "",
          "type": "address"
        }
      ],
      "stateMutability": "view",
      "type": "function"
    },
    {
      "inputs": [
        {
          "internalType": "uint256",
          "name": "_assetIndex",
          "type": "uint256"
        },
        {
          "internalType": "bytes32",
          "name": "_priceId",
          "type": "bytes32"
        }
      ],
      "name": "setAssetPriceId",
      "outputs": [],
      "stateMutability": "nonpayable",
      "type": "function"
    },
    {
      "inputs": [
        {
          "internalType": "uint256",
          "name": "_gameId",
          "type": "uint256"
        },
        {
          "internalType": "bool",
          "name": "_useSecureRandomness",
          "type": "bool"
        }
      ],
      "name": "startGame",
      "outputs": [],
      "stateMutability": "nonpayable",
      "type": "function"
    },
    {
      "inputs": [
        {
          "internalType": "uint256",
          "name": "_gameId",
          "type": "uint256"
        }
      ],
      "name": "transitionToResolution",
      "outputs": [],
      "stateMutability": "nonpayable",
      "type": "function"
    },
    {
      "inputs": [
        {
          "internalType": "uint256",
          "name": "_gameId",
          "type": "uint256"
        },
        {
          "internalType": "bytes[]",
          "name": "_priceUpdateData",
          "type": "bytes[]"
        },
        {
          "internalType": "bytes32[]",
          "name": "",
          "type": "bytes32[]"
        },
        {
          "internalType": "uint256",
          "name": "_updateFee",
          "type": "uint256"
        }
      ],
      "name": "updatePricesAndResolve",
      "outputs": [],
      "stateMutability": "payable",
      "type": "function"
    }
  ],
  "bytecode": "0x60a0604052348015600f57600080fd5b50604051612665380380612665833981016040819052602c916041565b6001600160a01b03166080526001600055606f565b600060208284031215605257600080fd5b81516001600160a01b0381168114606857600080fd5b9392505050565b6080516125d46100916000396000818161068f0152610dbb01526125d46000f3fe6080604052600436106101d85760003560e01c80638f5949f911610102578063e085c53911610095578063efaa55a011610064578063efaa55a01461063d578063f79c913e1461065d578063f98d06f01461067d578063ffde0c74146106b157600080fd5b8063e085c539146105ad578063e5c43ef11461035e578063e7fad8af14610613578063ede8af011461062857600080fd5b8063bee4c6d3116100d1578063bee4c6d314610520578063bf36839914610535578063d0399bb81461056d578063d7793c191461058d57600080fd5b80638f5949f9146104bc5780639a18e981146104d8578063a457d3d6146104f8578063b0fd159f1461050b57600080fd5b80635c5c83821161017a5780637f57504f116101495780637f57504f1461041657806385f07bbe1461044d578063860cbc7714610462578063863df0a11461048f57600080fd5b80635c5c83821461035e57806362550ae1146103735780637255d729146103eb5780637ca90e591461040057600080fd5b806315a40f49116101b657806315a40f49146102a7578063392b749c146102d45780633c8aec3f1461030257806353644f311461032f57600080fd5b806310c28d31146101dd578063117a5b90146102155780631226897a14610284575b600080fd5b3480156101e957600080fd5b506101fd6101f8366004611ea6565b6106e4565b60405161020c93929190611ef5565b60405180910390f35b34801561022157600080fd5b50610271610230366004611f19565b60016020819052600091825260409091208054918101546002820154600383015460048401546005850154600a9095015460ff948516959394929391921687565b60405161020c9796959493929190611f6a565b34801561029057600080fd5b50610299601481565b60405190815260200161020c565b3480156102b357600080fd5b506102c76102c2366004611f19565b6107a0565b60405161020c9190611fa9565b3480156102e057600080fd5b506102f46102ef366004611f19565b61083e565b60405161020c92919061203b565b34801561030e57600080fd5b5061029961031d366004611f19565b60056020526000908152604090205481565b34801561033b57600080fd5b5061035c61034a36600461205e565b60009182526005602052604090912055565b005b34801561036a57600080fd5b50610299603c81565b34801561037f57600080fd5b506103c161038e366004612080565b600260208190526000918252604090912080546001820154928201546003909201546001600160a01b0390911692919084565b604080516001600160a01b039095168552602085019390935291830152606082015260800161020c565b3480156103f757600080fd5b5061029961094b565b34801561040c57600080fd5b5061029961025881565b34801561042257600080fd5b5061043661043136600461205e565b610aa0565b60408051921515835260208301919091520161020c565b34801561045957600080fd5b50610299600281565b34801561046e57600080fd5b5061048261047d366004611f19565b610b03565b60405161020c91906120a2565b34801561049b57600080fd5b506102996104aa366004612080565b60046020526000908152604090205481565b3480156104c857600080fd5b506040516001815260200161020c565b3480156104e457600080fd5b5061035c6104f3366004611f19565b610b96565b61035c6105063660046121b2565b610c95565b34801561051757600080fd5b50610299601281565b34801561052c57600080fd5b50610299600f81565b34801561054157600080fd5b50610555610550366004611f19565b610e66565b6040516001600160a01b03909116815260200161020c565b34801561057957600080fd5b5061035c610588366004611f19565b610e90565b34801561059957600080fd5b5061035c6105a8366004612308565b61126e565b3480156105b957600080fd5b506105f86105c8366004612080565b6001600160a01b031660009081526002602081905260409091206001810154918101546003909101549192909190565b6040805193845260208401929092529082015260600161020c565b34801561061f57600080fd5b50610299600a81565b34801561063457600080fd5b50600054610299565b34801561064957600080fd5b5061035c610658366004611f19565b611350565b34801561066957600080fd5b5061035c61067836600461233d565b6115b6565b34801561068957600080fd5b506105557f000000000000000000000000000000000000000000000000000000000000000081565b3480156106bd57600080fd5b506106d16106cc366004611f19565b6119af565b60405161020c97969594939291906123c6565b6106ec611e19565b60008084600081118015610701575060005481105b6107265760405162461bcd60e51b815260040161071d90612404565b60405180910390fd5b60008681526001602081815260408084206001600160a01b038a168552600801909152918290206004810154600582015484516060810195869052929493850193919260ff90911691849060039082845b815481526020019060010190808311610777575050505050925094509450945050509250925092565b6060816000811180156107b4575060005481105b6107d05760405162461bcd60e51b815260040161071d90612404565b6000838152600160209081526040918290206006018054835181840281018401909452808452909183018282801561083157602002820191906000526020600020905b81546001600160a01b03168152600190910190602001808311610813575b5050505050915050919050565b6000606082600081118015610854575060005481105b6108705760405162461bcd60e51b815260040161071d90612404565b600084815260016020526040812090600182015460ff16600481111561089857610898611f32565b146108df5760006040518060400160405280601a81526020017f47616d65206973206e6f7420696e204c4f4242592073746174650000000000008152509350935050610945565b806003015442101561092d5760006040518060400160405280601a81526020017f4c6f62627920646561646c696e65206e6f7420726561636865640000000000008152509350935050610945565b60016040518060200160405280600081525093509350505b50915091565b3360009081526004602052604081205480156109e55760008181526001602052604090206004600182015460ff16600481111561098a5761098a611f32565b146109d35760405162461bcd60e51b8152602060048201526019602482015278416c726561647920696e20616e206163746976652067616d6560381b604482015260640161071d565b50336000908152600460205260408120555b6000805481806109f483612443565b909155506000818152600160208190526040909120828155908101805460ff19169055426002820181905591925090610a2f90603c9061245c565b60038201556006810180546001810182556000918252602080832090910180546001600160a01b031916339081179091558083526004909152604080832085905551909184917ffadb9547847a0c2c31f4c02590545e318d33d7aae99071caecf3fa4ce3cd7dca9190a35092915050565b60008083600081118015610ab5575060005481105b610ad15760405162461bcd60e51b815260040161071d90612404565b50505060009182526001602081815260408085209385526009909301905291209081015460029091015460ff90911691565b606081600081118015610b17575060005481105b610b335760405162461bcd60e51b815260040161071d90612404565b6000838152600160209081526040918290206007018054835181840281018401909452808452909183018282801561083157602002820191906000526020600020905b815481526020019060010190808311610b76575050505050915050919050565b80600081118015610ba8575060005481105b610bc45760405162461bcd60e51b815260040161071d90612404565b816002806000838152600160208190526040909120015460ff166004811115610bef57610bef611f32565b14610c0c5760405162461bcd60e51b815260040161071d9061246f565b60008481526001602052604090206004810154421015610c6e5760405162461bcd60e51b815260206004820152601b60248201527f43686f69636520646561646c696e65206e6f7420726561636865640000000000604482015260640161071d565b60018101805460ff19166003179055610c896102584261245c565b60059091015550505050565b83600081118015610ca7575060005481105b610cc35760405162461bcd60e51b815260040161071d90612404565b846003806000838152600160208190526040909120015460ff166004811115610cee57610cee611f32565b14610d0b5760405162461bcd60e51b815260040161071d9061246f565b600087815260016020526040902034851115610d5c5760405162461bcd60e51b815260206004820152601060248201526f496e73756666696369656e742066656560801b604482015260640161071d565b600a81015460ff1615610da45760405162461bcd60e51b815260206004820152601060248201526f105b1c9958591e481c995cdbdb1d995960821b604482015260640161071d565b604051631df3cbc560e31b81526001600160a01b037f0000000000000000000000000000000000000000000000000000000000000000169063ef9e5e28908790610df2908b9060040161249c565b6000604051808303818588803b158015610e0b57600080fd5b505af1158015610e1f573d6000803e3d6000fd5b50506040518b93507f702ec30635253cae6d3600d38314e616495cf01545d34e549c49ebf6451dab3b925060009150a2600a01805460ff1916600117905550505050505050565b60038181548110610e7657600080fd5b6000918252602090912001546001600160a01b0316905081565b80600081118015610ea2575060005481105b610ebe5760405162461bcd60e51b815260040161071d90612404565b816003806000838152600160208190526040909120015460ff166004811115610ee957610ee9611f32565b14610f065760405162461bcd60e51b815260040161071d9061246f565b60008481526001602052604090206005810154421015610f685760405162461bcd60e51b815260206004820152601f60248201527f5265736f6c7574696f6e20646561646c696e65206e6f74207265616368656400604482015260640161071d565b60005b600682015481101561118f576000826006018281548110610f8e57610f8e612501565b60009182526020808320909101546001600160a01b031680835260088601909152604090912060058101549192509060ff16610fcb575050611187565b6000805b60038110156110af576000836001018260038110610fef57610fef612501565b0154600081815260098901602052604090206001015490915060ff1661108657600061101b8c83611a35565b905060008161102b576000611034565b61103483611a3e565b604080516060810182528581529315156020808601918252858301938452600087815260098e0190915291909120935184555160018401805460ff191691151591909117905551600290920191909155505b60008181526009880160205260409020600201546110a4908461245c565b925050600101610fcf565b506001600160a01b038316600090815260026020526040812060010180548392906110db90849061245c565b90915550506001600160a01b038316600090815260026020819052604082200180549161110783612443565b9091555050801561113f576001600160a01b038316600090815260026020526040812060030180549161113983612443565b91905055505b826001600160a01b0316897f0dbadce3c07b5bc30ebbe2bcec3d6bb95f9b3a0bb33178ff0d61e4d7d43399158360405161117b91815260200190565b60405180910390a35050505b600101610f6b565b5060018101805460ff1916600417905560005b600682015481101561123b5785600460008460060184815481106111c8576111c8612501565b60009182526020808320909101546001600160a01b03168352820192909252604001902054036112335760006004600084600601848154811061120d5761120d612501565b60009182526020808320909101546001600160a01b031683528201929092526040019020555b6001016111a2565b5060405185907fce24807f7e4b60b4e641462f13029fa5e5f79075bbc3f8e5cd43ecd19661d76090600090a25050505050565b81600081118015611280575060005481105b61129c5760405162461bcd60e51b815260040161071d90612404565b826000806000838152600160208190526040909120015460ff1660048111156112c7576112c7611f32565b146112e45760405162461bcd60e51b815260040161071d9061246f565b6000858152600160205260409020600381015442101561133e5760405162461bcd60e51b815260206004820152601560248201527410d85b9b9bdd081cdd185c9d0819d85b59481e595d605a1b604482015260640161071d565b6113488686611b66565b505050505050565b80600081118015611362575060005481105b61137e5760405162461bcd60e51b815260040161071d90612404565b816000806000838152600160208190526040909120015460ff1660048111156113a9576113a9611f32565b146113c65760405162461bcd60e51b815260040161071d9061246f565b600084815260016020526040902060038101544211156114175760405162461bcd60e51b815260206004820152600c60248201526b131bd8989e4818db1bdcd95960a21b604482015260640161071d565b60005b60068201548110156114a057336001600160a01b031682600601828154811061144557611445612501565b6000918252602090912001546001600160a01b0316036114985760405162461bcd60e51b815260206004820152600e60248201526d105b1c9958591e481a9bda5b995960921b604482015260640161071d565b60010161141a565b503360009081526004602052604090205480158015906114c05750858114155b156115495760008181526001602052604090206004600182015460ff1660048111156114ee576114ee611f32565b146115375760405162461bcd60e51b8152602060048201526019602482015278416c726561647920696e20616e206163746976652067616d6560381b604482015260640161071d565b50336000908152600460205260408120555b6006820180546001810182556000918252602080832090910180546001600160a01b031916339081179091558083526004909152604080832089905551909188917f87969bc7faf902221a147b95ceba76e011c5efb0339a0a8ee7a2bb82d9cfbbd69190a3505050505050565b816000811180156115c8575060005481105b6115e45760405162461bcd60e51b815260040161071d90612404565b826002806000838152600160208190526040909120015460ff16600481111561160f5761160f611f32565b1461162c5760405162461bcd60e51b815260040161071d9061246f565b600085815260016020526040902060048101544211156116875760405162461bcd60e51b815260206004820152601660248201527510da1bda58d948191958591b1a5b99481c185cdcd95960521b604482015260640161071d565b33600090815260088201602052604090206005015460ff16156116e05760405162461bcd60e51b8152602060048201526011602482015270105b1c9958591e4818dbdb5b5a5d1d1959607a1b604482015260640161071d565b6000805b600683015481101561173a57336001600160a01b031683600601828154811061170f5761170f612501565b6000918252602090912001546001600160a01b031603611732576001915061173a565b6001016116e4565b50806117885760405162461bcd60e51b815260206004820152601960248201527f4e6f74206120706c6179657220696e20746869732067616d6500000000000000604482015260640161071d565b60005b600381101561183e576000805b60078501548110156117f1578883600381106117b6576117b6612501565b60200201518560070182815481106117d0576117d0612501565b9060005260206000200154036117e957600191506117f1565b600101611798565b50806118355760405162461bcd60e51b815260206004820152601360248201527224b73b30b634b21031b0b93210373ab6b132b960691b604482015260640161071d565b5060010161178b565b50604080516080810182523380825260208083018a8152428486015260016060850181905260009384526008880190925293909120825181546001600160a01b0319166001600160a01b0390911617815592519192916118a2918301906003611e37565b5060408281015160048301556060909201516005909101805460ff191691151591909117905551339088907fd67de08bd4ba5b6a6548667370488a8781753615acb89ae1ac1f96f6c270ecf0906118fa908a90612517565b60405180910390a3600160005b600684015481101561196e5783600801600085600601838154811061192e5761192e612501565b60009182526020808320909101546001600160a01b0316835282019290925260400190206005015460ff16611966576000915061196e565b600101611907565b50808061197f575082600401544210155b156119a55760018301805460ff1916600317905561199f6102584261245c565b60058401555b5050505050505050565b6000806000806000806000876000811180156119cc575060005481105b6119e85760405162461bcd60e51b815260040161071d90612404565b50505060009586525050600160208190526040909420938401546002850154600386015460048701546005880154600689015460079099015460ff90951699939892975090955093509190565b60005b92915050565b600080600a611a4d818561253b565b611a57919061254f565b90506000611a6660078361254f565b6006811115611a7757611a77611f32565b90506000816006811115611a8d57611a8d611f32565b1480611aaa57506001816006811115611aa857611aa8611f32565b145b15611ab95750600a9392505050565b6002816006811115611acd57611acd611f32565b1480611aea57506003816006811115611ae857611ae8611f32565b145b15611af95750600f9392505050565b6004816006811115611b0d57611b0d611f32565b1480611b2a57506005816006811115611b2857611b28611f32565b145b15611b39575060129392505050565b6006816006811115611b4d57611b4d611f32565b03611b5c575060149392505050565b5060009392505050565b600082815260016020526040812090600182015460ff166004811115611b8e57611b8e611f32565b14611bcf5760405162461bcd60e51b815260206004820152601160248201527047616d65206e6f7420696e206c6f62627960781b604482015260640161071d565b611bd98383611c3a565b60018101805460ff19166002179055611bf3603c4261245c565b600482015560405183907f1e16023bc0e15b4ad55f8e37dccf554d1451b0d26c8e55cd0e7e041eea33c75d90611c2d906007850190612563565b60405180910390a2505050565b6000828152600160205260409020600781015415611c9a5760405162461bcd60e51b815260206004820152601760248201527f436172647320616c72656164792067656e657261746564000000000000000000604482015260640161071d565b8115611cae57611ca983611cb7565b505050565b611ca983611d74565b60008181526001602090815260408083208151610140810183526104d2815261162e9381019390935261233491830191909152610d806060830152611ed2608083015261092960a0830152611a8560c08301526111d760e08301526122c561010083015261054d610120830152915b600a811015611d6e57826007018282600a8110611d4557611d45612501565b602090810291909101518254600181810185556000948552929093209092019190915501611d26565b50505050565b6000818152600160205260408120905b600a811015611ca95760408051426020820152449181019190915260608082018590526080820183905233901b6bffffffffffffffffffffffff191660a08201526000906127109060b4016040516020818303038152906040528051906020012060001c611df2919061254f565b60078401805460018181018355600092835260209092200191909155919091019050611d84565b60405180606001604052806003906020820280368337509192915050565b8260038101928215611e65579160200282015b82811115611e65578251825591602001919060010190611e4a565b50611e71929150611e75565b5090565b5b80821115611e715760008155600101611e76565b80356001600160a01b0381168114611ea157600080fd5b919050565b60008060408385031215611eb957600080fd5b82359150611ec960208401611e8a565b90509250929050565b8060005b6003811015611d6e578151845260209384019390910190600101611ed6565b60a08101611f038286611ed2565b8360608301528215156080830152949350505050565b600060208284031215611f2b57600080fd5b5035919050565b634e487b7160e01b600052602160045260246000fd5b60058110611f6657634e487b7160e01b600052602160045260246000fd5b9052565b87815260e08101611f7e6020830189611f48565b60408201969096526060810194909452608084019290925260a0830152151560c09091015292915050565b602080825282518282018190526000918401906040840190835b81811015611fea5783516001600160a01b0316835260209384019390920191600101611fc3565b509095945050505050565b6000815180845260005b8181101561201b57602081850181015186830182015201611fff565b506000602082860101526020601f19601f83011685010191505092915050565b82151581526040602082015260006120566040830184611ff5565b949350505050565b6000806040838503121561207157600080fd5b50508035926020909101359150565b60006020828403121561209257600080fd5b61209b82611e8a565b9392505050565b602080825282518282018190526000918401906040840190835b81811015611fea5783518352602093840193909201916001016120bc565b634e487b7160e01b600052604160045260246000fd5b604051601f8201601f1916810167ffffffffffffffff81118282101715612119576121196120da565b604052919050565b600067ffffffffffffffff82111561213b5761213b6120da565b5060051b60200190565b600082601f83011261215657600080fd5b813561216961216482612121565b6120f0565b8082825260208201915060208360051b86010192508583111561218b57600080fd5b602085015b838110156121a8578035835260209283019201612190565b5095945050505050565b600080600080608085870312156121c857600080fd5b84359350602085013567ffffffffffffffff8111156121e657600080fd5b8501601f810187136121f757600080fd5b803561220561216482612121565b8082825260208201915060208360051b85010192508983111561222757600080fd5b602084015b838110156122cb57803567ffffffffffffffff81111561224b57600080fd5b8501603f81018c1361225c57600080fd5b602081013567ffffffffffffffff811115612279576122796120da565b61228c601f8201601f19166020016120f0565b8181526040838301018e10156122a157600080fd5b8160408401602083013760006020838301015280865250505060208301925060208101905061222c565b509550505050604085013567ffffffffffffffff8111156122eb57600080fd5b6122f787828801612145565b949793965093946060013593505050565b6000806040838503121561231b57600080fd5b823591506020830135801515811461233257600080fd5b809150509250929050565b6000806080838503121561235057600080fd5b82359150603f8301841361236357600080fd5b6040516060810167ffffffffffffffff81118282101715612386576123866120da565b60405280608085018681111561239b57600080fd5b602086015b818110156123b85780358352602092830192016123a0565b505050809150509250929050565b60e081016123d4828a611f48565b8760208301528660408301528560608301528460808301528360a08301528260c083015298975050505050505050565b6020808252600f908201526e125b9d985b1a590819d85b59481251608a1b604082015260600190565b634e487b7160e01b600052601160045260246000fd5b6000600182016124555761245561242d565b5060010190565b80820180821115611a3857611a3861242d565b602080825260139082015272496e76616c69642067616d652073746174757360681b604082015260600190565b6000602082016020835280845180835260408501915060408160051b86010192506020860160005b828110156124f557603f198786030184526124e0858351611ff5565b945060209384019391909101906001016124c4565b50929695505050505050565b634e487b7160e01b600052603260045260246000fd5b60608101611a388284611ed2565b634e487b7160e01b600052601260045260246000fd5b60008261254a5761254a612525565b500490565b60008261255e5761255e612525565b500690565b602080825282548282018190526000848152918220906040840190835b81811015611fea57835483526001938401936020909301920161258056fea264697066735822122005ae462a4a8b5f09e92941a882111a9fb643eeedaedc9c257cc966333fcf35c864736f6c634300081c0033",
  "linkReferences": {},
  "deployedLinkReferences": {}
}