{
  "_format": "hh-sol-artifact-1",
  "contractName": "TradingCardGame",
  "sourceName": "contracts/TradingCardGame.sol",
  "abi": [
    {
      "inputs": [
        {
          "internalType": "address",
          "name": "_pythAddress",
          "type": "address"
        }
      ],
      "stateMutability": "nonpayable",
      "type": "constructor"
    },
    {
      "anonymous": false,
      "inputs": [
        {
          "indexed": true,
          "internalType": "uint256",
          "name": "gameId",
          "type": "uint256"
        },
        {
          "indexed": true,
          "internalType": "address",
          "name": "player",
          "type": "address"
        },
        {
          "indexed": false,
          "internalType": "uint256[3]",
          "name": "cards",
          "type": "uint256[3]"
        }
      ],
      "name": "ChoicesCommitted",
      "type": "event"
    },
    {
      "anonymous": false,
      "inputs": [
        {
          "indexed": true,
          "internalType": "uint256",
          "name": "gameId",
          "type": "uint256"
        },
        {
          "indexed": false,
          "internalType": "uint256[]",
          "name": "cards",
          "type": "uint256[]"
        }
      ],
      "name": "GameActive",
      "type": "event"
    },
    {
      "anonymous": false,
      "inputs": [
        {
          "indexed": true,
          "internalType": "uint256",
          "name": "gameId",
          "type": "uint256"
        }
      ],
      "name": "GameEnded",
      "type": "event"
    },
    {
      "anonymous": false,
      "inputs": [
        {
          "indexed": true,
          "internalType": "uint256",
          "name": "gameId",
          "type": "uint256"
        },
        {
          "indexed": true,
          "internalType": "address",
          "name": "starter",
          "type": "address"
        }
      ],
      "name": "GameStarted",
      "type": "event"
    },
    {
      "anonymous": false,
      "inputs": [
        {
          "indexed": true,
          "internalType": "uint256",
          "name": "gameId",
          "type": "uint256"
        },
        {
          "indexed": true,
          "internalType": "address",
          "name": "player",
          "type": "address"
        }
      ],
      "name": "PlayerJoined",
      "type": "event"
    },
    {
      "anonymous": false,
      "inputs": [
        {
          "indexed": true,
          "internalType": "uint256",
          "name": "gameId",
          "type": "uint256"
        },
        {
          "indexed": true,
          "internalType": "address",
          "name": "player",
          "type": "address"
        },
        {
          "indexed": false,
          "internalType": "uint256",
          "name": "points",
          "type": "uint256"
        }
      ],
      "name": "PointsAwarded",
      "type": "event"
    },
    {
      "anonymous": false,
      "inputs": [
        {
          "indexed": true,
          "internalType": "uint256",
          "name": "gameId",
          "type": "uint256"
        }
      ],
      "name": "PricesUpdated",
      "type": "event"
    },
    {
      "inputs": [],
      "name": "CHOICE_DURATION",
      "outputs": [
        {
          "internalType": "uint256",
          "name": "",
          "type": "uint256"
        }
      ],
      "stateMutability": "view",
      "type": "function"
    },
    {
      "inputs": [],
      "name": "LOBBY_DURATION",
      "outputs": [
        {
          "internalType": "uint256",
          "name": "",
          "type": "uint256"
        }
      ],
      "stateMutability": "view",
      "type": "function"
    },
    {
      "inputs": [],
      "name": "MIN_PLAYERS",
      "outputs": [
        {
          "internalType": "uint256",
          "name": "",
          "type": "uint256"
        }
      ],
      "stateMutability": "view",
      "type": "function"
    },
    {
      "inputs": [],
      "name": "POINTS_MARKET_CAP_VOLUME",
      "outputs": [
        {
          "internalType": "uint256",
          "name": "",
          "type": "uint256"
        }
      ],
      "stateMutability": "view",
      "type": "function"
    },
    {
      "inputs": [],
      "name": "POINTS_PERCENTAGE_CHANGE",
      "outputs": [
        {
          "internalType": "uint256",
          "name": "",
          "type": "uint256"
        }
      ],
      "stateMutability": "view",
      "type": "function"
    },
    {
      "inputs": [],
      "name": "POINTS_PRICE_ABOVE_BELOW",
      "outputs": [
        {
          "internalType": "uint256",
          "name": "",
          "type": "uint256"
        }
      ],
      "stateMutability": "view",
      "type": "function"
    },
    {
      "inputs": [],
      "name": "POINTS_PRICE_UP_DOWN",
      "outputs": [
        {
          "internalType": "uint256",
          "name": "",
          "type": "uint256"
        }
      ],
      "stateMutability": "view",
      "type": "function"
    },
    {
      "inputs": [],
      "name": "RESOLUTION_DURATION",
      "outputs": [
        {
          "internalType": "uint256",
          "name": "",
          "type": "uint256"
        }
      ],
      "stateMutability": "view",
      "type": "function"
    },
    {
      "inputs": [
        {
          "internalType": "uint256",
          "name": "",
          "type": "uint256"
        }
      ],
      "name": "assetPriceIds",
      "outputs": [
        {
          "internalType": "bytes32",
          "name": "",
          "type": "bytes32"
        }
      ],
      "stateMutability": "view",
      "type": "function"
    },
    {
      "inputs": [
        {
          "internalType": "uint256",
          "name": "_gameId",
          "type": "uint256"
        }
      ],
      "name": "canEndGame",
      "outputs": [
        {
          "internalType": "bool",
          "name": "canEnd",
          "type": "bool"
        },
        {
          "internalType": "string",
          "name": "reason",
          "type": "string"
        },
        {
          "internalType": "enum TradingCardGame.GameStatus",
          "name": "gameStatus_",
          "type": "uint8"
        },
        {
          "internalType": "uint256",
          "name": "resolutionDeadline_",
          "type": "uint256"
        },
        {
          "internalType": "uint256",
          "name": "currentTime",
          "type": "uint256"
        }
      ],
      "stateMutability": "view",
      "type": "function"
    },
    {
      "inputs": [
        {
          "internalType": "uint256",
          "name": "_gameId",
          "type": "uint256"
        }
      ],
      "name": "canStartGame",
      "outputs": [
        {
          "internalType": "bool",
          "name": "canStart",
          "type": "bool"
        },
        {
          "internalType": "string",
          "name": "reason",
          "type": "string"
        }
      ],
      "stateMutability": "view",
      "type": "function"
    },
    {
      "inputs": [
        {
          "internalType": "uint256",
          "name": "_gameId",
          "type": "uint256"
        },
        {
          "internalType": "uint256[3]",
          "name": "_cardNumbers",
          "type": "uint256[3]"
        }
      ],
      "name": "commitChoices",
      "outputs": [],
      "stateMutability": "nonpayable",
      "type": "function"
    },
    {
      "inputs": [],
      "name": "createGame",
      "outputs": [
        {
          "internalType": "uint256",
          "name": "",
          "type": "uint256"
        }
      ],
      "stateMutability": "nonpayable",
      "type": "function"
    },
    {
      "inputs": [
        {
          "internalType": "uint256",
          "name": "_gameId",
          "type": "uint256"
        }
      ],
      "name": "endGame",
      "outputs": [],
      "stateMutability": "nonpayable",
      "type": "function"
    },
    {
      "inputs": [
        {
          "internalType": "uint256",
          "name": "",
          "type": "uint256"
        }
      ],
      "name": "games",
      "outputs": [
        {
          "internalType": "uint256",
          "name": "gameId",
          "type": "uint256"
        },
        {
          "internalType": "enum TradingCardGame.GameStatus",
          "name": "status",
          "type": "uint8"
        },
        {
          "internalType": "uint256",
          "name": "startTime",
          "type": "uint256"
        },
        {
          "internalType": "uint256",
          "name": "lobbyDeadline",
          "type": "uint256"
        },
        {
          "internalType": "uint256",
          "name": "choiceDeadline",
          "type": "uint256"
        },
        {
          "internalType": "uint256",
          "name": "resolutionDeadline",
          "type": "uint256"
        },
        {
          "internalType": "bool",
          "name": "resolved",
          "type": "bool"
        }
      ],
      "stateMutability": "view",
      "type": "function"
    },
    {
      "inputs": [
        {
          "internalType": "uint256",
          "name": "_gameId",
          "type": "uint256"
        }
      ],
      "name": "getCurrentPhase",
      "outputs": [
        {
          "internalType": "enum TradingCardGame.GameStatus",
          "name": "phase",
          "type": "uint8"
        }
      ],
      "stateMutability": "view",
      "type": "function"
    },
    {
      "inputs": [
        {
          "internalType": "uint256",
          "name": "_gameId",
          "type": "uint256"
        }
      ],
      "name": "getGameCards",
      "outputs": [
        {
          "internalType": "uint256[]",
          "name": "",
          "type": "uint256[]"
        }
      ],
      "stateMutability": "view",
      "type": "function"
    },
    {
      "inputs": [
        {
          "internalType": "uint256",
          "name": "_gameId",
          "type": "uint256"
        }
      ],
      "name": "getGamePlayers",
      "outputs": [
        {
          "internalType": "address[]",
          "name": "",
          "type": "address[]"
        }
      ],
      "stateMutability": "view",
      "type": "function"
    },
    {
      "inputs": [
        {
          "internalType": "uint256",
          "name": "_gameId",
          "type": "uint256"
        }
      ],
      "name": "getGameState",
      "outputs": [
        {
          "internalType": "enum TradingCardGame.GameStatus",
          "name": "status",
          "type": "uint8"
        },
        {
          "internalType": "uint256",
          "name": "startTime",
          "type": "uint256"
        },
        {
          "internalType": "uint256",
          "name": "lobbyDeadline",
          "type": "uint256"
        },
        {
          "internalType": "uint256",
          "name": "choiceDeadline",
          "type": "uint256"
        },
        {
          "internalType": "uint256",
          "name": "resolutionDeadline",
          "type": "uint256"
        },
        {
          "internalType": "uint256",
          "name": "playerCount",
          "type": "uint256"
        },
        {
          "internalType": "uint256",
          "name": "cardCount",
          "type": "uint256"
        }
      ],
      "stateMutability": "view",
      "type": "function"
    },
    {
      "inputs": [
        {
          "internalType": "uint256",
          "name": "_gameId",
          "type": "uint256"
        },
        {
          "internalType": "address",
          "name": "_player",
          "type": "address"
        }
      ],
      "name": "getGameStateWithPlayer",
      "outputs": [
        {
          "internalType": "enum TradingCardGame.GameStatus",
          "name": "status",
          "type": "uint8"
        },
        {
          "internalType": "uint256",
          "name": "startTime",
          "type": "uint256"
        },
        {
          "internalType": "uint256",
          "name": "lobbyDeadline",
          "type": "uint256"
        },
        {
          "internalType": "uint256",
          "name": "choiceDeadline",
          "type": "uint256"
        },
        {
          "internalType": "uint256",
          "name": "resolutionDeadline",
          "type": "uint256"
        },
        {
          "internalType": "uint256",
          "name": "playerCount",
          "type": "uint256"
        },
        {
          "internalType": "uint256",
          "name": "cardCount",
          "type": "uint256"
        },
        {
          "internalType": "bool",
          "name": "playerHasCommitted",
          "type": "bool"
        },
        {
          "internalType": "uint256[3]",
          "name": "playerSelectedCards",
          "type": "uint256[3]"
        }
      ],
      "stateMutability": "view",
      "type": "function"
    },
    {
      "inputs": [],
      "name": "getNextGameId",
      "outputs": [
        {
          "internalType": "uint256",
          "name": "",
          "type": "uint256"
        }
      ],
      "stateMutability": "view",
      "type": "function"
    },
    {
      "inputs": [
        {
          "internalType": "address",
          "name": "_player",
          "type": "address"
        }
      ],
      "name": "getPlayerActiveGame",
      "outputs": [
        {
          "internalType": "uint256",
          "name": "",
          "type": "uint256"
        }
      ],
      "stateMutability": "view",
      "type": "function"
    },
    {
      "inputs": [
        {
          "internalType": "uint256",
          "name": "_gameId",
          "type": "uint256"
        },
        {
          "internalType": "address",
          "name": "_player",
          "type": "address"
        }
      ],
      "name": "getPlayerChoices",
      "outputs": [
        {
          "internalType": "uint256[3]",
          "name": "selectedCards",
          "type": "uint256[3]"
        },
        {
          "internalType": "uint256",
          "name": "committedAt",
          "type": "uint256"
        },
        {
          "internalType": "bool",
          "name": "committed",
          "type": "bool"
        }
      ],
      "stateMutability": "view",
      "type": "function"
    },
    {
      "inputs": [
        {
          "internalType": "address",
          "name": "_player",
          "type": "address"
        }
      ],
      "name": "getPlayerScore",
      "outputs": [
        {
          "internalType": "uint256",
          "name": "totalPoints",
          "type": "uint256"
        },
        {
          "internalType": "uint256",
          "name": "gamesPlayed",
          "type": "uint256"
        },
        {
          "internalType": "uint256",
          "name": "gamesWon",
          "type": "uint256"
        }
      ],
      "stateMutability": "view",
      "type": "function"
    },
    {
      "inputs": [
        {
          "internalType": "uint256",
          "name": "_gameId",
          "type": "uint256"
        },
        {
          "internalType": "uint256",
          "name": "_cardNumber",
          "type": "uint256"
        }
      ],
      "name": "getPredictionResult",
      "outputs": [
        {
          "internalType": "bool",
          "name": "correct",
          "type": "bool"
        },
        {
          "internalType": "uint256",
          "name": "pointsEarned",
          "type": "uint256"
        }
      ],
      "stateMutability": "view",
      "type": "function"
    },
    {
      "inputs": [],
      "name": "isContractActive",
      "outputs": [
        {
          "internalType": "bool",
          "name": "",
          "type": "bool"
        }
      ],
      "stateMutability": "pure",
      "type": "function"
    },
    {
      "inputs": [
        {
          "internalType": "uint256",
          "name": "_gameId",
          "type": "uint256"
        }
      ],
      "name": "joinGame",
      "outputs": [],
      "stateMutability": "nonpayable",
      "type": "function"
    },
    {
      "inputs": [
        {
          "internalType": "uint256",
          "name": "",
          "type": "uint256"
        }
      ],
      "name": "leaderboard",
      "outputs": [
        {
          "internalType": "address",
          "name": "",
          "type": "address"
        }
      ],
      "stateMutability": "view",
      "type": "function"
    },
    {
      "inputs": [
        {
          "internalType": "address",
          "name": "",
          "type": "address"
        }
      ],
      "name": "playerActiveGame",
      "outputs": [
        {
          "internalType": "uint256",
          "name": "",
          "type": "uint256"
        }
      ],
      "stateMutability": "view",
      "type": "function"
    },
    {
      "inputs": [
        {
          "internalType": "address",
          "name": "",
          "type": "address"
        }
      ],
      "name": "playerScores",
      "outputs": [
        {
          "internalType": "address",
          "name": "player",
          "type": "address"
        },
        {
          "internalType": "uint256",
          "name": "totalPoints",
          "type": "uint256"
        },
        {
          "internalType": "uint256",
          "name": "gamesPlayed",
          "type": "uint256"
        },
        {
          "internalType": "uint256",
          "name": "gamesWon",
          "type": "uint256"
        }
      ],
      "stateMutability": "view",
      "type": "function"
    },
    {
      "inputs": [],
      "name": "pyth",
      "outputs": [
        {
          "internalType": "contract IPyth",
          "name": "",
          "type": "address"
        }
      ],
      "stateMutability": "view",
      "type": "function"
    },
    {
      "inputs": [
        {
          "internalType": "uint256",
          "name": "_assetIndex",
          "type": "uint256"
        },
        {
          "internalType": "bytes32",
          "name": "_priceId",
          "type": "bytes32"
        }
      ],
      "name": "setAssetPriceId",
      "outputs": [],
      "stateMutability": "nonpayable",
      "type": "function"
    },
    {
      "inputs": [
        {
          "internalType": "uint256",
          "name": "_gameId",
          "type": "uint256"
        },
        {
          "internalType": "bool",
          "name": "_useSecureRandomness",
          "type": "bool"
        }
      ],
      "name": "startGame",
      "outputs": [],
      "stateMutability": "nonpayable",
      "type": "function"
    },
    {
      "inputs": [
        {
          "internalType": "uint256",
          "name": "_gameId",
          "type": "uint256"
        }
      ],
      "name": "transitionToResolution",
      "outputs": [],
      "stateMutability": "nonpayable",
      "type": "function"
    },
    {
      "inputs": [
        {
          "internalType": "uint256",
          "name": "_gameId",
          "type": "uint256"
        },
        {
          "internalType": "bytes[]",
          "name": "_priceUpdateData",
          "type": "bytes[]"
        },
        {
          "internalType": "bytes32[]",
          "name": "",
          "type": "bytes32[]"
        },
        {
          "internalType": "uint256",
          "name": "_updateFee",
          "type": "uint256"
        }
      ],
      "name": "updatePricesAndResolve",
      "outputs": [],
      "stateMutability": "payable",
      "type": "function"
    }
  ],
  "bytecode": "0x60a034607457601f61235f38819003918201601f19168301916001600160401b03831184841017607957808492602094604052833981010312607457516001600160a01b0381169081900360745760805260016000556040516122cf90816100908239608051818181610269015261118d0152f35b600080fd5b634e487b7160e01b600052604160045260246000fdfe6080604052600436101561001257600080fd5b6000803560e01c806310c28d3114611b2f578063117a5b9014611ab35780631226897a14611a9757806315a40f49146119bf578063392b749c1461196b5780633c8aec3f146119415780634b9a2a2c1461180757806353644f31146117e0578063572e85ec146117a35780635c5c8382146108ca57806362550ae11461173f5780637255d729146116085780637ca90e59146115ec5780637f57504f1461158657806385f07bbe1461156a578063860cbc77146114a4578063863df0a11461146b5780638f5949f91461144f5780639a18e981146113d1578063a457d3d61461105b578063ad7465d41461102f578063b0fd159f14611013578063bee4c6d314610ff7578063bf36839914610f76578063cb09d27f14610f1b578063d0399bb814610baf578063d7793c1914610923578063e085c539146108cf578063e5c43ef1146108ca578063e7fad8af146108ae578063ede8af0114610891578063efaa55a0146106c4578063f79c913e14610298578063f98d06f0146102535763ffde0c741461019e57600080fd5b346102505760203660031901126102505760e0906101ec6004356101e78115158080610246575b6101ce90611d43565b828552600160205260408520948161023b575b50611d43565b611e79565b9060028101549060038101546004820154600583015491600760068501549401549461021b6040518098611c29565b602087015260408601526060850152608084015260a083015260c0820152f35b9050548210386101e1565b50845483106101c5565b80fd5b50346102505780600319360112610250576040517f00000000000000000000000000000000000000000000000000000000000000006001600160a01b03168152602090f35b50346102505760803660031901126102505760043590366043121561025057604051906102c6606083611cdb565b81366084116106c0576024905b608482106106b0575050821515806106a6575b6102ef90611d43565b828152600160205260408120926007840192835492831561064e5761031a60038701544210156121cc565b60048601544210156106105733600090815260088701602081905260409091206005015460ff166105d7578182600689018054915b82811061059f575b5050501561055a57815b60038110158061040c578390845b8881106103c1575b50501561038657600101610361565b60405162461bcd60e51b815260206004820152601360248201527224b73b30b634b21031b0b93210373ab6b132b960691b6044820152606490fd5b816103cc828c611d15565b90549060031b1c906103f8578460051b880151146103ec5760010161036f565b50505060013880610377565b634e487b7160e01b87526032600452602487fd5b604051848a8789876080860167ffffffffffffffff811187821017610546576040908152338088526020808901868152428a8501908152600160608c0190815260009485529590925292909120975188546001600160a01b0319166001600160a01b03919091161788559051865b600381106105305750509560056104ab926001979851600484015551151591019060ff801983541691151516179055565b6104b86040518093611c01565b7fd67de08bd4ba5b6a6548667370488a8781753615acb89ae1ac1f96f6c270ecf060603393a30160ff815416600581101561051c5760028114159081610510575b50610502575080f35b805460ff1916600217905580f35b600391501415836104f9565b634e487b7160e01b83526021600452602483fd5b6001906020835193019282828c0101550161047a565b634e487b7160e01b86526041600452602486fd5b60405162461bcd60e51b815260206004820152601960248201527f4e6f74206120706c6179657220696e20746869732067616d65000000000000006044820152606490fd5b6105a98183611d15565b905460039190911b1c6001600160a01b031633146105c95760010161034f565b505050506001388080610357565b60405162461bcd60e51b8152602060048201526011602482015270105b1c9958591e4818dbdb5b5a5d1d1959607a1b6044820152606490fd5b60405162461bcd60e51b815260206004820152601660248201527510da1bda58d948191958591b1a5b99481c185cdcd95960521b6044820152606490fd5b60405162461bcd60e51b815260206004820152602a60248201527f47616d65206e6f74207374617274656420796574202d206361726473206e6f746044820152690819d95b995c985d195960b21b6064820152608490fd5b50805483106102e6565b81358152602091820191016102d3565b5080fd5b50346102505760203660031901126102505760043580151580610887575b6106eb90611d43565b808252600160205260ff600160408420015416600581101561051c576107119015611f9c565b80825260016020526040822060038101544211610853576006018054835b8181106107f357505033835260046020526040832054801515806107e9575b610796575b5061075f903390611f5b565b338252600460205280604083205533907f87969bc7faf902221a147b95ceba76e011c5efb0339a0a8ee7a2bb82d9cfbbd68380a380f35b8352600160205260ff60016040852001541660058110156107d557906107c1600461075f9314611edd565b338452600460205283604081205590610753565b634e487b7160e01b84526021600452602484fd5b508281141561074e565b6107fd8184611d15565b905460039190911b1c6001600160a01b0316331461081d5760010161072f565b60405162461bcd60e51b815260206004820152600e60248201526d105b1c9958591e481a9bda5b995960921b6044820152606490fd5b60405162461bcd60e51b815260206004820152600c60248201526b131bd8989e4818db1bdcd95960a21b6044820152606490fd5b50815481106106e2565b503461025057806003193601126102505760209054604051908152f35b50346102505780600319360112610250576020604051600a8152f35b611c8d565b5034610250576020366003190112610250576060906040906001600160a01b036108f7611beb565b168152600260205220600181015490600360028201549101549060405192835260208301526040820152f35b5034610250576040366003190112610250576004356024358015158103610bab5781151580610ba1575b61095690611d43565b8183526001602052604083209061097360038301544210156121cc565b6004820154421015610b5c57600782019061098f825415612218565b83855260016020526109a8600760408720015415612218565b15610ae6578284526001602052604084209260405191610140830183811067ffffffffffffffff821117610ad2576040959495526104d2835261162e60208401526123346040840152610d806060840152611ed2608084015261092960a0840152611a8560c08401526111d760e08401526122c561010084015261054d6101208401526007869401935b600a811015610a5457600190610a4e8160051b86015187612264565b01610a32565b50925092600191505b01600260ff198254161790556040519060208201602083528154809152604083019185526020852090855b818110610abc5750505090807f1e16023bc0e15b4ad55f8e37dccf554d1451b0d26c8e55cd0e7e041eea33c75d920390a280f35b8254845260209093019260019283019201610a88565b634e487b7160e01b87526041600452602487fd5b9082845260016020526040842060078591013360601b915b600a8110610b1157505050600190610a5d565b600190610b5661271060405160208101904282524460408201528a60608201528460808201528760a082015260948152610b4c60b482611cdb565b5190200684612264565b01610afe565b60405162461bcd60e51b815260206004820152601e60248201527f43686f69636520646561646c696e6520616c72656164792070617373656400006044820152606490fd5b508254821061094d565b8280fd5b50346102505760203660031901126102505760043580151580610f11575b610bd690611d43565b8082526001602052604082209060058201544210610ecc576001820160ff8154166005811015610e9c5760038114159081610ec0575b50610eb0575b60ff8154166005811015610e9c57600414610e625783600684016008600986019501955b8154811015610dc357610c498183611d15565b905460039190911b1c6001600160a01b03166000818152602089905260409020600581015491989093909160ff1615610db6578491825b6003841015610d1a57610cc0600191828689010154808a528c60205260ff8460408c2001541615610cc8575b89528b602052600260408a20015490611f4e565b930192610c80565b60405160028e610cd783611ca9565b838352610d118d604060208601918083528187019481865288825260205220945185555115158885019060ff801983541691151516179055565b51910155610cac565b8891979550600194935060207f0dbadce3c07b5bc30ebbe2bcec3d6bb95f9b3a0bb33178ff0d61e4d7d4339915919b939b848952600282528660408a2001610d63828254611f4e565b905584895260028252600260408a2001610d7d8154611f29565b905580610d97575b604051908152a35b0195909295610c36565b84895260028252600360408a2001610daf8154611f29565b9055610d85565b9750939150600190610d8d565b50825460ff1916600417909255805b8254811015610e395780610de860019285611d15565b838060a01b0391549060031b1c168352600460205284604084205414610e0f575b01610dd2565b610e198185611d15565b838060a01b0391549060031b1c1683526004602052826040812055610e09565b50827fce24807f7e4b60b4e641462f13029fa5e5f79075bbc3f8e5cd43ecd19661d7608280a280f35b60405162461bcd60e51b815260206004820152601260248201527111d85b5948185b1c9958591e48195b99195960721b6044820152606490fd5b634e487b7160e01b85526021600452602485fd5b805460ff19166003178155610c12565b60049150141538610c0c565b60405162461bcd60e51b815260206004820152601f60248201527f5265736f6c7574696f6e20646561646c696e65206e6f742072656163686564006044820152606490fd5b5081548110610bcd565b503461025057602036600319011261025057610f3860043561202a565b90610f68610f5d6040969596519687961515875260a0602088015260a0870190611c4c565b936040860190611c29565b606084015260808301520390f35b5034610250576020366003190112610250576004359060035482101561025057600354821015610fe35760038082527fc2575a0e9e593c00f959f8c92f12db2869c3395a3b0502d05e2516446f71f85b92909201546040516001600160a01b039290931b1c168152602090f35b634e487b7160e01b81526032600452602490fd5b50346102505780600319360112610250576020604051600f8152f35b5034610250578060031936011261025057602060405160128152f35b503461025057602036600319011261025057602061105361104e611beb565b611fde565b604051908152f35b5060803660031901126102505760243560043567ffffffffffffffff8211610bab5736602383011215610bab5781600401359161109783611cfd565b906110a56040519283611cdb565b838252602082016024819560051b8301019136831161129a5760248101915b838310611340575050505060443567ffffffffffffffff811161133c573660238201121561133c578060040135602460206110fe83611cfd565b61110b6040519182611cdb565b838152019160051b8301019136831161129a57602401905b82821061132c575050506064359282151580611322575b61114390611d43565b828552600160205260ff600160408720015416600581101561130e57600361116b9114611f9c565b8285526001602052604085208434106112d657600a019360ff85541661129e577f00000000000000000000000000000000000000000000000000000000000000006001600160a01b031691823b1561129a579290918692604051948593631df3cbc560e31b855260248501906020600487015251809152604485019060448160051b870101929187905b82821061126557505050509083809203925af1801561125a57611246575b507f702ec30635253cae6d3600d38314e616495cf01545d34e549c49ebf6451dab3b8380a2805460ff1916600117905580f35b8361125391949294611cdb565b9138611213565b6040513d86823e3d90fd5b9295975092600191949650602061128781926043198c82030186528851611c4c565b960192019201928795938b9795936111f5565b8680fd5b60405162461bcd60e51b815260206004820152601060248201526f105b1c9958591e481c995cdbdb1d995960821b6044820152606490fd5b60405162461bcd60e51b815260206004820152601060248201526f496e73756666696369656e742066656560801b6044820152606490fd5b634e487b7160e01b86526021600452602486fd5b508454831061113a565b8135815260209182019101611123565b8480fd5b823567ffffffffffffffff81116113cd57820190366043830112156113cd5760248201359067ffffffffffffffff82116113b95760405161138b601f8401601f191660200182611cdb565b8281528a366044868601011161025057602084819695604483970183860137830101528152019201916110c4565b634e487b7160e01b8a52604160045260248afd5b8880fd5b50346102505760203660031901126102505760043580151580611445575b6113f890611d43565b815260016020526040812060048101544210158061142a575b611419575080f35b600101805460ff1916600317905580f35b5060ff600182015416600581101561051c5760041415611411565b50815481106113ef565b5034610250578060031936011261025057602060405160018152f35b5034610250576020366003190112610250576020906040906001600160a01b03611493611beb565b168152600483522054604051908152f35b50346102505760203660031901126102505760043580151580611560575b6114cb90611d43565b8152600160205260076040822001604051908160208254918281520190819285526020852090855b81811061154a5750505082611509910383611cdb565b604051928392602084019060208552518091526040840192915b818110611531575050500390f35b8251845285945060209384019390920191600101611523565b82548452602090930192600192830192016114f3565b50815481106114c2565b5034610250578060031936011261025057602060405160028152f35b50346102505760403660031901126102505760408091600435801515806115e2575b6115b190611d43565b81526001602052600982822001602435825260205220600260ff600183015416910154825191151582526020820152f35b50815481106115a8565b5034610250578060031936011261025057602060405160b48152f35b503461025057806003193601126102505733815260046020526040812054806116f0575b5080549061163982611f29565b8155818152600160205260408120918083556001830160ff198154169055426002840155603c42018042116116dc57806003850155607842018091116116dc5780600485015561012c42018091116116dc57836116a191600560209601556006339101611f5b565b3382526004835280604083205560405191817ffadb9547847a0c2c31f4c02590545e318d33d7aae99071caecf3fa4ce3cd7dca339280a38152f35b634e487b7160e01b83526011600452602483fd5b8152600160205260ff600160408320015416600581101561172b5760046117179114611edd565b33815260046020528060408120553861162c565b634e487b7160e01b82526021600452602482fd5b5034610250576020366003190112610250576080906040906001600160a01b03611767611beb565b16815260026020522060018060a01b03815416906001810154906003600282015491015491604051938452602084015260408301526060820152f35b5034610250576020366003190112610250576117d16020916101e760043591821515908161023b5750611d43565b6117de6040518092611c29565bf35b50346102505760403660031901126102505760043581526005602052602435604082205580f35b503461025057604036600319011261025057610160906117de6004359161182c611bd0565b92606060405161183c8282611cdb565b36903780151580611937575b61185190611d43565b815260016020526040812092819060405161186b81611ca9565b8381526020810184905260408101849052926001600160a01b0382166118f5575b505060ff600185015416936002810154906003810154600482015460058301549160076006850154940154946118c5604051809b611c29565b60208a015260408901526060880152608087015260a086015260c0850152151560e0840152610100830190611c01565b6001600160a01b0390911681526008850160205260409020600581015460ff16611920575b8061188c565b9150506119306001809201611d81565b903861191a565b5081548110611848565b50346102505760203660031901126102505760406020916004358152600583522054604051908152f35b50346102505760203660031901126102505761199c9061199760043591821515908161023b5750611d43565b611db8565b906119bb60405192839215158352604060208401526040830190611c4c565b0390f35b50346102505760203660031901126102505760043580151580611a8d575b6119e690611d43565b8152600160205260066040822001604051908160208254918281520190819285526020852090855b818110611a6e5750505082611a24910383611cdb565b604051928392602084019060208552518091526040840192915b818110611a4c575050500390f35b82516001600160a01b0316845285945060209384019390920191600101611a3e565b82546001600160a01b0316845260209093019260019283019201611a0e565b50815481106119dd565b5034610250578060031936011261025057602060405160148152f35b503461025057602036600319011261025057604060e091600435815260016020522080549060ff6001820154169060028101546003820154600483015491611b1260ff600a600587015496015416956040519788526020880190611c29565b60408601526060850152608084015260a0830152151560c0820152f35b503461025057604036600319011261025057604060a091600435611b51611bd0565b9060608451611b608282611cdb565b36903780151580611bc6575b611b7590611d43565b8252600160205260088383200190600180861b0316825260205220600481015490611baa600160ff6005840154169201611d81565b91611bb86040518094611c01565b606083015215156080820152f35b5082548110611b6c565b602435906001600160a01b0382168203611be657565b600080fd5b600435906001600160a01b0382168203611be657565b906000905b60038210611c1357505050565b6020806001928551815201930191019091611c06565b906005821015611c365752565b634e487b7160e01b600052602160045260246000fd5b919082519283825260005b848110611c78575050826000602080949584010152601f8019910116010190565b80602080928401015182828601015201611c57565b34611be6576000366003190112611be6576020604051603c8152f35b6060810190811067ffffffffffffffff821117611cc557604052565b634e487b7160e01b600052604160045260246000fd5b90601f8019910116810190811067ffffffffffffffff821117611cc557604052565b67ffffffffffffffff8111611cc55760051b60200190565b8054821015611d2d5760005260206000200190600090565b634e487b7160e01b600052603260045260246000fd5b15611d4a57565b60405162461bcd60e51b815260206004820152600f60248201526e125b9d985b1a590819d85b59481251608a1b6044820152606490fd5b60405191906000835b60038210611da257505050611da0606083611cdb565b565b6001602081928554815201930191019091611d8a565b6000526001602052604060002060ff6001820154166005811015611c3657611e3a57600301544210611dfc57600190604051611df5602082611cdb565b6000815290565b600090604051611e0d604082611cdb565b601a81527f4c6f62627920646561646c696e65206e6f742072656163686564000000000000602082015290565b50600090604051611e4c604082611cdb565b601a81527f47616d65206973206e6f7420696e204c4f424259207374617465000000000000602082015290565b6000526001602052604060002060ff6001820154166005811015611c3657600414611ed7576003810154421015611eb05750600090565b6004810154421015611ec25750600290565b60050154421015611ed257600390565b600390565b50600490565b15611ee457565b60405162461bcd60e51b815260206004820152601960248201527f416c726561647920696e20616e206163746976652067616d65000000000000006044820152606490fd5b6000198114611f385760010190565b634e487b7160e01b600052601160045260246000fd5b91908201809211611f3857565b8054600160401b811015611cc557611f7891600182018155611d15565b81546001600160a01b0393841660039290921b91821b9390911b1916919091179055565b15611fa357565b60405162461bcd60e51b8152602060048201526013602482015272496e76616c69642067616d652073746174757360681b6044820152606490fd5b6001600160a01b031660009081526004602052604090205480612002575b50600090565b80600052600160205260ff600160406000200154166005811015611c3657600414611ffc5790565b801580156121c0575b6121875760005260016020526040600020600560ff6001830154169101548042906005841015611c36576003840361214357808210612101571561208c57600193604051612082602082611cdb565b6000815293929190565b60009360405161209d608082611cdb565b604581527f5265736f6c7574696f6e20646561646c696e65206e6f7420736574202867616d60208201527f65206d6179206e6f742068617665207472616e736974696f6e65642070726f7060408201526465726c792960d81b606082015293929190565b50600093604051612113604082611cdb565b601f81527f5265736f6c7574696f6e20646561646c696e65206e6f74207265616368656400602082015293929190565b5050600092604051612156604082611cdb565b602081527f47616d65206973206e6f7420696e205245534f4c5554494f4e2073746174757360208201529291904290565b50600090604051612199604082611cdb565b600f81526e125b9d985b1a590819d85b59481251608a1b6020820152906000906000904290565b50600054811015612033565b156121d357565b60405162461bcd60e51b815260206004820152601960248201527f4c6f626279207068617365206e6f7420656e64656420796574000000000000006044820152606490fd5b1561221f57565b60405162461bcd60e51b815260206004820152601760248201527f436172647320616c72656164792067656e6572617465640000000000000000006044820152606490fd5b8054600160401b811015611cc55761228191600182018155611d15565b819291549060031b91821b91600019901b191617905556fea2646970667358221220ea08dde4e952617f55a1d2946a403c8531cd6156644482213a6a87dddfb6039164736f6c634300081c0033",
  "linkReferences": {},
  "deployedLinkReferences": {}
}