{
  "_format": "hh-sol-artifact-1",
  "contractName": "TradingCardGame",
  "sourceName": "contracts/TradingCardGame.sol",
  "abi": [
    {
      "inputs": [
        {
          "internalType": "address",
          "name": "_pythAddress",
          "type": "address"
        }
      ],
      "stateMutability": "nonpayable",
      "type": "constructor"
    },
    {
      "anonymous": false,
      "inputs": [
        {
          "indexed": true,
          "internalType": "uint256",
          "name": "gameId",
          "type": "uint256"
        },
        {
          "indexed": true,
          "internalType": "address",
          "name": "player",
          "type": "address"
        },
        {
          "indexed": false,
          "internalType": "uint256[3]",
          "name": "cards",
          "type": "uint256[3]"
        }
      ],
      "name": "ChoicesCommitted",
      "type": "event"
    },
    {
      "anonymous": false,
      "inputs": [
        {
          "indexed": true,
          "internalType": "uint256",
          "name": "gameId",
          "type": "uint256"
        },
        {
          "indexed": false,
          "internalType": "uint256[]",
          "name": "cards",
          "type": "uint256[]"
        }
      ],
      "name": "GameActive",
      "type": "event"
    },
    {
      "anonymous": false,
      "inputs": [
        {
          "indexed": true,
          "internalType": "uint256",
          "name": "gameId",
          "type": "uint256"
        }
      ],
      "name": "GameEnded",
      "type": "event"
    },
    {
      "anonymous": false,
      "inputs": [
        {
          "indexed": true,
          "internalType": "uint256",
          "name": "gameId",
          "type": "uint256"
        },
        {
          "indexed": true,
          "internalType": "address",
          "name": "starter",
          "type": "address"
        }
      ],
      "name": "GameStarted",
      "type": "event"
    },
    {
      "anonymous": false,
      "inputs": [
        {
          "indexed": true,
          "internalType": "uint256",
          "name": "gameId",
          "type": "uint256"
        },
        {
          "indexed": true,
          "internalType": "address",
          "name": "player",
          "type": "address"
        }
      ],
      "name": "PlayerJoined",
      "type": "event"
    },
    {
      "anonymous": false,
      "inputs": [
        {
          "indexed": true,
          "internalType": "uint256",
          "name": "gameId",
          "type": "uint256"
        },
        {
          "indexed": true,
          "internalType": "address",
          "name": "player",
          "type": "address"
        },
        {
          "indexed": false,
          "internalType": "uint256",
          "name": "points",
          "type": "uint256"
        }
      ],
      "name": "PointsAwarded",
      "type": "event"
    },
    {
      "anonymous": false,
      "inputs": [
        {
          "indexed": true,
          "internalType": "uint256",
          "name": "gameId",
          "type": "uint256"
        }
      ],
      "name": "PricesUpdated",
      "type": "event"
    },
    {
      "inputs": [],
      "name": "CHOICE_DURATION",
      "outputs": [
        {
          "internalType": "uint256",
          "name": "",
          "type": "uint256"
        }
      ],
      "stateMutability": "view",
      "type": "function"
    },
    {
      "inputs": [],
      "name": "LOBBY_DURATION",
      "outputs": [
        {
          "internalType": "uint256",
          "name": "",
          "type": "uint256"
        }
      ],
      "stateMutability": "view",
      "type": "function"
    },
    {
      "inputs": [],
      "name": "MIN_PLAYERS",
      "outputs": [
        {
          "internalType": "uint256",
          "name": "",
          "type": "uint256"
        }
      ],
      "stateMutability": "view",
      "type": "function"
    },
    {
      "inputs": [],
      "name": "POINTS_MARKET_CAP_VOLUME",
      "outputs": [
        {
          "internalType": "uint256",
          "name": "",
          "type": "uint256"
        }
      ],
      "stateMutability": "view",
      "type": "function"
    },
    {
      "inputs": [],
      "name": "POINTS_PERCENTAGE_CHANGE",
      "outputs": [
        {
          "internalType": "uint256",
          "name": "",
          "type": "uint256"
        }
      ],
      "stateMutability": "view",
      "type": "function"
    },
    {
      "inputs": [],
      "name": "POINTS_PRICE_ABOVE_BELOW",
      "outputs": [
        {
          "internalType": "uint256",
          "name": "",
          "type": "uint256"
        }
      ],
      "stateMutability": "view",
      "type": "function"
    },
    {
      "inputs": [],
      "name": "POINTS_PRICE_UP_DOWN",
      "outputs": [
        {
          "internalType": "uint256",
          "name": "",
          "type": "uint256"
        }
      ],
      "stateMutability": "view",
      "type": "function"
    },
    {
      "inputs": [],
      "name": "RESOLUTION_DURATION",
      "outputs": [
        {
          "internalType": "uint256",
          "name": "",
          "type": "uint256"
        }
      ],
      "stateMutability": "view",
      "type": "function"
    },
    {
      "inputs": [
        {
          "internalType": "uint256",
          "name": "",
          "type": "uint256"
        }
      ],
      "name": "assetPriceIds",
      "outputs": [
        {
          "internalType": "bytes32",
          "name": "",
          "type": "bytes32"
        }
      ],
      "stateMutability": "view",
      "type": "function"
    },
    {
      "inputs": [
        {
          "internalType": "uint256",
          "name": "_gameId",
          "type": "uint256"
        }
      ],
      "name": "canEndGame",
      "outputs": [
        {
          "internalType": "bool",
          "name": "canEnd",
          "type": "bool"
        },
        {
          "internalType": "string",
          "name": "reason",
          "type": "string"
        },
        {
          "internalType": "enum TradingCardGame.GameStatus",
          "name": "gameStatus_",
          "type": "uint8"
        },
        {
          "internalType": "uint256",
          "name": "resolutionDeadline_",
          "type": "uint256"
        },
        {
          "internalType": "uint256",
          "name": "currentTime",
          "type": "uint256"
        }
      ],
      "stateMutability": "view",
      "type": "function"
    },
    {
      "inputs": [
        {
          "internalType": "uint256",
          "name": "_gameId",
          "type": "uint256"
        }
      ],
      "name": "canStartGame",
      "outputs": [
        {
          "internalType": "bool",
          "name": "canStart",
          "type": "bool"
        },
        {
          "internalType": "string",
          "name": "reason",
          "type": "string"
        }
      ],
      "stateMutability": "view",
      "type": "function"
    },
    {
      "inputs": [
        {
          "internalType": "uint256",
          "name": "_gameId",
          "type": "uint256"
        },
        {
          "internalType": "uint256[3]",
          "name": "_cardNumbers",
          "type": "uint256[3]"
        }
      ],
      "name": "commitChoices",
      "outputs": [],
      "stateMutability": "nonpayable",
      "type": "function"
    },
    {
      "inputs": [],
      "name": "createGame",
      "outputs": [
        {
          "internalType": "uint256",
          "name": "",
          "type": "uint256"
        }
      ],
      "stateMutability": "nonpayable",
      "type": "function"
    },
    {
      "inputs": [
        {
          "internalType": "uint256",
          "name": "_gameId",
          "type": "uint256"
        }
      ],
      "name": "endGame",
      "outputs": [],
      "stateMutability": "nonpayable",
      "type": "function"
    },
    {
      "inputs": [
        {
          "internalType": "uint256",
          "name": "",
          "type": "uint256"
        }
      ],
      "name": "games",
      "outputs": [
        {
          "internalType": "uint256",
          "name": "gameId",
          "type": "uint256"
        },
        {
          "internalType": "enum TradingCardGame.GameStatus",
          "name": "status",
          "type": "uint8"
        },
        {
          "internalType": "uint256",
          "name": "startTime",
          "type": "uint256"
        },
        {
          "internalType": "uint256",
          "name": "lobbyDeadline",
          "type": "uint256"
        },
        {
          "internalType": "uint256",
          "name": "choiceDeadline",
          "type": "uint256"
        },
        {
          "internalType": "uint256",
          "name": "resolutionDeadline",
          "type": "uint256"
        },
        {
          "internalType": "bool",
          "name": "resolved",
          "type": "bool"
        }
      ],
      "stateMutability": "view",
      "type": "function"
    },
    {
      "inputs": [
        {
          "internalType": "uint256",
          "name": "_gameId",
          "type": "uint256"
        }
      ],
      "name": "getGameCards",
      "outputs": [
        {
          "internalType": "uint256[]",
          "name": "",
          "type": "uint256[]"
        }
      ],
      "stateMutability": "view",
      "type": "function"
    },
    {
      "inputs": [
        {
          "internalType": "uint256",
          "name": "_gameId",
          "type": "uint256"
        }
      ],
      "name": "getGamePlayers",
      "outputs": [
        {
          "internalType": "address[]",
          "name": "",
          "type": "address[]"
        }
      ],
      "stateMutability": "view",
      "type": "function"
    },
    {
      "inputs": [
        {
          "internalType": "uint256",
          "name": "_gameId",
          "type": "uint256"
        }
      ],
      "name": "getGameState",
      "outputs": [
        {
          "internalType": "enum TradingCardGame.GameStatus",
          "name": "status",
          "type": "uint8"
        },
        {
          "internalType": "uint256",
          "name": "startTime",
          "type": "uint256"
        },
        {
          "internalType": "uint256",
          "name": "lobbyDeadline",
          "type": "uint256"
        },
        {
          "internalType": "uint256",
          "name": "choiceDeadline",
          "type": "uint256"
        },
        {
          "internalType": "uint256",
          "name": "resolutionDeadline",
          "type": "uint256"
        },
        {
          "internalType": "uint256",
          "name": "playerCount",
          "type": "uint256"
        },
        {
          "internalType": "uint256",
          "name": "cardCount",
          "type": "uint256"
        }
      ],
      "stateMutability": "view",
      "type": "function"
    },
    {
      "inputs": [
        {
          "internalType": "uint256",
          "name": "_gameId",
          "type": "uint256"
        },
        {
          "internalType": "address",
          "name": "_player",
          "type": "address"
        }
      ],
      "name": "getGameStateWithPlayer",
      "outputs": [
        {
          "internalType": "enum TradingCardGame.GameStatus",
          "name": "status",
          "type": "uint8"
        },
        {
          "internalType": "uint256",
          "name": "startTime",
          "type": "uint256"
        },
        {
          "internalType": "uint256",
          "name": "lobbyDeadline",
          "type": "uint256"
        },
        {
          "internalType": "uint256",
          "name": "choiceDeadline",
          "type": "uint256"
        },
        {
          "internalType": "uint256",
          "name": "resolutionDeadline",
          "type": "uint256"
        },
        {
          "internalType": "uint256",
          "name": "playerCount",
          "type": "uint256"
        },
        {
          "internalType": "uint256",
          "name": "cardCount",
          "type": "uint256"
        },
        {
          "internalType": "bool",
          "name": "playerHasCommitted",
          "type": "bool"
        },
        {
          "internalType": "uint256[3]",
          "name": "playerSelectedCards",
          "type": "uint256[3]"
        }
      ],
      "stateMutability": "view",
      "type": "function"
    },
    {
      "inputs": [],
      "name": "getNextGameId",
      "outputs": [
        {
          "internalType": "uint256",
          "name": "",
          "type": "uint256"
        }
      ],
      "stateMutability": "view",
      "type": "function"
    },
    {
      "inputs": [
        {
          "internalType": "address",
          "name": "_player",
          "type": "address"
        }
      ],
      "name": "getPlayerActiveGame",
      "outputs": [
        {
          "internalType": "uint256",
          "name": "",
          "type": "uint256"
        }
      ],
      "stateMutability": "view",
      "type": "function"
    },
    {
      "inputs": [
        {
          "internalType": "uint256",
          "name": "_gameId",
          "type": "uint256"
        },
        {
          "internalType": "address",
          "name": "_player",
          "type": "address"
        }
      ],
      "name": "getPlayerChoices",
      "outputs": [
        {
          "internalType": "uint256[3]",
          "name": "selectedCards",
          "type": "uint256[3]"
        },
        {
          "internalType": "uint256",
          "name": "committedAt",
          "type": "uint256"
        },
        {
          "internalType": "bool",
          "name": "committed",
          "type": "bool"
        }
      ],
      "stateMutability": "view",
      "type": "function"
    },
    {
      "inputs": [
        {
          "internalType": "address",
          "name": "_player",
          "type": "address"
        }
      ],
      "name": "getPlayerScore",
      "outputs": [
        {
          "internalType": "uint256",
          "name": "totalPoints",
          "type": "uint256"
        },
        {
          "internalType": "uint256",
          "name": "gamesPlayed",
          "type": "uint256"
        },
        {
          "internalType": "uint256",
          "name": "gamesWon",
          "type": "uint256"
        }
      ],
      "stateMutability": "view",
      "type": "function"
    },
    {
      "inputs": [
        {
          "internalType": "uint256",
          "name": "_gameId",
          "type": "uint256"
        },
        {
          "internalType": "uint256",
          "name": "_cardNumber",
          "type": "uint256"
        }
      ],
      "name": "getPredictionResult",
      "outputs": [
        {
          "internalType": "bool",
          "name": "correct",
          "type": "bool"
        },
        {
          "internalType": "uint256",
          "name": "pointsEarned",
          "type": "uint256"
        }
      ],
      "stateMutability": "view",
      "type": "function"
    },
    {
      "inputs": [],
      "name": "isContractActive",
      "outputs": [
        {
          "internalType": "bool",
          "name": "",
          "type": "bool"
        }
      ],
      "stateMutability": "pure",
      "type": "function"
    },
    {
      "inputs": [
        {
          "internalType": "uint256",
          "name": "_gameId",
          "type": "uint256"
        }
      ],
      "name": "joinGame",
      "outputs": [],
      "stateMutability": "nonpayable",
      "type": "function"
    },
    {
      "inputs": [
        {
          "internalType": "uint256",
          "name": "",
          "type": "uint256"
        }
      ],
      "name": "leaderboard",
      "outputs": [
        {
          "internalType": "address",
          "name": "",
          "type": "address"
        }
      ],
      "stateMutability": "view",
      "type": "function"
    },
    {
      "inputs": [
        {
          "internalType": "address",
          "name": "",
          "type": "address"
        }
      ],
      "name": "playerActiveGame",
      "outputs": [
        {
          "internalType": "uint256",
          "name": "",
          "type": "uint256"
        }
      ],
      "stateMutability": "view",
      "type": "function"
    },
    {
      "inputs": [
        {
          "internalType": "address",
          "name": "",
          "type": "address"
        }
      ],
      "name": "playerScores",
      "outputs": [
        {
          "internalType": "address",
          "name": "player",
          "type": "address"
        },
        {
          "internalType": "uint256",
          "name": "totalPoints",
          "type": "uint256"
        },
        {
          "internalType": "uint256",
          "name": "gamesPlayed",
          "type": "uint256"
        },
        {
          "internalType": "uint256",
          "name": "gamesWon",
          "type": "uint256"
        }
      ],
      "stateMutability": "view",
      "type": "function"
    },
    {
      "inputs": [],
      "name": "pyth",
      "outputs": [
        {
          "internalType": "contract IPyth",
          "name": "",
          "type": "address"
        }
      ],
      "stateMutability": "view",
      "type": "function"
    },
    {
      "inputs": [
        {
          "internalType": "uint256",
          "name": "_assetIndex",
          "type": "uint256"
        },
        {
          "internalType": "bytes32",
          "name": "_priceId",
          "type": "bytes32"
        }
      ],
      "name": "setAssetPriceId",
      "outputs": [],
      "stateMutability": "nonpayable",
      "type": "function"
    },
    {
      "inputs": [
        {
          "internalType": "uint256",
          "name": "_gameId",
          "type": "uint256"
        },
        {
          "internalType": "bool",
          "name": "_useSecureRandomness",
          "type": "bool"
        }
      ],
      "name": "startGame",
      "outputs": [],
      "stateMutability": "nonpayable",
      "type": "function"
    },
    {
      "inputs": [
        {
          "internalType": "uint256",
          "name": "_gameId",
          "type": "uint256"
        }
      ],
      "name": "transitionToResolution",
      "outputs": [],
      "stateMutability": "nonpayable",
      "type": "function"
    },
    {
      "inputs": [
        {
          "internalType": "uint256",
          "name": "_gameId",
          "type": "uint256"
        },
        {
          "internalType": "bytes[]",
          "name": "_priceUpdateData",
          "type": "bytes[]"
        },
        {
          "internalType": "bytes32[]",
          "name": "",
          "type": "bytes32[]"
        },
        {
          "internalType": "uint256",
          "name": "_updateFee",
          "type": "uint256"
        }
      ],
      "name": "updatePricesAndResolve",
      "outputs": [],
      "stateMutability": "payable",
      "type": "function"
    }
  ],
  "bytecode": "0x60a034607457601f6122b638819003918201601f19168301916001600160401b03831184841017607957808492602094604052833981010312607457516001600160a01b0381169081900360745760805260016000556040516122269081610090823960805181818161024001526112000152f35b600080fd5b634e487b7160e01b600052604160045260246000fdfe6080604052600436101561001257600080fd5b6000803560e01c806310c28d3114611b82578063117a5b9014611b065780631226897a14611aea57806315a40f4914611a12578063392b749c146119b25780633c8aec3f146119885780634b9a2a2c1461184c57806353644f31146118255780635c5c8382146108e557806362550ae1146117c15780637255d729146116c15780637ca90e59146116a45780637f57504f1461163e57806385f07bbe14611622578063860cbc771461155c578063863df0a1146115235780638f5949f9146115075780639a18e98114611430578063a457d3d6146110ce578063ad7465d4146110a2578063b0fd159f14611086578063bee4c6d31461106a578063bf36839914610fe9578063cb09d27f14610f8e578063d0399bb814610c98578063d7793c191461093e578063e085c539146108ea578063e5c43ef1146108e5578063e7fad8af146108c9578063ede8af01146108ac578063efaa55a0146106df578063f79c913e1461026f578063f98d06f01461022a5763ffde0c741461019357600080fd5b3461022757602036600319011261022757604060e0916004358015158061021d575b6101be90611d96565b815260016020522060ff600182015416906002810154906003810154600482015460058301549160076006850154940154946101fd6040518098611c7c565b602087015260408601526060850152608084015260a083015260c0820152f35b50815481106101b5565b80fd5b50346102275780600319360112610227576040517f00000000000000000000000000000000000000000000000000000000000000006001600160a01b03168152602090f35b50346102275760803660031901126102275760043536604312156106db576040519061029c606083611d2e565b81366084116106d7576024905b608482106106c7575050801515806106bd575b6102c590611d96565b808352600160205260ff60016040852001541660058110156106a95760026102ed9114611f8b565b8083526001602052604083209060048201928354421161066b57600883019460018060a01b0333166000528560205260ff60056040600020015416610632578093819460068201958654905b8181106105fc575b5050156105b75760078101805495979096835b600381101580610402578590865b8b8b82106103b6575b5050501561037b57600101610354565b60405162461bcd60e51b815260206004820152601360248201527224b73b30b634b21031b0b93210373ab6b132b960691b6044820152606490fd5b6103c1828492611d68565b90549060031b1c906103ee578460051b8a0151146103e157600101610362565b505050600138808b61036b565b634e487b7160e01b89526032600452602489fd5b50508885876040516080810181811067ffffffffffffffff8211176105a35760405233815260208101838152604082014281526060830191600183526040600060018060a01b03331681528a602052209360018060a01b039051166bffffffffffffffffffffffff60a01b855416178455518a5b6003811061058d5750506104a4929160059151600484015551151591019060ff801983541691151516179055565b6104b16040518093611c54565b7fd67de08bd4ba5b6a6548667370488a8781753615acb89ae1ac1f96f6c270ecf060603393a360019285918054925b83811061053f575b505050508115610533575b506104fc575080f35b60018101600360ff1982541617905561025842019081421161051f576005015580f35b634e487b7160e01b83526011600452602483fd5b905054421015836104f3565b60ff6005604061054f8486611d68565b905460039190911b1c6001600160a01b031660009081526020879052200154161561057c576001016104e0565b5050505090508290848080806104e8565b6001906020835193019282828801015501610476565b634e487b7160e01b89526041600452602489fd5b60405162461bcd60e51b815260206004820152601960248201527f4e6f74206120706c6179657220696e20746869732067616d65000000000000006044820152606490fd5b6106068189611d68565b905460039190911b1c6001600160a01b0316331461062657600101610339565b50505060013880610341565b60405162461bcd60e51b8152602060048201526011602482015270105b1c9958591e4818dbdb5b5a5d1d1959607a1b6044820152606490fd5b60405162461bcd60e51b815260206004820152601660248201527510da1bda58d948191958591b1a5b99481c185cdcd95960521b6044820152606490fd5b634e487b7160e01b84526021600452602484fd5b50825481106102bc565b81358152602091820191016102a9565b8380fd5b5080fd5b503461022757602036600319011261022757600435801515806108a2575b61070690611d96565b808252600160205260ff600160408420015416600581101561088e5761072c9015611f8b565b8082526001602052604082206003810154421161085a576006018054835b8181106107fa57505033835260046020526040832054801515806107f0575b6107b1575b5061077a903390611f4a565b338252600460205280604083205533907f87969bc7faf902221a147b95ceba76e011c5efb0339a0a8ee7a2bb82d9cfbbd68380a380f35b8352600160205260ff60016040852001541660058110156106a957906107dc600461077a9314611ecc565b33845260046020528360408120559061076e565b5082811415610769565b6108048184611d68565b905460039190911b1c6001600160a01b031633146108245760010161074a565b60405162461bcd60e51b815260206004820152600e60248201526d105b1c9958591e481a9bda5b995960921b6044820152606490fd5b60405162461bcd60e51b815260206004820152600c60248201526b131bd8989e4818db1bdcd95960a21b6044820152606490fd5b634e487b7160e01b83526021600452602483fd5b50815481106106fd565b503461022757806003193601126102275760209054604051908152f35b50346102275780600319360112610227576020604051600a8152f35b611ce0565b5034610227576020366003190112610227576060906040906001600160a01b03610912611c3e565b168152600260205220600181015490600360028201549101549060405192835260208301526040820152f35b5034610227576040366003190112610227576004356024358015158103610c945781151580610c8a575b61097190611d96565b818352600160205260ff60016040852001541660058110156106a9576109979015611f8b565b818352600160205260036040842001544210610c4d57818352600160205260408320600181019160ff8354166005811015610c3957610c005783855260016020526007604086200154610bbb5715610b48578284526001602052604084209260405191610140830183811067ffffffffffffffff821117610b34576040959495526104d2835261162e60208401526123346040840152610d806060840152611ed2608084015261092960a0840152611a8560c08401526111d760e08401526122c561010084015261054d6101208401526007869401935b600a811015610a9057600190610a8a8160051b860151876121bb565b01610a6e565b5092509290505b600260ff19825416179055603c4201804211610b2057906007916004820155016040519060208201602083528154809152604083019185526020852090855b818110610b0a5750505090807f1e16023bc0e15b4ad55f8e37dccf554d1451b0d26c8e55cd0e7e041eea33c75d920390a280f35b8254845260209093019260019283019201610ad6565b634e487b7160e01b84526011600452602484fd5b634e487b7160e01b87526041600452602487fd5b9082845260016020526040842060078591013360601b915b600a8110610b7057505050610a97565b600190610bb561271060405160208101904282524460408201528a60608201528460808201528760a082015260948152610bab60b482611d2e565b51902006846121bb565b01610b60565b60405162461bcd60e51b815260206004820152601760248201527f436172647320616c72656164792067656e6572617465640000000000000000006044820152606490fd5b60405162461bcd60e51b815260206004820152601160248201527047616d65206e6f7420696e206c6f62627960781b6044820152606490fd5b634e487b7160e01b86526021600452602486fd5b60405162461bcd60e51b815260206004820152601560248201527410d85b9b9bdd081cdd185c9d0819d85b59481e595d605a1b6044820152606490fd5b5082548210610968565b8280fd5b50346102275760203660031901126102275760043580151580610f84575b610cbf90611d96565b808252600160205260ff600160408420015416600581101561088e576003610ce79114611f8b565b8082526001602052604082209060058201544210610f3f57600882019260098301929060068201815b8154811015610e9d57610d238183611d68565b905460039190911b1c6001600160a01b03166000818152602089905260409020600581015491989093909160ff1615610e90578491825b6003841015610df457610d9a600191828689010154808a528c60205260ff8460408c2001541615610da2575b89528b602052600260408a20015490611f3d565b930192610d5a565b60405160028e610db183611cfc565b838352610deb8d604060208601918083528187019481865288825260205220945185555115158885019060ff801983541691151516179055565b51910155610d86565b8891979550600194935060207f0dbadce3c07b5bc30ebbe2bcec3d6bb95f9b3a0bb33178ff0d61e4d7d4339915919b939b848952600282528660408a2001610e3d828254611f3d565b905584895260028252600260408a2001610e578154611f18565b905580610e71575b604051908152a35b0195909295610d10565b84895260028252600360408a2001610e898154611f18565b9055610e5f565b9750939150600190610e67565b5091600101600460ff19825416179055805b8254811015610f165780610ec560019285611d68565b838060a01b0391549060031b1c168352600460205284604084205414610eec575b01610eaf565b610ef68185611d68565b838060a01b0391549060031b1c1683526004602052826040812055610ee6565b50827fce24807f7e4b60b4e641462f13029fa5e5f79075bbc3f8e5cd43ecd19661d7608280a280f35b60405162461bcd60e51b815260206004820152601f60248201527f5265736f6c7574696f6e20646561646c696e65206e6f742072656163686564006044820152606490fd5b5081548110610cb6565b503461022757602036600319011261022757610fab600435612019565b90610fdb610fd06040969596519687961515875260a0602088015260a0870190611c9f565b936040860190611c7c565b606084015260808301520390f35b50346102275760203660031901126102275760043590600354821015610227576003548210156110565760038082527fc2575a0e9e593c00f959f8c92f12db2869c3395a3b0502d05e2516446f71f85b92909201546040516001600160a01b039290931b1c168152602090f35b634e487b7160e01b81526032600452602490fd5b50346102275780600319360112610227576020604051600f8152f35b5034610227578060031936011261022757602060405160128152f35b50346102275760203660031901126102275760206110c66110c1611c3e565b611fcd565b604051908152f35b5060803660031901126102275760243560043567ffffffffffffffff8211610c945736602383011215610c945781600401359161110a83611d50565b906111186040519283611d2e565b838252602082016024819560051b8301019136831161130d5760248101915b83831061139f575050505060443567ffffffffffffffff811161139b573660238201121561139b5780600401356024602061117183611d50565b61117e6040519182611d2e565b838152019160051b8301019136831161130d57602401905b82821061138b575050506064359282151580611381575b6111b690611d96565b828552600160205260ff6001604087200154166005811015610c395760036111de9114611f8b565b82855260016020526040852084341061134957600a019360ff855416611311577f00000000000000000000000000000000000000000000000000000000000000006001600160a01b031691823b1561130d579290918692604051948593631df3cbc560e31b855260248501906020600487015251809152604485019060448160051b870101929187905b8282106112d857505050509083809203925af180156112cd576112b9575b507f702ec30635253cae6d3600d38314e616495cf01545d34e549c49ebf6451dab3b8380a2805460ff1916600117905580f35b836112c691949294611d2e565b9138611286565b6040513d86823e3d90fd5b929597509260019194965060206112fa81926043198c82030186528851611c9f565b960192019201928795938b979593611268565b8680fd5b60405162461bcd60e51b815260206004820152601060248201526f105b1c9958591e481c995cdbdb1d995960821b6044820152606490fd5b60405162461bcd60e51b815260206004820152601060248201526f496e73756666696369656e742066656560801b6044820152606490fd5b50845483106111ad565b8135815260209182019101611196565b8480fd5b823567ffffffffffffffff811161142c578201903660438301121561142c5760248201359067ffffffffffffffff8211611418576040516113ea601f8401601f191660200182611d2e565b8281528a36604486860101116102275760208481969560448397018386013783010152815201920191611137565b634e487b7160e01b8a52604160045260248afd5b8880fd5b503461022757602036600319011261022757600435801515806114fd575b61145790611d96565b808252600160205260ff600160408420015416600581101561088e57600261147f9114611f8b565b8152600160205260408120600481015442106114b85760018101600360ff1982541617905561025842019081421161051f576005015580f35b60405162461bcd60e51b815260206004820152601b60248201527f43686f69636520646561646c696e65206e6f74207265616368656400000000006044820152606490fd5b508154811061144e565b5034610227578060031936011261022757602060405160018152f35b5034610227576020366003190112610227576020906040906001600160a01b0361154b611c3e565b168152600483522054604051908152f35b50346102275760203660031901126102275760043580151580611618575b61158390611d96565b8152600160205260076040822001604051908160208254918281520190819285526020852090855b81811061160257505050826115c1910383611d2e565b604051928392602084019060208552518091526040840192915b8181106115e9575050500390f35b82518452859450602093840193909201916001016115db565b82548452602090930192600192830192016115ab565b508154811061157a565b5034610227578060031936011261022757602060405160028152f35b503461022757604036600319011261022757604080916004358015158061169a575b61166990611d96565b81526001602052600982822001602435825260205220600260ff600183015416910154825191151582526020820152f35b5081548110611660565b503461022757806003193601126102275760206040516102588152f35b50346102275780600319360112610227573381526004602052604081205480611772575b508054906116f282611f18565b8155818152600160205260408120918083556001830160ff198154169055426002840155603c420180421161051f578361173791600360209601556006339101611f4a565b3382526004835280604083205560405191817ffadb9547847a0c2c31f4c02590545e318d33d7aae99071caecf3fa4ce3cd7dca339280a38152f35b8152600160205260ff60016040832001541660058110156117ad5760046117999114611ecc565b3381526004602052806040812055386116e5565b634e487b7160e01b82526021600452602482fd5b5034610227576020366003190112610227576080906040906001600160a01b036117e9611c3e565b16815260026020522060018060a01b03815416906001810154906003600282015491015491604051938452602084015260408301526060820152f35b50346102275760403660031901126102275760043581526005602052602435604082205580f35b5034610227576040366003190112610227576101609061193a60043591611871611c23565b9260606040516118818282611d2e565b3690378015158061197e575b61189690611d96565b81526001602052604081209281906040516118b081611cfc565b8381526020810184905260408101849052926001600160a01b03821661193c575b505060ff6001850154169360028101549060038101546004820154600583015491600760068501549401549461190a604051809b611c7c565b60208a015260408901526060880152608087015260a086015260c0850152151560e0840152610100830190611c54565bf35b6001600160a01b0390911681526008850160205260409020600581015460ff16611967575b806118d1565b9150506119776001809201611dd4565b9038611961565b508154811061188d565b50346102275760203660031901126102275760406020916004358152600583522054604051908152f35b5034610227576020366003190112610227576119e4906119df600435918215159081611a07575b50611d96565b611e0b565b90611a0360405192839215158352604060208401526040830190611c9f565b0390f35b9050548210386119d9565b50346102275760203660031901126102275760043580151580611ae0575b611a3990611d96565b8152600160205260066040822001604051908160208254918281520190819285526020852090855b818110611ac15750505082611a77910383611d2e565b604051928392602084019060208552518091526040840192915b818110611a9f575050500390f35b82516001600160a01b0316845285945060209384019390920191600101611a91565b82546001600160a01b0316845260209093019260019283019201611a61565b5081548110611a30565b5034610227578060031936011261022757602060405160148152f35b503461022757602036600319011261022757604060e091600435815260016020522080549060ff6001820154169060028101546003820154600483015491611b6560ff600a600587015496015416956040519788526020880190611c7c565b60408601526060850152608084015260a0830152151560c0820152f35b503461022757604036600319011261022757604060a091600435611ba4611c23565b9060608451611bb38282611d2e565b36903780151580611c19575b611bc890611d96565b8252600160205260088383200190600180861b0316825260205220600481015490611bfd600160ff6005840154169201611dd4565b91611c0b6040518094611c54565b606083015215156080820152f35b5082548110611bbf565b602435906001600160a01b0382168203611c3957565b600080fd5b600435906001600160a01b0382168203611c3957565b906000905b60038210611c6657505050565b6020806001928551815201930191019091611c59565b906005821015611c895752565b634e487b7160e01b600052602160045260246000fd5b919082519283825260005b848110611ccb575050826000602080949584010152601f8019910116010190565b80602080928401015182828601015201611caa565b34611c39576000366003190112611c39576020604051603c8152f35b6060810190811067ffffffffffffffff821117611d1857604052565b634e487b7160e01b600052604160045260246000fd5b90601f8019910116810190811067ffffffffffffffff821117611d1857604052565b67ffffffffffffffff8111611d185760051b60200190565b8054821015611d805760005260206000200190600090565b634e487b7160e01b600052603260045260246000fd5b15611d9d57565b60405162461bcd60e51b815260206004820152600f60248201526e125b9d985b1a590819d85b59481251608a1b6044820152606490fd5b60405191906000835b60038210611df557505050611df3606083611d2e565b565b6001602081928554815201930191019091611ddd565b6000526001602052604060002060ff6001820154166005811015611c8957611e8d57600301544210611e4f57600190604051611e48602082611d2e565b6000815290565b600090604051611e60604082611d2e565b601a81527f4c6f62627920646561646c696e65206e6f742072656163686564000000000000602082015290565b50600090604051611e9f604082611d2e565b601a81527f47616d65206973206e6f7420696e204c4f424259207374617465000000000000602082015290565b15611ed357565b60405162461bcd60e51b815260206004820152601960248201527f416c726561647920696e20616e206163746976652067616d65000000000000006044820152606490fd5b6000198114611f275760010190565b634e487b7160e01b600052601160045260246000fd5b91908201809211611f2757565b8054600160401b811015611d1857611f6791600182018155611d68565b81546001600160a01b0393841660039290921b91821b9390911b1916919091179055565b15611f9257565b60405162461bcd60e51b8152602060048201526013602482015272496e76616c69642067616d652073746174757360681b6044820152606490fd5b6001600160a01b031660009081526004602052604090205480611ff1575b50600090565b80600052600160205260ff600160406000200154166005811015611c8957600414611feb5790565b801580156121af575b6121765760005260016020526040600020600560ff6001830154169101548042906005841015611c895760038403612132578082106120f0571561207b57600193604051612071602082611d2e565b6000815293929190565b60009360405161208c608082611d2e565b604581527f5265736f6c7574696f6e20646561646c696e65206e6f7420736574202867616d60208201527f65206d6179206e6f742068617665207472616e736974696f6e65642070726f7060408201526465726c792960d81b606082015293929190565b50600093604051612102604082611d2e565b601f81527f5265736f6c7574696f6e20646561646c696e65206e6f74207265616368656400602082015293929190565b5050600092604051612145604082611d2e565b602081527f47616d65206973206e6f7420696e205245534f4c5554494f4e2073746174757360208201529291904290565b50600090604051612188604082611d2e565b600f81526e125b9d985b1a590819d85b59481251608a1b6020820152906000906000904290565b50600054811015612022565b8054600160401b811015611d18576121d891600182018155611d68565b819291549060031b91821b91600019901b191617905556fea2646970667358221220339aa766388b4b2a73a408373bfa8cc7c06098384d46937ba197f80b5915414064736f6c634300081c0033",
  "linkReferences": {},
  "deployedLinkReferences": {}
}