{
  "_format": "hh-sol-artifact-1",
  "contractName": "TradingCardGame",
  "sourceName": "contracts/TradingCardGame.sol",
  "abi": [
    {
      "inputs": [
        {
          "internalType": "address",
          "name": "_pythAddress",
          "type": "address"
        }
      ],
      "stateMutability": "nonpayable",
      "type": "constructor"
    },
    {
      "anonymous": false,
      "inputs": [
        {
          "indexed": true,
          "internalType": "uint256",
          "name": "gameId",
          "type": "uint256"
        },
        {
          "indexed": true,
          "internalType": "address",
          "name": "player",
          "type": "address"
        },
        {
          "indexed": false,
          "internalType": "uint256[3]",
          "name": "cards",
          "type": "uint256[3]"
        }
      ],
      "name": "ChoicesCommitted",
      "type": "event"
    },
    {
      "anonymous": false,
      "inputs": [
        {
          "indexed": true,
          "internalType": "uint256",
          "name": "gameId",
          "type": "uint256"
        },
        {
          "indexed": false,
          "internalType": "uint256[]",
          "name": "cards",
          "type": "uint256[]"
        }
      ],
      "name": "GameActive",
      "type": "event"
    },
    {
      "anonymous": false,
      "inputs": [
        {
          "indexed": true,
          "internalType": "uint256",
          "name": "gameId",
          "type": "uint256"
        }
      ],
      "name": "GameEnded",
      "type": "event"
    },
    {
      "anonymous": false,
      "inputs": [
        {
          "indexed": true,
          "internalType": "uint256",
          "name": "gameId",
          "type": "uint256"
        },
        {
          "indexed": true,
          "internalType": "address",
          "name": "starter",
          "type": "address"
        }
      ],
      "name": "GameStarted",
      "type": "event"
    },
    {
      "anonymous": false,
      "inputs": [
        {
          "indexed": true,
          "internalType": "uint256",
          "name": "gameId",
          "type": "uint256"
        },
        {
          "indexed": true,
          "internalType": "address",
          "name": "player",
          "type": "address"
        }
      ],
      "name": "PlayerJoined",
      "type": "event"
    },
    {
      "anonymous": false,
      "inputs": [
        {
          "indexed": true,
          "internalType": "uint256",
          "name": "gameId",
          "type": "uint256"
        },
        {
          "indexed": true,
          "internalType": "address",
          "name": "player",
          "type": "address"
        },
        {
          "indexed": false,
          "internalType": "uint256",
          "name": "points",
          "type": "uint256"
        }
      ],
      "name": "PointsAwarded",
      "type": "event"
    },
    {
      "anonymous": false,
      "inputs": [
        {
          "indexed": true,
          "internalType": "uint256",
          "name": "gameId",
          "type": "uint256"
        }
      ],
      "name": "PricesUpdated",
      "type": "event"
    },
    {
      "inputs": [],
      "name": "CHOICE_DURATION",
      "outputs": [
        {
          "internalType": "uint256",
          "name": "",
          "type": "uint256"
        }
      ],
      "stateMutability": "view",
      "type": "function"
    },
    {
      "inputs": [],
      "name": "LOBBY_DURATION",
      "outputs": [
        {
          "internalType": "uint256",
          "name": "",
          "type": "uint256"
        }
      ],
      "stateMutability": "view",
      "type": "function"
    },
    {
      "inputs": [],
      "name": "MIN_PLAYERS",
      "outputs": [
        {
          "internalType": "uint256",
          "name": "",
          "type": "uint256"
        }
      ],
      "stateMutability": "view",
      "type": "function"
    },
    {
      "inputs": [],
      "name": "POINTS_MARKET_CAP_VOLUME",
      "outputs": [
        {
          "internalType": "uint256",
          "name": "",
          "type": "uint256"
        }
      ],
      "stateMutability": "view",
      "type": "function"
    },
    {
      "inputs": [],
      "name": "POINTS_PERCENTAGE_CHANGE",
      "outputs": [
        {
          "internalType": "uint256",
          "name": "",
          "type": "uint256"
        }
      ],
      "stateMutability": "view",
      "type": "function"
    },
    {
      "inputs": [],
      "name": "POINTS_PRICE_ABOVE_BELOW",
      "outputs": [
        {
          "internalType": "uint256",
          "name": "",
          "type": "uint256"
        }
      ],
      "stateMutability": "view",
      "type": "function"
    },
    {
      "inputs": [],
      "name": "POINTS_PRICE_UP_DOWN",
      "outputs": [
        {
          "internalType": "uint256",
          "name": "",
          "type": "uint256"
        }
      ],
      "stateMutability": "view",
      "type": "function"
    },
    {
      "inputs": [],
      "name": "RESOLUTION_DURATION",
      "outputs": [
        {
          "internalType": "uint256",
          "name": "",
          "type": "uint256"
        }
      ],
      "stateMutability": "view",
      "type": "function"
    },
    {
      "inputs": [
        {
          "internalType": "uint256",
          "name": "",
          "type": "uint256"
        }
      ],
      "name": "assetPriceIds",
      "outputs": [
        {
          "internalType": "bytes32",
          "name": "",
          "type": "bytes32"
        }
      ],
      "stateMutability": "view",
      "type": "function"
    },
    {
      "inputs": [
        {
          "internalType": "uint256",
          "name": "_gameId",
          "type": "uint256"
        }
      ],
      "name": "canStartGame",
      "outputs": [
        {
          "internalType": "bool",
          "name": "canStart",
          "type": "bool"
        },
        {
          "internalType": "string",
          "name": "reason",
          "type": "string"
        }
      ],
      "stateMutability": "view",
      "type": "function"
    },
    {
      "inputs": [
        {
          "internalType": "uint256",
          "name": "_gameId",
          "type": "uint256"
        },
        {
          "internalType": "uint256[3]",
          "name": "_cardNumbers",
          "type": "uint256[3]"
        }
      ],
      "name": "commitChoices",
      "outputs": [],
      "stateMutability": "nonpayable",
      "type": "function"
    },
    {
      "inputs": [],
      "name": "createGame",
      "outputs": [
        {
          "internalType": "uint256",
          "name": "",
          "type": "uint256"
        }
      ],
      "stateMutability": "nonpayable",
      "type": "function"
    },
    {
      "inputs": [
        {
          "internalType": "uint256",
          "name": "_gameId",
          "type": "uint256"
        }
      ],
      "name": "endGame",
      "outputs": [],
      "stateMutability": "nonpayable",
      "type": "function"
    },
    {
      "inputs": [
        {
          "internalType": "uint256",
          "name": "",
          "type": "uint256"
        }
      ],
      "name": "games",
      "outputs": [
        {
          "internalType": "uint256",
          "name": "gameId",
          "type": "uint256"
        },
        {
          "internalType": "enum TradingCardGame.GameStatus",
          "name": "status",
          "type": "uint8"
        },
        {
          "internalType": "uint256",
          "name": "startTime",
          "type": "uint256"
        },
        {
          "internalType": "uint256",
          "name": "lobbyDeadline",
          "type": "uint256"
        },
        {
          "internalType": "uint256",
          "name": "choiceDeadline",
          "type": "uint256"
        },
        {
          "internalType": "uint256",
          "name": "resolutionDeadline",
          "type": "uint256"
        },
        {
          "internalType": "bool",
          "name": "resolved",
          "type": "bool"
        }
      ],
      "stateMutability": "view",
      "type": "function"
    },
    {
      "inputs": [
        {
          "internalType": "uint256",
          "name": "_gameId",
          "type": "uint256"
        }
      ],
      "name": "getGameCards",
      "outputs": [
        {
          "internalType": "uint256[]",
          "name": "",
          "type": "uint256[]"
        }
      ],
      "stateMutability": "view",
      "type": "function"
    },
    {
      "inputs": [
        {
          "internalType": "uint256",
          "name": "_gameId",
          "type": "uint256"
        }
      ],
      "name": "getGamePlayers",
      "outputs": [
        {
          "internalType": "address[]",
          "name": "",
          "type": "address[]"
        }
      ],
      "stateMutability": "view",
      "type": "function"
    },
    {
      "inputs": [
        {
          "internalType": "uint256",
          "name": "_gameId",
          "type": "uint256"
        }
      ],
      "name": "getGameState",
      "outputs": [
        {
          "internalType": "enum TradingCardGame.GameStatus",
          "name": "status",
          "type": "uint8"
        },
        {
          "internalType": "uint256",
          "name": "startTime",
          "type": "uint256"
        },
        {
          "internalType": "uint256",
          "name": "lobbyDeadline",
          "type": "uint256"
        },
        {
          "internalType": "uint256",
          "name": "choiceDeadline",
          "type": "uint256"
        },
        {
          "internalType": "uint256",
          "name": "resolutionDeadline",
          "type": "uint256"
        },
        {
          "internalType": "uint256",
          "name": "playerCount",
          "type": "uint256"
        },
        {
          "internalType": "uint256",
          "name": "cardCount",
          "type": "uint256"
        }
      ],
      "stateMutability": "view",
      "type": "function"
    },
    {
      "inputs": [],
      "name": "getNextGameId",
      "outputs": [
        {
          "internalType": "uint256",
          "name": "",
          "type": "uint256"
        }
      ],
      "stateMutability": "view",
      "type": "function"
    },
    {
      "inputs": [
        {
          "internalType": "address",
          "name": "_player",
          "type": "address"
        }
      ],
      "name": "getPlayerActiveGame",
      "outputs": [
        {
          "internalType": "uint256",
          "name": "",
          "type": "uint256"
        }
      ],
      "stateMutability": "view",
      "type": "function"
    },
    {
      "inputs": [
        {
          "internalType": "uint256",
          "name": "_gameId",
          "type": "uint256"
        },
        {
          "internalType": "address",
          "name": "_player",
          "type": "address"
        }
      ],
      "name": "getPlayerChoices",
      "outputs": [
        {
          "internalType": "uint256[3]",
          "name": "selectedCards",
          "type": "uint256[3]"
        },
        {
          "internalType": "uint256",
          "name": "committedAt",
          "type": "uint256"
        },
        {
          "internalType": "bool",
          "name": "committed",
          "type": "bool"
        }
      ],
      "stateMutability": "view",
      "type": "function"
    },
    {
      "inputs": [
        {
          "internalType": "address",
          "name": "_player",
          "type": "address"
        }
      ],
      "name": "getPlayerScore",
      "outputs": [
        {
          "internalType": "uint256",
          "name": "totalPoints",
          "type": "uint256"
        },
        {
          "internalType": "uint256",
          "name": "gamesPlayed",
          "type": "uint256"
        },
        {
          "internalType": "uint256",
          "name": "gamesWon",
          "type": "uint256"
        }
      ],
      "stateMutability": "view",
      "type": "function"
    },
    {
      "inputs": [
        {
          "internalType": "uint256",
          "name": "_gameId",
          "type": "uint256"
        },
        {
          "internalType": "uint256",
          "name": "_cardNumber",
          "type": "uint256"
        }
      ],
      "name": "getPredictionResult",
      "outputs": [
        {
          "internalType": "bool",
          "name": "correct",
          "type": "bool"
        },
        {
          "internalType": "uint256",
          "name": "pointsEarned",
          "type": "uint256"
        }
      ],
      "stateMutability": "view",
      "type": "function"
    },
    {
      "inputs": [],
      "name": "isContractActive",
      "outputs": [
        {
          "internalType": "bool",
          "name": "",
          "type": "bool"
        }
      ],
      "stateMutability": "pure",
      "type": "function"
    },
    {
      "inputs": [
        {
          "internalType": "uint256",
          "name": "_gameId",
          "type": "uint256"
        }
      ],
      "name": "joinGame",
      "outputs": [],
      "stateMutability": "nonpayable",
      "type": "function"
    },
    {
      "inputs": [
        {
          "internalType": "uint256",
          "name": "",
          "type": "uint256"
        }
      ],
      "name": "leaderboard",
      "outputs": [
        {
          "internalType": "address",
          "name": "",
          "type": "address"
        }
      ],
      "stateMutability": "view",
      "type": "function"
    },
    {
      "inputs": [
        {
          "internalType": "address",
          "name": "",
          "type": "address"
        }
      ],
      "name": "playerActiveGame",
      "outputs": [
        {
          "internalType": "uint256",
          "name": "",
          "type": "uint256"
        }
      ],
      "stateMutability": "view",
      "type": "function"
    },
    {
      "inputs": [
        {
          "internalType": "address",
          "name": "",
          "type": "address"
        }
      ],
      "name": "playerScores",
      "outputs": [
        {
          "internalType": "address",
          "name": "player",
          "type": "address"
        },
        {
          "internalType": "uint256",
          "name": "totalPoints",
          "type": "uint256"
        },
        {
          "internalType": "uint256",
          "name": "gamesPlayed",
          "type": "uint256"
        },
        {
          "internalType": "uint256",
          "name": "gamesWon",
          "type": "uint256"
        }
      ],
      "stateMutability": "view",
      "type": "function"
    },
    {
      "inputs": [],
      "name": "pyth",
      "outputs": [
        {
          "internalType": "contract IPyth",
          "name": "",
          "type": "address"
        }
      ],
      "stateMutability": "view",
      "type": "function"
    },
    {
      "inputs": [
        {
          "internalType": "uint256",
          "name": "_assetIndex",
          "type": "uint256"
        },
        {
          "internalType": "bytes32",
          "name": "_priceId",
          "type": "bytes32"
        }
      ],
      "name": "setAssetPriceId",
      "outputs": [],
      "stateMutability": "nonpayable",
      "type": "function"
    },
    {
      "inputs": [
        {
          "internalType": "uint256",
          "name": "_gameId",
          "type": "uint256"
        },
        {
          "internalType": "bool",
          "name": "_useSecureRandomness",
          "type": "bool"
        }
      ],
      "name": "startGame",
      "outputs": [],
      "stateMutability": "nonpayable",
      "type": "function"
    },
    {
      "inputs": [
        {
          "internalType": "uint256",
          "name": "_gameId",
          "type": "uint256"
        }
      ],
      "name": "transitionToResolution",
      "outputs": [],
      "stateMutability": "nonpayable",
      "type": "function"
    },
    {
      "inputs": [
        {
          "internalType": "uint256",
          "name": "_gameId",
          "type": "uint256"
        },
        {
          "internalType": "bytes[]",
          "name": "_priceUpdateData",
          "type": "bytes[]"
        },
        {
          "internalType": "bytes32[]",
          "name": "",
          "type": "bytes32[]"
        },
        {
          "internalType": "uint256",
          "name": "_updateFee",
          "type": "uint256"
        }
      ],
      "name": "updatePricesAndResolve",
      "outputs": [],
      "stateMutability": "payable",
      "type": "function"
    }
  ],
  "bytecode": "0x60a0604052348015600f57600080fd5b506040516126ef3803806126ef833981016040819052602c916041565b6001600160a01b03166080526001600055606f565b600060208284031215605257600080fd5b81516001600160a01b0381168114606857600080fd5b9392505050565b60805161265e610091600039600081816106ba0152610de6015261265e6000f3fe6080604052600436106101e35760003560e01c80639a18e98111610102578063e085c53911610095578063efaa55a011610064578063efaa55a014610668578063f79c913e14610688578063f98d06f0146106a8578063ffde0c74146106dc57600080fd5b8063e085c539146105d8578063e5c43ef114610369578063e7fad8af1461063e578063ede8af011461065357600080fd5b8063bee4c6d3116100d1578063bee4c6d31461054b578063bf36839914610560578063d0399bb814610598578063d7793c19146105b857600080fd5b80639a18e981146104e3578063a457d3d614610503578063ad7465d414610516578063b0fd159f1461053657600080fd5b806362550ae11161017a57806385f07bbe1161014957806385f07bbe14610458578063860cbc771461046d578063863df0a11461049a5780638f5949f9146104c757600080fd5b806362550ae11461037e5780637255d729146103f65780637ca90e591461040b5780637f57504f1461042157600080fd5b8063392b749c116101b6578063392b749c146102df5780633c8aec3f1461030d57806353644f311461033a5780635c5c83821461036957600080fd5b806310c28d31146101e8578063117a5b90146102205780631226897a1461028f57806315a40f49146102b2575b600080fd5b3480156101f457600080fd5b50610208610203366004611f30565b61070f565b60405161021793929190611f7f565b60405180910390f35b34801561022c57600080fd5b5061027c61023b366004611fa3565b60016020819052600091825260409091208054918101546002820154600383015460048401546005850154600a9095015460ff948516959394929391921687565b6040516102179796959493929190611ff4565b34801561029b57600080fd5b506102a4601481565b604051908152602001610217565b3480156102be57600080fd5b506102d26102cd366004611fa3565b6107cb565b6040516102179190612033565b3480156102eb57600080fd5b506102ff6102fa366004611fa3565b610869565b6040516102179291906120c5565b34801561031957600080fd5b506102a4610328366004611fa3565b60056020526000908152604090205481565b34801561034657600080fd5b506103676103553660046120e8565b60009182526005602052604090912055565b005b34801561037557600080fd5b506102a4603c81565b34801561038a57600080fd5b506103cc61039936600461210a565b600260208190526000918252604090912080546001820154928201546003909201546001600160a01b0390911692919084565b604080516001600160a01b0390951685526020850193909352918301526060820152608001610217565b34801561040257600080fd5b506102a4610976565b34801561041757600080fd5b506102a461025881565b34801561042d57600080fd5b5061044161043c3660046120e8565b610acb565b604080519215158352602083019190915201610217565b34801561046457600080fd5b506102a4600281565b34801561047957600080fd5b5061048d610488366004611fa3565b610b2e565b604051610217919061212c565b3480156104a657600080fd5b506102a46104b536600461210a565b60046020526000908152604090205481565b3480156104d357600080fd5b5060405160018152602001610217565b3480156104ef57600080fd5b506103676104fe366004611fa3565b610bc1565b61036761051136600461223c565b610cc0565b34801561052257600080fd5b506102a461053136600461210a565b610e91565b34801561054257600080fd5b506102a4601281565b34801561055757600080fd5b506102a4600f81565b34801561056c57600080fd5b5061058061057b366004611fa3565b610ef0565b6040516001600160a01b039091168152602001610217565b3480156105a457600080fd5b506103676105b3366004611fa3565b610f1a565b3480156105c457600080fd5b506103676105d3366004612392565b6112f8565b3480156105e457600080fd5b506106236105f336600461210a565b6001600160a01b031660009081526002602081905260409091206001810154918101546003909101549192909190565b60408051938452602084019290925290820152606001610217565b34801561064a57600080fd5b506102a4600a81565b34801561065f57600080fd5b506000546102a4565b34801561067457600080fd5b50610367610683366004611fa3565b6113da565b34801561069457600080fd5b506103676106a33660046123c7565b611640565b3480156106b457600080fd5b506105807f000000000000000000000000000000000000000000000000000000000000000081565b3480156106e857600080fd5b506106fc6106f7366004611fa3565b611a39565b6040516102179796959493929190612450565b610717611ea3565b6000808460008111801561072c575060005481105b6107515760405162461bcd60e51b81526004016107489061248e565b60405180910390fd5b60008681526001602081815260408084206001600160a01b038a168552600801909152918290206004810154600582015484516060810195869052929493850193919260ff90911691849060039082845b8154815260200190600101908083116107a2575050505050925094509450945050509250925092565b6060816000811180156107df575060005481105b6107fb5760405162461bcd60e51b81526004016107489061248e565b6000838152600160209081526040918290206006018054835181840281018401909452808452909183018282801561085c57602002820191906000526020600020905b81546001600160a01b0316815260019091019060200180831161083e575b5050505050915050919050565b600060608260008111801561087f575060005481105b61089b5760405162461bcd60e51b81526004016107489061248e565b600084815260016020526040812090600182015460ff1660048111156108c3576108c3611fbc565b1461090a5760006040518060400160405280601a81526020017f47616d65206973206e6f7420696e204c4f4242592073746174650000000000008152509350935050610970565b80600301544210156109585760006040518060400160405280601a81526020017f4c6f62627920646561646c696e65206e6f7420726561636865640000000000008152509350935050610970565b60016040518060200160405280600081525093509350505b50915091565b336000908152600460205260408120548015610a105760008181526001602052604090206004600182015460ff1660048111156109b5576109b5611fbc565b146109fe5760405162461bcd60e51b8152602060048201526019602482015278416c726561647920696e20616e206163746976652067616d6560381b6044820152606401610748565b50336000908152600460205260408120555b600080548180610a1f836124cd565b909155506000818152600160208190526040909120828155908101805460ff19169055426002820181905591925090610a5a90603c906124e6565b60038201556006810180546001810182556000918252602080832090910180546001600160a01b031916339081179091558083526004909152604080832085905551909184917ffadb9547847a0c2c31f4c02590545e318d33d7aae99071caecf3fa4ce3cd7dca9190a35092915050565b60008083600081118015610ae0575060005481105b610afc5760405162461bcd60e51b81526004016107489061248e565b50505060009182526001602081815260408085209385526009909301905291209081015460029091015460ff90911691565b606081600081118015610b42575060005481105b610b5e5760405162461bcd60e51b81526004016107489061248e565b6000838152600160209081526040918290206007018054835181840281018401909452808452909183018282801561085c57602002820191906000526020600020905b815481526020019060010190808311610ba1575050505050915050919050565b80600081118015610bd3575060005481105b610bef5760405162461bcd60e51b81526004016107489061248e565b816002806000838152600160208190526040909120015460ff166004811115610c1a57610c1a611fbc565b14610c375760405162461bcd60e51b8152600401610748906124f9565b60008481526001602052604090206004810154421015610c995760405162461bcd60e51b815260206004820152601b60248201527f43686f69636520646561646c696e65206e6f74207265616368656400000000006044820152606401610748565b60018101805460ff19166003179055610cb4610258426124e6565b60059091015550505050565b83600081118015610cd2575060005481105b610cee5760405162461bcd60e51b81526004016107489061248e565b846003806000838152600160208190526040909120015460ff166004811115610d1957610d19611fbc565b14610d365760405162461bcd60e51b8152600401610748906124f9565b600087815260016020526040902034851115610d875760405162461bcd60e51b815260206004820152601060248201526f496e73756666696369656e742066656560801b6044820152606401610748565b600a81015460ff1615610dcf5760405162461bcd60e51b815260206004820152601060248201526f105b1c9958591e481c995cdbdb1d995960821b6044820152606401610748565b604051631df3cbc560e31b81526001600160a01b037f0000000000000000000000000000000000000000000000000000000000000000169063ef9e5e28908790610e1d908b90600401612526565b6000604051808303818588803b158015610e3657600080fd5b505af1158015610e4a573d6000803e3d6000fd5b50506040518b93507f702ec30635253cae6d3600d38314e616495cf01545d34e549c49ebf6451dab3b925060009150a2600a01805460ff1916600117905550505050505050565b6001600160a01b0381166000908152600460205260408120548015610ee75760008181526001602052604090206004600182015460ff166004811115610ed957610ed9611fbc565b14610ee5575092915050565b505b50600092915050565b60038181548110610f0057600080fd5b6000918252602090912001546001600160a01b0316905081565b80600081118015610f2c575060005481105b610f485760405162461bcd60e51b81526004016107489061248e565b816003806000838152600160208190526040909120015460ff166004811115610f7357610f73611fbc565b14610f905760405162461bcd60e51b8152600401610748906124f9565b60008481526001602052604090206005810154421015610ff25760405162461bcd60e51b815260206004820152601f60248201527f5265736f6c7574696f6e20646561646c696e65206e6f742072656163686564006044820152606401610748565b60005b60068201548110156112195760008260060182815481106110185761101861258b565b60009182526020808320909101546001600160a01b031680835260088601909152604090912060058101549192509060ff16611055575050611211565b6000805b60038110156111395760008360010182600381106110795761107961258b565b0154600081815260098901602052604090206001015490915060ff166111105760006110a58c83611abf565b90506000816110b55760006110be565b6110be83611ac8565b604080516060810182528581529315156020808601918252858301938452600087815260098e0190915291909120935184555160018401805460ff191691151591909117905551600290920191909155505b600081815260098801602052604090206002015461112e90846124e6565b925050600101611059565b506001600160a01b038316600090815260026020526040812060010180548392906111659084906124e6565b90915550506001600160a01b0383166000908152600260208190526040822001805491611191836124cd565b909155505080156111c9576001600160a01b03831660009081526002602052604081206003018054916111c3836124cd565b91905055505b826001600160a01b0316897f0dbadce3c07b5bc30ebbe2bcec3d6bb95f9b3a0bb33178ff0d61e4d7d43399158360405161120591815260200190565b60405180910390a35050505b600101610ff5565b5060018101805460ff1916600417905560005b60068201548110156112c55785600460008460060184815481106112525761125261258b565b60009182526020808320909101546001600160a01b03168352820192909252604001902054036112bd576000600460008460060184815481106112975761129761258b565b60009182526020808320909101546001600160a01b031683528201929092526040019020555b60010161122c565b5060405185907fce24807f7e4b60b4e641462f13029fa5e5f79075bbc3f8e5cd43ecd19661d76090600090a25050505050565b8160008111801561130a575060005481105b6113265760405162461bcd60e51b81526004016107489061248e565b826000806000838152600160208190526040909120015460ff16600481111561135157611351611fbc565b1461136e5760405162461bcd60e51b8152600401610748906124f9565b600085815260016020526040902060038101544210156113c85760405162461bcd60e51b815260206004820152601560248201527410d85b9b9bdd081cdd185c9d0819d85b59481e595d605a1b6044820152606401610748565b6113d28686611bf0565b505050505050565b806000811180156113ec575060005481105b6114085760405162461bcd60e51b81526004016107489061248e565b816000806000838152600160208190526040909120015460ff16600481111561143357611433611fbc565b146114505760405162461bcd60e51b8152600401610748906124f9565b600084815260016020526040902060038101544211156114a15760405162461bcd60e51b815260206004820152600c60248201526b131bd8989e4818db1bdcd95960a21b6044820152606401610748565b60005b600682015481101561152a57336001600160a01b03168260060182815481106114cf576114cf61258b565b6000918252602090912001546001600160a01b0316036115225760405162461bcd60e51b815260206004820152600e60248201526d105b1c9958591e481a9bda5b995960921b6044820152606401610748565b6001016114a4565b5033600090815260046020526040902054801580159061154a5750858114155b156115d35760008181526001602052604090206004600182015460ff16600481111561157857611578611fbc565b146115c15760405162461bcd60e51b8152602060048201526019602482015278416c726561647920696e20616e206163746976652067616d6560381b6044820152606401610748565b50336000908152600460205260408120555b6006820180546001810182556000918252602080832090910180546001600160a01b031916339081179091558083526004909152604080832089905551909188917f87969bc7faf902221a147b95ceba76e011c5efb0339a0a8ee7a2bb82d9cfbbd69190a3505050505050565b81600081118015611652575060005481105b61166e5760405162461bcd60e51b81526004016107489061248e565b826002806000838152600160208190526040909120015460ff16600481111561169957611699611fbc565b146116b65760405162461bcd60e51b8152600401610748906124f9565b600085815260016020526040902060048101544211156117115760405162461bcd60e51b815260206004820152601660248201527510da1bda58d948191958591b1a5b99481c185cdcd95960521b6044820152606401610748565b33600090815260088201602052604090206005015460ff161561176a5760405162461bcd60e51b8152602060048201526011602482015270105b1c9958591e4818dbdb5b5a5d1d1959607a1b6044820152606401610748565b6000805b60068301548110156117c457336001600160a01b03168360060182815481106117995761179961258b565b6000918252602090912001546001600160a01b0316036117bc57600191506117c4565b60010161176e565b50806118125760405162461bcd60e51b815260206004820152601960248201527f4e6f74206120706c6179657220696e20746869732067616d65000000000000006044820152606401610748565b60005b60038110156118c8576000805b600785015481101561187b578883600381106118405761184061258b565b602002015185600701828154811061185a5761185a61258b565b906000526020600020015403611873576001915061187b565b600101611822565b50806118bf5760405162461bcd60e51b815260206004820152601360248201527224b73b30b634b21031b0b93210373ab6b132b960691b6044820152606401610748565b50600101611815565b50604080516080810182523380825260208083018a8152428486015260016060850181905260009384526008880190925293909120825181546001600160a01b0319166001600160a01b03909116178155925191929161192c918301906003611ec1565b5060408281015160048301556060909201516005909101805460ff191691151591909117905551339088907fd67de08bd4ba5b6a6548667370488a8781753615acb89ae1ac1f96f6c270ecf090611984908a906125a1565b60405180910390a3600160005b60068401548110156119f8578360080160008560060183815481106119b8576119b861258b565b60009182526020808320909101546001600160a01b0316835282019290925260400190206005015460ff166119f057600091506119f8565b600101611991565b508080611a09575082600401544210155b15611a2f5760018301805460ff19166003179055611a29610258426124e6565b60058401555b5050505050505050565b600080600080600080600087600081118015611a56575060005481105b611a725760405162461bcd60e51b81526004016107489061248e565b50505060009586525050600160208190526040909420938401546002850154600386015460048701546005880154600689015460079099015460ff90951699939892975090955093509190565b60005b92915050565b600080600a611ad781856125c5565b611ae191906125d9565b90506000611af06007836125d9565b6006811115611b0157611b01611fbc565b90506000816006811115611b1757611b17611fbc565b1480611b3457506001816006811115611b3257611b32611fbc565b145b15611b435750600a9392505050565b6002816006811115611b5757611b57611fbc565b1480611b7457506003816006811115611b7257611b72611fbc565b145b15611b835750600f9392505050565b6004816006811115611b9757611b97611fbc565b1480611bb457506005816006811115611bb257611bb2611fbc565b145b15611bc3575060129392505050565b6006816006811115611bd757611bd7611fbc565b03611be6575060149392505050565b5060009392505050565b600082815260016020526040812090600182015460ff166004811115611c1857611c18611fbc565b14611c595760405162461bcd60e51b815260206004820152601160248201527047616d65206e6f7420696e206c6f62627960781b6044820152606401610748565b611c638383611cc4565b60018101805460ff19166002179055611c7d603c426124e6565b600482015560405183907f1e16023bc0e15b4ad55f8e37dccf554d1451b0d26c8e55cd0e7e041eea33c75d90611cb79060078501906125ed565b60405180910390a2505050565b6000828152600160205260409020600781015415611d245760405162461bcd60e51b815260206004820152601760248201527f436172647320616c72656164792067656e6572617465640000000000000000006044820152606401610748565b8115611d3857611d3383611d41565b505050565b611d3383611dfe565b60008181526001602090815260408083208151610140810183526104d2815261162e9381019390935261233491830191909152610d806060830152611ed2608083015261092960a0830152611a8560c08301526111d760e08301526122c561010083015261054d610120830152915b600a811015611df857826007018282600a8110611dcf57611dcf61258b565b602090810291909101518254600181810185556000948552929093209092019190915501611db0565b50505050565b6000818152600160205260408120905b600a811015611d335760408051426020820152449181019190915260608082018590526080820183905233901b6bffffffffffffffffffffffff191660a08201526000906127109060b4016040516020818303038152906040528051906020012060001c611e7c91906125d9565b60078401805460018181018355600092835260209092200191909155919091019050611e0e565b60405180606001604052806003906020820280368337509192915050565b8260038101928215611eef579160200282015b82811115611eef578251825591602001919060010190611ed4565b50611efb929150611eff565b5090565b5b80821115611efb5760008155600101611f00565b80356001600160a01b0381168114611f2b57600080fd5b919050565b60008060408385031215611f4357600080fd5b82359150611f5360208401611f14565b90509250929050565b8060005b6003811015611df8578151845260209384019390910190600101611f60565b60a08101611f8d8286611f5c565b8360608301528215156080830152949350505050565b600060208284031215611fb557600080fd5b5035919050565b634e487b7160e01b600052602160045260246000fd5b60058110611ff057634e487b7160e01b600052602160045260246000fd5b9052565b87815260e081016120086020830189611fd2565b60408201969096526060810194909452608084019290925260a0830152151560c09091015292915050565b602080825282518282018190526000918401906040840190835b818110156120745783516001600160a01b031683526020938401939092019160010161204d565b509095945050505050565b6000815180845260005b818110156120a557602081850181015186830182015201612089565b506000602082860101526020601f19601f83011685010191505092915050565b82151581526040602082015260006120e0604083018461207f565b949350505050565b600080604083850312156120fb57600080fd5b50508035926020909101359150565b60006020828403121561211c57600080fd5b61212582611f14565b9392505050565b602080825282518282018190526000918401906040840190835b81811015612074578351835260209384019390920191600101612146565b634e487b7160e01b600052604160045260246000fd5b604051601f8201601f1916810167ffffffffffffffff811182821017156121a3576121a3612164565b604052919050565b600067ffffffffffffffff8211156121c5576121c5612164565b5060051b60200190565b600082601f8301126121e057600080fd5b81356121f36121ee826121ab565b61217a565b8082825260208201915060208360051b86010192508583111561221557600080fd5b602085015b8381101561223257803583526020928301920161221a565b5095945050505050565b6000806000806080858703121561225257600080fd5b84359350602085013567ffffffffffffffff81111561227057600080fd5b8501601f8101871361228157600080fd5b803561228f6121ee826121ab565b8082825260208201915060208360051b8501019250898311156122b157600080fd5b602084015b8381101561235557803567ffffffffffffffff8111156122d557600080fd5b8501603f81018c136122e657600080fd5b602081013567ffffffffffffffff81111561230357612303612164565b612316601f8201601f191660200161217a565b8181526040838301018e101561232b57600080fd5b816040840160208301376000602083830101528086525050506020830192506020810190506122b6565b509550505050604085013567ffffffffffffffff81111561237557600080fd5b612381878288016121cf565b949793965093946060013593505050565b600080604083850312156123a557600080fd5b82359150602083013580151581146123bc57600080fd5b809150509250929050565b600080608083850312156123da57600080fd5b82359150603f830184136123ed57600080fd5b6040516060810167ffffffffffffffff8111828210171561241057612410612164565b60405280608085018681111561242557600080fd5b602086015b8181101561244257803583526020928301920161242a565b505050809150509250929050565b60e0810161245e828a611fd2565b8760208301528660408301528560608301528460808301528360a08301528260c083015298975050505050505050565b6020808252600f908201526e125b9d985b1a590819d85b59481251608a1b604082015260600190565b634e487b7160e01b600052601160045260246000fd5b6000600182016124df576124df6124b7565b5060010190565b80820180821115611ac257611ac26124b7565b602080825260139082015272496e76616c69642067616d652073746174757360681b604082015260600190565b6000602082016020835280845180835260408501915060408160051b86010192506020860160005b8281101561257f57603f1987860301845261256a85835161207f565b9450602093840193919091019060010161254e565b50929695505050505050565b634e487b7160e01b600052603260045260246000fd5b60608101611ac28284611f5c565b634e487b7160e01b600052601260045260246000fd5b6000826125d4576125d46125af565b500490565b6000826125e8576125e86125af565b500690565b602080825282548282018190526000848152918220906040840190835b8181101561207457835483526001938401936020909301920161260a56fea2646970667358221220be7d5986021d2e41a6167e635babf7f6ccdab11da6d490a302fef62c78e454ac64736f6c634300081c0033",
  "linkReferences": {},
  "deployedLinkReferences": {}
}